{
  "contractName": "DelegatedWalletManager",
  "abi": [
    {
      "constant": true,
      "inputs": [],
      "name": "DefaultFactory",
      "outputs": [
        {
          "name": "",
          "type": "address"
        }
      ],
      "payable": false,
      "stateMutability": "view",
      "type": "function",
      "signature": "0x28878fa2"
    },
    {
      "constant": true,
      "inputs": [],
      "name": "blockCreated",
      "outputs": [
        {
          "name": "",
          "type": "uint256"
        }
      ],
      "payable": false,
      "stateMutability": "view",
      "type": "function",
      "signature": "0x4e989a4c"
    },
    {
      "inputs": [
        {
          "name": "defaultFactory",
          "type": "address"
        }
      ],
      "payable": false,
      "stateMutability": "nonpayable",
      "type": "constructor",
      "signature": "constructor"
    },
    {
      "anonymous": false,
      "inputs": [
        {
          "indexed": true,
          "name": "owner",
          "type": "address"
        },
        {
          "indexed": false,
          "name": "wallet",
          "type": "address"
        }
      ],
      "name": "AddWallet_event",
      "type": "event",
      "signature": "0xf9fe8c8f6812279aad6b2f8051214c6a19512a6af9fe0a1a821c0e96b11c1995"
    },
    {
      "anonymous": false,
      "inputs": [
        {
          "indexed": true,
          "name": "owner",
          "type": "address"
        },
        {
          "indexed": false,
          "name": "wallet",
          "type": "address"
        }
      ],
      "name": "RemoveWallet_event",
      "type": "event",
      "signature": "0xc271a19d5cf9958aaacae360c3870c2847dc24d02f03a6a2889a0fcfacf46e06"
    },
    {
      "constant": false,
      "inputs": [
        {
          "name": "wallet",
          "type": "address"
        }
      ],
      "name": "addWallet",
      "outputs": [
        {
          "name": "success",
          "type": "bool"
        }
      ],
      "payable": false,
      "stateMutability": "nonpayable",
      "type": "function",
      "signature": "0xefeb5f1f"
    },
    {
      "constant": false,
      "inputs": [
        {
          "name": "customFactory",
          "type": "address"
        },
        {
          "name": "delegates",
          "type": "address[]"
        }
      ],
      "name": "createWallet",
      "outputs": [
        {
          "name": "wallet",
          "type": "address"
        }
      ],
      "payable": false,
      "stateMutability": "nonpayable",
      "type": "function",
      "signature": "0x1a244e7c"
    },
    {
      "constant": false,
      "inputs": [
        {
          "name": "wallet",
          "type": "address"
        }
      ],
      "name": "removeWallet",
      "outputs": [
        {
          "name": "success",
          "type": "bool"
        }
      ],
      "payable": false,
      "stateMutability": "nonpayable",
      "type": "function",
      "signature": "0xa75fe8e1"
    },
    {
      "constant": true,
      "inputs": [
        {
          "name": "account",
          "type": "address"
        }
      ],
      "name": "getWallets",
      "outputs": [
        {
          "name": "",
          "type": "address[]"
        }
      ],
      "payable": false,
      "stateMutability": "view",
      "type": "function",
      "signature": "0x422c29a4"
    },
    {
      "constant": true,
      "inputs": [
        {
          "name": "account",
          "type": "address"
        }
      ],
      "name": "totalWallets",
      "outputs": [
        {
          "name": "",
          "type": "uint256"
        }
      ],
      "payable": false,
      "stateMutability": "view",
      "type": "function",
      "signature": "0x33dccbbc"
    },
    {
      "constant": true,
      "inputs": [
        {
          "name": "account",
          "type": "address"
        },
        {
          "name": "wallet",
          "type": "address"
        }
      ],
      "name": "contains",
      "outputs": [
        {
          "name": "",
          "type": "bool"
        }
      ],
      "payable": false,
      "stateMutability": "view",
      "type": "function",
      "signature": "0xed26cae8"
    },
    {
      "constant": true,
      "inputs": [
        {
          "name": "account",
          "type": "address"
        },
        {
          "name": "i",
          "type": "uint256"
        }
      ],
      "name": "index",
      "outputs": [
        {
          "name": "",
          "type": "address"
        }
      ],
      "payable": false,
      "stateMutability": "view",
      "type": "function",
      "signature": "0x59fc1a6e"
    },
    {
      "constant": true,
      "inputs": [
        {
          "name": "account",
          "type": "address"
        },
        {
          "name": "wallet",
          "type": "address"
        }
      ],
      "name": "indexOf",
      "outputs": [
        {
          "name": "",
          "type": "uint256"
        }
      ],
      "payable": false,
      "stateMutability": "view",
      "type": "function",
      "signature": "0xf95bd6f7"
    }
  ],
  "bytecode": "0x608060405234801561001057600080fd5b506040516020806112dd8339810180604052602081101561003057600080fd5b81019080805190602001909291905050504360008190555080600160006101000a81548173ffffffffffffffffffffffffffffffffffffffff021916908373ffffffffffffffffffffffffffffffffffffffff16021790555050611244806100996000396000f3fe6080604052600436106100a4576000357c0100000000000000000000000000000000000000000000000000000000900463ffffffff1680631a244e7c146100a957806328878fa2146101ce57806333dccbbc14610225578063422c29a41461028a5780634e989a4c1461033057806359fc1a6e1461035b578063a75fe8e1146103f6578063ed26cae81461045f578063efeb5f1f146104e8578063f95bd6f714610551575b600080fd5b3480156100b557600080fd5b5061018c600480360360408110156100cc57600080fd5b81019080803573ffffffffffffffffffffffffffffffffffffffff1690602001909291908035906020019064010000000081111561010957600080fd5b82018360208201111561011b57600080fd5b8035906020019184602083028401116401000000008311171561013d57600080fd5b919080806020026020016040519081016040528093929190818152602001838360200280828437600081840152601f19601f8201169050808301925050505050505091929192905050506105d6565b604051808273ffffffffffffffffffffffffffffffffffffffff1673ffffffffffffffffffffffffffffffffffffffff16815260200191505060405180910390f35b3480156101da57600080fd5b506101e3610930565b604051808273ffffffffffffffffffffffffffffffffffffffff1673ffffffffffffffffffffffffffffffffffffffff16815260200191505060405180910390f35b34801561023157600080fd5b506102746004803603602081101561024857600080fd5b81019080803573ffffffffffffffffffffffffffffffffffffffff169060200190929190505050610956565b6040518082815260200191505060405180910390f35b34801561029657600080fd5b506102d9600480360360208110156102ad57600080fd5b81019080803573ffffffffffffffffffffffffffffffffffffffff169060200190929190505050610a45565b6040518080602001828103825283818151815260200191508051906020019060200280838360005b8381101561031c578082015181840152602081019050610301565b505050509050019250505060405180910390f35b34801561033c57600080fd5b50610345610b8a565b6040518082815260200191505060405180910390f35b34801561036757600080fd5b506103b46004803603604081101561037e57600080fd5b81019080803573ffffffffffffffffffffffffffffffffffffffff16906020019092919080359060200190929190505050610b90565b604051808273ffffffffffffffffffffffffffffffffffffffff1673ffffffffffffffffffffffffffffffffffffffff16815260200191505060405180910390f35b34801561040257600080fd5b506104456004803603602081101561041957600080fd5b81019080803573ffffffffffffffffffffffffffffffffffffffff169060200190929190505050610c88565b604051808215151515815260200191505060405180910390f35b34801561046b57600080fd5b506104ce6004803603604081101561048257600080fd5b81019080803573ffffffffffffffffffffffffffffffffffffffff169060200190929190803573ffffffffffffffffffffffffffffffffffffffff169060200190929190505050610e2c565b604051808215151515815260200191505060405180910390f35b3480156104f457600080fd5b506105376004803603602081101561050b57600080fd5b81019080803573ffffffffffffffffffffffffffffffffffffffff169060200190929190505050610f50565b604051808215151515815260200191505060405180910390f35b34801561055d57600080fd5b506105c06004803603604081101561057457600080fd5b81019080803573ffffffffffffffffffffffffffffffffffffffff169060200190929190803573ffffffffffffffffffffffffffffffffffffffff1690602001909291905050506110f4565b6040518082815260200191505060405180910390f35b600080600073ffffffffffffffffffffffffffffffffffffffff168473ffffffffffffffffffffffffffffffffffffffff16141561063857600160009054906101000a900473ffffffffffffffffffffffffffffffffffffffff16905061063c565b8390505b8073ffffffffffffffffffffffffffffffffffffffff16631a244e7c33856040518363ffffffff167c0100000000000000000000000000000000000000000000000000000000028152600401808373ffffffffffffffffffffffffffffffffffffffff1673ffffffffffffffffffffffffffffffffffffffff16815260200180602001828103825283818151815260200191508051906020019060200280838360005b838110156106fa5780820151818401526020810190506106df565b505050509050019350505050602060405180830381600087803b15801561072057600080fd5b505af1158015610734573d6000803e3d6000fd5b505050506040513d602081101561074a57600080fd5b81019080805190602001909291905050509150600073ffffffffffffffffffffffffffffffffffffffff168273ffffffffffffffffffffffffffffffffffffffff1614151561092957600260003373ffffffffffffffffffffffffffffffffffffffff1673ffffffffffffffffffffffffffffffffffffffff16815260200190815260200160002073__ListLib_______________________________63a45c62aa9091846040518363ffffffff167c0100000000000000000000000000000000000000000000000000000000028152600401808381526020018273ffffffffffffffffffffffffffffffffffffffff1673ffffffffffffffffffffffffffffffffffffffff1681526020019250505060206040518083038186803b15801561087257600080fd5b505af4158015610886573d6000803e3d6000fd5b505050506040513d602081101561089c57600080fd5b8101908080519060200190929190505050503373ffffffffffffffffffffffffffffffffffffffff167ff9fe8c8f6812279aad6b2f8051214c6a19512a6af9fe0a1a821c0e96b11c199583604051808273ffffffffffffffffffffffffffffffffffffffff1673ffffffffffffffffffffffffffffffffffffffff16815260200191505060405180910390a25b5092915050565b600160009054906101000a900473ffffffffffffffffffffffffffffffffffffffff1681565b6000600260008373ffffffffffffffffffffffffffffffffffffffff1673ffffffffffffffffffffffffffffffffffffffff16815260200190815260200160002073__ListLib_______________________________630faa9b9890916040518263ffffffff167c01000000000000000000000000000000000000000000000000000000000281526004018082815260200191505060206040518083038186803b158015610a0357600080fd5b505af4158015610a17573d6000803e3d6000fd5b505050506040513d6020811015610a2d57600080fd5b81019080805190602001909291905050509050919050565b6060600260008373ffffffffffffffffffffffffffffffffffffffff1673ffffffffffffffffffffffffffffffffffffffff16815260200190815260200160002073__ListLib_______________________________6357abf55690916040518263ffffffff167c01000000000000000000000000000000000000000000000000000000000281526004018082815260200191505060006040518083038186803b158015610af257600080fd5b505af4158015610b06573d6000803e3d6000fd5b505050506040513d6000823e3d601f19601f820116820180604052506020811015610b3057600080fd5b810190808051640100000000811115610b4857600080fd5b82810190506020810184811115610b5e57600080fd5b8151856020820283011164010000000082111715610b7b57600080fd5b50509291905050509050919050565b60005481565b6000600260008473ffffffffffffffffffffffffffffffffffffffff1673ffffffffffffffffffffffffffffffffffffffff16815260200190815260200160002073__ListLib_______________________________63a544c2139091846040518363ffffffff167c0100000000000000000000000000000000000000000000000000000000028152600401808381526020018281526020019250505060206040518083038186803b158015610c4557600080fd5b505af4158015610c59573d6000803e3d6000fd5b505050506040513d6020811015610c6f57600080fd5b8101908080519060200190929190505050905092915050565b6000600260003373ffffffffffffffffffffffffffffffffffffffff1673ffffffffffffffffffffffffffffffffffffffff16815260200190815260200160002073__ListLib_______________________________63af9fe56b9091846040518363ffffffff167c0100000000000000000000000000000000000000000000000000000000028152600401808381526020018273ffffffffffffffffffffffffffffffffffffffff1673ffffffffffffffffffffffffffffffffffffffff1681526020019250505060206040518083038186803b158015610d6957600080fd5b505af4158015610d7d573d6000803e3d6000fd5b505050506040513d6020811015610d9357600080fd5b810190808051906020019092919050505090508015610e27573373ffffffffffffffffffffffffffffffffffffffff167fc271a19d5cf9958aaacae360c3870c2847dc24d02f03a6a2889a0fcfacf46e0683604051808273ffffffffffffffffffffffffffffffffffffffff1673ffffffffffffffffffffffffffffffffffffffff16815260200191505060405180910390a25b919050565b6000600260008473ffffffffffffffffffffffffffffffffffffffff1673ffffffffffffffffffffffffffffffffffffffff16815260200190815260200160002073__ListLib_______________________________632b63aaef9091846040518363ffffffff167c0100000000000000000000000000000000000000000000000000000000028152600401808381526020018273ffffffffffffffffffffffffffffffffffffffff1673ffffffffffffffffffffffffffffffffffffffff1681526020019250505060206040518083038186803b158015610f0d57600080fd5b505af4158015610f21573d6000803e3d6000fd5b505050506040513d6020811015610f3757600080fd5b8101908080519060200190929190505050905092915050565b6000600260003373ffffffffffffffffffffffffffffffffffffffff1673ffffffffffffffffffffffffffffffffffffffff16815260200190815260200160002073__ListLib_______________________________63a45c62aa9091846040518363ffffffff167c0100000000000000000000000000000000000000000000000000000000028152600401808381526020018273ffffffffffffffffffffffffffffffffffffffff1673ffffffffffffffffffffffffffffffffffffffff1681526020019250505060206040518083038186803b15801561103157600080fd5b505af4158015611045573d6000803e3d6000fd5b505050506040513d602081101561105b57600080fd5b8101908080519060200190929190505050905080156110ef573373ffffffffffffffffffffffffffffffffffffffff167ff9fe8c8f6812279aad6b2f8051214c6a19512a6af9fe0a1a821c0e96b11c199583604051808273ffffffffffffffffffffffffffffffffffffffff1673ffffffffffffffffffffffffffffffffffffffff16815260200191505060405180910390a25b919050565b6000600260008473ffffffffffffffffffffffffffffffffffffffff1673ffffffffffffffffffffffffffffffffffffffff16815260200190815260200160002073__ListLib_______________________________63170769759091846040518363ffffffff167c0100000000000000000000000000000000000000000000000000000000028152600401808381526020018273ffffffffffffffffffffffffffffffffffffffff1673ffffffffffffffffffffffffffffffffffffffff1681526020019250505060206040518083038186803b1580156111d557600080fd5b505af41580156111e9573d6000803e3d6000fd5b505050506040513d60208110156111ff57600080fd5b810190808051906020019092919050505090509291505056fea165627a7a723058203f0f1fe7f234c5061a93255842df0d7d4b8cfd90eef7fea098023313db1767200029",
  "source": "pragma solidity ^0.5.0;\r\n\r\nimport \"./DelegatedWalletFactory.sol\";\r\n\r\n/// @title DelegatedWalletManager Contract\r\n/// @author Joseph Reed\r\n/// @dev This contract's goal is to make it easy for anyone to manage existing and new delagated wallets\r\ncontract DelegatedWalletManager {\r\n\r\n    using ListLib for ListLib.AddressList;              // Import the data structure AddressList from the ListLib contract\r\n\r\n    uint public blockCreated;                           // The block the factory was deployed\r\n    DelegatedWalletFactory public DefaultFactory;       // The default factory when creating a wallet if a custom factory is not supplied\r\n    mapping (address => ListLib.AddressList) wallets;   // The list of wallets added by each account\r\n\r\n    /// @notice Constructor to create a DelegatedWalletManager\r\n    /// @param defaultFactory The defeault factory when creating a wallet\r\n    constructor (DelegatedWalletFactory defaultFactory) public {\r\n        blockCreated = block.number;\r\n        DefaultFactory = defaultFactory;\r\n    }\r\n\r\n    /// @notice Adds a wallet to the account list.\r\n    /// @param wallet The delegated wallet to add to the account list\r\n    /// @return True if the wallet was successfully added\r\n    function addWallet (DelegatedWallet wallet) public returns (bool success) {\r\n        success = wallets[msg.sender].add(address(wallet));\r\n        if(success)\r\n            emit AddWallet_event(msg.sender, address(wallet));\r\n    }\r\n\r\n    /// @notice Adds a wallet to the account list.\r\n    /// @param customFactory If not '0x0', deploys a new delegated wallet from 'customFactory'\r\n    /// @param delegates A list of predefined delegates to add to the wallet\r\n    /// @return True if the wallet was successfully created\r\n    function createWallet (DelegatedWalletFactory customFactory, address[] memory delegates) public returns (DelegatedWallet wallet) {\r\n        DelegatedWalletFactory Factory;\r\n        if(address(customFactory) == address(0x0))\r\n            Factory = DefaultFactory;\r\n        else\r\n            Factory = customFactory;\r\n            \r\n        wallet = Factory.createWallet(msg.sender, delegates);\r\n        if(address(wallet) != address(0x0)) {\r\n            wallets[msg.sender].add(address(wallet));\r\n            emit AddWallet_event(msg.sender, address(wallet));\r\n        }\r\n    }\r\n\r\n    /// @notice Removes a wallet from the account list.\r\n    /// @param wallet The delegated wallet to remove from the account list\r\n    /// @return True if the wallet was successfully removed\r\n    function removeWallet (DelegatedWallet wallet) public returns (bool success) {\r\n        success = wallets[msg.sender].remove(address(wallet));\r\n        if(success)\r\n            emit RemoveWallet_event(msg.sender, address(wallet));\r\n    }\r\n\r\n    /// @notice Fetches a wallet list from a given account.\r\n    /// @param account The given account from which to fetch the wallet list\r\n    /// @return an address array of wallets owned by 'account'\r\n    function getWallets (address account) public view returns (address[] memory) {\r\n        return wallets[account].get();\r\n    }\r\n    \r\n    /// @notice Fetches a how many wallets are in the list from a given account.\r\n    /// @param account The given account from which to fetch the wallet list\r\n    /// @return the total number of wallets\r\n    function totalWallets (address account) public view returns (uint) {\r\n        return wallets[account].getLength();\r\n    }\r\n    \r\n    /// @notice Shows if a wallet exists in the wallet list from a given account.\r\n    /// @param account The given account to check\r\n    /// @param wallet The given wallet to check for\r\n    /// @return True if the given wallet exists an accounts wallet list\r\n    function contains (address account, DelegatedWallet wallet) public view returns (bool) {\r\n        return wallets[account].contains(address(wallet));\r\n    }\r\n\r\n    /// @notice Fetches the wallet at index 'i' from the 'account' wallet list\r\n    /// @param i The index to check\r\n    /// @return The wallet address that exists at index 'i' in the 'account' wallet list\r\n    function index (address account, uint i) public view returns (DelegatedWallet) {\r\n        return DelegatedWallet(address(uint160(wallets[account].index(i))));\r\n    }\r\n\r\n    /// @notice Fetches the index of a given 'wallet' from a given 'account' wallet list\r\n    /// @param account The given account to check\r\n    /// @param wallet The given wallet to check\r\n    /// @return The current index of 'wallet' in 'account' wallet list\r\n    function indexOf (address account, DelegatedWallet wallet) public view returns (uint) {\r\n        return wallets[account].indexOf(address(wallet));\r\n    }\r\n\r\n    event AddWallet_event(address indexed owner, address wallet);\r\n    event RemoveWallet_event(address indexed owner, address wallet);\r\n\r\n}\r\n",
  "sourcePath": "C:/Users/My/Documents/GitHub/everchain-project/delegated-wallet/contracts/DelegatedWalletManager.sol",
  "compiler": {
    "name": "solc",
    "version": "0.5.0+commit.1d4f565a.Emscripten.clang"
  },
  "schemaVersion": "3.0.0-beta.2",
  "updatedAt": "2018-11-25T21:17:05.183Z",
  "devdoc": {
    "details": "This contract's goal is to make it easy for anyone to manage existing and new delagated wallets",
    "methods": {
      "addWallet(address)": {
        "return": "True if the wallet was successfully added"
      },
      "constructor": {
        "params": {
          "defaultFactory": "The defeault factory when creating a wallet"
        }
      },
      "contains(address,address)": {
        "return": "True if the given wallet exists an accounts wallet list"
      },
      "createWallet(address,address[])": {
        "return": "True if the wallet was successfully created"
      },
      "getWallets(address)": {
        "return": "an address array of wallets owned by 'account'"
      },
      "index(address,uint256)": {
        "return": "The wallet address that exists at index 'i' in the 'account' wallet list"
      },
      "indexOf(address,address)": {
        "return": "The current index of 'wallet' in 'account' wallet list"
      },
      "removeWallet(address)": {
        "return": "True if the wallet was successfully removed"
      },
      "totalWallets(address)": {
        "return": "the total number of wallets"
      }
    }
  },
  "userdoc": {
    "methods": {}
  }
}