{
  "contractName": "DelegatedWalletFactory",
  "abi": [
    {
      "constant": true,
      "inputs": [],
      "name": "blockCreated",
      "outputs": [
        {
          "name": "",
          "type": "uint256"
        }
      ],
      "payable": false,
      "stateMutability": "view",
      "type": "function",
      "signature": "0x4e989a4c"
    },
    {
      "constant": true,
      "inputs": [],
      "name": "blueprint",
      "outputs": [
        {
          "name": "",
          "type": "address"
        }
      ],
      "payable": false,
      "stateMutability": "view",
      "type": "function",
      "signature": "0xc05efa15"
    },
    {
      "inputs": [
        {
          "name": "_blueprint",
          "type": "address"
        }
      ],
      "payable": false,
      "stateMutability": "nonpayable",
      "type": "constructor",
      "signature": "constructor"
    },
    {
      "anonymous": false,
      "inputs": [
        {
          "indexed": false,
          "name": "caller",
          "type": "address"
        },
        {
          "indexed": false,
          "name": "owner",
          "type": "address"
        },
        {
          "indexed": false,
          "name": "wallet",
          "type": "address"
        }
      ],
      "name": "CreateWallet_event",
      "type": "event",
      "signature": "0xe78b8ef631cdb1c7eab040bf8895a32210784ff81663b7473dfcfa4f8bdadda9"
    },
    {
      "anonymous": false,
      "inputs": [
        {
          "indexed": true,
          "name": "target",
          "type": "address"
        },
        {
          "indexed": false,
          "name": "clone",
          "type": "address"
        }
      ],
      "name": "CloneCreated",
      "type": "event",
      "signature": "0x3d2b821286d97aa9d35330d87a82f7b548b9737b10e2d1ba59994edfd50e9d2b"
    },
    {
      "constant": false,
      "inputs": [
        {
          "name": "owner",
          "type": "address"
        },
        {
          "name": "delegates",
          "type": "address[]"
        }
      ],
      "name": "createWallet",
      "outputs": [
        {
          "name": "",
          "type": "address"
        }
      ],
      "payable": true,
      "stateMutability": "payable",
      "type": "function",
      "signature": "0x1a244e7c"
    }
  ],
  "bytecode": "0x608060405234801561001057600080fd5b506040516020806107cf8339810180604052602081101561003057600080fd5b81019080805190602001909291905050504360008190555080600160006101000a81548173ffffffffffffffffffffffffffffffffffffffff021916908373ffffffffffffffffffffffffffffffffffffffff16021790555050610736806100996000396000f3fe608060405260043610610057576000357c0100000000000000000000000000000000000000000000000000000000900463ffffffff1680631a244e7c1461005c5780634e989a4c14610174578063c05efa151461019f575b600080fd5b6101326004803603604081101561007257600080fd5b81019080803573ffffffffffffffffffffffffffffffffffffffff169060200190929190803590602001906401000000008111156100af57600080fd5b8201836020820111156100c157600080fd5b803590602001918460208302840111640100000000831117156100e357600080fd5b919080806020026020016040519081016040528093929190818152602001838360200280828437600081840152601f19601f8201169050808301925050505050505091929192905050506101f6565b604051808273ffffffffffffffffffffffffffffffffffffffff1673ffffffffffffffffffffffffffffffffffffffff16815260200191505060405180910390f35b34801561018057600080fd5b506101896105c3565b6040518082815260200191505060405180910390f35b3480156101ab57600080fd5b506101b46105c9565b604051808273ffffffffffffffffffffffffffffffffffffffff1673ffffffffffffffffffffffffffffffffffffffff16815260200191505060405180910390f35b600080610224600160009054906101000a900473ffffffffffffffffffffffffffffffffffffffff166105ef565b905060008190508073ffffffffffffffffffffffffffffffffffffffff1663c4d66de8306040518263ffffffff167c0100000000000000000000000000000000000000000000000000000000028152600401808273ffffffffffffffffffffffffffffffffffffffff1673ffffffffffffffffffffffffffffffffffffffff168152602001915050600060405180830381600087803b1580156102c657600080fd5b505af11580156102da573d6000803e3d6000fd5b5050505060008090505b84518110156103e8578173ffffffffffffffffffffffffffffffffffffffff1663e71bdf41868381518110151561031757fe5b906020019060200201516040518263ffffffff167c0100000000000000000000000000000000000000000000000000000000028152600401808273ffffffffffffffffffffffffffffffffffffffff1673ffffffffffffffffffffffffffffffffffffffff168152602001915050602060405180830381600087803b15801561039f57600080fd5b505af11580156103b3573d6000803e3d6000fd5b505050506040513d60208110156103c957600080fd5b81019080805190602001909291905050505080806001019150506102e4565b508073ffffffffffffffffffffffffffffffffffffffff1663f2fde38b866040518263ffffffff167c0100000000000000000000000000000000000000000000000000000000028152600401808273ffffffffffffffffffffffffffffffffffffffff1673ffffffffffffffffffffffffffffffffffffffff168152602001915050600060405180830381600087803b15801561048457600080fd5b505af1158015610498573d6000803e3d6000fd5b5050505060003411156104ed578073ffffffffffffffffffffffffffffffffffffffff166108fc349081150290604051600060405180830381858888f193505050501580156104eb573d6000803e3d6000fd5b505b7fe78b8ef631cdb1c7eab040bf8895a32210784ff81663b7473dfcfa4f8bdadda9338683604051808473ffffffffffffffffffffffffffffffffffffffff1673ffffffffffffffffffffffffffffffffffffffff1681526020018373ffffffffffffffffffffffffffffffffffffffff1673ffffffffffffffffffffffffffffffffffffffff1681526020018273ffffffffffffffffffffffffffffffffffffffff1673ffffffffffffffffffffffffffffffffffffffff168152602001935050505060405180910390a1809250505092915050565b60005481565b600160009054906101000a900473ffffffffffffffffffffffffffffffffffffffff1681565b600060608060405190810160405280603f81526020017f600034603b57603080600f833981f36000368180378080368173bebebebebebe81526020017fbebebebebebebebebebebebebebe5af43d82803e15602c573d90f35b3d90fd0081525090506000836c0100000000000000000000000002905060008090505b60148110156106f357818160148110151561068257fe5b1a7f0100000000000000000000000000000000000000000000000000000000000000028382601a018151811015156106b657fe5b9060200101907effffffffffffffffffffffffffffffffffffffffffffffffffffffffffffff1916908160001a905350808060010191505061066b565b5081516020830181816000f094505050505091905056fea165627a7a72305820e714e6e7521e6bc87310b143e9e78883cdbb039b3d70fa138da5481f5a8de5cf0029",
  "source": "pragma solidity ^0.5.0;\n\nimport \"./external/CloneFactory.sol\";\nimport \"./DelegatedWallet.sol\";\n\n/// @title DelegatedWalletFactory Contract\n/// @author Joseph Reed\n/// @dev The DelegatedWalletFactory makes it easy to deploy delegated wallet. It provides several\n///      helper functions to deploy a wallet in several ways\ncontract DelegatedWalletFactory is IDelegatedWalletFactory, CloneFactory {\n    \n    uint public blockCreated;           // The block the factory was deployed\n    address public blueprint;   // The delegated wallet blueprint to supply the clone factory\n\n    /// @notice Constructor to create a DelegatedWalletFactory\n    /// @param _blueprint The delegated wallet blueprint \n    constructor (address _blueprint) public {\n        blockCreated = block.number;    // The block number at the time of deployment\n        blueprint = _blueprint;         // The blueprint for every delegated wallet\n    }\n\n    /// @notice Creates a delegated wallet with the owner set to 'owner' and predefined 'delegates'\n    /// @param owner The owner of the delegated wallet\n    /// @param delegates The owner of the delegated wallet\n    /// @return The delegated wallet address\n    function createWallet (address owner, address[] memory delegates) public payable returns (IDelegatedWallet) {\n        // see https://solidity.readthedocs.io/en/v0.5.0/050-breaking-changes.html?highlight=address_make_payable for converting to payable addresses\n        address payable clone = address(uint160(createClone(blueprint)));\n        DelegatedWallet wallet = DelegatedWallet(clone);\n        wallet.initialize(address(this));\n\n        for(uint i = 0; i < delegates.length; i++)\n            wallet.addDelegate(delegates[i]);\n        \n        wallet.transferOwnership(owner);\n        \n        if(msg.value > 0)\n            address(wallet).transfer(msg.value);\n\n        emit CreateWallet_event(msg.sender, owner, address(wallet));\n\n        return wallet;\n    }\n    \n    event CreateWallet_event (address caller, address owner, address wallet);\n    \n}\n",
  "sourcePath": "/home/joe/Documents/github/everchain-project/delegated-wallet/contracts/DelegatedWalletFactory.sol",
  "compiler": {
    "name": "solc",
    "version": "0.5.0+commit.1d4f565a.Emscripten.clang"
  },
  "schemaVersion": "3.0.0",
  "updatedAt": "2019-01-07T03:32:21.480Z",
  "devdoc": {
    "author": "Joseph Reed",
    "details": "The DelegatedWalletFactory makes it easy to deploy delegated wallet. It provides several      helper functions to deploy a wallet in several ways",
    "methods": {
      "constructor": {
        "params": {
          "_blueprint": "The delegated wallet blueprint "
        }
      },
      "createWallet(address,address[])": {
        "params": {
          "delegates": "The owner of the delegated wallet",
          "owner": "The owner of the delegated wallet"
        },
        "return": "The delegated wallet address"
      }
    },
    "title": "DelegatedWalletFactory Contract"
  },
  "userdoc": {
    "methods": {
      "constructor": "Constructor to create a DelegatedWalletFactory",
      "createWallet(address,address[])": {
        "notice": "Creates a delegated wallet with the owner set to 'owner' and predefined 'delegates'"
      }
    }
  }
}