{
  "contractName": "ExampleTask",
  "abi": [
    {
      "payable": true,
      "stateMutability": "payable",
      "type": "fallback"
    },
    {
      "anonymous": false,
      "inputs": [
        {
          "indexed": false,
          "name": "caller",
          "type": "address"
        },
        {
          "indexed": false,
          "name": "message",
          "type": "string"
        },
        {
          "indexed": false,
          "name": "msgValue",
          "type": "uint256"
        }
      ],
      "name": "Trigger_event",
      "type": "event",
      "signature": "0xc50be34a1516dcf47c04d18dd6cfaec0bf561bd0afef7d9e1308895600b2bc4e"
    },
    {
      "constant": false,
      "inputs": [],
      "name": "example",
      "outputs": [],
      "payable": false,
      "stateMutability": "nonpayable",
      "type": "function",
      "signature": "0x54353f2f"
    },
    {
      "constant": false,
      "inputs": [
        {
          "name": "message",
          "type": "string"
        }
      ],
      "name": "exampleWithMessage",
      "outputs": [],
      "payable": false,
      "stateMutability": "nonpayable",
      "type": "function",
      "signature": "0x0eb07f78"
    },
    {
      "constant": false,
      "inputs": [
        {
          "name": "message",
          "type": "string"
        }
      ],
      "name": "exampleWithValue",
      "outputs": [],
      "payable": true,
      "stateMutability": "payable",
      "type": "function",
      "signature": "0x16230b01"
    }
  ],
  "bytecode": "0x608060405234801561001057600080fd5b50610568806100206000396000f3fe608060405260043610610057576000357c0100000000000000000000000000000000000000000000000000000000900463ffffffff1680630eb07f78146100fd57806316230b01146101c557806354353f2f14610280575b7fc50be34a1516dcf47c04d18dd6cfaec0bf561bd0afef7d9e1308895600b2bc4e3334604051808373ffffffffffffffffffffffffffffffffffffffff1673ffffffffffffffffffffffffffffffffffffffff16815260200180602001838152602001828103825260178152602001807f63616c6c65642064656661756c742066756e6374696f6e000000000000000000815250602001935050505060405180910390a1005b34801561010957600080fd5b506101c36004803603602081101561012057600080fd5b810190808035906020019064010000000081111561013d57600080fd5b82018360208201111561014f57600080fd5b8035906020019184600183028401116401000000008311171561017157600080fd5b91908080601f016020809104026020016040519081016040528093929190818152602001838380828437600081840152601f19601f820116905080830192505050505050509192919290505050610297565b005b61027e600480360360208110156101db57600080fd5b81019080803590602001906401000000008111156101f857600080fd5b82018360208201111561020a57600080fd5b8035906020019184600183028401116401000000008311171561022c57600080fd5b91908080601f016020809104026020016040519081016040528093929190818152602001838380828437600081840152601f19601f820116905080830192505050505050509192919290505050610373565b005b34801561028c57600080fd5b50610295610495565b005b7fc50be34a1516dcf47c04d18dd6cfaec0bf561bd0afef7d9e1308895600b2bc4e33826000604051808473ffffffffffffffffffffffffffffffffffffffff1673ffffffffffffffffffffffffffffffffffffffff16815260200180602001838152602001828103825284818151815260200191508051906020019080838360005b83811015610334578082015181840152602081019050610319565b50505050905090810190601f1680156103615780820380516001836020036101000a031916815260200191505b5094505050505060405180910390a150565b3373ffffffffffffffffffffffffffffffffffffffff166108fc349081150290604051600060405180830381858888f193505050501580156103b9573d6000803e3d6000fd5b507fc50be34a1516dcf47c04d18dd6cfaec0bf561bd0afef7d9e1308895600b2bc4e338234604051808473ffffffffffffffffffffffffffffffffffffffff1673ffffffffffffffffffffffffffffffffffffffff16815260200180602001838152602001828103825284818151815260200191508051906020019080838360005b8381101561045657808201518184015260208101905061043b565b50505050905090810190601f1680156104835780820380516001836020036101000a031916815260200191505b5094505050505060405180910390a150565b7fc50be34a1516dcf47c04d18dd6cfaec0bf561bd0afef7d9e1308895600b2bc4e336000604051808373ffffffffffffffffffffffffffffffffffffffff1673ffffffffffffffffffffffffffffffffffffffff16815260200180602001838152602001828103825260178152602001807f63616c6c6564206578616d706c652066756e6374696f6e000000000000000000815250602001935050505060405180910390a156fea165627a7a72305820466dd0fb64949afec563dbb42b80a5333f7c33f03544397599de9327edef33600029",
  "source": "pragma solidity ^0.5.0;\n\n/// @title ExampleTask Contract\n/// @author Joseph Reed\n/// @dev This contract is a simple example task that waits for an alarm clock\n///      to call a function thus emitting an example event.\ncontract ExampleTask {\n\n    function () external payable {\n        emit Trigger_event(msg.sender, \"called default function\", msg.value);\n    }\n\n    function example () public {\n        emit Trigger_event(msg.sender, \"called example function\", 0);\n    }\n\n    function exampleWithMessage (string memory message) public {\n    \temit Trigger_event(msg.sender, message, 0);\n    }\n\n    function exampleWithValue (string memory message) public payable {\n        msg.sender.transfer(msg.value);\n        emit Trigger_event(msg.sender, message, msg.value);\n    }\n\n    event Trigger_event(address caller, string message, uint msgValue);\n\n}",
  "sourcePath": "/home/joe/Documents/github/everchain-project/recurring-alarm-clock/contracts/tests/ExampleTask.sol",
  "compiler": {
    "name": "solc",
    "version": "0.5.0+commit.1d4f565a.Emscripten.clang"
  },
  "schemaVersion": "3.0.1",
  "updatedAt": "2019-01-15T02:14:40.625Z",
  "devdoc": {
    "author": "Joseph Reed",
    "details": "This contract is a simple example task that waits for an alarm clock      to call a function thus emitting an example event.",
    "methods": {},
    "title": "ExampleTask Contract"
  },
  "userdoc": {
    "methods": {}
  }
}