{
  "contractName": "RecurringAlarmClockFactory",
  "abi": [
    {
      "constant": true,
      "inputs": [],
      "name": "blockCreated",
      "outputs": [
        {
          "name": "",
          "type": "uint256"
        }
      ],
      "payable": false,
      "stateMutability": "view",
      "type": "function",
      "signature": "0x4e989a4c"
    },
    {
      "constant": true,
      "inputs": [],
      "name": "EAC",
      "outputs": [
        {
          "name": "",
          "type": "address"
        }
      ],
      "payable": false,
      "stateMutability": "view",
      "type": "function",
      "signature": "0x6cf48a55"
    },
    {
      "constant": true,
      "inputs": [],
      "name": "blueprint",
      "outputs": [
        {
          "name": "",
          "type": "address"
        }
      ],
      "payable": false,
      "stateMutability": "view",
      "type": "function",
      "signature": "0xc05efa15"
    },
    {
      "inputs": [
        {
          "name": "_EAC",
          "type": "address"
        },
        {
          "name": "_blueprint",
          "type": "address"
        }
      ],
      "payable": false,
      "stateMutability": "nonpayable",
      "type": "constructor",
      "signature": "constructor"
    },
    {
      "anonymous": false,
      "inputs": [
        {
          "indexed": true,
          "name": "caller",
          "type": "address"
        },
        {
          "indexed": false,
          "name": "alarmClock",
          "type": "address"
        }
      ],
      "name": "AlarmClock_event",
      "type": "event",
      "signature": "0x2dc5e1c014138ff75f9aaa8fcea2a414b754daca19cb3e3a4b9639f269a9640f"
    },
    {
      "anonymous": false,
      "inputs": [
        {
          "indexed": true,
          "name": "target",
          "type": "address"
        },
        {
          "indexed": false,
          "name": "clone",
          "type": "address"
        }
      ],
      "name": "CloneCreated",
      "type": "event",
      "signature": "0x3d2b821286d97aa9d35330d87a82f7b548b9737b10e2d1ba59994edfd50e9d2b"
    },
    {
      "constant": false,
      "inputs": [
        {
          "name": "wallet",
          "type": "address"
        },
        {
          "name": "delegate",
          "type": "address"
        }
      ],
      "name": "createAlarmClock",
      "outputs": [
        {
          "name": "alarmClock",
          "type": "address"
        }
      ],
      "payable": false,
      "stateMutability": "nonpayable",
      "type": "function",
      "signature": "0x0d0e9e34"
    }
  ],
  "bytecode": "0x60806040524360005534801561001457600080fd5b5060405160408061065d8339810180604052604081101561003457600080fd5b81019080805190602001909291908051906020019092919050505081600160006101000a81548173ffffffffffffffffffffffffffffffffffffffff021916908373ffffffffffffffffffffffffffffffffffffffff16021790555080600260006101000a81548173ffffffffffffffffffffffffffffffffffffffff021916908373ffffffffffffffffffffffffffffffffffffffff160217905550505061057b806100e26000396000f3fe608060405260043610610062576000357c0100000000000000000000000000000000000000000000000000000000900463ffffffff1680630d0e9e34146100675780634e989a4c146101185780636cf48a5514610143578063c05efa151461019a575b600080fd5b34801561007357600080fd5b506100d66004803603604081101561008a57600080fd5b81019080803573ffffffffffffffffffffffffffffffffffffffff169060200190929190803573ffffffffffffffffffffffffffffffffffffffff1690602001909291905050506101f1565b604051808273ffffffffffffffffffffffffffffffffffffffff1673ffffffffffffffffffffffffffffffffffffffff16815260200191505060405180910390f35b34801561012457600080fd5b5061012d6103e2565b6040518082815260200191505060405180910390f35b34801561014f57600080fd5b506101586103e8565b604051808273ffffffffffffffffffffffffffffffffffffffff1673ffffffffffffffffffffffffffffffffffffffff16815260200191505060405180910390f35b3480156101a657600080fd5b506101af61040e565b604051808273ffffffffffffffffffffffffffffffffffffffff1673ffffffffffffffffffffffffffffffffffffffff16815260200191505060405180910390f35b60008061021f600260009054906101000a900473ffffffffffffffffffffffffffffffffffffffff16610434565b90508091508173ffffffffffffffffffffffffffffffffffffffff1663c0c53b8b600160009054906101000a900473ffffffffffffffffffffffffffffffffffffffff1686866040518463ffffffff167c0100000000000000000000000000000000000000000000000000000000028152600401808473ffffffffffffffffffffffffffffffffffffffff1673ffffffffffffffffffffffffffffffffffffffff1681526020018373ffffffffffffffffffffffffffffffffffffffff1673ffffffffffffffffffffffffffffffffffffffff1681526020018273ffffffffffffffffffffffffffffffffffffffff1673ffffffffffffffffffffffffffffffffffffffff1681526020019350505050600060405180830381600087803b15801561034957600080fd5b505af115801561035d573d6000803e3d6000fd5b505050503373ffffffffffffffffffffffffffffffffffffffff167f2dc5e1c014138ff75f9aaa8fcea2a414b754daca19cb3e3a4b9639f269a9640f83604051808273ffffffffffffffffffffffffffffffffffffffff1673ffffffffffffffffffffffffffffffffffffffff16815260200191505060405180910390a25092915050565b60005481565b600160009054906101000a900473ffffffffffffffffffffffffffffffffffffffff1681565b600260009054906101000a900473ffffffffffffffffffffffffffffffffffffffff1681565b600060608060405190810160405280603f81526020017f600034603b57603080600f833981f36000368180378080368173bebebebebebe81526020017fbebebebebebebebebebebebebebe5af43d82803e15602c573d90f35b3d90fd0081525090506000836c0100000000000000000000000002905060008090505b60148110156105385781816014811015156104c757fe5b1a7f0100000000000000000000000000000000000000000000000000000000000000028382601a018151811015156104fb57fe5b9060200101907effffffffffffffffffffffffffffffffffffffffffffffffffffffffffffff1916908160001a90535080806001019150506104b0565b5081516020830181816000f094505050505091905056fea165627a7a723058204e83b92b7cff8fe0fe3bf6749689ce5429b60d6c542fae5a6a5e18a2ece541290029",
  "source": "pragma solidity ^0.5.0;\n\nimport \"./external/CloneFactory.sol\";\nimport \"./RecurringAlarmClock.sol\";\nimport \"./Interfaces.sol\";\n\n/// @title RecurringAlarmClockFactory Contract\n/// @author Joseph Reed\n/// @dev This contract's goal is to create a recurring alarm clocks\ncontract RecurringAlarmClockFactory is CloneFactory {\n\n    uint public blockCreated = block.number;\n\n    RequestFactoryInterface public EAC;  // The Ethereum Alarm Clock deploys decentralized alarms\n    address public blueprint;            // The recurring alarm clock blueprint to supply the clone factory\n\n    /// @notice Constructor to create a DelegatedWalletFactory\n    /// @param _EAC The contract responsible for deploying decentralized alarms \n    /// @param _blueprint The recurring alarm clock blueprint \n    constructor (\n        RequestFactoryInterface _EAC, \n        address _blueprint\n    ) public {\n        EAC = _EAC;\n        blueprint = _blueprint;\n    }\n\n    /// @notice Creates a recurring alarm clock smart contract\n    /// @param delegate The delegate from which to pull alarm payments\n    /// @param wallet The funding wallet, change address, and owner of the deployed alarms\n    /// @return The recurring alarm clock contract address\n    function createAlarmClock(\n        IDelegatedWallet wallet,\n        IPaymentDelegate delegate\n    ) public returns (RecurringAlarmClock alarmClock) {\n        // for converting to payable addresses see: \n        // https://solidity.readthedocs.io/en/v0.5.0/050-breaking-changes.html?highlight=address_make_payable\n        address payable clone = address(uint160(createClone(blueprint)));\n        alarmClock = RecurringAlarmClock(clone);\n        alarmClock.initialize(EAC, wallet, delegate);\n\n        emit AlarmClock_event(msg.sender, address(alarmClock));\n    }\n\n    event AlarmClock_event(address indexed caller, address alarmClock);\n\n}\n",
  "sourcePath": "/home/joe/Documents/github/everchain-project/recurring-alarm-clock/contracts/RecurringAlarmClockFactory.sol",
  "compiler": {
    "name": "solc",
    "version": "0.5.0+commit.1d4f565a.Emscripten.clang"
  },
  "schemaVersion": "3.0.1",
  "updatedAt": "2019-01-15T02:14:40.627Z",
  "devdoc": {
    "author": "Joseph Reed",
    "details": "This contract's goal is to create a recurring alarm clocks",
    "methods": {
      "constructor": {
        "params": {
          "_EAC": "The contract responsible for deploying decentralized alarms ",
          "_blueprint": "The recurring alarm clock blueprint "
        }
      },
      "createAlarmClock(address,address)": {
        "params": {
          "delegate": "The delegate from which to pull alarm payments",
          "wallet": "The funding wallet, change address, and owner of the deployed alarms"
        },
        "return": "The recurring alarm clock contract address"
      }
    },
    "title": "RecurringAlarmClockFactory Contract"
  },
  "userdoc": {
    "methods": {
      "constructor": "Constructor to create a DelegatedWalletFactory",
      "createAlarmClock(address,address)": {
        "notice": "Creates a recurring alarm clock smart contract"
      }
    }
  }
}