{
  "contractName": "TokenGenerator",
  "abi": [
    {
      "constant": true,
      "inputs": [],
      "name": "token",
      "outputs": [
        {
          "name": "",
          "type": "address"
        }
      ],
      "payable": false,
      "stateMutability": "view",
      "type": "function",
      "signature": "0xfc0c546a"
    },
    {
      "inputs": [
        {
          "name": "_token",
          "type": "address"
        }
      ],
      "payable": false,
      "stateMutability": "nonpayable",
      "type": "constructor",
      "signature": "constructor"
    },
    {
      "constant": false,
      "inputs": [
        {
          "name": "recipient",
          "type": "address"
        },
        {
          "name": "amount",
          "type": "uint256"
        }
      ],
      "name": "generateTokens",
      "outputs": [
        {
          "name": "success",
          "type": "bool"
        }
      ],
      "payable": false,
      "stateMutability": "nonpayable",
      "type": "function",
      "signature": "0x827f32c0"
    },
    {
      "constant": false,
      "inputs": [
        {
          "name": "_owner",
          "type": "address"
        }
      ],
      "name": "proxyPayment",
      "outputs": [
        {
          "name": "",
          "type": "bool"
        }
      ],
      "payable": true,
      "stateMutability": "payable",
      "type": "function",
      "signature": "0xf48c3054"
    },
    {
      "constant": false,
      "inputs": [
        {
          "name": "_from",
          "type": "address"
        },
        {
          "name": "_to",
          "type": "address"
        },
        {
          "name": "_amount",
          "type": "uint256"
        }
      ],
      "name": "onTransfer",
      "outputs": [
        {
          "name": "",
          "type": "bool"
        }
      ],
      "payable": false,
      "stateMutability": "nonpayable",
      "type": "function",
      "signature": "0x4a393149"
    },
    {
      "constant": false,
      "inputs": [
        {
          "name": "_owner",
          "type": "address"
        },
        {
          "name": "_spender",
          "type": "address"
        },
        {
          "name": "_amount",
          "type": "uint256"
        }
      ],
      "name": "onApprove",
      "outputs": [
        {
          "name": "",
          "type": "bool"
        }
      ],
      "payable": false,
      "stateMutability": "nonpayable",
      "type": "function",
      "signature": "0xda682aeb"
    }
  ],
  "bytecode": "0x608060405234801561001057600080fd5b506040516020806104ce8339810180604052602081101561003057600080fd5b8101908080519060200190929190505050806000806101000a81548173ffffffffffffffffffffffffffffffffffffffff021916908373ffffffffffffffffffffffffffffffffffffffff1602179055505061043d806100916000396000f3fe60806040526004361061006d576000357c0100000000000000000000000000000000000000000000000000000000900463ffffffff1680634a39314914610072578063827f32c014610105578063da682aeb14610178578063f48c30541461020b578063fc0c546a14610267575b600080fd5b34801561007e57600080fd5b506100eb6004803603606081101561009557600080fd5b81019080803573ffffffffffffffffffffffffffffffffffffffff169060200190929190803573ffffffffffffffffffffffffffffffffffffffff169060200190929190803590602001909291905050506102be565b604051808215151515815260200191505060405180910390f35b34801561011157600080fd5b5061015e6004803603604081101561012857600080fd5b81019080803573ffffffffffffffffffffffffffffffffffffffff169060200190929190803590602001909291905050506102cb565b604051808215151515815260200191505060405180910390f35b34801561018457600080fd5b506101f16004803603606081101561019b57600080fd5b81019080803573ffffffffffffffffffffffffffffffffffffffff169060200190929190803573ffffffffffffffffffffffffffffffffffffffff169060200190929190803590602001909291905050506103d4565b604051808215151515815260200191505060405180910390f35b61024d6004803603602081101561022157600080fd5b81019080803573ffffffffffffffffffffffffffffffffffffffff1690602001909291905050506103e1565b604051808215151515815260200191505060405180910390f35b34801561027357600080fd5b5061027c6103ec565b604051808273ffffffffffffffffffffffffffffffffffffffff1673ffffffffffffffffffffffffffffffffffffffff16815260200191505060405180910390f35b6000600190509392505050565b60008060009054906101000a900473ffffffffffffffffffffffffffffffffffffffff1673ffffffffffffffffffffffffffffffffffffffff1663827f32c084846040518363ffffffff167c0100000000000000000000000000000000000000000000000000000000028152600401808373ffffffffffffffffffffffffffffffffffffffff1673ffffffffffffffffffffffffffffffffffffffff16815260200182815260200192505050602060405180830381600087803b15801561039157600080fd5b505af11580156103a5573d6000803e3d6000fd5b505050506040513d60208110156103bb57600080fd5b8101908080519060200190929190505050905092915050565b6000600190509392505050565b600060019050919050565b6000809054906101000a900473ffffffffffffffffffffffffffffffffffffffff168156fea165627a7a723058204e973ee14392b98ffa200161ced33868d1eaa194505abcd58d0b28568a7e370c0029",
  "source": "pragma solidity ^0.5.0;\r\n\r\nimport \"./MiniMeToken.sol\";\r\n\r\ncontract TokenGenerator is TokenController {\r\n\r\n    MiniMeToken public token;\r\n\r\n    constructor (MiniMeToken _token) public {\r\n        token = _token;\r\n    }\r\n\r\n    function generateTokens (address recipient, uint amount) public returns (bool success) {\r\n        return token.generateTokens(recipient, amount);\r\n    }\r\n\r\n    /// @notice Called when `_owner` sends ether to the MiniMe Token contract\r\n    /// @param _owner The address that sent the ether to create tokens\r\n    /// @return True if the ether is accepted, false if it throws\r\n    function proxyPayment(address _owner) public payable returns(bool) {\r\n        _owner;\r\n        return true;\r\n    }\r\n\r\n    /// @notice Notifies the controller about a token transfer allowing the\r\n    ///  controller to react if desired\r\n    /// @param _from The origin of the transfer\r\n    /// @param _to The destination of the transfer\r\n    /// @param _amount The amount of the transfer\r\n    /// @return False if the controller does not authorize the transfer\r\n    function onTransfer(address _from, address _to, uint _amount) public returns(bool) {\r\n        _from; _to; _amount;\r\n        return true;\r\n    }\r\n\r\n    /// @notice Notifies the controller about an approval allowing the\r\n    ///  controller to react if desired\r\n    /// @param _owner The address that calls `approve()`\r\n    /// @param _spender The spender in the `approve()` call\r\n    /// @param _amount The amount in the `approve()` call\r\n    /// @return False if the controller does not authorize the approval\r\n    function onApprove(address _owner, address _spender, uint _amount) public returns(bool) {\r\n        _owner; _spender; _amount;\r\n        return true;\r\n    }\r\n}",
  "sourcePath": "C:/Users/My/Documents/GitHub/everchain-project/delegated-wallet/contracts/tests/TokenGenerator.sol",
  "compiler": {
    "name": "solc",
    "version": "0.5.0+commit.1d4f565a.Emscripten.clang"
  },
  "schemaVersion": "3.0.0-beta.2",
  "updatedAt": "2018-11-25T21:17:05.183Z",
  "devdoc": {
    "methods": {
      "onApprove(address,address,uint256)": {
        "return": "False if the controller does not authorize the approval"
      },
      "onTransfer(address,address,uint256)": {
        "return": "False if the controller does not authorize the transfer"
      },
      "proxyPayment(address)": {
        "return": "True if the ether is accepted, false if it throws"
      }
    }
  },
  "userdoc": {
    "methods": {}
  }
}