{
  "contractName": "AddressListFactory",
  "abi": [
    {
      "constant": true,
      "inputs": [],
      "name": "blueprint",
      "outputs": [
        {
          "name": "",
          "type": "address"
        }
      ],
      "payable": false,
      "stateMutability": "view",
      "type": "function"
    },
    {
      "inputs": [
        {
          "name": "_blueprint",
          "type": "address"
        }
      ],
      "payable": false,
      "stateMutability": "nonpayable",
      "type": "constructor"
    },
    {
      "anonymous": false,
      "inputs": [
        {
          "indexed": true,
          "name": "caller",
          "type": "address"
        },
        {
          "indexed": true,
          "name": "owner",
          "type": "address"
        },
        {
          "indexed": false,
          "name": "addressList",
          "type": "address"
        }
      ],
      "name": "CreateAddressList_event",
      "type": "event"
    },
    {
      "anonymous": false,
      "inputs": [
        {
          "indexed": true,
          "name": "target",
          "type": "address"
        },
        {
          "indexed": false,
          "name": "clone",
          "type": "address"
        }
      ],
      "name": "CloneCreated",
      "type": "event"
    },
    {
      "constant": false,
      "inputs": [
        {
          "name": "owner",
          "type": "address"
        },
        {
          "name": "delegateList",
          "type": "address[]"
        }
      ],
      "name": "createAddressList",
      "outputs": [
        {
          "name": "",
          "type": "address"
        }
      ],
      "payable": false,
      "stateMutability": "nonpayable",
      "type": "function"
    }
  ],
  "bytecode": "0x608060405234801561001057600080fd5b5060405160208061052483398101806040528101908080519060200190929190505050806000806101000a81548173ffffffffffffffffffffffffffffffffffffffff021916908373ffffffffffffffffffffffffffffffffffffffff160217905550506104a1806100836000396000f30060806040526004361061004c576000357c0100000000000000000000000000000000000000000000000000000000900463ffffffff1680633d5291a214610051578063c05efa1514610117575b600080fd5b34801561005d57600080fd5b506100d5600480360381019080803573ffffffffffffffffffffffffffffffffffffffff1690602001909291908035906020019082018035906020019080806020026020016040519081016040528093929190818152602001838360200280828437820191505050505050919291929050505061016e565b604051808273ffffffffffffffffffffffffffffffffffffffff1673ffffffffffffffffffffffffffffffffffffffff16815260200191505060405180910390f35b34801561012357600080fd5b5061012c610334565b604051808273ffffffffffffffffffffffffffffffffffffffff1673ffffffffffffffffffffffffffffffffffffffff16815260200191505060405180910390f35b60008061019b6000809054906101000a900473ffffffffffffffffffffffffffffffffffffffff16610359565b90508073ffffffffffffffffffffffffffffffffffffffff1663946d920485856040518363ffffffff167c0100000000000000000000000000000000000000000000000000000000028152600401808373ffffffffffffffffffffffffffffffffffffffff1673ffffffffffffffffffffffffffffffffffffffff16815260200180602001828103825283818151815260200191508051906020019060200280838360005b8381101561025b578082015181840152602081019050610240565b505050509050019350505050600060405180830381600087803b15801561028157600080fd5b505af1158015610295573d6000803e3d6000fd5b505050508373ffffffffffffffffffffffffffffffffffffffff163373ffffffffffffffffffffffffffffffffffffffff167f0c524cecefd11c8299db25168a27e296d4074a14f7e8dc139f6662eb009c8d6b83604051808273ffffffffffffffffffffffffffffffffffffffff1673ffffffffffffffffffffffffffffffffffffffff16815260200191505060405180910390a38091505092915050565b6000809054906101000a900473ffffffffffffffffffffffffffffffffffffffff1681565b60006060600080606060405190810160405280603f81526020017f600034603b57603080600f833981f36000368180378080368173bebebebebebe81526020017fbebebebebebebebebebebebebebe5af43d82803e15602c573d90f35b3d90fd008152509250846c01000000000000000000000000029150600090505b601481101561045e5781816014811015156103ed57fe5b1a7f0100000000000000000000000000000000000000000000000000000000000000028382601a0181518110151561042157fe5b9060200101907effffffffffffffffffffffffffffffffffffffffffffffffffffffffffffff1916908160001a90535080806001019150506103d6565b82516020840181816000f0955050505050509190505600a165627a7a7230582071362b3e98c524423e6c4ad706c65961e907fd0c4b42b37846827bd2d8f4a2800029",
  "source": "pragma solidity ^0.4.23;\r\n\r\nimport \"../external/CloneFactory.sol\";\r\nimport \"./AddressList.sol\";\r\n\r\ncontract AddressListFactory is CloneFactory {\r\n\r\n    AddressList public blueprint;\r\n\r\n    constructor (AddressList _blueprint) public {\r\n        blueprint = _blueprint;\r\n    }\r\n\r\n    function createAddressList (address owner, address[] delegateList) public returns (AddressList) {\r\n        AddressList addressList = AddressList(createClone(blueprint));\r\n        addressList.initialize(owner, delegateList);\r\n        emit CreateAddressList_event(msg.sender, owner, addressList);\r\n        \r\n        return addressList;\r\n    }\r\n    \r\n    event CreateAddressList_event(address indexed caller, address indexed owner, AddressList addressList);\r\n}\r\n",
  "sourcePath": "C:\\Users\\My\\Documents\\GitHub\\everchain-project\\recurring-alarm-clock\\contracts\\utility\\AddressListFactory.sol",
  "compiler": {
    "name": "solc",
    "version": "0.4.24+commit.e67f0147.Emscripten.clang"
  },
  "schemaVersion": "2.0.1",
  "updatedAt": "2018-09-30T19:37:48.625Z"
}