{
  "contractName": "AddressListLib",
  "abi": [
    {
      "constant": false,
      "inputs": [
        {
          "name": "list",
          "type": "AddressListLib.AddressList storage"
        },
        {
          "name": "value",
          "type": "address"
        }
      ],
      "name": "add",
      "outputs": [
        {
          "name": "success",
          "type": "bool"
        }
      ],
      "payable": false,
      "stateMutability": "nonpayable",
      "type": "function"
    },
    {
      "constant": false,
      "inputs": [
        {
          "name": "list",
          "type": "AddressListLib.AddressList storage"
        },
        {
          "name": "value",
          "type": "address"
        }
      ],
      "name": "remove",
      "outputs": [
        {
          "name": "success",
          "type": "bool"
        }
      ],
      "payable": false,
      "stateMutability": "nonpayable",
      "type": "function"
    },
    {
      "constant": true,
      "inputs": [
        {
          "name": "list",
          "type": "AddressListLib.AddressList storage"
        }
      ],
      "name": "getLength",
      "outputs": [
        {
          "name": "",
          "type": "uint256"
        }
      ],
      "payable": false,
      "stateMutability": "view",
      "type": "function"
    },
    {
      "constant": true,
      "inputs": [
        {
          "name": "list",
          "type": "AddressListLib.AddressList storage"
        },
        {
          "name": "value",
          "type": "address"
        }
      ],
      "name": "contains",
      "outputs": [
        {
          "name": "",
          "type": "bool"
        }
      ],
      "payable": false,
      "stateMutability": "view",
      "type": "function"
    },
    {
      "constant": true,
      "inputs": [
        {
          "name": "list",
          "type": "AddressListLib.AddressList storage"
        },
        {
          "name": "i",
          "type": "uint256"
        }
      ],
      "name": "index",
      "outputs": [
        {
          "name": "",
          "type": "address"
        }
      ],
      "payable": false,
      "stateMutability": "view",
      "type": "function"
    },
    {
      "constant": true,
      "inputs": [
        {
          "name": "list",
          "type": "AddressListLib.AddressList storage"
        },
        {
          "name": "value",
          "type": "address"
        }
      ],
      "name": "indexOf",
      "outputs": [
        {
          "name": "",
          "type": "uint256"
        }
      ],
      "payable": false,
      "stateMutability": "view",
      "type": "function"
    },
    {
      "constant": true,
      "inputs": [
        {
          "name": "list",
          "type": "AddressListLib.AddressList storage"
        }
      ],
      "name": "get",
      "outputs": [
        {
          "name": "",
          "type": "address[]"
        }
      ],
      "payable": false,
      "stateMutability": "view",
      "type": "function"
    }
  ],
  "bytecode": "0x610959610030600b82828239805160001a6073146000811461002057610022565bfe5b5030600052607381538281f3fe730000000000000000000000000000000000000000301460806040526004361061009a576000357c0100000000000000000000000000000000000000000000000000000000900463ffffffff1680631a65cb951461009f5780631ecb74861461010557806330b05fbc14610147578063492d214c146101ca5780636c11a8a31461024257806390c158cb146102b5578063f3d50dbc14610328575b600080fd5b6100eb600480360360408110156100b557600080fd5b8101908080359060200190929190803573ffffffffffffffffffffffffffffffffffffffff16906020019092919050505061038a565b604051808215151515815260200191505060405180910390f35b6101316004803603602081101561011b57600080fd5b81019080803590602001909291905050506103e3565b6040518082815260200191505060405180910390f35b6101736004803603602081101561015d57600080fd5b81019080803590602001909291905050506103f4565b6040518080602001828103825283818151815260200191508051906020019060200280838360005b838110156101b657808201518184015260208101905061019b565b505050509050019250505060405180910390f35b610200600480360360408110156101e057600080fd5b810190808035906020019092919080359060200190929190505050610486565b604051808273ffffffffffffffffffffffffffffffffffffffff1673ffffffffffffffffffffffffffffffffffffffff16815260200191505060405180910390f35b81801561024e57600080fd5b5061029b6004803603604081101561026557600080fd5b8101908080359060200190929190803573ffffffffffffffffffffffffffffffffffffffff1690602001909291905050506104cc565b604051808215151515815260200191505060405180910390f35b8180156102c157600080fd5b5061030e600480360360408110156102d857600080fd5b8101908080359060200190929190803573ffffffffffffffffffffffffffffffffffffffff169060200190929190505050610717565b604051808215151515815260200191505060405180910390f35b6103746004803603604081101561033e57600080fd5b8101908080359060200190929190803573ffffffffffffffffffffffffffffffffffffffff169060200190929190505050610890565b6040518082815260200191505060405180910390f35b60008260010160008373ffffffffffffffffffffffffffffffffffffffff1673ffffffffffffffffffffffffffffffffffffffff16815260200190815260200160002060009054906101000a900460ff16905092915050565b600081600001805490509050919050565b60608160000180548060200260200160405190810160405280929190818152602001828054801561047a57602002820191906000526020600020905b8160009054906101000a900473ffffffffffffffffffffffffffffffffffffffff1673ffffffffffffffffffffffffffffffffffffffff1681526020019060010190808311610430575b50505050509050919050565b6000826000018281548110151561049957fe5b9060005260206000200160009054906101000a900473ffffffffffffffffffffffffffffffffffffffff16905092915050565b60008260010160008373ffffffffffffffffffffffffffffffffffffffff1673ffffffffffffffffffffffffffffffffffffffff16815260200190815260200160002060009054906101000a900460ff16151561052c5760009050610711565b60008360020160008473ffffffffffffffffffffffffffffffffffffffff1673ffffffffffffffffffffffffffffffffffffffff168152602001908152602001600020549050600084600001600186600001805490500381548110151561058f57fe5b9060005260206000200160009054906101000a900473ffffffffffffffffffffffffffffffffffffffff1690508085600001838154811015156105ce57fe5b9060005260206000200160006101000a81548173ffffffffffffffffffffffffffffffffffffffff021916908373ffffffffffffffffffffffffffffffffffffffff160217905550818560020160008373ffffffffffffffffffffffffffffffffffffffff1673ffffffffffffffffffffffffffffffffffffffff168152602001908152602001600020819055508460000180548091906001900361067391906108dc565b508460010160008573ffffffffffffffffffffffffffffffffffffffff1673ffffffffffffffffffffffffffffffffffffffff16815260200190815260200160002060006101000a81549060ff02191690558460020160008573ffffffffffffffffffffffffffffffffffffffff1673ffffffffffffffffffffffffffffffffffffffff168152602001908152602001600020600090556001925050505b92915050565b60008260010160008373ffffffffffffffffffffffffffffffffffffffff1673ffffffffffffffffffffffffffffffffffffffff16815260200190815260200160002060009054906101000a900460ff1615610776576000905061088a565b82600001805490508360020160008473ffffffffffffffffffffffffffffffffffffffff1673ffffffffffffffffffffffffffffffffffffffff1681526020019081526020016000208190555060018360010160008473ffffffffffffffffffffffffffffffffffffffff1673ffffffffffffffffffffffffffffffffffffffff16815260200190815260200160002060006101000a81548160ff021916908315150217905550826000018290806001815401808255809150509060018203906000526020600020016000909192909190916101000a81548173ffffffffffffffffffffffffffffffffffffffff021916908373ffffffffffffffffffffffffffffffffffffffff16021790555050600190505b92915050565b60008260020160008373ffffffffffffffffffffffffffffffffffffffff1673ffffffffffffffffffffffffffffffffffffffff16815260200190815260200160002054905092915050565b815481835581811115610903578183600052602060002091820191016109029190610908565b5b505050565b61092a91905b8082111561092657600081600090555060010161090e565b5090565b9056fea165627a7a723058208fd88808c16dda894116e1f10a313099060d40a1f03ac17b4b5c4cc115b4db2e0029",
  "source": "pragma solidity ^0.5.0;\n\n/// @dev A library for a simple unordered list that stores unique values.\nlibrary AddressListLib {\n    \n    struct AddressList {\n        address[] array; // An unordered list of unique values\n        mapping (address => bool) exists; // Tracks if a value exists in the list\n        mapping (address => uint) getIndex; // Tracks the index location of a value\n    }\n    \n    /// @notice Called when a address value is added to 'list'\n    /// @param list The storage that holds the list\n    /// @param value The value to add to 'list'\n    /// @return True if the 'value' is added, false if it already exists in the list\n    function add (AddressList storage list, address value) public returns (bool success) {\n        // Only add 'value' if it does not exist in the list\n        if(list.exists[value])\n            return false;\n        \n        list.getIndex[value] = list.array.length;\n        list.exists[value] = true;\n        list.array.push(value);\n            \n        return true;\n    }\n    \n    /// @notice Called when a address value is removed from 'list'\n    /// @param list The storage that holds the list\n    /// @param value The value to remove from 'list'\n    /// @return True if the 'value' is removed, false if the 'value' did not exists in the list\n    function remove (AddressList storage list, address value) public returns (bool success) {\n        // Only remove 'value' if it exists in the list\n        if(!list.exists[value])\n            return false;\n    \n        uint indexBeingRemoved = list.getIndex[value]; // The index of 'value'\n        address replacementValue = list.array[list.array.length-1]; // The last value in the list\n        \n        // Move the replacement value to the index of 'value'\n        list.array[indexBeingRemoved] = replacementValue;\n        list.getIndex[replacementValue] = indexBeingRemoved;\n        list.array.length--;\n        \n        // clean up \n        delete(list.exists[value]);\n        delete(list.getIndex[value]);\n        \n        return true;\n    }\n    \n    /// @notice Fetches the length of the list\n    /// @param list The storage that holds the list\n    /// @return The length of the 'list'\n    function getLength (AddressList storage list) public view returns (uint) {\n        return list.array.length;\n    }\n    \n    /// @notice Fetches the length of the list\n    /// @param list The storage that holds the list\n    /// @param value The value to search for\n    /// @return True if the value exists in the list\n    function contains (AddressList storage list, address value) public view returns (bool) {\n        return list.exists[value];\n    }\n\n    /// @notice Fetches the address of a given index\n    /// @param list The storage that holds the list\n    /// @param i The index to fetch\n    /// @return The address at index 'i'\n    function index (AddressList storage list, uint i) public view returns (address) {\n        return list.array[i];\n    }\n\n    /// @notice Fetches the index of a given address\n    /// @param list The storage that holds the list\n    /// @param value The address to fetch the index of\n    /// @return The index of 'value'\n    function indexOf (AddressList storage list, address value) public view returns (uint) {\n        return list.getIndex[value];\n    }\n\n    /// @notice Fetches the list of addresses\n    /// @param list The storage that holds the list\n    /// @return The list of addresses\n    function get (AddressList storage list) public view returns (address[] memory) {\n        return list.array;\n    }\n    \n}",
  "sourcePath": "/home/joe/Documents/github/everchain-project/recurring-transactions/contracts/external/AddressListLib.sol",
  "compiler": {
    "name": "solc",
    "version": "0.5.0+commit.1d4f565a.Emscripten.clang"
  },
  "schemaVersion": "3.0.1",
  "updatedAt": "2019-02-20T06:34:10.868Z",
  "devdoc": {
    "details": "A library for a simple unordered list that stores unique values.",
    "methods": {
      "add(AddressListLib.AddressList storage,address)": {
        "params": {
          "list": "The storage that holds the list",
          "value": "The value to add to 'list'"
        },
        "return": "True if the 'value' is added, false if it already exists in the list"
      },
      "contains(AddressListLib.AddressList storage,address)": {
        "params": {
          "list": "The storage that holds the list",
          "value": "The value to search for"
        },
        "return": "True if the value exists in the list"
      },
      "get(AddressListLib.AddressList storage)": {
        "params": {
          "list": "The storage that holds the list"
        },
        "return": "The list of addresses"
      },
      "getLength(AddressListLib.AddressList storage)": {
        "params": {
          "list": "The storage that holds the list"
        },
        "return": "The length of the 'list'"
      },
      "index(AddressListLib.AddressList storage,uint256)": {
        "params": {
          "i": "The index to fetch",
          "list": "The storage that holds the list"
        },
        "return": "The address at index 'i'"
      },
      "indexOf(AddressListLib.AddressList storage,address)": {
        "params": {
          "list": "The storage that holds the list",
          "value": "The address to fetch the index of"
        },
        "return": "The index of 'value'"
      },
      "remove(AddressListLib.AddressList storage,address)": {
        "params": {
          "list": "The storage that holds the list",
          "value": "The value to remove from 'list'"
        },
        "return": "True if the 'value' is removed, false if the 'value' did not exists in the list"
      }
    }
  },
  "userdoc": {
    "methods": {
      "add(AddressListLib.AddressList storage,address)": {
        "notice": "Called when a address value is added to 'list'"
      },
      "contains(AddressListLib.AddressList storage,address)": {
        "notice": "Fetches the length of the list"
      },
      "get(AddressListLib.AddressList storage)": {
        "notice": "Fetches the list of addresses"
      },
      "getLength(AddressListLib.AddressList storage)": {
        "notice": "Fetches the length of the list"
      },
      "index(AddressListLib.AddressList storage,uint256)": {
        "notice": "Fetches the address of a given index"
      },
      "indexOf(AddressListLib.AddressList storage,address)": {
        "notice": "Fetches the index of a given address"
      },
      "remove(AddressListLib.AddressList storage,address)": {
        "notice": "Called when a address value is removed from 'list'"
      }
    }
  }
}