{
  "contractName": "AddressList",
  "abi": [
    {
      "constant": true,
      "inputs": [],
      "name": "initialized",
      "outputs": [
        {
          "name": "",
          "type": "bool"
        }
      ],
      "payable": false,
      "stateMutability": "view",
      "type": "function"
    },
    {
      "constant": true,
      "inputs": [],
      "name": "owner",
      "outputs": [
        {
          "name": "",
          "type": "address"
        }
      ],
      "payable": false,
      "stateMutability": "view",
      "type": "function"
    },
    {
      "constant": false,
      "inputs": [
        {
          "name": "_newOwner",
          "type": "address"
        }
      ],
      "name": "transferOwnership",
      "outputs": [],
      "payable": false,
      "stateMutability": "nonpayable",
      "type": "function"
    },
    {
      "constant": false,
      "inputs": [
        {
          "name": "_owner",
          "type": "address"
        },
        {
          "name": "list",
          "type": "address[]"
        }
      ],
      "name": "initialize",
      "outputs": [],
      "payable": false,
      "stateMutability": "nonpayable",
      "type": "function"
    },
    {
      "constant": true,
      "inputs": [],
      "name": "get",
      "outputs": [
        {
          "name": "",
          "type": "address[]"
        }
      ],
      "payable": false,
      "stateMutability": "view",
      "type": "function"
    },
    {
      "constant": true,
      "inputs": [
        {
          "name": "i",
          "type": "uint256"
        }
      ],
      "name": "index",
      "outputs": [
        {
          "name": "",
          "type": "address"
        }
      ],
      "payable": false,
      "stateMutability": "view",
      "type": "function"
    },
    {
      "constant": true,
      "inputs": [
        {
          "name": "account",
          "type": "address"
        }
      ],
      "name": "indexOf",
      "outputs": [
        {
          "name": "",
          "type": "uint256"
        }
      ],
      "payable": false,
      "stateMutability": "view",
      "type": "function"
    },
    {
      "constant": true,
      "inputs": [],
      "name": "length",
      "outputs": [
        {
          "name": "",
          "type": "uint256"
        }
      ],
      "payable": false,
      "stateMutability": "view",
      "type": "function"
    },
    {
      "constant": true,
      "inputs": [
        {
          "name": "account",
          "type": "address"
        }
      ],
      "name": "contains",
      "outputs": [
        {
          "name": "",
          "type": "bool"
        }
      ],
      "payable": false,
      "stateMutability": "view",
      "type": "function"
    },
    {
      "constant": false,
      "inputs": [
        {
          "name": "account",
          "type": "address"
        }
      ],
      "name": "add",
      "outputs": [
        {
          "name": "",
          "type": "bool"
        }
      ],
      "payable": false,
      "stateMutability": "nonpayable",
      "type": "function"
    },
    {
      "constant": false,
      "inputs": [
        {
          "name": "account",
          "type": "address"
        }
      ],
      "name": "remove",
      "outputs": [
        {
          "name": "",
          "type": "bool"
        }
      ],
      "payable": false,
      "stateMutability": "nonpayable",
      "type": "function"
    }
  ],
  "bytecode": "0x6080604052336000806101000a81548173ffffffffffffffffffffffffffffffffffffffff021916908373ffffffffffffffffffffffffffffffffffffffff160217905550610dab806100536000396000f3006080604052600436106100af576000357c0100000000000000000000000000000000000000000000000000000000900463ffffffff1680630a3b0a4f146100b4578063158ef93e1461010f5780631f7b6d321461013e57806329092d0e14610169578063335932fc146101c45780635dbe47e8146102315780636d4ce63c1461028c5780638da5cb5b146102f8578063946d92041461034f578063f2fde38b146103d5578063fd6aad2514610418575b600080fd5b3480156100c057600080fd5b506100f5600480360381019080803573ffffffffffffffffffffffffffffffffffffffff16906020019092919050505061046f565b604051808215151515815260200191505060405180910390f35b34801561011b57600080fd5b506101246105b0565b604051808215151515815260200191505060405180910390f35b34801561014a57600080fd5b506101536105c3565b6040518082815260200191505060405180910390f35b34801561017557600080fd5b506101aa600480360381019080803573ffffffffffffffffffffffffffffffffffffffff1690602001909291905050506105d3565b604051808215151515815260200191505060405180910390f35b3480156101d057600080fd5b506101ef60048036038101908080359060200190929190505050610714565b604051808273ffffffffffffffffffffffffffffffffffffffff1673ffffffffffffffffffffffffffffffffffffffff16815260200191505060405180910390f35b34801561023d57600080fd5b50610272600480360381019080803573ffffffffffffffffffffffffffffffffffffffff1690602001909291905050506107ce565b604051808215151515815260200191505060405180910390f35b34801561029857600080fd5b506102a16108b4565b6040518080602001828103825283818151815260200191508051906020019060200280838360005b838110156102e45780820151818401526020810190506102c9565b505050509050019250505060405180910390f35b34801561030457600080fd5b5061030d6109ba565b604051808273ffffffffffffffffffffffffffffffffffffffff1673ffffffffffffffffffffffffffffffffffffffff16815260200191505060405180910390f35b34801561035b57600080fd5b506103d3600480360381019080803573ffffffffffffffffffffffffffffffffffffffff169060200190929190803590602001908201803590602001908080602002602001604051908101604052809392919081815260200183836020028082843782019150505050505091929192905050506109df565b005b3480156103e157600080fd5b50610416600480360381019080803573ffffffffffffffffffffffffffffffffffffffff169060200190929190505050610bfb565b005b34801561042457600080fd5b50610459600480360381019080803573ffffffffffffffffffffffffffffffffffffffff169060200190929190505050610c99565b6040518082815260200191505060405180910390f35b60008060009054906101000a900473ffffffffffffffffffffffffffffffffffffffff1673ffffffffffffffffffffffffffffffffffffffff163373ffffffffffffffffffffffffffffffffffffffff161415156104cc57600080fd5b600173__ListLib_______________________________63a45c62aa9091846040518363ffffffff167c0100000000000000000000000000000000000000000000000000000000028152600401808381526020018273ffffffffffffffffffffffffffffffffffffffff1673ffffffffffffffffffffffffffffffffffffffff1681526020019250505060206040518083038186803b15801561056e57600080fd5b505af4158015610582573d6000803e3d6000fd5b505050506040513d602081101561059857600080fd5b81019080805190602001909291905050509050919050565b600060149054906101000a900460ff1681565b6000600160000180549050905090565b60008060009054906101000a900473ffffffffffffffffffffffffffffffffffffffff1673ffffffffffffffffffffffffffffffffffffffff163373ffffffffffffffffffffffffffffffffffffffff1614151561063057600080fd5b600173__ListLib_______________________________63af9fe56b9091846040518363ffffffff167c0100000000000000000000000000000000000000000000000000000000028152600401808381526020018273ffffffffffffffffffffffffffffffffffffffff1673ffffffffffffffffffffffffffffffffffffffff1681526020019250505060206040518083038186803b1580156106d257600080fd5b505af41580156106e6573d6000803e3d6000fd5b505050506040513d60208110156106fc57600080fd5b81019080805190602001909291905050509050919050565b6000600173__ListLib_______________________________63a544c2139091846040518363ffffffff167c0100000000000000000000000000000000000000000000000000000000028152600401808381526020018281526020019250505060206040518083038186803b15801561078c57600080fd5b505af41580156107a0573d6000803e3d6000fd5b505050506040513d60208110156107b657600080fd5b81019080805190602001909291905050509050919050565b6000600173__ListLib_______________________________632b63aaef9091846040518363ffffffff167c0100000000000000000000000000000000000000000000000000000000028152600401808381526020018273ffffffffffffffffffffffffffffffffffffffff1673ffffffffffffffffffffffffffffffffffffffff1681526020019250505060206040518083038186803b15801561087257600080fd5b505af4158015610886573d6000803e3d6000fd5b505050506040513d602081101561089c57600080fd5b81019080805190602001909291905050509050919050565b6060600173__ListLib_______________________________6357abf55690916040518263ffffffff167c01000000000000000000000000000000000000000000000000000000000281526004018082815260200191505060006040518083038186803b15801561092457600080fd5b505af4158015610938573d6000803e3d6000fd5b505050506040513d6000823e3d601f19601f82011682018060405250602081101561096257600080fd5b81019080805164010000000081111561097a57600080fd5b8281019050602081018481111561099057600080fd5b81518560208202830111640100000000821117156109ad57600080fd5b5050929190505050905090565b6000809054906101000a900473ffffffffffffffffffffffffffffffffffffffff1681565b60008060149054906101000a900460ff16151515610a8b576040517f08c379a00000000000000000000000000000000000000000000000000000000081526004018080602001828103825260258152602001807f636f6e74726163742063616e206f6e6c7920626520696e697469616c697a656481526020017f206f6e636500000000000000000000000000000000000000000000000000000081525060400191505060405180910390fd5b826000806101000a81548173ffffffffffffffffffffffffffffffffffffffff021916908373ffffffffffffffffffffffffffffffffffffffff160217905550600090505b8151811015610bdb57600173__ListLib_______________________________63a45c62aa90918484815181101515610b0557fe5b906020019060200201516040518363ffffffff167c0100000000000000000000000000000000000000000000000000000000028152600401808381526020018273ffffffffffffffffffffffffffffffffffffffff1673ffffffffffffffffffffffffffffffffffffffff1681526020019250505060206040518083038186803b158015610b9257600080fd5b505af4158015610ba6573d6000803e3d6000fd5b505050506040513d6020811015610bbc57600080fd5b8101908080519060200190929190505050508080600101915050610ad0565b6001600060146101000a81548160ff021916908315150217905550505050565b6000809054906101000a900473ffffffffffffffffffffffffffffffffffffffff1673ffffffffffffffffffffffffffffffffffffffff163373ffffffffffffffffffffffffffffffffffffffff16141515610c5657600080fd5b806000806101000a81548173ffffffffffffffffffffffffffffffffffffffff021916908373ffffffffffffffffffffffffffffffffffffffff16021790555050565b6000600173__ListLib_______________________________639e88f3509091846040518363ffffffff167c0100000000000000000000000000000000000000000000000000000000028152600401808381526020018273ffffffffffffffffffffffffffffffffffffffff1673ffffffffffffffffffffffffffffffffffffffff1681526020019250505060206040518083038186803b158015610d3d57600080fd5b505af4158015610d51573d6000803e3d6000fd5b505050506040513d6020811015610d6757600080fd5b810190808051906020019092919050505090509190505600a165627a7a723058200cf3744367c78ded9cb6cdf5e5a4c9b4fda3f6633ed8822815d662b4cdbf551f0029",
  "source": "pragma solidity ^0.4.23;\r\n\r\nimport \"../external/Owned.sol\";\r\nimport \"../libraries/ListLib.sol\";\r\nimport \"../Interfaces.sol\";\r\n\r\ncontract AddressList is Owned {\r\n\r\n    bool public initialized;\r\n\r\n    using ListLib for ListLib.AddressList;\r\n\r\n    ListLib.AddressList addresses;\r\n\r\n    function initialize (address _owner, address[] list) public {\r\n        require(!initialized, \"contract can only be initialized once\");\r\n\r\n        owner = _owner;\r\n\r\n        for(uint i = 0; i < list.length; i++)\r\n            addresses.add(list[i]);\r\n\r\n        initialized = true;\r\n    }\r\n\r\n    function get () public view returns (address[]) {\r\n        return addresses.get();\r\n    }\r\n\r\n    function index (uint i) public view returns (address) {\r\n        return addresses.index(i);\r\n    }\r\n    \r\n    function indexOf (address account) public view returns (uint) {\r\n        return addresses.getIndexOf(account);\r\n    }\r\n    \r\n    function length () public view returns (uint) {\r\n        return addresses.array.length;\r\n    }\r\n    \r\n    function contains (address account) public view returns (bool) {\r\n        return addresses.contains(account);\r\n    }\r\n    \r\n    function add (address account) public onlyOwner returns (bool) {\r\n        return addresses.add(account);\r\n    }\r\n    \r\n    function remove (address account) public onlyOwner returns (bool) {\r\n        return addresses.remove(account);\r\n    }\r\n    \r\n}\r\n",
  "sourcePath": "C:\\Users\\My\\Documents\\GitHub\\everchain-project\\recurring-alarm-clock\\contracts\\utility\\AddressList.sol",
  "compiler": {
    "name": "solc",
    "version": "0.4.24+commit.e67f0147.Emscripten.clang"
  },
  "schemaVersion": "2.0.1",
  "updatedAt": "2018-10-07T04:51:18.041Z"
}