{
  "contractName": "BancorGasPriceFeed",
  "abi": [
    {
      "constant": true,
      "inputs": [],
      "name": "oracle",
      "outputs": [
        {
          "name": "",
          "type": "address"
        }
      ],
      "payable": false,
      "stateMutability": "view",
      "type": "function"
    },
    {
      "constant": true,
      "inputs": [],
      "name": "read",
      "outputs": [
        {
          "name": "",
          "type": "uint256"
        }
      ],
      "payable": false,
      "stateMutability": "view",
      "type": "function"
    }
  ],
  "bytecode": "0x608060405234801561001057600080fd5b506101e9806100206000396000f3fe60806040526004361061004c576000357c0100000000000000000000000000000000000000000000000000000000900463ffffffff16806357de26a4146100515780637dc0d1d01461007c575b600080fd5b34801561005d57600080fd5b506100666100d3565b6040518082815260200191505060405180910390f35b34801561008857600080fd5b50610091610198565b604051808273ffffffffffffffffffffffffffffffffffffffff1673ffffffffffffffffffffffffffffffffffffffff16815260200191505060405180910390f35b60008060009054906101000a900473ffffffffffffffffffffffffffffffffffffffff1673ffffffffffffffffffffffffffffffffffffffff1663fe173b976040518163ffffffff167c010000000000000000000000000000000000000000000000000000000002815260040160206040518083038186803b15801561015857600080fd5b505afa15801561016c573d6000803e3d6000fd5b505050506040513d602081101561018257600080fd5b8101908080519060200190929190505050905090565b6000809054906101000a900473ffffffffffffffffffffffffffffffffffffffff168156fea165627a7a72305820ed6d75787b2a81e70623c3398fef4be3d2e4ea2f9b7bdfcf54c9b952e1bf43410029",
  "source": "pragma solidity ^0.5.0;\r\n\r\nimport \"../external/Owned.sol\";\r\nimport \"../external/IBancorGasPriceLimit.sol\";\r\nimport \"../Interfaces.sol\";\r\n\r\ncontract BancorGasPriceFeed is IUintFeed {\r\n\r\n    IBancorGasPriceLimit public oracle;\r\n    \r\n    function read() public view returns (uint) {\r\n        return oracle.gasPrice();\r\n    }\r\n\r\n}\r\n\r\ncontract GasPriceOracle is Owned, IUintFeed {\r\n\r\n    IUintFeed public gasPrice;\r\n\r\n    function read () public view returns (uint) {\r\n        return gasPrice.read();\r\n    }\r\n\r\n    function changeFeed(IUintFeed newFeed) public {\r\n        gasPrice = newFeed;\r\n    }\r\n\r\n}\r\n",
  "sourcePath": "C:/Users/My/Documents/GitHub/everchain-project/recurring-alarm-clock/contracts/components/GasPriceOracle.sol",
  "compiler": {
    "name": "solc",
    "version": "0.5.0+commit.1d4f565a.Emscripten.clang"
  },
  "schemaVersion": "3.0.0-beta.2",
  "updatedAt": "2018-11-25T22:53:41.266Z",
  "devdoc": {
    "methods": {}
  },
  "userdoc": {
    "methods": {}
  }
}