{
  "contractName": "BancorGasPriceFeed",
  "abi": [
    {
      "constant": true,
      "inputs": [],
      "name": "oracle",
      "outputs": [
        {
          "name": "",
          "type": "address"
        }
      ],
      "payable": false,
      "stateMutability": "view",
      "type": "function"
    },
    {
      "inputs": [
        {
          "name": "_oracle",
          "type": "address"
        }
      ],
      "payable": false,
      "stateMutability": "nonpayable",
      "type": "constructor"
    },
    {
      "constant": true,
      "inputs": [],
      "name": "read",
      "outputs": [
        {
          "name": "",
          "type": "uint256"
        }
      ],
      "payable": false,
      "stateMutability": "view",
      "type": "function"
    }
  ],
  "bytecode": "0x608060405234801561001057600080fd5b5060405160208061027a8339810180604052602081101561003057600080fd5b8101908080519060200190929190505050806000806101000a81548173ffffffffffffffffffffffffffffffffffffffff021916908373ffffffffffffffffffffffffffffffffffffffff160217905550506101e9806100916000396000f3fe60806040526004361061004c576000357c0100000000000000000000000000000000000000000000000000000000900463ffffffff16806357de26a4146100515780637dc0d1d01461007c575b600080fd5b34801561005d57600080fd5b506100666100d3565b6040518082815260200191505060405180910390f35b34801561008857600080fd5b50610091610198565b604051808273ffffffffffffffffffffffffffffffffffffffff1673ffffffffffffffffffffffffffffffffffffffff16815260200191505060405180910390f35b60008060009054906101000a900473ffffffffffffffffffffffffffffffffffffffff1673ffffffffffffffffffffffffffffffffffffffff1663fe173b976040518163ffffffff167c010000000000000000000000000000000000000000000000000000000002815260040160206040518083038186803b15801561015857600080fd5b505afa15801561016c573d6000803e3d6000fd5b505050506040513d602081101561018257600080fd5b8101908080519060200190929190505050905090565b6000809054906101000a900473ffffffffffffffffffffffffffffffffffffffff168156fea165627a7a72305820f299be521cb12bacde59e7952452cc1b35c9ae24f75ebdbcc63eb8da239be1000029",
  "source": "pragma solidity ^0.5.0;\n\nimport \"./external/Owned.sol\";\nimport \"./external/BokkyPooBahsDateTimeLibrary.sol\";\nimport \"./external/IBancorGasPriceLimit.sol\";\nimport \"./Interfaces.sol\";\n\ncontract BancorGasPriceFeed is IUintFeed {\n\n    IBancorGasPriceLimit public oracle;\n\n    constructor (IBancorGasPriceLimit _oracle) public {\n        oracle = _oracle;\n    }\n    \n    function read() public view returns (uint) {\n        return oracle.gasPrice();\n    }\n\n}\n\ncontract GasPriceOracle is Owned, IGasPriceOracle {\n\n    IUintFeed public gasPrice;\n    \n    uint public minute  =   11000; // 110%\n    uint public day     =   12000; // 120%\n    uint public week    =   15000; // 150%\n    uint public month   =   20000; // 200%\n    uint public quarter =   30000; // 300%\n    uint public year    =  100000; // 1000%\n    uint public beyond  =  100000; // 1000%\n\n    constructor (IUintFeed _gasPrice) public {\n        gasPrice = _gasPrice;\n    }\n\n    function current () public view returns (uint) {\n        return gasPrice.read();\n    }\n\n    function future (uint timestamp) public view returns (uint) {\n        uint interval = BokkyPooBahsDateTimeLibrary.diffDays(now, timestamp);\n        uint currentPrice = current();\n\n        if(interval > 365)\n            return currentPrice * beyond / 10000;\n        else if(interval > 90)\n            return currentPrice * year / 10000;\n        else if (interval > 30)\n            return currentPrice * quarter / 10000;\n        else if (interval > 7)\n            return currentPrice * month / 10000;\n        else if (interval > 1)\n            return currentPrice * week / 10000;\n        else if (interval > 0)\n            return currentPrice * day / 10000;\n        else\n            return currentPrice * minute / 10000;\n    }\n\n    function setDayMultiplier(uint _multiplier) public onlyOwner {\n        day = _multiplier;\n    }\n\n    function setWeekMultiplier(uint _multiplier) public onlyOwner {\n        week = _multiplier;\n    }\n\n    function setMonthMultiplier(uint _multiplier) public onlyOwner {\n        month = _multiplier;\n    }\n\n    function setQuarterMultiplier(uint _multiplier) public onlyOwner {\n        quarter = _multiplier;\n    }\n\n    function setYearMultiplier(uint _multiplier) public onlyOwner {\n        year = _multiplier;\n    }\n\n    function changeFeed(IUintFeed newFeed) public {\n        gasPrice = newFeed;\n    }\n\n}\n",
  "sourcePath": "/home/joe/Documents/github/everchain-project/recurring-alarm-clock/contracts/GasPriceOracle.sol",
  "compiler": {
    "name": "solc",
    "version": "0.5.0+commit.1d4f565a.Emscripten.clang"
  },
  "schemaVersion": "3.0.1",
  "updatedAt": "2019-01-19T23:20:26.029Z",
  "devdoc": {
    "methods": {}
  },
  "userdoc": {
    "methods": {}
  }
}