{
  "contractName": "BancorGasPriceFeed",
  "abi": [
    {
      "constant": true,
      "inputs": [],
      "name": "oracle",
      "outputs": [
        {
          "name": "",
          "type": "address"
        }
      ],
      "payable": false,
      "stateMutability": "view",
      "type": "function"
    },
    {
      "inputs": [
        {
          "name": "_oracle",
          "type": "address"
        }
      ],
      "payable": false,
      "stateMutability": "nonpayable",
      "type": "constructor"
    },
    {
      "constant": true,
      "inputs": [],
      "name": "read",
      "outputs": [
        {
          "name": "",
          "type": "uint256"
        }
      ],
      "payable": false,
      "stateMutability": "view",
      "type": "function"
    }
  ],
  "bytecode": "0x608060405234801561001057600080fd5b5060405160208061027a8339810180604052602081101561003057600080fd5b8101908080519060200190929190505050806000806101000a81548173ffffffffffffffffffffffffffffffffffffffff021916908373ffffffffffffffffffffffffffffffffffffffff160217905550506101e9806100916000396000f3fe60806040526004361061004c576000357c0100000000000000000000000000000000000000000000000000000000900463ffffffff16806357de26a4146100515780637dc0d1d01461007c575b600080fd5b34801561005d57600080fd5b506100666100d3565b6040518082815260200191505060405180910390f35b34801561008857600080fd5b50610091610198565b604051808273ffffffffffffffffffffffffffffffffffffffff1673ffffffffffffffffffffffffffffffffffffffff16815260200191505060405180910390f35b60008060009054906101000a900473ffffffffffffffffffffffffffffffffffffffff1673ffffffffffffffffffffffffffffffffffffffff1663fe173b976040518163ffffffff167c010000000000000000000000000000000000000000000000000000000002815260040160206040518083038186803b15801561015857600080fd5b505afa15801561016c573d6000803e3d6000fd5b505050506040513d602081101561018257600080fd5b8101908080519060200190929190505050905090565b6000809054906101000a900473ffffffffffffffffffffffffffffffffffffffff168156fea165627a7a72305820d2f614d299387230c867ae8195ebb79831ae2cbd118e0768bfbf07c45d926fba0029",
  "source": "pragma solidity ^0.5.0;\n\nimport \"../Interfaces.sol\";\n\n/// @notice Bancor Gas Price Limit interface\ncontract IBancorGasPriceLimit {\n    function gasPrice() public view returns (uint256);\n    function validateGasPrice(uint256) public view;\n}\n\ncontract BancorGasPriceFeed is IUintFeed {\n\n    IBancorGasPriceLimit public oracle;\n\n    constructor (IBancorGasPriceLimit _oracle) public {\n        oracle = _oracle;\n    }\n\n    function read() public view returns (uint) {\n        return oracle.gasPrice();\n    }\n\n}\n",
  "sourcePath": "/home/joe/Documents/github/everchain-project/recurring-transactions/contracts/feeds/BancorGasPriceFeed.sol",
  "compiler": {
    "name": "solc",
    "version": "0.5.0+commit.1d4f565a.Emscripten.clang"
  },
  "schemaVersion": "3.0.9",
  "updatedAt": "2019-05-14T22:16:21.135Z",
  "devdoc": {
    "methods": {}
  },
  "userdoc": {
    "methods": {}
  }
}