{
  "contractName": "CentralizedPaymentDelegate",
  "abi": [
    {
      "constant": true,
      "inputs": [
        {
          "name": "wallet",
          "type": "address"
        },
        {
          "name": "i",
          "type": "uint256"
        }
      ],
      "name": "getOutgoingPaymentAtIndex",
      "outputs": [
        {
          "name": "",
          "type": "address"
        }
      ],
      "payable": false,
      "stateMutability": "view",
      "type": "function"
    },
    {
      "constant": true,
      "inputs": [
        {
          "name": "recipient",
          "type": "address"
        }
      ],
      "name": "getTotalIncomingPayments",
      "outputs": [
        {
          "name": "",
          "type": "uint256"
        }
      ],
      "payable": false,
      "stateMutability": "view",
      "type": "function"
    },
    {
      "constant": true,
      "inputs": [
        {
          "name": "recipient",
          "type": "address"
        },
        {
          "name": "i",
          "type": "uint256"
        }
      ],
      "name": "getIncomingPaymentAtIndex",
      "outputs": [
        {
          "name": "",
          "type": "address"
        }
      ],
      "payable": false,
      "stateMutability": "view",
      "type": "function"
    },
    {
      "constant": true,
      "inputs": [
        {
          "name": "wallet",
          "type": "address"
        }
      ],
      "name": "getTotalOutgoingPayments",
      "outputs": [
        {
          "name": "",
          "type": "uint256"
        }
      ],
      "payable": false,
      "stateMutability": "view",
      "type": "function"
    },
    {
      "constant": false,
      "inputs": [
        {
          "name": "recipient",
          "type": "address"
        }
      ],
      "name": "unregister",
      "outputs": [
        {
          "name": "success",
          "type": "bool"
        }
      ],
      "payable": false,
      "stateMutability": "nonpayable",
      "type": "function"
    },
    {
      "constant": false,
      "inputs": [
        {
          "name": "payment",
          "type": "address"
        }
      ],
      "name": "schedule",
      "outputs": [
        {
          "name": "success",
          "type": "bool"
        }
      ],
      "payable": false,
      "stateMutability": "nonpayable",
      "type": "function"
    },
    {
      "constant": false,
      "inputs": [
        {
          "name": "payment",
          "type": "address"
        }
      ],
      "name": "clear",
      "outputs": [
        {
          "name": "success",
          "type": "bool"
        }
      ],
      "payable": false,
      "stateMutability": "nonpayable",
      "type": "function"
    },
    {
      "constant": true,
      "inputs": [
        {
          "name": "recipient",
          "type": "address"
        }
      ],
      "name": "getIncomingPayments",
      "outputs": [
        {
          "name": "",
          "type": "address[]"
        }
      ],
      "payable": false,
      "stateMutability": "view",
      "type": "function"
    },
    {
      "constant": false,
      "inputs": [
        {
          "name": "recipient",
          "type": "address"
        }
      ],
      "name": "register",
      "outputs": [
        {
          "name": "success",
          "type": "bool"
        }
      ],
      "payable": false,
      "stateMutability": "nonpayable",
      "type": "function"
    },
    {
      "constant": true,
      "inputs": [],
      "name": "blockCreated",
      "outputs": [
        {
          "name": "",
          "type": "uint256"
        }
      ],
      "payable": false,
      "stateMutability": "view",
      "type": "function"
    },
    {
      "constant": true,
      "inputs": [
        {
          "name": "wallet",
          "type": "address"
        }
      ],
      "name": "getOutgoingPayments",
      "outputs": [
        {
          "name": "",
          "type": "address[]"
        }
      ],
      "payable": false,
      "stateMutability": "view",
      "type": "function"
    },
    {
      "constant": true,
      "inputs": [],
      "name": "owner",
      "outputs": [
        {
          "name": "",
          "type": "address"
        }
      ],
      "payable": false,
      "stateMutability": "view",
      "type": "function"
    },
    {
      "constant": true,
      "inputs": [
        {
          "name": "wallet",
          "type": "address"
        },
        {
          "name": "payment",
          "type": "address"
        }
      ],
      "name": "walletContainsPayment",
      "outputs": [
        {
          "name": "",
          "type": "bool"
        }
      ],
      "payable": false,
      "stateMutability": "view",
      "type": "function"
    },
    {
      "constant": false,
      "inputs": [
        {
          "name": "token",
          "type": "address"
        },
        {
          "name": "recipient",
          "type": "address"
        },
        {
          "name": "amount",
          "type": "uint256"
        }
      ],
      "name": "transfer",
      "outputs": [
        {
          "name": "success",
          "type": "bool"
        }
      ],
      "payable": false,
      "stateMutability": "nonpayable",
      "type": "function"
    },
    {
      "constant": true,
      "inputs": [
        {
          "name": "recipient",
          "type": "address"
        },
        {
          "name": "payment",
          "type": "address"
        }
      ],
      "name": "recipientContainsPayment",
      "outputs": [
        {
          "name": "",
          "type": "bool"
        }
      ],
      "payable": false,
      "stateMutability": "view",
      "type": "function"
    },
    {
      "constant": false,
      "inputs": [],
      "name": "unschedule",
      "outputs": [
        {
          "name": "success",
          "type": "bool"
        }
      ],
      "payable": false,
      "stateMutability": "nonpayable",
      "type": "function"
    },
    {
      "constant": false,
      "inputs": [
        {
          "name": "_newOwner",
          "type": "address"
        }
      ],
      "name": "transferOwnership",
      "outputs": [],
      "payable": false,
      "stateMutability": "nonpayable",
      "type": "function"
    },
    {
      "constant": false,
      "inputs": [
        {
          "name": "payment",
          "type": "address"
        }
      ],
      "name": "unschedule",
      "outputs": [
        {
          "name": "success",
          "type": "bool"
        }
      ],
      "payable": false,
      "stateMutability": "nonpayable",
      "type": "function"
    },
    {
      "anonymous": false,
      "inputs": [
        {
          "indexed": false,
          "name": "scheduler",
          "type": "address"
        }
      ],
      "name": "AddScheduler_event",
      "type": "event"
    },
    {
      "anonymous": false,
      "inputs": [
        {
          "indexed": false,
          "name": "scheduler",
          "type": "address"
        }
      ],
      "name": "RemoveScheduler_event",
      "type": "event"
    },
    {
      "anonymous": false,
      "inputs": [
        {
          "indexed": true,
          "name": "wallet",
          "type": "address"
        },
        {
          "indexed": true,
          "name": "payment",
          "type": "address"
        },
        {
          "indexed": false,
          "name": "success",
          "type": "bool"
        }
      ],
      "name": "Payment_event",
      "type": "event"
    },
    {
      "anonymous": false,
      "inputs": [
        {
          "indexed": true,
          "name": "wallet",
          "type": "address"
        },
        {
          "indexed": true,
          "name": "caller",
          "type": "address"
        },
        {
          "indexed": true,
          "name": "payment",
          "type": "address"
        }
      ],
      "name": "Schedule_event",
      "type": "event"
    },
    {
      "anonymous": false,
      "inputs": [
        {
          "indexed": true,
          "name": "wallet",
          "type": "address"
        },
        {
          "indexed": true,
          "name": "caller",
          "type": "address"
        },
        {
          "indexed": true,
          "name": "payment",
          "type": "address"
        }
      ],
      "name": "Unschedule_event",
      "type": "event"
    },
    {
      "anonymous": false,
      "inputs": [
        {
          "indexed": true,
          "name": "payment",
          "type": "address"
        },
        {
          "indexed": true,
          "name": "recipient",
          "type": "address"
        }
      ],
      "name": "Register_event",
      "type": "event"
    },
    {
      "anonymous": false,
      "inputs": [
        {
          "indexed": true,
          "name": "payment",
          "type": "address"
        },
        {
          "indexed": true,
          "name": "recipient",
          "type": "address"
        }
      ],
      "name": "Unregister_event",
      "type": "event"
    },
    {
      "anonymous": false,
      "inputs": [
        {
          "indexed": false,
          "name": "payment",
          "type": "address"
        },
        {
          "indexed": true,
          "name": "recipient",
          "type": "address"
        }
      ],
      "name": "Clear_event",
      "type": "event"
    },
    {
      "constant": false,
      "inputs": [
        {
          "name": "newScheduler",
          "type": "address"
        }
      ],
      "name": "addScheduler",
      "outputs": [
        {
          "name": "success",
          "type": "bool"
        }
      ],
      "payable": false,
      "stateMutability": "nonpayable",
      "type": "function"
    },
    {
      "constant": false,
      "inputs": [
        {
          "name": "oldScheduler",
          "type": "address"
        }
      ],
      "name": "removeScheduler",
      "outputs": [
        {
          "name": "success",
          "type": "bool"
        }
      ],
      "payable": false,
      "stateMutability": "nonpayable",
      "type": "function"
    },
    {
      "constant": true,
      "inputs": [],
      "name": "getSchedulers",
      "outputs": [
        {
          "name": "",
          "type": "address[]"
        }
      ],
      "payable": false,
      "stateMutability": "view",
      "type": "function"
    },
    {
      "constant": true,
      "inputs": [
        {
          "name": "scheduler",
          "type": "address"
        }
      ],
      "name": "containsScheduler",
      "outputs": [
        {
          "name": "",
          "type": "bool"
        }
      ],
      "payable": false,
      "stateMutability": "view",
      "type": "function"
    }
  ],
  "bytecode": "0x608060405243600155336000806101000a81548173ffffffffffffffffffffffffffffffffffffffff021916908373ffffffffffffffffffffffffffffffffffffffff160217905550612c58806100576000396000f3fe608060405260043610610128576000357c0100000000000000000000000000000000000000000000000000000000900463ffffffff1680630a6025341461012d5780631209790b1461019957806316dc8c04146102345780631cf774481461029d578063242cb3df1461030257806327f615e61461039d5780632ec2c24614610402578063306b10221461046b578063316bef98146104d45780633d0a40611461053d5780634408f928146105a65780634420e4861461064c5780634e989a4c146106b557806381545050146106e05780638d498ba9146107495780638da5cb5b146107ef5780639ba00f0f14610846578063beabacc8146108cf578063da1bffa614610962578063daf1548c146109eb578063f2fde38b14610a1a578063f4c0f41314610a6b575b600080fd5b34801561013957600080fd5b50610142610ad4565b6040518080602001828103825283818151815260200191508051906020019060200280838360005b8381101561018557808201518184015260208101905061016a565b505050509050019250505060405180910390f35b3480156101a557600080fd5b506101f2600480360360408110156101bc57600080fd5b81019080803573ffffffffffffffffffffffffffffffffffffffff16906020019092919080359060200190929190505050610bda565b604051808273ffffffffffffffffffffffffffffffffffffffff1673ffffffffffffffffffffffffffffffffffffffff16815260200191505060405180910390f35b34801561024057600080fd5b506102836004803603602081101561025757600080fd5b81019080803573ffffffffffffffffffffffffffffffffffffffff169060200190929190505050610cd2565b604051808215151515815260200191505060405180910390f35b3480156102a957600080fd5b506102ec600480360360208110156102c057600080fd5b81019080803573ffffffffffffffffffffffffffffffffffffffff169060200190929190505050610e7d565b6040518082815260200191505060405180910390f35b34801561030e57600080fd5b5061035b6004803603604081101561032557600080fd5b81019080803573ffffffffffffffffffffffffffffffffffffffff16906020019092919080359060200190929190505050610f6c565b604051808273ffffffffffffffffffffffffffffffffffffffff1673ffffffffffffffffffffffffffffffffffffffff16815260200191505060405180910390f35b3480156103a957600080fd5b506103ec600480360360208110156103c057600080fd5b81019080803573ffffffffffffffffffffffffffffffffffffffff169060200190929190505050611064565b6040518082815260200191505060405180910390f35b34801561040e57600080fd5b506104516004803603602081101561042557600080fd5b81019080803573ffffffffffffffffffffffffffffffffffffffff169060200190929190505050611153565b604051808215151515815260200191505060405180910390f35b34801561047757600080fd5b506104ba6004803603602081101561048e57600080fd5b81019080803573ffffffffffffffffffffffffffffffffffffffff1690602001909291905050506112dc565b604051808215151515815260200191505060405180910390f35b3480156104e057600080fd5b50610523600480360360208110156104f757600080fd5b81019080803573ffffffffffffffffffffffffffffffffffffffff169060200190929190505050611487565b604051808215151515815260200191505060405180910390f35b34801561054957600080fd5b5061058c6004803603602081101561056057600080fd5b81019080803573ffffffffffffffffffffffffffffffffffffffff169060200190929190505050611740565b604051808215151515815260200191505060405180910390f35b3480156105b257600080fd5b506105f5600480360360208110156105c957600080fd5b81019080803573ffffffffffffffffffffffffffffffffffffffff1690602001909291905050506118e9565b6040518080602001828103825283818151815260200191508051906020019060200280838360005b8381101561063857808201518184015260208101905061061d565b505050509050019250505060405180910390f35b34801561065857600080fd5b5061069b6004803603602081101561066f57600080fd5b81019080803573ffffffffffffffffffffffffffffffffffffffff169060200190929190505050611a2e565b604051808215151515815260200191505060405180910390f35b3480156106c157600080fd5b506106ca611bb7565b6040518082815260200191505060405180910390f35b3480156106ec57600080fd5b5061072f6004803603602081101561070357600080fd5b81019080803573ffffffffffffffffffffffffffffffffffffffff169060200190929190505050611bbd565b604051808215151515815260200191505060405180910390f35b34801561075557600080fd5b506107986004803603602081101561076c57600080fd5b81019080803573ffffffffffffffffffffffffffffffffffffffff169060200190929190505050611ca3565b6040518080602001828103825283818151815260200191508051906020019060200280838360005b838110156107db5780820151818401526020810190506107c0565b505050509050019250505060405180910390f35b3480156107fb57600080fd5b50610804611de8565b604051808273ffffffffffffffffffffffffffffffffffffffff1673ffffffffffffffffffffffffffffffffffffffff16815260200191505060405180910390f35b34801561085257600080fd5b506108b56004803603604081101561086957600080fd5b81019080803573ffffffffffffffffffffffffffffffffffffffff169060200190929190803573ffffffffffffffffffffffffffffffffffffffff169060200190929190505050611e0d565b604051808215151515815260200191505060405180910390f35b3480156108db57600080fd5b50610948600480360360608110156108f257600080fd5b81019080803573ffffffffffffffffffffffffffffffffffffffff169060200190929190803573ffffffffffffffffffffffffffffffffffffffff16906020019092919080359060200190929190505050611f31565b604051808215151515815260200191505060405180910390f35b34801561096e57600080fd5b506109d16004803603604081101561098557600080fd5b81019080803573ffffffffffffffffffffffffffffffffffffffff169060200190929190803573ffffffffffffffffffffffffffffffffffffffff169060200190929190505050612202565b604051808215151515815260200191505060405180910390f35b3480156109f757600080fd5b50610a00612326565b604051808215151515815260200191505060405180910390f35b348015610a2657600080fd5b50610a6960048036036020811015610a3d57600080fd5b81019080803573ffffffffffffffffffffffffffffffffffffffff169060200190929190505050612566565b005b348015610a7757600080fd5b50610aba60048036036020811015610a8e57600080fd5b81019080803573ffffffffffffffffffffffffffffffffffffffff169060200190929190505050612604565b604051808215151515815260200191505060405180910390f35b6060600473__AddressListLib________________________6330b05fbc90916040518263ffffffff167c01000000000000000000000000000000000000000000000000000000000281526004018082815260200191505060006040518083038186803b158015610b4457600080fd5b505af4158015610b58573d6000803e3d6000fd5b505050506040513d6000823e3d601f19601f820116820180604052506020811015610b8257600080fd5b810190808051640100000000811115610b9a57600080fd5b82810190506020810184811115610bb057600080fd5b8151856020820283011164010000000082111715610bcd57600080fd5b5050929190505050905090565b6000600260008473ffffffffffffffffffffffffffffffffffffffff1673ffffffffffffffffffffffffffffffffffffffff16815260200190815260200160002073__AddressListLib________________________63492d214c9091846040518363ffffffff167c0100000000000000000000000000000000000000000000000000000000028152600401808381526020018281526020019250505060206040518083038186803b158015610c8f57600080fd5b505af4158015610ca3573d6000803e3d6000fd5b505050506040513d6020811015610cb957600080fd5b8101908080519060200190929190505050905092915050565b60008060009054906101000a900473ffffffffffffffffffffffffffffffffffffffff1673ffffffffffffffffffffffffffffffffffffffff163373ffffffffffffffffffffffffffffffffffffffff16141515610d2f57600080fd5b600473__AddressListLib________________________636c11a8a39091846040518363ffffffff167c0100000000000000000000000000000000000000000000000000000000028152600401808381526020018273ffffffffffffffffffffffffffffffffffffffff1673ffffffffffffffffffffffffffffffffffffffff1681526020019250505060206040518083038186803b158015610dd157600080fd5b505af4158015610de5573d6000803e3d6000fd5b505050506040513d6020811015610dfb57600080fd5b810190808051906020019092919050505090508015610e78577f373d7d210b90c21560a4a54736a8c33e5df5094dd2d6b4292a62dc3482e70f2882604051808273ffffffffffffffffffffffffffffffffffffffff1673ffffffffffffffffffffffffffffffffffffffff16815260200191505060405180910390a15b919050565b6000600360008373ffffffffffffffffffffffffffffffffffffffff1673ffffffffffffffffffffffffffffffffffffffff16815260200190815260200160002073__AddressListLib________________________631ecb748690916040518263ffffffff167c01000000000000000000000000000000000000000000000000000000000281526004018082815260200191505060206040518083038186803b158015610f2a57600080fd5b505af4158015610f3e573d6000803e3d6000fd5b505050506040513d6020811015610f5457600080fd5b81019080805190602001909291905050509050919050565b6000600360008473ffffffffffffffffffffffffffffffffffffffff1673ffffffffffffffffffffffffffffffffffffffff16815260200190815260200160002073__AddressListLib________________________63492d214c9091846040518363ffffffff167c0100000000000000000000000000000000000000000000000000000000028152600401808381526020018281526020019250505060206040518083038186803b15801561102157600080fd5b505af4158015611035573d6000803e3d6000fd5b505050506040513d602081101561104b57600080fd5b8101908080519060200190929190505050905092915050565b6000600260008373ffffffffffffffffffffffffffffffffffffffff1673ffffffffffffffffffffffffffffffffffffffff16815260200190815260200160002073__AddressListLib________________________631ecb748690916040518263ffffffff167c01000000000000000000000000000000000000000000000000000000000281526004018082815260200191505060206040518083038186803b15801561111157600080fd5b505af4158015611125573d6000803e3d6000fd5b505050506040513d602081101561113b57600080fd5b81019080805190602001909291905050509050919050565b600080339050600360008473ffffffffffffffffffffffffffffffffffffffff1673ffffffffffffffffffffffffffffffffffffffff16815260200190815260200160002073__AddressListLib________________________636c11a8a39091836040518363ffffffff167c0100000000000000000000000000000000000000000000000000000000028152600401808381526020018273ffffffffffffffffffffffffffffffffffffffff1673ffffffffffffffffffffffffffffffffffffffff1681526020019250505060206040518083038186803b15801561123857600080fd5b505af415801561124c573d6000803e3d6000fd5b505050506040513d602081101561126257600080fd5b8101908080519060200190929190505050915081156112d6578273ffffffffffffffffffffffffffffffffffffffff168173ffffffffffffffffffffffffffffffffffffffff167fc4e3e1c0bf06296aec3bd78e8658e358b7397da9143472548493238caa81293a60405160405180910390a35b50919050565b60008060009054906101000a900473ffffffffffffffffffffffffffffffffffffffff1673ffffffffffffffffffffffffffffffffffffffff163373ffffffffffffffffffffffffffffffffffffffff1614151561133957600080fd5b600473__AddressListLib________________________6390c158cb9091846040518363ffffffff167c0100000000000000000000000000000000000000000000000000000000028152600401808381526020018273ffffffffffffffffffffffffffffffffffffffff1673ffffffffffffffffffffffffffffffffffffffff1681526020019250505060206040518083038186803b1580156113db57600080fd5b505af41580156113ef573d6000803e3d6000fd5b505050506040513d602081101561140557600080fd5b810190808051906020019092919050505090508015611482577f7376d4dc57fc545fc616a47dd475fbbb99d6753a458d5cb3fab9e2cc64d9a60b82604051808273ffffffffffffffffffffffffffffffffffffffff1673ffffffffffffffffffffffffffffffffffffffff16815260200191505060405180910390a15b919050565b6000808273ffffffffffffffffffffffffffffffffffffffff1663521eb2736040518163ffffffff167c010000000000000000000000000000000000000000000000000000000002815260040160206040518083038186803b1580156114ec57600080fd5b505afa158015611500573d6000803e3d6000fd5b505050506040513d602081101561151657600080fd5b81019080805190602001909291905050509050611532836129ae565b15156115a6576040517f08c379a00000000000000000000000000000000000000000000000000000000081526004018080602001828103825260148152602001807f7061796d656e74206973206e6f742076616c696400000000000000000000000081525060200191505060405180910390fd5b600260008273ffffffffffffffffffffffffffffffffffffffff1673ffffffffffffffffffffffffffffffffffffffff16815260200190815260200160002073__AddressListLib________________________6390c158cb9091856040518363ffffffff167c0100000000000000000000000000000000000000000000000000000000028152600401808381526020018273ffffffffffffffffffffffffffffffffffffffff1673ffffffffffffffffffffffffffffffffffffffff1681526020019250505060206040518083038186803b15801561168557600080fd5b505af4158015611699573d6000803e3d6000fd5b505050506040513d60208110156116af57600080fd5b81019080805190602001909291905050509150811561173a578273ffffffffffffffffffffffffffffffffffffffff163373ffffffffffffffffffffffffffffffffffffffff168273ffffffffffffffffffffffffffffffffffffffff167feeff87c17b7a01ed28c42162e95c1b9c8f15ac5b7ba59b6ba8fc617d703e35c060405160405180910390a45b50919050565b600080339050600360008273ffffffffffffffffffffffffffffffffffffffff1673ffffffffffffffffffffffffffffffffffffffff16815260200190815260200160002073__AddressListLib________________________636c11a8a39091856040518363ffffffff167c0100000000000000000000000000000000000000000000000000000000028152600401808381526020018273ffffffffffffffffffffffffffffffffffffffff1673ffffffffffffffffffffffffffffffffffffffff1681526020019250505060206040518083038186803b15801561182557600080fd5b505af4158015611839573d6000803e3d6000fd5b505050506040513d602081101561184f57600080fd5b8101908080519060200190929190505050915081156118e3578073ffffffffffffffffffffffffffffffffffffffff167f1145ab2523762d63e9c714ac17287a4d4d895cbe090cc44582ffc28e2f8737a784604051808273ffffffffffffffffffffffffffffffffffffffff1673ffffffffffffffffffffffffffffffffffffffff16815260200191505060405180910390a25b50919050565b6060600360008373ffffffffffffffffffffffffffffffffffffffff1673ffffffffffffffffffffffffffffffffffffffff16815260200190815260200160002073__AddressListLib________________________6330b05fbc90916040518263ffffffff167c01000000000000000000000000000000000000000000000000000000000281526004018082815260200191505060006040518083038186803b15801561199657600080fd5b505af41580156119aa573d6000803e3d6000fd5b505050506040513d6000823e3d601f19601f8201168201806040525060208110156119d457600080fd5b8101908080516401000000008111156119ec57600080fd5b82810190506020810184811115611a0257600080fd5b8151856020820283011164010000000082111715611a1f57600080fd5b50509291905050509050919050565b600080339050600360008473ffffffffffffffffffffffffffffffffffffffff1673ffffffffffffffffffffffffffffffffffffffff16815260200190815260200160002073__AddressListLib________________________6390c158cb9091836040518363ffffffff167c0100000000000000000000000000000000000000000000000000000000028152600401808381526020018273ffffffffffffffffffffffffffffffffffffffff1673ffffffffffffffffffffffffffffffffffffffff1681526020019250505060206040518083038186803b158015611b1357600080fd5b505af4158015611b27573d6000803e3d6000fd5b505050506040513d6020811015611b3d57600080fd5b810190808051906020019092919050505091508115611bb1578273ffffffffffffffffffffffffffffffffffffffff168173ffffffffffffffffffffffffffffffffffffffff167f347b8ea0fe30e336623ec1c0be9f8df5d6c70d0077bd29c56d971c473372c31b60405160405180910390a35b50919050565b60015481565b6000600473__AddressListLib________________________631a65cb959091846040518363ffffffff167c0100000000000000000000000000000000000000000000000000000000028152600401808381526020018273ffffffffffffffffffffffffffffffffffffffff1673ffffffffffffffffffffffffffffffffffffffff1681526020019250505060206040518083038186803b158015611c6157600080fd5b505af4158015611c75573d6000803e3d6000fd5b505050506040513d6020811015611c8b57600080fd5b81019080805190602001909291905050509050919050565b6060600260008373ffffffffffffffffffffffffffffffffffffffff1673ffffffffffffffffffffffffffffffffffffffff16815260200190815260200160002073__AddressListLib________________________6330b05fbc90916040518263ffffffff167c01000000000000000000000000000000000000000000000000000000000281526004018082815260200191505060006040518083038186803b158015611d5057600080fd5b505af4158015611d64573d6000803e3d6000fd5b505050506040513d6000823e3d601f19601f820116820180604052506020811015611d8e57600080fd5b810190808051640100000000811115611da657600080fd5b82810190506020810184811115611dbc57600080fd5b8151856020820283011164010000000082111715611dd957600080fd5b50509291905050509050919050565b6000809054906101000a900473ffffffffffffffffffffffffffffffffffffffff1681565b6000600260008473ffffffffffffffffffffffffffffffffffffffff1673ffffffffffffffffffffffffffffffffffffffff16815260200190815260200160002073__AddressListLib________________________631a65cb959091846040518363ffffffff167c0100000000000000000000000000000000000000000000000000000000028152600401808381526020018273ffffffffffffffffffffffffffffffffffffffff1673ffffffffffffffffffffffffffffffffffffffff1681526020019250505060206040518083038186803b158015611eee57600080fd5b505af4158015611f02573d6000803e3d6000fd5b505050506040513d6020811015611f1857600080fd5b8101908080519060200190929190505050905092915050565b60008033905060008173ffffffffffffffffffffffffffffffffffffffff1663521eb2736040518163ffffffff167c010000000000000000000000000000000000000000000000000000000002815260040160206040518083038186803b158015611f9b57600080fd5b505afa158015611faf573d6000803e3d6000fd5b505050506040513d6020811015611fc557600080fd5b81019080805190602001909291905050509050611fe28183611e0d565b151561207c576040517f08c379a00000000000000000000000000000000000000000000000000000000081526004018080602001828103825260318152602001807f7061796d656e7420646f6573206e6f7420657869737420696e2074686520776181526020017f6c6c6574207061796d656e74206c69737400000000000000000000000000000081525060400191505060405180910390fd5b8073ffffffffffffffffffffffffffffffffffffffff1663beabacc88787876040518463ffffffff167c0100000000000000000000000000000000000000000000000000000000028152600401808473ffffffffffffffffffffffffffffffffffffffff1673ffffffffffffffffffffffffffffffffffffffff1681526020018373ffffffffffffffffffffffffffffffffffffffff1673ffffffffffffffffffffffffffffffffffffffff1681526020018281526020019350505050602060405180830381600087803b15801561215357600080fd5b505af1158015612167573d6000803e3d6000fd5b505050506040513d602081101561217d57600080fd5b810190808051906020019092919050505092508173ffffffffffffffffffffffffffffffffffffffff168173ffffffffffffffffffffffffffffffffffffffff167f4dceb65a4c53548f929868e6225cfbffc89698faa122be4b026fd9cace8978b285604051808215151515815260200191505060405180910390a350509392505050565b6000600360008473ffffffffffffffffffffffffffffffffffffffff1673ffffffffffffffffffffffffffffffffffffffff16815260200190815260200160002073__AddressListLib________________________631a65cb959091846040518363ffffffff167c0100000000000000000000000000000000000000000000000000000000028152600401808381526020018273ffffffffffffffffffffffffffffffffffffffff1673ffffffffffffffffffffffffffffffffffffffff1681526020019250505060206040518083038186803b1580156122e357600080fd5b505af41580156122f7573d6000803e3d6000fd5b505050506040513d602081101561230d57600080fd5b8101908080519060200190929190505050905092915050565b60008033905060008173ffffffffffffffffffffffffffffffffffffffff1663521eb2736040518163ffffffff167c010000000000000000000000000000000000000000000000000000000002815260040160206040518083038186803b15801561239057600080fd5b505afa1580156123a4573d6000803e3d6000fd5b505050506040513d60208110156123ba57600080fd5b81019080805190602001909291905050509050600260008273ffffffffffffffffffffffffffffffffffffffff1673ffffffffffffffffffffffffffffffffffffffff16815260200190815260200160002073__AddressListLib________________________636c11a8a39091846040518363ffffffff167c0100000000000000000000000000000000000000000000000000000000028152600401808381526020018273ffffffffffffffffffffffffffffffffffffffff1673ffffffffffffffffffffffffffffffffffffffff1681526020019250505060206040518083038186803b1580156124ac57600080fd5b505af41580156124c0573d6000803e3d6000fd5b505050506040513d60208110156124d657600080fd5b810190808051906020019092919050505092508215612561578173ffffffffffffffffffffffffffffffffffffffff168273ffffffffffffffffffffffffffffffffffffffff168273ffffffffffffffffffffffffffffffffffffffff167f8a8b9b9f0d7621ac2e305c16bb0e3a588357ead602db12ff673dafee6ec0924d60405160405180910390a45b505090565b6000809054906101000a900473ffffffffffffffffffffffffffffffffffffffff1673ffffffffffffffffffffffffffffffffffffffff163373ffffffffffffffffffffffffffffffffffffffff161415156125c157600080fd5b806000806101000a81548173ffffffffffffffffffffffffffffffffffffffff021916908373ffffffffffffffffffffffffffffffffffffffff16021790555050565b6000808273ffffffffffffffffffffffffffffffffffffffff1663521eb2736040518163ffffffff167c010000000000000000000000000000000000000000000000000000000002815260040160206040518083038186803b15801561266957600080fd5b505afa15801561267d573d6000803e3d6000fd5b505050506040513d602081101561269357600080fd5b810190808051906020019092919050505090508073ffffffffffffffffffffffffffffffffffffffff166307779627336040518263ffffffff167c0100000000000000000000000000000000000000000000000000000000028152600401808273ffffffffffffffffffffffffffffffffffffffff1673ffffffffffffffffffffffffffffffffffffffff16815260200191505060206040518083038186803b15801561273f57600080fd5b505afa158015612753573d6000803e3d6000fd5b505050506040513d602081101561276957600080fd5b81019080805190602001909291905050501515612814576040517f08c379a00000000000000000000000000000000000000000000000000000000081526004018080602001828103825260238152602001807f7363686564756c6572206d75737420626520612077616c6c65742064656c656781526020017f617465000000000000000000000000000000000000000000000000000000000081525060400191505060405180910390fd5b600260008273ffffffffffffffffffffffffffffffffffffffff1673ffffffffffffffffffffffffffffffffffffffff16815260200190815260200160002073__AddressListLib________________________636c11a8a39091856040518363ffffffff167c0100000000000000000000000000000000000000000000000000000000028152600401808381526020018273ffffffffffffffffffffffffffffffffffffffff1673ffffffffffffffffffffffffffffffffffffffff1681526020019250505060206040518083038186803b1580156128f357600080fd5b505af4158015612907573d6000803e3d6000fd5b505050506040513d602081101561291d57600080fd5b8101908080519060200190929190505050915081156129a8578273ffffffffffffffffffffffffffffffffffffffff163373ffffffffffffffffffffffffffffffffffffffff168273ffffffffffffffffffffffffffffffffffffffff167f8a8b9b9f0d7621ac2e305c16bb0e3a588357ead602db12ff673dafee6ec0924d60405160405180910390a45b50919050565b6000808273ffffffffffffffffffffffffffffffffffffffff1663521eb2736040518163ffffffff167c010000000000000000000000000000000000000000000000000000000002815260040160206040518083038186803b158015612a1357600080fd5b505afa158015612a27573d6000803e3d6000fd5b505050506040513d6020811015612a3d57600080fd5b810190808051906020019092919050505090508073ffffffffffffffffffffffffffffffffffffffff166307779627306040518263ffffffff167c0100000000000000000000000000000000000000000000000000000000028152600401808273ffffffffffffffffffffffffffffffffffffffff1673ffffffffffffffffffffffffffffffffffffffff16815260200191505060206040518083038186803b158015612ae957600080fd5b505afa158015612afd573d6000803e3d6000fd5b505050506040513d6020811015612b1357600080fd5b81019080805190602001909291905050501515612b34576000915050612c27565b600473__AddressListLib________________________631a65cb959091336040518363ffffffff167c0100000000000000000000000000000000000000000000000000000000028152600401808381526020018273ffffffffffffffffffffffffffffffffffffffff1673ffffffffffffffffffffffffffffffffffffffff1681526020019250505060206040518083038186803b158015612bd657600080fd5b505af4158015612bea573d6000803e3d6000fd5b505050506040513d6020811015612c0057600080fd5b81019080805190602001909291905050501515612c21576000915050612c27565b60019150505b91905056fea165627a7a723058205577e2b3a9cbaac3ed3c80fe2d8b4f69825204194ca18b0bf97a7d7baeeef13c0029",
  "source": "pragma solidity ^0.5.0;\n\nimport \"./external/AddressListLib.sol\";\nimport \"./external/Owned.sol\";\nimport \"./Interfaces.sol\";\n\n/// @title PaymentDelegate Contract\n/// @author Joseph Reed\n/// @dev The PaymentDelegate acts as a hub for sending and recieving payments. The payment contract is responsible\n///      for registering any recipients it has.\ncontract BasePaymentDelegate is IPaymentDelegate {\n\n    using AddressListLib for AddressListLib.AddressList;      // Import the data structure AddressList from the AddressListLib contract\n\n    uint public blockCreated = block.number;    // The block the payment delegate was deployed\n\n    mapping (address => AddressListLib.AddressList) outgoingPaymentsFor;  // The list of outgoing payments per account\n    mapping (address => AddressListLib.AddressList) incomingPaymentsFor;  // The list of incoming payments per account\n\n    /// @notice Executes the payment associated with the address of 'msg.sender'\n    /// @param token The token to send for the payment\n    /// @param recipient The recipient of the specified amount of tokens\n    /// @param amount The amount of tokens to send to the recipient\n    /// @return True if the payment executed successfully\n    function transfer (address token, address payable recipient, uint amount) public returns (bool success) {\n        IPayment payment = IPayment(msg.sender);\n        IDelegatedWallet wallet = payment.wallet();\n        require(walletContainsPayment(address(wallet), payment), \"payment does not exist in the wallet payment list\");\n\n        success = wallet.transfer(token, recipient, amount);\n        emit Payment_event(wallet, payment, success);\n    }\n\n    /// @notice Schedules a payment. Only callable by a wallet delegate\n    /// @param payment The payment contract responsible for holding logic and data about the payment\n    function schedule (IPayment payment) public returns (bool success) {\n        IDelegatedWallet wallet = payment.wallet();\n        require(valid(payment), \"payment is not valid\");\n\n        success = outgoingPaymentsFor[address(wallet)].add(address(payment));\n        if(success)\n            emit Schedule_event(wallet, msg.sender, payment);\n    }\n\n    /// @notice Unschedules a payment. Only callable by a delegate of the wallet supplied with the payment\n    /// @param payment The payment contract responsible for holding logic and data about the payment\n    function unschedule (IPayment payment) public returns (bool success) {\n        IDelegatedWallet wallet = payment.wallet();\n        require(wallet.isDelegate(msg.sender), \"scheduler must be a wallet delegate\");\n        \n        success = outgoingPaymentsFor[address(wallet)].remove(address(payment));\n        if(success)\n            emit Unschedule_event(wallet, msg.sender, payment);\n    }\n\n    /// @notice Unschedules a payment. Only callable by the payment contract\n    function unschedule () public returns (bool success) {\n        IPayment payment = IPayment(msg.sender);\n        IDelegatedWallet wallet = payment.wallet();\n        success = outgoingPaymentsFor[address(wallet)].remove(address(payment));\n        if(success)\n            emit Unschedule_event(wallet, address(payment), payment);\n    }\n\n    function register (address recipient) public returns (bool success) {\n        IPayment payment = IPayment(msg.sender);\n        success = incomingPaymentsFor[recipient].add(address(payment));\n        if(success)\n            emit Register_event(payment, recipient);\n    }\n\n    function unregister (address recipient) public returns (bool success) {\n        IPayment payment = IPayment(msg.sender);\n        success = incomingPaymentsFor[recipient].remove(address(payment));\n        if(success)\n            emit Unregister_event(payment, recipient);\n    }\n\n    function clear (IPayment payment) public returns (bool success) {\n        address recipient = msg.sender;\n        success = incomingPaymentsFor[recipient].remove(address(payment));\n        if(success)\n            emit Clear_event(payment, recipient);\n    }\n    \n    /// @notice Fetches the incoming payments of a given recipient\n    /// @param recipient The account to search\n    /// @return The list of incoming payments associated with the 'recipient'\n    function getIncomingPayments (address recipient) public view returns (address[] memory) {\n        return incomingPaymentsFor[recipient].get();\n    }\n\n    /// @notice Fetches the outgoing payments of a given delegated wallet\n    /// @param wallet The delegated wallet for which we are fetching outgoing payment\n    /// @return The list of outgoing payments associated with the 'wallet'\n    function getOutgoingPayments (IDelegatedWallet wallet) public view returns (address[] memory) {\n        return outgoingPaymentsFor[address(wallet)].get();\n    }\n    \n    /// @notice Fetches the total number of incoming payments of a given recipient\n    /// @param recipient The account for which we are fetching the number of incoming payment\n    /// @return The number of incoming payments associated with the 'recipient'\n    function getTotalIncomingPayments (address recipient) public view returns (uint) {\n        return incomingPaymentsFor[recipient].getLength();\n    }\n    \n    /// @notice Fetches the total number of outgoing payments of a given delegated wallet\n    /// @param wallet The delegated wallet for which we are fetching the number of outgoing payment\n    /// @return The number of outgoing payments associated with the 'wallet'\n    function getTotalOutgoingPayments (IDelegatedWallet wallet) public view returns (uint) {\n        return outgoingPaymentsFor[address(wallet)].getLength();\n    }\n\n    /// @notice Fetches the incoming payments of a given recipient at a given index\n    /// @param recipient The account to search\n    /// @param i The index of the payment to fetch\n    /// @return The incoming payment at index 'i'\n    function getIncomingPaymentAtIndex (address recipient, uint i) public view returns (IPayment) {\n        return IPayment(incomingPaymentsFor[recipient].index(i));\n    }\n\n    /// @notice Fetches the outgoing payments of a given delegated wallet at a given index\n    /// @param wallet The account to search\n    /// @param i The index of the payment to fetch\n    /// @return The outgoing payment at index 'i'\n    function getOutgoingPaymentAtIndex (IDelegatedWallet wallet, uint i) public view returns (IPayment) {\n        return IPayment(outgoingPaymentsFor[address(wallet)].index(i));\n    }\n\n    /// @notice Indicated whether an account currently is associated with an incoming payment\n    /// @param recipient The account to search\n    /// @param payment The payment to check for\n    /// @return True if the given 'recipient' contains the given 'payment'\n    function recipientContainsPayment (address recipient, IPayment payment) public view returns (bool) {\n        return incomingPaymentsFor[recipient].contains(address(payment));\n    }\n\n    /// @notice Indicated whether an account currently is associated with an outgoing payment\n    /// @param wallet The account to search\n    /// @param payment The payment to check for\n    /// @return True if the given 'wallet' contains the given 'payment'\n    function walletContainsPayment (address wallet, IPayment payment)public view returns (bool) {\n        return outgoingPaymentsFor[wallet].contains(address(payment));\n    }\n\n    event Payment_event (IDelegatedWallet indexed wallet, IPayment indexed payment, bool success);\n    event Schedule_event (IDelegatedWallet indexed wallet, address indexed caller, IPayment indexed payment);\n    event Unschedule_event (IDelegatedWallet indexed wallet, address indexed caller, IPayment indexed payment);\n    event Register_event (IPayment indexed payment, address indexed recipient);\n    event Unregister_event (IPayment indexed payment, address indexed recipient);\n    event Clear_event(IPayment payment, address indexed recipient);\n\n}\n\ncontract DecentralizedPaymentDelegate is BasePaymentDelegate {\n\n\tfunction valid (IPayment payment) internal returns (bool) {\n\t\tIDelegatedWallet wallet = payment.wallet();\n        if(!wallet.isDelegate(address(this))) return false;\n        if(!wallet.isDelegate(msg.sender)) return false;\n\n        return true;\n\t}\n\n}\n\ncontract CentralizedPaymentDelegate is Owned, BasePaymentDelegate {\n\n\tAddressListLib.AddressList trustedSchedulers;\n\n    /// @notice todo\n    function valid (IPayment payment) internal returns (bool) {\n        IDelegatedWallet wallet = payment.wallet();\n        if(!wallet.isDelegate(address(this))) return false;\n        if(!trustedSchedulers.contains(msg.sender)) return false;\n\n        return true;\n    }\n\n    /// @notice Add a scheduler to the trusted scheduler list. Can only be called by the 'owner'\n    /// @param newScheduler the scheduler to add to the list\n\tfunction addScheduler (address newScheduler) public onlyOwner returns (bool success) {\n        success = trustedSchedulers.add(newScheduler);\n        if(success)\n        \temit AddScheduler_event(newScheduler);\n    }\n\n    /// @notice Remove a scheduler to the trusted scheduler list. Can only be called by the 'owner'\n    /// @param oldScheduler the scheduler to add to the list\n    function removeScheduler (address oldScheduler) public onlyOwner returns (bool success) {\n        success = trustedSchedulers.remove(oldScheduler);\n        if(success)\n        \temit RemoveScheduler_event(oldScheduler);\n    }\n\n    /// @notice Get the list of schedulers\n    /// @return The list of trusted schedulers\n    function getSchedulers () public view returns (address[] memory) {\n        return trustedSchedulers.get();\n    }\n\n    /// @notice Determine if a scheduler is trusted\n    /// @param scheduler the scheduler to check\n    /// @return True if the given 'scheduler' is trusted\n    function containsScheduler (address scheduler) public view returns (bool) {\n        return trustedSchedulers.contains(scheduler);\n    }\n\n    event AddScheduler_event(address scheduler);\n    event RemoveScheduler_event(address scheduler);\n\n}\n",
  "sourcePath": "/home/joe/Documents/github/everchain-project/recurring-transactions/contracts/PaymentDelegate.sol",
  "compiler": {
    "name": "solc",
    "version": "0.5.0+commit.1d4f565a.Emscripten.clang"
  },
  "schemaVersion": "3.0.1",
  "updatedAt": "2019-02-20T03:57:04.695Z",
  "devdoc": {
    "methods": {
      "addScheduler(address)": {
        "params": {
          "newScheduler": "the scheduler to add to the list"
        }
      },
      "containsScheduler(address)": {
        "params": {
          "scheduler": "the scheduler to check"
        },
        "return": "True if the given 'scheduler' is trusted"
      },
      "getIncomingPaymentAtIndex(address,uint256)": {
        "params": {
          "i": "The index of the payment to fetch",
          "recipient": "The account to search"
        },
        "return": "The incoming payment at index 'i'"
      },
      "getIncomingPayments(address)": {
        "params": {
          "recipient": "The account to search"
        },
        "return": "The list of incoming payments associated with the 'recipient'"
      },
      "getOutgoingPaymentAtIndex(address,uint256)": {
        "params": {
          "i": "The index of the payment to fetch",
          "wallet": "The account to search"
        },
        "return": "The outgoing payment at index 'i'"
      },
      "getOutgoingPayments(address)": {
        "params": {
          "wallet": "The delegated wallet for which we are fetching outgoing payment"
        },
        "return": "The list of outgoing payments associated with the 'wallet'"
      },
      "getSchedulers()": {
        "return": "The list of trusted schedulers"
      },
      "getTotalIncomingPayments(address)": {
        "params": {
          "recipient": "The account for which we are fetching the number of incoming payment"
        },
        "return": "The number of incoming payments associated with the 'recipient'"
      },
      "getTotalOutgoingPayments(address)": {
        "params": {
          "wallet": "The delegated wallet for which we are fetching the number of outgoing payment"
        },
        "return": "The number of outgoing payments associated with the 'wallet'"
      },
      "recipientContainsPayment(address,address)": {
        "params": {
          "payment": "The payment to check for",
          "recipient": "The account to search"
        },
        "return": "True if the given 'recipient' contains the given 'payment'"
      },
      "removeScheduler(address)": {
        "params": {
          "oldScheduler": "the scheduler to add to the list"
        }
      },
      "schedule(address)": {
        "params": {
          "payment": "The payment contract responsible for holding logic and data about the payment"
        }
      },
      "transfer(address,address,uint256)": {
        "params": {
          "amount": "The amount of tokens to send to the recipient",
          "recipient": "The recipient of the specified amount of tokens",
          "token": "The token to send for the payment"
        },
        "return": "True if the payment executed successfully"
      },
      "unschedule(address)": {
        "params": {
          "payment": "The payment contract responsible for holding logic and data about the payment"
        }
      },
      "walletContainsPayment(address,address)": {
        "params": {
          "payment": "The payment to check for",
          "wallet": "The account to search"
        },
        "return": "True if the given 'wallet' contains the given 'payment'"
      }
    }
  },
  "userdoc": {
    "methods": {
      "addScheduler(address)": {
        "notice": "Add a scheduler to the trusted scheduler list. Can only be called by the 'owner'"
      },
      "containsScheduler(address)": {
        "notice": "Determine if a scheduler is trusted"
      },
      "getIncomingPaymentAtIndex(address,uint256)": {
        "notice": "Fetches the incoming payments of a given recipient at a given index"
      },
      "getIncomingPayments(address)": {
        "notice": "Fetches the incoming payments of a given recipient"
      },
      "getOutgoingPaymentAtIndex(address,uint256)": {
        "notice": "Fetches the outgoing payments of a given delegated wallet at a given index"
      },
      "getOutgoingPayments(address)": {
        "notice": "Fetches the outgoing payments of a given delegated wallet"
      },
      "getSchedulers()": {
        "notice": "Get the list of schedulers"
      },
      "getTotalIncomingPayments(address)": {
        "notice": "Fetches the total number of incoming payments of a given recipient"
      },
      "getTotalOutgoingPayments(address)": {
        "notice": "Fetches the total number of outgoing payments of a given delegated wallet"
      },
      "recipientContainsPayment(address,address)": {
        "notice": "Indicated whether an account currently is associated with an incoming payment"
      },
      "removeScheduler(address)": {
        "notice": "Remove a scheduler to the trusted scheduler list. Can only be called by the 'owner'"
      },
      "schedule(address)": {
        "notice": "Schedules a payment. Only callable by a wallet delegate"
      },
      "transfer(address,address,uint256)": {
        "notice": "Executes the payment associated with the address of 'msg.sender'"
      },
      "unschedule()": {
        "notice": "Unschedules a payment. Only callable by the payment contract"
      },
      "unschedule(address)": {
        "notice": "Unschedules a payment. Only callable by a delegate of the wallet supplied with the payment"
      },
      "walletContainsPayment(address,address)": {
        "notice": "Indicated whether an account currently is associated with an outgoing payment"
      }
    }
  }
}