{
  "contractName": "DaiPriceFeed",
  "abi": [
    {
      "constant": true,
      "inputs": [],
      "name": "ethPerDai",
      "outputs": [
        {
          "name": "",
          "type": "address"
        }
      ],
      "payable": false,
      "stateMutability": "view",
      "type": "function"
    },
    {
      "constant": true,
      "inputs": [],
      "name": "read",
      "outputs": [
        {
          "name": "",
          "type": "uint256"
        }
      ],
      "payable": false,
      "stateMutability": "view",
      "type": "function"
    }
  ],
  "bytecode": "0x608060405234801561001057600080fd5b506101ed806100206000396000f3fe60806040526004361061004c576000357c0100000000000000000000000000000000000000000000000000000000900463ffffffff1680631690742b1461005157806357de26a4146100a8575b600080fd5b34801561005d57600080fd5b506100666100d3565b604051808273ffffffffffffffffffffffffffffffffffffffff1673ffffffffffffffffffffffffffffffffffffffff16815260200191505060405180910390f35b3480156100b457600080fd5b506100bd6100f8565b6040518082815260200191505060405180910390f35b6000809054906101000a900473ffffffffffffffffffffffffffffffffffffffff1681565b60008060009054906101000a900473ffffffffffffffffffffffffffffffffffffffff1673ffffffffffffffffffffffffffffffffffffffff166357de26a46040518163ffffffff167c010000000000000000000000000000000000000000000000000000000002815260040160206040518083038186803b15801561017d57600080fd5b505afa158015610191573d6000803e3d6000fd5b505050506040513d60208110156101a757600080fd5b81019080805190602001909291905050506001900490509056fea165627a7a7230582049bb69f430774ea93178c24f88c79bec1c27612d4bdf8ed92defbd7006e62c6c0029",
  "source": "pragma solidity ^0.5.0;\n\nimport \"../Interfaces.sol\";\n\ncontract DSValueInterface {\n    function read() public view returns (bytes32);\n}\n\ncontract DaiPriceFeed is IUintFeed {\n\n    DSValueInterface public ethPerDai;\n\n\tfunction read() public view returns (uint) {\n        return uint(ethPerDai.read());\n    }\n\n}\n",
  "sourcePath": "/home/joe/Documents/github/everchain-project/recurring-transactions/contracts/feeds/DaiPriceFeed.sol",
  "compiler": {
    "name": "solc",
    "version": "0.5.0+commit.1d4f565a.Emscripten.clang"
  },
  "schemaVersion": "3.0.9",
  "updatedAt": "2019-05-14T22:16:21.135Z",
  "devdoc": {
    "methods": {}
  },
  "userdoc": {
    "methods": {}
  }
}