{
  "contractName": "DelegatedWalletManager",
  "abi": [
    {
      "constant": true,
      "inputs": [],
      "name": "DefaultFactory",
      "outputs": [
        {
          "name": "",
          "type": "address"
        }
      ],
      "payable": false,
      "stateMutability": "view",
      "type": "function"
    },
    {
      "inputs": [
        {
          "name": "defaultFactory",
          "type": "address"
        }
      ],
      "payable": false,
      "stateMutability": "nonpayable",
      "type": "constructor"
    },
    {
      "anonymous": false,
      "inputs": [
        {
          "indexed": true,
          "name": "owner",
          "type": "address"
        },
        {
          "indexed": false,
          "name": "wallet",
          "type": "address"
        }
      ],
      "name": "AddWallet_event",
      "type": "event"
    },
    {
      "anonymous": false,
      "inputs": [
        {
          "indexed": true,
          "name": "owner",
          "type": "address"
        },
        {
          "indexed": false,
          "name": "wallet",
          "type": "address"
        }
      ],
      "name": "RemoveWallet_event",
      "type": "event"
    },
    {
      "constant": false,
      "inputs": [
        {
          "name": "customFactory",
          "type": "address"
        },
        {
          "name": "delegates",
          "type": "address[]"
        }
      ],
      "name": "addWallet",
      "outputs": [
        {
          "name": "success",
          "type": "bool"
        }
      ],
      "payable": false,
      "stateMutability": "nonpayable",
      "type": "function"
    },
    {
      "constant": false,
      "inputs": [
        {
          "name": "wallet",
          "type": "address"
        }
      ],
      "name": "addWallet",
      "outputs": [
        {
          "name": "success",
          "type": "bool"
        }
      ],
      "payable": false,
      "stateMutability": "nonpayable",
      "type": "function"
    },
    {
      "constant": false,
      "inputs": [
        {
          "name": "wallet",
          "type": "address"
        }
      ],
      "name": "removeWallet",
      "outputs": [
        {
          "name": "success",
          "type": "bool"
        }
      ],
      "payable": false,
      "stateMutability": "nonpayable",
      "type": "function"
    },
    {
      "constant": true,
      "inputs": [
        {
          "name": "account",
          "type": "address"
        }
      ],
      "name": "getWallets",
      "outputs": [
        {
          "name": "",
          "type": "address[]"
        }
      ],
      "payable": false,
      "stateMutability": "view",
      "type": "function"
    },
    {
      "constant": true,
      "inputs": [
        {
          "name": "account",
          "type": "address"
        }
      ],
      "name": "totalWallets",
      "outputs": [
        {
          "name": "",
          "type": "uint256"
        }
      ],
      "payable": false,
      "stateMutability": "view",
      "type": "function"
    },
    {
      "constant": true,
      "inputs": [
        {
          "name": "account",
          "type": "address"
        },
        {
          "name": "wallet",
          "type": "address"
        }
      ],
      "name": "contains",
      "outputs": [
        {
          "name": "",
          "type": "bool"
        }
      ],
      "payable": false,
      "stateMutability": "view",
      "type": "function"
    },
    {
      "constant": true,
      "inputs": [
        {
          "name": "account",
          "type": "address"
        },
        {
          "name": "i",
          "type": "uint256"
        }
      ],
      "name": "index",
      "outputs": [
        {
          "name": "",
          "type": "address"
        }
      ],
      "payable": false,
      "stateMutability": "view",
      "type": "function"
    },
    {
      "constant": true,
      "inputs": [
        {
          "name": "account",
          "type": "address"
        },
        {
          "name": "wallet",
          "type": "address"
        }
      ],
      "name": "indexOf",
      "outputs": [
        {
          "name": "",
          "type": "uint256"
        }
      ],
      "payable": false,
      "stateMutability": "view",
      "type": "function"
    }
  ],
  "bytecode": "0x608060405234801561001057600080fd5b506040516020806112b283398101806040528101908080519060200190929190505050806000806101000a81548173ffffffffffffffffffffffffffffffffffffffff021916908373ffffffffffffffffffffffffffffffffffffffff1602179055505061122f806100836000396000f300608060405260043610610099576000357c0100000000000000000000000000000000000000000000000000000000900463ffffffff16806328878fa21461009e57806333dccbbc146100f5578063422c29a41461014c57806359fc1a6e146101e4578063a75fe8e114610271578063c42ad811146102cc578063ed26cae81461036a578063efeb5f1f146103e5578063f95bd6f714610440575b600080fd5b3480156100aa57600080fd5b506100b36104b7565b604051808273ffffffffffffffffffffffffffffffffffffffff1673ffffffffffffffffffffffffffffffffffffffff16815260200191505060405180910390f35b34801561010157600080fd5b50610136600480360381019080803573ffffffffffffffffffffffffffffffffffffffff1690602001909291905050506104dc565b6040518082815260200191505060405180910390f35b34801561015857600080fd5b5061018d600480360381019080803573ffffffffffffffffffffffffffffffffffffffff1690602001909291905050506105cb565b6040518080602001828103825283818151815260200191508051906020019060200280838360005b838110156101d05780820151818401526020810190506101b5565b505050509050019250505060405180910390f35b3480156101f057600080fd5b5061022f600480360381019080803573ffffffffffffffffffffffffffffffffffffffff16906020019092919080359060200190929190505050610710565b604051808273ffffffffffffffffffffffffffffffffffffffff1673ffffffffffffffffffffffffffffffffffffffff16815260200191505060405180910390f35b34801561027d57600080fd5b506102b2600480360381019080803573ffffffffffffffffffffffffffffffffffffffff169060200190929190505050610808565b604051808215151515815260200191505060405180910390f35b3480156102d857600080fd5b50610350600480360381019080803573ffffffffffffffffffffffffffffffffffffffff169060200190929190803590602001908201803590602001908080602002602001604051908101604052809392919081815260200183836020028082843782019150505050505091929192905050506109ac565b604051808215151515815260200191505060405180910390f35b34801561037657600080fd5b506103cb600480360381019080803573ffffffffffffffffffffffffffffffffffffffff169060200190929190803573ffffffffffffffffffffffffffffffffffffffff169060200190929190505050610e17565b604051808215151515815260200191505060405180910390f35b3480156103f157600080fd5b50610426600480360381019080803573ffffffffffffffffffffffffffffffffffffffff169060200190929190505050610f3b565b604051808215151515815260200191505060405180910390f35b34801561044c57600080fd5b506104a1600480360381019080803573ffffffffffffffffffffffffffffffffffffffff169060200190929190803573ffffffffffffffffffffffffffffffffffffffff1690602001909291905050506110df565b6040518082815260200191505060405180910390f35b6000809054906101000a900473ffffffffffffffffffffffffffffffffffffffff1681565b6000600160008373ffffffffffffffffffffffffffffffffffffffff1673ffffffffffffffffffffffffffffffffffffffff16815260200190815260200160002073__ListLib_______________________________630faa9b9890916040518263ffffffff167c01000000000000000000000000000000000000000000000000000000000281526004018082815260200191505060206040518083038186803b15801561058957600080fd5b505af415801561059d573d6000803e3d6000fd5b505050506040513d60208110156105b357600080fd5b81019080805190602001909291905050509050919050565b6060600160008373ffffffffffffffffffffffffffffffffffffffff1673ffffffffffffffffffffffffffffffffffffffff16815260200190815260200160002073__ListLib_______________________________6357abf55690916040518263ffffffff167c01000000000000000000000000000000000000000000000000000000000281526004018082815260200191505060006040518083038186803b15801561067857600080fd5b505af415801561068c573d6000803e3d6000fd5b505050506040513d6000823e3d601f19601f8201168201806040525060208110156106b657600080fd5b8101908080516401000000008111156106ce57600080fd5b828101905060208101848111156106e457600080fd5b815185602082028301116401000000008211171561070157600080fd5b50509291905050509050919050565b6000600160008473ffffffffffffffffffffffffffffffffffffffff1673ffffffffffffffffffffffffffffffffffffffff16815260200190815260200160002073__ListLib_______________________________63a544c2139091846040518363ffffffff167c0100000000000000000000000000000000000000000000000000000000028152600401808381526020018281526020019250505060206040518083038186803b1580156107c557600080fd5b505af41580156107d9573d6000803e3d6000fd5b505050506040513d60208110156107ef57600080fd5b8101908080519060200190929190505050905092915050565b6000600160003373ffffffffffffffffffffffffffffffffffffffff1673ffffffffffffffffffffffffffffffffffffffff16815260200190815260200160002073__ListLib_______________________________63af9fe56b9091846040518363ffffffff167c0100000000000000000000000000000000000000000000000000000000028152600401808381526020018273ffffffffffffffffffffffffffffffffffffffff1673ffffffffffffffffffffffffffffffffffffffff1681526020019250505060206040518083038186803b1580156108e957600080fd5b505af41580156108fd573d6000803e3d6000fd5b505050506040513d602081101561091357600080fd5b8101908080519060200190929190505050905080156109a7573373ffffffffffffffffffffffffffffffffffffffff167fc271a19d5cf9958aaacae360c3870c2847dc24d02f03a6a2889a0fcfacf46e0683604051808273ffffffffffffffffffffffffffffffffffffffff1673ffffffffffffffffffffffffffffffffffffffff16815260200191505060405180910390a25b919050565b600080600080600073ffffffffffffffffffffffffffffffffffffffff168673ffffffffffffffffffffffffffffffffffffffff161415610a10576000809054906101000a900473ffffffffffffffffffffffffffffffffffffffff169250610a14565b8592505b8273ffffffffffffffffffffffffffffffffffffffff166311ebbf246040518163ffffffff167c0100000000000000000000000000000000000000000000000000000000028152600401602060405180830381600087803b158015610a7857600080fd5b505af1158015610a8c573d6000803e3d6000fd5b505050506040513d6020811015610aa257600080fd5b81019080805190602001909291905050509150600090505b8451811015610bbe578173ffffffffffffffffffffffffffffffffffffffff1663e71bdf418683815181101515610aed57fe5b906020019060200201516040518263ffffffff167c0100000000000000000000000000000000000000000000000000000000028152600401808273ffffffffffffffffffffffffffffffffffffffff1673ffffffffffffffffffffffffffffffffffffffff168152602001915050602060405180830381600087803b158015610b7557600080fd5b505af1158015610b89573d6000803e3d6000fd5b505050506040513d6020811015610b9f57600080fd5b8101908080519060200190929190505050508080600101915050610aba565b8173ffffffffffffffffffffffffffffffffffffffff1663f2fde38b336040518263ffffffff167c0100000000000000000000000000000000000000000000000000000000028152600401808273ffffffffffffffffffffffffffffffffffffffff1673ffffffffffffffffffffffffffffffffffffffff168152602001915050600060405180830381600087803b158015610c5957600080fd5b505af1158015610c6d573d6000803e3d6000fd5b50505050600160003373ffffffffffffffffffffffffffffffffffffffff1673ffffffffffffffffffffffffffffffffffffffff16815260200190815260200160002073__ListLib_______________________________63a45c62aa9091846040518363ffffffff167c0100000000000000000000000000000000000000000000000000000000028152600401808381526020018273ffffffffffffffffffffffffffffffffffffffff1673ffffffffffffffffffffffffffffffffffffffff1681526020019250505060206040518083038186803b158015610d5057600080fd5b505af4158015610d64573d6000803e3d6000fd5b505050506040513d6020811015610d7a57600080fd5b810190808051906020019092919050505093508315610e0e573373ffffffffffffffffffffffffffffffffffffffff167ff9fe8c8f6812279aad6b2f8051214c6a19512a6af9fe0a1a821c0e96b11c199583604051808273ffffffffffffffffffffffffffffffffffffffff1673ffffffffffffffffffffffffffffffffffffffff16815260200191505060405180910390a25b50505092915050565b6000600160008473ffffffffffffffffffffffffffffffffffffffff1673ffffffffffffffffffffffffffffffffffffffff16815260200190815260200160002073__ListLib_______________________________632b63aaef9091846040518363ffffffff167c0100000000000000000000000000000000000000000000000000000000028152600401808381526020018273ffffffffffffffffffffffffffffffffffffffff1673ffffffffffffffffffffffffffffffffffffffff1681526020019250505060206040518083038186803b158015610ef857600080fd5b505af4158015610f0c573d6000803e3d6000fd5b505050506040513d6020811015610f2257600080fd5b8101908080519060200190929190505050905092915050565b6000600160003373ffffffffffffffffffffffffffffffffffffffff1673ffffffffffffffffffffffffffffffffffffffff16815260200190815260200160002073__ListLib_______________________________63a45c62aa9091846040518363ffffffff167c0100000000000000000000000000000000000000000000000000000000028152600401808381526020018273ffffffffffffffffffffffffffffffffffffffff1673ffffffffffffffffffffffffffffffffffffffff1681526020019250505060206040518083038186803b15801561101c57600080fd5b505af4158015611030573d6000803e3d6000fd5b505050506040513d602081101561104657600080fd5b8101908080519060200190929190505050905080156110da573373ffffffffffffffffffffffffffffffffffffffff167ff9fe8c8f6812279aad6b2f8051214c6a19512a6af9fe0a1a821c0e96b11c199583604051808273ffffffffffffffffffffffffffffffffffffffff1673ffffffffffffffffffffffffffffffffffffffff16815260200191505060405180910390a25b919050565b6000600160008473ffffffffffffffffffffffffffffffffffffffff1673ffffffffffffffffffffffffffffffffffffffff16815260200190815260200160002073__ListLib_______________________________63170769759091846040518363ffffffff167c0100000000000000000000000000000000000000000000000000000000028152600401808381526020018273ffffffffffffffffffffffffffffffffffffffff1673ffffffffffffffffffffffffffffffffffffffff1681526020019250505060206040518083038186803b1580156111c057600080fd5b505af41580156111d4573d6000803e3d6000fd5b505050506040513d60208110156111ea57600080fd5b81019080805190602001909291905050509050929150505600a165627a7a723058201d61156cf3cd3699cd2ba237c0d51dac4337dff779b0d1b69e1c23e60458af6c0029",
  "source": "pragma solidity ^0.4.23;\r\n\r\nimport \"../../components/delegated-wallet/DelegatedWalletFactory.sol\";\r\n\r\ncontract DelegatedWalletManager {\r\n\r\n    using ListLib for ListLib.AddressList;\r\n\r\n    DelegatedWalletFactory public DefaultFactory;\r\n    mapping (address => ListLib.AddressList) wallets;\r\n\r\n    constructor (DelegatedWalletFactory defaultFactory) public {\r\n        DefaultFactory = defaultFactory;\r\n    }\r\n\r\n    function addWallet (DelegatedWallet wallet) public returns (bool success) {\r\n        success = wallets[msg.sender].add(wallet);\r\n        if(success)\r\n            emit AddWallet_event(msg.sender, wallet);\r\n    }\r\n\r\n    function addWallet (DelegatedWalletFactory customFactory, address[] delegates) public returns (bool success) {\r\n        DelegatedWalletFactory Factory;\r\n        if(customFactory == address(0x0))\r\n            Factory = DefaultFactory;\r\n        else\r\n            Factory = customFactory;\r\n            \r\n        DelegatedWallet wallet = Factory.createWallet();\r\n        for(uint i = 0; i < delegates.length; i++)\r\n            wallet.addDelegate(delegates[i]);\r\n        \r\n        wallet.transferOwnership(msg.sender);\r\n        success = wallets[msg.sender].add(wallet);\r\n        if(success)\r\n            emit AddWallet_event(msg.sender, wallet);\r\n    }\r\n\r\n    function removeWallet (DelegatedWallet wallet) public returns (bool success) {\r\n        success = wallets[msg.sender].remove(wallet);\r\n        if(success)\r\n            emit RemoveWallet_event(msg.sender, wallet);\r\n    }\r\n\r\n    function getWallets (address account) public view returns (address[]) {\r\n        return wallets[account].get();\r\n    }\r\n    \r\n    function totalWallets (address account) public view returns (uint) {\r\n        return wallets[account].getLength();\r\n    }\r\n    \r\n    function contains (address account, DelegatedWallet wallet) public view returns (bool) {\r\n        return wallets[account].contains(wallet);\r\n    }\r\n\r\n    function index (address account, uint i) public view returns (DelegatedWallet) {\r\n        return DelegatedWallet(wallets[account].index(i));\r\n    }\r\n\r\n    function indexOf (address account, DelegatedWallet wallet) public view returns (uint) {\r\n        return wallets[account].indexOf(wallet);\r\n    }\r\n\r\n    event AddWallet_event(address indexed owner, address wallet);\r\n    event RemoveWallet_event(address indexed owner, address wallet);\r\n\r\n}\r\n",
  "sourcePath": "C:\\Users\\My\\Documents\\GitHub\\everchain-project\\recurring-alarm-clock\\contracts\\components\\delegated-wallet\\DelegatedWalletManager.sol",
  "compiler": {
    "name": "solc",
    "version": "0.4.24+commit.e67f0147.Emscripten.clang"
  },
  "schemaVersion": "2.0.1",
  "updatedAt": "2018-10-23T07:02:04.683Z"
}