{
  "contractName": "DelegatedWalletFactory",
  "abi": [
    {
      "constant": true,
      "inputs": [],
      "name": "blockCreated",
      "outputs": [
        {
          "name": "",
          "type": "uint256"
        }
      ],
      "payable": false,
      "stateMutability": "view",
      "type": "function"
    },
    {
      "constant": true,
      "inputs": [],
      "name": "blueprint",
      "outputs": [
        {
          "name": "",
          "type": "address"
        }
      ],
      "payable": false,
      "stateMutability": "view",
      "type": "function"
    },
    {
      "inputs": [
        {
          "name": "_blueprint",
          "type": "address"
        }
      ],
      "payable": false,
      "stateMutability": "nonpayable",
      "type": "constructor"
    },
    {
      "anonymous": false,
      "inputs": [
        {
          "indexed": true,
          "name": "caller",
          "type": "address"
        },
        {
          "indexed": true,
          "name": "owner",
          "type": "address"
        },
        {
          "indexed": false,
          "name": "wallet",
          "type": "address"
        }
      ],
      "name": "CreateWallet_event",
      "type": "event"
    },
    {
      "anonymous": false,
      "inputs": [
        {
          "indexed": true,
          "name": "target",
          "type": "address"
        },
        {
          "indexed": false,
          "name": "clone",
          "type": "address"
        }
      ],
      "name": "CloneCreated",
      "type": "event"
    },
    {
      "constant": false,
      "inputs": [],
      "name": "createWallet",
      "outputs": [
        {
          "name": "wallet",
          "type": "address"
        }
      ],
      "payable": false,
      "stateMutability": "nonpayable",
      "type": "function"
    }
  ],
  "bytecode": "0x608060405234801561001057600080fd5b506040516020806104aa833981018060405281019080805190602001909291905050504360008190555080600160006101000a81548173ffffffffffffffffffffffffffffffffffffffff021916908373ffffffffffffffffffffffffffffffffffffffff1602179055505061041f8061008b6000396000f300608060405260043610610057576000357c0100000000000000000000000000000000000000000000000000000000900463ffffffff16806311ebbf241461005c5780634e989a4c146100b3578063c05efa15146100de575b600080fd5b34801561006857600080fd5b50610071610135565b604051808273ffffffffffffffffffffffffffffffffffffffff1673ffffffffffffffffffffffffffffffffffffffff16815260200191505060405180910390f35b3480156100bf57600080fd5b506100c86102ab565b6040518082815260200191505060405180910390f35b3480156100ea57600080fd5b506100f36102b1565b604051808273ffffffffffffffffffffffffffffffffffffffff1673ffffffffffffffffffffffffffffffffffffffff16815260200191505060405180910390f35b6000610162600160009054906101000a900473ffffffffffffffffffffffffffffffffffffffff166102d7565b90508073ffffffffffffffffffffffffffffffffffffffff1663c4d66de8336040518263ffffffff167c0100000000000000000000000000000000000000000000000000000000028152600401808273ffffffffffffffffffffffffffffffffffffffff1673ffffffffffffffffffffffffffffffffffffffff168152602001915050600060405180830381600087803b1580156101ff57600080fd5b505af1158015610213573d6000803e3d6000fd5b505050503373ffffffffffffffffffffffffffffffffffffffff163373ffffffffffffffffffffffffffffffffffffffff167fe78b8ef631cdb1c7eab040bf8895a32210784ff81663b7473dfcfa4f8bdadda983604051808273ffffffffffffffffffffffffffffffffffffffff1673ffffffffffffffffffffffffffffffffffffffff16815260200191505060405180910390a390565b60005481565b600160009054906101000a900473ffffffffffffffffffffffffffffffffffffffff1681565b60006060600080606060405190810160405280603f81526020017f600034603b57603080600f833981f36000368180378080368173bebebebebebe81526020017fbebebebebebebebebebebebebebe5af43d82803e15602c573d90f35b3d90fd008152509250846c01000000000000000000000000029150600090505b60148110156103dc57818160148110151561036b57fe5b1a7f0100000000000000000000000000000000000000000000000000000000000000028382601a0181518110151561039f57fe5b9060200101907effffffffffffffffffffffffffffffffffffffffffffffffffffffffffffff1916908160001a9053508080600101915050610354565b82516020840181816000f0955050505050509190505600a165627a7a72305820e216b08124439553ef51833d6eab6b4f3e5d2ab5b6d05ca9a8bd12ca537f7fb00029",
  "source": "pragma solidity ^0.4.23;\r\n\r\nimport \"../../external/CloneFactory.sol\";\r\nimport \"./DelegatedWallet.sol\";\r\n\r\ncontract DelegatedWalletFactory is CloneFactory {\r\n    \r\n    uint public blockCreated;\r\n\r\n    DelegatedWallet public blueprint;\r\n\r\n    constructor (DelegatedWallet _blueprint) public {\r\n        blockCreated = block.number;\r\n        blueprint = _blueprint;\r\n    }\r\n\r\n    function createWallet () public returns (DelegatedWallet wallet) {\r\n        wallet = DelegatedWallet(createClone(blueprint));\r\n        wallet.initialize(msg.sender);\r\n        \r\n        emit CreateWallet_event(msg.sender, msg.sender, wallet);\r\n    }\r\n    \r\n    event CreateWallet_event (address indexed caller, address indexed owner, address wallet);\r\n    \r\n}\r\n",
  "sourcePath": "C:\\Users\\My\\Documents\\GitHub\\everchain-project\\recurring-alarm-clock\\contracts\\components\\delegated-wallet\\DelegatedWalletFactory.sol",
  "compiler": {
    "name": "solc",
    "version": "0.4.24+commit.e67f0147.Emscripten.clang"
  },
  "schemaVersion": "2.0.1",
  "updatedAt": "2018-10-23T07:02:04.592Z"
}