{
  "contractName": "DelegatedWalletFactory",
  "abi": [
    {
      "constant": true,
      "inputs": [],
      "name": "blockCreated",
      "outputs": [
        {
          "name": "",
          "type": "uint256"
        }
      ],
      "payable": false,
      "stateMutability": "view",
      "type": "function"
    },
    {
      "constant": true,
      "inputs": [],
      "name": "blueprint",
      "outputs": [
        {
          "name": "",
          "type": "address"
        }
      ],
      "payable": false,
      "stateMutability": "view",
      "type": "function"
    },
    {
      "inputs": [
        {
          "name": "_blueprint",
          "type": "address"
        }
      ],
      "payable": false,
      "stateMutability": "nonpayable",
      "type": "constructor"
    },
    {
      "anonymous": false,
      "inputs": [
        {
          "indexed": true,
          "name": "caller",
          "type": "address"
        },
        {
          "indexed": true,
          "name": "owner",
          "type": "address"
        },
        {
          "indexed": false,
          "name": "wallet",
          "type": "address"
        }
      ],
      "name": "CreateWallet_event",
      "type": "event"
    },
    {
      "anonymous": false,
      "inputs": [
        {
          "indexed": true,
          "name": "target",
          "type": "address"
        },
        {
          "indexed": false,
          "name": "clone",
          "type": "address"
        }
      ],
      "name": "CloneCreated",
      "type": "event"
    },
    {
      "constant": false,
      "inputs": [],
      "name": "createWallet",
      "outputs": [
        {
          "name": "wallet",
          "type": "address"
        }
      ],
      "payable": false,
      "stateMutability": "nonpayable",
      "type": "function"
    },
    {
      "constant": false,
      "inputs": [
        {
          "name": "owner",
          "type": "address"
        },
        {
          "name": "delegateList",
          "type": "address[]"
        }
      ],
      "name": "createWallet",
      "outputs": [
        {
          "name": "wallet",
          "type": "address"
        }
      ],
      "payable": false,
      "stateMutability": "nonpayable",
      "type": "function"
    },
    {
      "constant": false,
      "inputs": [
        {
          "name": "delegateList",
          "type": "address[]"
        }
      ],
      "name": "createWallet",
      "outputs": [
        {
          "name": "wallet",
          "type": "address"
        }
      ],
      "payable": false,
      "stateMutability": "nonpayable",
      "type": "function"
    },
    {
      "constant": false,
      "inputs": [
        {
          "name": "owner",
          "type": "address"
        }
      ],
      "name": "createWallet",
      "outputs": [
        {
          "name": "wallet",
          "type": "address"
        }
      ],
      "payable": false,
      "stateMutability": "nonpayable",
      "type": "function"
    }
  ],
  "bytecode": "0x608060405234801561001057600080fd5b50604051602080610e9f833981018060405281019080805190602001909291905050504360008190555080600160006101000a81548173ffffffffffffffffffffffffffffffffffffffff021916908373ffffffffffffffffffffffffffffffffffffffff16021790555050610e148061008b6000396000f300608060405260043610610078576000357c0100000000000000000000000000000000000000000000000000000000900463ffffffff16806311ebbf241461007d5780631a244e7c146100d45780631cf89b4b1461019a5780634e989a4c14610240578063b054a9e81461026b578063c05efa15146102ee575b600080fd5b34801561008957600080fd5b50610092610345565b604051808273ffffffffffffffffffffffffffffffffffffffff1673ffffffffffffffffffffffffffffffffffffffff16815260200191505060405180910390f35b3480156100e057600080fd5b50610158600480360381019080803573ffffffffffffffffffffffffffffffffffffffff169060200190929190803590602001908201803590602001908080602002602001604051908101604052809392919081815260200183836020028082843782019150505050505091929192905050506104bb565b604051808273ffffffffffffffffffffffffffffffffffffffff1673ffffffffffffffffffffffffffffffffffffffff16815260200191505060405180910390f35b3480156101a657600080fd5b506101fe600480360381019080803590602001908201803590602001908080602002602001604051908101604052809392919081815260200183836020028082843782019150505050505091929192905050506107f2565b604051808273ffffffffffffffffffffffffffffffffffffffff1673ffffffffffffffffffffffffffffffffffffffff16815260200191505060405180910390f35b34801561024c57600080fd5b50610255610b28565b6040518082815260200191505060405180910390f35b34801561027757600080fd5b506102ac600480360381019080803573ffffffffffffffffffffffffffffffffffffffff169060200190929190505050610b2e565b604051808273ffffffffffffffffffffffffffffffffffffffff1673ffffffffffffffffffffffffffffffffffffffff16815260200191505060405180910390f35b3480156102fa57600080fd5b50610303610ca6565b604051808273ffffffffffffffffffffffffffffffffffffffff1673ffffffffffffffffffffffffffffffffffffffff16815260200191505060405180910390f35b6000610372600160009054906101000a900473ffffffffffffffffffffffffffffffffffffffff16610ccc565b90508073ffffffffffffffffffffffffffffffffffffffff1663c4d66de8336040518263ffffffff167c0100000000000000000000000000000000000000000000000000000000028152600401808273ffffffffffffffffffffffffffffffffffffffff1673ffffffffffffffffffffffffffffffffffffffff168152602001915050600060405180830381600087803b15801561040f57600080fd5b505af1158015610423573d6000803e3d6000fd5b505050503373ffffffffffffffffffffffffffffffffffffffff163373ffffffffffffffffffffffffffffffffffffffff167fe78b8ef631cdb1c7eab040bf8895a32210784ff81663b7473dfcfa4f8bdadda983604051808273ffffffffffffffffffffffffffffffffffffffff1673ffffffffffffffffffffffffffffffffffffffff16815260200191505060405180910390a390565b6000806104e9600160009054906101000a900473ffffffffffffffffffffffffffffffffffffffff16610ccc565b91508173ffffffffffffffffffffffffffffffffffffffff1663c4d66de8306040518263ffffffff167c0100000000000000000000000000000000000000000000000000000000028152600401808273ffffffffffffffffffffffffffffffffffffffff1673ffffffffffffffffffffffffffffffffffffffff168152602001915050600060405180830381600087803b15801561058657600080fd5b505af115801561059a573d6000803e3d6000fd5b50505050600090505b82518110156106a7578173ffffffffffffffffffffffffffffffffffffffff1663e71bdf4184838151811015156105d657fe5b906020019060200201516040518263ffffffff167c0100000000000000000000000000000000000000000000000000000000028152600401808273ffffffffffffffffffffffffffffffffffffffff1673ffffffffffffffffffffffffffffffffffffffff168152602001915050602060405180830381600087803b15801561065e57600080fd5b505af1158015610672573d6000803e3d6000fd5b505050506040513d602081101561068857600080fd5b81019080805190602001909291905050505080806001019150506105a3565b8173ffffffffffffffffffffffffffffffffffffffff1663f2fde38b856040518263ffffffff167c0100000000000000000000000000000000000000000000000000000000028152600401808273ffffffffffffffffffffffffffffffffffffffff1673ffffffffffffffffffffffffffffffffffffffff168152602001915050600060405180830381600087803b15801561074257600080fd5b505af1158015610756573d6000803e3d6000fd5b505050508373ffffffffffffffffffffffffffffffffffffffff163373ffffffffffffffffffffffffffffffffffffffff167fe78b8ef631cdb1c7eab040bf8895a32210784ff81663b7473dfcfa4f8bdadda984604051808273ffffffffffffffffffffffffffffffffffffffff1673ffffffffffffffffffffffffffffffffffffffff16815260200191505060405180910390a35092915050565b600080610820600160009054906101000a900473ffffffffffffffffffffffffffffffffffffffff16610ccc565b91508173ffffffffffffffffffffffffffffffffffffffff1663c4d66de8306040518263ffffffff167c0100000000000000000000000000000000000000000000000000000000028152600401808273ffffffffffffffffffffffffffffffffffffffff1673ffffffffffffffffffffffffffffffffffffffff168152602001915050600060405180830381600087803b1580156108bd57600080fd5b505af11580156108d1573d6000803e3d6000fd5b50505050600090505b82518110156109de578173ffffffffffffffffffffffffffffffffffffffff1663e71bdf41848381518110151561090d57fe5b906020019060200201516040518263ffffffff167c0100000000000000000000000000000000000000000000000000000000028152600401808273ffffffffffffffffffffffffffffffffffffffff1673ffffffffffffffffffffffffffffffffffffffff168152602001915050602060405180830381600087803b15801561099557600080fd5b505af11580156109a9573d6000803e3d6000fd5b505050506040513d60208110156109bf57600080fd5b81019080805190602001909291905050505080806001019150506108da565b8173ffffffffffffffffffffffffffffffffffffffff1663f2fde38b336040518263ffffffff167c0100000000000000000000000000000000000000000000000000000000028152600401808273ffffffffffffffffffffffffffffffffffffffff1673ffffffffffffffffffffffffffffffffffffffff168152602001915050600060405180830381600087803b158015610a7957600080fd5b505af1158015610a8d573d6000803e3d6000fd5b505050503373ffffffffffffffffffffffffffffffffffffffff163373ffffffffffffffffffffffffffffffffffffffff167fe78b8ef631cdb1c7eab040bf8895a32210784ff81663b7473dfcfa4f8bdadda984604051808273ffffffffffffffffffffffffffffffffffffffff1673ffffffffffffffffffffffffffffffffffffffff16815260200191505060405180910390a350919050565b60005481565b6000610b5b600160009054906101000a900473ffffffffffffffffffffffffffffffffffffffff16610ccc565b90508073ffffffffffffffffffffffffffffffffffffffff1663c4d66de8836040518263ffffffff167c0100000000000000000000000000000000000000000000000000000000028152600401808273ffffffffffffffffffffffffffffffffffffffff1673ffffffffffffffffffffffffffffffffffffffff168152602001915050600060405180830381600087803b158015610bf857600080fd5b505af1158015610c0c573d6000803e3d6000fd5b505050508173ffffffffffffffffffffffffffffffffffffffff163373ffffffffffffffffffffffffffffffffffffffff167fe78b8ef631cdb1c7eab040bf8895a32210784ff81663b7473dfcfa4f8bdadda983604051808273ffffffffffffffffffffffffffffffffffffffff1673ffffffffffffffffffffffffffffffffffffffff16815260200191505060405180910390a3919050565b600160009054906101000a900473ffffffffffffffffffffffffffffffffffffffff1681565b60006060600080606060405190810160405280603f81526020017f600034603b57603080600f833981f36000368180378080368173bebebebebebe81526020017fbebebebebebebebebebebebebebe5af43d82803e15602c573d90f35b3d90fd008152509250846c01000000000000000000000000029150600090505b6014811015610dd1578181601481101515610d6057fe5b1a7f0100000000000000000000000000000000000000000000000000000000000000028382601a01815181101515610d9457fe5b9060200101907effffffffffffffffffffffffffffffffffffffffffffffffffffffffffffff1916908160001a9053508080600101915050610d49565b82516020840181816000f0955050505050509190505600a165627a7a72305820c898ba6ee8e77b1ae309be5205d25b32cca06f4f3e6a7afa34cf31a3c4fb75320029",
  "source": "pragma solidity ^0.4.23;\r\n\r\nimport \"../../external/CloneFactory.sol\";\r\nimport \"./DelegatedWallet.sol\";\r\n\r\ncontract DelegatedWalletFactory is CloneFactory {\r\n    \r\n    uint public blockCreated;\r\n\r\n    DelegatedWallet public blueprint;\r\n\r\n    constructor (DelegatedWallet _blueprint) public {\r\n        blockCreated = block.number;\r\n        blueprint = _blueprint;\r\n    }\r\n\r\n    function createWallet () public returns (DelegatedWallet wallet) {\r\n        wallet = DelegatedWallet(createClone(blueprint));\r\n        wallet.initialize(msg.sender);\r\n        \r\n        emit CreateWallet_event(msg.sender, msg.sender, wallet);\r\n    }\r\n\r\n    function createWallet (address owner) public returns (DelegatedWallet wallet) {\r\n        wallet = DelegatedWallet(createClone(blueprint));\r\n        wallet.initialize(owner);\r\n        \r\n        emit CreateWallet_event(msg.sender, owner, wallet);\r\n    }\r\n\r\n    function createWallet (address[] delegateList) public returns (DelegatedWallet wallet) {\r\n        wallet = DelegatedWallet(createClone(blueprint));\r\n        wallet.initialize(this);\r\n\r\n        for(uint i = 0; i < delegateList.length; i++)\r\n            wallet.addDelegate(delegateList[i]);\r\n\r\n        wallet.transferOwnership(msg.sender);\r\n        \r\n        emit CreateWallet_event(msg.sender, msg.sender, wallet);\r\n    }\r\n\r\n    function createWallet (address owner, address[] delegateList) public returns (DelegatedWallet wallet) {\r\n        wallet = DelegatedWallet(createClone(blueprint));\r\n        wallet.initialize(this);\r\n        \r\n        for(uint i = 0; i < delegateList.length; i++)\r\n            wallet.addDelegate(delegateList[i]);\r\n        \r\n        wallet.transferOwnership(owner);\r\n        \r\n        emit CreateWallet_event(msg.sender, owner, wallet);\r\n    }\r\n    \r\n    event CreateWallet_event (address indexed caller, address indexed owner, address wallet);\r\n    \r\n}\r\n",
  "sourcePath": "C:\\Users\\My\\Documents\\GitHub\\everchain-project\\recurring-alarm-clock\\contracts\\components\\delegated-wallet\\DelegatedWalletFactory.sol",
  "compiler": {
    "name": "solc",
    "version": "0.4.24+commit.e67f0147.Emscripten.clang"
  },
  "schemaVersion": "2.0.1",
  "updatedAt": "2018-10-13T04:35:07.874Z"
}