{
  "contractName": "DelegatedWalletManager",
  "abi": [
    {
      "constant": true,
      "inputs": [],
      "name": "blockCreated",
      "outputs": [
        {
          "name": "",
          "type": "uint256"
        }
      ],
      "payable": false,
      "stateMutability": "view",
      "type": "function",
      "signature": "0x4e989a4c"
    },
    {
      "inputs": [],
      "payable": false,
      "stateMutability": "nonpayable",
      "type": "constructor",
      "signature": "constructor"
    },
    {
      "anonymous": false,
      "inputs": [
        {
          "indexed": false,
          "name": "owner",
          "type": "address"
        },
        {
          "indexed": false,
          "name": "wallet",
          "type": "address"
        }
      ],
      "name": "AddWallet_event",
      "type": "event",
      "signature": "0xf9fe8c8f6812279aad6b2f8051214c6a19512a6af9fe0a1a821c0e96b11c1995"
    },
    {
      "anonymous": false,
      "inputs": [
        {
          "indexed": false,
          "name": "owner",
          "type": "address"
        },
        {
          "indexed": false,
          "name": "wallet",
          "type": "address"
        }
      ],
      "name": "RemoveWallet_event",
      "type": "event",
      "signature": "0xc271a19d5cf9958aaacae360c3870c2847dc24d02f03a6a2889a0fcfacf46e06"
    },
    {
      "constant": false,
      "inputs": [
        {
          "name": "factory",
          "type": "address"
        },
        {
          "name": "delegates",
          "type": "address[]"
        }
      ],
      "name": "createWallet",
      "outputs": [
        {
          "name": "wallet",
          "type": "address"
        }
      ],
      "payable": true,
      "stateMutability": "payable",
      "type": "function",
      "signature": "0x1a244e7c"
    },
    {
      "constant": false,
      "inputs": [
        {
          "name": "wallet",
          "type": "address"
        }
      ],
      "name": "addWallet",
      "outputs": [
        {
          "name": "success",
          "type": "bool"
        }
      ],
      "payable": false,
      "stateMutability": "nonpayable",
      "type": "function",
      "signature": "0xefeb5f1f"
    },
    {
      "constant": false,
      "inputs": [
        {
          "name": "wallet",
          "type": "address"
        }
      ],
      "name": "removeWallet",
      "outputs": [
        {
          "name": "success",
          "type": "bool"
        }
      ],
      "payable": false,
      "stateMutability": "nonpayable",
      "type": "function",
      "signature": "0xa75fe8e1"
    },
    {
      "constant": true,
      "inputs": [
        {
          "name": "account",
          "type": "address"
        }
      ],
      "name": "getWallets",
      "outputs": [
        {
          "name": "",
          "type": "address[]"
        }
      ],
      "payable": false,
      "stateMutability": "view",
      "type": "function",
      "signature": "0x422c29a4"
    },
    {
      "constant": true,
      "inputs": [
        {
          "name": "account",
          "type": "address"
        }
      ],
      "name": "totalWallets",
      "outputs": [
        {
          "name": "",
          "type": "uint256"
        }
      ],
      "payable": false,
      "stateMutability": "view",
      "type": "function",
      "signature": "0x33dccbbc"
    },
    {
      "constant": true,
      "inputs": [
        {
          "name": "account",
          "type": "address"
        },
        {
          "name": "wallet",
          "type": "address"
        }
      ],
      "name": "contains",
      "outputs": [
        {
          "name": "",
          "type": "bool"
        }
      ],
      "payable": false,
      "stateMutability": "view",
      "type": "function",
      "signature": "0xed26cae8"
    },
    {
      "constant": true,
      "inputs": [
        {
          "name": "account",
          "type": "address"
        },
        {
          "name": "i",
          "type": "uint256"
        }
      ],
      "name": "index",
      "outputs": [
        {
          "name": "",
          "type": "address"
        }
      ],
      "payable": false,
      "stateMutability": "view",
      "type": "function",
      "signature": "0x59fc1a6e"
    },
    {
      "constant": true,
      "inputs": [
        {
          "name": "account",
          "type": "address"
        },
        {
          "name": "wallet",
          "type": "address"
        }
      ],
      "name": "indexOf",
      "outputs": [
        {
          "name": "",
          "type": "uint256"
        }
      ],
      "payable": false,
      "stateMutability": "view",
      "type": "function",
      "signature": "0xf95bd6f7"
    }
  ],
  "bytecode": "0x608060405234801561001057600080fd5b50436000819055506111a0806100276000396000f3fe608060405260043610610099576000357c0100000000000000000000000000000000000000000000000000000000900463ffffffff1680631a244e7c1461009e57806333dccbbc146101b6578063422c29a41461021b5780634e989a4c146102c157806359fc1a6e146102ec578063a75fe8e114610387578063ed26cae8146103f0578063efeb5f1f14610479578063f95bd6f7146104e2575b600080fd5b610174600480360360408110156100b457600080fd5b81019080803573ffffffffffffffffffffffffffffffffffffffff169060200190929190803590602001906401000000008111156100f157600080fd5b82018360208201111561010357600080fd5b8035906020019184602083028401116401000000008311171561012557600080fd5b919080806020026020016040519081016040528093929190818152602001838360200280828437600081840152601f19601f820116905080830192505050505050509192919290505050610567565b604051808273ffffffffffffffffffffffffffffffffffffffff1673ffffffffffffffffffffffffffffffffffffffff16815260200191505060405180910390f35b3480156101c257600080fd5b50610205600480360360208110156101d957600080fd5b81019080803573ffffffffffffffffffffffffffffffffffffffff16906020019092919050505061087f565b6040518082815260200191505060405180910390f35b34801561022757600080fd5b5061026a6004803603602081101561023e57600080fd5b81019080803573ffffffffffffffffffffffffffffffffffffffff16906020019092919050505061096e565b6040518080602001828103825283818151815260200191508051906020019060200280838360005b838110156102ad578082015181840152602081019050610292565b505050509050019250505060405180910390f35b3480156102cd57600080fd5b506102d6610ab3565b6040518082815260200191505060405180910390f35b3480156102f857600080fd5b506103456004803603604081101561030f57600080fd5b81019080803573ffffffffffffffffffffffffffffffffffffffff16906020019092919080359060200190929190505050610ab9565b604051808273ffffffffffffffffffffffffffffffffffffffff1673ffffffffffffffffffffffffffffffffffffffff16815260200191505060405180910390f35b34801561039357600080fd5b506103d6600480360360208110156103aa57600080fd5b81019080803573ffffffffffffffffffffffffffffffffffffffff169060200190929190505050610bb1565b604051808215151515815260200191505060405180910390f35b3480156103fc57600080fd5b5061045f6004803603604081101561041357600080fd5b81019080803573ffffffffffffffffffffffffffffffffffffffff169060200190929190803573ffffffffffffffffffffffffffffffffffffffff169060200190929190505050610d72565b604051808215151515815260200191505060405180910390f35b34801561048557600080fd5b506104c86004803603602081101561049c57600080fd5b81019080803573ffffffffffffffffffffffffffffffffffffffff169060200190929190505050610e96565b604051808215151515815260200191505060405180910390f35b3480156104ee57600080fd5b506105516004803603604081101561050557600080fd5b81019080803573ffffffffffffffffffffffffffffffffffffffff169060200190929190803573ffffffffffffffffffffffffffffffffffffffff169060200190929190505050611050565b6040518082815260200191505060405180910390f35b60008273ffffffffffffffffffffffffffffffffffffffff16631a244e7c3433856040518463ffffffff167c0100000000000000000000000000000000000000000000000000000000028152600401808373ffffffffffffffffffffffffffffffffffffffff1673ffffffffffffffffffffffffffffffffffffffff16815260200180602001828103825283818151815260200191508051906020019060200280838360005b8381101561062857808201518184015260208101905061060d565b5050505090500193505050506020604051808303818588803b15801561064d57600080fd5b505af1158015610661573d6000803e3d6000fd5b50505050506040513d602081101561067857600080fd5b81019080805190602001909291905050509050600073ffffffffffffffffffffffffffffffffffffffff168173ffffffffffffffffffffffffffffffffffffffff16141515156106c757600080fd5b600160003373ffffffffffffffffffffffffffffffffffffffff1673ffffffffffffffffffffffffffffffffffffffff16815260200190815260200160002073__ListLib_______________________________63a45c62aa9091836040518363ffffffff167c0100000000000000000000000000000000000000000000000000000000028152600401808381526020018273ffffffffffffffffffffffffffffffffffffffff1673ffffffffffffffffffffffffffffffffffffffff1681526020019250505060206040518083038186803b1580156107a657600080fd5b505af41580156107ba573d6000803e3d6000fd5b505050506040513d60208110156107d057600080fd5b8101908080519060200190929190505050507ff9fe8c8f6812279aad6b2f8051214c6a19512a6af9fe0a1a821c0e96b11c19953382604051808373ffffffffffffffffffffffffffffffffffffffff1673ffffffffffffffffffffffffffffffffffffffff1681526020018273ffffffffffffffffffffffffffffffffffffffff1673ffffffffffffffffffffffffffffffffffffffff1681526020019250505060405180910390a192915050565b6000600160008373ffffffffffffffffffffffffffffffffffffffff1673ffffffffffffffffffffffffffffffffffffffff16815260200190815260200160002073__ListLib_______________________________630faa9b9890916040518263ffffffff167c01000000000000000000000000000000000000000000000000000000000281526004018082815260200191505060206040518083038186803b15801561092c57600080fd5b505af4158015610940573d6000803e3d6000fd5b505050506040513d602081101561095657600080fd5b81019080805190602001909291905050509050919050565b6060600160008373ffffffffffffffffffffffffffffffffffffffff1673ffffffffffffffffffffffffffffffffffffffff16815260200190815260200160002073__ListLib_______________________________6357abf55690916040518263ffffffff167c01000000000000000000000000000000000000000000000000000000000281526004018082815260200191505060006040518083038186803b158015610a1b57600080fd5b505af4158015610a2f573d6000803e3d6000fd5b505050506040513d6000823e3d601f19601f820116820180604052506020811015610a5957600080fd5b810190808051640100000000811115610a7157600080fd5b82810190506020810184811115610a8757600080fd5b8151856020820283011164010000000082111715610aa457600080fd5b50509291905050509050919050565b60005481565b6000600160008473ffffffffffffffffffffffffffffffffffffffff1673ffffffffffffffffffffffffffffffffffffffff16815260200190815260200160002073__ListLib_______________________________63a544c2139091846040518363ffffffff167c0100000000000000000000000000000000000000000000000000000000028152600401808381526020018281526020019250505060206040518083038186803b158015610b6e57600080fd5b505af4158015610b82573d6000803e3d6000fd5b505050506040513d6020811015610b9857600080fd5b8101908080519060200190929190505050905092915050565b6000600160003373ffffffffffffffffffffffffffffffffffffffff1673ffffffffffffffffffffffffffffffffffffffff16815260200190815260200160002073__ListLib_______________________________63af9fe56b9091846040518363ffffffff167c0100000000000000000000000000000000000000000000000000000000028152600401808381526020018273ffffffffffffffffffffffffffffffffffffffff1673ffffffffffffffffffffffffffffffffffffffff1681526020019250505060206040518083038186803b158015610c9257600080fd5b505af4158015610ca6573d6000803e3d6000fd5b505050506040513d6020811015610cbc57600080fd5b810190808051906020019092919050505090508015610d6d577fc271a19d5cf9958aaacae360c3870c2847dc24d02f03a6a2889a0fcfacf46e063383604051808373ffffffffffffffffffffffffffffffffffffffff1673ffffffffffffffffffffffffffffffffffffffff1681526020018273ffffffffffffffffffffffffffffffffffffffff1673ffffffffffffffffffffffffffffffffffffffff1681526020019250505060405180910390a15b919050565b6000600160008473ffffffffffffffffffffffffffffffffffffffff1673ffffffffffffffffffffffffffffffffffffffff16815260200190815260200160002073__ListLib_______________________________632b63aaef9091846040518363ffffffff167c0100000000000000000000000000000000000000000000000000000000028152600401808381526020018273ffffffffffffffffffffffffffffffffffffffff1673ffffffffffffffffffffffffffffffffffffffff1681526020019250505060206040518083038186803b158015610e5357600080fd5b505af4158015610e67573d6000803e3d6000fd5b505050506040513d6020811015610e7d57600080fd5b8101908080519060200190929190505050905092915050565b6000600160003373ffffffffffffffffffffffffffffffffffffffff1673ffffffffffffffffffffffffffffffffffffffff16815260200190815260200160002073__ListLib_______________________________63a45c62aa9091846040518363ffffffff167c0100000000000000000000000000000000000000000000000000000000028152600401808381526020018273ffffffffffffffffffffffffffffffffffffffff1673ffffffffffffffffffffffffffffffffffffffff1681526020019250505060206040518083038186803b158015610f7757600080fd5b505af4158015610f8b573d6000803e3d6000fd5b505050506040513d6020811015610fa157600080fd5b810190808051906020019092919050505090507ff9fe8c8f6812279aad6b2f8051214c6a19512a6af9fe0a1a821c0e96b11c19953383604051808373ffffffffffffffffffffffffffffffffffffffff1673ffffffffffffffffffffffffffffffffffffffff1681526020018273ffffffffffffffffffffffffffffffffffffffff1673ffffffffffffffffffffffffffffffffffffffff1681526020019250505060405180910390a1919050565b6000600160008473ffffffffffffffffffffffffffffffffffffffff1673ffffffffffffffffffffffffffffffffffffffff16815260200190815260200160002073__ListLib_______________________________63170769759091846040518363ffffffff167c0100000000000000000000000000000000000000000000000000000000028152600401808381526020018273ffffffffffffffffffffffffffffffffffffffff1673ffffffffffffffffffffffffffffffffffffffff1681526020019250505060206040518083038186803b15801561113157600080fd5b505af4158015611145573d6000803e3d6000fd5b505050506040513d602081101561115b57600080fd5b810190808051906020019092919050505090509291505056fea165627a7a72305820751d25c03cdb3fab1cb72c1e4ebc937c33d21265cb4009e5fe14180911b565ca0029",
  "source": "pragma solidity ^0.5.0;\n\nimport \"./external/ListLib.sol\";\nimport \"./IDelegatedWallet.sol\";\n\n/// @title DelegatedWalletManager Contract\n/// @author Joseph Reed\n/// @dev This contract's goal is to make it easy for anyone to manage existing and new delagated wallets\ncontract DelegatedWalletManager {\n\n    using ListLib for ListLib.AddressList;              // Import the data structure AddressList from the ListLib contract\n\n    uint public blockCreated;                           // The block the factory was deployed\n    \n    mapping (address => ListLib.AddressList) wallets;   // The list of wallets added by each account\n    \n    /// @notice Constructor to create a DelegatedWalletManager\n    constructor () public {\n        blockCreated = block.number;\n    }\n\n    /// @notice Adds a wallet to the account list.\n    /// @param factory The delegated wallet is deployed from the provided 'factory'\n    /// @param delegates A list of predefined delegates to add to the wallet\n    /// @return True if the wallet was successfully created\n    function createWallet (IDelegatedWalletFactory factory, address[] memory delegates) public payable returns (IDelegatedWallet wallet) {\n        wallet = factory.createWallet.value(msg.value)(msg.sender, delegates);\n        require(address(wallet) != address(0x0));\n\n        wallets[msg.sender].add(address(wallet));        \n        emit AddWallet_event(msg.sender, address(wallet));\n    }\n\n    /// @notice Adds a wallet to the account list.\n    /// @param wallet The delegated wallet to add to the account list\n    /// @return True if the wallet was successfully added\n    function addWallet (IDelegatedWallet wallet) public returns (bool success) {\n        success = wallets[msg.sender].add(address(wallet));\n        emit AddWallet_event(msg.sender, address(wallet));\n    }\n\n    /// @notice Removes a wallet from the account list.\n    /// @param wallet The delegated wallet to remove from the account list\n    /// @return True if the wallet was successfully removed\n    function removeWallet (IDelegatedWallet wallet) public returns (bool success) {\n        success = wallets[msg.sender].remove(address(wallet));\n        if(success)\n            emit RemoveWallet_event(msg.sender, address(wallet));\n    }\n\n    /// @notice Fetches a wallet list from a given account.\n    /// @param account The given account from which to fetch the wallet list\n    /// @return an address array of wallets owned by 'account'\n    function getWallets (address account) public view returns (address[] memory) {\n        return wallets[account].get();\n    }\n    \n    /// @notice Fetches a how many wallets are in the list from a given account.\n    /// @param account The given account from which to fetch the wallet list\n    /// @return the total number of wallets\n    function totalWallets (address account) public view returns (uint) {\n        return wallets[account].getLength();\n    }\n    \n    /// @notice Shows if a wallet exists in the wallet list from a given account.\n    /// @param account The given account to check\n    /// @param wallet The given wallet to check for\n    /// @return True if the given wallet exists an accounts wallet list\n    function contains (address account, IDelegatedWallet wallet) public view returns (bool) {\n        return wallets[account].contains(address(wallet));\n    }\n\n    /// @notice Fetches the wallet at index 'i' from the 'account' wallet list\n    /// @param account The given account to check\n    /// @param i The index to check\n    /// @return The wallet address that exists at index 'i' in the 'account' wallet list\n    function index (address account, uint i) public view returns (IDelegatedWallet) {\n        return IDelegatedWallet(address(uint160(wallets[account].index(i))));\n    }\n\n    /// @notice Fetches the index of a given 'wallet' from a given 'account' wallet list\n    /// @param account The given account to check\n    /// @param wallet The given wallet to check\n    /// @return The current index of 'wallet' in 'account' wallet list\n    function indexOf (address account, IDelegatedWallet wallet) public view returns (uint) {\n        return wallets[account].indexOf(address(wallet));\n    }\n\n    event AddWallet_event(address owner, address wallet);\n    event RemoveWallet_event(address owner, address wallet);\n\n}\n",
  "sourcePath": "/home/joe/Documents/github/everchain-project/delegated-wallet/contracts/DelegatedWalletManager.sol",
  "compiler": {
    "name": "solc",
    "version": "0.5.0+commit.1d4f565a.Emscripten.clang"
  },
  "schemaVersion": "3.0.0",
  "updatedAt": "2019-01-07T03:32:21.493Z",
  "devdoc": {
    "author": "Joseph Reed",
    "details": "This contract's goal is to make it easy for anyone to manage existing and new delagated wallets",
    "methods": {
      "addWallet(address)": {
        "params": {
          "wallet": "The delegated wallet to add to the account list"
        },
        "return": "True if the wallet was successfully added"
      },
      "contains(address,address)": {
        "params": {
          "account": "The given account to check",
          "wallet": "The given wallet to check for"
        },
        "return": "True if the given wallet exists an accounts wallet list"
      },
      "createWallet(address,address[])": {
        "params": {
          "delegates": "A list of predefined delegates to add to the wallet",
          "factory": "The delegated wallet is deployed from the provided 'factory'"
        },
        "return": "True if the wallet was successfully created"
      },
      "getWallets(address)": {
        "params": {
          "account": "The given account from which to fetch the wallet list"
        },
        "return": "an address array of wallets owned by 'account'"
      },
      "index(address,uint256)": {
        "params": {
          "account": "The given account to check",
          "i": "The index to check"
        },
        "return": "The wallet address that exists at index 'i' in the 'account' wallet list"
      },
      "indexOf(address,address)": {
        "params": {
          "account": "The given account to check",
          "wallet": "The given wallet to check"
        },
        "return": "The current index of 'wallet' in 'account' wallet list"
      },
      "removeWallet(address)": {
        "params": {
          "wallet": "The delegated wallet to remove from the account list"
        },
        "return": "True if the wallet was successfully removed"
      },
      "totalWallets(address)": {
        "params": {
          "account": "The given account from which to fetch the wallet list"
        },
        "return": "the total number of wallets"
      }
    },
    "title": "DelegatedWalletManager Contract"
  },
  "userdoc": {
    "methods": {
      "addWallet(address)": {
        "notice": "Adds a wallet to the account list."
      },
      "constructor": "Constructor to create a DelegatedWalletManager",
      "contains(address,address)": {
        "notice": "Shows if a wallet exists in the wallet list from a given account."
      },
      "createWallet(address,address[])": {
        "notice": "Adds a wallet to the account list."
      },
      "getWallets(address)": {
        "notice": "Fetches a wallet list from a given account."
      },
      "index(address,uint256)": {
        "notice": "Fetches the wallet at index 'i' from the 'account' wallet list"
      },
      "indexOf(address,address)": {
        "notice": "Fetches the index of a given 'wallet' from a given 'account' wallet list"
      },
      "removeWallet(address)": {
        "notice": "Removes a wallet from the account list."
      },
      "totalWallets(address)": {
        "notice": "Fetches a how many wallets are in the list from a given account."
      }
    }
  }
}