{
  "contractName": "DelegatedWalletManager",
  "abi": [
    {
      "constant": true,
      "inputs": [],
      "name": "DefaultFactory",
      "outputs": [
        {
          "name": "",
          "type": "address"
        }
      ],
      "payable": false,
      "stateMutability": "view",
      "type": "function"
    },
    {
      "inputs": [
        {
          "name": "defaultFactory",
          "type": "address"
        }
      ],
      "payable": false,
      "stateMutability": "nonpayable",
      "type": "constructor"
    },
    {
      "anonymous": false,
      "inputs": [
        {
          "indexed": true,
          "name": "owner",
          "type": "address"
        },
        {
          "indexed": false,
          "name": "wallet",
          "type": "address"
        }
      ],
      "name": "AddWallet_event",
      "type": "event"
    },
    {
      "anonymous": false,
      "inputs": [
        {
          "indexed": true,
          "name": "owner",
          "type": "address"
        },
        {
          "indexed": false,
          "name": "wallet",
          "type": "address"
        }
      ],
      "name": "RemoveWallet_event",
      "type": "event"
    },
    {
      "constant": false,
      "inputs": [
        {
          "name": "delegates",
          "type": "address[]"
        }
      ],
      "name": "addWallet",
      "outputs": [
        {
          "name": "success",
          "type": "bool"
        }
      ],
      "payable": false,
      "stateMutability": "nonpayable",
      "type": "function"
    },
    {
      "constant": false,
      "inputs": [
        {
          "name": "CustomFactory",
          "type": "address"
        },
        {
          "name": "delegates",
          "type": "address[]"
        }
      ],
      "name": "addWallet",
      "outputs": [
        {
          "name": "success",
          "type": "bool"
        }
      ],
      "payable": false,
      "stateMutability": "nonpayable",
      "type": "function"
    },
    {
      "constant": false,
      "inputs": [
        {
          "name": "wallet",
          "type": "address"
        }
      ],
      "name": "addWallet",
      "outputs": [
        {
          "name": "success",
          "type": "bool"
        }
      ],
      "payable": false,
      "stateMutability": "nonpayable",
      "type": "function"
    },
    {
      "constant": false,
      "inputs": [
        {
          "name": "wallet",
          "type": "address"
        }
      ],
      "name": "removeWallet",
      "outputs": [
        {
          "name": "success",
          "type": "bool"
        }
      ],
      "payable": false,
      "stateMutability": "nonpayable",
      "type": "function"
    },
    {
      "constant": true,
      "inputs": [
        {
          "name": "account",
          "type": "address"
        }
      ],
      "name": "getWallets",
      "outputs": [
        {
          "name": "",
          "type": "address[]"
        }
      ],
      "payable": false,
      "stateMutability": "view",
      "type": "function"
    },
    {
      "constant": true,
      "inputs": [
        {
          "name": "account",
          "type": "address"
        }
      ],
      "name": "totalWallets",
      "outputs": [
        {
          "name": "",
          "type": "uint256"
        }
      ],
      "payable": false,
      "stateMutability": "view",
      "type": "function"
    },
    {
      "constant": true,
      "inputs": [
        {
          "name": "account",
          "type": "address"
        },
        {
          "name": "wallet",
          "type": "address"
        }
      ],
      "name": "contains",
      "outputs": [
        {
          "name": "",
          "type": "bool"
        }
      ],
      "payable": false,
      "stateMutability": "view",
      "type": "function"
    },
    {
      "constant": true,
      "inputs": [
        {
          "name": "account",
          "type": "address"
        },
        {
          "name": "i",
          "type": "uint256"
        }
      ],
      "name": "index",
      "outputs": [
        {
          "name": "",
          "type": "address"
        }
      ],
      "payable": false,
      "stateMutability": "view",
      "type": "function"
    },
    {
      "constant": true,
      "inputs": [
        {
          "name": "account",
          "type": "address"
        },
        {
          "name": "wallet",
          "type": "address"
        }
      ],
      "name": "indexOf",
      "outputs": [
        {
          "name": "",
          "type": "uint256"
        }
      ],
      "payable": false,
      "stateMutability": "view",
      "type": "function"
    }
  ],
  "bytecode": "0x608060405234801561001057600080fd5b5060405160208061148083398101806040528101908080519060200190929190505050806000806101000a81548173ffffffffffffffffffffffffffffffffffffffff021916908373ffffffffffffffffffffffffffffffffffffffff160217905550506113fd806100836000396000f3006080604052600436106100a4576000357c0100000000000000000000000000000000000000000000000000000000900463ffffffff16806328878fa2146100a957806333dccbbc146101005780633f3a999f14610157578063422c29a4146101d557806359fc1a6e1461026d578063a75fe8e1146102fa578063c42ad81114610355578063ed26cae8146103f3578063efeb5f1f1461046e578063f95bd6f7146104c9575b600080fd5b3480156100b557600080fd5b506100be610540565b604051808273ffffffffffffffffffffffffffffffffffffffff1673ffffffffffffffffffffffffffffffffffffffff16815260200191505060405180910390f35b34801561010c57600080fd5b50610141600480360381019080803573ffffffffffffffffffffffffffffffffffffffff169060200190929190505050610565565b6040518082815260200191505060405180910390f35b34801561016357600080fd5b506101bb60048036038101908080359060200190820180359060200190808060200260200160405190810160405280939291908181526020018383602002808284378201915050505050509192919290505050610654565b604051808215151515815260200191505060405180910390f35b3480156101e157600080fd5b50610216600480360381019080803573ffffffffffffffffffffffffffffffffffffffff16906020019092919050505061093c565b6040518080602001828103825283818151815260200191508051906020019060200280838360005b8381101561025957808201518184015260208101905061023e565b505050509050019250505060405180910390f35b34801561027957600080fd5b506102b8600480360381019080803573ffffffffffffffffffffffffffffffffffffffff16906020019092919080359060200190929190505050610a81565b604051808273ffffffffffffffffffffffffffffffffffffffff1673ffffffffffffffffffffffffffffffffffffffff16815260200191505060405180910390f35b34801561030657600080fd5b5061033b600480360381019080803573ffffffffffffffffffffffffffffffffffffffff169060200190929190505050610b79565b604051808215151515815260200191505060405180910390f35b34801561036157600080fd5b506103d9600480360381019080803573ffffffffffffffffffffffffffffffffffffffff16906020019092919080359060200190820180359060200190808060200260200160405190810160405280939291908181526020018383602002808284378201915050505050509192919290505050610d1d565b604051808215151515815260200191505060405180910390f35b3480156103ff57600080fd5b50610454600480360381019080803573ffffffffffffffffffffffffffffffffffffffff169060200190929190803573ffffffffffffffffffffffffffffffffffffffff169060200190929190505050610fe5565b604051808215151515815260200191505060405180910390f35b34801561047a57600080fd5b506104af600480360381019080803573ffffffffffffffffffffffffffffffffffffffff169060200190929190505050611109565b604051808215151515815260200191505060405180910390f35b3480156104d557600080fd5b5061052a600480360381019080803573ffffffffffffffffffffffffffffffffffffffff169060200190929190803573ffffffffffffffffffffffffffffffffffffffff1690602001909291905050506112ad565b6040518082815260200191505060405180910390f35b6000809054906101000a900473ffffffffffffffffffffffffffffffffffffffff1681565b6000600160008373ffffffffffffffffffffffffffffffffffffffff1673ffffffffffffffffffffffffffffffffffffffff16815260200190815260200160002073__ListLib_______________________________630faa9b9890916040518263ffffffff167c01000000000000000000000000000000000000000000000000000000000281526004018082815260200191505060206040518083038186803b15801561061257600080fd5b505af4158015610626573d6000803e3d6000fd5b505050506040513d602081101561063c57600080fd5b81019080805190602001909291905050509050919050565b6000806000809054906101000a900473ffffffffffffffffffffffffffffffffffffffff1673ffffffffffffffffffffffffffffffffffffffff16631a244e7c33856040518363ffffffff167c0100000000000000000000000000000000000000000000000000000000028152600401808373ffffffffffffffffffffffffffffffffffffffff1673ffffffffffffffffffffffffffffffffffffffff16815260200180602001828103825283818151815260200191508051906020019060200280838360005b8381101561073657808201518184015260208101905061071b565b505050509050019350505050602060405180830381600087803b15801561075c57600080fd5b505af1158015610770573d6000803e3d6000fd5b505050506040513d602081101561078657600080fd5b81019080805190602001909291905050509050600160003373ffffffffffffffffffffffffffffffffffffffff1673ffffffffffffffffffffffffffffffffffffffff16815260200190815260200160002073__ListLib_______________________________63a45c62aa9091836040518363ffffffff167c0100000000000000000000000000000000000000000000000000000000028152600401808381526020018273ffffffffffffffffffffffffffffffffffffffff1673ffffffffffffffffffffffffffffffffffffffff1681526020019250505060206040518083038186803b15801561087857600080fd5b505af415801561088c573d6000803e3d6000fd5b505050506040513d60208110156108a257600080fd5b810190808051906020019092919050505091508115610936573373ffffffffffffffffffffffffffffffffffffffff167ff9fe8c8f6812279aad6b2f8051214c6a19512a6af9fe0a1a821c0e96b11c199582604051808273ffffffffffffffffffffffffffffffffffffffff1673ffffffffffffffffffffffffffffffffffffffff16815260200191505060405180910390a25b50919050565b6060600160008373ffffffffffffffffffffffffffffffffffffffff1673ffffffffffffffffffffffffffffffffffffffff16815260200190815260200160002073__ListLib_______________________________6357abf55690916040518263ffffffff167c01000000000000000000000000000000000000000000000000000000000281526004018082815260200191505060006040518083038186803b1580156109e957600080fd5b505af41580156109fd573d6000803e3d6000fd5b505050506040513d6000823e3d601f19601f820116820180604052506020811015610a2757600080fd5b810190808051640100000000811115610a3f57600080fd5b82810190506020810184811115610a5557600080fd5b8151856020820283011164010000000082111715610a7257600080fd5b50509291905050509050919050565b6000600160008473ffffffffffffffffffffffffffffffffffffffff1673ffffffffffffffffffffffffffffffffffffffff16815260200190815260200160002073__ListLib_______________________________63a544c2139091846040518363ffffffff167c0100000000000000000000000000000000000000000000000000000000028152600401808381526020018281526020019250505060206040518083038186803b158015610b3657600080fd5b505af4158015610b4a573d6000803e3d6000fd5b505050506040513d6020811015610b6057600080fd5b8101908080519060200190929190505050905092915050565b6000600160003373ffffffffffffffffffffffffffffffffffffffff1673ffffffffffffffffffffffffffffffffffffffff16815260200190815260200160002073__ListLib_______________________________63af9fe56b9091846040518363ffffffff167c0100000000000000000000000000000000000000000000000000000000028152600401808381526020018273ffffffffffffffffffffffffffffffffffffffff1673ffffffffffffffffffffffffffffffffffffffff1681526020019250505060206040518083038186803b158015610c5a57600080fd5b505af4158015610c6e573d6000803e3d6000fd5b505050506040513d6020811015610c8457600080fd5b810190808051906020019092919050505090508015610d18573373ffffffffffffffffffffffffffffffffffffffff167fc271a19d5cf9958aaacae360c3870c2847dc24d02f03a6a2889a0fcfacf46e0683604051808273ffffffffffffffffffffffffffffffffffffffff1673ffffffffffffffffffffffffffffffffffffffff16815260200191505060405180910390a25b919050565b6000808373ffffffffffffffffffffffffffffffffffffffff16631a244e7c33856040518363ffffffff167c0100000000000000000000000000000000000000000000000000000000028152600401808373ffffffffffffffffffffffffffffffffffffffff1673ffffffffffffffffffffffffffffffffffffffff16815260200180602001828103825283818151815260200191508051906020019060200280838360005b83811015610dde578082015181840152602081019050610dc3565b505050509050019350505050602060405180830381600087803b158015610e0457600080fd5b505af1158015610e18573d6000803e3d6000fd5b505050506040513d6020811015610e2e57600080fd5b81019080805190602001909291905050509050600160003373ffffffffffffffffffffffffffffffffffffffff1673ffffffffffffffffffffffffffffffffffffffff16815260200190815260200160002073__ListLib_______________________________63a45c62aa9091836040518363ffffffff167c0100000000000000000000000000000000000000000000000000000000028152600401808381526020018273ffffffffffffffffffffffffffffffffffffffff1673ffffffffffffffffffffffffffffffffffffffff1681526020019250505060206040518083038186803b158015610f2057600080fd5b505af4158015610f34573d6000803e3d6000fd5b505050506040513d6020811015610f4a57600080fd5b810190808051906020019092919050505091508115610fde573373ffffffffffffffffffffffffffffffffffffffff167ff9fe8c8f6812279aad6b2f8051214c6a19512a6af9fe0a1a821c0e96b11c199582604051808273ffffffffffffffffffffffffffffffffffffffff1673ffffffffffffffffffffffffffffffffffffffff16815260200191505060405180910390a25b5092915050565b6000600160008473ffffffffffffffffffffffffffffffffffffffff1673ffffffffffffffffffffffffffffffffffffffff16815260200190815260200160002073__ListLib_______________________________632b63aaef9091846040518363ffffffff167c0100000000000000000000000000000000000000000000000000000000028152600401808381526020018273ffffffffffffffffffffffffffffffffffffffff1673ffffffffffffffffffffffffffffffffffffffff1681526020019250505060206040518083038186803b1580156110c657600080fd5b505af41580156110da573d6000803e3d6000fd5b505050506040513d60208110156110f057600080fd5b8101908080519060200190929190505050905092915050565b6000600160003373ffffffffffffffffffffffffffffffffffffffff1673ffffffffffffffffffffffffffffffffffffffff16815260200190815260200160002073__ListLib_______________________________63a45c62aa9091846040518363ffffffff167c0100000000000000000000000000000000000000000000000000000000028152600401808381526020018273ffffffffffffffffffffffffffffffffffffffff1673ffffffffffffffffffffffffffffffffffffffff1681526020019250505060206040518083038186803b1580156111ea57600080fd5b505af41580156111fe573d6000803e3d6000fd5b505050506040513d602081101561121457600080fd5b8101908080519060200190929190505050905080156112a8573373ffffffffffffffffffffffffffffffffffffffff167ff9fe8c8f6812279aad6b2f8051214c6a19512a6af9fe0a1a821c0e96b11c199583604051808273ffffffffffffffffffffffffffffffffffffffff1673ffffffffffffffffffffffffffffffffffffffff16815260200191505060405180910390a25b919050565b6000600160008473ffffffffffffffffffffffffffffffffffffffff1673ffffffffffffffffffffffffffffffffffffffff16815260200190815260200160002073__ListLib_______________________________63170769759091846040518363ffffffff167c0100000000000000000000000000000000000000000000000000000000028152600401808381526020018273ffffffffffffffffffffffffffffffffffffffff1673ffffffffffffffffffffffffffffffffffffffff1681526020019250505060206040518083038186803b15801561138e57600080fd5b505af41580156113a2573d6000803e3d6000fd5b505050506040513d60208110156113b857600080fd5b81019080805190602001909291905050509050929150505600a165627a7a723058203e497eb090cfcde82e04bd19d40a2d7d3537ce8ec13bce505d0a008b42fbcc260029",
  "source": "pragma solidity ^0.4.23;\r\n\r\nimport \"../../components/delegated-wallet/DelegatedWalletFactory.sol\";\r\n\r\ncontract DelegatedWalletManager {\r\n\r\n    using ListLib for ListLib.AddressList;\r\n\r\n    DelegatedWalletFactory public DefaultFactory;\r\n    mapping (address => ListLib.AddressList) wallets;\r\n\r\n    constructor (DelegatedWalletFactory defaultFactory) public {\r\n        DefaultFactory = defaultFactory;\r\n    }\r\n\r\n    function addWallet (IDelegatedWallet wallet) public returns (bool success) {\r\n        success = wallets[msg.sender].add(wallet);\r\n        if(success)\r\n            emit AddWallet_event(msg.sender, wallet);\r\n    }\r\n\r\n    function addWallet (address[] delegates) public returns (bool success) {\r\n        IDelegatedWallet wallet = DefaultFactory.createWallet(msg.sender, delegates);\r\n        success = wallets[msg.sender].add(wallet);\r\n        if(success)\r\n            emit AddWallet_event(msg.sender, wallet);\r\n    }\r\n\r\n    function addWallet (DelegatedWalletFactory CustomFactory, address[] delegates) public returns (bool success) {\r\n        IDelegatedWallet wallet = CustomFactory.createWallet(msg.sender, delegates);\r\n        success = wallets[msg.sender].add(wallet);\r\n        if(success)\r\n            emit AddWallet_event(msg.sender, wallet);\r\n    }\r\n\r\n    function removeWallet (IDelegatedWallet wallet) public returns (bool success) {\r\n        success = wallets[msg.sender].remove(wallet);\r\n        if(success)\r\n            emit RemoveWallet_event(msg.sender, wallet);\r\n    }\r\n\r\n    function getWallets (address account) public view returns (address[]) {\r\n        return wallets[account].get();\r\n    }\r\n    \r\n    function totalWallets (address account) public view returns (uint) {\r\n        return wallets[account].getLength();\r\n    }\r\n    \r\n    function contains (address account, IDelegatedWallet wallet) public view returns (bool) {\r\n        return wallets[account].contains(wallet);\r\n    }\r\n\r\n    function index (address account, uint i) public view returns (IDelegatedWallet) {\r\n        return IDelegatedWallet(wallets[account].index(i));\r\n    }\r\n\r\n    function indexOf (address account, IDelegatedWallet wallet) public view returns (uint) {\r\n        return wallets[account].indexOf(wallet);\r\n    }\r\n\r\n    event AddWallet_event(address indexed owner, address wallet);\r\n    event RemoveWallet_event(address indexed owner, address wallet);\r\n\r\n}\r\n",
  "sourcePath": "C:\\Users\\My\\Documents\\GitHub\\everchain-project\\recurring-alarm-clock\\contracts\\components\\delegated-wallet\\DelegatedWalletManager.sol",
  "compiler": {
    "name": "solc",
    "version": "0.4.24+commit.e67f0147.Emscripten.clang"
  },
  "schemaVersion": "2.0.1",
  "updatedAt": "2018-10-13T04:35:07.876Z"
}