{
  "contractName": "DelegatedWalletFactory",
  "abi": [
    {
      "constant": true,
      "inputs": [],
      "name": "blockCreated",
      "outputs": [
        {
          "name": "",
          "type": "uint256"
        }
      ],
      "payable": false,
      "stateMutability": "view",
      "type": "function"
    },
    {
      "constant": true,
      "inputs": [],
      "name": "ListFactory",
      "outputs": [
        {
          "name": "",
          "type": "address"
        }
      ],
      "payable": false,
      "stateMutability": "view",
      "type": "function"
    },
    {
      "constant": true,
      "inputs": [],
      "name": "blueprint",
      "outputs": [
        {
          "name": "",
          "type": "address"
        }
      ],
      "payable": false,
      "stateMutability": "view",
      "type": "function"
    },
    {
      "inputs": [
        {
          "name": "_blueprint",
          "type": "address"
        },
        {
          "name": "listFactory",
          "type": "address"
        }
      ],
      "payable": false,
      "stateMutability": "nonpayable",
      "type": "constructor"
    },
    {
      "anonymous": false,
      "inputs": [
        {
          "indexed": true,
          "name": "caller",
          "type": "address"
        },
        {
          "indexed": true,
          "name": "owner",
          "type": "address"
        },
        {
          "indexed": false,
          "name": "walletAddress",
          "type": "address"
        }
      ],
      "name": "CreateWallet_event",
      "type": "event"
    },
    {
      "anonymous": false,
      "inputs": [
        {
          "indexed": true,
          "name": "target",
          "type": "address"
        },
        {
          "indexed": false,
          "name": "clone",
          "type": "address"
        }
      ],
      "name": "CloneCreated",
      "type": "event"
    },
    {
      "constant": false,
      "inputs": [
        {
          "name": "owner",
          "type": "address"
        },
        {
          "name": "delegateList",
          "type": "address[]"
        }
      ],
      "name": "createWallet",
      "outputs": [
        {
          "name": "wallet",
          "type": "address"
        }
      ],
      "payable": false,
      "stateMutability": "nonpayable",
      "type": "function"
    },
    {
      "constant": false,
      "inputs": [
        {
          "name": "delegates",
          "type": "address"
        }
      ],
      "name": "createWallet",
      "outputs": [
        {
          "name": "wallet",
          "type": "address"
        }
      ],
      "payable": false,
      "stateMutability": "nonpayable",
      "type": "function"
    }
  ],
  "bytecode": "0x608060405234801561001057600080fd5b506040516040806109d983398101806040528101908080519060200190929190805190602001909291905050504360008190555080600160006101000a81548173ffffffffffffffffffffffffffffffffffffffff021916908373ffffffffffffffffffffffffffffffffffffffff16021790555081600260006101000a81548173ffffffffffffffffffffffffffffffffffffffff021916908373ffffffffffffffffffffffffffffffffffffffff1602179055505050610902806100d76000396000f30060806040526004361061006d576000357c0100000000000000000000000000000000000000000000000000000000900463ffffffff1680631a244e7c146100725780634e989a4c14610138578063a39d49af14610163578063b054a9e8146101ba578063c05efa151461023d575b600080fd5b34801561007e57600080fd5b506100f6600480360381019080803573ffffffffffffffffffffffffffffffffffffffff16906020019092919080359060200190820180359060200190808060200260200160405190810160405280939291908181526020018383602002808284378201915050505050509192919290505050610294565b604051808273ffffffffffffffffffffffffffffffffffffffff1673ffffffffffffffffffffffffffffffffffffffff16815260200191505060405180910390f35b34801561014457600080fd5b5061014d610552565b6040518082815260200191505060405180910390f35b34801561016f57600080fd5b50610178610558565b604051808273ffffffffffffffffffffffffffffffffffffffff1673ffffffffffffffffffffffffffffffffffffffff16815260200191505060405180910390f35b3480156101c657600080fd5b506101fb600480360381019080803573ffffffffffffffffffffffffffffffffffffffff16906020019092919050505061057e565b604051808273ffffffffffffffffffffffffffffffffffffffff1673ffffffffffffffffffffffffffffffffffffffff16815260200191505060405180910390f35b34801561024957600080fd5b50610252610794565b604051808273ffffffffffffffffffffffffffffffffffffffff1673ffffffffffffffffffffffffffffffffffffffff16815260200191505060405180910390f35b600080600160009054906101000a900473ffffffffffffffffffffffffffffffffffffffff1673ffffffffffffffffffffffffffffffffffffffff16633d5291a285856040518363ffffffff167c0100000000000000000000000000000000000000000000000000000000028152600401808373ffffffffffffffffffffffffffffffffffffffff1673ffffffffffffffffffffffffffffffffffffffff16815260200180602001828103825283818151815260200191508051906020019060200280838360005b8381101561037757808201518184015260208101905061035c565b505050509050019350505050602060405180830381600087803b15801561039d57600080fd5b505af11580156103b1573d6000803e3d6000fd5b505050506040513d60208110156103c757600080fd5b81019080805190602001909291905050509050610405600260009054906101000a900473ffffffffffffffffffffffffffffffffffffffff166107ba565b91508173ffffffffffffffffffffffffffffffffffffffff1663c4d66de8826040518263ffffffff167c0100000000000000000000000000000000000000000000000000000000028152600401808273ffffffffffffffffffffffffffffffffffffffff1673ffffffffffffffffffffffffffffffffffffffff168152602001915050600060405180830381600087803b1580156104a257600080fd5b505af11580156104b6573d6000803e3d6000fd5b505050508373ffffffffffffffffffffffffffffffffffffffff163373ffffffffffffffffffffffffffffffffffffffff167fe78b8ef631cdb1c7eab040bf8895a32210784ff81663b7473dfcfa4f8bdadda984604051808273ffffffffffffffffffffffffffffffffffffffff1673ffffffffffffffffffffffffffffffffffffffff16815260200191505060405180910390a35092915050565b60005481565b600160009054906101000a900473ffffffffffffffffffffffffffffffffffffffff1681565b60006105ab600260009054906101000a900473ffffffffffffffffffffffffffffffffffffffff166107ba565b90508073ffffffffffffffffffffffffffffffffffffffff1663c4d66de8836040518263ffffffff167c0100000000000000000000000000000000000000000000000000000000028152600401808273ffffffffffffffffffffffffffffffffffffffff1673ffffffffffffffffffffffffffffffffffffffff168152602001915050600060405180830381600087803b15801561064857600080fd5b505af115801561065c573d6000803e3d6000fd5b505050508173ffffffffffffffffffffffffffffffffffffffff16638da5cb5b6040518163ffffffff167c0100000000000000000000000000000000000000000000000000000000028152600401602060405180830381600087803b1580156106c457600080fd5b505af11580156106d8573d6000803e3d6000fd5b505050506040513d60208110156106ee57600080fd5b810190808051906020019092919050505073ffffffffffffffffffffffffffffffffffffffff163373ffffffffffffffffffffffffffffffffffffffff167fe78b8ef631cdb1c7eab040bf8895a32210784ff81663b7473dfcfa4f8bdadda983604051808273ffffffffffffffffffffffffffffffffffffffff1673ffffffffffffffffffffffffffffffffffffffff16815260200191505060405180910390a3919050565b600260009054906101000a900473ffffffffffffffffffffffffffffffffffffffff1681565b60006060600080606060405190810160405280603f81526020017f600034603b57603080600f833981f36000368180378080368173bebebebebebe81526020017fbebebebebebebebebebebebebebe5af43d82803e15602c573d90f35b3d90fd008152509250846c01000000000000000000000000029150600090505b60148110156108bf57818160148110151561084e57fe5b1a7f0100000000000000000000000000000000000000000000000000000000000000028382601a0181518110151561088257fe5b9060200101907effffffffffffffffffffffffffffffffffffffffffffffffffffffffffffff1916908160001a9053508080600101915050610837565b82516020840181816000f0955050505050509190505600a165627a7a72305820ce1669e1412993a552dbe088bcca39134a993438fdcb1297c7ff98ca5342ddc90029",
  "source": "pragma solidity ^0.4.23;\r\n\r\nimport \"../external/CloneFactory.sol\";\r\nimport \"../utility/AddressListFactory.sol\";\r\nimport \"../DelegatedWallet.sol\";\r\n\r\ncontract DelegatedWalletFactory is CloneFactory {\r\n    \r\n    uint public blockCreated;\r\n\r\n    AddressListFactory public ListFactory;\r\n    DelegatedWallet public blueprint;\r\n\r\n    constructor (DelegatedWallet _blueprint, AddressListFactory listFactory) public {\r\n        blockCreated = block.number;\r\n        ListFactory = listFactory;\r\n        blueprint = _blueprint;\r\n    }\r\n\r\n    function createWallet (address owner, address[] delegateList) public returns (DelegatedWallet wallet) {\r\n        AddressList delegates = ListFactory.createAddressList(owner, delegateList);\r\n        wallet = DelegatedWallet(createClone(blueprint));\r\n        wallet.initialize(delegates);\r\n        \r\n        emit CreateWallet_event(msg.sender, owner, wallet);\r\n    }\r\n\r\n    function createWallet (AddressList delegates) public returns (DelegatedWallet wallet) {\r\n        wallet = DelegatedWallet(createClone(blueprint));\r\n        wallet.initialize(delegates);\r\n        \r\n        emit CreateWallet_event(msg.sender, delegates.owner(), wallet);\r\n    }\r\n    \r\n    event CreateWallet_event (address indexed caller, address indexed owner, address walletAddress);\r\n    \r\n}\r\n",
  "sourcePath": "C:\\Users\\My\\Documents\\GitHub\\everchain-project\\recurring-alarm-clock\\contracts\\utility\\DelegatedWalletFactory.sol",
  "compiler": {
    "name": "solc",
    "version": "0.4.24+commit.e67f0147.Emscripten.clang"
  },
  "schemaVersion": "2.0.1",
  "updatedAt": "2018-10-07T04:51:18.057Z"
}