{
  "contractName": "DelegatedWalletFactory",
  "abi": [
    {
      "constant": true,
      "inputs": [],
      "name": "listFactory",
      "outputs": [
        {
          "name": "",
          "type": "address"
        }
      ],
      "payable": false,
      "stateMutability": "view",
      "type": "function"
    },
    {
      "constant": true,
      "inputs": [],
      "name": "coreFactory",
      "outputs": [
        {
          "name": "",
          "type": "address"
        }
      ],
      "payable": false,
      "stateMutability": "view",
      "type": "function"
    },
    {
      "constant": true,
      "inputs": [],
      "name": "blockCreated",
      "outputs": [
        {
          "name": "",
          "type": "uint256"
        }
      ],
      "payable": false,
      "stateMutability": "view",
      "type": "function"
    },
    {
      "constant": true,
      "inputs": [],
      "name": "blueprint",
      "outputs": [
        {
          "name": "",
          "type": "address"
        }
      ],
      "payable": false,
      "stateMutability": "view",
      "type": "function"
    },
    {
      "inputs": [
        {
          "name": "_blueprint",
          "type": "address"
        },
        {
          "name": "_listFactory",
          "type": "address"
        },
        {
          "name": "_coreFactory",
          "type": "address"
        }
      ],
      "payable": false,
      "stateMutability": "nonpayable",
      "type": "constructor"
    },
    {
      "anonymous": false,
      "inputs": [
        {
          "indexed": true,
          "name": "creator",
          "type": "address"
        },
        {
          "indexed": true,
          "name": "owner",
          "type": "address"
        },
        {
          "indexed": false,
          "name": "walletAddress",
          "type": "address"
        }
      ],
      "name": "CreateWallet_event",
      "type": "event"
    },
    {
      "anonymous": false,
      "inputs": [
        {
          "indexed": true,
          "name": "target",
          "type": "address"
        },
        {
          "indexed": false,
          "name": "clone",
          "type": "address"
        }
      ],
      "name": "CloneCreated",
      "type": "event"
    },
    {
      "constant": false,
      "inputs": [
        {
          "name": "owner",
          "type": "address"
        },
        {
          "name": "delegateList",
          "type": "address[]"
        }
      ],
      "name": "createWallet",
      "outputs": [
        {
          "name": "",
          "type": "address"
        }
      ],
      "payable": false,
      "stateMutability": "nonpayable",
      "type": "function"
    }
  ],
  "bytecode": "0x608060405234801561001057600080fd5b506040516060806109738339810180604052810190808051906020019092919080519060200190929190805190602001909291905050504360008190555082600160006101000a81548173ffffffffffffffffffffffffffffffffffffffff021916908373ffffffffffffffffffffffffffffffffffffffff16021790555081600260006101000a81548173ffffffffffffffffffffffffffffffffffffffff021916908373ffffffffffffffffffffffffffffffffffffffff16021790555080600360006101000a81548173ffffffffffffffffffffffffffffffffffffffff021916908373ffffffffffffffffffffffffffffffffffffffff160217905550505050610850806101236000396000f30060806040526004361061006d576000357c0100000000000000000000000000000000000000000000000000000000900463ffffffff1680631a244e7c146100725780633a4cba16146101385780633d8df6671461018f5780634e989a4c146101e6578063c05efa1514610211575b600080fd5b34801561007e57600080fd5b506100f6600480360381019080803573ffffffffffffffffffffffffffffffffffffffff16906020019092919080359060200190820180359060200190808060200260200160405190810160405280939291908181526020018383602002808284378201915050505050509192919290505050610268565b604051808273ffffffffffffffffffffffffffffffffffffffff1673ffffffffffffffffffffffffffffffffffffffff16815260200191505060405180910390f35b34801561014457600080fd5b5061014d610690565b604051808273ffffffffffffffffffffffffffffffffffffffff1673ffffffffffffffffffffffffffffffffffffffff16815260200191505060405180910390f35b34801561019b57600080fd5b506101a46106b6565b604051808273ffffffffffffffffffffffffffffffffffffffff1673ffffffffffffffffffffffffffffffffffffffff16815260200191505060405180910390f35b3480156101f257600080fd5b506101fb6106dc565b6040518082815260200191505060405180910390f35b34801561021d57600080fd5b506102266106e2565b604051808273ffffffffffffffffffffffffffffffffffffffff1673ffffffffffffffffffffffffffffffffffffffff16815260200191505060405180910390f35b600080600080610299600160009054906101000a900473ffffffffffffffffffffffffffffffffffffffff16610708565b9250600260009054906101000a900473ffffffffffffffffffffffffffffffffffffffff1673ffffffffffffffffffffffffffffffffffffffff16633d5291a287876040518363ffffffff167c0100000000000000000000000000000000000000000000000000000000028152600401808373ffffffffffffffffffffffffffffffffffffffff1673ffffffffffffffffffffffffffffffffffffffff16815260200180602001828103825283818151815260200191508051906020019060200280838360005b8381101561037b578082015181840152602081019050610360565b505050509050019350505050602060405180830381600087803b1580156103a157600080fd5b505af11580156103b5573d6000803e3d6000fd5b505050506040513d60208110156103cb57600080fd5b81019080805190602001909291905050509150600360009054906101000a900473ffffffffffffffffffffffffffffffffffffffff1673ffffffffffffffffffffffffffffffffffffffff1663af7f32d9846040518263ffffffff167c0100000000000000000000000000000000000000000000000000000000028152600401808273ffffffffffffffffffffffffffffffffffffffff1673ffffffffffffffffffffffffffffffffffffffff168152602001915050602060405180830381600087803b15801561049b57600080fd5b505af11580156104af573d6000803e3d6000fd5b505050506040513d60208110156104c557600080fd5b810190808051906020019092919050505090508273ffffffffffffffffffffffffffffffffffffffff1663c0c53b8b8784846040518463ffffffff167c0100000000000000000000000000000000000000000000000000000000028152600401808473ffffffffffffffffffffffffffffffffffffffff1673ffffffffffffffffffffffffffffffffffffffff1681526020018373ffffffffffffffffffffffffffffffffffffffff1673ffffffffffffffffffffffffffffffffffffffff1681526020018273ffffffffffffffffffffffffffffffffffffffff1673ffffffffffffffffffffffffffffffffffffffff1681526020019350505050600060405180830381600087803b1580156105db57600080fd5b505af11580156105ef573d6000803e3d6000fd5b505050508573ffffffffffffffffffffffffffffffffffffffff163373ffffffffffffffffffffffffffffffffffffffff167fe78b8ef631cdb1c7eab040bf8895a32210784ff81663b7473dfcfa4f8bdadda985604051808273ffffffffffffffffffffffffffffffffffffffff1673ffffffffffffffffffffffffffffffffffffffff16815260200191505060405180910390a382935050505092915050565b600260009054906101000a900473ffffffffffffffffffffffffffffffffffffffff1681565b600360009054906101000a900473ffffffffffffffffffffffffffffffffffffffff1681565b60005481565b600160009054906101000a900473ffffffffffffffffffffffffffffffffffffffff1681565b60006060600080606060405190810160405280603f81526020017f600034603b57603080600f833981f36000368180378080368173bebebebebebe81526020017fbebebebebebebebebebebebebebe5af43d82803e15602c573d90f35b3d90fd008152509250846c01000000000000000000000000029150600090505b601481101561080d57818160148110151561079c57fe5b1a7f0100000000000000000000000000000000000000000000000000000000000000028382601a018151811015156107d057fe5b9060200101907effffffffffffffffffffffffffffffffffffffffffffffffffffffffffffff1916908160001a9053508080600101915050610785565b82516020840181816000f0955050505050509190505600a165627a7a72305820faab9f18fdfcb9f2e559e8a8fa53a2e9cdd90ed29ce8defc50b23592558dbf1b0029",
  "source": "pragma solidity ^0.4.23;\r\n\r\nimport \"../../external/CloneFactory.sol\";\r\nimport \"../../utility/AddressListFactory.sol\";\r\nimport \"../../utility/TokenCoreFactory.sol\";\r\nimport \"./DelegatedWallet.sol\";\r\n\r\ncontract DelegatedWalletFactory is CloneFactory {\r\n    \r\n    uint public blockCreated;\r\n    \r\n    DelegatedWallet public blueprint;\r\n    AddressListFactory public listFactory;\r\n    TokenCoreFactory public coreFactory;\r\n    \r\n    constructor (\r\n        DelegatedWallet _blueprint,\r\n        AddressListFactory _listFactory,\r\n        TokenCoreFactory _coreFactory\r\n    ) public {\r\n        blockCreated = block.number;\r\n\r\n        blueprint = _blueprint;\r\n        listFactory = _listFactory;\r\n        coreFactory = _coreFactory;\r\n    }\r\n    \r\n    function createWallet (address owner, address[] delegateList) public returns (DelegatedWallet) {\r\n        DelegatedWallet wallet = DelegatedWallet(createClone(blueprint));\r\n        AddressList delegates = listFactory.createAddressList(owner, delegateList);\r\n        TokenCore core = coreFactory.createTokenCore(wallet);\r\n        wallet.initialize(owner, delegates, core);\r\n        emit CreateWallet_event(msg.sender, owner, wallet);\r\n\r\n        return wallet;\r\n    }\r\n    \r\n    event CreateWallet_event (\r\n        address indexed creator, \r\n        address indexed owner, \r\n        address walletAddress\r\n    );\r\n    \r\n}\r\n",
  "sourcePath": "C:\\Users\\My\\Documents\\GitHub\\everchain-project\\recurring-alarm-clock\\contracts\\examples\\delegated-wallet\\DelegatedWalletFactory.sol",
  "compiler": {
    "name": "solc",
    "version": "0.4.24+commit.e67f0147.Emscripten.clang"
  },
  "schemaVersion": "2.0.1",
  "updatedAt": "2018-09-30T19:37:48.672Z"
}