{
  "contractName": "DummyGasPriceFeed",
  "abi": [
    {
      "constant": true,
      "inputs": [],
      "name": "read",
      "outputs": [
        {
          "name": "",
          "type": "uint256"
        }
      ],
      "payable": false,
      "stateMutability": "view",
      "type": "function"
    }
  ],
  "bytecode": "0x6080604052348015600f57600080fd5b5060a08061001e6000396000f3fe608060405260043610603f576000357c0100000000000000000000000000000000000000000000000000000000900463ffffffff16806357de26a4146044575b600080fd5b348015604f57600080fd5b506056606c565b6040518082815260200191505060405180910390f35b60003a90509056fea165627a7a72305820d317736c29ec1850660204a3137feab88ceb71f9fcccee3f589832e0c9dfe3720029",
  "source": "pragma solidity ^0.5.0;\n\nimport \"../Interfaces.sol\";\n\ncontract DummyGasPriceFeed is IUintFeed {\n\n\tfunction read() public view returns (uint) {\n        return tx.gasprice;\n    }\n\n}\n",
  "sourcePath": "/home/joe/Documents/github/everchain-project/recurring-transactions/contracts/feeds/DummyGasPriceFeed.sol",
  "compiler": {
    "name": "solc",
    "version": "0.5.0+commit.1d4f565a.Emscripten.clang"
  },
  "schemaVersion": "3.0.9",
  "updatedAt": "2019-05-14T22:16:21.136Z",
  "devdoc": {
    "methods": {}
  },
  "userdoc": {
    "methods": {}
  }
}