{
  "contractName": "DummyGasPriceFeed",
  "abi": [
    {
      "constant": true,
      "inputs": [],
      "name": "read",
      "outputs": [
        {
          "name": "",
          "type": "uint256"
        }
      ],
      "payable": false,
      "stateMutability": "view",
      "type": "function"
    }
  ],
  "bytecode": "0x6080604052348015600f57600080fd5b5060a08061001e6000396000f3fe608060405260043610603f576000357c0100000000000000000000000000000000000000000000000000000000900463ffffffff16806357de26a4146044575b600080fd5b348015604f57600080fd5b506056606c565b6040518082815260200191505060405180910390f35b60003a90509056fea165627a7a7230582045598fc8de1bfad2c9809158275da38c5a002946d1d0a034f2df36d2e5f510920029",
  "source": "pragma solidity ^0.5.0;\n\nimport \"../external/Owned.sol\";\nimport \"../Interfaces.sol\";\n\ncontract DummyGasPriceFeed is IUintFeed {\n\n\tfunction read() public view returns (uint) {\n        return tx.gasprice;\n    }\n\n}",
  "sourcePath": "/home/joe/Documents/github/everchain-project/recurring-transactions/contracts/tests/DummyGasPriceFeed.sol",
  "compiler": {
    "name": "solc",
    "version": "0.5.0+commit.1d4f565a.Emscripten.clang"
  },
  "schemaVersion": "3.0.1",
  "updatedAt": "2019-02-20T06:34:10.851Z",
  "devdoc": {
    "methods": {}
  },
  "userdoc": {
    "methods": {}
  }
}