{
  "contractName": "EverchainWalletManager",
  "abi": [
    {
      "constant": true,
      "inputs": [],
      "name": "PaymentDelegateFactory",
      "outputs": [
        {
          "name": "",
          "type": "address"
        }
      ],
      "payable": false,
      "stateMutability": "view",
      "type": "function"
    },
    {
      "constant": true,
      "inputs": [],
      "name": "PaymentScheduler",
      "outputs": [
        {
          "name": "",
          "type": "address"
        }
      ],
      "payable": false,
      "stateMutability": "view",
      "type": "function"
    },
    {
      "constant": true,
      "inputs": [],
      "name": "WalletFactory",
      "outputs": [
        {
          "name": "",
          "type": "address"
        }
      ],
      "payable": false,
      "stateMutability": "view",
      "type": "function"
    },
    {
      "constant": true,
      "inputs": [],
      "name": "version",
      "outputs": [
        {
          "name": "",
          "type": "string"
        }
      ],
      "payable": false,
      "stateMutability": "view",
      "type": "function"
    },
    {
      "constant": true,
      "inputs": [
        {
          "name": "",
          "type": "address"
        }
      ],
      "name": "wallets",
      "outputs": [
        {
          "name": "",
          "type": "address"
        }
      ],
      "payable": false,
      "stateMutability": "view",
      "type": "function"
    },
    {
      "constant": true,
      "inputs": [],
      "name": "owner",
      "outputs": [
        {
          "name": "",
          "type": "address"
        }
      ],
      "payable": false,
      "stateMutability": "view",
      "type": "function"
    },
    {
      "constant": true,
      "inputs": [],
      "name": "ListFactory",
      "outputs": [
        {
          "name": "",
          "type": "address"
        }
      ],
      "payable": false,
      "stateMutability": "view",
      "type": "function"
    },
    {
      "constant": false,
      "inputs": [
        {
          "name": "_newOwner",
          "type": "address"
        }
      ],
      "name": "transferOwnership",
      "outputs": [],
      "payable": false,
      "stateMutability": "nonpayable",
      "type": "function"
    },
    {
      "inputs": [
        {
          "name": "listFactory",
          "type": "address"
        },
        {
          "name": "walletFactory",
          "type": "address"
        },
        {
          "name": "paymentDelegateFactory",
          "type": "address"
        },
        {
          "name": "paymentScheduler",
          "type": "address"
        }
      ],
      "payable": false,
      "stateMutability": "nonpayable",
      "type": "constructor"
    },
    {
      "anonymous": false,
      "inputs": [
        {
          "indexed": true,
          "name": "owner",
          "type": "address"
        },
        {
          "indexed": false,
          "name": "walletAddress",
          "type": "address"
        }
      ],
      "name": "AddWallet_event",
      "type": "event"
    },
    {
      "anonymous": false,
      "inputs": [
        {
          "indexed": true,
          "name": "owner",
          "type": "address"
        },
        {
          "indexed": false,
          "name": "walletAddress",
          "type": "address"
        }
      ],
      "name": "RemoveWallet_event",
      "type": "event"
    },
    {
      "anonymous": false,
      "inputs": [
        {
          "indexed": true,
          "name": "owner",
          "type": "address"
        },
        {
          "indexed": false,
          "name": "walletAddress",
          "type": "address"
        }
      ],
      "name": "CreateWallet_event",
      "type": "event"
    },
    {
      "constant": false,
      "inputs": [],
      "name": "createWallet",
      "outputs": [
        {
          "name": "wallet",
          "type": "address"
        }
      ],
      "payable": false,
      "stateMutability": "nonpayable",
      "type": "function"
    },
    {
      "constant": false,
      "inputs": [
        {
          "name": "delegateList",
          "type": "address[]"
        }
      ],
      "name": "createWallet",
      "outputs": [
        {
          "name": "wallet",
          "type": "address"
        }
      ],
      "payable": false,
      "stateMutability": "nonpayable",
      "type": "function"
    },
    {
      "constant": false,
      "inputs": [
        {
          "name": "delegates",
          "type": "address"
        }
      ],
      "name": "createWallet",
      "outputs": [
        {
          "name": "",
          "type": "address"
        }
      ],
      "payable": false,
      "stateMutability": "nonpayable",
      "type": "function"
    },
    {
      "constant": false,
      "inputs": [
        {
          "name": "wallet",
          "type": "address"
        }
      ],
      "name": "addWallet",
      "outputs": [
        {
          "name": "success",
          "type": "bool"
        }
      ],
      "payable": false,
      "stateMutability": "nonpayable",
      "type": "function"
    },
    {
      "constant": false,
      "inputs": [
        {
          "name": "wallet",
          "type": "address"
        }
      ],
      "name": "removeWallet",
      "outputs": [
        {
          "name": "success",
          "type": "bool"
        }
      ],
      "payable": false,
      "stateMutability": "nonpayable",
      "type": "function"
    }
  ],
  "bytecode": "0x60806040526040805190810160405280600f81526020017f65766572636861696e5f302e312e3000000000000000000000000000000000008152506001908051906020019062000051929190620001ef565b503480156200005f57600080fd5b506040516080806200188883398101806040528101908080519060200190929190805190602001909291908051906020019092919080519060200190929190505050336000806101000a81548173ffffffffffffffffffffffffffffffffffffffff021916908373ffffffffffffffffffffffffffffffffffffffff16021790555083600260006101000a81548173ffffffffffffffffffffffffffffffffffffffff021916908373ffffffffffffffffffffffffffffffffffffffff16021790555082600360006101000a81548173ffffffffffffffffffffffffffffffffffffffff021916908373ffffffffffffffffffffffffffffffffffffffff16021790555081600460006101000a81548173ffffffffffffffffffffffffffffffffffffffff021916908373ffffffffffffffffffffffffffffffffffffffff16021790555080600560006101000a81548173ffffffffffffffffffffffffffffffffffffffff021916908373ffffffffffffffffffffffffffffffffffffffff160217905550505050506200029e565b828054600181600116156101000203166002900490600052602060002090601f016020900481019282601f106200023257805160ff191683800117855562000263565b8280016001018555821562000263579182015b828111156200026257825182559160200191906001019062000245565b5b50905062000272919062000276565b5090565b6200029b91905b80821115620002975760008160009055506001016200027d565b5090565b90565b6115da80620002ae6000396000f3006080604052600436106100c5576000357c0100000000000000000000000000000000000000000000000000000000900463ffffffff16806309875364146100ca5780630d43a9a61461012157806311ebbf24146101785780631cf89b4b146101cf57806322ed32381461027557806354fd4d50146102cc57806389b08f111461035c5780638da5cb5b146103df578063a39d49af14610436578063a75fe8e11461048d578063b054a9e8146104e8578063efeb5f1f1461056b578063f2fde38b146105c6575b600080fd5b3480156100d657600080fd5b506100df610609565b604051808273ffffffffffffffffffffffffffffffffffffffff1673ffffffffffffffffffffffffffffffffffffffff16815260200191505060405180910390f35b34801561012d57600080fd5b5061013661062f565b604051808273ffffffffffffffffffffffffffffffffffffffff1673ffffffffffffffffffffffffffffffffffffffff16815260200191505060405180910390f35b34801561018457600080fd5b5061018d610655565b604051808273ffffffffffffffffffffffffffffffffffffffff1673ffffffffffffffffffffffffffffffffffffffff16815260200191505060405180910390f35b3480156101db57600080fd5b5061023360048036038101908080359060200190820180359060200190808060200260200160405190810160405280939291908181526020018383602002808284378201915050505050509192919290505050610a63565b604051808273ffffffffffffffffffffffffffffffffffffffff1673ffffffffffffffffffffffffffffffffffffffff16815260200191505060405180910390f35b34801561028157600080fd5b5061028a610bba565b604051808273ffffffffffffffffffffffffffffffffffffffff1673ffffffffffffffffffffffffffffffffffffffff16815260200191505060405180910390f35b3480156102d857600080fd5b506102e1610be0565b6040518080602001828103825283818151815260200191508051906020019080838360005b83811015610321578082015181840152602081019050610306565b50505050905090810190601f16801561034e5780820380516001836020036101000a031916815260200191505b509250505060405180910390f35b34801561036857600080fd5b5061039d600480360381019080803573ffffffffffffffffffffffffffffffffffffffff169060200190929190505050610c7e565b604051808273ffffffffffffffffffffffffffffffffffffffff1673ffffffffffffffffffffffffffffffffffffffff16815260200191505060405180910390f35b3480156103eb57600080fd5b506103f4610cb1565b604051808273ffffffffffffffffffffffffffffffffffffffff1673ffffffffffffffffffffffffffffffffffffffff16815260200191505060405180910390f35b34801561044257600080fd5b5061044b610cd6565b604051808273ffffffffffffffffffffffffffffffffffffffff1673ffffffffffffffffffffffffffffffffffffffff16815260200191505060405180910390f35b34801561049957600080fd5b506104ce600480360381019080803573ffffffffffffffffffffffffffffffffffffffff169060200190929190505050610cfc565b604051808215151515815260200191505060405180910390f35b3480156104f457600080fd5b50610529600480360381019080803573ffffffffffffffffffffffffffffffffffffffff169060200190929190505050610ebb565b604051808273ffffffffffffffffffffffffffffffffffffffff1673ffffffffffffffffffffffffffffffffffffffff16815260200191505060405180910390f35b34801561057757600080fd5b506105ac600480360381019080803573ffffffffffffffffffffffffffffffffffffffff169060200190929190505050610ecd565b604051808215151515815260200191505060405180910390f35b3480156105d257600080fd5b50610607600480360381019080803573ffffffffffffffffffffffffffffffffffffffff169060200190929190505050610edf565b005b600460009054906101000a900473ffffffffffffffffffffffffffffffffffffffff1681565b600560009054906101000a900473ffffffffffffffffffffffffffffffffffffffff1681565b60006060600060606000600160405190808252806020026020018201604052801561068f5781602001602082028038833980820191505090505b509350600560009054906101000a900473ffffffffffffffffffffffffffffffffffffffff168460008151811015156106c457fe5b9060200190602002019073ffffffffffffffffffffffffffffffffffffffff16908173ffffffffffffffffffffffffffffffffffffffff1681525050600460009054906101000a900473ffffffffffffffffffffffffffffffffffffffff1673ffffffffffffffffffffffffffffffffffffffff166366961ce533866040518363ffffffff167c0100000000000000000000000000000000000000000000000000000000028152600401808373ffffffffffffffffffffffffffffffffffffffff1673ffffffffffffffffffffffffffffffffffffffff16815260200180602001828103825283818151815260200191508051906020019060200280838360005b838110156107e05780820151818401526020810190506107c5565b505050509050019350505050602060405180830381600087803b15801561080657600080fd5b505af115801561081a573d6000803e3d6000fd5b505050506040513d602081101561083057600080fd5b8101908080519060200190929190505050925060026040519080825280602002602001820160405280156108735781602001602082028038833980820191505090505b5091503382600081518110151561088657fe5b9060200190602002019073ffffffffffffffffffffffffffffffffffffffff16908173ffffffffffffffffffffffffffffffffffffffff1681525050828260018151811015156108d257fe5b9060200190602002019073ffffffffffffffffffffffffffffffffffffffff16908173ffffffffffffffffffffffffffffffffffffffff1681525050600260009054906101000a900473ffffffffffffffffffffffffffffffffffffffff1673ffffffffffffffffffffffffffffffffffffffff16633d5291a233846040518363ffffffff167c0100000000000000000000000000000000000000000000000000000000028152600401808373ffffffffffffffffffffffffffffffffffffffff1673ffffffffffffffffffffffffffffffffffffffff16815260200180602001828103825283818151815260200191508051906020019060200280838360005b838110156109ee5780820151818401526020810190506109d3565b505050509050019350505050602060405180830381600087803b158015610a1457600080fd5b505af1158015610a28573d6000803e3d6000fd5b505050506040513d6020811015610a3e57600080fd5b81019080805190602001909291905050509050610a5a81610f7d565b94505050505090565b600080600260009054906101000a900473ffffffffffffffffffffffffffffffffffffffff1673ffffffffffffffffffffffffffffffffffffffff16633d5291a233856040518363ffffffff167c0100000000000000000000000000000000000000000000000000000000028152600401808373ffffffffffffffffffffffffffffffffffffffff1673ffffffffffffffffffffffffffffffffffffffff16815260200180602001828103825283818151815260200191508051906020019060200280838360005b83811015610b46578082015181840152602081019050610b2b565b505050509050019350505050602060405180830381600087803b158015610b6c57600080fd5b505af1158015610b80573d6000803e3d6000fd5b505050506040513d6020811015610b9657600080fd5b81019080805190602001909291905050509050610bb281610f7d565b915050919050565b600360009054906101000a900473ffffffffffffffffffffffffffffffffffffffff1681565b60018054600181600116156101000203166002900480601f016020809104026020016040519081016040528092919081815260200182805460018160011615610100020316600290048015610c765780601f10610c4b57610100808354040283529160200191610c76565b820191906000526020600020905b815481529060010190602001808311610c5957829003601f168201915b505050505081565b60066020528060005260406000206000915054906101000a900473ffffffffffffffffffffffffffffffffffffffff1681565b6000809054906101000a900473ffffffffffffffffffffffffffffffffffffffff1681565b600260009054906101000a900473ffffffffffffffffffffffffffffffffffffffff1681565b6000600660003373ffffffffffffffffffffffffffffffffffffffff1673ffffffffffffffffffffffffffffffffffffffff16815260200190815260200160002060009054906101000a900473ffffffffffffffffffffffffffffffffffffffff1673ffffffffffffffffffffffffffffffffffffffff166329092d0e836040518263ffffffff167c0100000000000000000000000000000000000000000000000000000000028152600401808273ffffffffffffffffffffffffffffffffffffffff1673ffffffffffffffffffffffffffffffffffffffff168152602001915050602060405180830381600087803b158015610df857600080fd5b505af1158015610e0c573d6000803e3d6000fd5b505050506040513d6020811015610e2257600080fd5b810190808051906020019092919050505090508015610eb6573373ffffffffffffffffffffffffffffffffffffffff167fc271a19d5cf9958aaacae360c3870c2847dc24d02f03a6a2889a0fcfacf46e0683604051808273ffffffffffffffffffffffffffffffffffffffff1673ffffffffffffffffffffffffffffffffffffffff16815260200191505060405180910390a25b919050565b6000610ec682610f7d565b9050919050565b6000610ed88261110c565b9050919050565b6000809054906101000a900473ffffffffffffffffffffffffffffffffffffffff1673ffffffffffffffffffffffffffffffffffffffff163373ffffffffffffffffffffffffffffffffffffffff16141515610f3a57600080fd5b806000806101000a81548173ffffffffffffffffffffffffffffffffffffffff021916908373ffffffffffffffffffffffffffffffffffffffff16021790555050565b6000600360009054906101000a900473ffffffffffffffffffffffffffffffffffffffff1673ffffffffffffffffffffffffffffffffffffffff1663b054a9e8836040518263ffffffff167c0100000000000000000000000000000000000000000000000000000000028152600401808273ffffffffffffffffffffffffffffffffffffffff1673ffffffffffffffffffffffffffffffffffffffff168152602001915050602060405180830381600087803b15801561103c57600080fd5b505af1158015611050573d6000803e3d6000fd5b505050506040513d602081101561106657600080fd5b810190808051906020019092919050505090506110828161110c565b151561108d57600080fd5b3373ffffffffffffffffffffffffffffffffffffffff167f44c74d8debc7f99719cbd7de4ba057de14ba004552f9ed78cd6d34026a02e9d282604051808273ffffffffffffffffffffffffffffffffffffffff1673ffffffffffffffffffffffffffffffffffffffff16815260200191505060405180910390a2919050565b6000806060600073ffffffffffffffffffffffffffffffffffffffff16600660003373ffffffffffffffffffffffffffffffffffffffff1673ffffffffffffffffffffffffffffffffffffffff16815260200190815260200160002060009054906101000a900473ffffffffffffffffffffffffffffffffffffffff1673ffffffffffffffffffffffffffffffffffffffff1614915081156113ee5760016040519080825280602002602001820160405280156111d85781602001602082028038833980820191505090505b509050838160008151811015156111eb57fe5b9060200190602002019073ffffffffffffffffffffffffffffffffffffffff16908173ffffffffffffffffffffffffffffffffffffffff1681525050600260009054906101000a900473ffffffffffffffffffffffffffffffffffffffff1673ffffffffffffffffffffffffffffffffffffffff16633d5291a230836040518363ffffffff167c0100000000000000000000000000000000000000000000000000000000028152600401808373ffffffffffffffffffffffffffffffffffffffff1673ffffffffffffffffffffffffffffffffffffffff16815260200180602001828103825283818151815260200191508051906020019060200280838360005b838110156113075780820151818401526020810190506112ec565b505050509050019350505050602060405180830381600087803b15801561132d57600080fd5b505af1158015611341573d6000803e3d6000fd5b505050506040513d602081101561135757600080fd5b8101908080519060200190929190505050600660003373ffffffffffffffffffffffffffffffffffffffff1673ffffffffffffffffffffffffffffffffffffffff16815260200190815260200160002060006101000a81548173ffffffffffffffffffffffffffffffffffffffff021916908373ffffffffffffffffffffffffffffffffffffffff16021790555060019250611526565b600660003373ffffffffffffffffffffffffffffffffffffffff1673ffffffffffffffffffffffffffffffffffffffff16815260200190815260200160002060009054906101000a900473ffffffffffffffffffffffffffffffffffffffff1673ffffffffffffffffffffffffffffffffffffffff16630a3b0a4f856040518263ffffffff167c0100000000000000000000000000000000000000000000000000000000028152600401808273ffffffffffffffffffffffffffffffffffffffff1673ffffffffffffffffffffffffffffffffffffffff168152602001915050602060405180830381600087803b1580156114e857600080fd5b505af11580156114fc573d6000803e3d6000fd5b505050506040513d602081101561151257600080fd5b810190808051906020019092919050505092505b82156115a7573373ffffffffffffffffffffffffffffffffffffffff167ff9fe8c8f6812279aad6b2f8051214c6a19512a6af9fe0a1a821c0e96b11c199585604051808273ffffffffffffffffffffffffffffffffffffffff1673ffffffffffffffffffffffffffffffffffffffff16815260200191505060405180910390a25b50509190505600a165627a7a723058205bc238961669262fcc95f6cfcbfe61902eabd33dad3ea7dc5096ec96904f2f570029",
  "source": "pragma solidity ^0.4.23;\r\n\r\nimport \"../utility/AddressListFactory.sol\";\r\nimport \"../utility/DelegatedWalletFactory.sol\";\r\nimport \"../utility/FuturePaymentDelegateFactory.sol\";\r\nimport \"./RecurringPaymentScheduler.sol\";\r\n\r\ncontract EverchainWalletManager is Owned {\r\n\r\n    string public version = \"everchain_0.1.0\";\r\n    \r\n    AddressListFactory public ListFactory;\r\n    DelegatedWalletFactory public WalletFactory;\r\n    FuturePaymentDelegateFactory public PaymentDelegateFactory;\r\n    RecurringPaymentScheduler public PaymentScheduler;\r\n\r\n    mapping (address => AddressList) public wallets;\r\n\r\n    constructor (\r\n        AddressListFactory listFactory,\r\n        DelegatedWalletFactory walletFactory,\r\n        FuturePaymentDelegateFactory paymentDelegateFactory,\r\n        RecurringPaymentScheduler paymentScheduler\r\n    ) public {\r\n        ListFactory = listFactory;\r\n        WalletFactory = walletFactory;\r\n        PaymentDelegateFactory = paymentDelegateFactory;\r\n        PaymentScheduler = paymentScheduler;\r\n    }\r\n\r\n    function createWallet () public returns (DelegatedWallet wallet) {\r\n        address[] memory trustedSchedulers = new address[](1);\r\n        trustedSchedulers[0] = PaymentScheduler;\r\n        FuturePaymentDelegate paymentDelegate = PaymentDelegateFactory.createDelegate(msg.sender, trustedSchedulers);\r\n        address[] memory delegateList = new address[](2);\r\n        delegateList[0] = msg.sender;\r\n        delegateList[1] = paymentDelegate;\r\n        AddressList delegates = ListFactory.createAddressList(msg.sender, delegateList);\r\n        return createWallet_internal(delegates);\r\n    }\r\n\r\n    function createWallet (address[] delegateList) public returns (DelegatedWallet wallet) {\r\n        AddressList delegates = ListFactory.createAddressList(msg.sender, delegateList);\r\n        return createWallet_internal(delegates);\r\n    }\r\n\r\n    function createWallet (AddressList delegates) public returns (DelegatedWallet) {\r\n        return createWallet_internal(delegates);\r\n    }\r\n\r\n    function addWallet (DelegatedWallet wallet) public returns (bool success) {\r\n        success = addWallet_internal(wallet);\r\n    }\r\n\r\n    function removeWallet (DelegatedWallet wallet) public returns (bool success) {\r\n        success = wallets[msg.sender].remove(wallet);\r\n        if(success)\r\n            emit RemoveWallet_event(msg.sender, wallet);\r\n    }\r\n    \r\n    function addWallet_internal (address wallet) internal returns (bool success) {\r\n        bool walletListAlreadyCreated = wallets[msg.sender] == address(0x0);\r\n        if(walletListAlreadyCreated){\r\n            address[] memory walletList = new address[](1);\r\n            walletList[0] = wallet;\r\n            wallets[msg.sender] = ListFactory.createAddressList(this, walletList);\r\n            success = true;\r\n        } else {\r\n            success = wallets[msg.sender].add(wallet);\r\n        }\r\n\r\n        if(success)\r\n            emit AddWallet_event(msg.sender, wallet);\r\n    }\r\n\r\n    function createWallet_internal (AddressList delegates) internal returns (DelegatedWallet wallet) {\r\n        wallet = WalletFactory.createWallet(delegates);\r\n        require(addWallet_internal(wallet));\r\n\r\n        emit CreateWallet_event(msg.sender, wallet);\r\n    }\r\n\r\n    event AddWallet_event(address indexed owner, address walletAddress);\r\n    event RemoveWallet_event(address indexed owner, address walletAddress);\r\n    event CreateWallet_event (address indexed owner, address walletAddress);\r\n}\r\n",
  "sourcePath": "C:\\Users\\My\\Documents\\GitHub\\everchain-project\\recurring-alarm-clock\\contracts\\examples\\EverchainWalletManager.sol",
  "compiler": {
    "name": "solc",
    "version": "0.4.24+commit.e67f0147.Emscripten.clang"
  },
  "schemaVersion": "2.0.1",
  "updatedAt": "2018-10-06T23:12:51.306Z"
}