{
  "contractName": "ExampleTask",
  "abi": [
    {
      "constant": true,
      "inputs": [],
      "name": "alarmClock",
      "outputs": [
        {
          "name": "",
          "type": "address"
        }
      ],
      "payable": false,
      "stateMutability": "view",
      "type": "function"
    },
    {
      "constant": true,
      "inputs": [],
      "name": "blockCreated",
      "outputs": [
        {
          "name": "",
          "type": "uint256"
        }
      ],
      "payable": false,
      "stateMutability": "view",
      "type": "function"
    },
    {
      "inputs": [
        {
          "name": "_alarmClock",
          "type": "address"
        }
      ],
      "payable": false,
      "stateMutability": "nonpayable",
      "type": "constructor"
    },
    {
      "payable": false,
      "stateMutability": "nonpayable",
      "type": "fallback"
    },
    {
      "anonymous": false,
      "inputs": [],
      "name": "Task_event",
      "type": "event"
    }
  ],
  "bytecode": "0x608060405234801561001057600080fd5b506040516020806102e58339810180604052602081101561003057600080fd5b81019080805190602001909291905050504360008190555080600160006101000a81548173ffffffffffffffffffffffffffffffffffffffff021916908373ffffffffffffffffffffffffffffffffffffffff1602179055505061024c806100996000396000f3fe60806040526004361061004c576000357c0100000000000000000000000000000000000000000000000000000000900463ffffffff1680633a7b779e146101725780634e989a4c146101c9575b34801561005857600080fd5b50600160009054906101000a900473ffffffffffffffffffffffffffffffffffffffff1673ffffffffffffffffffffffffffffffffffffffff163373ffffffffffffffffffffffffffffffffffffffff16141515610144576040517f08c379a00000000000000000000000000000000000000000000000000000000081526004018080602001828103825260298152602001807f6f6e6c792074686520616c61726d20636c6f636b2063616e207472696767657281526020017f20746865207461736b000000000000000000000000000000000000000000000081525060400191505060405180910390fd5b7f0918bf515e010329a6890d5fc2a29c8656ddd368d1d224ef92b900bbe461bde460405160405180910390a1005b34801561017e57600080fd5b506101876101f4565b604051808273ffffffffffffffffffffffffffffffffffffffff1673ffffffffffffffffffffffffffffffffffffffff16815260200191505060405180910390f35b3480156101d557600080fd5b506101de61021a565b6040518082815260200191505060405180910390f35b600160009054906101000a900473ffffffffffffffffffffffffffffffffffffffff1681565b6000548156fea165627a7a723058203cce8aa63cf00751bc64789a9334a4593bad90d0b3d72e7c64ff3844f2f47ebc0029",
  "source": "pragma solidity ^0.5.0;\r\n\r\nimport \"../external/Owned.sol\";\r\nimport \"../Interfaces.sol\";\r\n\r\n/// @title ExampleTask Contract\r\n/// @author Joseph Reed\r\n/// @dev This contract is a simple example task that waits for the executor\r\n///      to call the default function thus emitting an event.\r\ncontract ExampleTask {\r\n\r\n    uint public blockCreated;   // records the block when the contract is created\r\n\r\n    IRecurringAlarmClock public alarmClock;    // The executor is allowed to call the task\r\n\r\n    /// @notice Initializes the task\r\n    /// @param _alarmClock The alarm clock with exclusive permission to trigger an event\r\n    constructor (IRecurringAlarmClock _alarmClock) public {\r\n        blockCreated = block.number;\r\n        alarmClock = _alarmClock;\r\n    }\r\n\r\n    /// @notice Every time the alarm clock is triggered it calls the default function and emits an event\r\n    function () external {\r\n        require(msg.sender == address(alarmClock), \"only the alarm clock can trigger the task\");\r\n\r\n        emit Task_event();\r\n    }\r\n\r\n    event Task_event();\r\n\r\n}",
  "sourcePath": "C:/Users/My/Documents/GitHub/everchain-project/recurring-alarm-clock/contracts/tests/ExampleTask.sol",
  "compiler": {
    "name": "solc",
    "version": "0.5.0+commit.1d4f565a.Emscripten.clang"
  },
  "schemaVersion": "3.0.0-beta.2",
  "updatedAt": "2018-11-25T22:53:41.266Z",
  "devdoc": {
    "methods": {
      "constructor": {
        "params": {
          "_alarmClock": "The alarm clock with exclusive permission to trigger an event"
        }
      }
    }
  },
  "userdoc": {
    "methods": {},
    "notice": "to call the default function thus emitting an event."
  }
}