{
  "contractName": "ExampleTask",
  "abi": [
    {
      "anonymous": false,
      "inputs": [
        {
          "indexed": false,
          "name": "caller",
          "type": "address"
        },
        {
          "indexed": false,
          "name": "message",
          "type": "string"
        },
        {
          "indexed": false,
          "name": "msgValue",
          "type": "uint256"
        }
      ],
      "name": "Trigger_event",
      "type": "event"
    },
    {
      "constant": false,
      "inputs": [
        {
          "name": "message",
          "type": "string"
        }
      ],
      "name": "example",
      "outputs": [],
      "payable": true,
      "stateMutability": "payable",
      "type": "function"
    }
  ],
  "bytecode": "0x608060405234801561001057600080fd5b5061024f806100206000396000f3fe608060405260043610610041576000357c0100000000000000000000000000000000000000000000000000000000900463ffffffff168063bd1c915714610046575b600080fd5b6100ff6004803603602081101561005c57600080fd5b810190808035906020019064010000000081111561007957600080fd5b82018360208201111561008b57600080fd5b803590602001918460018302840111640100000000831117156100ad57600080fd5b91908080601f016020809104026020016040519081016040528093929190818152602001838380828437600081840152601f19601f820116905080830192505050505050509192919290505050610101565b005b3373ffffffffffffffffffffffffffffffffffffffff166108fc349081150290604051600060405180830381858888f19350505050158015610147573d6000803e3d6000fd5b507fc50be34a1516dcf47c04d18dd6cfaec0bf561bd0afef7d9e1308895600b2bc4e338234604051808473ffffffffffffffffffffffffffffffffffffffff1673ffffffffffffffffffffffffffffffffffffffff16815260200180602001838152602001828103825284818151815260200191508051906020019080838360005b838110156101e45780820151818401526020810190506101c9565b50505050905090810190601f1680156102115780820380516001836020036101000a031916815260200191505b5094505050505060405180910390a15056fea165627a7a723058202b5b6022457f9021dfac988290855c11a7cb4fc79a3c767ff0951c3d2dd1abb90029",
  "source": "pragma solidity ^0.5.0;\n\n/// @title ExampleTask Contract\n/// @author Joseph Reed\n/// @dev This contract is a simple example task that waits for an alarm clock\n///      to call a function thus emitting an example event.\ncontract ExampleTask {\n\n    function example (string memory message) public payable {\n        msg.sender.transfer(msg.value);\n        emit Trigger_event(msg.sender, message, msg.value);\n    }\n\n    event Trigger_event(address caller, string message, uint msgValue);\n\n}",
  "sourcePath": "/home/joe/Documents/github/everchain-project/recurring-transactions/contracts/tests/ExampleTask.sol",
  "compiler": {
    "name": "solc",
    "version": "0.5.0+commit.1d4f565a.Emscripten.clang"
  },
  "schemaVersion": "3.0.9",
  "updatedAt": "2019-05-14T22:16:21.136Z",
  "devdoc": {
    "author": "Joseph Reed",
    "details": "This contract is a simple example task that waits for an alarm clock      to call a function thus emitting an example event.",
    "methods": {},
    "title": "ExampleTask Contract"
  },
  "userdoc": {
    "methods": {}
  }
}