{
  "contractName": "FuturePaymentDelegate",
  "abi": [
    {
      "constant": true,
      "inputs": [],
      "name": "listFactory",
      "outputs": [
        {
          "name": "",
          "type": "address"
        }
      ],
      "payable": false,
      "stateMutability": "view",
      "type": "function"
    },
    {
      "constant": true,
      "inputs": [],
      "name": "blockCreated",
      "outputs": [
        {
          "name": "",
          "type": "uint256"
        }
      ],
      "payable": false,
      "stateMutability": "view",
      "type": "function"
    },
    {
      "constant": true,
      "inputs": [
        {
          "name": "",
          "type": "address"
        }
      ],
      "name": "incoming",
      "outputs": [
        {
          "name": "",
          "type": "address"
        }
      ],
      "payable": false,
      "stateMutability": "view",
      "type": "function"
    },
    {
      "constant": true,
      "inputs": [],
      "name": "trustedSchedulers",
      "outputs": [
        {
          "name": "",
          "type": "address"
        }
      ],
      "payable": false,
      "stateMutability": "view",
      "type": "function"
    },
    {
      "constant": true,
      "inputs": [
        {
          "name": "",
          "type": "address"
        }
      ],
      "name": "outgoing",
      "outputs": [
        {
          "name": "",
          "type": "address"
        }
      ],
      "payable": false,
      "stateMutability": "view",
      "type": "function"
    },
    {
      "anonymous": false,
      "inputs": [
        {
          "indexed": true,
          "name": "delegate",
          "type": "address"
        },
        {
          "indexed": true,
          "name": "wallet",
          "type": "address"
        },
        {
          "indexed": false,
          "name": "payment",
          "type": "address"
        }
      ],
      "name": "Schedule_event",
      "type": "event"
    },
    {
      "anonymous": false,
      "inputs": [
        {
          "indexed": true,
          "name": "delegate",
          "type": "address"
        },
        {
          "indexed": true,
          "name": "wallet",
          "type": "address"
        },
        {
          "indexed": false,
          "name": "payment",
          "type": "address"
        }
      ],
      "name": "Unschedule_event",
      "type": "event"
    },
    {
      "anonymous": false,
      "inputs": [
        {
          "indexed": true,
          "name": "payment",
          "type": "address"
        },
        {
          "indexed": false,
          "name": "amount",
          "type": "uint256"
        }
      ],
      "name": "Payment_event",
      "type": "event"
    },
    {
      "constant": false,
      "inputs": [
        {
          "name": "_listFactory",
          "type": "address"
        },
        {
          "name": "_trustedSchedulers",
          "type": "address"
        }
      ],
      "name": "initialize",
      "outputs": [],
      "payable": false,
      "stateMutability": "nonpayable",
      "type": "function"
    },
    {
      "constant": false,
      "inputs": [
        {
          "name": "token",
          "type": "address"
        },
        {
          "name": "recipient",
          "type": "address"
        },
        {
          "name": "amount",
          "type": "uint256"
        }
      ],
      "name": "transfer",
      "outputs": [
        {
          "name": "success",
          "type": "bool"
        }
      ],
      "payable": false,
      "stateMutability": "nonpayable",
      "type": "function"
    },
    {
      "constant": false,
      "inputs": [
        {
          "name": "payment",
          "type": "address"
        }
      ],
      "name": "schedule",
      "outputs": [
        {
          "name": "",
          "type": "bool"
        }
      ],
      "payable": false,
      "stateMutability": "nonpayable",
      "type": "function"
    },
    {
      "constant": false,
      "inputs": [],
      "name": "unschedule",
      "outputs": [
        {
          "name": "",
          "type": "bool"
        }
      ],
      "payable": false,
      "stateMutability": "nonpayable",
      "type": "function"
    },
    {
      "constant": false,
      "inputs": [
        {
          "name": "payment",
          "type": "address"
        }
      ],
      "name": "unschedule",
      "outputs": [
        {
          "name": "",
          "type": "bool"
        }
      ],
      "payable": false,
      "stateMutability": "nonpayable",
      "type": "function"
    }
  ],
  "bytecode": "0x608060405234801561001057600080fd5b50611d90806100206000396000f3006080604052600436106100a4576000357c0100000000000000000000000000000000000000000000000000000000900463ffffffff168063316bef98146100a95780633a4cba1614610104578063485cc9551461015b5780634e989a4c146101be5780634ed86705146101e9578063543bf2521461026c5780639dc76164146102c3578063beabacc814610346578063daf1548c146103cb578063f4c0f413146103fa575b600080fd5b3480156100b557600080fd5b506100ea600480360381019080803573ffffffffffffffffffffffffffffffffffffffff169060200190929190505050610455565b604051808215151515815260200191505060405180910390f35b34801561011057600080fd5b50610119610f58565b604051808273ffffffffffffffffffffffffffffffffffffffff1673ffffffffffffffffffffffffffffffffffffffff16815260200191505060405180910390f35b34801561016757600080fd5b506101bc600480360381019080803573ffffffffffffffffffffffffffffffffffffffff169060200190929190803573ffffffffffffffffffffffffffffffffffffffff169060200190929190505050610f7e565b005b3480156101ca57600080fd5b506101d36110aa565b6040518082815260200191505060405180910390f35b3480156101f557600080fd5b5061022a600480360381019080803573ffffffffffffffffffffffffffffffffffffffff1690602001909291905050506110b0565b604051808273ffffffffffffffffffffffffffffffffffffffff1673ffffffffffffffffffffffffffffffffffffffff16815260200191505060405180910390f35b34801561027857600080fd5b506102816110e3565b604051808273ffffffffffffffffffffffffffffffffffffffff1673ffffffffffffffffffffffffffffffffffffffff16815260200191505060405180910390f35b3480156102cf57600080fd5b50610304600480360381019080803573ffffffffffffffffffffffffffffffffffffffff169060200190929190505050611109565b604051808273ffffffffffffffffffffffffffffffffffffffff1673ffffffffffffffffffffffffffffffffffffffff16815260200191505060405180910390f35b34801561035257600080fd5b506103b1600480360381019080803573ffffffffffffffffffffffffffffffffffffffff169060200190929190803573ffffffffffffffffffffffffffffffffffffffff1690602001909291908035906020019092919050505061113c565b604051808215151515815260200191505060405180910390f35b3480156103d757600080fd5b506103e061134a565b604051808215151515815260200191505060405180910390f35b34801561040657600080fd5b5061043b600480360381019080803573ffffffffffffffffffffffffffffffffffffffff169060200190929190505050611797565b604051808215151515815260200191505060405180910390f35b6000806000600360009054906101000a900473ffffffffffffffffffffffffffffffffffffffff1673ffffffffffffffffffffffffffffffffffffffff16635dbe47e8336040518263ffffffff167c0100000000000000000000000000000000000000000000000000000000028152600401808273ffffffffffffffffffffffffffffffffffffffff1673ffffffffffffffffffffffffffffffffffffffff168152602001915050602060405180830381600087803b15801561051757600080fd5b505af115801561052b573d6000803e3d6000fd5b505050506040513d602081101561054157600080fd5b810190808051906020019092919050505015156105ec576040517f08c379a00000000000000000000000000000000000000000000000000000000081526004018080602001828103825260358152602001807f6f6e6c7920612074727573746564207061796d656e7420666163746f7279206381526020017f616e207363686564756c652061207061796d656e74000000000000000000000081525060400191505060405180910390fd5b8373ffffffffffffffffffffffffffffffffffffffff166366d003ac6040518163ffffffff167c0100000000000000000000000000000000000000000000000000000000028152600401602060405180830381600087803b15801561065057600080fd5b505af1158015610664573d6000803e3d6000fd5b505050506040513d602081101561067a57600080fd5b810190808051906020019092919050505091508373ffffffffffffffffffffffffffffffffffffffff1663521eb2736040518163ffffffff167c0100000000000000000000000000000000000000000000000000000000028152600401602060405180830381600087803b1580156106f157600080fd5b505af1158015610705573d6000803e3d6000fd5b505050506040513d602081101561071b57600080fd5b81019080805190602001909291905050509050600073ffffffffffffffffffffffffffffffffffffffff16600460008473ffffffffffffffffffffffffffffffffffffffff1673ffffffffffffffffffffffffffffffffffffffff16815260200190815260200160002060009054906101000a900473ffffffffffffffffffffffffffffffffffffffff1673ffffffffffffffffffffffffffffffffffffffff1614156109b557600260009054906101000a900473ffffffffffffffffffffffffffffffffffffffff1673ffffffffffffffffffffffffffffffffffffffff16633d5291a23060016040518363ffffffff167c0100000000000000000000000000000000000000000000000000000000028152600401808373ffffffffffffffffffffffffffffffffffffffff1673ffffffffffffffffffffffffffffffffffffffff1681526020018060200182810382528381815481526020019150805480156108db57602002820191906000526020600020905b8160009054906101000a900473ffffffffffffffffffffffffffffffffffffffff1673ffffffffffffffffffffffffffffffffffffffff1681526020019060010190808311610891575b50509350505050602060405180830381600087803b1580156108fc57600080fd5b505af1158015610910573d6000803e3d6000fd5b505050506040513d602081101561092657600080fd5b8101908080519060200190929190505050600460008473ffffffffffffffffffffffffffffffffffffffff1673ffffffffffffffffffffffffffffffffffffffff16815260200190815260200160002060006101000a81548173ffffffffffffffffffffffffffffffffffffffff021916908373ffffffffffffffffffffffffffffffffffffffff1602179055505b600073ffffffffffffffffffffffffffffffffffffffff16600560008373ffffffffffffffffffffffffffffffffffffffff1673ffffffffffffffffffffffffffffffffffffffff16815260200190815260200160002060009054906101000a900473ffffffffffffffffffffffffffffffffffffffff1673ffffffffffffffffffffffffffffffffffffffff161415610c3c57600260009054906101000a900473ffffffffffffffffffffffffffffffffffffffff1673ffffffffffffffffffffffffffffffffffffffff16633d5291a23060016040518363ffffffff167c0100000000000000000000000000000000000000000000000000000000028152600401808373ffffffffffffffffffffffffffffffffffffffff1673ffffffffffffffffffffffffffffffffffffffff168152602001806020018281038252838181548152602001915080548015610b6257602002820191906000526020600020905b8160009054906101000a900473ffffffffffffffffffffffffffffffffffffffff1673ffffffffffffffffffffffffffffffffffffffff1681526020019060010190808311610b18575b50509350505050602060405180830381600087803b158015610b8357600080fd5b505af1158015610b97573d6000803e3d6000fd5b505050506040513d6020811015610bad57600080fd5b8101908080519060200190929190505050600560008373ffffffffffffffffffffffffffffffffffffffff1673ffffffffffffffffffffffffffffffffffffffff16815260200190815260200160002060006101000a81548173ffffffffffffffffffffffffffffffffffffffff021916908373ffffffffffffffffffffffffffffffffffffffff1602179055505b600460008373ffffffffffffffffffffffffffffffffffffffff1673ffffffffffffffffffffffffffffffffffffffff16815260200190815260200160002060009054906101000a900473ffffffffffffffffffffffffffffffffffffffff1673ffffffffffffffffffffffffffffffffffffffff16630a3b0a4f856040518263ffffffff167c0100000000000000000000000000000000000000000000000000000000028152600401808273ffffffffffffffffffffffffffffffffffffffff1673ffffffffffffffffffffffffffffffffffffffff168152602001915050602060405180830381600087803b158015610d3657600080fd5b505af1158015610d4a573d6000803e3d6000fd5b505050506040513d6020811015610d6057600080fd5b81019080805190602001909291905050501515610d7c57600080fd5b600560008273ffffffffffffffffffffffffffffffffffffffff1673ffffffffffffffffffffffffffffffffffffffff16815260200190815260200160002060009054906101000a900473ffffffffffffffffffffffffffffffffffffffff1673ffffffffffffffffffffffffffffffffffffffff16630a3b0a4f856040518263ffffffff167c0100000000000000000000000000000000000000000000000000000000028152600401808273ffffffffffffffffffffffffffffffffffffffff1673ffffffffffffffffffffffffffffffffffffffff168152602001915050602060405180830381600087803b158015610e7657600080fd5b505af1158015610e8a573d6000803e3d6000fd5b505050506040513d6020811015610ea057600080fd5b81019080805190602001909291905050501515610ebc57600080fd5b8073ffffffffffffffffffffffffffffffffffffffff163373ffffffffffffffffffffffffffffffffffffffff167feeff87c17b7a01ed28c42162e95c1b9c8f15ac5b7ba59b6ba8fc617d703e35c086604051808273ffffffffffffffffffffffffffffffffffffffff1673ffffffffffffffffffffffffffffffffffffffff16815260200191505060405180910390a3600192505050919050565b600260009054906101000a900473ffffffffffffffffffffffffffffffffffffffff1681565b6000805414151561101d576040517f08c379a00000000000000000000000000000000000000000000000000000000081526004018080602001828103825260258152602001807f636f6e74726163742063616e206f6e6c7920626520696e697469616c697a656481526020017f206f6e636500000000000000000000000000000000000000000000000000000081525060400191505060405180910390fd5b81600260006101000a81548173ffffffffffffffffffffffffffffffffffffffff021916908373ffffffffffffffffffffffffffffffffffffffff16021790555080600360006101000a81548173ffffffffffffffffffffffffffffffffffffffff021916908373ffffffffffffffffffffffffffffffffffffffff160217905550436000819055505050565b60005481565b60046020528060005260406000206000915054906101000a900473ffffffffffffffffffffffffffffffffffffffff1681565b600360009054906101000a900473ffffffffffffffffffffffffffffffffffffffff1681565b60056020528060005260406000206000915054906101000a900473ffffffffffffffffffffffffffffffffffffffff1681565b6000803390508073ffffffffffffffffffffffffffffffffffffffff1663521eb2736040518163ffffffff167c0100000000000000000000000000000000000000000000000000000000028152600401602060405180830381600087803b1580156111a657600080fd5b505af11580156111ba573d6000803e3d6000fd5b505050506040513d60208110156111d057600080fd5b810190808051906020019092919050505073ffffffffffffffffffffffffffffffffffffffff1663beabacc88686866040518463ffffffff167c0100000000000000000000000000000000000000000000000000000000028152600401808473ffffffffffffffffffffffffffffffffffffffff1673ffffffffffffffffffffffffffffffffffffffff1681526020018373ffffffffffffffffffffffffffffffffffffffff1673ffffffffffffffffffffffffffffffffffffffff1681526020018281526020019350505050602060405180830381600087803b1580156112b757600080fd5b505af11580156112cb573d6000803e3d6000fd5b505050506040513d60208110156112e157600080fd5b810190808051906020019092919050505091508073ffffffffffffffffffffffffffffffffffffffff167fe2aa6c81779d0c7fea54d8869aacdb2c4d59d019fb720149ae5dba597bf650ba846040518082815260200191505060405180910390a2509392505050565b60008060003391508173ffffffffffffffffffffffffffffffffffffffff1663521eb2736040518163ffffffff167c0100000000000000000000000000000000000000000000000000000000028152600401602060405180830381600087803b1580156113b657600080fd5b505af11580156113ca573d6000803e3d6000fd5b505050506040513d60208110156113e057600080fd5b81019080805190602001909291905050509050600560008273ffffffffffffffffffffffffffffffffffffffff1673ffffffffffffffffffffffffffffffffffffffff16815260200190815260200160002060009054906101000a900473ffffffffffffffffffffffffffffffffffffffff1673ffffffffffffffffffffffffffffffffffffffff166329092d0e836040518263ffffffff167c0100000000000000000000000000000000000000000000000000000000028152600401808273ffffffffffffffffffffffffffffffffffffffff1673ffffffffffffffffffffffffffffffffffffffff168152602001915050602060405180830381600087803b1580156114ed57600080fd5b505af1158015611501573d6000803e3d6000fd5b505050506040513d602081101561151757600080fd5b810190808051906020019092919050505050600460008373ffffffffffffffffffffffffffffffffffffffff166366d003ac6040518163ffffffff167c0100000000000000000000000000000000000000000000000000000000028152600401602060405180830381600087803b15801561159157600080fd5b505af11580156115a5573d6000803e3d6000fd5b505050506040513d60208110156115bb57600080fd5b810190808051906020019092919050505073ffffffffffffffffffffffffffffffffffffffff1673ffffffffffffffffffffffffffffffffffffffff16815260200190815260200160002060009054906101000a900473ffffffffffffffffffffffffffffffffffffffff1673ffffffffffffffffffffffffffffffffffffffff166329092d0e836040518263ffffffff167c0100000000000000000000000000000000000000000000000000000000028152600401808273ffffffffffffffffffffffffffffffffffffffff1673ffffffffffffffffffffffffffffffffffffffff168152602001915050602060405180830381600087803b1580156116c157600080fd5b505af11580156116d5573d6000803e3d6000fd5b505050506040513d60208110156116eb57600080fd5b8101908080519060200190929190505050508073ffffffffffffffffffffffffffffffffffffffff168273ffffffffffffffffffffffffffffffffffffffff167f8a8b9b9f0d7621ac2e305c16bb0e3a588357ead602db12ff673dafee6ec0924d84604051808273ffffffffffffffffffffffffffffffffffffffff1673ffffffffffffffffffffffffffffffffffffffff16815260200191505060405180910390a360019250505090565b6000808273ffffffffffffffffffffffffffffffffffffffff1663521eb2736040518163ffffffff167c0100000000000000000000000000000000000000000000000000000000028152600401602060405180830381600087803b1580156117fe57600080fd5b505af1158015611812573d6000803e3d6000fd5b505050506040513d602081101561182857600080fd5b810190808051906020019092919050505090508073ffffffffffffffffffffffffffffffffffffffff166307779627336040518263ffffffff167c0100000000000000000000000000000000000000000000000000000000028152600401808273ffffffffffffffffffffffffffffffffffffffff1673ffffffffffffffffffffffffffffffffffffffff168152602001915050602060405180830381600087803b1580156118d657600080fd5b505af11580156118ea573d6000803e3d6000fd5b505050506040513d602081101561190057600080fd5b810190808051906020019092919050505015156119ab576040517f08c379a00000000000000000000000000000000000000000000000000000000081526004018080602001828103825260288152602001807f6f6e6c7920612064656c65676174652063616e20756e7363686564756c65206181526020017f207061796d656e7400000000000000000000000000000000000000000000000081525060400191505060405180910390fd5b600560008273ffffffffffffffffffffffffffffffffffffffff1673ffffffffffffffffffffffffffffffffffffffff16815260200190815260200160002060009054906101000a900473ffffffffffffffffffffffffffffffffffffffff1673ffffffffffffffffffffffffffffffffffffffff166329092d0e846040518263ffffffff167c0100000000000000000000000000000000000000000000000000000000028152600401808273ffffffffffffffffffffffffffffffffffffffff1673ffffffffffffffffffffffffffffffffffffffff168152602001915050602060405180830381600087803b158015611aa557600080fd5b505af1158015611ab9573d6000803e3d6000fd5b505050506040513d6020811015611acf57600080fd5b81019080805190602001909291905050501515611aeb57600080fd5b600460008473ffffffffffffffffffffffffffffffffffffffff166366d003ac6040518163ffffffff167c0100000000000000000000000000000000000000000000000000000000028152600401602060405180830381600087803b158015611b5357600080fd5b505af1158015611b67573d6000803e3d6000fd5b505050506040513d6020811015611b7d57600080fd5b810190808051906020019092919050505073ffffffffffffffffffffffffffffffffffffffff1673ffffffffffffffffffffffffffffffffffffffff16815260200190815260200160002060009054906101000a900473ffffffffffffffffffffffffffffffffffffffff1673ffffffffffffffffffffffffffffffffffffffff166329092d0e846040518263ffffffff167c0100000000000000000000000000000000000000000000000000000000028152600401808273ffffffffffffffffffffffffffffffffffffffff1673ffffffffffffffffffffffffffffffffffffffff168152602001915050602060405180830381600087803b158015611c8357600080fd5b505af1158015611c97573d6000803e3d6000fd5b505050506040513d6020811015611cad57600080fd5b81019080805190602001909291905050501515611cc957600080fd5b8073ffffffffffffffffffffffffffffffffffffffff168373ffffffffffffffffffffffffffffffffffffffff167f8a8b9b9f0d7621ac2e305c16bb0e3a588357ead602db12ff673dafee6ec0924d85604051808273ffffffffffffffffffffffffffffffffffffffff1673ffffffffffffffffffffffffffffffffffffffff16815260200191505060405180910390a360019150509190505600a165627a7a72305820ced12b9c74949a9d5626a54602d9e5dc95523e73232b3799d6c9361d4d4319800029",
  "source": "pragma solidity ^0.4.23;\r\n\r\nimport \"./utility/AddressListFactory.sol\";\r\nimport \"./Interfaces.sol\";\r\n\r\ncontract FuturePaymentDelegate is IFuturePaymentDelegate {\r\n\r\n    uint public blockCreated;\r\n    address[] emptyList;\r\n    \r\n    AddressListFactory public listFactory;\r\n    AddressList public trustedSchedulers;\r\n\r\n    mapping (address => AddressList) public incoming;\r\n    mapping (address => AddressList) public outgoing;\r\n\r\n    function initialize (AddressListFactory _listFactory, AddressList _trustedSchedulers) public {\r\n        require(blockCreated == 0, \"contract can only be initialized once\");\r\n\r\n        listFactory = _listFactory;\r\n        trustedSchedulers = _trustedSchedulers;\r\n\r\n        blockCreated = block.number;\r\n    }\r\n\r\n    function transfer (address token, address recipient, uint amount) public returns (bool success) {\r\n        IFuturePayment payment = IFuturePayment(msg.sender);\r\n        success = payment.wallet().transfer(token, recipient, amount);\r\n        emit Payment_event(payment, amount);\r\n    }\r\n\r\n    function schedule (IFuturePayment payment) public onlyTrustedSchedulers returns (bool) {\r\n        address recipient = payment.recipient();\r\n        IDelegatedWallet wallet = payment.wallet();\r\n\r\n        if(incoming[recipient] == address(0x0))\r\n            incoming[recipient] = listFactory.createAddressList(this, emptyList);\r\n\r\n        if(outgoing[wallet] == address(0x0))\r\n            outgoing[wallet] = listFactory.createAddressList(this, emptyList);\r\n\r\n        require(incoming[recipient].add(payment));\r\n        require(outgoing[wallet].add(payment));\r\n\r\n        emit Schedule_event(msg.sender, wallet, payment);\r\n\r\n        return true;\r\n    }\r\n    \r\n    function unschedule (IFuturePayment payment) public returns (bool) {\r\n        IDelegatedWallet wallet = payment.wallet();\r\n        require(wallet.isDelegate(msg.sender), \"only a delegate can unschedule a payment\");\r\n        require(outgoing[wallet].remove(payment));\r\n        require(incoming[payment.recipient()].remove(payment));\r\n\r\n        emit Unschedule_event(payment, wallet, payment);\r\n\r\n        return true;\r\n    }\r\n\r\n    function unschedule () public returns (bool) {\r\n        IFuturePayment payment = IFuturePayment(msg.sender);\r\n        IDelegatedWallet wallet = payment.wallet();\r\n        outgoing[wallet].remove(payment);\r\n        incoming[payment.recipient()].remove(payment);\r\n\r\n        emit Unschedule_event(payment, wallet, payment);\r\n\r\n        return true;\r\n    }\r\n\r\n    modifier onlyTrustedSchedulers () {\r\n        require(trustedSchedulers.contains(msg.sender), \"only a trusted payment factory can schedule a payment\");\r\n        _;\r\n    }\r\n\r\n    event Schedule_event (address indexed delegate, IDelegatedWallet indexed wallet, IFuturePayment payment);\r\n    event Unschedule_event (address indexed delegate, IDelegatedWallet indexed wallet, IFuturePayment payment);\r\n    event Payment_event (IFuturePayment indexed payment, uint amount);\r\n\r\n}\r\n",
  "sourcePath": "C:\\Users\\My\\Documents\\GitHub\\everchain-project\\recurring-alarm-clock\\contracts\\FuturePaymentDelegate.sol",
  "compiler": {
    "name": "solc",
    "version": "0.4.24+commit.e67f0147.Emscripten.clang"
  },
  "schemaVersion": "2.0.1",
  "updatedAt": "2018-10-07T04:51:18.073Z"
}