{
  "contractName": "FuturePaymentDelegate",
  "abi": [
    {
      "constant": true,
      "inputs": [],
      "name": "initialized",
      "outputs": [
        {
          "name": "",
          "type": "bool"
        }
      ],
      "payable": false,
      "stateMutability": "view",
      "type": "function"
    },
    {
      "constant": true,
      "inputs": [],
      "name": "listFactory",
      "outputs": [
        {
          "name": "",
          "type": "address"
        }
      ],
      "payable": false,
      "stateMutability": "view",
      "type": "function"
    },
    {
      "constant": true,
      "inputs": [
        {
          "name": "",
          "type": "address"
        }
      ],
      "name": "walletLookup",
      "outputs": [
        {
          "name": "",
          "type": "address"
        }
      ],
      "payable": false,
      "stateMutability": "view",
      "type": "function"
    },
    {
      "constant": true,
      "inputs": [
        {
          "name": "",
          "type": "address"
        }
      ],
      "name": "payments",
      "outputs": [
        {
          "name": "",
          "type": "address"
        }
      ],
      "payable": false,
      "stateMutability": "view",
      "type": "function"
    },
    {
      "constant": true,
      "inputs": [],
      "name": "trustedFactories",
      "outputs": [
        {
          "name": "",
          "type": "address"
        }
      ],
      "payable": false,
      "stateMutability": "view",
      "type": "function"
    },
    {
      "anonymous": false,
      "inputs": [
        {
          "indexed": true,
          "name": "delegate",
          "type": "address"
        },
        {
          "indexed": true,
          "name": "wallet",
          "type": "address"
        },
        {
          "indexed": false,
          "name": "payment",
          "type": "address"
        }
      ],
      "name": "schedule_event",
      "type": "event"
    },
    {
      "anonymous": false,
      "inputs": [
        {
          "indexed": true,
          "name": "delegate",
          "type": "address"
        },
        {
          "indexed": true,
          "name": "wallet",
          "type": "address"
        },
        {
          "indexed": false,
          "name": "payment",
          "type": "address"
        }
      ],
      "name": "unschedule_event",
      "type": "event"
    },
    {
      "constant": false,
      "inputs": [
        {
          "name": "_listFactory",
          "type": "address"
        },
        {
          "name": "_trustedFactories",
          "type": "address"
        }
      ],
      "name": "initialize",
      "outputs": [],
      "payable": false,
      "stateMutability": "nonpayable",
      "type": "function"
    },
    {
      "constant": false,
      "inputs": [
        {
          "name": "token",
          "type": "address"
        },
        {
          "name": "recipient",
          "type": "address"
        },
        {
          "name": "amount",
          "type": "uint256"
        }
      ],
      "name": "transfer",
      "outputs": [
        {
          "name": "",
          "type": "bool"
        }
      ],
      "payable": false,
      "stateMutability": "nonpayable",
      "type": "function"
    },
    {
      "constant": false,
      "inputs": [
        {
          "name": "payment",
          "type": "address"
        },
        {
          "name": "wallet",
          "type": "address"
        }
      ],
      "name": "schedule",
      "outputs": [
        {
          "name": "success",
          "type": "bool"
        }
      ],
      "payable": false,
      "stateMutability": "nonpayable",
      "type": "function"
    },
    {
      "constant": false,
      "inputs": [
        {
          "name": "payment",
          "type": "address"
        }
      ],
      "name": "unschedule",
      "outputs": [
        {
          "name": "success",
          "type": "bool"
        }
      ],
      "payable": false,
      "stateMutability": "nonpayable",
      "type": "function"
    },
    {
      "constant": false,
      "inputs": [],
      "name": "finished",
      "outputs": [
        {
          "name": "success",
          "type": "bool"
        }
      ],
      "payable": false,
      "stateMutability": "nonpayable",
      "type": "function"
    }
  ],
  "bytecode": "0x608060405234801561001057600080fd5b50611523806100206000396000f3006080604052600436106100a4576000357c0100000000000000000000000000000000000000000000000000000000900463ffffffff168063158ef93e146100a95780632b65849c146100d85780633a4cba1614610153578063485cc955146101aa57806360889a521461020d578063beabacc814610290578063bef4876b14610315578063e2982c2114610344578063f4c0f413146103c7578063fffae5ec14610422575b600080fd5b3480156100b557600080fd5b506100be610479565b604051808215151515815260200191505060405180910390f35b3480156100e457600080fd5b50610139600480360381019080803573ffffffffffffffffffffffffffffffffffffffff169060200190929190803573ffffffffffffffffffffffffffffffffffffffff16906020019092919050505061048b565b604051808215151515815260200191505060405180910390f35b34801561015f57600080fd5b50610168610ac8565b604051808273ffffffffffffffffffffffffffffffffffffffff1673ffffffffffffffffffffffffffffffffffffffff16815260200191505060405180910390f35b3480156101b657600080fd5b5061020b600480360381019080803573ffffffffffffffffffffffffffffffffffffffff169060200190929190803573ffffffffffffffffffffffffffffffffffffffff169060200190929190505050610aee565b005b34801561021957600080fd5b5061024e600480360381019080803573ffffffffffffffffffffffffffffffffffffffff169060200190929190505050610c38565b604051808273ffffffffffffffffffffffffffffffffffffffff1673ffffffffffffffffffffffffffffffffffffffff16815260200191505060405180910390f35b34801561029c57600080fd5b506102fb600480360381019080803573ffffffffffffffffffffffffffffffffffffffff169060200190929190803573ffffffffffffffffffffffffffffffffffffffff16906020019092919080359060200190929190505050610c6b565b604051808215151515815260200191505060405180910390f35b34801561032157600080fd5b5061032a610df2565b604051808215151515815260200191505060405180910390f35b34801561035057600080fd5b50610385600480360381019080803573ffffffffffffffffffffffffffffffffffffffff169060200190929190505050611092565b604051808273ffffffffffffffffffffffffffffffffffffffff1673ffffffffffffffffffffffffffffffffffffffff16815260200191505060405180910390f35b3480156103d357600080fd5b50610408600480360381019080803573ffffffffffffffffffffffffffffffffffffffff1690602001909291905050506110c5565b604051808215151515815260200191505060405180910390f35b34801561042e57600080fd5b506104376114d1565b604051808273ffffffffffffffffffffffffffffffffffffffff1673ffffffffffffffffffffffffffffffffffffffff16815260200191505060405180910390f35b6000809054906101000a900460ff1681565b60006060600160009054906101000a900473ffffffffffffffffffffffffffffffffffffffff1673ffffffffffffffffffffffffffffffffffffffff16635dbe47e8336040518263ffffffff167c0100000000000000000000000000000000000000000000000000000000028152600401808273ffffffffffffffffffffffffffffffffffffffff1673ffffffffffffffffffffffffffffffffffffffff168152602001915050602060405180830381600087803b15801561054c57600080fd5b505af1158015610560573d6000803e3d6000fd5b505050506040513d602081101561057657600080fd5b81019080805190602001909291905050501515610621576040517f08c379a00000000000000000000000000000000000000000000000000000000081526004018080602001828103825260358152602001807f6f6e6c7920612074727573746564207061796d656e7420666163746f7279206381526020017f616e207363686564756c652061207061796d656e74000000000000000000000081525060400191505060405180910390fd5b600073ffffffffffffffffffffffffffffffffffffffff16600360008573ffffffffffffffffffffffffffffffffffffffff1673ffffffffffffffffffffffffffffffffffffffff16815260200190815260200160002060009054906101000a900473ffffffffffffffffffffffffffffffffffffffff1673ffffffffffffffffffffffffffffffffffffffff16141561087457600060019054906101000a900473ffffffffffffffffffffffffffffffffffffffff1673ffffffffffffffffffffffffffffffffffffffff16633d5291a230836040518363ffffffff167c0100000000000000000000000000000000000000000000000000000000028152600401808373ffffffffffffffffffffffffffffffffffffffff1673ffffffffffffffffffffffffffffffffffffffff16815260200180602001828103825283818151815260200191508051906020019060200280838360005b8381101561079557808201518184015260208101905061077a565b505050509050019350505050602060405180830381600087803b1580156107bb57600080fd5b505af11580156107cf573d6000803e3d6000fd5b505050506040513d60208110156107e557600080fd5b8101908080519060200190929190505050600360008573ffffffffffffffffffffffffffffffffffffffff1673ffffffffffffffffffffffffffffffffffffffff16815260200190815260200160002060006101000a81548173ffffffffffffffffffffffffffffffffffffffff021916908373ffffffffffffffffffffffffffffffffffffffff1602179055505b600360008473ffffffffffffffffffffffffffffffffffffffff1673ffffffffffffffffffffffffffffffffffffffff16815260200190815260200160002060009054906101000a900473ffffffffffffffffffffffffffffffffffffffff1673ffffffffffffffffffffffffffffffffffffffff16630a3b0a4f856040518263ffffffff167c0100000000000000000000000000000000000000000000000000000000028152600401808273ffffffffffffffffffffffffffffffffffffffff1673ffffffffffffffffffffffffffffffffffffffff168152602001915050602060405180830381600087803b15801561096e57600080fd5b505af1158015610982573d6000803e3d6000fd5b505050506040513d602081101561099857600080fd5b810190808051906020019092919050505091508115610ac15782600260008673ffffffffffffffffffffffffffffffffffffffff1673ffffffffffffffffffffffffffffffffffffffff16815260200190815260200160002060006101000a81548173ffffffffffffffffffffffffffffffffffffffff021916908373ffffffffffffffffffffffffffffffffffffffff1602179055508273ffffffffffffffffffffffffffffffffffffffff163373ffffffffffffffffffffffffffffffffffffffff167f227b1c358ea32788b5316d84c6ce02c3758b9988d30f9e3d832519e61033aebc86604051808273ffffffffffffffffffffffffffffffffffffffff1673ffffffffffffffffffffffffffffffffffffffff16815260200191505060405180910390a35b5092915050565b600060019054906101000a900473ffffffffffffffffffffffffffffffffffffffff1681565b6000809054906101000a900460ff16151515610b98576040517f08c379a00000000000000000000000000000000000000000000000000000000081526004018080602001828103825260258152602001807f636f6e74726163742063616e206f6e6c7920626520696e697469616c697a656481526020017f206f6e636500000000000000000000000000000000000000000000000000000081525060400191505060405180910390fd5b81600060016101000a81548173ffffffffffffffffffffffffffffffffffffffff021916908373ffffffffffffffffffffffffffffffffffffffff16021790555080600160006101000a81548173ffffffffffffffffffffffffffffffffffffffff021916908373ffffffffffffffffffffffffffffffffffffffff16021790555060016000806101000a81548160ff0219169083151502179055505050565b60026020528060005260406000206000915054906101000a900473ffffffffffffffffffffffffffffffffffffffff1681565b6000806000339150600260008373ffffffffffffffffffffffffffffffffffffffff1673ffffffffffffffffffffffffffffffffffffffff16815260200190815260200160002060009054906101000a900473ffffffffffffffffffffffffffffffffffffffff1690508073ffffffffffffffffffffffffffffffffffffffff1663beabacc88787876040518463ffffffff167c0100000000000000000000000000000000000000000000000000000000028152600401808473ffffffffffffffffffffffffffffffffffffffff1673ffffffffffffffffffffffffffffffffffffffff1681526020018373ffffffffffffffffffffffffffffffffffffffff1673ffffffffffffffffffffffffffffffffffffffff1681526020018281526020019350505050602060405180830381600087803b158015610dac57600080fd5b505af1158015610dc0573d6000803e3d6000fd5b505050506040513d6020811015610dd657600080fd5b8101908080519060200190929190505050925050509392505050565b6000806000339150600260008373ffffffffffffffffffffffffffffffffffffffff1673ffffffffffffffffffffffffffffffffffffffff16815260200190815260200160002060009054906101000a900473ffffffffffffffffffffffffffffffffffffffff169050600360008273ffffffffffffffffffffffffffffffffffffffff1673ffffffffffffffffffffffffffffffffffffffff16815260200190815260200160002060009054906101000a900473ffffffffffffffffffffffffffffffffffffffff1673ffffffffffffffffffffffffffffffffffffffff166329092d0e836040518263ffffffff167c0100000000000000000000000000000000000000000000000000000000028152600401808273ffffffffffffffffffffffffffffffffffffffff1673ffffffffffffffffffffffffffffffffffffffff168152602001915050602060405180830381600087803b158015610f5657600080fd5b505af1158015610f6a573d6000803e3d6000fd5b505050506040513d6020811015610f8057600080fd5b81019080805190602001909291905050509250821561108d57600260008373ffffffffffffffffffffffffffffffffffffffff1673ffffffffffffffffffffffffffffffffffffffff16815260200190815260200160002060006101000a81549073ffffffffffffffffffffffffffffffffffffffff02191690558073ffffffffffffffffffffffffffffffffffffffff168273ffffffffffffffffffffffffffffffffffffffff167f273b68052a341970a63ccaa7d364f8a84a7f024e70a5cc332077b68b691991db84604051808273ffffffffffffffffffffffffffffffffffffffff1673ffffffffffffffffffffffffffffffffffffffff16815260200191505060405180910390a35b505090565b60036020528060005260406000206000915054906101000a900473ffffffffffffffffffffffffffffffffffffffff1681565b600080600260008473ffffffffffffffffffffffffffffffffffffffff1673ffffffffffffffffffffffffffffffffffffffff16815260200190815260200160002060009054906101000a900473ffffffffffffffffffffffffffffffffffffffff1690508073ffffffffffffffffffffffffffffffffffffffff166307779627336040518263ffffffff167c0100000000000000000000000000000000000000000000000000000000028152600401808273ffffffffffffffffffffffffffffffffffffffff1673ffffffffffffffffffffffffffffffffffffffff168152602001915050602060405180830381600087803b1580156111c557600080fd5b505af11580156111d9573d6000803e3d6000fd5b505050506040513d60208110156111ef57600080fd5b8101908080519060200190929190505050151561129a576040517f08c379a00000000000000000000000000000000000000000000000000000000081526004018080602001828103825260288152602001807f6f6e6c7920612064656c65676174652063616e20756e7363686564756c65206181526020017f207061796d656e7400000000000000000000000000000000000000000000000081525060400191505060405180910390fd5b600360008273ffffffffffffffffffffffffffffffffffffffff1673ffffffffffffffffffffffffffffffffffffffff16815260200190815260200160002060009054906101000a900473ffffffffffffffffffffffffffffffffffffffff1673ffffffffffffffffffffffffffffffffffffffff166329092d0e846040518263ffffffff167c0100000000000000000000000000000000000000000000000000000000028152600401808273ffffffffffffffffffffffffffffffffffffffff1673ffffffffffffffffffffffffffffffffffffffff168152602001915050602060405180830381600087803b15801561139457600080fd5b505af11580156113a8573d6000803e3d6000fd5b505050506040513d60208110156113be57600080fd5b8101908080519060200190929190505050915081156114cb57600260008473ffffffffffffffffffffffffffffffffffffffff1673ffffffffffffffffffffffffffffffffffffffff16815260200190815260200160002060006101000a81549073ffffffffffffffffffffffffffffffffffffffff02191690558073ffffffffffffffffffffffffffffffffffffffff168373ffffffffffffffffffffffffffffffffffffffff167f273b68052a341970a63ccaa7d364f8a84a7f024e70a5cc332077b68b691991db85604051808273ffffffffffffffffffffffffffffffffffffffff1673ffffffffffffffffffffffffffffffffffffffff16815260200191505060405180910390a35b50919050565b600160009054906101000a900473ffffffffffffffffffffffffffffffffffffffff16815600a165627a7a72305820a8e2df9def69ef3cc0119e4f1a1265c415d2ffe65e03f2934fea7c984545edcc0029",
  "source": "pragma solidity ^0.4.23;\r\n\r\nimport \"./utility/AddressList.sol\";\r\nimport \"./utility/AddressListFactory.sol\";\r\nimport \"./Interfaces.sol\";\r\n\r\ncontract FuturePaymentDelegate is IFuturePaymentDelegate {\r\n\r\n    bool public initialized;\r\n\r\n    AddressListFactory public listFactory;\r\n    AddressList public trustedFactories;\r\n\r\n    mapping (address => IDelegatedWallet) public walletLookup;\r\n    mapping (address => AddressList) public payments;\r\n\r\n    function initialize (\r\n        AddressListFactory _listFactory,\r\n        AddressList _trustedFactories\r\n    ) public {\r\n        require(!initialized, \"contract can only be initialized once\");\r\n\r\n        listFactory = _listFactory;\r\n        trustedFactories = _trustedFactories;\r\n\r\n        initialized = true;\r\n    }\r\n\r\n    function transfer (address token, address recipient, uint amount) public returns (bool) {\r\n        IFuturePayment payment = IFuturePayment(msg.sender);\r\n        IDelegatedWallet wallet = walletLookup[payment];\r\n        return wallet.transfer(token, recipient, amount);\r\n    }\r\n\r\n    function schedule (IFuturePayment payment, IDelegatedWallet wallet) public onlyTrustedFactories returns (bool success) {\r\n        if(payments[wallet] == address(0x0)) {\r\n            address[] memory emptyList;\r\n            payments[wallet] = listFactory.createAddressList(this, emptyList);\r\n        }\r\n\r\n        success = payments[wallet].add(payment);\r\n\r\n        if(success) {\r\n            walletLookup[payment] = wallet;\r\n            emit schedule_event(msg.sender, wallet, payment);\r\n        }\r\n    }\r\n    \r\n    function unschedule (IFuturePayment payment) public returns (bool success) {\r\n        IDelegatedWallet wallet = walletLookup[payment];\r\n        require(wallet.isDelegate(msg.sender), \"only a delegate can unschedule a payment\");\r\n        \r\n        success = payments[wallet].remove(payment);\r\n        if(success){\r\n            delete walletLookup[payment];\r\n            emit unschedule_event(payment, wallet, payment);\r\n        }\r\n    }\r\n\r\n    function finished () public returns (bool success) {\r\n        IFuturePayment payment = IFuturePayment(msg.sender);\r\n        IDelegatedWallet wallet = walletLookup[payment];\r\n        \r\n        success = payments[wallet].remove(payment);\r\n        if(success) {\r\n            delete walletLookup[payment];\r\n            emit unschedule_event(payment, wallet, payment);\r\n        }\r\n    }\r\n\r\n    modifier onlyTrustedFactories () {\r\n        require(trustedFactories.contains(msg.sender), \"only a trusted payment factory can schedule a payment\");\r\n        _;\r\n    }\r\n\r\n    event schedule_event (address indexed delegate, IDelegatedWallet indexed wallet, IFuturePayment payment);\r\n    event unschedule_event (address indexed delegate, IDelegatedWallet indexed wallet, IFuturePayment payment);\r\n\r\n}\r\n",
  "sourcePath": "C:\\Users\\My\\Documents\\GitHub\\everchain-project\\recurring-alarm-clock\\contracts\\FuturePaymentDelegate.sol",
  "compiler": {
    "name": "solc",
    "version": "0.4.24+commit.e67f0147.Emscripten.clang"
  },
  "schemaVersion": "2.0.1",
  "updatedAt": "2018-09-30T19:37:48.703Z"
}