{
  "contractName": "FuturePaymentDelegate",
  "abi": [
    {
      "constant": true,
      "inputs": [],
      "name": "listFactory",
      "outputs": [
        {
          "name": "",
          "type": "address"
        }
      ],
      "payable": false,
      "stateMutability": "view",
      "type": "function"
    },
    {
      "constant": true,
      "inputs": [],
      "name": "blockCreated",
      "outputs": [
        {
          "name": "",
          "type": "uint256"
        }
      ],
      "payable": false,
      "stateMutability": "view",
      "type": "function"
    },
    {
      "constant": true,
      "inputs": [],
      "name": "trustedSchedulers",
      "outputs": [
        {
          "name": "",
          "type": "address"
        }
      ],
      "payable": false,
      "stateMutability": "view",
      "type": "function"
    },
    {
      "constant": true,
      "inputs": [
        {
          "name": "",
          "type": "address"
        }
      ],
      "name": "walletLookup",
      "outputs": [
        {
          "name": "",
          "type": "address"
        }
      ],
      "payable": false,
      "stateMutability": "view",
      "type": "function"
    },
    {
      "constant": true,
      "inputs": [
        {
          "name": "",
          "type": "address"
        }
      ],
      "name": "payments",
      "outputs": [
        {
          "name": "",
          "type": "address"
        }
      ],
      "payable": false,
      "stateMutability": "view",
      "type": "function"
    },
    {
      "anonymous": false,
      "inputs": [
        {
          "indexed": true,
          "name": "delegate",
          "type": "address"
        },
        {
          "indexed": true,
          "name": "wallet",
          "type": "address"
        },
        {
          "indexed": false,
          "name": "payment",
          "type": "address"
        }
      ],
      "name": "schedule_event",
      "type": "event"
    },
    {
      "anonymous": false,
      "inputs": [
        {
          "indexed": true,
          "name": "delegate",
          "type": "address"
        },
        {
          "indexed": true,
          "name": "wallet",
          "type": "address"
        },
        {
          "indexed": false,
          "name": "payment",
          "type": "address"
        }
      ],
      "name": "unschedule_event",
      "type": "event"
    },
    {
      "constant": false,
      "inputs": [
        {
          "name": "_listFactory",
          "type": "address"
        },
        {
          "name": "_trustedSchedulers",
          "type": "address"
        }
      ],
      "name": "initialize",
      "outputs": [],
      "payable": false,
      "stateMutability": "nonpayable",
      "type": "function"
    },
    {
      "constant": false,
      "inputs": [
        {
          "name": "token",
          "type": "address"
        },
        {
          "name": "recipient",
          "type": "address"
        },
        {
          "name": "amount",
          "type": "uint256"
        }
      ],
      "name": "transfer",
      "outputs": [
        {
          "name": "",
          "type": "bool"
        }
      ],
      "payable": false,
      "stateMutability": "nonpayable",
      "type": "function"
    },
    {
      "constant": false,
      "inputs": [
        {
          "name": "payment",
          "type": "address"
        },
        {
          "name": "wallet",
          "type": "address"
        }
      ],
      "name": "schedule",
      "outputs": [
        {
          "name": "success",
          "type": "bool"
        }
      ],
      "payable": false,
      "stateMutability": "nonpayable",
      "type": "function"
    },
    {
      "constant": false,
      "inputs": [],
      "name": "unschedule",
      "outputs": [
        {
          "name": "success",
          "type": "bool"
        }
      ],
      "payable": false,
      "stateMutability": "nonpayable",
      "type": "function"
    },
    {
      "constant": false,
      "inputs": [
        {
          "name": "payment",
          "type": "address"
        }
      ],
      "name": "unschedule",
      "outputs": [
        {
          "name": "success",
          "type": "bool"
        }
      ],
      "payable": false,
      "stateMutability": "nonpayable",
      "type": "function"
    }
  ],
  "bytecode": "0x608060405234801561001057600080fd5b506114f5806100206000396000f3006080604052600436106100a4576000357c0100000000000000000000000000000000000000000000000000000000900463ffffffff1680632b65849c146100a95780633a4cba1614610124578063485cc9551461017b5780634e989a4c146101de578063543bf2521461020957806360889a5214610260578063beabacc8146102e3578063daf1548c14610368578063e2982c2114610397578063f4c0f4131461041a575b600080fd5b3480156100b557600080fd5b5061010a600480360381019080803573ffffffffffffffffffffffffffffffffffffffff169060200190929190803573ffffffffffffffffffffffffffffffffffffffff169060200190929190505050610475565b604051808215151515815260200191505060405180910390f35b34801561013057600080fd5b50610139610ab2565b604051808273ffffffffffffffffffffffffffffffffffffffff1673ffffffffffffffffffffffffffffffffffffffff16815260200191505060405180910390f35b34801561018757600080fd5b506101dc600480360381019080803573ffffffffffffffffffffffffffffffffffffffff169060200190929190803573ffffffffffffffffffffffffffffffffffffffff169060200190929190505050610ad8565b005b3480156101ea57600080fd5b506101f3610c04565b6040518082815260200191505060405180910390f35b34801561021557600080fd5b5061021e610c0a565b604051808273ffffffffffffffffffffffffffffffffffffffff1673ffffffffffffffffffffffffffffffffffffffff16815260200191505060405180910390f35b34801561026c57600080fd5b506102a1600480360381019080803573ffffffffffffffffffffffffffffffffffffffff169060200190929190505050610c30565b604051808273ffffffffffffffffffffffffffffffffffffffff1673ffffffffffffffffffffffffffffffffffffffff16815260200191505060405180910390f35b3480156102ef57600080fd5b5061034e600480360381019080803573ffffffffffffffffffffffffffffffffffffffff169060200190929190803573ffffffffffffffffffffffffffffffffffffffff16906020019092919080359060200190929190505050610c63565b604051808215151515815260200191505060405180910390f35b34801561037457600080fd5b5061037d610dea565b604051808215151515815260200191505060405180910390f35b3480156103a357600080fd5b506103d8600480360381019080803573ffffffffffffffffffffffffffffffffffffffff16906020019092919050505061108a565b604051808273ffffffffffffffffffffffffffffffffffffffff1673ffffffffffffffffffffffffffffffffffffffff16815260200191505060405180910390f35b34801561042657600080fd5b5061045b600480360381019080803573ffffffffffffffffffffffffffffffffffffffff1690602001909291905050506110bd565b604051808215151515815260200191505060405180910390f35b60006060600260009054906101000a900473ffffffffffffffffffffffffffffffffffffffff1673ffffffffffffffffffffffffffffffffffffffff16635dbe47e8336040518263ffffffff167c0100000000000000000000000000000000000000000000000000000000028152600401808273ffffffffffffffffffffffffffffffffffffffff1673ffffffffffffffffffffffffffffffffffffffff168152602001915050602060405180830381600087803b15801561053657600080fd5b505af115801561054a573d6000803e3d6000fd5b505050506040513d602081101561056057600080fd5b8101908080519060200190929190505050151561060b576040517f08c379a00000000000000000000000000000000000000000000000000000000081526004018080602001828103825260358152602001807f6f6e6c7920612074727573746564207061796d656e7420666163746f7279206381526020017f616e207363686564756c652061207061796d656e74000000000000000000000081525060400191505060405180910390fd5b600073ffffffffffffffffffffffffffffffffffffffff16600460008573ffffffffffffffffffffffffffffffffffffffff1673ffffffffffffffffffffffffffffffffffffffff16815260200190815260200160002060009054906101000a900473ffffffffffffffffffffffffffffffffffffffff1673ffffffffffffffffffffffffffffffffffffffff16141561085e57600160009054906101000a900473ffffffffffffffffffffffffffffffffffffffff1673ffffffffffffffffffffffffffffffffffffffff16633d5291a230836040518363ffffffff167c0100000000000000000000000000000000000000000000000000000000028152600401808373ffffffffffffffffffffffffffffffffffffffff1673ffffffffffffffffffffffffffffffffffffffff16815260200180602001828103825283818151815260200191508051906020019060200280838360005b8381101561077f578082015181840152602081019050610764565b505050509050019350505050602060405180830381600087803b1580156107a557600080fd5b505af11580156107b9573d6000803e3d6000fd5b505050506040513d60208110156107cf57600080fd5b8101908080519060200190929190505050600460008573ffffffffffffffffffffffffffffffffffffffff1673ffffffffffffffffffffffffffffffffffffffff16815260200190815260200160002060006101000a81548173ffffffffffffffffffffffffffffffffffffffff021916908373ffffffffffffffffffffffffffffffffffffffff1602179055505b600460008473ffffffffffffffffffffffffffffffffffffffff1673ffffffffffffffffffffffffffffffffffffffff16815260200190815260200160002060009054906101000a900473ffffffffffffffffffffffffffffffffffffffff1673ffffffffffffffffffffffffffffffffffffffff16630a3b0a4f856040518263ffffffff167c0100000000000000000000000000000000000000000000000000000000028152600401808273ffffffffffffffffffffffffffffffffffffffff1673ffffffffffffffffffffffffffffffffffffffff168152602001915050602060405180830381600087803b15801561095857600080fd5b505af115801561096c573d6000803e3d6000fd5b505050506040513d602081101561098257600080fd5b810190808051906020019092919050505091508115610aab5782600360008673ffffffffffffffffffffffffffffffffffffffff1673ffffffffffffffffffffffffffffffffffffffff16815260200190815260200160002060006101000a81548173ffffffffffffffffffffffffffffffffffffffff021916908373ffffffffffffffffffffffffffffffffffffffff1602179055508273ffffffffffffffffffffffffffffffffffffffff163373ffffffffffffffffffffffffffffffffffffffff167f227b1c358ea32788b5316d84c6ce02c3758b9988d30f9e3d832519e61033aebc86604051808273ffffffffffffffffffffffffffffffffffffffff1673ffffffffffffffffffffffffffffffffffffffff16815260200191505060405180910390a35b5092915050565b600160009054906101000a900473ffffffffffffffffffffffffffffffffffffffff1681565b60008054141515610b77576040517f08c379a00000000000000000000000000000000000000000000000000000000081526004018080602001828103825260258152602001807f636f6e74726163742063616e206f6e6c7920626520696e697469616c697a656481526020017f206f6e636500000000000000000000000000000000000000000000000000000081525060400191505060405180910390fd5b81600160006101000a81548173ffffffffffffffffffffffffffffffffffffffff021916908373ffffffffffffffffffffffffffffffffffffffff16021790555080600260006101000a81548173ffffffffffffffffffffffffffffffffffffffff021916908373ffffffffffffffffffffffffffffffffffffffff160217905550436000819055505050565b60005481565b600260009054906101000a900473ffffffffffffffffffffffffffffffffffffffff1681565b60036020528060005260406000206000915054906101000a900473ffffffffffffffffffffffffffffffffffffffff1681565b6000806000339150600360008373ffffffffffffffffffffffffffffffffffffffff1673ffffffffffffffffffffffffffffffffffffffff16815260200190815260200160002060009054906101000a900473ffffffffffffffffffffffffffffffffffffffff1690508073ffffffffffffffffffffffffffffffffffffffff1663beabacc88787876040518463ffffffff167c0100000000000000000000000000000000000000000000000000000000028152600401808473ffffffffffffffffffffffffffffffffffffffff1673ffffffffffffffffffffffffffffffffffffffff1681526020018373ffffffffffffffffffffffffffffffffffffffff1673ffffffffffffffffffffffffffffffffffffffff1681526020018281526020019350505050602060405180830381600087803b158015610da457600080fd5b505af1158015610db8573d6000803e3d6000fd5b505050506040513d6020811015610dce57600080fd5b8101908080519060200190929190505050925050509392505050565b6000806000339150600360008373ffffffffffffffffffffffffffffffffffffffff1673ffffffffffffffffffffffffffffffffffffffff16815260200190815260200160002060009054906101000a900473ffffffffffffffffffffffffffffffffffffffff169050600460008273ffffffffffffffffffffffffffffffffffffffff1673ffffffffffffffffffffffffffffffffffffffff16815260200190815260200160002060009054906101000a900473ffffffffffffffffffffffffffffffffffffffff1673ffffffffffffffffffffffffffffffffffffffff166329092d0e836040518263ffffffff167c0100000000000000000000000000000000000000000000000000000000028152600401808273ffffffffffffffffffffffffffffffffffffffff1673ffffffffffffffffffffffffffffffffffffffff168152602001915050602060405180830381600087803b158015610f4e57600080fd5b505af1158015610f62573d6000803e3d6000fd5b505050506040513d6020811015610f7857600080fd5b81019080805190602001909291905050509250821561108557600360008373ffffffffffffffffffffffffffffffffffffffff1673ffffffffffffffffffffffffffffffffffffffff16815260200190815260200160002060006101000a81549073ffffffffffffffffffffffffffffffffffffffff02191690558073ffffffffffffffffffffffffffffffffffffffff168273ffffffffffffffffffffffffffffffffffffffff167f273b68052a341970a63ccaa7d364f8a84a7f024e70a5cc332077b68b691991db84604051808273ffffffffffffffffffffffffffffffffffffffff1673ffffffffffffffffffffffffffffffffffffffff16815260200191505060405180910390a35b505090565b60046020528060005260406000206000915054906101000a900473ffffffffffffffffffffffffffffffffffffffff1681565b600080600360008473ffffffffffffffffffffffffffffffffffffffff1673ffffffffffffffffffffffffffffffffffffffff16815260200190815260200160002060009054906101000a900473ffffffffffffffffffffffffffffffffffffffff1690508073ffffffffffffffffffffffffffffffffffffffff166307779627336040518263ffffffff167c0100000000000000000000000000000000000000000000000000000000028152600401808273ffffffffffffffffffffffffffffffffffffffff1673ffffffffffffffffffffffffffffffffffffffff168152602001915050602060405180830381600087803b1580156111bd57600080fd5b505af11580156111d1573d6000803e3d6000fd5b505050506040513d60208110156111e757600080fd5b81019080805190602001909291905050501515611292576040517f08c379a00000000000000000000000000000000000000000000000000000000081526004018080602001828103825260288152602001807f6f6e6c7920612064656c65676174652063616e20756e7363686564756c65206181526020017f207061796d656e7400000000000000000000000000000000000000000000000081525060400191505060405180910390fd5b600460008273ffffffffffffffffffffffffffffffffffffffff1673ffffffffffffffffffffffffffffffffffffffff16815260200190815260200160002060009054906101000a900473ffffffffffffffffffffffffffffffffffffffff1673ffffffffffffffffffffffffffffffffffffffff166329092d0e846040518263ffffffff167c0100000000000000000000000000000000000000000000000000000000028152600401808273ffffffffffffffffffffffffffffffffffffffff1673ffffffffffffffffffffffffffffffffffffffff168152602001915050602060405180830381600087803b15801561138c57600080fd5b505af11580156113a0573d6000803e3d6000fd5b505050506040513d60208110156113b657600080fd5b8101908080519060200190929190505050915081156114c357600360008473ffffffffffffffffffffffffffffffffffffffff1673ffffffffffffffffffffffffffffffffffffffff16815260200190815260200160002060006101000a81549073ffffffffffffffffffffffffffffffffffffffff02191690558073ffffffffffffffffffffffffffffffffffffffff168373ffffffffffffffffffffffffffffffffffffffff167f273b68052a341970a63ccaa7d364f8a84a7f024e70a5cc332077b68b691991db85604051808273ffffffffffffffffffffffffffffffffffffffff1673ffffffffffffffffffffffffffffffffffffffff16815260200191505060405180910390a35b509190505600a165627a7a7230582011a1f2bfa7cae1f539a88e7cb22ab346d4012fba35b4a43ff617e6b2dc328c950029",
  "source": "pragma solidity ^0.4.23;\r\n\r\nimport \"./utility/AddressList.sol\";\r\nimport \"./utility/AddressListFactory.sol\";\r\nimport \"./Interfaces.sol\";\r\n\r\ncontract FuturePaymentDelegate is IFuturePaymentDelegate {\r\n\r\n    uint public blockCreated;\r\n    \r\n    AddressListFactory public listFactory;\r\n    AddressList public trustedSchedulers;\r\n\r\n    mapping (address => IDelegatedWallet) public walletLookup;\r\n    mapping (address => AddressList) public payments;\r\n\r\n    function initialize (\r\n        AddressListFactory _listFactory,\r\n        AddressList _trustedSchedulers\r\n    ) public {\r\n        require(blockCreated == 0, \"contract can only be initialized once\");\r\n\r\n        listFactory = _listFactory;\r\n        trustedSchedulers = _trustedSchedulers;\r\n\r\n        blockCreated = block.number;\r\n    }\r\n\r\n    function transfer (address token, address recipient, uint amount) public returns (bool) {\r\n        IFuturePayment payment = IFuturePayment(msg.sender);\r\n        IDelegatedWallet wallet = walletLookup[payment];\r\n        return wallet.transfer(token, recipient, amount);\r\n    }\r\n\r\n    function schedule (IFuturePayment payment, IDelegatedWallet wallet) public onlyTrustedSchedulers returns (bool success) {\r\n        if(payments[wallet] == address(0x0)) {\r\n            address[] memory emptyList;\r\n            payments[wallet] = listFactory.createAddressList(this, emptyList);\r\n        }\r\n\r\n        success = payments[wallet].add(payment);\r\n        if(success) {\r\n            walletLookup[payment] = wallet;\r\n            emit schedule_event(msg.sender, wallet, payment);\r\n        }\r\n    }\r\n    \r\n    function unschedule (IFuturePayment payment) public returns (bool success) {\r\n        IDelegatedWallet wallet = walletLookup[payment];\r\n        require(wallet.isDelegate(msg.sender), \"only a delegate can unschedule a payment\");\r\n        \r\n        success = payments[wallet].remove(payment);\r\n        if(success){\r\n            delete walletLookup[payment];\r\n            emit unschedule_event(payment, wallet, payment);\r\n        }\r\n    }\r\n\r\n    function unschedule () public returns (bool success) {\r\n        IFuturePayment payment = IFuturePayment(msg.sender);\r\n        IDelegatedWallet wallet = walletLookup[payment];\r\n        \r\n        success = payments[wallet].remove(payment);\r\n        if(success) {\r\n            delete walletLookup[payment];\r\n            emit unschedule_event(payment, wallet, payment);\r\n        }\r\n    }\r\n\r\n    modifier onlyTrustedSchedulers () {\r\n        require(trustedSchedulers.contains(msg.sender), \"only a trusted payment factory can schedule a payment\");\r\n        _;\r\n    }\r\n\r\n    event schedule_event (address indexed delegate, IDelegatedWallet indexed wallet, IFuturePayment payment);\r\n    event unschedule_event (address indexed delegate, IDelegatedWallet indexed wallet, IFuturePayment payment);\r\n\r\n}\r\n",
  "sourcePath": "C:\\Users\\My\\Documents\\GitHub\\everchain-project\\recurring-alarm-clock\\contracts\\FuturePaymentDelegate.sol",
  "compiler": {
    "name": "solc",
    "version": "0.4.24+commit.e67f0147.Emscripten.clang"
  },
  "schemaVersion": "2.0.1",
  "updatedAt": "2018-10-06T23:12:51.290Z"
}