{
  "contractName": "FuturePaymentDelegateFactory",
  "abi": [
    {
      "constant": true,
      "inputs": [],
      "name": "blockCreated",
      "outputs": [
        {
          "name": "",
          "type": "uint256"
        }
      ],
      "payable": false,
      "stateMutability": "view",
      "type": "function"
    },
    {
      "constant": true,
      "inputs": [],
      "name": "blueprint",
      "outputs": [
        {
          "name": "",
          "type": "address"
        }
      ],
      "payable": false,
      "stateMutability": "view",
      "type": "function"
    },
    {
      "inputs": [
        {
          "name": "_blueprint",
          "type": "address"
        }
      ],
      "payable": false,
      "stateMutability": "nonpayable",
      "type": "constructor"
    },
    {
      "anonymous": false,
      "inputs": [
        {
          "indexed": true,
          "name": "caller",
          "type": "address"
        },
        {
          "indexed": true,
          "name": "owner",
          "type": "address"
        },
        {
          "indexed": false,
          "name": "delegateAddress",
          "type": "address"
        }
      ],
      "name": "CreateDelegate_event",
      "type": "event"
    },
    {
      "anonymous": false,
      "inputs": [
        {
          "indexed": true,
          "name": "target",
          "type": "address"
        },
        {
          "indexed": false,
          "name": "clone",
          "type": "address"
        }
      ],
      "name": "CloneCreated",
      "type": "event"
    },
    {
      "constant": false,
      "inputs": [
        {
          "name": "owner",
          "type": "address"
        },
        {
          "name": "schedulerList",
          "type": "address[]"
        }
      ],
      "name": "createDelegate",
      "outputs": [
        {
          "name": "delegate",
          "type": "address"
        }
      ],
      "payable": false,
      "stateMutability": "nonpayable",
      "type": "function"
    }
  ],
  "bytecode": "0x608060405234801561001057600080fd5b506040516020806105f0833981018060405281019080805190602001909291905050504360008190555080600160006101000a81548173ffffffffffffffffffffffffffffffffffffffff021916908373ffffffffffffffffffffffffffffffffffffffff160217905550506105658061008b6000396000f300608060405260043610610057576000357c0100000000000000000000000000000000000000000000000000000000900463ffffffff1680634e989a4c1461005c57806366961ce514610087578063c05efa151461014d575b600080fd5b34801561006857600080fd5b506100716101a4565b6040518082815260200191505060405180910390f35b34801561009357600080fd5b5061010b600480360381019080803573ffffffffffffffffffffffffffffffffffffffff169060200190929190803590602001908201803590602001908080602002602001604051908101604052809392919081815260200183836020028082843782019150505050505091929192905050506101aa565b604051808273ffffffffffffffffffffffffffffffffffffffff1673ffffffffffffffffffffffffffffffffffffffff16815260200191505060405180910390f35b34801561015957600080fd5b506101626103f7565b604051808273ffffffffffffffffffffffffffffffffffffffff1673ffffffffffffffffffffffffffffffffffffffff16815260200191505060405180910390f35b60005481565b6000806101d8600160009054906101000a900473ffffffffffffffffffffffffffffffffffffffff1661041d565b91508173ffffffffffffffffffffffffffffffffffffffff16638129fc1c6040518163ffffffff167c0100000000000000000000000000000000000000000000000000000000028152600401600060405180830381600087803b15801561023e57600080fd5b505af1158015610252573d6000803e3d6000fd5b50505050600090505b825181101561035f578173ffffffffffffffffffffffffffffffffffffffff1663306b1022848381518110151561028e57fe5b906020019060200201516040518263ffffffff167c0100000000000000000000000000000000000000000000000000000000028152600401808273ffffffffffffffffffffffffffffffffffffffff1673ffffffffffffffffffffffffffffffffffffffff168152602001915050602060405180830381600087803b15801561031657600080fd5b505af115801561032a573d6000803e3d6000fd5b505050506040513d602081101561034057600080fd5b810190808051906020019092919050505050808060010191505061025b565b8373ffffffffffffffffffffffffffffffffffffffff163373ffffffffffffffffffffffffffffffffffffffff167f9f4954af1de0362b3841b6671d467350bd8beab60f53d2019a2eea97ca8b925d84604051808273ffffffffffffffffffffffffffffffffffffffff1673ffffffffffffffffffffffffffffffffffffffff16815260200191505060405180910390a35092915050565b600160009054906101000a900473ffffffffffffffffffffffffffffffffffffffff1681565b60006060600080606060405190810160405280603f81526020017f600034603b57603080600f833981f36000368180378080368173bebebebebebe81526020017fbebebebebebebebebebebebebebe5af43d82803e15602c573d90f35b3d90fd008152509250846c01000000000000000000000000029150600090505b60148110156105225781816014811015156104b157fe5b1a7f0100000000000000000000000000000000000000000000000000000000000000028382601a018151811015156104e557fe5b9060200101907effffffffffffffffffffffffffffffffffffffffffffffffffffffffffffff1916908160001a905350808060010191505061049a565b82516020840181816000f0955050505050509190505600a165627a7a723058205d780f5902229e8a21b15fbec13d9bbc45b40a98320fdee54356730ddc4f3b020029",
  "source": "pragma solidity ^0.4.23;\r\n\r\nimport \"../../external/CloneFactory.sol\";\r\nimport \"./FuturePaymentDelegate.sol\";\r\n\r\ncontract FuturePaymentDelegateFactory is CloneFactory {\r\n    \r\n    uint public blockCreated;\r\n    \r\n    FuturePaymentDelegate public blueprint;\r\n    \r\n    constructor (FuturePaymentDelegate _blueprint) public {\r\n        blockCreated = block.number;\r\n        blueprint = _blueprint;\r\n    }\r\n    \r\n    function createDelegate (address owner, address[] schedulerList) public returns (FuturePaymentDelegate delegate) {\r\n        delegate = FuturePaymentDelegate(createClone(blueprint));\r\n        delegate.initialize();\r\n\r\n        for(uint i = 0; i < schedulerList.length; i++)\r\n            delegate.addScheduler(schedulerList[i]);\r\n        \r\n        emit CreateDelegate_event(msg.sender, owner, delegate);\r\n    }\r\n    \r\n    event CreateDelegate_event (\r\n        address indexed caller, \r\n        address indexed owner, \r\n        address delegateAddress\r\n    );\r\n    \r\n}\r\n",
  "sourcePath": "C:\\Users\\My\\Documents\\GitHub\\everchain-project\\recurring-alarm-clock\\contracts\\components\\future-payment-delegate\\FuturePaymentDelegateFactory.sol",
  "compiler": {
    "name": "solc",
    "version": "0.4.24+commit.e67f0147.Emscripten.clang"
  },
  "schemaVersion": "2.0.1",
  "updatedAt": "2018-10-13T04:35:07.880Z"
}