{
  "contractName": "FuturePaymentDelegate",
  "abi": [
    {
      "constant": true,
      "inputs": [],
      "name": "blockCreated",
      "outputs": [
        {
          "name": "",
          "type": "uint256"
        }
      ],
      "payable": false,
      "stateMutability": "view",
      "type": "function"
    },
    {
      "constant": true,
      "inputs": [],
      "name": "owner",
      "outputs": [
        {
          "name": "",
          "type": "address"
        }
      ],
      "payable": false,
      "stateMutability": "view",
      "type": "function"
    },
    {
      "constant": false,
      "inputs": [
        {
          "name": "_newOwner",
          "type": "address"
        }
      ],
      "name": "transferOwnership",
      "outputs": [],
      "payable": false,
      "stateMutability": "nonpayable",
      "type": "function"
    },
    {
      "anonymous": false,
      "inputs": [
        {
          "indexed": true,
          "name": "scheduler",
          "type": "address"
        },
        {
          "indexed": true,
          "name": "wallet",
          "type": "address"
        },
        {
          "indexed": false,
          "name": "payment",
          "type": "address"
        }
      ],
      "name": "Schedule_event",
      "type": "event"
    },
    {
      "anonymous": false,
      "inputs": [
        {
          "indexed": true,
          "name": "caller",
          "type": "address"
        },
        {
          "indexed": true,
          "name": "wallet",
          "type": "address"
        },
        {
          "indexed": false,
          "name": "payment",
          "type": "address"
        }
      ],
      "name": "Unschedule_event",
      "type": "event"
    },
    {
      "anonymous": false,
      "inputs": [
        {
          "indexed": true,
          "name": "payment",
          "type": "address"
        },
        {
          "indexed": false,
          "name": "amount",
          "type": "uint256"
        },
        {
          "indexed": false,
          "name": "success",
          "type": "bool"
        }
      ],
      "name": "Payment_event",
      "type": "event"
    },
    {
      "constant": false,
      "inputs": [],
      "name": "initialize",
      "outputs": [],
      "payable": false,
      "stateMutability": "nonpayable",
      "type": "function"
    },
    {
      "constant": false,
      "inputs": [],
      "name": "execute",
      "outputs": [
        {
          "name": "success",
          "type": "bool"
        }
      ],
      "payable": false,
      "stateMutability": "nonpayable",
      "type": "function"
    },
    {
      "constant": false,
      "inputs": [
        {
          "name": "payment",
          "type": "address"
        }
      ],
      "name": "schedule",
      "outputs": [],
      "payable": false,
      "stateMutability": "nonpayable",
      "type": "function"
    },
    {
      "constant": false,
      "inputs": [],
      "name": "unschedule",
      "outputs": [],
      "payable": false,
      "stateMutability": "nonpayable",
      "type": "function"
    },
    {
      "constant": false,
      "inputs": [
        {
          "name": "payment",
          "type": "address"
        }
      ],
      "name": "unschedule",
      "outputs": [],
      "payable": false,
      "stateMutability": "nonpayable",
      "type": "function"
    },
    {
      "constant": false,
      "inputs": [
        {
          "name": "newScheduler",
          "type": "address"
        }
      ],
      "name": "addScheduler",
      "outputs": [
        {
          "name": "",
          "type": "bool"
        }
      ],
      "payable": false,
      "stateMutability": "nonpayable",
      "type": "function"
    },
    {
      "constant": false,
      "inputs": [
        {
          "name": "newScheduler",
          "type": "address"
        }
      ],
      "name": "removeScheduler",
      "outputs": [
        {
          "name": "",
          "type": "bool"
        }
      ],
      "payable": false,
      "stateMutability": "nonpayable",
      "type": "function"
    }
  ],
  "bytecode": "0x6080604052336000806101000a81548173ffffffffffffffffffffffffffffffffffffffff021916908373ffffffffffffffffffffffffffffffffffffffff160217905550612443806100536000396000f3006080604052600436106100a4576000357c0100000000000000000000000000000000000000000000000000000000900463ffffffff16806316dc8c04146100a9578063306b102214610104578063316bef981461015f5780634e989a4c146101a257806361461954146101cd5780638129fc1c146101fc5780638da5cb5b14610213578063daf1548c1461026a578063f2fde38b14610281578063f4c0f413146102c4575b600080fd5b3480156100b557600080fd5b506100ea600480360381019080803573ffffffffffffffffffffffffffffffffffffffff169060200190929190505050610307565b604051808215151515815260200191505060405180910390f35b34801561011057600080fd5b50610145600480360381019080803573ffffffffffffffffffffffffffffffffffffffff169060200190929190505050610448565b604051808215151515815260200191505060405180910390f35b34801561016b57600080fd5b506101a0600480360381019080803573ffffffffffffffffffffffffffffffffffffffff169060200190929190505050610589565b005b3480156101ae57600080fd5b506101b7610c47565b6040518082815260200191505060405180910390f35b3480156101d957600080fd5b506101e2610c4d565b604051808215151515815260200191505060405180910390f35b34801561020857600080fd5b506102116114ec565b005b34801561021f57600080fd5b50610228611595565b604051808273ffffffffffffffffffffffffffffffffffffffff1673ffffffffffffffffffffffffffffffffffffffff16815260200191505060405180910390f35b34801561027657600080fd5b5061027f6115ba565b005b34801561028d57600080fd5b506102c2600480360381019080803573ffffffffffffffffffffffffffffffffffffffff169060200190929190505050611b95565b005b3480156102d057600080fd5b50610305600480360381019080803573ffffffffffffffffffffffffffffffffffffffff169060200190929190505050611c33565b005b60008060009054906101000a900473ffffffffffffffffffffffffffffffffffffffff1673ffffffffffffffffffffffffffffffffffffffff163373ffffffffffffffffffffffffffffffffffffffff1614151561036457600080fd5b600273__ListLib_______________________________63af9fe56b9091846040518363ffffffff167c0100000000000000000000000000000000000000000000000000000000028152600401808381526020018273ffffffffffffffffffffffffffffffffffffffff1673ffffffffffffffffffffffffffffffffffffffff1681526020019250505060206040518083038186803b15801561040657600080fd5b505af415801561041a573d6000803e3d6000fd5b505050506040513d602081101561043057600080fd5b81019080805190602001909291905050509050919050565b60008060009054906101000a900473ffffffffffffffffffffffffffffffffffffffff1673ffffffffffffffffffffffffffffffffffffffff163373ffffffffffffffffffffffffffffffffffffffff161415156104a557600080fd5b600273__ListLib_______________________________63a45c62aa9091846040518363ffffffff167c0100000000000000000000000000000000000000000000000000000000028152600401808381526020018273ffffffffffffffffffffffffffffffffffffffff1673ffffffffffffffffffffffffffffffffffffffff1681526020019250505060206040518083038186803b15801561054757600080fd5b505af415801561055b573d6000803e3d6000fd5b505050506040513d602081101561057157600080fd5b81019080805190602001909291905050509050919050565b600273__ListLib_______________________________632b63aaef9091336040518363ffffffff167c0100000000000000000000000000000000000000000000000000000000028152600401808381526020018273ffffffffffffffffffffffffffffffffffffffff1673ffffffffffffffffffffffffffffffffffffffff1681526020019250505060206040518083038186803b15801561062b57600080fd5b505af415801561063f573d6000803e3d6000fd5b505050506040513d602081101561065557600080fd5b8101908080519060200190929190505050151561067157600080fd5b600560008273ffffffffffffffffffffffffffffffffffffffff166366d003ac6040518163ffffffff167c0100000000000000000000000000000000000000000000000000000000028152600401602060405180830381600087803b1580156106d957600080fd5b505af11580156106ed573d6000803e3d6000fd5b505050506040513d602081101561070357600080fd5b810190808051906020019092919050505073ffffffffffffffffffffffffffffffffffffffff1673ffffffffffffffffffffffffffffffffffffffff16815260200190815260200160002073__ListLib_______________________________63a45c62aa9091836040518363ffffffff167c0100000000000000000000000000000000000000000000000000000000028152600401808381526020018273ffffffffffffffffffffffffffffffffffffffff1673ffffffffffffffffffffffffffffffffffffffff1681526020019250505060206040518083038186803b1580156107ee57600080fd5b505af4158015610802573d6000803e3d6000fd5b505050506040513d602081101561081857600080fd5b810190808051906020019092919050505015156108c3576040517f08c379a00000000000000000000000000000000000000000000000000000000081526004018080602001828103825260388152602001807f6661696c656420746f20616464207061796d656e7420746f207265636970696581526020017f6e7420696e636f6d696e67207061796d656e74206c697374000000000000000081525060400191505060405180910390fd5b600660008273ffffffffffffffffffffffffffffffffffffffff1663521eb2736040518163ffffffff167c0100000000000000000000000000000000000000000000000000000000028152600401602060405180830381600087803b15801561092b57600080fd5b505af115801561093f573d6000803e3d6000fd5b505050506040513d602081101561095557600080fd5b810190808051906020019092919050505073ffffffffffffffffffffffffffffffffffffffff1673ffffffffffffffffffffffffffffffffffffffff16815260200190815260200160002073__ListLib_______________________________63a45c62aa9091836040518363ffffffff167c0100000000000000000000000000000000000000000000000000000000028152600401808381526020018273ffffffffffffffffffffffffffffffffffffffff1673ffffffffffffffffffffffffffffffffffffffff1681526020019250505060206040518083038186803b158015610a4057600080fd5b505af4158015610a54573d6000803e3d6000fd5b505050506040513d6020811015610a6a57600080fd5b81019080805190602001909291905050501515610b15576040517f08c379a00000000000000000000000000000000000000000000000000000000081526004018080602001828103825260358152602001807f6661696c656420746f20616464207061796d656e7420746f2077616c6c65742081526020017f6f7574676f696e67207061796d656e74206c697374000000000000000000000081525060400191505060405180910390fd5b8073ffffffffffffffffffffffffffffffffffffffff1663521eb2736040518163ffffffff167c0100000000000000000000000000000000000000000000000000000000028152600401602060405180830381600087803b158015610b7957600080fd5b505af1158015610b8d573d6000803e3d6000fd5b505050506040513d6020811015610ba357600080fd5b810190808051906020019092919050505073ffffffffffffffffffffffffffffffffffffffff163373ffffffffffffffffffffffffffffffffffffffff167feeff87c17b7a01ed28c42162e95c1b9c8f15ac5b7ba59b6ba8fc617d703e35c083604051808273ffffffffffffffffffffffffffffffffffffffff1673ffffffffffffffffffffffffffffffffffffffff16815260200191505060405180910390a350565b60015481565b600080600080339050600660008273ffffffffffffffffffffffffffffffffffffffff1663521eb2736040518163ffffffff167c0100000000000000000000000000000000000000000000000000000000028152600401602060405180830381600087803b158015610cbe57600080fd5b505af1158015610cd2573d6000803e3d6000fd5b505050506040513d6020811015610ce857600080fd5b810190808051906020019092919050505073ffffffffffffffffffffffffffffffffffffffff1673ffffffffffffffffffffffffffffffffffffffff16815260200190815260200160002073__ListLib_______________________________632b63aaef9091836040518363ffffffff167c0100000000000000000000000000000000000000000000000000000000028152600401808381526020018273ffffffffffffffffffffffffffffffffffffffff1673ffffffffffffffffffffffffffffffffffffffff1681526020019250505060206040518083038186803b158015610dd357600080fd5b505af4158015610de7573d6000803e3d6000fd5b505050506040513d6020811015610dfd57600080fd5b81019080805190602001909291905050501515610ea8576040517f08c379a00000000000000000000000000000000000000000000000000000000081526004018080602001828103825260378152602001807f746865207061796d656e7420646f6573206e6f7420657869737420696e20746881526020017f65206f7574676f696e67207061796d656e74206c69737400000000000000000081525060400191505060405180910390fd5b600560008273ffffffffffffffffffffffffffffffffffffffff166366d003ac6040518163ffffffff167c0100000000000000000000000000000000000000000000000000000000028152600401602060405180830381600087803b158015610f1057600080fd5b505af1158015610f24573d6000803e3d6000fd5b505050506040513d6020811015610f3a57600080fd5b810190808051906020019092919050505073ffffffffffffffffffffffffffffffffffffffff1673ffffffffffffffffffffffffffffffffffffffff16815260200190815260200160002073__ListLib_______________________________632b63aaef9091836040518363ffffffff167c0100000000000000000000000000000000000000000000000000000000028152600401808381526020018273ffffffffffffffffffffffffffffffffffffffff1673ffffffffffffffffffffffffffffffffffffffff1681526020019250505060206040518083038186803b15801561102557600080fd5b505af4158015611039573d6000803e3d6000fd5b505050506040513d602081101561104f57600080fd5b810190808051906020019092919050505015156110fa576040517f08c379a00000000000000000000000000000000000000000000000000000000081526004018080602001828103825260398152602001807f746865207061796d656e7420646f6573206e6f7420657869737420696e20746881526020017f6520696e636f6d696e6720726563697069656e74206c6973740000000000000081525060400191505060405180910390fd5b3392508273ffffffffffffffffffffffffffffffffffffffff1663aa8c217c6040518163ffffffff167c0100000000000000000000000000000000000000000000000000000000028152600401602060405180830381600087803b15801561116157600080fd5b505af1158015611175573d6000803e3d6000fd5b505050506040513d602081101561118b57600080fd5b810190808051906020019092919050505091508273ffffffffffffffffffffffffffffffffffffffff1663521eb2736040518163ffffffff167c0100000000000000000000000000000000000000000000000000000000028152600401602060405180830381600087803b15801561120257600080fd5b505af1158015611216573d6000803e3d6000fd5b505050506040513d602081101561122c57600080fd5b810190808051906020019092919050505073ffffffffffffffffffffffffffffffffffffffff1663beabacc88473ffffffffffffffffffffffffffffffffffffffff1663fc0c546a6040518163ffffffff167c0100000000000000000000000000000000000000000000000000000000028152600401602060405180830381600087803b1580156112bc57600080fd5b505af11580156112d0573d6000803e3d6000fd5b505050506040513d60208110156112e657600080fd5b81019080805190602001909291905050508573ffffffffffffffffffffffffffffffffffffffff166366d003ac6040518163ffffffff167c0100000000000000000000000000000000000000000000000000000000028152600401602060405180830381600087803b15801561135b57600080fd5b505af115801561136f573d6000803e3d6000fd5b505050506040513d602081101561138557600080fd5b8101908080519060200190929190505050856040518463ffffffff167c0100000000000000000000000000000000000000000000000000000000028152600401808473ffffffffffffffffffffffffffffffffffffffff1673ffffffffffffffffffffffffffffffffffffffff1681526020018373ffffffffffffffffffffffffffffffffffffffff1673ffffffffffffffffffffffffffffffffffffffff1681526020018281526020019350505050602060405180830381600087803b15801561144f57600080fd5b505af1158015611463573d6000803e3d6000fd5b505050506040513d602081101561147957600080fd5b810190808051906020019092919050505093508273ffffffffffffffffffffffffffffffffffffffff167f2dd2240a23ea416c5b90edc6772bb4cbbf7fe2247d579e88a246898cd27f2f64838660405180838152602001821515151581526020019250505060405180910390a250505090565b600060015414151561158c576040517f08c379a00000000000000000000000000000000000000000000000000000000081526004018080602001828103825260228152602001807f626c6f636b20637265617465642063616e206f6e6c7920626520736574206f6e81526020017f636500000000000000000000000000000000000000000000000000000000000081525060400191505060405180910390fd5b43600181905550565b6000809054906101000a900473ffffffffffffffffffffffffffffffffffffffff1681565b6000339050600660008273ffffffffffffffffffffffffffffffffffffffff1663521eb2736040518163ffffffff167c0100000000000000000000000000000000000000000000000000000000028152600401602060405180830381600087803b15801561162757600080fd5b505af115801561163b573d6000803e3d6000fd5b505050506040513d602081101561165157600080fd5b810190808051906020019092919050505073ffffffffffffffffffffffffffffffffffffffff1673ffffffffffffffffffffffffffffffffffffffff16815260200190815260200160002073__ListLib_______________________________63af9fe56b9091836040518363ffffffff167c0100000000000000000000000000000000000000000000000000000000028152600401808381526020018273ffffffffffffffffffffffffffffffffffffffff1673ffffffffffffffffffffffffffffffffffffffff1681526020019250505060206040518083038186803b15801561173c57600080fd5b505af4158015611750573d6000803e3d6000fd5b505050506040513d602081101561176657600080fd5b81019080805190602001909291905050501515611811576040517f08c379a00000000000000000000000000000000000000000000000000000000081526004018080602001828103825260368152602001807f7061796d656e7420646f6573206e6f7420657869737420696e2077616c6c657481526020017f206f7574676f696e67207061796d656e74206c6973740000000000000000000081525060400191505060405180910390fd5b600560008273ffffffffffffffffffffffffffffffffffffffff166366d003ac6040518163ffffffff167c0100000000000000000000000000000000000000000000000000000000028152600401602060405180830381600087803b15801561187957600080fd5b505af115801561188d573d6000803e3d6000fd5b505050506040513d60208110156118a357600080fd5b810190808051906020019092919050505073ffffffffffffffffffffffffffffffffffffffff1673ffffffffffffffffffffffffffffffffffffffff16815260200190815260200160002073__ListLib_______________________________63af9fe56b9091836040518363ffffffff167c0100000000000000000000000000000000000000000000000000000000028152600401808381526020018273ffffffffffffffffffffffffffffffffffffffff1673ffffffffffffffffffffffffffffffffffffffff1681526020019250505060206040518083038186803b15801561198e57600080fd5b505af41580156119a2573d6000803e3d6000fd5b505050506040513d60208110156119b857600080fd5b81019080805190602001909291905050501515611a63576040517f08c379a00000000000000000000000000000000000000000000000000000000081526004018080602001828103825260398152602001807f7061796d656e7420646f6573206e6f7420657869737420696e2072656369706981526020017f656e7420696e636f6d696e67207061796d656e74206c6973740000000000000081525060400191505060405180910390fd5b8073ffffffffffffffffffffffffffffffffffffffff1663521eb2736040518163ffffffff167c0100000000000000000000000000000000000000000000000000000000028152600401602060405180830381600087803b158015611ac757600080fd5b505af1158015611adb573d6000803e3d6000fd5b505050506040513d6020811015611af157600080fd5b810190808051906020019092919050505073ffffffffffffffffffffffffffffffffffffffff168173ffffffffffffffffffffffffffffffffffffffff167f8a8b9b9f0d7621ac2e305c16bb0e3a588357ead602db12ff673dafee6ec0924d83604051808273ffffffffffffffffffffffffffffffffffffffff1673ffffffffffffffffffffffffffffffffffffffff16815260200191505060405180910390a350565b6000809054906101000a900473ffffffffffffffffffffffffffffffffffffffff1673ffffffffffffffffffffffffffffffffffffffff163373ffffffffffffffffffffffffffffffffffffffff16141515611bf057600080fd5b806000806101000a81548173ffffffffffffffffffffffffffffffffffffffff021916908373ffffffffffffffffffffffffffffffffffffffff16021790555050565b8073ffffffffffffffffffffffffffffffffffffffff1663521eb2736040518163ffffffff167c0100000000000000000000000000000000000000000000000000000000028152600401602060405180830381600087803b158015611c9757600080fd5b505af1158015611cab573d6000803e3d6000fd5b505050506040513d6020811015611cc157600080fd5b810190808051906020019092919050505073ffffffffffffffffffffffffffffffffffffffff166307779627336040518263ffffffff167c0100000000000000000000000000000000000000000000000000000000028152600401808273ffffffffffffffffffffffffffffffffffffffff1673ffffffffffffffffffffffffffffffffffffffff168152602001915050602060405180830381600087803b158015611d6c57600080fd5b505af1158015611d80573d6000803e3d6000fd5b505050506040513d6020811015611d9657600080fd5b81019080805190602001909291905050501515611e41576040517f08c379a00000000000000000000000000000000000000000000000000000000081526004018080602001828103825260288152602001807f6f6e6c7920612064656c65676174652063616e20756e7363686564756c65206181526020017f207061796d656e7400000000000000000000000000000000000000000000000081525060400191505060405180910390fd5b600660008273ffffffffffffffffffffffffffffffffffffffff1663521eb2736040518163ffffffff167c0100000000000000000000000000000000000000000000000000000000028152600401602060405180830381600087803b158015611ea957600080fd5b505af1158015611ebd573d6000803e3d6000fd5b505050506040513d6020811015611ed357600080fd5b810190808051906020019092919050505073ffffffffffffffffffffffffffffffffffffffff1673ffffffffffffffffffffffffffffffffffffffff16815260200190815260200160002073__ListLib_______________________________63af9fe56b9091836040518363ffffffff167c0100000000000000000000000000000000000000000000000000000000028152600401808381526020018273ffffffffffffffffffffffffffffffffffffffff1673ffffffffffffffffffffffffffffffffffffffff1681526020019250505060206040518083038186803b158015611fbe57600080fd5b505af4158015611fd2573d6000803e3d6000fd5b505050506040513d6020811015611fe857600080fd5b81019080805190602001909291905050501515612093576040517f08c379a00000000000000000000000000000000000000000000000000000000081526004018080602001828103825260368152602001807f7061796d656e7420646f6573206e6f7420657869737420696e2077616c6c657481526020017f206f7574676f696e67207061796d656e74206c6973740000000000000000000081525060400191505060405180910390fd5b600560008273ffffffffffffffffffffffffffffffffffffffff166366d003ac6040518163ffffffff167c0100000000000000000000000000000000000000000000000000000000028152600401602060405180830381600087803b1580156120fb57600080fd5b505af115801561210f573d6000803e3d6000fd5b505050506040513d602081101561212557600080fd5b810190808051906020019092919050505073ffffffffffffffffffffffffffffffffffffffff1673ffffffffffffffffffffffffffffffffffffffff16815260200190815260200160002073__ListLib_______________________________63af9fe56b9091836040518363ffffffff167c0100000000000000000000000000000000000000000000000000000000028152600401808381526020018273ffffffffffffffffffffffffffffffffffffffff1673ffffffffffffffffffffffffffffffffffffffff1681526020019250505060206040518083038186803b15801561221057600080fd5b505af4158015612224573d6000803e3d6000fd5b505050506040513d602081101561223a57600080fd5b810190808051906020019092919050505015156122e5576040517f08c379a00000000000000000000000000000000000000000000000000000000081526004018080602001828103825260398152602001807f7061796d656e7420646f6573206e6f7420657869737420696e2072656369706981526020017f656e7420696e636f6d696e67207061796d656e74206c6973740000000000000081525060400191505060405180910390fd5b8073ffffffffffffffffffffffffffffffffffffffff1663521eb2736040518163ffffffff167c0100000000000000000000000000000000000000000000000000000000028152600401602060405180830381600087803b15801561234957600080fd5b505af115801561235d573d6000803e3d6000fd5b505050506040513d602081101561237357600080fd5b810190808051906020019092919050505073ffffffffffffffffffffffffffffffffffffffff163373ffffffffffffffffffffffffffffffffffffffff167f8a8b9b9f0d7621ac2e305c16bb0e3a588357ead602db12ff673dafee6ec0924d83604051808273ffffffffffffffffffffffffffffffffffffffff1673ffffffffffffffffffffffffffffffffffffffff16815260200191505060405180910390a3505600a165627a7a723058208afc50f714fd2265f46d424dae7d066f3e17c3b5f01b952397aae7f7db1cd67e0029",
  "source": "pragma solidity ^0.4.23;\r\n\r\nimport \"../../external/Owned.sol\";\r\nimport \"../../libraries/ListLib.sol\";\r\nimport \"../../Interfaces.sol\";\r\n\r\ncontract FuturePaymentDelegate is Owned, IFuturePaymentDelegate {\r\n\r\n    using ListLib for ListLib.AddressList;\r\n\r\n    uint public blockCreated;\r\n\r\n    ListLib.AddressList schedulers;\r\n\r\n    mapping (address => ListLib.AddressList) incoming;\r\n    mapping (address => ListLib.AddressList) outgoing;\r\n\r\n    function initialize () public {\r\n        require(blockCreated == 0, \"block created can only be set once\");\r\n\r\n        blockCreated = block.number;\r\n    }\r\n\r\n    function execute () public validPayment returns (bool success) {\r\n        IFuturePayment payment = IFuturePayment(msg.sender);\r\n        uint paymentAmount = payment.amount();\r\n        success = payment.wallet().transfer(\r\n            payment.token(), \r\n            payment.recipient(), \r\n            paymentAmount\r\n        );\r\n\r\n        emit Payment_event(payment, paymentAmount, success);\r\n    }\r\n\r\n    function schedule (IFuturePayment payment) public onlySchedulers {\r\n        require(incoming[payment.recipient()].add(payment), \"failed to add payment to recipient incoming payment list\");\r\n        require(outgoing[payment.wallet()].add(payment), \"failed to add payment to wallet outgoing payment list\");\r\n        \r\n        emit Schedule_event(msg.sender, payment.wallet(), payment);\r\n    }\r\n\r\n    function unschedule (IFuturePayment payment) public {\r\n        require(payment.wallet().isDelegate(msg.sender), \"only a delegate can unschedule a payment\");\r\n        require(outgoing[payment.wallet()].remove(payment), \"payment does not exist in wallet outgoing payment list\");\r\n        require(incoming[payment.recipient()].remove(payment), \"payment does not exist in recipient incoming payment list\");\r\n\r\n        emit Unschedule_event(msg.sender, payment.wallet(), payment);\r\n    }\r\n\r\n    function unschedule () public {\r\n        IFuturePayment payment = IFuturePayment(msg.sender);\r\n        require(outgoing[payment.wallet()].remove(payment), \"payment does not exist in wallet outgoing payment list\");\r\n        require(incoming[payment.recipient()].remove(payment), \"payment does not exist in recipient incoming payment list\");\r\n\r\n        emit Unschedule_event(payment, payment.wallet(), payment);\r\n    }\r\n\r\n    function addScheduler (address newScheduler) public onlyOwner returns (bool) {\r\n        return schedulers.add(newScheduler);\r\n    }\r\n    \r\n    function removeScheduler (address newScheduler) public onlyOwner returns (bool) {\r\n        return schedulers.remove(newScheduler);\r\n    }\r\n\r\n    modifier validPayment () {\r\n        IFuturePayment payment = IFuturePayment(msg.sender);\r\n        require(outgoing[payment.wallet()].contains(payment), \"the payment does not exist in the outgoing payment list\");\r\n        require(incoming[payment.recipient()].contains(payment), \"the payment does not exist in the incoming recipient list\");\r\n        _;\r\n    }\r\n\r\n    modifier onlySchedulers () {\r\n        require(schedulers.contains(msg.sender));\r\n        _;\r\n    }\r\n    \r\n    event Schedule_event (address indexed scheduler, IDelegatedWallet indexed wallet, IFuturePayment payment);\r\n    event Unschedule_event (address indexed caller, IDelegatedWallet indexed wallet, IFuturePayment payment);\r\n    event Payment_event (IFuturePayment indexed payment, uint amount, bool success);\r\n\r\n}\r\n",
  "sourcePath": "C:\\Users\\My\\Documents\\GitHub\\everchain-project\\recurring-alarm-clock\\contracts\\components\\future-payment-delegate\\FuturePaymentDelegate.sol",
  "compiler": {
    "name": "solc",
    "version": "0.4.24+commit.e67f0147.Emscripten.clang"
  },
  "schemaVersion": "2.0.1",
  "updatedAt": "2018-10-13T04:35:07.877Z"
}