{
  "contractName": "GasPriceOracle",
  "abi": [
    {
      "constant": true,
      "inputs": [],
      "name": "owner",
      "outputs": [
        {
          "name": "",
          "type": "address"
        }
      ],
      "payable": false,
      "stateMutability": "view",
      "type": "function"
    },
    {
      "constant": false,
      "inputs": [
        {
          "name": "_newOwner",
          "type": "address"
        }
      ],
      "name": "transferOwnership",
      "outputs": [],
      "payable": false,
      "stateMutability": "nonpayable",
      "type": "function"
    },
    {
      "constant": true,
      "inputs": [],
      "name": "gasPrice",
      "outputs": [
        {
          "name": "",
          "type": "address"
        }
      ],
      "payable": false,
      "stateMutability": "view",
      "type": "function"
    },
    {
      "constant": true,
      "inputs": [],
      "name": "read",
      "outputs": [
        {
          "name": "",
          "type": "uint256"
        }
      ],
      "payable": false,
      "stateMutability": "view",
      "type": "function"
    },
    {
      "constant": false,
      "inputs": [
        {
          "name": "newFeed",
          "type": "address"
        }
      ],
      "name": "changeFeed",
      "outputs": [],
      "payable": false,
      "stateMutability": "nonpayable",
      "type": "function"
    }
  ],
  "bytecode": "0x6080604052336000806101000a81548173ffffffffffffffffffffffffffffffffffffffff021916908373ffffffffffffffffffffffffffffffffffffffff16021790555061040c806100536000396000f3fe60806040526004361061006d576000357c0100000000000000000000000000000000000000000000000000000000900463ffffffff16806357de26a4146100725780638bb038e71461009d5780638da5cb5b146100ee578063f2fde38b14610145578063fe173b9714610196575b600080fd5b34801561007e57600080fd5b506100876101ed565b6040518082815260200191505060405180910390f35b3480156100a957600080fd5b506100ec600480360360208110156100c057600080fd5b81019080803573ffffffffffffffffffffffffffffffffffffffff1690602001909291905050506102b3565b005b3480156100fa57600080fd5b506101036102f7565b604051808273ffffffffffffffffffffffffffffffffffffffff1673ffffffffffffffffffffffffffffffffffffffff16815260200191505060405180910390f35b34801561015157600080fd5b506101946004803603602081101561016857600080fd5b81019080803573ffffffffffffffffffffffffffffffffffffffff16906020019092919050505061031c565b005b3480156101a257600080fd5b506101ab6103ba565b604051808273ffffffffffffffffffffffffffffffffffffffff1673ffffffffffffffffffffffffffffffffffffffff16815260200191505060405180910390f35b6000600160009054906101000a900473ffffffffffffffffffffffffffffffffffffffff1673ffffffffffffffffffffffffffffffffffffffff166357de26a46040518163ffffffff167c010000000000000000000000000000000000000000000000000000000002815260040160206040518083038186803b15801561027357600080fd5b505afa158015610287573d6000803e3d6000fd5b505050506040513d602081101561029d57600080fd5b8101908080519060200190929190505050905090565b80600160006101000a81548173ffffffffffffffffffffffffffffffffffffffff021916908373ffffffffffffffffffffffffffffffffffffffff16021790555050565b6000809054906101000a900473ffffffffffffffffffffffffffffffffffffffff1681565b6000809054906101000a900473ffffffffffffffffffffffffffffffffffffffff1673ffffffffffffffffffffffffffffffffffffffff163373ffffffffffffffffffffffffffffffffffffffff1614151561037757600080fd5b806000806101000a81548173ffffffffffffffffffffffffffffffffffffffff021916908373ffffffffffffffffffffffffffffffffffffffff16021790555050565b600160009054906101000a900473ffffffffffffffffffffffffffffffffffffffff168156fea165627a7a72305820f31cc0146774af4c3986af27e59bc197ebb4df61d7e983c4920f4e9beae132a60029",
  "source": "pragma solidity ^0.5.0;\r\n\r\nimport \"../external/Owned.sol\";\r\nimport \"../external/IBancorGasPriceLimit.sol\";\r\nimport \"../Interfaces.sol\";\r\n\r\ncontract BancorGasPriceFeed is IUintFeed {\r\n\r\n    IBancorGasPriceLimit public oracle;\r\n    \r\n    function read() public view returns (uint) {\r\n        return oracle.gasPrice();\r\n    }\r\n\r\n}\r\n\r\ncontract GasPriceOracle is Owned, IUintFeed {\r\n\r\n    IUintFeed public gasPrice;\r\n\r\n    function read () public view returns (uint) {\r\n        return gasPrice.read();\r\n    }\r\n\r\n    function changeFeed(IUintFeed newFeed) public {\r\n        gasPrice = newFeed;\r\n    }\r\n\r\n}\r\n",
  "sourcePath": "C:/Users/My/Documents/GitHub/everchain-project/recurring-alarm-clock/contracts/components/GasPriceOracle.sol",
  "compiler": {
    "name": "solc",
    "version": "0.5.0+commit.1d4f565a.Emscripten.clang"
  },
  "schemaVersion": "3.0.0-beta.2",
  "updatedAt": "2018-11-25T22:53:41.266Z",
  "devdoc": {
    "methods": {}
  },
  "userdoc": {
    "methods": {}
  }
}