{
  "contractName": "GasPriceOracle",
  "abi": [
    {
      "constant": true,
      "inputs": [],
      "name": "beyond",
      "outputs": [
        {
          "name": "",
          "type": "uint256"
        }
      ],
      "payable": false,
      "stateMutability": "view",
      "type": "function"
    },
    {
      "constant": true,
      "inputs": [],
      "name": "week",
      "outputs": [
        {
          "name": "",
          "type": "uint256"
        }
      ],
      "payable": false,
      "stateMutability": "view",
      "type": "function"
    },
    {
      "constant": true,
      "inputs": [],
      "name": "month",
      "outputs": [
        {
          "name": "",
          "type": "uint256"
        }
      ],
      "payable": false,
      "stateMutability": "view",
      "type": "function"
    },
    {
      "constant": true,
      "inputs": [],
      "name": "day",
      "outputs": [
        {
          "name": "",
          "type": "uint256"
        }
      ],
      "payable": false,
      "stateMutability": "view",
      "type": "function"
    },
    {
      "constant": true,
      "inputs": [],
      "name": "owner",
      "outputs": [
        {
          "name": "",
          "type": "address"
        }
      ],
      "payable": false,
      "stateMutability": "view",
      "type": "function"
    },
    {
      "constant": true,
      "inputs": [],
      "name": "quarter",
      "outputs": [
        {
          "name": "",
          "type": "uint256"
        }
      ],
      "payable": false,
      "stateMutability": "view",
      "type": "function"
    },
    {
      "constant": false,
      "inputs": [
        {
          "name": "_newOwner",
          "type": "address"
        }
      ],
      "name": "transferOwnership",
      "outputs": [],
      "payable": false,
      "stateMutability": "nonpayable",
      "type": "function"
    },
    {
      "constant": true,
      "inputs": [],
      "name": "year",
      "outputs": [
        {
          "name": "",
          "type": "uint256"
        }
      ],
      "payable": false,
      "stateMutability": "view",
      "type": "function"
    },
    {
      "constant": true,
      "inputs": [],
      "name": "gasPrice",
      "outputs": [
        {
          "name": "",
          "type": "address"
        }
      ],
      "payable": false,
      "stateMutability": "view",
      "type": "function"
    },
    {
      "inputs": [
        {
          "name": "_gasPrice",
          "type": "address"
        }
      ],
      "payable": false,
      "stateMutability": "nonpayable",
      "type": "constructor"
    },
    {
      "constant": true,
      "inputs": [],
      "name": "current",
      "outputs": [
        {
          "name": "",
          "type": "uint256"
        }
      ],
      "payable": false,
      "stateMutability": "view",
      "type": "function"
    },
    {
      "constant": true,
      "inputs": [
        {
          "name": "timestamp",
          "type": "uint256"
        }
      ],
      "name": "future",
      "outputs": [
        {
          "name": "",
          "type": "uint256"
        }
      ],
      "payable": false,
      "stateMutability": "view",
      "type": "function"
    },
    {
      "constant": false,
      "inputs": [
        {
          "name": "_multiplier",
          "type": "uint256"
        }
      ],
      "name": "setDayMultiplier",
      "outputs": [],
      "payable": false,
      "stateMutability": "nonpayable",
      "type": "function"
    },
    {
      "constant": false,
      "inputs": [
        {
          "name": "_multiplier",
          "type": "uint256"
        }
      ],
      "name": "setWeekMultiplier",
      "outputs": [],
      "payable": false,
      "stateMutability": "nonpayable",
      "type": "function"
    },
    {
      "constant": false,
      "inputs": [
        {
          "name": "_multiplier",
          "type": "uint256"
        }
      ],
      "name": "setMonthMultiplier",
      "outputs": [],
      "payable": false,
      "stateMutability": "nonpayable",
      "type": "function"
    },
    {
      "constant": false,
      "inputs": [
        {
          "name": "_multiplier",
          "type": "uint256"
        }
      ],
      "name": "setQuarterMultiplier",
      "outputs": [],
      "payable": false,
      "stateMutability": "nonpayable",
      "type": "function"
    },
    {
      "constant": false,
      "inputs": [
        {
          "name": "_multiplier",
          "type": "uint256"
        }
      ],
      "name": "setYearMultiplier",
      "outputs": [],
      "payable": false,
      "stateMutability": "nonpayable",
      "type": "function"
    },
    {
      "constant": false,
      "inputs": [
        {
          "name": "_multiplier",
          "type": "uint256"
        }
      ],
      "name": "setBeyondMultiplier",
      "outputs": [],
      "payable": false,
      "stateMutability": "nonpayable",
      "type": "function"
    },
    {
      "constant": false,
      "inputs": [
        {
          "name": "newFeed",
          "type": "address"
        }
      ],
      "name": "changeFeed",
      "outputs": [],
      "payable": false,
      "stateMutability": "nonpayable",
      "type": "function"
    }
  ],
  "bytecode": "0x608060405261c35060025561ea60600355620111706004556201388060055562015f90600655620186a060075534801561003857600080fd5b50604051602080610c978339810180604052602081101561005857600080fd5b8101908080519060200190929190505050336000806101000a81548173ffffffffffffffffffffffffffffffffffffffff021916908373ffffffffffffffffffffffffffffffffffffffff16021790555080600160006101000a81548173ffffffffffffffffffffffffffffffffffffffff021916908373ffffffffffffffffffffffffffffffffffffffff16021790555050610b9d806100fa6000396000f3fe6080604052600436106100fc576000357c0100000000000000000000000000000000000000000000000000000000900463ffffffff16806302d4ba431461010157806312a2a0351461013c578063277c68aa1461018b578063416c8701146101c65780634995b458146101f157806350a67e241461021c5780636f265e5114610257578063702921f5146102925780637b76ac91146102bd5780638bb038e7146102e85780638da5cb5b146103395780639fa6a6e314610390578063a0f74736146103bb578063bd5b5f77146103f6578063e8708fb614610421578063f2fde38b1461045c578063f3269716146104ad578063fe173b97146104d8575b600080fd5b34801561010d57600080fd5b5061013a6004803603602081101561012457600080fd5b810190808035906020019092919050505061052f565b005b34801561014857600080fd5b506101756004803603602081101561015f57600080fd5b8101908080359060200190929190505050610594565b6040518082815260200191505060405180910390f35b34801561019757600080fd5b506101c4600480360360208110156101ae57600080fd5b8101908080359060200190929190505050610737565b005b3480156101d257600080fd5b506101db61079c565b6040518082815260200191505060405180910390f35b3480156101fd57600080fd5b506102066107a2565b6040518082815260200191505060405180910390f35b34801561022857600080fd5b506102556004803603602081101561023f57600080fd5b81019080803590602001909291905050506107a8565b005b34801561026357600080fd5b506102906004803603602081101561027a57600080fd5b810190808035906020019092919050505061080d565b005b34801561029e57600080fd5b506102a7610872565b6040518082815260200191505060405180910390f35b3480156102c957600080fd5b506102d2610878565b6040518082815260200191505060405180910390f35b3480156102f457600080fd5b506103376004803603602081101561030b57600080fd5b81019080803573ffffffffffffffffffffffffffffffffffffffff16906020019092919050505061087e565b005b34801561034557600080fd5b5061034e6108c2565b604051808273ffffffffffffffffffffffffffffffffffffffff1673ffffffffffffffffffffffffffffffffffffffff16815260200191505060405180910390f35b34801561039c57600080fd5b506103a56108e7565b6040518082815260200191505060405180910390f35b3480156103c757600080fd5b506103f4600480360360208110156103de57600080fd5b81019080803590602001909291905050506109ad565b005b34801561040257600080fd5b5061040b610a12565b6040518082815260200191505060405180910390f35b34801561042d57600080fd5b5061045a6004803603602081101561044457600080fd5b8101908080359060200190929190505050610a18565b005b34801561046857600080fd5b506104ab6004803603602081101561047f57600080fd5b81019080803573ffffffffffffffffffffffffffffffffffffffff169060200190929190505050610a7d565b005b3480156104b957600080fd5b506104c2610b1b565b6040518082815260200191505060405180910390f35b3480156104e457600080fd5b506104ed610b21565b604051808273ffffffffffffffffffffffffffffffffffffffff1673ffffffffffffffffffffffffffffffffffffffff16815260200191505060405180910390f35b6000809054906101000a900473ffffffffffffffffffffffffffffffffffffffff1673ffffffffffffffffffffffffffffffffffffffff163373ffffffffffffffffffffffffffffffffffffffff1614151561058a57600080fd5b8060058190555050565b6000806105a14284610b47565b90506000600160009054906101000a900473ffffffffffffffffffffffffffffffffffffffff1673ffffffffffffffffffffffffffffffffffffffff166357de26a46040518163ffffffff167c010000000000000000000000000000000000000000000000000000000002815260040160206040518083038186803b15801561062957600080fd5b505afa15801561063d573d6000803e3d6000fd5b505050506040513d602081101561065357600080fd5b8101908080519060200190929190505050905061016d82111561068b57612710600754820281151561068157fe5b0492505050610732565b605a8211156106af5761271060065482028115156106a557fe5b0492505050610732565b601e8211156106d35761271060055482028115156106c957fe5b0492505050610732565b60078211156106f75761271060045482028115156106ed57fe5b0492505050610732565b600182111561071b57612710600354820281151561071157fe5b0492505050610732565b612710600254820281151561072c57fe5b04925050505b919050565b6000809054906101000a900473ffffffffffffffffffffffffffffffffffffffff1673ffffffffffffffffffffffffffffffffffffffff163373ffffffffffffffffffffffffffffffffffffffff1614151561079257600080fd5b8060028190555050565b60075481565b60035481565b6000809054906101000a900473ffffffffffffffffffffffffffffffffffffffff1673ffffffffffffffffffffffffffffffffffffffff163373ffffffffffffffffffffffffffffffffffffffff1614151561080357600080fd5b8060038190555050565b6000809054906101000a900473ffffffffffffffffffffffffffffffffffffffff1673ffffffffffffffffffffffffffffffffffffffff163373ffffffffffffffffffffffffffffffffffffffff1614151561086857600080fd5b8060068190555050565b60045481565b60025481565b80600160006101000a81548173ffffffffffffffffffffffffffffffffffffffff021916908373ffffffffffffffffffffffffffffffffffffffff16021790555050565b6000809054906101000a900473ffffffffffffffffffffffffffffffffffffffff1681565b6000600160009054906101000a900473ffffffffffffffffffffffffffffffffffffffff1673ffffffffffffffffffffffffffffffffffffffff166357de26a46040518163ffffffff167c010000000000000000000000000000000000000000000000000000000002815260040160206040518083038186803b15801561096d57600080fd5b505afa158015610981573d6000803e3d6000fd5b505050506040513d602081101561099757600080fd5b8101908080519060200190929190505050905090565b6000809054906101000a900473ffffffffffffffffffffffffffffffffffffffff1673ffffffffffffffffffffffffffffffffffffffff163373ffffffffffffffffffffffffffffffffffffffff16141515610a0857600080fd5b8060048190555050565b60055481565b6000809054906101000a900473ffffffffffffffffffffffffffffffffffffffff1673ffffffffffffffffffffffffffffffffffffffff163373ffffffffffffffffffffffffffffffffffffffff16141515610a7357600080fd5b8060068190555050565b6000809054906101000a900473ffffffffffffffffffffffffffffffffffffffff1673ffffffffffffffffffffffffffffffffffffffff163373ffffffffffffffffffffffffffffffffffffffff16141515610ad857600080fd5b806000806101000a81548173ffffffffffffffffffffffffffffffffffffffff021916908373ffffffffffffffffffffffffffffffffffffffff16021790555050565b60065481565b600160009054906101000a900473ffffffffffffffffffffffffffffffffffffffff1681565b6000818311151515610b5857600080fd5b62015180838303811515610b6857fe5b0490509291505056fea165627a7a72305820a8c30e143f799cddfbbfd9c947f97e0736c34e73067d6d3c9cad5d554ef154110029",
  "source": "pragma solidity ^0.5.0;\n\nimport \"./external/Owned.sol\";\nimport \"./external/BokkyPooBahsDateTimeLibrary.sol\";\nimport \"./external/IBancorGasPriceLimit.sol\";\nimport \"./Interfaces.sol\";\n\ncontract BancorGasPriceFeed is IUintFeed {\n\n    IBancorGasPriceLimit public oracle;\n\n    constructor (IBancorGasPriceLimit _oracle) public {\n        oracle = _oracle;\n    }\n    \n    function read() public view returns (uint) {\n        return oracle.gasPrice();\n    }\n\n}\n\ncontract GasPriceOracle is Owned, IGasPriceOracle {\n\n    IUintFeed public gasPrice;\n    \n    uint public day     =   50000; //  5x\n    uint public week    =   60000; //  6x\n    uint public month   =   70000; //  7x\n    uint public quarter =   80000; //  8x\n    uint public year    =   90000; //  9x\n    uint public beyond  =  100000; // 10x\n\n    constructor (IUintFeed _gasPrice) public {\n        gasPrice = _gasPrice;\n    }\n\n    function current () public view returns (uint) {\n        return gasPrice.read();\n    }\n\n    function future (uint timestamp) public view returns (uint) {\n        uint interval = BokkyPooBahsDateTimeLibrary.diffDays(now, timestamp);\n        uint currentPrice = gasPrice.read();\n\n        if(interval > 365)\n            return currentPrice * beyond / 10000;\n        else if(interval > 90)\n            return currentPrice * year / 10000;\n        else if (interval > 30)\n            return currentPrice * quarter / 10000;\n        else if (interval > 7)\n            return currentPrice * month / 10000;\n        else if (interval > 1)\n            return currentPrice * week / 10000;\n        else \n            return currentPrice * day / 10000;\n    }\n\n    function setDayMultiplier(uint _multiplier) public onlyOwner {\n        day = _multiplier;\n    }\n\n    function setWeekMultiplier(uint _multiplier) public onlyOwner {\n        week = _multiplier;\n    }\n\n    function setMonthMultiplier(uint _multiplier) public onlyOwner {\n        month = _multiplier;\n    }\n\n    function setQuarterMultiplier(uint _multiplier) public onlyOwner {\n        quarter = _multiplier;\n    }\n\n    function setYearMultiplier(uint _multiplier) public onlyOwner {\n        year = _multiplier;\n    }\n\n    function setBeyondMultiplier(uint _multiplier) public onlyOwner {\n        year = _multiplier;\n    }\n\n    function changeFeed(IUintFeed newFeed) public {\n        gasPrice = newFeed;\n    }\n\n}\n",
  "sourcePath": "/home/joe/Documents/github/everchain-project/recurring-transactions/contracts/GasPriceOracle.sol",
  "compiler": {
    "name": "solc",
    "version": "0.5.0+commit.1d4f565a.Emscripten.clang"
  },
  "schemaVersion": "3.0.1",
  "updatedAt": "2019-02-20T06:34:10.877Z",
  "devdoc": {
    "methods": {}
  },
  "userdoc": {
    "methods": {}
  }
}