{
  "contractName": "GasPriceOracle",
  "abi": [
    {
      "constant": true,
      "inputs": [],
      "name": "beyond",
      "outputs": [
        {
          "name": "",
          "type": "uint256"
        }
      ],
      "payable": false,
      "stateMutability": "view",
      "type": "function",
      "signature": "0x416c8701"
    },
    {
      "constant": true,
      "inputs": [],
      "name": "week",
      "outputs": [
        {
          "name": "",
          "type": "uint256"
        }
      ],
      "payable": false,
      "stateMutability": "view",
      "type": "function",
      "signature": "0x4995b458"
    },
    {
      "constant": true,
      "inputs": [],
      "name": "month",
      "outputs": [
        {
          "name": "",
          "type": "uint256"
        }
      ],
      "payable": false,
      "stateMutability": "view",
      "type": "function",
      "signature": "0x702921f5"
    },
    {
      "constant": true,
      "inputs": [],
      "name": "day",
      "outputs": [
        {
          "name": "",
          "type": "uint256"
        }
      ],
      "payable": false,
      "stateMutability": "view",
      "type": "function",
      "signature": "0x7b76ac91"
    },
    {
      "constant": true,
      "inputs": [],
      "name": "owner",
      "outputs": [
        {
          "name": "",
          "type": "address"
        }
      ],
      "payable": false,
      "stateMutability": "view",
      "type": "function",
      "signature": "0x8da5cb5b"
    },
    {
      "constant": true,
      "inputs": [],
      "name": "quarter",
      "outputs": [
        {
          "name": "",
          "type": "uint256"
        }
      ],
      "payable": false,
      "stateMutability": "view",
      "type": "function",
      "signature": "0xbd5b5f77"
    },
    {
      "constant": true,
      "inputs": [],
      "name": "minute",
      "outputs": [
        {
          "name": "",
          "type": "uint256"
        }
      ],
      "payable": false,
      "stateMutability": "view",
      "type": "function",
      "signature": "0xe89b7222"
    },
    {
      "constant": false,
      "inputs": [
        {
          "name": "_newOwner",
          "type": "address"
        }
      ],
      "name": "transferOwnership",
      "outputs": [],
      "payable": false,
      "stateMutability": "nonpayable",
      "type": "function",
      "signature": "0xf2fde38b"
    },
    {
      "constant": true,
      "inputs": [],
      "name": "year",
      "outputs": [
        {
          "name": "",
          "type": "uint256"
        }
      ],
      "payable": false,
      "stateMutability": "view",
      "type": "function",
      "signature": "0xf3269716"
    },
    {
      "constant": true,
      "inputs": [],
      "name": "gasPrice",
      "outputs": [
        {
          "name": "",
          "type": "address"
        }
      ],
      "payable": false,
      "stateMutability": "view",
      "type": "function",
      "signature": "0xfe173b97"
    },
    {
      "inputs": [
        {
          "name": "_gasPrice",
          "type": "address"
        }
      ],
      "payable": false,
      "stateMutability": "nonpayable",
      "type": "constructor",
      "signature": "constructor"
    },
    {
      "constant": true,
      "inputs": [],
      "name": "current",
      "outputs": [
        {
          "name": "",
          "type": "uint256"
        }
      ],
      "payable": false,
      "stateMutability": "view",
      "type": "function",
      "signature": "0x9fa6a6e3"
    },
    {
      "constant": true,
      "inputs": [
        {
          "name": "timestamp",
          "type": "uint256"
        }
      ],
      "name": "future",
      "outputs": [
        {
          "name": "",
          "type": "uint256"
        }
      ],
      "payable": false,
      "stateMutability": "view",
      "type": "function",
      "signature": "0x12a2a035"
    },
    {
      "constant": false,
      "inputs": [
        {
          "name": "_multiplier",
          "type": "uint256"
        }
      ],
      "name": "setDayMultiplier",
      "outputs": [],
      "payable": false,
      "stateMutability": "nonpayable",
      "type": "function",
      "signature": "0x277c68aa"
    },
    {
      "constant": false,
      "inputs": [
        {
          "name": "_multiplier",
          "type": "uint256"
        }
      ],
      "name": "setWeekMultiplier",
      "outputs": [],
      "payable": false,
      "stateMutability": "nonpayable",
      "type": "function",
      "signature": "0x50a67e24"
    },
    {
      "constant": false,
      "inputs": [
        {
          "name": "_multiplier",
          "type": "uint256"
        }
      ],
      "name": "setMonthMultiplier",
      "outputs": [],
      "payable": false,
      "stateMutability": "nonpayable",
      "type": "function",
      "signature": "0xa0f74736"
    },
    {
      "constant": false,
      "inputs": [
        {
          "name": "_multiplier",
          "type": "uint256"
        }
      ],
      "name": "setQuarterMultiplier",
      "outputs": [],
      "payable": false,
      "stateMutability": "nonpayable",
      "type": "function",
      "signature": "0x02d4ba43"
    },
    {
      "constant": false,
      "inputs": [
        {
          "name": "_multiplier",
          "type": "uint256"
        }
      ],
      "name": "setYearMultiplier",
      "outputs": [],
      "payable": false,
      "stateMutability": "nonpayable",
      "type": "function",
      "signature": "0xe8708fb6"
    },
    {
      "constant": false,
      "inputs": [
        {
          "name": "newFeed",
          "type": "address"
        }
      ],
      "name": "changeFeed",
      "outputs": [],
      "payable": false,
      "stateMutability": "nonpayable",
      "type": "function",
      "signature": "0x8bb038e7"
    }
  ],
  "bytecode": "0x6080604052612af8600255612ee0600355613a98600455614e20600555617530600655620186a0600755620186a060085534801561003c57600080fd5b50604051602080610b998339810180604052602081101561005c57600080fd5b8101908080519060200190929190505050336000806101000a81548173ffffffffffffffffffffffffffffffffffffffff021916908373ffffffffffffffffffffffffffffffffffffffff16021790555080600160006101000a81548173ffffffffffffffffffffffffffffffffffffffff021916908373ffffffffffffffffffffffffffffffffffffffff16021790555050610a9b806100fe6000396000f3fe6080604052600436106100fc576000357c0100000000000000000000000000000000000000000000000000000000900463ffffffff16806302d4ba431461010157806312a2a0351461013c578063277c68aa1461018b578063416c8701146101c65780634995b458146101f157806350a67e241461021c578063702921f5146102575780637b76ac91146102825780638bb038e7146102ad5780638da5cb5b146102fe5780639fa6a6e314610355578063a0f7473614610380578063bd5b5f77146103bb578063e8708fb6146103e6578063e89b722214610421578063f2fde38b1461044c578063f32697161461049d578063fe173b97146104c8575b600080fd5b34801561010d57600080fd5b5061013a6004803603602081101561012457600080fd5b810190808035906020019092919050505061051f565b005b34801561014857600080fd5b506101756004803603602081101561015f57600080fd5b8101908080359060200190929190505050610584565b6040518082815260200191505060405180910390f35b34801561019757600080fd5b506101c4600480360360208110156101ae57600080fd5b8101908080359060200190929190505050610694565b005b3480156101d257600080fd5b506101db6106f9565b6040518082815260200191505060405180910390f35b3480156101fd57600080fd5b506102066106ff565b6040518082815260200191505060405180910390f35b34801561022857600080fd5b506102556004803603602081101561023f57600080fd5b8101908080359060200190929190505050610705565b005b34801561026357600080fd5b5061026c61076a565b6040518082815260200191505060405180910390f35b34801561028e57600080fd5b50610297610770565b6040518082815260200191505060405180910390f35b3480156102b957600080fd5b506102fc600480360360208110156102d057600080fd5b81019080803573ffffffffffffffffffffffffffffffffffffffff169060200190929190505050610776565b005b34801561030a57600080fd5b506103136107ba565b604051808273ffffffffffffffffffffffffffffffffffffffff1673ffffffffffffffffffffffffffffffffffffffff16815260200191505060405180910390f35b34801561036157600080fd5b5061036a6107df565b6040518082815260200191505060405180910390f35b34801561038c57600080fd5b506103b9600480360360208110156103a357600080fd5b81019080803590602001909291905050506108a5565b005b3480156103c757600080fd5b506103d061090a565b6040518082815260200191505060405180910390f35b3480156103f257600080fd5b5061041f6004803603602081101561040957600080fd5b8101908080359060200190929190505050610910565b005b34801561042d57600080fd5b50610436610975565b6040518082815260200191505060405180910390f35b34801561045857600080fd5b5061049b6004803603602081101561046f57600080fd5b81019080803573ffffffffffffffffffffffffffffffffffffffff16906020019092919050505061097b565b005b3480156104a957600080fd5b506104b2610a19565b6040518082815260200191505060405180910390f35b3480156104d457600080fd5b506104dd610a1f565b604051808273ffffffffffffffffffffffffffffffffffffffff1673ffffffffffffffffffffffffffffffffffffffff16815260200191505060405180910390f35b6000809054906101000a900473ffffffffffffffffffffffffffffffffffffffff1673ffffffffffffffffffffffffffffffffffffffff163373ffffffffffffffffffffffffffffffffffffffff1614151561057a57600080fd5b8060068190555050565b6000806105914284610a45565b9050600061059d6107df565b905061016d8211156105c45761271060085482028115156105ba57fe5b049250505061068f565b605a8211156105e85761271060075482028115156105de57fe5b049250505061068f565b601e82111561060c57612710600654820281151561060257fe5b049250505061068f565b600782111561063057612710600554820281151561062657fe5b049250505061068f565b600182111561065457612710600454820281151561064a57fe5b049250505061068f565b600082111561067857612710600354820281151561066e57fe5b049250505061068f565b612710600254820281151561068957fe5b04925050505b919050565b6000809054906101000a900473ffffffffffffffffffffffffffffffffffffffff1673ffffffffffffffffffffffffffffffffffffffff163373ffffffffffffffffffffffffffffffffffffffff161415156106ef57600080fd5b8060038190555050565b60085481565b60045481565b6000809054906101000a900473ffffffffffffffffffffffffffffffffffffffff1673ffffffffffffffffffffffffffffffffffffffff163373ffffffffffffffffffffffffffffffffffffffff1614151561076057600080fd5b8060048190555050565b60055481565b60035481565b80600160006101000a81548173ffffffffffffffffffffffffffffffffffffffff021916908373ffffffffffffffffffffffffffffffffffffffff16021790555050565b6000809054906101000a900473ffffffffffffffffffffffffffffffffffffffff1681565b6000600160009054906101000a900473ffffffffffffffffffffffffffffffffffffffff1673ffffffffffffffffffffffffffffffffffffffff166357de26a46040518163ffffffff167c010000000000000000000000000000000000000000000000000000000002815260040160206040518083038186803b15801561086557600080fd5b505afa158015610879573d6000803e3d6000fd5b505050506040513d602081101561088f57600080fd5b8101908080519060200190929190505050905090565b6000809054906101000a900473ffffffffffffffffffffffffffffffffffffffff1673ffffffffffffffffffffffffffffffffffffffff163373ffffffffffffffffffffffffffffffffffffffff1614151561090057600080fd5b8060058190555050565b60065481565b6000809054906101000a900473ffffffffffffffffffffffffffffffffffffffff1673ffffffffffffffffffffffffffffffffffffffff163373ffffffffffffffffffffffffffffffffffffffff1614151561096b57600080fd5b8060078190555050565b60025481565b6000809054906101000a900473ffffffffffffffffffffffffffffffffffffffff1673ffffffffffffffffffffffffffffffffffffffff163373ffffffffffffffffffffffffffffffffffffffff161415156109d657600080fd5b806000806101000a81548173ffffffffffffffffffffffffffffffffffffffff021916908373ffffffffffffffffffffffffffffffffffffffff16021790555050565b60075481565b600160009054906101000a900473ffffffffffffffffffffffffffffffffffffffff1681565b6000818311151515610a5657600080fd5b62015180838303811515610a6657fe5b0490509291505056fea165627a7a72305820bdc63509b13e8e403ee5a7b5235e4f156e4f82dfa6acf49cf0648804871e3f570029",
  "source": "pragma solidity ^0.5.0;\n\nimport \"./external/Owned.sol\";\nimport \"./external/BokkyPooBahsDateTimeLibrary.sol\";\nimport \"./external/IBancorGasPriceLimit.sol\";\nimport \"./Interfaces.sol\";\n\ncontract BancorGasPriceFeed is IUintFeed {\n\n    IBancorGasPriceLimit public oracle;\n\n    constructor (IBancorGasPriceLimit _oracle) public {\n        oracle = _oracle;\n    }\n    \n    function read() public view returns (uint) {\n        return oracle.gasPrice();\n    }\n\n}\n\ncontract GasPriceOracle is Owned, IGasPriceOracle {\n\n    IUintFeed public gasPrice;\n    \n    uint public minute  =   11000; // 110%\n    uint public day     =   12000; // 120%\n    uint public week    =   15000; // 150%\n    uint public month   =   20000; // 200%\n    uint public quarter =   30000; // 300%\n    uint public year    =  100000; // 1000%\n    uint public beyond  =  100000; // 1000%\n\n    constructor (IUintFeed _gasPrice) public {\n        gasPrice = _gasPrice;\n    }\n\n    function current () public view returns (uint) {\n        return gasPrice.read();\n    }\n\n    function future (uint timestamp) public view returns (uint) {\n        uint interval = BokkyPooBahsDateTimeLibrary.diffDays(now, timestamp);\n        uint currentPrice = current();\n\n        if(interval > 365)\n            return currentPrice * beyond / 10000;\n        else if(interval > 90)\n            return currentPrice * year / 10000;\n        else if (interval > 30)\n            return currentPrice * quarter / 10000;\n        else if (interval > 7)\n            return currentPrice * month / 10000;\n        else if (interval > 1)\n            return currentPrice * week / 10000;\n        else if (interval > 0)\n            return currentPrice * day / 10000;\n        else\n            return currentPrice * minute / 10000;\n    }\n\n    function setDayMultiplier(uint _multiplier) public onlyOwner {\n        day = _multiplier;\n    }\n\n    function setWeekMultiplier(uint _multiplier) public onlyOwner {\n        week = _multiplier;\n    }\n\n    function setMonthMultiplier(uint _multiplier) public onlyOwner {\n        month = _multiplier;\n    }\n\n    function setQuarterMultiplier(uint _multiplier) public onlyOwner {\n        quarter = _multiplier;\n    }\n\n    function setYearMultiplier(uint _multiplier) public onlyOwner {\n        year = _multiplier;\n    }\n\n    function changeFeed(IUintFeed newFeed) public {\n        gasPrice = newFeed;\n    }\n\n}\n",
  "sourcePath": "/home/joe/Documents/github/everchain-project/recurring-alarm-clock/contracts/GasPriceOracle.sol",
  "compiler": {
    "name": "solc",
    "version": "0.5.0+commit.1d4f565a.Emscripten.clang"
  },
  "schemaVersion": "3.0.1",
  "updatedAt": "2019-01-20T00:08:46.443Z",
  "devdoc": {
    "methods": {}
  },
  "userdoc": {
    "methods": {}
  }
}