{
  "contractName": "IPayment",
  "abi": [
    {
      "constant": true,
      "inputs": [],
      "name": "wallet",
      "outputs": [
        {
          "name": "",
          "type": "address"
        }
      ],
      "payable": false,
      "stateMutability": "view",
      "type": "function"
    },
    {
      "constant": true,
      "inputs": [],
      "name": "factory",
      "outputs": [
        {
          "name": "",
          "type": "address"
        }
      ],
      "payable": false,
      "stateMutability": "view",
      "type": "function"
    },
    {
      "constant": true,
      "inputs": [],
      "name": "delegate",
      "outputs": [
        {
          "name": "",
          "type": "address"
        }
      ],
      "payable": false,
      "stateMutability": "view",
      "type": "function"
    }
  ],
  "bytecode": "0x608060405234801561001057600080fd5b506101fe806100206000396000f3fe608060405260043610610057576000357c0100000000000000000000000000000000000000000000000000000000900463ffffffff168063521eb2731461005c578063c45a0155146100b3578063c89e43611461010a575b600080fd5b34801561006857600080fd5b50610071610161565b604051808273ffffffffffffffffffffffffffffffffffffffff1673ffffffffffffffffffffffffffffffffffffffff16815260200191505060405180910390f35b3480156100bf57600080fd5b506100c8610187565b604051808273ffffffffffffffffffffffffffffffffffffffff1673ffffffffffffffffffffffffffffffffffffffff16815260200191505060405180910390f35b34801561011657600080fd5b5061011f6101ac565b604051808273ffffffffffffffffffffffffffffffffffffffff1673ffffffffffffffffffffffffffffffffffffffff16815260200191505060405180910390f35b600260009054906101000a900473ffffffffffffffffffffffffffffffffffffffff1681565b6000809054906101000a900473ffffffffffffffffffffffffffffffffffffffff1681565b600160009054906101000a900473ffffffffffffffffffffffffffffffffffffffff168156fea165627a7a7230582047cbe663d893536bf2667beb8a22aed2fb70021eb6bae947ce4784ae378487ad0029",
  "source": "pragma solidity ^0.5.0;\n\nimport \"./external/RequestFactoryInterface.sol\";\nimport \"./external/IDelegatedWallet.sol\";\n\ncontract IUintFeed {\n    function read() public view returns (uint);\n}\n\ncontract IGasPriceOracle {\n    function current() public view returns (uint);\n    function future(uint timestamp) public view returns (uint);\n}\n\n// A cancellable contract can be cancelled\ncontract ICancellable {\n    function cancel() public;\n}\n\n// A payment delegate lets scheduled payments withdraw tokens from the corrosponding wallet\ncontract IPaymentDelegate {\n    function transfer (address token, address payable recipient, uint amount) public returns (bool);\n    function schedule (IPayment payment) public returns (bool success);\n    function unschedule (IPayment payment) public returns (bool success);\n    function unschedule() public returns (bool success);\n    function register (address recipient) public returns (bool success);\n    function unregister (address recipient) public returns (bool success);\n    function clear (IPayment payment) public returns (bool success);\n    function valid (IPayment payment) internal returns (bool);\n}\n\n// A payment contains all the necesary details to execute a payment from a payment delegate\ncontract IPayment {\n    address public factory;\n    IPaymentDelegate public delegate;\n    IDelegatedWallet public wallet;\n}\n\n// A recurring alarm clock contains all the necesary details to execute a recurring task\ncontract IRecurringAlarmClock is IPayment {\n    IGasPriceOracle public gasPrice;\n    address public priorityCaller;\n    uint[3] public limits;\n    uint public alarmStart;\n    uint public windowSize;\n    uint public intervalValue;\n    uint public intervalUnit;\n    uint public maxIntervals;\n    uint public currentInterval;\n    address public alarm;\n    address payable public callAddress;\n    bytes public callData;\n    uint public callValue;\n    uint public callGas;\n\n    function () external payable;\n    function start (address payable _callAddress,bytes memory _callData,uint[7] memory _callOptions) public;\n    function destroy () public;\n    function setPriorityCaller (address _priorityCaller) public;\n    function setExecutionLimits (uint[3] memory _limits) public;\n    function setGasPriceOracle (IGasPriceOracle _oracle) public;\n}\n",
  "sourcePath": "/home/joe/Documents/github/everchain-project/recurring-alarm-clock/contracts/Interfaces.sol",
  "compiler": {
    "name": "solc",
    "version": "0.5.0+commit.1d4f565a.Emscripten.clang"
  },
  "schemaVersion": "3.0.1",
  "updatedAt": "2019-01-19T23:20:26.016Z",
  "devdoc": {
    "methods": {}
  },
  "userdoc": {
    "methods": {}
  }
}