{
  "contractName": "IRecurringAlarmClock",
  "abi": [
    {
      "constant": true,
      "inputs": [],
      "name": "currentInterval",
      "outputs": [
        {
          "name": "",
          "type": "uint256"
        }
      ],
      "payable": false,
      "stateMutability": "view",
      "type": "function"
    },
    {
      "constant": true,
      "inputs": [],
      "name": "callAddress",
      "outputs": [
        {
          "name": "",
          "type": "address"
        }
      ],
      "payable": false,
      "stateMutability": "view",
      "type": "function"
    },
    {
      "constant": true,
      "inputs": [],
      "name": "callData",
      "outputs": [
        {
          "name": "",
          "type": "bytes"
        }
      ],
      "payable": false,
      "stateMutability": "view",
      "type": "function"
    },
    {
      "constant": true,
      "inputs": [],
      "name": "wallet",
      "outputs": [
        {
          "name": "",
          "type": "address"
        }
      ],
      "payable": false,
      "stateMutability": "view",
      "type": "function"
    },
    {
      "constant": true,
      "inputs": [],
      "name": "maxIntervals",
      "outputs": [
        {
          "name": "",
          "type": "uint256"
        }
      ],
      "payable": false,
      "stateMutability": "view",
      "type": "function"
    },
    {
      "constant": true,
      "inputs": [],
      "name": "alarm",
      "outputs": [
        {
          "name": "",
          "type": "address"
        }
      ],
      "payable": false,
      "stateMutability": "view",
      "type": "function"
    },
    {
      "constant": true,
      "inputs": [],
      "name": "callGas",
      "outputs": [
        {
          "name": "",
          "type": "uint256"
        }
      ],
      "payable": false,
      "stateMutability": "view",
      "type": "function"
    },
    {
      "constant": true,
      "inputs": [],
      "name": "factory",
      "outputs": [
        {
          "name": "",
          "type": "address"
        }
      ],
      "payable": false,
      "stateMutability": "view",
      "type": "function"
    },
    {
      "constant": true,
      "inputs": [],
      "name": "delegate",
      "outputs": [
        {
          "name": "",
          "type": "address"
        }
      ],
      "payable": false,
      "stateMutability": "view",
      "type": "function"
    }
  ],
  "bytecode": "0x608060405234801561001057600080fd5b506104fb806100206000396000f3fe608060405260043610610099576000357c0100000000000000000000000000000000000000000000000000000000900463ffffffff168063363487bc1461009e5780633e23ee43146100c95780634e417a9814610120578063521eb273146101b057806386ab53e514610207578063bb7e8c2814610232578063c1459d3114610289578063c45a0155146102b4578063c89e43611461030b575b600080fd5b3480156100aa57600080fd5b506100b3610362565b6040518082815260200191505060405180910390f35b3480156100d557600080fd5b506100de610368565b604051808273ffffffffffffffffffffffffffffffffffffffff1673ffffffffffffffffffffffffffffffffffffffff16815260200191505060405180910390f35b34801561012c57600080fd5b5061013561038e565b6040518080602001828103825283818151815260200191508051906020019080838360005b8381101561017557808201518184015260208101905061015a565b50505050905090810190601f1680156101a25780820380516001836020036101000a031916815260200191505b509250505060405180910390f35b3480156101bc57600080fd5b506101c561042c565b604051808273ffffffffffffffffffffffffffffffffffffffff1673ffffffffffffffffffffffffffffffffffffffff16815260200191505060405180910390f35b34801561021357600080fd5b5061021c610452565b6040518082815260200191505060405180910390f35b34801561023e57600080fd5b50610247610458565b604051808273ffffffffffffffffffffffffffffffffffffffff1673ffffffffffffffffffffffffffffffffffffffff16815260200191505060405180910390f35b34801561029557600080fd5b5061029e61047e565b6040518082815260200191505060405180910390f35b3480156102c057600080fd5b506102c9610484565b604051808273ffffffffffffffffffffffffffffffffffffffff1673ffffffffffffffffffffffffffffffffffffffff16815260200191505060405180910390f35b34801561031757600080fd5b506103206104a9565b604051808273ffffffffffffffffffffffffffffffffffffffff1673ffffffffffffffffffffffffffffffffffffffff16815260200191505060405180910390f35b60075481565b600460009054906101000a900473ffffffffffffffffffffffffffffffffffffffff1681565b60058054600181600116156101000203166002900480601f0160208091040260200160405190810160405280929190818152602001828054600181600116156101000203166002900480156104245780601f106103f957610100808354040283529160200191610424565b820191906000526020600020905b81548152906001019060200180831161040757829003601f168201915b505050505081565b600260009054906101000a900473ffffffffffffffffffffffffffffffffffffffff1681565b60085481565b600360009054906101000a900473ffffffffffffffffffffffffffffffffffffffff1681565b60065481565b6000809054906101000a900473ffffffffffffffffffffffffffffffffffffffff1681565b600160009054906101000a900473ffffffffffffffffffffffffffffffffffffffff168156fea165627a7a72305820d6651d9cdf7cb1831841181c3e94db9d863133b49ee51b5ac4135f02d654adab0029",
  "source": "pragma solidity ^0.5.0;\n\nimport \"./external/RequestFactoryInterface.sol\";\nimport \"./external/IDelegatedWallet.sol\";\n\ncontract IUintFeed {\n    function read() public view returns (uint);\n}\n\ncontract IGasPriceOracle {\n    function current() public view returns (uint);\n    function future(uint timestamp) public view returns (uint);\n}\n\n// A cancellable contract can be cancelled\ncontract ICancellable {\n    function cancel() public;\n}\n\n// A payment delegate lets scheduled payments withdraw tokens from the corrosponding wallet\ncontract IPaymentDelegate {\n    function transfer (address token, address payable recipient, uint amount) public returns (bool);\n    function schedule (IPayment payment) public returns (bool success);\n    function unschedule (IPayment payment) public returns (bool success);\n    function unschedule() public returns (bool success);\n    function register (address recipient) public returns (bool success);\n    function unregister (address recipient) public returns (bool success);\n    function clear (IPayment payment) public returns (bool success);\n    function valid (IPayment payment) internal returns (bool);\n}\n\n// A payment contains all the necesary details to execute a payment from a payment delegate\ncontract IPayment {\n    address public factory;\n    IPaymentDelegate public delegate;\n    IDelegatedWallet public wallet;\n}\n\n// A recurring alarm clock contains all the necesary details to execute a recurring task\ncontract IRecurringAlarmClock is IPayment {\n    address public alarm;\n    address public callAddress;\n    bytes public callData;\n    uint public callGas;\n    uint public currentInterval;\n    uint public maxIntervals;\n}\n",
  "sourcePath": "/home/joe/Documents/github/everchain-project/recurring-alarm-clock/contracts/Interfaces.sol",
  "compiler": {
    "name": "solc",
    "version": "0.5.0+commit.1d4f565a.Emscripten.clang"
  },
  "schemaVersion": "3.0.0",
  "updatedAt": "2019-01-13T20:34:58.223Z",
  "devdoc": {
    "methods": {}
  },
  "userdoc": {
    "methods": {}
  }
}