{
  "contractName": "ListLib",
  "abi": [
    {
      "constant": false,
      "inputs": [
        {
          "name": "list",
          "type": "ListLib.AddressList storage"
        },
        {
          "name": "value",
          "type": "address"
        }
      ],
      "name": "add",
      "outputs": [
        {
          "name": "success",
          "type": "bool"
        }
      ],
      "payable": false,
      "stateMutability": "nonpayable",
      "type": "function"
    },
    {
      "constant": false,
      "inputs": [
        {
          "name": "list",
          "type": "ListLib.AddressList storage"
        },
        {
          "name": "value",
          "type": "address"
        }
      ],
      "name": "remove",
      "outputs": [
        {
          "name": "success",
          "type": "bool"
        }
      ],
      "payable": false,
      "stateMutability": "nonpayable",
      "type": "function"
    },
    {
      "constant": true,
      "inputs": [
        {
          "name": "list",
          "type": "ListLib.AddressList storage"
        }
      ],
      "name": "getLength",
      "outputs": [
        {
          "name": "",
          "type": "uint256"
        }
      ],
      "payable": false,
      "stateMutability": "view",
      "type": "function"
    },
    {
      "constant": true,
      "inputs": [
        {
          "name": "list",
          "type": "ListLib.AddressList storage"
        },
        {
          "name": "value",
          "type": "address"
        }
      ],
      "name": "contains",
      "outputs": [
        {
          "name": "",
          "type": "bool"
        }
      ],
      "payable": false,
      "stateMutability": "view",
      "type": "function"
    }
  ],
  "bytecode": "0x61067e610030600b82828239805160001a6073146000811461002057610022565bfe5b5030600052607381538281f3007300000000000000000000000000000000000000003014608060405260043610610079576000357c0100000000000000000000000000000000000000000000000000000000900463ffffffff1680630faa9b981461007e5780632b63aaef146100b2578063a45c62aa1461010a578063af9fe56b1461016f575b600080fd5b61009c600480360381019080803590602001909291905050506101d4565b6040518082815260200191505060405180910390f35b6100f060048036038101908080359060200190929190803573ffffffffffffffffffffffffffffffffffffffff1690602001909291905050506101e5565b604051808215151515815260200191505060405180910390f35b81801561011657600080fd5b5061015560048036038101908080359060200190929190803573ffffffffffffffffffffffffffffffffffffffff16906020019092919050505061023e565b604051808215151515815260200191505060405180910390f35b81801561017b57600080fd5b506101ba60048036038101908080359060200190929190803573ffffffffffffffffffffffffffffffffffffffff1690602001909291905050506103b7565b604051808215151515815260200191505060405180910390f35b600081600001805490509050919050565b60008260010160008373ffffffffffffffffffffffffffffffffffffffff1673ffffffffffffffffffffffffffffffffffffffff16815260200190815260200160002060009054906101000a900460ff16905092915050565b60008260010160008373ffffffffffffffffffffffffffffffffffffffff1673ffffffffffffffffffffffffffffffffffffffff16815260200190815260200160002060009054906101000a900460ff161561029d57600090506103b1565b82600001805490508360020160008473ffffffffffffffffffffffffffffffffffffffff1673ffffffffffffffffffffffffffffffffffffffff1681526020019081526020016000208190555060018360010160008473ffffffffffffffffffffffffffffffffffffffff1673ffffffffffffffffffffffffffffffffffffffff16815260200190815260200160002060006101000a81548160ff021916908315150217905550826000018290806001815401808255809150509060018203906000526020600020016000909192909190916101000a81548173ffffffffffffffffffffffffffffffffffffffff021916908373ffffffffffffffffffffffffffffffffffffffff16021790555050600190505b92915050565b60008060008460010160008573ffffffffffffffffffffffffffffffffffffffff1673ffffffffffffffffffffffffffffffffffffffff16815260200190815260200160002060009054906101000a900460ff16151561041a57600092506105f9565b8460020160008573ffffffffffffffffffffffffffffffffffffffff1673ffffffffffffffffffffffffffffffffffffffff16815260200190815260200160002054915084600001600186600001805490500381548110151561047957fe5b9060005260206000200160009054906101000a900473ffffffffffffffffffffffffffffffffffffffff1690508085600001838154811015156104b857fe5b9060005260206000200160006101000a81548173ffffffffffffffffffffffffffffffffffffffff021916908373ffffffffffffffffffffffffffffffffffffffff160217905550818560020160008373ffffffffffffffffffffffffffffffffffffffff1673ffffffffffffffffffffffffffffffffffffffff168152602001908152602001600020819055508460000180548091906001900361055d9190610601565b508460010160008573ffffffffffffffffffffffffffffffffffffffff1673ffffffffffffffffffffffffffffffffffffffff16815260200190815260200160002060006101000a81549060ff02191690558460020160008573ffffffffffffffffffffffffffffffffffffffff1673ffffffffffffffffffffffffffffffffffffffff16815260200190815260200160002060009055600192505b505092915050565b81548183558181111561062857818360005260206000209182019101610627919061062d565b5b505050565b61064f91905b8082111561064b576000816000905550600101610633565b5090565b905600a165627a7a72305820bf76b9932493ad95d2c4c11a6da2390ad2e0499326dcc0914f611f30973adce60029",
  "source": "pragma solidity ^0.4.23;\n\n/// @dev A library for a simple unordered list that stores unique values.\nlibrary ListLib {\n    \n    struct AddressList {\n        address[] array; // An unordered list of unique values\n        mapping (address => bool) exists; // Tracks if a value exists in the list\n        mapping (address => uint) index; // Tracks the index location of a value\n    }\n    \n    /// @notice Called when a address value is added to 'list'\n    /// @param list The storage that holds the list\n    /// @param value The value to add to 'list'\n    /// @return True if the 'value' is added, false if it already exists in the list\n    function add (AddressList storage list, address value) public returns (bool success) {\n        // Only add 'value' if it does not exist in the list\n        if(list.exists[value])\n            return false;\n        \n        list.index[value] = list.array.length;\n        list.exists[value] = true;\n        list.array.push(value);\n            \n        return true;\n    }\n    \n    /// @notice Called when a address value is removed from 'list'\n    /// @param list The storage that holds the list\n    /// @param value The value to remove from 'list'\n    /// @return True if the 'value' is removed, false if the 'value' did not exists in the list\n    function remove (AddressList storage list, address value) public returns (bool success) {\n        // Only remove 'value' if it exists in the list\n        if(!list.exists[value])\n            return false;\n    \n        uint indexBeingRemoved = list.index[value]; // The index of 'value'\n        address replacementValue = list.array[list.array.length-1]; // The last value in the list\n        \n        // Move the replacement value to the index of 'value'\n        list.array[indexBeingRemoved] = replacementValue;\n        list.index[replacementValue] = indexBeingRemoved;\n        list.array.length--;\n        \n        // clean up \n        delete(list.exists[value]);\n        delete(list.index[value]);\n        \n        return true;\n    }\n    \n    /// @param list The storage that holds the list\n    /// @return The length of the 'list'\n    function getLength (AddressList storage list) public constant returns (uint) {\n        return list.array.length;\n    }\n    \n     function contains (AddressList storage list, address value) public view returns (bool) {\n        return list.exists[value];\n    }\n    \n}",
  "sourcePath": "C:\\Users\\My\\Documents\\GitHub\\everchain-project\\recurring-alarm-clock\\contracts\\libraries\\ListLib.sol",
  "compiler": {
    "name": "solc",
    "version": "0.4.24+commit.e67f0147.Emscripten.clang"
  },
  "schemaVersion": "2.0.1",
  "updatedAt": "2018-09-30T19:37:48.625Z"
}