{
  "contractName": "ListLibTests",
  "abi": [
    {
      "constant": false,
      "inputs": [],
      "name": "testAddressList",
      "outputs": [],
      "payable": false,
      "stateMutability": "nonpayable",
      "type": "function"
    }
  ],
  "bytecode": "0x608060405234801561001057600080fd5b506112fc806100206000396000f300608060405260043610610041576000357c0100000000000000000000000000000000000000000000000000000000900463ffffffff16806358d82a6f14610046575b600080fd5b34801561005257600080fd5b5061005b61005d565b005b600073__ListLib_______________________________63a45c62aa909160006040518363ffffffff167c0100000000000000000000000000000000000000000000000000000000028152600401808381526020018273ffffffffffffffffffffffffffffffffffffffff1673ffffffffffffffffffffffffffffffffffffffff1681526020019250505060206040518083038186803b15801561010057600080fd5b505af4158015610114573d6000803e3d6000fd5b505050506040513d602081101561012a57600080fd5b8101908080519060200190929190505050151561014357fe5b600073__ListLib_______________________________63a45c62aa909160016040518363ffffffff167c0100000000000000000000000000000000000000000000000000000000028152600401808381526020018273ffffffffffffffffffffffffffffffffffffffff1673ffffffffffffffffffffffffffffffffffffffff1681526020019250505060206040518083038186803b1580156101e657600080fd5b505af41580156101fa573d6000803e3d6000fd5b505050506040513d602081101561021057600080fd5b8101908080519060200190929190505050151561022957fe5b600073__ListLib_______________________________63a45c62aa909160026040518363ffffffff167c0100000000000000000000000000000000000000000000000000000000028152600401808381526020018273ffffffffffffffffffffffffffffffffffffffff1673ffffffffffffffffffffffffffffffffffffffff1681526020019250505060206040518083038186803b1580156102cc57600080fd5b505af41580156102e0573d6000803e3d6000fd5b505050506040513d60208110156102f657600080fd5b8101908080519060200190929190505050151561030f57fe5b600073__ListLib_______________________________63a45c62aa909160036040518363ffffffff167c0100000000000000000000000000000000000000000000000000000000028152600401808381526020018273ffffffffffffffffffffffffffffffffffffffff1673ffffffffffffffffffffffffffffffffffffffff1681526020019250505060206040518083038186803b1580156103b257600080fd5b505af41580156103c6573d6000803e3d6000fd5b505050506040513d60208110156103dc57600080fd5b810190808051906020019092919050505015156103f557fe5b6004600073__ListLib_______________________________630faa9b9890916040518263ffffffff167c01000000000000000000000000000000000000000000000000000000000281526004018082815260200191505060206040518083038186803b15801561046557600080fd5b505af4158015610479573d6000803e3d6000fd5b505050506040513d602081101561048f57600080fd5b81019080805190602001909291905050501415156104a957fe5b600073__ListLib_______________________________63a45c62aa909160036040518363ffffffff167c0100000000000000000000000000000000000000000000000000000000028152600401808381526020018273ffffffffffffffffffffffffffffffffffffffff1673ffffffffffffffffffffffffffffffffffffffff1681526020019250505060206040518083038186803b15801561054c57600080fd5b505af4158015610560573d6000803e3d6000fd5b505050506040513d602081101561057657600080fd5b810190808051906020019092919050505015151561059057fe5b6004600073__ListLib_______________________________630faa9b9890916040518263ffffffff167c01000000000000000000000000000000000000000000000000000000000281526004018082815260200191505060206040518083038186803b15801561060057600080fd5b505af4158015610614573d6000803e3d6000fd5b505050506040513d602081101561062a57600080fd5b810190808051906020019092919050505014151561064457fe5b600073__ListLib_______________________________63af9fe56b909160046040518363ffffffff167c0100000000000000000000000000000000000000000000000000000000028152600401808381526020018273ffffffffffffffffffffffffffffffffffffffff1673ffffffffffffffffffffffffffffffffffffffff1681526020019250505060206040518083038186803b1580156106e757600080fd5b505af41580156106fb573d6000803e3d6000fd5b505050506040513d602081101561071157600080fd5b810190808051906020019092919050505015151561072b57fe5b6004600073__ListLib_______________________________630faa9b9890916040518263ffffffff167c01000000000000000000000000000000000000000000000000000000000281526004018082815260200191505060206040518083038186803b15801561079b57600080fd5b505af41580156107af573d6000803e3d6000fd5b505050506040513d60208110156107c557600080fd5b81019080805190602001909291905050501415156107df57fe5b600073ffffffffffffffffffffffffffffffffffffffff1660008001600081548110151561080957fe5b9060005260206000200160009054906101000a900473ffffffffffffffffffffffffffffffffffffffff1673ffffffffffffffffffffffffffffffffffffffff1614151561085357fe5b600173ffffffffffffffffffffffffffffffffffffffff1660008001600181548110151561087d57fe5b9060005260206000200160009054906101000a900473ffffffffffffffffffffffffffffffffffffffff1673ffffffffffffffffffffffffffffffffffffffff161415156108c757fe5b600273ffffffffffffffffffffffffffffffffffffffff166000800160028154811015156108f157fe5b9060005260206000200160009054906101000a900473ffffffffffffffffffffffffffffffffffffffff1673ffffffffffffffffffffffffffffffffffffffff1614151561093b57fe5b600373ffffffffffffffffffffffffffffffffffffffff1660008001600381548110151561096557fe5b9060005260206000200160009054906101000a900473ffffffffffffffffffffffffffffffffffffffff1673ffffffffffffffffffffffffffffffffffffffff161415156109af57fe5b600073__ListLib_______________________________63af9fe56b909160006040518363ffffffff167c0100000000000000000000000000000000000000000000000000000000028152600401808381526020018273ffffffffffffffffffffffffffffffffffffffff1673ffffffffffffffffffffffffffffffffffffffff1681526020019250505060206040518083038186803b158015610a5257600080fd5b505af4158015610a66573d6000803e3d6000fd5b505050506040513d6020811015610a7c57600080fd5b81019080805190602001909291905050501515610a9557fe5b6003600073__ListLib_______________________________630faa9b9890916040518263ffffffff167c01000000000000000000000000000000000000000000000000000000000281526004018082815260200191505060206040518083038186803b158015610b0557600080fd5b505af4158015610b19573d6000803e3d6000fd5b505050506040513d6020811015610b2f57600080fd5b8101908080519060200190929190505050141515610b4957fe5b600373ffffffffffffffffffffffffffffffffffffffff16600080016000815481101515610b7357fe5b9060005260206000200160009054906101000a900473ffffffffffffffffffffffffffffffffffffffff1673ffffffffffffffffffffffffffffffffffffffff16141515610bbd57fe5b600173ffffffffffffffffffffffffffffffffffffffff16600080016001815481101515610be757fe5b9060005260206000200160009054906101000a900473ffffffffffffffffffffffffffffffffffffffff1673ffffffffffffffffffffffffffffffffffffffff16141515610c3157fe5b600273ffffffffffffffffffffffffffffffffffffffff16600080016002815481101515610c5b57fe5b9060005260206000200160009054906101000a900473ffffffffffffffffffffffffffffffffffffffff1673ffffffffffffffffffffffffffffffffffffffff16141515610ca557fe5b600073__ListLib_______________________________63af9fe56b909160016040518363ffffffff167c0100000000000000000000000000000000000000000000000000000000028152600401808381526020018273ffffffffffffffffffffffffffffffffffffffff1673ffffffffffffffffffffffffffffffffffffffff1681526020019250505060206040518083038186803b158015610d4857600080fd5b505af4158015610d5c573d6000803e3d6000fd5b505050506040513d6020811015610d7257600080fd5b81019080805190602001909291905050501515610d8b57fe5b6002600073__ListLib_______________________________630faa9b9890916040518263ffffffff167c01000000000000000000000000000000000000000000000000000000000281526004018082815260200191505060206040518083038186803b158015610dfb57600080fd5b505af4158015610e0f573d6000803e3d6000fd5b505050506040513d6020811015610e2557600080fd5b8101908080519060200190929190505050141515610e3f57fe5b600373ffffffffffffffffffffffffffffffffffffffff16600080016000815481101515610e6957fe5b9060005260206000200160009054906101000a900473ffffffffffffffffffffffffffffffffffffffff1673ffffffffffffffffffffffffffffffffffffffff16141515610eb357fe5b600273ffffffffffffffffffffffffffffffffffffffff16600080016001815481101515610edd57fe5b9060005260206000200160009054906101000a900473ffffffffffffffffffffffffffffffffffffffff1673ffffffffffffffffffffffffffffffffffffffff16141515610f2757fe5b600073__ListLib_______________________________63af9fe56b909160026040518363ffffffff167c0100000000000000000000000000000000000000000000000000000000028152600401808381526020018273ffffffffffffffffffffffffffffffffffffffff1673ffffffffffffffffffffffffffffffffffffffff1681526020019250505060206040518083038186803b158015610fca57600080fd5b505af4158015610fde573d6000803e3d6000fd5b505050506040513d6020811015610ff457600080fd5b8101908080519060200190929190505050151561100d57fe5b6001600073__ListLib_______________________________630faa9b9890916040518263ffffffff167c01000000000000000000000000000000000000000000000000000000000281526004018082815260200191505060206040518083038186803b15801561107d57600080fd5b505af4158015611091573d6000803e3d6000fd5b505050506040513d60208110156110a757600080fd5b81019080805190602001909291905050501415156110c157fe5b600373ffffffffffffffffffffffffffffffffffffffff166000800160008154811015156110eb57fe5b9060005260206000200160009054906101000a900473ffffffffffffffffffffffffffffffffffffffff1673ffffffffffffffffffffffffffffffffffffffff1614151561113557fe5b600073__ListLib_______________________________63af9fe56b909160036040518363ffffffff167c0100000000000000000000000000000000000000000000000000000000028152600401808381526020018273ffffffffffffffffffffffffffffffffffffffff1673ffffffffffffffffffffffffffffffffffffffff1681526020019250505060206040518083038186803b1580156111d857600080fd5b505af41580156111ec573d6000803e3d6000fd5b505050506040513d602081101561120257600080fd5b8101908080519060200190929190505050151561121b57fe5b60008073__ListLib_______________________________630faa9b9890916040518263ffffffff167c01000000000000000000000000000000000000000000000000000000000281526004018082815260200191505060206040518083038186803b15801561128a57600080fd5b505af415801561129e573d6000803e3d6000fd5b505050506040513d60208110156112b457600080fd5b81019080805190602001909291905050501415156112ce57fe5b5600a165627a7a723058201e3cc2333211a6b47ef8c4f6411eb96baf7848fc9d72b21cd85a1171b5d9c8000029",
  "deployedBytecode": "0x608060405260043610610041576000357c0100000000000000000000000000000000000000000000000000000000900463ffffffff16806358d82a6f14610046575b600080fd5b34801561005257600080fd5b5061005b61005d565b005b600073__ListLib_______________________________63a45c62aa909160006040518363ffffffff167c0100000000000000000000000000000000000000000000000000000000028152600401808381526020018273ffffffffffffffffffffffffffffffffffffffff1673ffffffffffffffffffffffffffffffffffffffff1681526020019250505060206040518083038186803b15801561010057600080fd5b505af4158015610114573d6000803e3d6000fd5b505050506040513d602081101561012a57600080fd5b8101908080519060200190929190505050151561014357fe5b600073__ListLib_______________________________63a45c62aa909160016040518363ffffffff167c0100000000000000000000000000000000000000000000000000000000028152600401808381526020018273ffffffffffffffffffffffffffffffffffffffff1673ffffffffffffffffffffffffffffffffffffffff1681526020019250505060206040518083038186803b1580156101e657600080fd5b505af41580156101fa573d6000803e3d6000fd5b505050506040513d602081101561021057600080fd5b8101908080519060200190929190505050151561022957fe5b600073__ListLib_______________________________63a45c62aa909160026040518363ffffffff167c0100000000000000000000000000000000000000000000000000000000028152600401808381526020018273ffffffffffffffffffffffffffffffffffffffff1673ffffffffffffffffffffffffffffffffffffffff1681526020019250505060206040518083038186803b1580156102cc57600080fd5b505af41580156102e0573d6000803e3d6000fd5b505050506040513d60208110156102f657600080fd5b8101908080519060200190929190505050151561030f57fe5b600073__ListLib_______________________________63a45c62aa909160036040518363ffffffff167c0100000000000000000000000000000000000000000000000000000000028152600401808381526020018273ffffffffffffffffffffffffffffffffffffffff1673ffffffffffffffffffffffffffffffffffffffff1681526020019250505060206040518083038186803b1580156103b257600080fd5b505af41580156103c6573d6000803e3d6000fd5b505050506040513d60208110156103dc57600080fd5b810190808051906020019092919050505015156103f557fe5b6004600073__ListLib_______________________________630faa9b9890916040518263ffffffff167c01000000000000000000000000000000000000000000000000000000000281526004018082815260200191505060206040518083038186803b15801561046557600080fd5b505af4158015610479573d6000803e3d6000fd5b505050506040513d602081101561048f57600080fd5b81019080805190602001909291905050501415156104a957fe5b600073__ListLib_______________________________63a45c62aa909160036040518363ffffffff167c0100000000000000000000000000000000000000000000000000000000028152600401808381526020018273ffffffffffffffffffffffffffffffffffffffff1673ffffffffffffffffffffffffffffffffffffffff1681526020019250505060206040518083038186803b15801561054c57600080fd5b505af4158015610560573d6000803e3d6000fd5b505050506040513d602081101561057657600080fd5b810190808051906020019092919050505015151561059057fe5b6004600073__ListLib_______________________________630faa9b9890916040518263ffffffff167c01000000000000000000000000000000000000000000000000000000000281526004018082815260200191505060206040518083038186803b15801561060057600080fd5b505af4158015610614573d6000803e3d6000fd5b505050506040513d602081101561062a57600080fd5b810190808051906020019092919050505014151561064457fe5b600073__ListLib_______________________________63af9fe56b909160046040518363ffffffff167c0100000000000000000000000000000000000000000000000000000000028152600401808381526020018273ffffffffffffffffffffffffffffffffffffffff1673ffffffffffffffffffffffffffffffffffffffff1681526020019250505060206040518083038186803b1580156106e757600080fd5b505af41580156106fb573d6000803e3d6000fd5b505050506040513d602081101561071157600080fd5b810190808051906020019092919050505015151561072b57fe5b6004600073__ListLib_______________________________630faa9b9890916040518263ffffffff167c01000000000000000000000000000000000000000000000000000000000281526004018082815260200191505060206040518083038186803b15801561079b57600080fd5b505af41580156107af573d6000803e3d6000fd5b505050506040513d60208110156107c557600080fd5b81019080805190602001909291905050501415156107df57fe5b600073ffffffffffffffffffffffffffffffffffffffff1660008001600081548110151561080957fe5b9060005260206000200160009054906101000a900473ffffffffffffffffffffffffffffffffffffffff1673ffffffffffffffffffffffffffffffffffffffff1614151561085357fe5b600173ffffffffffffffffffffffffffffffffffffffff1660008001600181548110151561087d57fe5b9060005260206000200160009054906101000a900473ffffffffffffffffffffffffffffffffffffffff1673ffffffffffffffffffffffffffffffffffffffff161415156108c757fe5b600273ffffffffffffffffffffffffffffffffffffffff166000800160028154811015156108f157fe5b9060005260206000200160009054906101000a900473ffffffffffffffffffffffffffffffffffffffff1673ffffffffffffffffffffffffffffffffffffffff1614151561093b57fe5b600373ffffffffffffffffffffffffffffffffffffffff1660008001600381548110151561096557fe5b9060005260206000200160009054906101000a900473ffffffffffffffffffffffffffffffffffffffff1673ffffffffffffffffffffffffffffffffffffffff161415156109af57fe5b600073__ListLib_______________________________63af9fe56b909160006040518363ffffffff167c0100000000000000000000000000000000000000000000000000000000028152600401808381526020018273ffffffffffffffffffffffffffffffffffffffff1673ffffffffffffffffffffffffffffffffffffffff1681526020019250505060206040518083038186803b158015610a5257600080fd5b505af4158015610a66573d6000803e3d6000fd5b505050506040513d6020811015610a7c57600080fd5b81019080805190602001909291905050501515610a9557fe5b6003600073__ListLib_______________________________630faa9b9890916040518263ffffffff167c01000000000000000000000000000000000000000000000000000000000281526004018082815260200191505060206040518083038186803b158015610b0557600080fd5b505af4158015610b19573d6000803e3d6000fd5b505050506040513d6020811015610b2f57600080fd5b8101908080519060200190929190505050141515610b4957fe5b600373ffffffffffffffffffffffffffffffffffffffff16600080016000815481101515610b7357fe5b9060005260206000200160009054906101000a900473ffffffffffffffffffffffffffffffffffffffff1673ffffffffffffffffffffffffffffffffffffffff16141515610bbd57fe5b600173ffffffffffffffffffffffffffffffffffffffff16600080016001815481101515610be757fe5b9060005260206000200160009054906101000a900473ffffffffffffffffffffffffffffffffffffffff1673ffffffffffffffffffffffffffffffffffffffff16141515610c3157fe5b600273ffffffffffffffffffffffffffffffffffffffff16600080016002815481101515610c5b57fe5b9060005260206000200160009054906101000a900473ffffffffffffffffffffffffffffffffffffffff1673ffffffffffffffffffffffffffffffffffffffff16141515610ca557fe5b600073__ListLib_______________________________63af9fe56b909160016040518363ffffffff167c0100000000000000000000000000000000000000000000000000000000028152600401808381526020018273ffffffffffffffffffffffffffffffffffffffff1673ffffffffffffffffffffffffffffffffffffffff1681526020019250505060206040518083038186803b158015610d4857600080fd5b505af4158015610d5c573d6000803e3d6000fd5b505050506040513d6020811015610d7257600080fd5b81019080805190602001909291905050501515610d8b57fe5b6002600073__ListLib_______________________________630faa9b9890916040518263ffffffff167c01000000000000000000000000000000000000000000000000000000000281526004018082815260200191505060206040518083038186803b158015610dfb57600080fd5b505af4158015610e0f573d6000803e3d6000fd5b505050506040513d6020811015610e2557600080fd5b8101908080519060200190929190505050141515610e3f57fe5b600373ffffffffffffffffffffffffffffffffffffffff16600080016000815481101515610e6957fe5b9060005260206000200160009054906101000a900473ffffffffffffffffffffffffffffffffffffffff1673ffffffffffffffffffffffffffffffffffffffff16141515610eb357fe5b600273ffffffffffffffffffffffffffffffffffffffff16600080016001815481101515610edd57fe5b9060005260206000200160009054906101000a900473ffffffffffffffffffffffffffffffffffffffff1673ffffffffffffffffffffffffffffffffffffffff16141515610f2757fe5b600073__ListLib_______________________________63af9fe56b909160026040518363ffffffff167c0100000000000000000000000000000000000000000000000000000000028152600401808381526020018273ffffffffffffffffffffffffffffffffffffffff1673ffffffffffffffffffffffffffffffffffffffff1681526020019250505060206040518083038186803b158015610fca57600080fd5b505af4158015610fde573d6000803e3d6000fd5b505050506040513d6020811015610ff457600080fd5b8101908080519060200190929190505050151561100d57fe5b6001600073__ListLib_______________________________630faa9b9890916040518263ffffffff167c01000000000000000000000000000000000000000000000000000000000281526004018082815260200191505060206040518083038186803b15801561107d57600080fd5b505af4158015611091573d6000803e3d6000fd5b505050506040513d60208110156110a757600080fd5b81019080805190602001909291905050501415156110c157fe5b600373ffffffffffffffffffffffffffffffffffffffff166000800160008154811015156110eb57fe5b9060005260206000200160009054906101000a900473ffffffffffffffffffffffffffffffffffffffff1673ffffffffffffffffffffffffffffffffffffffff1614151561113557fe5b600073__ListLib_______________________________63af9fe56b909160036040518363ffffffff167c0100000000000000000000000000000000000000000000000000000000028152600401808381526020018273ffffffffffffffffffffffffffffffffffffffff1673ffffffffffffffffffffffffffffffffffffffff1681526020019250505060206040518083038186803b1580156111d857600080fd5b505af41580156111ec573d6000803e3d6000fd5b505050506040513d602081101561120257600080fd5b8101908080519060200190929190505050151561121b57fe5b60008073__ListLib_______________________________630faa9b9890916040518263ffffffff167c01000000000000000000000000000000000000000000000000000000000281526004018082815260200191505060206040518083038186803b15801561128a57600080fd5b505af415801561129e573d6000803e3d6000fd5b505050506040513d60208110156112b457600080fd5b81019080805190602001909291905050501415156112ce57fe5b5600a165627a7a723058201e3cc2333211a6b47ef8c4f6411eb96baf7848fc9d72b21cd85a1171b5d9c8000029",
  "source": "pragma solidity ^0.4.23;\r\n\r\nimport \"../libraries/ListLib.sol\";\r\n\r\ncontract ListLibTests {\r\n\r\n    using ListLib for ListLib.AddressList;\r\n\r\n    ListLib.AddressList addressList;\r\n\r\n    /* These tests are not exhaustive. It may be worth the effort of finding an audited list and implement that instead */\r\n\r\n    function testAddressList () public {\r\n        // add test values\r\n        assert(addressList.add(address(0x0)));\r\n        assert(addressList.add(address(0x1)));\r\n        assert(addressList.add(address(0x2)));\r\n        assert(addressList.add(address(0x3)));\r\n        assert(addressList.getLength() == 4);\r\n\r\n        // attempt to add an existing value\r\n        assert(!addressList.add(address(0x3)));\r\n        assert(addressList.getLength() == 4);\r\n\r\n        // attempt to remove a non existing value\r\n        assert(!addressList.remove(address(0x4)));\r\n        assert(addressList.getLength() == 4);\r\n\r\n        // check expected order in array\r\n        assert(addressList.array[0] == address(0x0));\r\n        assert(addressList.array[1] == address(0x1));\r\n        assert(addressList.array[2] == address(0x2));\r\n        assert(addressList.array[3] == address(0x3));\r\n\r\n        // remove head\r\n        assert(addressList.remove(address(0x0)));\r\n        assert(addressList.getLength() == 3);\r\n\r\n        // check expected order in array\r\n        assert(addressList.array[0] == address(0x3));\r\n        assert(addressList.array[1] == address(0x1));\r\n        assert(addressList.array[2] == address(0x2));\r\n\r\n        // remove body\r\n        assert(addressList.remove(address(0x1)));\r\n        assert(addressList.getLength() == 2);\r\n\r\n        // check expected order in array\r\n        assert(addressList.array[0] == address(0x3));\r\n        assert(addressList.array[1] == address(0x2));\r\n\r\n        // remove tail\r\n        assert(addressList.remove(address(0x2)));\r\n        assert(addressList.getLength() == 1);\r\n\r\n        // check expected order in array\r\n        assert(addressList.array[0] == address(0x3));\r\n\r\n        // remove last\r\n        assert(addressList.remove(address(0x3)));\r\n        assert(addressList.getLength() == 0);\r\n    }\r\n\r\n}",
  "sourcePath": "C:\\Users\\My\\Documents\\GitHub\\everchain-project\\recurring-alarm-clock\\contracts\\tests\\ListLibTests.sol",
  "compiler": {
    "name": "solc",
    "version": "0.4.24+commit.e67f0147.Emscripten.clang"
  },
  "schemaVersion": "2.0.1",
  "updatedAt": "2018-10-23T07:02:04.696Z"
}