{
  "contractName": "ListLib",
  "abi": [
    {
      "constant": false,
      "inputs": [
        {
          "name": "list",
          "type": "ListLib.AddressList storage"
        },
        {
          "name": "value",
          "type": "address"
        }
      ],
      "name": "add",
      "outputs": [
        {
          "name": "success",
          "type": "bool"
        }
      ],
      "payable": false,
      "stateMutability": "nonpayable",
      "type": "function"
    },
    {
      "constant": false,
      "inputs": [
        {
          "name": "list",
          "type": "ListLib.AddressList storage"
        },
        {
          "name": "value",
          "type": "address"
        }
      ],
      "name": "remove",
      "outputs": [
        {
          "name": "success",
          "type": "bool"
        }
      ],
      "payable": false,
      "stateMutability": "nonpayable",
      "type": "function"
    },
    {
      "constant": true,
      "inputs": [
        {
          "name": "list",
          "type": "ListLib.AddressList storage"
        }
      ],
      "name": "getLength",
      "outputs": [
        {
          "name": "",
          "type": "uint256"
        }
      ],
      "payable": false,
      "stateMutability": "view",
      "type": "function"
    },
    {
      "constant": true,
      "inputs": [
        {
          "name": "list",
          "type": "ListLib.AddressList storage"
        },
        {
          "name": "value",
          "type": "address"
        }
      ],
      "name": "contains",
      "outputs": [
        {
          "name": "",
          "type": "bool"
        }
      ],
      "payable": false,
      "stateMutability": "view",
      "type": "function"
    },
    {
      "constant": true,
      "inputs": [
        {
          "name": "list",
          "type": "ListLib.AddressList storage"
        },
        {
          "name": "i",
          "type": "uint256"
        }
      ],
      "name": "index",
      "outputs": [
        {
          "name": "",
          "type": "address"
        }
      ],
      "payable": false,
      "stateMutability": "view",
      "type": "function"
    },
    {
      "constant": true,
      "inputs": [
        {
          "name": "list",
          "type": "ListLib.AddressList storage"
        },
        {
          "name": "value",
          "type": "address"
        }
      ],
      "name": "indexOf",
      "outputs": [
        {
          "name": "",
          "type": "uint256"
        }
      ],
      "payable": false,
      "stateMutability": "view",
      "type": "function"
    },
    {
      "constant": true,
      "inputs": [
        {
          "name": "list",
          "type": "ListLib.AddressList storage"
        }
      ],
      "name": "get",
      "outputs": [
        {
          "name": "",
          "type": "address[]"
        }
      ],
      "payable": false,
      "stateMutability": "view",
      "type": "function"
    }
  ],
  "bytecode": "0x6108f6610030600b82828239805160001a6073146000811461002057610022565bfe5b5030600052607381538281f300730000000000000000000000000000000000000000301460806040526004361061009a576000357c0100000000000000000000000000000000000000000000000000000000900463ffffffff1680630faa9b981461009f57806317076975146100d35780632b63aaef1461012757806357abf5561461017f578063a45c62aa146101f4578063a544c21314610259578063af9fe56b146102c3575b600080fd5b6100bd60048036038101908080359060200190929190505050610328565b6040518082815260200191505060405180910390f35b61011160048036038101908080359060200190929190803573ffffffffffffffffffffffffffffffffffffffff169060200190929190505050610339565b6040518082815260200191505060405180910390f35b61016560048036038101908080359060200190929190803573ffffffffffffffffffffffffffffffffffffffff169060200190929190505050610385565b604051808215151515815260200191505060405180910390f35b61019d600480360381019080803590602001909291905050506103de565b6040518080602001828103825283818151815260200191508051906020019060200280838360005b838110156101e05780820151818401526020810190506101c5565b505050509050019250505060405180910390f35b81801561020057600080fd5b5061023f60048036038101908080359060200190929190803573ffffffffffffffffffffffffffffffffffffffff169060200190929190505050610470565b604051808215151515815260200191505060405180910390f35b61028160048036038101908080359060200190929190803590602001909291905050506105e9565b604051808273ffffffffffffffffffffffffffffffffffffffff1673ffffffffffffffffffffffffffffffffffffffff16815260200191505060405180910390f35b8180156102cf57600080fd5b5061030e60048036038101908080359060200190929190803573ffffffffffffffffffffffffffffffffffffffff16906020019092919050505061062f565b604051808215151515815260200191505060405180910390f35b600081600001805490509050919050565b60008260020160008373ffffffffffffffffffffffffffffffffffffffff1673ffffffffffffffffffffffffffffffffffffffff16815260200190815260200160002054905092915050565b60008260010160008373ffffffffffffffffffffffffffffffffffffffff1673ffffffffffffffffffffffffffffffffffffffff16815260200190815260200160002060009054906101000a900460ff16905092915050565b60608160000180548060200260200160405190810160405280929190818152602001828054801561046457602002820191906000526020600020905b8160009054906101000a900473ffffffffffffffffffffffffffffffffffffffff1673ffffffffffffffffffffffffffffffffffffffff168152602001906001019080831161041a575b50505050509050919050565b60008260010160008373ffffffffffffffffffffffffffffffffffffffff1673ffffffffffffffffffffffffffffffffffffffff16815260200190815260200160002060009054906101000a900460ff16156104cf57600090506105e3565b82600001805490508360020160008473ffffffffffffffffffffffffffffffffffffffff1673ffffffffffffffffffffffffffffffffffffffff1681526020019081526020016000208190555060018360010160008473ffffffffffffffffffffffffffffffffffffffff1673ffffffffffffffffffffffffffffffffffffffff16815260200190815260200160002060006101000a81548160ff021916908315150217905550826000018290806001815401808255809150509060018203906000526020600020016000909192909190916101000a81548173ffffffffffffffffffffffffffffffffffffffff021916908373ffffffffffffffffffffffffffffffffffffffff16021790555050600190505b92915050565b600082600001828154811015156105fc57fe5b9060005260206000200160009054906101000a900473ffffffffffffffffffffffffffffffffffffffff16905092915050565b60008060008460010160008573ffffffffffffffffffffffffffffffffffffffff1673ffffffffffffffffffffffffffffffffffffffff16815260200190815260200160002060009054906101000a900460ff1615156106925760009250610871565b8460020160008573ffffffffffffffffffffffffffffffffffffffff1673ffffffffffffffffffffffffffffffffffffffff1681526020019081526020016000205491508460000160018660000180549050038154811015156106f157fe5b9060005260206000200160009054906101000a900473ffffffffffffffffffffffffffffffffffffffff16905080856000018381548110151561073057fe5b9060005260206000200160006101000a81548173ffffffffffffffffffffffffffffffffffffffff021916908373ffffffffffffffffffffffffffffffffffffffff160217905550818560020160008373ffffffffffffffffffffffffffffffffffffffff1673ffffffffffffffffffffffffffffffffffffffff16815260200190815260200160002081905550846000018054809190600190036107d59190610879565b508460010160008573ffffffffffffffffffffffffffffffffffffffff1673ffffffffffffffffffffffffffffffffffffffff16815260200190815260200160002060006101000a81549060ff02191690558460020160008573ffffffffffffffffffffffffffffffffffffffff1673ffffffffffffffffffffffffffffffffffffffff16815260200190815260200160002060009055600192505b505092915050565b8154818355818111156108a05781836000526020600020918201910161089f91906108a5565b5b505050565b6108c791905b808211156108c35760008160009055506001016108ab565b5090565b905600a165627a7a7230582092ef898e1765c496bff57786d0713d5c80cb3c7fb32ae6ca2f963132110b1a630029",
  "source": "pragma solidity ^0.4.23;\n\n/// @dev A library for a simple unordered list that stores unique values.\nlibrary ListLib {\n    \n    struct AddressList {\n        address[] array; // An unordered list of unique values\n        mapping (address => bool) exists; // Tracks if a value exists in the list\n        mapping (address => uint) getIndex; // Tracks the index location of a value\n    }\n    \n    /// @notice Called when a address value is added to 'list'\n    /// @param list The storage that holds the list\n    /// @param value The value to add to 'list'\n    /// @return True if the 'value' is added, false if it already exists in the list\n    function add (AddressList storage list, address value) public returns (bool success) {\n        // Only add 'value' if it does not exist in the list\n        if(list.exists[value])\n            return false;\n        \n        list.getIndex[value] = list.array.length;\n        list.exists[value] = true;\n        list.array.push(value);\n            \n        return true;\n    }\n    \n    /// @notice Called when a address value is removed from 'list'\n    /// @param list The storage that holds the list\n    /// @param value The value to remove from 'list'\n    /// @return True if the 'value' is removed, false if the 'value' did not exists in the list\n    function remove (AddressList storage list, address value) public returns (bool success) {\n        // Only remove 'value' if it exists in the list\n        if(!list.exists[value])\n            return false;\n    \n        uint indexBeingRemoved = list.getIndex[value]; // The index of 'value'\n        address replacementValue = list.array[list.array.length-1]; // The last value in the list\n        \n        // Move the replacement value to the index of 'value'\n        list.array[indexBeingRemoved] = replacementValue;\n        list.getIndex[replacementValue] = indexBeingRemoved;\n        list.array.length--;\n        \n        // clean up \n        delete(list.exists[value]);\n        delete(list.getIndex[value]);\n        \n        return true;\n    }\n    \n    /// @param list The storage that holds the list\n    /// @return The length of the 'list'\n    function getLength (AddressList storage list) public constant returns (uint) {\n        return list.array.length;\n    }\n    \n     function contains (AddressList storage list, address value) public view returns (bool) {\n        return list.exists[value];\n    }\n\n    function index (AddressList storage list, uint i) public view returns (address) {\n        return list.array[i];\n    }\n\n    function indexOf (AddressList storage list, address value) public view returns (uint) {\n        return list.getIndex[value];\n    }\n\n    function get (AddressList storage list) public view returns (address[]) {\n        return list.array;\n    }\n    \n}",
  "sourcePath": "C:\\Users\\My\\Documents\\GitHub\\everchain-project\\recurring-alarm-clock\\contracts\\libraries\\ListLib.sol",
  "compiler": {
    "name": "solc",
    "version": "0.4.24+commit.e67f0147.Emscripten.clang"
  },
  "schemaVersion": "2.0.1",
  "updatedAt": "2018-10-13T04:35:07.929Z"
}