{
  "contractName": "MiniMeToken",
  "abi": [
    {
      "constant": true,
      "inputs": [],
      "name": "name",
      "outputs": [
        {
          "name": "",
          "type": "string"
        }
      ],
      "payable": false,
      "stateMutability": "view",
      "type": "function"
    },
    {
      "constant": true,
      "inputs": [],
      "name": "creationBlock",
      "outputs": [
        {
          "name": "",
          "type": "uint256"
        }
      ],
      "payable": false,
      "stateMutability": "view",
      "type": "function"
    },
    {
      "constant": true,
      "inputs": [],
      "name": "decimals",
      "outputs": [
        {
          "name": "",
          "type": "uint8"
        }
      ],
      "payable": false,
      "stateMutability": "view",
      "type": "function"
    },
    {
      "constant": false,
      "inputs": [
        {
          "name": "_newController",
          "type": "address"
        }
      ],
      "name": "changeController",
      "outputs": [],
      "payable": false,
      "stateMutability": "nonpayable",
      "type": "function"
    },
    {
      "constant": true,
      "inputs": [],
      "name": "version",
      "outputs": [
        {
          "name": "",
          "type": "string"
        }
      ],
      "payable": false,
      "stateMutability": "view",
      "type": "function"
    },
    {
      "constant": true,
      "inputs": [],
      "name": "parentToken",
      "outputs": [
        {
          "name": "",
          "type": "address"
        }
      ],
      "payable": false,
      "stateMutability": "view",
      "type": "function"
    },
    {
      "constant": true,
      "inputs": [],
      "name": "symbol",
      "outputs": [
        {
          "name": "",
          "type": "string"
        }
      ],
      "payable": false,
      "stateMutability": "view",
      "type": "function"
    },
    {
      "constant": true,
      "inputs": [],
      "name": "transfersEnabled",
      "outputs": [
        {
          "name": "",
          "type": "bool"
        }
      ],
      "payable": false,
      "stateMutability": "view",
      "type": "function"
    },
    {
      "constant": true,
      "inputs": [],
      "name": "parentSnapShotBlock",
      "outputs": [
        {
          "name": "",
          "type": "uint256"
        }
      ],
      "payable": false,
      "stateMutability": "view",
      "type": "function"
    },
    {
      "constant": true,
      "inputs": [],
      "name": "tokenFactory",
      "outputs": [
        {
          "name": "",
          "type": "address"
        }
      ],
      "payable": false,
      "stateMutability": "view",
      "type": "function"
    },
    {
      "constant": true,
      "inputs": [],
      "name": "controller",
      "outputs": [
        {
          "name": "",
          "type": "address"
        }
      ],
      "payable": false,
      "stateMutability": "view",
      "type": "function"
    },
    {
      "inputs": [
        {
          "name": "_tokenFactory",
          "type": "address"
        },
        {
          "name": "_parentToken",
          "type": "address"
        },
        {
          "name": "_parentSnapShotBlock",
          "type": "uint256"
        },
        {
          "name": "_tokenName",
          "type": "string"
        },
        {
          "name": "_decimalUnits",
          "type": "uint8"
        },
        {
          "name": "_tokenSymbol",
          "type": "string"
        },
        {
          "name": "_transfersEnabled",
          "type": "bool"
        }
      ],
      "payable": false,
      "stateMutability": "nonpayable",
      "type": "constructor"
    },
    {
      "payable": true,
      "stateMutability": "payable",
      "type": "fallback"
    },
    {
      "anonymous": false,
      "inputs": [
        {
          "indexed": true,
          "name": "_token",
          "type": "address"
        },
        {
          "indexed": true,
          "name": "_controller",
          "type": "address"
        },
        {
          "indexed": false,
          "name": "_amount",
          "type": "uint256"
        }
      ],
      "name": "ClaimedTokens",
      "type": "event"
    },
    {
      "anonymous": false,
      "inputs": [
        {
          "indexed": true,
          "name": "_from",
          "type": "address"
        },
        {
          "indexed": true,
          "name": "_to",
          "type": "address"
        },
        {
          "indexed": false,
          "name": "_amount",
          "type": "uint256"
        }
      ],
      "name": "Transfer",
      "type": "event"
    },
    {
      "anonymous": false,
      "inputs": [
        {
          "indexed": true,
          "name": "_cloneToken",
          "type": "address"
        },
        {
          "indexed": false,
          "name": "_snapshotBlock",
          "type": "uint256"
        }
      ],
      "name": "NewCloneToken",
      "type": "event"
    },
    {
      "anonymous": false,
      "inputs": [
        {
          "indexed": true,
          "name": "_owner",
          "type": "address"
        },
        {
          "indexed": true,
          "name": "_spender",
          "type": "address"
        },
        {
          "indexed": false,
          "name": "_amount",
          "type": "uint256"
        }
      ],
      "name": "Approval",
      "type": "event"
    },
    {
      "constant": false,
      "inputs": [
        {
          "name": "_to",
          "type": "address"
        },
        {
          "name": "_amount",
          "type": "uint256"
        }
      ],
      "name": "transfer",
      "outputs": [
        {
          "name": "success",
          "type": "bool"
        }
      ],
      "payable": false,
      "stateMutability": "nonpayable",
      "type": "function"
    },
    {
      "constant": false,
      "inputs": [
        {
          "name": "_from",
          "type": "address"
        },
        {
          "name": "_to",
          "type": "address"
        },
        {
          "name": "_amount",
          "type": "uint256"
        }
      ],
      "name": "transferFrom",
      "outputs": [
        {
          "name": "success",
          "type": "bool"
        }
      ],
      "payable": false,
      "stateMutability": "nonpayable",
      "type": "function"
    },
    {
      "constant": true,
      "inputs": [
        {
          "name": "_owner",
          "type": "address"
        }
      ],
      "name": "balanceOf",
      "outputs": [
        {
          "name": "balance",
          "type": "uint256"
        }
      ],
      "payable": false,
      "stateMutability": "view",
      "type": "function"
    },
    {
      "constant": false,
      "inputs": [
        {
          "name": "_spender",
          "type": "address"
        },
        {
          "name": "_amount",
          "type": "uint256"
        }
      ],
      "name": "approve",
      "outputs": [
        {
          "name": "success",
          "type": "bool"
        }
      ],
      "payable": false,
      "stateMutability": "nonpayable",
      "type": "function"
    },
    {
      "constant": true,
      "inputs": [
        {
          "name": "_owner",
          "type": "address"
        },
        {
          "name": "_spender",
          "type": "address"
        }
      ],
      "name": "allowance",
      "outputs": [
        {
          "name": "remaining",
          "type": "uint256"
        }
      ],
      "payable": false,
      "stateMutability": "view",
      "type": "function"
    },
    {
      "constant": false,
      "inputs": [
        {
          "name": "_spender",
          "type": "address"
        },
        {
          "name": "_amount",
          "type": "uint256"
        },
        {
          "name": "_extraData",
          "type": "bytes"
        }
      ],
      "name": "approveAndCall",
      "outputs": [
        {
          "name": "success",
          "type": "bool"
        }
      ],
      "payable": false,
      "stateMutability": "nonpayable",
      "type": "function"
    },
    {
      "constant": true,
      "inputs": [],
      "name": "totalSupply",
      "outputs": [
        {
          "name": "",
          "type": "uint256"
        }
      ],
      "payable": false,
      "stateMutability": "view",
      "type": "function"
    },
    {
      "constant": true,
      "inputs": [
        {
          "name": "_owner",
          "type": "address"
        },
        {
          "name": "_blockNumber",
          "type": "uint256"
        }
      ],
      "name": "balanceOfAt",
      "outputs": [
        {
          "name": "",
          "type": "uint256"
        }
      ],
      "payable": false,
      "stateMutability": "view",
      "type": "function"
    },
    {
      "constant": true,
      "inputs": [
        {
          "name": "_blockNumber",
          "type": "uint256"
        }
      ],
      "name": "totalSupplyAt",
      "outputs": [
        {
          "name": "",
          "type": "uint256"
        }
      ],
      "payable": false,
      "stateMutability": "view",
      "type": "function"
    },
    {
      "constant": false,
      "inputs": [
        {
          "name": "_cloneTokenName",
          "type": "string"
        },
        {
          "name": "_cloneDecimalUnits",
          "type": "uint8"
        },
        {
          "name": "_cloneTokenSymbol",
          "type": "string"
        },
        {
          "name": "_snapshotBlock",
          "type": "uint256"
        },
        {
          "name": "_transfersEnabled",
          "type": "bool"
        }
      ],
      "name": "createCloneToken",
      "outputs": [
        {
          "name": "",
          "type": "address"
        }
      ],
      "payable": false,
      "stateMutability": "nonpayable",
      "type": "function"
    },
    {
      "constant": false,
      "inputs": [
        {
          "name": "_owner",
          "type": "address"
        },
        {
          "name": "_amount",
          "type": "uint256"
        }
      ],
      "name": "generateTokens",
      "outputs": [
        {
          "name": "",
          "type": "bool"
        }
      ],
      "payable": false,
      "stateMutability": "nonpayable",
      "type": "function"
    },
    {
      "constant": false,
      "inputs": [
        {
          "name": "_owner",
          "type": "address"
        },
        {
          "name": "_amount",
          "type": "uint256"
        }
      ],
      "name": "destroyTokens",
      "outputs": [
        {
          "name": "",
          "type": "bool"
        }
      ],
      "payable": false,
      "stateMutability": "nonpayable",
      "type": "function"
    },
    {
      "constant": false,
      "inputs": [
        {
          "name": "_transfersEnabled",
          "type": "bool"
        }
      ],
      "name": "enableTransfers",
      "outputs": [],
      "payable": false,
      "stateMutability": "nonpayable",
      "type": "function"
    },
    {
      "constant": false,
      "inputs": [
        {
          "name": "_token",
          "type": "address"
        }
      ],
      "name": "claimTokens",
      "outputs": [],
      "payable": false,
      "stateMutability": "nonpayable",
      "type": "function"
    }
  ],
  "bytecode": "0x60806040526040805190810160405280600781526020017f4d4d545f302e3200000000000000000000000000000000000000000000000000815250600490805190602001906200005192919062000207565b503480156200005f57600080fd5b5060405162002ecf38038062002ecf83398101806040528101908080519060200190929190805190602001909291908051906020019092919080518201929190602001805190602001909291908051820192919060200180519060200190929190505050336000806101000a81548173ffffffffffffffffffffffffffffffffffffffff021916908373ffffffffffffffffffffffffffffffffffffffff16021790555086600b60016101000a81548173ffffffffffffffffffffffffffffffffffffffff021916908373ffffffffffffffffffffffffffffffffffffffff16021790555083600190805190602001906200015c92919062000207565b5082600260006101000a81548160ff021916908360ff16021790555081600390805190602001906200019092919062000207565b5085600560006101000a81548173ffffffffffffffffffffffffffffffffffffffff021916908373ffffffffffffffffffffffffffffffffffffffff1602179055508460068190555080600b60006101000a81548160ff0219169083151502179055504360078190555050505050505050620002b6565b828054600181600116156101000203166002900490600052602060002090601f016020900481019282601f106200024a57805160ff19168380011785556200027b565b828001600101855582156200027b579182015b828111156200027a5782518255916020019190600101906200025d565b5b5090506200028a91906200028e565b5090565b620002b391905b80821115620002af57600081600090555060010162000295565b5090565b90565b612c0980620002c66000396000f300608060405260043610610149576000357c0100000000000000000000000000000000000000000000000000000000900463ffffffff16806306fdde0314610283578063095ea7b314610313578063176345141461037857806318160ddd146103a357806323b872dd146103ce578063313ce567146104535780633cebb823146104845780634ee2cd7e146104c757806354fd4d50146105285780636638c087146105b857806370a08231146106ca57806380a5400114610721578063827f32c01461077857806395d89b41146107dd578063981b24d01461086d578063a9059cbb146108ae578063bef97c8714610913578063c5bcc4f114610942578063cae9ca511461096d578063d3ce77fe14610a18578063dd62ed3e14610a7d578063df8de3e714610af4578063e77772fe14610b37578063f41e60c514610b8e578063f77c479114610bbd575b6101736000809054906101000a900473ffffffffffffffffffffffffffffffffffffffff16610c14565b151561017e57600080fd5b6000809054906101000a900473ffffffffffffffffffffffffffffffffffffffff1673ffffffffffffffffffffffffffffffffffffffff1663f48c305434336040518363ffffffff167c0100000000000000000000000000000000000000000000000000000000028152600401808273ffffffffffffffffffffffffffffffffffffffff1673ffffffffffffffffffffffffffffffffffffffff1681526020019150506020604051808303818588803b15801561023a57600080fd5b505af115801561024e573d6000803e3d6000fd5b50505050506040513d602081101561026557600080fd5b8101908080519060200190929190505050151561028157600080fd5b005b34801561028f57600080fd5b50610298610c50565b6040518080602001828103825283818151815260200191508051906020019080838360005b838110156102d85780820151818401526020810190506102bd565b50505050905090810190601f1680156103055780820380516001836020036101000a031916815260200191505b509250505060405180910390f35b34801561031f57600080fd5b5061035e600480360381019080803573ffffffffffffffffffffffffffffffffffffffff16906020019092919080359060200190929190505050610cee565b604051808215151515815260200191505060405180910390f35b34801561038457600080fd5b5061038d610fff565b6040518082815260200191505060405180910390f35b3480156103af57600080fd5b506103b8611005565b6040518082815260200191505060405180910390f35b3480156103da57600080fd5b50610439600480360381019080803573ffffffffffffffffffffffffffffffffffffffff169060200190929190803573ffffffffffffffffffffffffffffffffffffffff16906020019092919080359060200190929190505050611015565b604051808215151515815260200191505060405180910390f35b34801561045f57600080fd5b506104686111b4565b604051808260ff1660ff16815260200191505060405180910390f35b34801561049057600080fd5b506104c5600480360381019080803573ffffffffffffffffffffffffffffffffffffffff1690602001909291905050506111c7565b005b3480156104d357600080fd5b50610512600480360381019080803573ffffffffffffffffffffffffffffffffffffffff16906020019092919080359060200190929190505050611265565b6040518082815260200191505060405180910390f35b34801561053457600080fd5b5061053d6114f1565b6040518080602001828103825283818151815260200191508051906020019080838360005b8381101561057d578082015181840152602081019050610562565b50505050905090810190601f1680156105aa5780820380516001836020036101000a031916815260200191505b509250505060405180910390f35b3480156105c457600080fd5b50610688600480360381019080803590602001908201803590602001908080601f0160208091040260200160405190810160405280939291908181526020018383808284378201915050505050509192919290803560ff169060200190929190803590602001908201803590602001908080601f01602080910402602001604051908101604052809392919081815260200183838082843782019150505050505091929192908035906020019092919080351515906020019092919050505061158f565b604051808273ffffffffffffffffffffffffffffffffffffffff1673ffffffffffffffffffffffffffffffffffffffff16815260200191505060405180910390f35b3480156106d657600080fd5b5061070b600480360381019080803573ffffffffffffffffffffffffffffffffffffffff1690602001909291905050506118a3565b6040518082815260200191505060405180910390f35b34801561072d57600080fd5b506107366118b6565b604051808273ffffffffffffffffffffffffffffffffffffffff1673ffffffffffffffffffffffffffffffffffffffff16815260200191505060405180910390f35b34801561078457600080fd5b506107c3600480360381019080803573ffffffffffffffffffffffffffffffffffffffff169060200190929190803590602001909291905050506118dc565b604051808215151515815260200191505060405180910390f35b3480156107e957600080fd5b506107f2611a26565b6040518080602001828103825283818151815260200191508051906020019080838360005b83811015610832578082015181840152602081019050610817565b50505050905090810190601f16801561085f5780820380516001836020036101000a031916815260200191505b509250505060405180910390f35b34801561087957600080fd5b5061089860048036038101908080359060200190929190505050611ac4565b6040518082815260200191505060405180910390f35b3480156108ba57600080fd5b506108f9600480360381019080803573ffffffffffffffffffffffffffffffffffffffff16906020019092919080359060200190929190505050611c64565b604051808215151515815260200191505060405180910390f35b34801561091f57600080fd5b50610928611c96565b604051808215151515815260200191505060405180910390f35b34801561094e57600080fd5b50610957611ca9565b6040518082815260200191505060405180910390f35b34801561097957600080fd5b506109fe600480360381019080803573ffffffffffffffffffffffffffffffffffffffff16906020019092919080359060200190929190803590602001908201803590602001908080601f0160208091040260200160405190810160405280939291908181526020018383808284378201915050505050509192919290505050611caf565b604051808215151515815260200191505060405180910390f35b348015610a2457600080fd5b50610a63600480360381019080803573ffffffffffffffffffffffffffffffffffffffff16906020019092919080359060200190929190505050611e2d565b604051808215151515815260200191505060405180910390f35b348015610a8957600080fd5b50610ade600480360381019080803573ffffffffffffffffffffffffffffffffffffffff169060200190929190803573ffffffffffffffffffffffffffffffffffffffff169060200190929190505050611f73565b6040518082815260200191505060405180910390f35b348015610b0057600080fd5b50610b35600480360381019080803573ffffffffffffffffffffffffffffffffffffffff169060200190929190505050611ffa565b005b348015610b4357600080fd5b50610b4c612362565b604051808273ffffffffffffffffffffffffffffffffffffffff1673ffffffffffffffffffffffffffffffffffffffff16815260200191505060405180910390f35b348015610b9a57600080fd5b50610bbb600480360381019080803515159060200190929190505050612388565b005b348015610bc957600080fd5b50610bd2612400565b604051808273ffffffffffffffffffffffffffffffffffffffff1673ffffffffffffffffffffffffffffffffffffffff16815260200191505060405180910390f35b60008060008373ffffffffffffffffffffffffffffffffffffffff161415610c3f5760009150610c4a565b823b90506000811191505b50919050565b60018054600181600116156101000203166002900480601f016020809104026020016040519081016040528092919081815260200182805460018160011615610100020316600290048015610ce65780601f10610cbb57610100808354040283529160200191610ce6565b820191906000526020600020905b815481529060010190602001808311610cc957829003601f168201915b505050505081565b6000600b60009054906101000a900460ff161515610d0b57600080fd5b6000821480610d9657506000600960003373ffffffffffffffffffffffffffffffffffffffff1673ffffffffffffffffffffffffffffffffffffffff16815260200190815260200160002060008573ffffffffffffffffffffffffffffffffffffffff1673ffffffffffffffffffffffffffffffffffffffff16815260200190815260200160002054145b1515610da157600080fd5b610dcb6000809054906101000a900473ffffffffffffffffffffffffffffffffffffffff16610c14565b15610f0f576000809054906101000a900473ffffffffffffffffffffffffffffffffffffffff1673ffffffffffffffffffffffffffffffffffffffff1663da682aeb3385856040518463ffffffff167c0100000000000000000000000000000000000000000000000000000000028152600401808473ffffffffffffffffffffffffffffffffffffffff1673ffffffffffffffffffffffffffffffffffffffff1681526020018373ffffffffffffffffffffffffffffffffffffffff1673ffffffffffffffffffffffffffffffffffffffff1681526020018281526020019350505050602060405180830381600087803b158015610ec857600080fd5b505af1158015610edc573d6000803e3d6000fd5b505050506040513d6020811015610ef257600080fd5b81019080805190602001909291905050501515610f0e57600080fd5b5b81600960003373ffffffffffffffffffffffffffffffffffffffff1673ffffffffffffffffffffffffffffffffffffffff16815260200190815260200160002060008573ffffffffffffffffffffffffffffffffffffffff1673ffffffffffffffffffffffffffffffffffffffff168152602001908152602001600020819055508273ffffffffffffffffffffffffffffffffffffffff163373ffffffffffffffffffffffffffffffffffffffff167f8c5be1e5ebec7d5bd14f71427d1e84f3dd0314c0f7b2291e5b200ac8c7c3b925846040518082815260200191505060405180910390a36001905092915050565b60075481565b600061101043611ac4565b905090565b60008060009054906101000a900473ffffffffffffffffffffffffffffffffffffffff1673ffffffffffffffffffffffffffffffffffffffff163373ffffffffffffffffffffffffffffffffffffffff1614151561119e57600b60009054906101000a900460ff16151561108857600080fd5b81600960008673ffffffffffffffffffffffffffffffffffffffff1673ffffffffffffffffffffffffffffffffffffffff16815260200190815260200160002060003373ffffffffffffffffffffffffffffffffffffffff1673ffffffffffffffffffffffffffffffffffffffff168152602001908152602001600020541015151561111357600080fd5b81600960008673ffffffffffffffffffffffffffffffffffffffff1673ffffffffffffffffffffffffffffffffffffffff16815260200190815260200160002060003373ffffffffffffffffffffffffffffffffffffffff1673ffffffffffffffffffffffffffffffffffffffff168152602001908152602001600020600082825403925050819055505b6111a9848484612425565b600190509392505050565b600260009054906101000a900460ff1681565b6000809054906101000a900473ffffffffffffffffffffffffffffffffffffffff1673ffffffffffffffffffffffffffffffffffffffff163373ffffffffffffffffffffffffffffffffffffffff1614151561122257600080fd5b806000806101000a81548173ffffffffffffffffffffffffffffffffffffffff021916908373ffffffffffffffffffffffffffffffffffffffff16021790555050565b600080600860008573ffffffffffffffffffffffffffffffffffffffff1673ffffffffffffffffffffffffffffffffffffffff16815260200190815260200160002080549050148061133e575081600860008573ffffffffffffffffffffffffffffffffffffffff1673ffffffffffffffffffffffffffffffffffffffff168152602001908152602001600020600081548110151561130057fe5b9060005260206000200160000160009054906101000a90046fffffffffffffffffffffffffffffffff166fffffffffffffffffffffffffffffffff16115b156114a0576000600560009054906101000a900473ffffffffffffffffffffffffffffffffffffffff1673ffffffffffffffffffffffffffffffffffffffff1614151561149757600560009054906101000a900473ffffffffffffffffffffffffffffffffffffffff1673ffffffffffffffffffffffffffffffffffffffff16634ee2cd7e846113d0856006546127b0565b6040518363ffffffff167c0100000000000000000000000000000000000000000000000000000000028152600401808373ffffffffffffffffffffffffffffffffffffffff1673ffffffffffffffffffffffffffffffffffffffff16815260200182815260200192505050602060405180830381600087803b15801561145557600080fd5b505af1158015611469573d6000803e3d6000fd5b505050506040513d602081101561147f57600080fd5b810190808051906020019092919050505090506114eb565b600090506114eb565b6114e8600860008573ffffffffffffffffffffffffffffffffffffffff1673ffffffffffffffffffffffffffffffffffffffff168152602001908152602001600020836127c9565b90505b92915050565b60048054600181600116156101000203166002900480601f0160208091040260200160405190810160405280929190818152602001828054600181600116156101000203166002900480156115875780601f1061155c57610100808354040283529160200191611587565b820191906000526020600020905b81548152906001019060200180831161156a57829003601f168201915b505050505081565b600080600084141561159f574393505b600b60019054906101000a900473ffffffffffffffffffffffffffffffffffffffff1673ffffffffffffffffffffffffffffffffffffffff16635b7b72c130868a8a8a896040518763ffffffff167c0100000000000000000000000000000000000000000000000000000000028152600401808773ffffffffffffffffffffffffffffffffffffffff1673ffffffffffffffffffffffffffffffffffffffff168152602001868152602001806020018560ff1660ff1681526020018060200184151515158152602001838103835287818151815260200191508051906020019080838360005b838110156116a0578082015181840152602081019050611685565b50505050905090810190601f1680156116cd5780820380516001836020036101000a031916815260200191505b50838103825285818151815260200191508051906020019080838360005b838110156117065780820151818401526020810190506116eb565b50505050905090810190601f1680156117335780820380516001836020036101000a031916815260200191505b5098505050505050505050602060405180830381600087803b15801561175857600080fd5b505af115801561176c573d6000803e3d6000fd5b505050506040513d602081101561178257600080fd5b810190808051906020019092919050505090508073ffffffffffffffffffffffffffffffffffffffff16633cebb823336040518263ffffffff167c0100000000000000000000000000000000000000000000000000000000028152600401808273ffffffffffffffffffffffffffffffffffffffff1673ffffffffffffffffffffffffffffffffffffffff168152602001915050600060405180830381600087803b15801561183057600080fd5b505af1158015611844573d6000803e3d6000fd5b505050508073ffffffffffffffffffffffffffffffffffffffff167f086c875b377f900b07ce03575813022f05dd10ed7640b5282cf6d3c3fc352ade856040518082815260200191505060405180910390a28091505095945050505050565b60006118af8243611265565b9050919050565b600560009054906101000a900473ffffffffffffffffffffffffffffffffffffffff1681565b60008060008060009054906101000a900473ffffffffffffffffffffffffffffffffffffffff1673ffffffffffffffffffffffffffffffffffffffff163373ffffffffffffffffffffffffffffffffffffffff1614151561193c57600080fd5b611944611005565b9150818483011015151561195757600080fd5b611960856118a3565b9050808482011015151561197357600080fd5b611980600a8584016129d8565b6119ca600860008773ffffffffffffffffffffffffffffffffffffffff1673ffffffffffffffffffffffffffffffffffffffff1681526020019081526020016000208583016129d8565b8473ffffffffffffffffffffffffffffffffffffffff1660007fddf252ad1be2c89b69c2b068fc378daa952ba7f163c4a11628f55a4df523b3ef866040518082815260200191505060405180910390a360019250505092915050565b60038054600181600116156101000203166002900480601f016020809104026020016040519081016040528092919081815260200182805460018160011615610100020316600290048015611abc5780601f10611a9157610100808354040283529160200191611abc565b820191906000526020600020905b815481529060010190602001808311611a9f57829003601f168201915b505050505081565b600080600a805490501480611b23575081600a6000815481101515611ae557fe5b9060005260206000200160000160009054906101000a90046fffffffffffffffffffffffffffffffff166fffffffffffffffffffffffffffffffff16115b15611c51576000600560009054906101000a900473ffffffffffffffffffffffffffffffffffffffff1673ffffffffffffffffffffffffffffffffffffffff16141515611c4857600560009054906101000a900473ffffffffffffffffffffffffffffffffffffffff1673ffffffffffffffffffffffffffffffffffffffff1663981b24d0611bb4846006546127b0565b6040518263ffffffff167c010000000000000000000000000000000000000000000000000000000002815260040180828152602001915050602060405180830381600087803b158015611c0657600080fd5b505af1158015611c1a573d6000803e3d6000fd5b505050506040513d6020811015611c3057600080fd5b81019080805190602001909291905050509050611c5f565b60009050611c5f565b611c5c600a836127c9565b90505b919050565b6000600b60009054906101000a900460ff161515611c8157600080fd5b611c8c338484612425565b6001905092915050565b600b60009054906101000a900460ff1681565b60065481565b6000611cbb8484610cee565b1515611cc657600080fd5b8373ffffffffffffffffffffffffffffffffffffffff16638f4ffcb1338530866040518563ffffffff167c0100000000000000000000000000000000000000000000000000000000028152600401808573ffffffffffffffffffffffffffffffffffffffff1673ffffffffffffffffffffffffffffffffffffffff1681526020018481526020018373ffffffffffffffffffffffffffffffffffffffff1673ffffffffffffffffffffffffffffffffffffffff16815260200180602001828103825283818151815260200191508051906020019080838360005b83811015611dbb578082015181840152602081019050611da0565b50505050905090810190601f168015611de85780820380516001836020036101000a031916815260200191505b5095505050505050600060405180830381600087803b158015611e0a57600080fd5b505af1158015611e1e573d6000803e3d6000fd5b50505050600190509392505050565b60008060008060009054906101000a900473ffffffffffffffffffffffffffffffffffffffff1673ffffffffffffffffffffffffffffffffffffffff163373ffffffffffffffffffffffffffffffffffffffff16141515611e8d57600080fd5b611e95611005565b9150838210151515611ea657600080fd5b611eaf856118a3565b9050838110151515611ec057600080fd5b611ecd600a8584036129d8565b611f17600860008773ffffffffffffffffffffffffffffffffffffffff1673ffffffffffffffffffffffffffffffffffffffff1681526020019081526020016000208583036129d8565b60008573ffffffffffffffffffffffffffffffffffffffff167fddf252ad1be2c89b69c2b068fc378daa952ba7f163c4a11628f55a4df523b3ef866040518082815260200191505060405180910390a360019250505092915050565b6000600960008473ffffffffffffffffffffffffffffffffffffffff1673ffffffffffffffffffffffffffffffffffffffff16815260200190815260200160002060008373ffffffffffffffffffffffffffffffffffffffff1673ffffffffffffffffffffffffffffffffffffffff16815260200190815260200160002054905092915050565b6000806000809054906101000a900473ffffffffffffffffffffffffffffffffffffffff1673ffffffffffffffffffffffffffffffffffffffff163373ffffffffffffffffffffffffffffffffffffffff1614151561205857600080fd5b60008373ffffffffffffffffffffffffffffffffffffffff1614156120fb576000809054906101000a900473ffffffffffffffffffffffffffffffffffffffff1673ffffffffffffffffffffffffffffffffffffffff166108fc3073ffffffffffffffffffffffffffffffffffffffff16319081150290604051600060405180830381858888f193505050501580156120f5573d6000803e3d6000fd5b5061235d565b8291508173ffffffffffffffffffffffffffffffffffffffff166370a08231306040518263ffffffff167c0100000000000000000000000000000000000000000000000000000000028152600401808273ffffffffffffffffffffffffffffffffffffffff1673ffffffffffffffffffffffffffffffffffffffff168152602001915050602060405180830381600087803b15801561219957600080fd5b505af11580156121ad573d6000803e3d6000fd5b505050506040513d60208110156121c357600080fd5b810190808051906020019092919050505090508173ffffffffffffffffffffffffffffffffffffffff1663a9059cbb6000809054906101000a900473ffffffffffffffffffffffffffffffffffffffff16836040518363ffffffff167c0100000000000000000000000000000000000000000000000000000000028152600401808373ffffffffffffffffffffffffffffffffffffffff1673ffffffffffffffffffffffffffffffffffffffff16815260200182815260200192505050602060405180830381600087803b15801561229a57600080fd5b505af11580156122ae573d6000803e3d6000fd5b505050506040513d60208110156122c457600080fd5b8101908080519060200190929190505050506000809054906101000a900473ffffffffffffffffffffffffffffffffffffffff1673ffffffffffffffffffffffffffffffffffffffff168373ffffffffffffffffffffffffffffffffffffffff167ff931edb47c50b4b4104c187b5814a9aef5f709e17e2ecf9617e860cacade929c836040518082815260200191505060405180910390a35b505050565b600b60019054906101000a900473ffffffffffffffffffffffffffffffffffffffff1681565b6000809054906101000a900473ffffffffffffffffffffffffffffffffffffffff1673ffffffffffffffffffffffffffffffffffffffff163373ffffffffffffffffffffffffffffffffffffffff161415156123e357600080fd5b80600b60006101000a81548160ff02191690831515021790555050565b6000809054906101000a900473ffffffffffffffffffffffffffffffffffffffff1681565b600080600083141561249b578373ffffffffffffffffffffffffffffffffffffffff168573ffffffffffffffffffffffffffffffffffffffff167fddf252ad1be2c89b69c2b068fc378daa952ba7f163c4a11628f55a4df523b3ef856040518082815260200191505060405180910390a36127a9565b436006541015156124ab57600080fd5b60008473ffffffffffffffffffffffffffffffffffffffff16141580156124fe57503073ffffffffffffffffffffffffffffffffffffffff168473ffffffffffffffffffffffffffffffffffffffff1614155b151561250957600080fd5b6125138543611265565b915082821015151561252457600080fd5b61254e6000809054906101000a900473ffffffffffffffffffffffffffffffffffffffff16610c14565b15612692576000809054906101000a900473ffffffffffffffffffffffffffffffffffffffff1673ffffffffffffffffffffffffffffffffffffffff16634a3931498686866040518463ffffffff167c0100000000000000000000000000000000000000000000000000000000028152600401808473ffffffffffffffffffffffffffffffffffffffff1673ffffffffffffffffffffffffffffffffffffffff1681526020018373ffffffffffffffffffffffffffffffffffffffff1673ffffffffffffffffffffffffffffffffffffffff1681526020018281526020019350505050602060405180830381600087803b15801561264b57600080fd5b505af115801561265f573d6000803e3d6000fd5b505050506040513d602081101561267557600080fd5b8101908080519060200190929190505050151561269157600080fd5b5b6126dc600860008773ffffffffffffffffffffffffffffffffffffffff1673ffffffffffffffffffffffffffffffffffffffff1681526020019081526020016000208484036129d8565b6126e68443611265565b905080838201101515156126f957600080fd5b612743600860008673ffffffffffffffffffffffffffffffffffffffff1673ffffffffffffffffffffffffffffffffffffffff1681526020019081526020016000208483016129d8565b8373ffffffffffffffffffffffffffffffffffffffff168573ffffffffffffffffffffffffffffffffffffffff167fddf252ad1be2c89b69c2b068fc378daa952ba7f163c4a11628f55a4df523b3ef856040518082815260200191505060405180910390a35b5050505050565b60008183106127bf57816127c1565b825b905092915050565b6000806000806000868054905014156127e557600093506129cf565b8560018780549050038154811015156127fa57fe5b9060005260206000200160000160009054906101000a90046fffffffffffffffffffffffffffffffff166fffffffffffffffffffffffffffffffff16851015156128965785600187805490500381548110151561285357fe5b9060005260206000200160000160109054906101000a90046fffffffffffffffffffffffffffffffff166fffffffffffffffffffffffffffffffff1693506129cf565b8560008154811015156128a557fe5b9060005260206000200160000160009054906101000a90046fffffffffffffffffffffffffffffffff166fffffffffffffffffffffffffffffffff168510156128f157600093506129cf565b60009250600186805490500391505b8282111561298257600260018484010181151561291957fe5b04905084868281548110151561292b57fe5b9060005260206000200160000160009054906101000a90046fffffffffffffffffffffffffffffffff166fffffffffffffffffffffffffffffffff161115156129765780925061297d565b6001810391505b612900565b858381548110151561299057fe5b9060005260206000200160000160109054906101000a90046fffffffffffffffffffffffffffffffff166fffffffffffffffffffffffffffffffff1693505b50505092915050565b600080600084805490501480612a3d5750438460018680549050038154811015156129ff57fe5b9060005260206000200160000160009054906101000a90046fffffffffffffffffffffffffffffffff166fffffffffffffffffffffffffffffffff16105b15612ae95783848054809190600101612a569190612b4c565b815481101515612a6257fe5b906000526020600020019150438260000160006101000a8154816fffffffffffffffffffffffffffffffff02191690836fffffffffffffffffffffffffffffffff160217905550828260000160106101000a8154816fffffffffffffffffffffffffffffffff02191690836fffffffffffffffffffffffffffffffff160217905550612b46565b836001858054905003815481101515612afe57fe5b906000526020600020019050828160000160106101000a8154816fffffffffffffffffffffffffffffffff02191690836fffffffffffffffffffffffffffffffff1602179055505b50505050565b815481835581811115612b7357818360005260206000209182019101612b729190612b78565b5b505050565b612bda91905b80821115612bd657600080820160006101000a8154906fffffffffffffffffffffffffffffffff02191690556000820160106101000a8154906fffffffffffffffffffffffffffffffff021916905550600101612b7e565b5090565b905600a165627a7a72305820e6783caad85668886fafcf531ee108f85774cf2007f25ce2c974a281c98ddca80029",
  "source": "pragma solidity ^0.4.18;\r\n\r\n/*\r\n    Copyright 2016, Jordi Baylina\r\n\r\n    This program is free software: you can redistribute it and/or modify\r\n    it under the terms of the GNU General Public License as published by\r\n    the Free Software Foundation, either version 3 of the License, or\r\n    (at your option) any later version.\r\n\r\n    This program is distributed in the hope that it will be useful,\r\n    but WITHOUT ANY WARRANTY; without even the implied warranty of\r\n    MERCHANTABILITY or FITNESS FOR A PARTICULAR PURPOSE.  See the\r\n    GNU General Public License for more details.\r\n\r\n    You should have received a copy of the GNU General Public License\r\n    along with this program.  If not, see <http://www.gnu.org/licenses/>.\r\n */\r\n\r\n/// @title MiniMeToken Contract\r\n/// @author Jordi Baylina\r\n/// @dev This token contract's goal is to make it easy for anyone to clone this\r\n///  token using the token distribution at a given block, this will allow DAO's\r\n///  and DApps to upgrade their features in a decentralized manner without\r\n///  affecting the original token\r\n/// @dev It is ERC20 compliant, but still needs to under go further testing.\r\n\r\ncontract Controlled {\r\n    /// @notice The address of the controller is the only address that can call\r\n    ///  a function with this modifier\r\n    modifier onlyController { require(msg.sender == controller); _; }\r\n\r\n    address public controller;\r\n\r\n    constructor () public { controller = msg.sender;}\r\n\r\n    /// @notice Changes the controller of the contract\r\n    /// @param _newController The new controller of the contract\r\n    function changeController(address _newController) public onlyController {\r\n        controller = _newController;\r\n    }\r\n}\r\n\r\n/// @dev The token controller contract must implement these functions\r\ncontract TokenController {\r\n    /// @notice Called when `_owner` sends ether to the MiniMe Token contract\r\n    /// @param _owner The address that sent the ether to create tokens\r\n    /// @return True if the ether is accepted, false if it throws\r\n    function proxyPayment(address _owner) public payable returns(bool);\r\n\r\n    /// @notice Notifies the controller about a token transfer allowing the\r\n    ///  controller to react if desired\r\n    /// @param _from The origin of the transfer\r\n    /// @param _to The destination of the transfer\r\n    /// @param _amount The amount of the transfer\r\n    /// @return False if the controller does not authorize the transfer\r\n    function onTransfer(address _from, address _to, uint _amount) public returns(bool);\r\n\r\n    /// @notice Notifies the controller about an approval allowing the\r\n    ///  controller to react if desired\r\n    /// @param _owner The address that calls `approve()`\r\n    /// @param _spender The spender in the `approve()` call\r\n    /// @param _amount The amount in the `approve()` call\r\n    /// @return False if the controller does not authorize the approval\r\n    function onApprove(address _owner, address _spender, uint _amount) public\r\n        returns(bool);\r\n}\r\n\r\ncontract ApproveAndCallFallBack {\r\n    function receiveApproval(address from, uint256 _amount, address _token, bytes _data) public;\r\n}\r\n\r\n/// @dev The actual token contract, the default controller is the msg.sender\r\n///  that deploys the contract, so usually this token will be deployed by a\r\n///  token controller contract, which Giveth will call a \"Campaign\"\r\ncontract MiniMeToken is Controlled {\r\n\r\n    string public name;                //The Token's name: e.g. DigixDAO Tokens\r\n    uint8 public decimals;             //Number of decimals of the smallest unit\r\n    string public symbol;              //An identifier: e.g. REP\r\n    string public version = 'MMT_0.2'; //An arbitrary versioning scheme\r\n\r\n\r\n    /// @dev `Checkpoint` is the structure that attaches a block number to a\r\n    ///  given value, the block number attached is the one that last changed the\r\n    ///  value\r\n    struct  Checkpoint {\r\n\r\n        // `fromBlock` is the block number that the value was generated from\r\n        uint128 fromBlock;\r\n\r\n        // `value` is the amount of tokens at a specific block number\r\n        uint128 value;\r\n    }\r\n\r\n    // `parentToken` is the Token address that was cloned to produce this token;\r\n    //  it will be 0x0 for a token that was not cloned\r\n    MiniMeToken public parentToken;\r\n\r\n    // `parentSnapShotBlock` is the block number from the Parent Token that was\r\n    //  used to determine the initial distribution of the Clone Token\r\n    uint public parentSnapShotBlock;\r\n\r\n    // `creationBlock` is the block number that the Clone Token was created\r\n    uint public creationBlock;\r\n\r\n    // `balances` is the map that tracks the balance of each address, in this\r\n    //  contract when the balance changes the block number that the change\r\n    //  occurred is also included in the map\r\n    mapping (address => Checkpoint[]) balances;\r\n\r\n    // `allowed` tracks any extra transfer rights as in all ERC20 tokens\r\n    mapping (address => mapping (address => uint256)) allowed;\r\n\r\n    // Tracks the history of the `totalSupply` of the token\r\n    Checkpoint[] totalSupplyHistory;\r\n\r\n    // Flag that determines if the token is transferable or not.\r\n    bool public transfersEnabled;\r\n\r\n    // The factory used to create new clone tokens\r\n    MiniMeTokenFactory public tokenFactory;\r\n\r\n////////////////\r\n// Constructor\r\n////////////////\r\n\r\n    /// @notice Constructor to create a MiniMeToken\r\n    /// @param _tokenFactory The address of the MiniMeTokenFactory contract that\r\n    ///  will create the Clone token contracts, the token factory needs to be\r\n    ///  deployed first\r\n    /// @param _parentToken Address of the parent token, set to 0x0 if it is a\r\n    ///  new token\r\n    /// @param _parentSnapShotBlock Block of the parent token that will\r\n    ///  determine the initial distribution of the clone token, set to 0 if it\r\n    ///  is a new token\r\n    /// @param _tokenName Name of the new token\r\n    /// @param _decimalUnits Number of decimals of the new token\r\n    /// @param _tokenSymbol Token Symbol for the new token\r\n    /// @param _transfersEnabled If true, tokens will be able to be transferred\r\n    constructor (\r\n        address _tokenFactory,\r\n        address _parentToken,\r\n        uint _parentSnapShotBlock,\r\n        string _tokenName,\r\n        uint8 _decimalUnits,\r\n        string _tokenSymbol,\r\n        bool _transfersEnabled\r\n    ) public {\r\n        tokenFactory = MiniMeTokenFactory(_tokenFactory);\r\n        name = _tokenName;                                 // Set the name\r\n        decimals = _decimalUnits;                          // Set the decimals\r\n        symbol = _tokenSymbol;                             // Set the symbol\r\n        parentToken = MiniMeToken(_parentToken);\r\n        parentSnapShotBlock = _parentSnapShotBlock;\r\n        transfersEnabled = _transfersEnabled;\r\n        creationBlock = block.number;\r\n    }\r\n\r\n\r\n///////////////////\r\n// ERC20 Methods\r\n///////////////////\r\n\r\n    /// @notice Send `_amount` tokens to `_to` from `msg.sender`\r\n    /// @param _to The address of the recipient\r\n    /// @param _amount The amount of tokens to be transferred\r\n    /// @return Whether the transfer was successful or not\r\n    function transfer(address _to, uint256 _amount) public returns (bool success) {\r\n        require(transfersEnabled);\r\n        doTransfer(msg.sender, _to, _amount);\r\n        return true;\r\n    }\r\n\r\n    /// @notice Send `_amount` tokens to `_to` from `_from` on the condition it\r\n    ///  is approved by `_from`\r\n    /// @param _from The address holding the tokens being transferred\r\n    /// @param _to The address of the recipient\r\n    /// @param _amount The amount of tokens to be transferred\r\n    /// @return True if the transfer was successful\r\n    function transferFrom(address _from, address _to, uint256 _amount\r\n    ) public returns (bool success) {\r\n\r\n        // The controller of this contract can move tokens around at will,\r\n        //  this is important to recognize! Confirm that you trust the\r\n        //  controller of this contract, which in most situations should be\r\n        //  another open source smart contract or 0x0\r\n        if (msg.sender != controller) {\r\n            require(transfersEnabled);\r\n\r\n            // The standard ERC 20 transferFrom functionality\r\n            require(allowed[_from][msg.sender] >= _amount);\r\n            allowed[_from][msg.sender] -= _amount;\r\n        }\r\n        doTransfer(_from, _to, _amount);\r\n        return true;\r\n    }\r\n\r\n    /// @dev This is the actual transfer function in the token contract, it can\r\n    ///  only be called by other functions in this contract.\r\n    /// @param _from The address holding the tokens being transferred\r\n    /// @param _to The address of the recipient\r\n    /// @param _amount The amount of tokens to be transferred\r\n    /// @return True if the transfer was successful\r\n    function doTransfer(address _from, address _to, uint _amount\r\n    ) internal {\r\n\r\n        if (_amount == 0) {\r\n            emit Transfer(_from, _to, _amount);    // Follow the spec to louch the event when transfer 0\r\n            return;\r\n        }\r\n\r\n        require(parentSnapShotBlock < block.number);\r\n\r\n        // Do not allow transfer to 0x0 or the token contract itself\r\n        require((_to != 0) && (_to != address(this)));\r\n\r\n        // If the amount being transfered is more than the balance of the\r\n        //  account the transfer throws\r\n        uint previousBalanceFrom = balanceOfAt(_from, block.number);\r\n\r\n        require(previousBalanceFrom >= _amount);\r\n\r\n        // Alerts the token controller of the transfer\r\n        if (isContract(controller)) {\r\n            require(TokenController(controller).onTransfer(_from, _to, _amount));\r\n        }\r\n\r\n        // First update the balance array with the new value for the address\r\n        //  sending the tokens\r\n        updateValueAtNow(balances[_from], previousBalanceFrom - _amount);\r\n\r\n        // Then update the balance array with the new value for the address\r\n        //  receiving the tokens\r\n        uint previousBalanceTo = balanceOfAt(_to, block.number);\r\n        require(previousBalanceTo + _amount >= previousBalanceTo); // Check for overflow\r\n        updateValueAtNow(balances[_to], previousBalanceTo + _amount);\r\n\r\n        // An event to make the transfer easy to find on the blockchain\r\n        emit Transfer(_from, _to, _amount);\r\n\r\n    }\r\n\r\n    /// @param _owner The address that's balance is being requested\r\n    /// @return The balance of `_owner` at the current block\r\n    function balanceOf(address _owner) public constant returns (uint256 balance) {\r\n        return balanceOfAt(_owner, block.number);\r\n    }\r\n\r\n    /// @notice `msg.sender` approves `_spender` to spend `_amount` tokens on\r\n    ///  its behalf. This is a modified version of the ERC20 approve function\r\n    ///  to be a little bit safer\r\n    /// @param _spender The address of the account able to transfer the tokens\r\n    /// @param _amount The amount of tokens to be approved for transfer\r\n    /// @return True if the approval was successful\r\n    function approve(address _spender, uint256 _amount) public returns (bool success) {\r\n        require(transfersEnabled);\r\n\r\n        // To change the approve amount you first have to reduce the addresses`\r\n        //  allowance to zero by calling `approve(_spender,0)` if it is not\r\n        //  already 0 to mitigate the race condition described here:\r\n        //  https://github.com/ethereum/EIPs/issues/20#issuecomment-263524729\r\n        require((_amount == 0) || (allowed[msg.sender][_spender] == 0));\r\n\r\n        // Alerts the token controller of the approve function call\r\n        if (isContract(controller)) {\r\n            require(TokenController(controller).onApprove(msg.sender, _spender, _amount));\r\n        }\r\n\r\n        allowed[msg.sender][_spender] = _amount;\r\n        emit Approval(msg.sender, _spender, _amount);\r\n        return true;\r\n    }\r\n\r\n    /// @dev This function makes it easy to read the `allowed[]` map\r\n    /// @param _owner The address of the account that owns the token\r\n    /// @param _spender The address of the account able to transfer the tokens\r\n    /// @return Amount of remaining tokens of _owner that _spender is allowed\r\n    ///  to spend\r\n    function allowance(address _owner, address _spender\r\n    ) public constant returns (uint256 remaining) {\r\n        return allowed[_owner][_spender];\r\n    }\r\n\r\n    /// @notice `msg.sender` approves `_spender` to send `_amount` tokens on\r\n    ///  its behalf, and then a function is triggered in the contract that is\r\n    ///  being approved, `_spender`. This allows users to use their tokens to\r\n    ///  interact with contracts in one function call instead of two\r\n    /// @param _spender The address of the contract able to transfer the tokens\r\n    /// @param _amount The amount of tokens to be approved for transfer\r\n    /// @return True if the function call was successful\r\n    function approveAndCall(address _spender, uint256 _amount, bytes _extraData\r\n    ) public returns (bool success) {\r\n        require(approve(_spender, _amount));\r\n\r\n        ApproveAndCallFallBack(_spender).receiveApproval(\r\n            msg.sender,\r\n            _amount,\r\n            this,\r\n            _extraData\r\n        );\r\n\r\n        return true;\r\n    }\r\n\r\n    /// @dev This function makes it easy to get the total number of tokens\r\n    /// @return The total number of tokens\r\n    function totalSupply() public constant returns (uint) {\r\n        return totalSupplyAt(block.number);\r\n    }\r\n\r\n\r\n////////////////\r\n// Query balance and totalSupply in History\r\n////////////////\r\n\r\n    /// @dev Queries the balance of `_owner` at a specific `_blockNumber`\r\n    /// @param _owner The address from which the balance will be retrieved\r\n    /// @param _blockNumber The block number when the balance is queried\r\n    /// @return The balance at `_blockNumber`\r\n    function balanceOfAt(address _owner, uint _blockNumber) public constant\r\n        returns (uint) {\r\n\r\n        // These next few lines are used when the balance of the token is\r\n        //  requested before a check point was ever created for this token, it\r\n        //  requires that the `parentToken.balanceOfAt` be queried at the\r\n        //  genesis block for that token as this contains initial balance of\r\n        //  this token\r\n        if ((balances[_owner].length == 0)\r\n            || (balances[_owner][0].fromBlock > _blockNumber)) {\r\n            if (address(parentToken) != 0) {\r\n                return parentToken.balanceOfAt(_owner, min(_blockNumber, parentSnapShotBlock));\r\n            } else {\r\n                // Has no parent\r\n                return 0;\r\n            }\r\n\r\n        // This will return the expected balance during normal situations\r\n        } else {\r\n            return getValueAt(balances[_owner], _blockNumber);\r\n        }\r\n    }\r\n\r\n    /// @notice Total amount of tokens at a specific `_blockNumber`.\r\n    /// @param _blockNumber The block number when the totalSupply is queried\r\n    /// @return The total amount of tokens at `_blockNumber`\r\n    function totalSupplyAt(uint _blockNumber) public constant returns(uint) {\r\n\r\n        // These next few lines are used when the totalSupply of the token is\r\n        //  requested before a check point was ever created for this token, it\r\n        //  requires that the `parentToken.totalSupplyAt` be queried at the\r\n        //  genesis block for this token as that contains totalSupply of this\r\n        //  token at this block number.\r\n        if ((totalSupplyHistory.length == 0)\r\n            || (totalSupplyHistory[0].fromBlock > _blockNumber)) {\r\n            if (address(parentToken) != 0) {\r\n                return parentToken.totalSupplyAt(min(_blockNumber, parentSnapShotBlock));\r\n            } else {\r\n                return 0;\r\n            }\r\n\r\n        // This will return the expected totalSupply during normal situations\r\n        } else {\r\n            return getValueAt(totalSupplyHistory, _blockNumber);\r\n        }\r\n    }\r\n\r\n////////////////\r\n// Clone Token Method\r\n////////////////\r\n\r\n    /// @notice Creates a new clone token with the initial distribution being\r\n    ///  this token at `_snapshotBlock`\r\n    /// @param _cloneTokenName Name of the clone token\r\n    /// @param _cloneDecimalUnits Number of decimals of the smallest unit\r\n    /// @param _cloneTokenSymbol Symbol of the clone token\r\n    /// @param _snapshotBlock Block when the distribution of the parent token is\r\n    ///  copied to set the initial distribution of the new clone token;\r\n    ///  if the block is zero than the actual block, the current block is used\r\n    /// @param _transfersEnabled True if transfers are allowed in the clone\r\n    /// @return The address of the new MiniMeToken Contract\r\n    function createCloneToken(\r\n        string _cloneTokenName,\r\n        uint8 _cloneDecimalUnits,\r\n        string _cloneTokenSymbol,\r\n        uint _snapshotBlock,\r\n        bool _transfersEnabled\r\n        ) public returns(address) {\r\n        if (_snapshotBlock == 0) _snapshotBlock = block.number;\r\n        MiniMeToken cloneToken = tokenFactory.createCloneToken(\r\n            this,\r\n            _snapshotBlock,\r\n            _cloneTokenName,\r\n            _cloneDecimalUnits,\r\n            _cloneTokenSymbol,\r\n            _transfersEnabled\r\n            );\r\n\r\n        cloneToken.changeController(msg.sender);\r\n\r\n        // An event to make the token easy to find on the blockchain\r\n        emit NewCloneToken(address(cloneToken), _snapshotBlock);\r\n        return address(cloneToken);\r\n    }\r\n\r\n////////////////\r\n// Generate and destroy tokens\r\n////////////////\r\n\r\n    /// @notice Generates `_amount` tokens that are assigned to `_owner`\r\n    /// @param _owner The address that will be assigned the new tokens\r\n    /// @param _amount The quantity of tokens generated\r\n    /// @return True if the tokens are generated correctly\r\n    function generateTokens(address _owner, uint _amount\r\n    ) public onlyController returns (bool) {\r\n        uint curTotalSupply = totalSupply();\r\n        require(curTotalSupply + _amount >= curTotalSupply); // Check for overflow\r\n        uint previousBalanceTo = balanceOf(_owner);\r\n        require(previousBalanceTo + _amount >= previousBalanceTo); // Check for overflow\r\n        updateValueAtNow(totalSupplyHistory, curTotalSupply + _amount);\r\n        updateValueAtNow(balances[_owner], previousBalanceTo + _amount);\r\n        emit Transfer(0, _owner, _amount);\r\n        return true;\r\n    }\r\n\r\n\r\n    /// @notice Burns `_amount` tokens from `_owner`\r\n    /// @param _owner The address that will lose the tokens\r\n    /// @param _amount The quantity of tokens to burn\r\n    /// @return True if the tokens are burned correctly\r\n    function destroyTokens(address _owner, uint _amount\r\n    ) onlyController public returns (bool) {\r\n        uint curTotalSupply = totalSupply();\r\n        require(curTotalSupply >= _amount);\r\n        uint previousBalanceFrom = balanceOf(_owner);\r\n        require(previousBalanceFrom >= _amount);\r\n        updateValueAtNow(totalSupplyHistory, curTotalSupply - _amount);\r\n        updateValueAtNow(balances[_owner], previousBalanceFrom - _amount);\r\n        emit Transfer(_owner, 0, _amount);\r\n        return true;\r\n    }\r\n\r\n////////////////\r\n// Enable tokens transfers\r\n////////////////\r\n\r\n\r\n    /// @notice Enables token holders to transfer their tokens freely if true\r\n    /// @param _transfersEnabled True if transfers are allowed in the clone\r\n    function enableTransfers(bool _transfersEnabled) public onlyController {\r\n        transfersEnabled = _transfersEnabled;\r\n    }\r\n\r\n////////////////\r\n// Internal helper functions to query and set a value in a snapshot array\r\n////////////////\r\n\r\n    /// @dev `getValueAt` retrieves the number of tokens at a given block number\r\n    /// @param checkpoints The history of values being queried\r\n    /// @param _block The block number to retrieve the value at\r\n    /// @return The number of tokens being queried\r\n    function getValueAt(Checkpoint[] storage checkpoints, uint _block\r\n    ) constant internal returns (uint) {\r\n        if (checkpoints.length == 0) return 0;\r\n\r\n        // Shortcut for the actual value\r\n        if (_block >= checkpoints[checkpoints.length-1].fromBlock)\r\n            return checkpoints[checkpoints.length-1].value;\r\n        if (_block < checkpoints[0].fromBlock) return 0;\r\n\r\n        // Binary search of the value in the array\r\n        uint min = 0;\r\n        uint max = checkpoints.length-1;\r\n        while (max > min) {\r\n            uint mid = (max + min + 1)/ 2;\r\n            if (checkpoints[mid].fromBlock<=_block) {\r\n                min = mid;\r\n            } else {\r\n                max = mid-1;\r\n            }\r\n        }\r\n        return checkpoints[min].value;\r\n    }\r\n\r\n    /// @dev `updateValueAtNow` used to update the `balances` map and the\r\n    ///  `totalSupplyHistory`\r\n    /// @param checkpoints The history of data being updated\r\n    /// @param _value The new number of tokens\r\n    function updateValueAtNow(Checkpoint[] storage checkpoints, uint _value\r\n    ) internal  {\r\n        if ((checkpoints.length == 0)\r\n        || (checkpoints[checkpoints.length -1].fromBlock < block.number)) {\r\n               Checkpoint storage newCheckPoint = checkpoints[ checkpoints.length++ ];\r\n               newCheckPoint.fromBlock =  uint128(block.number);\r\n               newCheckPoint.value = uint128(_value);\r\n           } else {\r\n               Checkpoint storage oldCheckPoint = checkpoints[checkpoints.length-1];\r\n               oldCheckPoint.value = uint128(_value);\r\n           }\r\n    }\r\n\r\n    /// @dev Internal function to determine if an address is a contract\r\n    /// @param _addr The address being queried\r\n    /// @return True if `_addr` is a contract\r\n    function isContract(address _addr) constant internal returns(bool) {\r\n        uint size;\r\n        if (_addr == 0) return false;\r\n        assembly {\r\n            size := extcodesize(_addr)\r\n        }\r\n        return size>0;\r\n    }\r\n\r\n    /// @dev Helper function to return a min betwen the two uints\r\n    function min(uint a, uint b) pure internal returns (uint) {\r\n        return a < b ? a : b;\r\n    }\r\n\r\n    /// @notice The fallback function: If the contract's controller has not been\r\n    ///  set to 0, then the `proxyPayment` method is called which relays the\r\n    ///  ether and creates tokens as described in the token controller contract\r\n    function () public payable {\r\n        require(isContract(controller));\r\n        require(TokenController(controller).proxyPayment.value(msg.value)(msg.sender));\r\n    }\r\n\r\n//////////\r\n// Safety Methods\r\n//////////\r\n\r\n    /// @notice This method can be used by the controller to extract mistakenly\r\n    ///  sent tokens to this contract.\r\n    /// @param _token The address of the token contract that you want to recover\r\n    ///  set to 0 in case you want to extract ether.\r\n    function claimTokens(address _token) public onlyController {\r\n        if (_token == 0x0) {\r\n            controller.transfer(address(this).balance);\r\n            return;\r\n        }\r\n\r\n        MiniMeToken token = MiniMeToken(_token);\r\n        uint balance = token.balanceOf(this);\r\n        token.transfer(controller, balance);\r\n        emit ClaimedTokens(_token, controller, balance);\r\n    }\r\n\r\n////////////////\r\n// Events\r\n////////////////\r\n    event ClaimedTokens(address indexed _token, address indexed _controller, uint _amount);\r\n    event Transfer(address indexed _from, address indexed _to, uint256 _amount);\r\n    event NewCloneToken(address indexed _cloneToken, uint _snapshotBlock);\r\n    event Approval(\r\n        address indexed _owner,\r\n        address indexed _spender,\r\n        uint256 _amount\r\n        );\r\n\r\n}\r\n\r\n\r\n////////////////\r\n// MiniMeTokenFactory\r\n////////////////\r\n\r\n/// @dev This contract is used to generate clone contracts from a contract.\r\n///  In solidity this is the way to create a contract from a contract of the\r\n///  same class\r\ncontract MiniMeTokenFactory {\r\n\r\n    /// @notice Update the DApp by creating a new token with new functionalities\r\n    ///  the msg.sender becomes the controller of this clone token\r\n    /// @param _parentToken Address of the token being cloned\r\n    /// @param _snapshotBlock Block of the parent token that will\r\n    ///  determine the initial distribution of the clone token\r\n    /// @param _tokenName Name of the new token\r\n    /// @param _decimalUnits Number of decimals of the new token\r\n    /// @param _tokenSymbol Token Symbol for the new token\r\n    /// @param _transfersEnabled If true, tokens will be able to be transferred\r\n    /// @return The address of the new token contract\r\n    function createCloneToken(\r\n        address _parentToken,\r\n        uint _snapshotBlock,\r\n        string _tokenName,\r\n        uint8 _decimalUnits,\r\n        string _tokenSymbol,\r\n        bool _transfersEnabled\r\n    ) public returns (MiniMeToken) {\r\n        MiniMeToken newToken = new MiniMeToken(\r\n            this,\r\n            _parentToken,\r\n            _snapshotBlock,\r\n            _tokenName,\r\n            _decimalUnits,\r\n            _tokenSymbol,\r\n            _transfersEnabled\r\n            );\r\n\r\n        newToken.changeController(msg.sender);\r\n        return newToken;\r\n    }\r\n}",
  "sourcePath": "C:\\Users\\My\\Documents\\GitHub\\everchain-project\\recurring-alarm-clock\\contracts\\external\\MiniMeToken.sol",
  "compiler": {
    "name": "solc",
    "version": "0.4.24+commit.e67f0147.Emscripten.clang"
  },
  "schemaVersion": "2.0.1",
  "updatedAt": "2018-09-30T19:37:48.657Z"
}