{
  "contractName": "OneTimePayment",
  "abi": [
    {
      "constant": true,
      "inputs": [],
      "name": "blockCreated",
      "outputs": [
        {
          "name": "",
          "type": "uint256"
        }
      ],
      "payable": false,
      "stateMutability": "view",
      "type": "function"
    },
    {
      "constant": true,
      "inputs": [],
      "name": "wallet",
      "outputs": [
        {
          "name": "",
          "type": "address"
        }
      ],
      "payable": false,
      "stateMutability": "view",
      "type": "function"
    },
    {
      "constant": true,
      "inputs": [],
      "name": "recipient",
      "outputs": [
        {
          "name": "",
          "type": "address"
        }
      ],
      "payable": false,
      "stateMutability": "view",
      "type": "function"
    },
    {
      "constant": true,
      "inputs": [],
      "name": "amount",
      "outputs": [
        {
          "name": "",
          "type": "uint256"
        }
      ],
      "payable": false,
      "stateMutability": "view",
      "type": "function"
    },
    {
      "constant": true,
      "inputs": [],
      "name": "factory",
      "outputs": [
        {
          "name": "",
          "type": "address"
        }
      ],
      "payable": false,
      "stateMutability": "view",
      "type": "function"
    },
    {
      "constant": true,
      "inputs": [],
      "name": "delegate",
      "outputs": [
        {
          "name": "",
          "type": "address"
        }
      ],
      "payable": false,
      "stateMutability": "view",
      "type": "function"
    },
    {
      "constant": true,
      "inputs": [],
      "name": "token",
      "outputs": [
        {
          "name": "",
          "type": "address"
        }
      ],
      "payable": false,
      "stateMutability": "view",
      "type": "function"
    },
    {
      "payable": false,
      "stateMutability": "nonpayable",
      "type": "fallback"
    },
    {
      "anonymous": false,
      "inputs": [
        {
          "indexed": false,
          "name": "amount",
          "type": "uint256"
        },
        {
          "indexed": false,
          "name": "success",
          "type": "bool"
        }
      ],
      "name": "Payment_event",
      "type": "event"
    },
    {
      "constant": false,
      "inputs": [
        {
          "name": "_delegate",
          "type": "address"
        },
        {
          "name": "_wallet",
          "type": "address"
        },
        {
          "name": "_token",
          "type": "address"
        },
        {
          "name": "_recipient",
          "type": "address"
        },
        {
          "name": "_amount",
          "type": "uint256"
        }
      ],
      "name": "initialize",
      "outputs": [],
      "payable": false,
      "stateMutability": "nonpayable",
      "type": "function"
    },
    {
      "constant": false,
      "inputs": [],
      "name": "cancel",
      "outputs": [],
      "payable": false,
      "stateMutability": "nonpayable",
      "type": "function"
    }
  ],
  "bytecode": "0x608060405234801561001057600080fd5b50610dfe806100206000396000f3fe608060405260043610610099576000357c0100000000000000000000000000000000000000000000000000000000900463ffffffff1680634e989a4c14610449578063521eb2731461047457806366d003ac146104cb578063aa8c217c14610522578063c45a01551461054d578063c89e4361146105a4578063ea8a1af0146105fb578063f7013ef614610612578063fc0c546a146106cd575b3480156100a557600080fd5b506000600560009054906101000a900473ffffffffffffffffffffffffffffffffffffffff1673ffffffffffffffffffffffffffffffffffffffff1663beabacc8600760009054906101000a900473ffffffffffffffffffffffffffffffffffffffff16600860009054906101000a900473ffffffffffffffffffffffffffffffffffffffff166009546040518463ffffffff167c0100000000000000000000000000000000000000000000000000000000028152600401808473ffffffffffffffffffffffffffffffffffffffff1673ffffffffffffffffffffffffffffffffffffffff1681526020018373ffffffffffffffffffffffffffffffffffffffff1673ffffffffffffffffffffffffffffffffffffffff1681526020018281526020019350505050602060405180830381600087803b1580156101e757600080fd5b505af11580156101fb573d6000803e3d6000fd5b505050506040513d602081101561021157600080fd5b81019080805190602001909291905050509050600560009054906101000a900473ffffffffffffffffffffffffffffffffffffffff1673ffffffffffffffffffffffffffffffffffffffff16632ec2c246600860009054906101000a900473ffffffffffffffffffffffffffffffffffffffff166040518263ffffffff167c0100000000000000000000000000000000000000000000000000000000028152600401808273ffffffffffffffffffffffffffffffffffffffff1673ffffffffffffffffffffffffffffffffffffffff168152602001915050602060405180830381600087803b15801561030357600080fd5b505af1158015610317573d6000803e3d6000fd5b505050506040513d602081101561032d57600080fd5b810190808051906020019092919050505050600560009054906101000a900473ffffffffffffffffffffffffffffffffffffffff1673ffffffffffffffffffffffffffffffffffffffff1663daf1548c6040518163ffffffff167c0100000000000000000000000000000000000000000000000000000000028152600401602060405180830381600087803b1580156103c557600080fd5b505af11580156103d9573d6000803e3d6000fd5b505050506040513d60208110156103ef57600080fd5b8101908080519060200190929190505050507f1e9a20b1248b3c170ee57c4bba9adf7007f72c5a7c2644ad0848f04fcec1398d6009548260405180838152602001821515151581526020019250505060405180910390a150005b34801561045557600080fd5b5061045e610724565b6040518082815260200191505060405180910390f35b34801561048057600080fd5b5061048961072a565b604051808273ffffffffffffffffffffffffffffffffffffffff1673ffffffffffffffffffffffffffffffffffffffff16815260200191505060405180910390f35b3480156104d757600080fd5b506104e0610750565b604051808273ffffffffffffffffffffffffffffffffffffffff1673ffffffffffffffffffffffffffffffffffffffff16815260200191505060405180910390f35b34801561052e57600080fd5b50610537610776565b6040518082815260200191505060405180910390f35b34801561055957600080fd5b5061056261077c565b604051808273ffffffffffffffffffffffffffffffffffffffff1673ffffffffffffffffffffffffffffffffffffffff16815260200191505060405180910390f35b3480156105b057600080fd5b506105b96107a2565b604051808273ffffffffffffffffffffffffffffffffffffffff1673ffffffffffffffffffffffffffffffffffffffff16815260200191505060405180910390f35b34801561060757600080fd5b506106106107c8565b005b34801561061e57600080fd5b506106cb600480360360a081101561063557600080fd5b81019080803573ffffffffffffffffffffffffffffffffffffffff169060200190929190803573ffffffffffffffffffffffffffffffffffffffff169060200190929190803573ffffffffffffffffffffffffffffffffffffffff169060200190929190803573ffffffffffffffffffffffffffffffffffffffff16906020019092919080359060200190929190505050610b37565b005b3480156106d957600080fd5b506106e2610dac565b604051808273ffffffffffffffffffffffffffffffffffffffff1673ffffffffffffffffffffffffffffffffffffffff16815260200191505060405180910390f35b60035481565b600660009054906101000a900473ffffffffffffffffffffffffffffffffffffffff1681565b600860009054906101000a900473ffffffffffffffffffffffffffffffffffffffff1681565b60095481565b600460009054906101000a900473ffffffffffffffffffffffffffffffffffffffff1681565b600560009054906101000a900473ffffffffffffffffffffffffffffffffffffffff1681565b600660009054906101000a900473ffffffffffffffffffffffffffffffffffffffff1673ffffffffffffffffffffffffffffffffffffffff166307779627336040518263ffffffff167c0100000000000000000000000000000000000000000000000000000000028152600401808273ffffffffffffffffffffffffffffffffffffffff1673ffffffffffffffffffffffffffffffffffffffff16815260200191505060206040518083038186803b15801561088357600080fd5b505afa158015610897573d6000803e3d6000fd5b505050506040513d60208110156108ad57600080fd5b81019080805190602001909291905050501515610958576040517f08c379a000000000000000000000000000000000000000000000000000000000815260040180806020018281038252602d8152602001807f6f6e6c7920612077616c6c65742064656c65676174652063616e2063616e636581526020017f6c20746865207061796d656e740000000000000000000000000000000000000081525060400191505060405180910390fd5b600560009054906101000a900473ffffffffffffffffffffffffffffffffffffffff1673ffffffffffffffffffffffffffffffffffffffff16632ec2c246600860009054906101000a900473ffffffffffffffffffffffffffffffffffffffff166040518263ffffffff167c0100000000000000000000000000000000000000000000000000000000028152600401808273ffffffffffffffffffffffffffffffffffffffff1673ffffffffffffffffffffffffffffffffffffffff168152602001915050602060405180830381600087803b158015610a3757600080fd5b505af1158015610a4b573d6000803e3d6000fd5b505050506040513d6020811015610a6157600080fd5b810190808051906020019092919050505050600560009054906101000a900473ffffffffffffffffffffffffffffffffffffffff1673ffffffffffffffffffffffffffffffffffffffff1663daf1548c6040518163ffffffff167c0100000000000000000000000000000000000000000000000000000000028152600401602060405180830381600087803b158015610af957600080fd5b505af1158015610b0d573d6000803e3d6000fd5b505050506040513d6020811015610b2357600080fd5b810190808051906020019092919050505050565b4360038190555033600460006101000a81548173ffffffffffffffffffffffffffffffffffffffff021916908373ffffffffffffffffffffffffffffffffffffffff16021790555084600560006101000a81548173ffffffffffffffffffffffffffffffffffffffff021916908373ffffffffffffffffffffffffffffffffffffffff16021790555083600660006101000a81548173ffffffffffffffffffffffffffffffffffffffff021916908373ffffffffffffffffffffffffffffffffffffffff16021790555082600760006101000a81548173ffffffffffffffffffffffffffffffffffffffff021916908373ffffffffffffffffffffffffffffffffffffffff16021790555081600860006101000a81548173ffffffffffffffffffffffffffffffffffffffff021916908373ffffffffffffffffffffffffffffffffffffffff16021790555080600981905550600560009054906101000a900473ffffffffffffffffffffffffffffffffffffffff1673ffffffffffffffffffffffffffffffffffffffff16634420e486600860009054906101000a900473ffffffffffffffffffffffffffffffffffffffff166040518263ffffffff167c0100000000000000000000000000000000000000000000000000000000028152600401808273ffffffffffffffffffffffffffffffffffffffff1673ffffffffffffffffffffffffffffffffffffffff168152602001915050602060405180830381600087803b158015610d6957600080fd5b505af1158015610d7d573d6000803e3d6000fd5b505050506040513d6020811015610d9357600080fd5b8101908080519060200190929190505050505050505050565b600760009054906101000a900473ffffffffffffffffffffffffffffffffffffffff168156fea165627a7a72305820b21a571752c412786467aabdb42bd1ff590c9687b1db5334bcbab7d376b7b5bc0029",
  "source": "pragma solidity ^0.5.0;\n\nimport \"../Interfaces.sol\";\n\n/// @title OneTimePayment Contract\n/// @author Joseph Reed\n/// @dev This contract deploys a one time payment that can be registered to a payment delegate\ncontract OneTimePayment is IPayment {\n\n    uint public blockCreated;           // Records the block when the contract is created\n    \n    address public factory;\n    IPaymentDelegate public delegate;   // The delegate that pulls funds for the payment\n    IDelegatedWallet public wallet;     // The address which owns the alarm and collects any leftover funds\n    address public token;               // The token to pull when funding an alarm. default of 0x0 represents native ether\n    address payable public recipient;   // The recipient to send pulled funds to. set to 'this' at initialization\n    uint public amount;                 // The amount of tokens to send when the payment is triggered\n\n    /// @notice Initializes the one time payment\n    /// @param _delegate The delegate from which to pull payment\n    /// @param _wallet The funding wallet\n    /// @param _token The token to send when the payment is triggered\n    /// @param _recipient The recipient of the payment\n    /// @param _amount The amount of tokens to send when the payment is triggered\n    function initialize (\n        IPaymentDelegate _delegate,\n        IDelegatedWallet _wallet,\n        address _token,\n        address payable _recipient,\n        uint _amount\n    ) public {\n        blockCreated = block.number;    // The block number at the time of deployment\n\n        factory = msg.sender;\n        delegate = _delegate;\n        wallet = _wallet;\n        token = _token;\n        recipient = _recipient;\n        amount = _amount;\n\n        delegate.register(recipient);\n    }\n\n    /// @notice The default function. Triggers a payment when called by anyone and it\n    ///         automatically unschedules itself up from the payment delegate\n    function () external {\n        bool success = delegate.transfer(token, recipient, amount);\n        delegate.unregister(recipient);\n        delegate.unschedule();\n\n        emit Payment_event(amount, success);\n    }\n\n    /// @notice Cancels the payments and unschedules it from the payment delegate\n    function cancel () public {\n        require(wallet.isDelegate(msg.sender), \"only a wallet delegate can cancel the payment\");\n\n        delegate.unregister(recipient);\n        delegate.unschedule();\n    }\n\n    event Payment_event(uint amount, bool success);\n\n}",
  "sourcePath": "/home/joe/Documents/github/everchain-project/recurring-alarm-clock/contracts/tests/OneTimePayment.sol",
  "compiler": {
    "name": "solc",
    "version": "0.5.0+commit.1d4f565a.Emscripten.clang"
  },
  "schemaVersion": "3.0.1",
  "updatedAt": "2019-01-20T00:08:46.432Z",
  "devdoc": {
    "author": "Joseph Reed",
    "details": "This contract deploys a one time payment that can be registered to a payment delegate",
    "methods": {
      "initialize(address,address,address,address,uint256)": {
        "params": {
          "_amount": "The amount of tokens to send when the payment is triggered",
          "_delegate": "The delegate from which to pull payment",
          "_recipient": "The recipient of the payment",
          "_token": "The token to send when the payment is triggered",
          "_wallet": "The funding wallet"
        }
      }
    },
    "title": "OneTimePayment Contract"
  },
  "userdoc": {
    "methods": {
      "cancel()": {
        "notice": "Cancels the payments and unschedules it from the payment delegate"
      },
      "initialize(address,address,address,address,uint256)": {
        "notice": "Initializes the one time payment"
      }
    }
  }
}