{
  "contractName": "OneTimePayment",
  "abi": [
    {
      "constant": true,
      "inputs": [],
      "name": "baseAmount",
      "outputs": [
        {
          "name": "",
          "type": "uint256"
        }
      ],
      "payable": false,
      "stateMutability": "view",
      "type": "function"
    },
    {
      "constant": true,
      "inputs": [],
      "name": "blockCreated",
      "outputs": [
        {
          "name": "",
          "type": "uint256"
        }
      ],
      "payable": false,
      "stateMutability": "view",
      "type": "function"
    },
    {
      "constant": true,
      "inputs": [],
      "name": "wallet",
      "outputs": [
        {
          "name": "",
          "type": "address"
        }
      ],
      "payable": false,
      "stateMutability": "view",
      "type": "function"
    },
    {
      "constant": true,
      "inputs": [],
      "name": "recipient",
      "outputs": [
        {
          "name": "",
          "type": "address"
        }
      ],
      "payable": false,
      "stateMutability": "view",
      "type": "function"
    },
    {
      "constant": true,
      "inputs": [],
      "name": "factory",
      "outputs": [
        {
          "name": "",
          "type": "address"
        }
      ],
      "payable": false,
      "stateMutability": "view",
      "type": "function"
    },
    {
      "constant": true,
      "inputs": [],
      "name": "scheduler",
      "outputs": [
        {
          "name": "",
          "type": "address"
        }
      ],
      "payable": false,
      "stateMutability": "view",
      "type": "function"
    },
    {
      "constant": true,
      "inputs": [],
      "name": "token",
      "outputs": [
        {
          "name": "",
          "type": "address"
        }
      ],
      "payable": false,
      "stateMutability": "view",
      "type": "function"
    },
    {
      "payable": false,
      "stateMutability": "nonpayable",
      "type": "fallback"
    },
    {
      "anonymous": false,
      "inputs": [
        {
          "indexed": false,
          "name": "amount",
          "type": "uint256"
        },
        {
          "indexed": false,
          "name": "success",
          "type": "bool"
        }
      ],
      "name": "Payment_event",
      "type": "event"
    },
    {
      "constant": false,
      "inputs": [
        {
          "name": "_scheduler",
          "type": "address"
        },
        {
          "name": "_wallet",
          "type": "address"
        },
        {
          "name": "_token",
          "type": "address"
        },
        {
          "name": "_recipient",
          "type": "address"
        },
        {
          "name": "_amount",
          "type": "uint256"
        }
      ],
      "name": "initialize",
      "outputs": [],
      "payable": false,
      "stateMutability": "nonpayable",
      "type": "function"
    },
    {
      "constant": false,
      "inputs": [],
      "name": "amount",
      "outputs": [
        {
          "name": "",
          "type": "uint256"
        }
      ],
      "payable": false,
      "stateMutability": "nonpayable",
      "type": "function"
    },
    {
      "constant": false,
      "inputs": [],
      "name": "cancel",
      "outputs": [],
      "payable": false,
      "stateMutability": "nonpayable",
      "type": "function"
    }
  ],
  "bytecode": "0x608060405234801561001057600080fd5b50610af6806100206000396000f3fe6080604052600436106100a4576000357c0100000000000000000000000000000000000000000000000000000000900463ffffffff1680634864d140146103425780634e989a4c1461036d578063521eb2731461039857806366d003ac146103ef578063aa8c217c14610446578063c45a015514610471578063d1ad17bf146104c8578063ea8a1af01461051f578063f7013ef614610536578063fc0c546a146105f1575b3480156100b057600080fd5b5060006100bb610648565b90506000600760009054906101000a900473ffffffffffffffffffffffffffffffffffffffff1673ffffffffffffffffffffffffffffffffffffffff1663beabacc8600960009054906101000a900473ffffffffffffffffffffffffffffffffffffffff16600a60009054906101000a900473ffffffffffffffffffffffffffffffffffffffff16856040518463ffffffff167c0100000000000000000000000000000000000000000000000000000000028152600401808473ffffffffffffffffffffffffffffffffffffffff1673ffffffffffffffffffffffffffffffffffffffff1681526020018373ffffffffffffffffffffffffffffffffffffffff1673ffffffffffffffffffffffffffffffffffffffff1681526020018281526020019350505050602060405180830381600087803b1580156101fc57600080fd5b505af1158015610210573d6000803e3d6000fd5b505050506040513d602081101561022657600080fd5b81019080805190602001909291905050509050600760009054906101000a900473ffffffffffffffffffffffffffffffffffffffff1673ffffffffffffffffffffffffffffffffffffffff1663daf1548c6040518163ffffffff167c0100000000000000000000000000000000000000000000000000000000028152600401602060405180830381600087803b1580156102bf57600080fd5b505af11580156102d3573d6000803e3d6000fd5b505050506040513d60208110156102e957600080fd5b8101908080519060200190929190505050507f1e9a20b1248b3c170ee57c4bba9adf7007f72c5a7c2644ad0848f04fcec1398d828260405180838152602001821515151581526020019250505060405180910390a15050005b34801561034e57600080fd5b50610357610652565b6040518082815260200191505060405180910390f35b34801561037957600080fd5b50610382610658565b6040518082815260200191505060405180910390f35b3480156103a457600080fd5b506103ad61065e565b604051808273ffffffffffffffffffffffffffffffffffffffff1673ffffffffffffffffffffffffffffffffffffffff16815260200191505060405180910390f35b3480156103fb57600080fd5b50610404610684565b604051808273ffffffffffffffffffffffffffffffffffffffff1673ffffffffffffffffffffffffffffffffffffffff16815260200191505060405180910390f35b34801561045257600080fd5b5061045b610648565b6040518082815260200191505060405180910390f35b34801561047d57600080fd5b506104866106aa565b604051808273ffffffffffffffffffffffffffffffffffffffff1673ffffffffffffffffffffffffffffffffffffffff16815260200191505060405180910390f35b3480156104d457600080fd5b506104dd6106d0565b604051808273ffffffffffffffffffffffffffffffffffffffff1673ffffffffffffffffffffffffffffffffffffffff16815260200191505060405180910390f35b34801561052b57600080fd5b506105346106f6565b005b34801561054257600080fd5b506105ef600480360360a081101561055957600080fd5b81019080803573ffffffffffffffffffffffffffffffffffffffff169060200190929190803573ffffffffffffffffffffffffffffffffffffffff169060200190929190803573ffffffffffffffffffffffffffffffffffffffff169060200190929190803573ffffffffffffffffffffffffffffffffffffffff1690602001909291908035906020019092919050505061094a565b005b3480156105fd57600080fd5b50610606610aa4565b604051808273ffffffffffffffffffffffffffffffffffffffff1673ffffffffffffffffffffffffffffffffffffffff16815260200191505060405180910390f35b6000600b54905090565b600b5481565b60055481565b600860009054906101000a900473ffffffffffffffffffffffffffffffffffffffff1681565b600a60009054906101000a900473ffffffffffffffffffffffffffffffffffffffff1681565b600660009054906101000a900473ffffffffffffffffffffffffffffffffffffffff1681565b600760009054906101000a900473ffffffffffffffffffffffffffffffffffffffff1681565b600860009054906101000a900473ffffffffffffffffffffffffffffffffffffffff1673ffffffffffffffffffffffffffffffffffffffff166307779627336040518263ffffffff167c0100000000000000000000000000000000000000000000000000000000028152600401808273ffffffffffffffffffffffffffffffffffffffff1673ffffffffffffffffffffffffffffffffffffffff16815260200191505060206040518083038186803b1580156107b157600080fd5b505afa1580156107c5573d6000803e3d6000fd5b505050506040513d60208110156107db57600080fd5b81019080805190602001909291905050501515610886576040517f08c379a000000000000000000000000000000000000000000000000000000000815260040180806020018281038252602e8152602001807f6f6e6c7920612077616c6c6574207363686564756c65722063616e2063616e6381526020017f656c20746865207061796d656e7400000000000000000000000000000000000081525060400191505060405180910390fd5b600760009054906101000a900473ffffffffffffffffffffffffffffffffffffffff1673ffffffffffffffffffffffffffffffffffffffff1663daf1548c6040518163ffffffff167c0100000000000000000000000000000000000000000000000000000000028152600401602060405180830381600087803b15801561090c57600080fd5b505af1158015610920573d6000803e3d6000fd5b505050506040513d602081101561093657600080fd5b810190808051906020019092919050505050565b4360058190555033600660006101000a81548173ffffffffffffffffffffffffffffffffffffffff021916908373ffffffffffffffffffffffffffffffffffffffff16021790555084600760006101000a81548173ffffffffffffffffffffffffffffffffffffffff021916908373ffffffffffffffffffffffffffffffffffffffff16021790555083600860006101000a81548173ffffffffffffffffffffffffffffffffffffffff021916908373ffffffffffffffffffffffffffffffffffffffff16021790555082600960006101000a81548173ffffffffffffffffffffffffffffffffffffffff021916908373ffffffffffffffffffffffffffffffffffffffff16021790555081600a60006101000a81548173ffffffffffffffffffffffffffffffffffffffff021916908373ffffffffffffffffffffffffffffffffffffffff16021790555080600b819055505050505050565b600960009054906101000a900473ffffffffffffffffffffffffffffffffffffffff168156fea165627a7a72305820aaf0aa55239894bb61ce0d08e568e57f275297094091b9cdc3063034613b6e480029",
  "source": "pragma solidity ^0.5.0;\n\nimport \"../Interfaces.sol\";\n\n/// @title OneTimePayment Contract\n/// @author Joseph Reed\n/// @dev This contract deploys a one time payment that can be registered to a payment scheduler\ncontract OneTimePayment is IPayment {\n\n    uint public blockCreated;               // Records the block when the contract is created\n\n    address public factory;                 // The factory that deployed this contract\n    ITransactionScheduler public scheduler; // The scheduler that pulls funds for the payment\n    IDelegatedWallet public wallet;         // The address which owns the alarm and collects any leftover funds\n    address public token;                   // The token to pull when funding an alarm. default of 0x0 represents native ether\n    address payable public recipient;       // The recipient to send pulled funds to. set to 'this' at initialization\n\n    uint public baseAmount;\n\n    /// @notice Initializes the one time payment\n    /// @param _scheduler The scheduler from which to pull payment\n    /// @param _wallet The funding wallet\n    /// @param _token The token to send when the payment is triggered\n    /// @param _recipient The recipient of the payment\n    /// @param _amount The amount of tokens to send when the payment is triggered\n    function initialize (\n        ITransactionScheduler _scheduler,\n        IDelegatedWallet _wallet,\n        address _token,\n        address payable _recipient,\n        uint _amount\n    ) public {\n        blockCreated = block.number;    // The block number at the time of deployment\n\n        factory = msg.sender;\n        scheduler = _scheduler;\n        wallet = _wallet;\n        token = _token;\n        recipient = _recipient;\n        baseAmount = _amount;\n\n        // scheduler.register(recipient);\n    }\n\n    /// @notice The default function. Triggers a payment when called by anyone and it\n    ///         automatically unschedules itself up from the payment scheduler\n    function () external {\n        uint paymentAmount = amount();\n        bool success = scheduler.transfer(token, recipient, paymentAmount);\n        // scheduler.unregister(recipient);\n        scheduler.unschedule();\n\n        emit Payment_event(paymentAmount, success);\n    }\n\n    /// @notice The amount of tokens to send when the payment is triggered\n    function amount () public returns (uint) {\n        return baseAmount;\n    }\n\n    /// @notice Cancels the payments and unschedules it from the payment scheduler\n    function cancel () public {\n        require(wallet.isDelegate(msg.sender), \"only a wallet scheduler can cancel the payment\");\n\n        // scheduler.unregister(recipient);\n        scheduler.unschedule();\n    }\n\n    event Payment_event(uint amount, bool success);\n\n}\n",
  "sourcePath": "/home/joe/Documents/github/everchain-project/recurring-transactions/contracts/tests/OneTimePayment.sol",
  "compiler": {
    "name": "solc",
    "version": "0.5.0+commit.1d4f565a.Emscripten.clang"
  },
  "schemaVersion": "3.0.9",
  "updatedAt": "2019-05-14T22:16:21.136Z",
  "devdoc": {
    "author": "Joseph Reed",
    "details": "This contract deploys a one time payment that can be registered to a payment scheduler",
    "methods": {
      "initialize(address,address,address,address,uint256)": {
        "params": {
          "_amount": "The amount of tokens to send when the payment is triggered",
          "_recipient": "The recipient of the payment",
          "_scheduler": "The scheduler from which to pull payment",
          "_token": "The token to send when the payment is triggered",
          "_wallet": "The funding wallet"
        }
      }
    },
    "title": "OneTimePayment Contract"
  },
  "userdoc": {
    "methods": {
      "amount()": {
        "notice": "The amount of tokens to send when the payment is triggered"
      },
      "cancel()": {
        "notice": "Cancels the payments and unschedules it from the payment scheduler"
      },
      "initialize(address,address,address,address,uint256)": {
        "notice": "Initializes the one time payment"
      }
    }
  }
}