{
  "contractName": "OneTimePayment",
  "abi": [
    {
      "constant": true,
      "inputs": [],
      "name": "blockCreated",
      "outputs": [
        {
          "name": "",
          "type": "uint256"
        }
      ],
      "payable": false,
      "stateMutability": "view",
      "type": "function"
    },
    {
      "constant": true,
      "inputs": [],
      "name": "wallet",
      "outputs": [
        {
          "name": "",
          "type": "address"
        }
      ],
      "payable": false,
      "stateMutability": "view",
      "type": "function"
    },
    {
      "constant": true,
      "inputs": [],
      "name": "recipient",
      "outputs": [
        {
          "name": "",
          "type": "address"
        }
      ],
      "payable": false,
      "stateMutability": "view",
      "type": "function"
    },
    {
      "constant": true,
      "inputs": [],
      "name": "factory",
      "outputs": [
        {
          "name": "",
          "type": "address"
        }
      ],
      "payable": false,
      "stateMutability": "view",
      "type": "function"
    },
    {
      "constant": true,
      "inputs": [],
      "name": "delegate",
      "outputs": [
        {
          "name": "",
          "type": "address"
        }
      ],
      "payable": false,
      "stateMutability": "view",
      "type": "function"
    },
    {
      "constant": true,
      "inputs": [],
      "name": "token",
      "outputs": [
        {
          "name": "",
          "type": "address"
        }
      ],
      "payable": false,
      "stateMutability": "view",
      "type": "function"
    },
    {
      "payable": false,
      "stateMutability": "nonpayable",
      "type": "fallback"
    },
    {
      "anonymous": false,
      "inputs": [
        {
          "indexed": false,
          "name": "amount",
          "type": "uint256"
        },
        {
          "indexed": false,
          "name": "success",
          "type": "bool"
        }
      ],
      "name": "Payment_event",
      "type": "event"
    },
    {
      "constant": false,
      "inputs": [
        {
          "name": "_delegate",
          "type": "address"
        },
        {
          "name": "_wallet",
          "type": "address"
        },
        {
          "name": "_token",
          "type": "address"
        },
        {
          "name": "_recipient",
          "type": "address"
        },
        {
          "name": "_amount",
          "type": "uint256"
        }
      ],
      "name": "initialize",
      "outputs": [],
      "payable": false,
      "stateMutability": "nonpayable",
      "type": "function"
    },
    {
      "constant": true,
      "inputs": [],
      "name": "amount",
      "outputs": [
        {
          "name": "",
          "type": "uint256"
        }
      ],
      "payable": false,
      "stateMutability": "view",
      "type": "function"
    },
    {
      "constant": false,
      "inputs": [],
      "name": "cancel",
      "outputs": [],
      "payable": false,
      "stateMutability": "nonpayable",
      "type": "function"
    }
  ],
  "bytecode": "0x608060405234801561001057600080fd5b50610b1a806100206000396000f3fe608060405260043610610099576000357c0100000000000000000000000000000000000000000000000000000000900463ffffffff1680634e989a4c14610341578063521eb2731461036c57806366d003ac146103c3578063aa8c217c1461041a578063c45a015514610445578063c89e43611461049c578063ea8a1af0146104f3578063f7013ef61461050a578063fc0c546a146105c5575b3480156100a557600080fd5b50600960009054906101000a900473ffffffffffffffffffffffffffffffffffffffff1673ffffffffffffffffffffffffffffffffffffffff163373ffffffffffffffffffffffffffffffffffffffff16141515610191576040517f08c379a00000000000000000000000000000000000000000000000000000000081526004018080602001828103825260248152602001807f746865206d73672e73656e646572206d7573742062652074686520726563697081526020017f69656e740000000000000000000000000000000000000000000000000000000081525060400191505060405180910390fd5b6000600660009054906101000a900473ffffffffffffffffffffffffffffffffffffffff1673ffffffffffffffffffffffffffffffffffffffff1663614619546040518163ffffffff167c0100000000000000000000000000000000000000000000000000000000028152600401602060405180830381600087803b15801561021957600080fd5b505af115801561022d573d6000803e3d6000fd5b505050506040513d602081101561024357600080fd5b81019080805190602001909291905050509050600660009054906101000a900473ffffffffffffffffffffffffffffffffffffffff1673ffffffffffffffffffffffffffffffffffffffff1663daf1548c6040518163ffffffff167c0100000000000000000000000000000000000000000000000000000000028152600401600060405180830381600087803b1580156102dc57600080fd5b505af11580156102f0573d6000803e3d6000fd5b505050507f1e9a20b1248b3c170ee57c4bba9adf7007f72c5a7c2644ad0848f04fcec1398d61031d61061c565b8260405180838152602001821515151581526020019250505060405180910390a150005b34801561034d57600080fd5b50610356610626565b6040518082815260200191505060405180910390f35b34801561037857600080fd5b5061038161062c565b604051808273ffffffffffffffffffffffffffffffffffffffff1673ffffffffffffffffffffffffffffffffffffffff16815260200191505060405180910390f35b3480156103cf57600080fd5b506103d8610652565b604051808273ffffffffffffffffffffffffffffffffffffffff1673ffffffffffffffffffffffffffffffffffffffff16815260200191505060405180910390f35b34801561042657600080fd5b5061042f61061c565b6040518082815260200191505060405180910390f35b34801561045157600080fd5b5061045a610678565b604051808273ffffffffffffffffffffffffffffffffffffffff1673ffffffffffffffffffffffffffffffffffffffff16815260200191505060405180910390f35b3480156104a857600080fd5b506104b161069e565b604051808273ffffffffffffffffffffffffffffffffffffffff1673ffffffffffffffffffffffffffffffffffffffff16815260200191505060405180910390f35b3480156104ff57600080fd5b506105086106c4565b005b34801561051657600080fd5b506105c3600480360360a081101561052d57600080fd5b81019080803573ffffffffffffffffffffffffffffffffffffffff169060200190929190803573ffffffffffffffffffffffffffffffffffffffff169060200190929190803573ffffffffffffffffffffffffffffffffffffffff169060200190929190803573ffffffffffffffffffffffffffffffffffffffff169060200190929190803590602001909291905050506108f4565b005b3480156105d157600080fd5b506105da610ac8565b604051808273ffffffffffffffffffffffffffffffffffffffff1673ffffffffffffffffffffffffffffffffffffffff16815260200191505060405180910390f35b6000600a54905090565b60045481565b600760009054906101000a900473ffffffffffffffffffffffffffffffffffffffff1681565b600960009054906101000a900473ffffffffffffffffffffffffffffffffffffffff1681565b600560009054906101000a900473ffffffffffffffffffffffffffffffffffffffff1681565b600660009054906101000a900473ffffffffffffffffffffffffffffffffffffffff1681565b600760009054906101000a900473ffffffffffffffffffffffffffffffffffffffff1673ffffffffffffffffffffffffffffffffffffffff166307779627336040518263ffffffff167c0100000000000000000000000000000000000000000000000000000000028152600401808273ffffffffffffffffffffffffffffffffffffffff1673ffffffffffffffffffffffffffffffffffffffff16815260200191505060206040518083038186803b15801561077f57600080fd5b505afa158015610793573d6000803e3d6000fd5b505050506040513d60208110156107a957600080fd5b81019080805190602001909291905050501515610854576040517f08c379a000000000000000000000000000000000000000000000000000000000815260040180806020018281038252602d8152602001807f6f6e6c7920612077616c6c65742064656c65676174652063616e2063616e636581526020017f6c20746865207061796d656e740000000000000000000000000000000000000081525060400191505060405180910390fd5b600660009054906101000a900473ffffffffffffffffffffffffffffffffffffffff1673ffffffffffffffffffffffffffffffffffffffff1663daf1548c6040518163ffffffff167c0100000000000000000000000000000000000000000000000000000000028152600401600060405180830381600087803b1580156108da57600080fd5b505af11580156108ee573d6000803e3d6000fd5b50505050565b600060045414151561096e576040517f08c379a00000000000000000000000000000000000000000000000000000000081526004018080602001828103825260188152602001807f63616e206f6e6c7920696e697469616c697a65206f6e6365000000000000000081525060200191505060405180910390fd5b4360048190555033600560006101000a81548173ffffffffffffffffffffffffffffffffffffffff021916908373ffffffffffffffffffffffffffffffffffffffff16021790555084600660006101000a81548173ffffffffffffffffffffffffffffffffffffffff021916908373ffffffffffffffffffffffffffffffffffffffff16021790555083600760006101000a81548173ffffffffffffffffffffffffffffffffffffffff021916908373ffffffffffffffffffffffffffffffffffffffff16021790555082600860006101000a81548173ffffffffffffffffffffffffffffffffffffffff021916908373ffffffffffffffffffffffffffffffffffffffff16021790555081600960006101000a81548173ffffffffffffffffffffffffffffffffffffffff021916908373ffffffffffffffffffffffffffffffffffffffff16021790555080600a819055505050505050565b600860009054906101000a900473ffffffffffffffffffffffffffffffffffffffff168156fea165627a7a723058208cdebc71cd9221ef6c6ad213e3e2fca3585237f472114af7896741ae3244fc7f0029",
  "source": "pragma solidity ^0.5.0;\r\n\r\nimport \"../Interfaces.sol\";\r\n\r\n/// @title OneTimePayment Contract\r\n/// @author Joseph Reed\r\n/// @dev This contract deploys a one time payment that can be registered to a payment delegate\r\ncontract OneTimePayment is IPayment {\r\n\r\n    uint public blockCreated;           // Records the block when the contract is created\r\n    address public factory;             // Records the factory that deployed this payment\r\n    \r\n    IPaymentDelegate public delegate;   // The delegate that pulls funds for the payment\r\n    IDelegatedWallet public wallet;     // The address which owns the alarm and collects any leftover funds\r\n    address public token;               // The token to pull when funding an alarm. default of 0x0 represents native ether\r\n    address public recipient;           // The recipient to send pulled funds to. set to 'this' at initialization\r\n    uint paymentAmount;                 // The amount of tokens to send when the payment is triggered\r\n\r\n    /// @notice Initializes the recurring alarm clock. Uses 'initialize()' instead of a constructor to make use of the clone \r\n    ///         factory at https://github.com/optionality/clone-factory. In general, 'initialize()' should be  \r\n    ///         called directly following it's deployment through the use of a factory\r\n    /// @param _delegate The delegate from which to pull alarm payments\r\n    /// @param _wallet The funding wallet, change address, and owner of the deployed alarms\r\n    /// @param _token The token to send when the payment is triggered\r\n    /// @param _recipient The recipient of the payment\r\n    /// @param _amount The amount of tokens to send when the payment is triggered\r\n    function initialize (\r\n        IPaymentDelegate _delegate,\r\n        IDelegatedWallet _wallet,\r\n        address _token,\r\n        address _recipient,\r\n        uint _amount\r\n    ) public {\r\n        require(blockCreated == 0, \"can only initialize once\");\r\n\r\n        blockCreated = block.number;    // The block number at the time of deployment\r\n        factory = msg.sender;           // The factory that deployed this recurring alarm clock\r\n\r\n        delegate = _delegate;\r\n        wallet = _wallet;\r\n        token = _token;\r\n        recipient = _recipient;\r\n        paymentAmount = _amount;\r\n    }\r\n    \r\n    /// @notice Calculates the amount of tokens the payment will send\r\n    /// @return The calculated amount\r\n    function amount () public view returns (uint) {\r\n        return paymentAmount;\r\n    }\r\n\r\n    /// @notice The default function. Triggers a payment when called by the executor and it\r\n    ///         automatically unschedules itself up from the payment delegate\r\n    function () external {\r\n        require(msg.sender == recipient, \"the msg.sender must be the recipient\");\r\n        \r\n        bool success = delegate.execute();\r\n        delegate.unschedule();\r\n\r\n        emit Payment_event(amount(), success);\r\n    }\r\n\r\n    /// @notice Cancels the payments and unschedules it from the payment delegate\r\n    function cancel () public {\r\n        require(wallet.isDelegate(msg.sender), \"only a wallet delegate can cancel the payment\");\r\n\r\n        delegate.unschedule();\r\n    }\r\n\r\n    event Payment_event(uint amount, bool success);\r\n\r\n}",
  "sourcePath": "C:/Users/My/Documents/GitHub/everchain-project/recurring-alarm-clock/contracts/tests/OneTimePayment.sol",
  "compiler": {
    "name": "solc",
    "version": "0.5.0+commit.1d4f565a.Emscripten.clang"
  },
  "schemaVersion": "3.0.0-beta.2",
  "updatedAt": "2018-11-25T22:53:41.276Z",
  "devdoc": {
    "details": "This contract deploys a one time payment that can be registered to a payment delegate",
    "methods": {
      "amount()": {
        "return": "The calculated amount"
      },
      "initialize(address,address,address,address,uint256)": {
        "params": {
          "_amount": "The amount of tokens to send when the payment is triggered"
        }
      }
    }
  },
  "userdoc": {
    "methods": {
      "cancel()": {
        "notice": "Cancels the payments and unschedules it from the payment delegate"
      }
    }
  }
}