{
  "contractName": "PaymentDelegate",
  "abi": [
    {
      "constant": true,
      "inputs": [],
      "name": "blockCreated",
      "outputs": [
        {
          "name": "",
          "type": "uint256"
        }
      ],
      "payable": false,
      "stateMutability": "view",
      "type": "function"
    },
    {
      "constant": true,
      "inputs": [],
      "name": "owner",
      "outputs": [
        {
          "name": "",
          "type": "address"
        }
      ],
      "payable": false,
      "stateMutability": "view",
      "type": "function"
    },
    {
      "constant": true,
      "inputs": [],
      "name": "factory",
      "outputs": [
        {
          "name": "",
          "type": "address"
        }
      ],
      "payable": false,
      "stateMutability": "view",
      "type": "function"
    },
    {
      "constant": false,
      "inputs": [
        {
          "name": "_newOwner",
          "type": "address"
        }
      ],
      "name": "transferOwnership",
      "outputs": [],
      "payable": false,
      "stateMutability": "nonpayable",
      "type": "function"
    },
    {
      "anonymous": false,
      "inputs": [
        {
          "indexed": true,
          "name": "payment",
          "type": "address"
        },
        {
          "indexed": false,
          "name": "amount",
          "type": "uint256"
        },
        {
          "indexed": false,
          "name": "success",
          "type": "bool"
        }
      ],
      "name": "Payment_event",
      "type": "event"
    },
    {
      "anonymous": false,
      "inputs": [
        {
          "indexed": true,
          "name": "scheduler",
          "type": "address"
        },
        {
          "indexed": false,
          "name": "payment",
          "type": "address"
        }
      ],
      "name": "Schedule_event",
      "type": "event"
    },
    {
      "anonymous": false,
      "inputs": [
        {
          "indexed": true,
          "name": "caller",
          "type": "address"
        },
        {
          "indexed": false,
          "name": "payment",
          "type": "address"
        }
      ],
      "name": "Unschedule_event",
      "type": "event"
    },
    {
      "constant": false,
      "inputs": [
        {
          "name": "_owner",
          "type": "address"
        }
      ],
      "name": "initialize",
      "outputs": [],
      "payable": false,
      "stateMutability": "nonpayable",
      "type": "function"
    },
    {
      "constant": false,
      "inputs": [
        {
          "name": "token",
          "type": "address"
        },
        {
          "name": "recipient",
          "type": "address"
        },
        {
          "name": "amount",
          "type": "uint256"
        }
      ],
      "name": "transfer",
      "outputs": [
        {
          "name": "success",
          "type": "bool"
        }
      ],
      "payable": false,
      "stateMutability": "nonpayable",
      "type": "function"
    },
    {
      "constant": false,
      "inputs": [],
      "name": "execute",
      "outputs": [
        {
          "name": "success",
          "type": "bool"
        }
      ],
      "payable": false,
      "stateMutability": "nonpayable",
      "type": "function"
    },
    {
      "constant": false,
      "inputs": [
        {
          "name": "payment",
          "type": "address"
        }
      ],
      "name": "schedule",
      "outputs": [],
      "payable": false,
      "stateMutability": "nonpayable",
      "type": "function"
    },
    {
      "constant": false,
      "inputs": [
        {
          "name": "payment",
          "type": "address"
        }
      ],
      "name": "unschedule",
      "outputs": [],
      "payable": false,
      "stateMutability": "nonpayable",
      "type": "function"
    },
    {
      "constant": false,
      "inputs": [],
      "name": "unschedule",
      "outputs": [],
      "payable": false,
      "stateMutability": "nonpayable",
      "type": "function"
    },
    {
      "constant": true,
      "inputs": [
        {
          "name": "recipient",
          "type": "address"
        }
      ],
      "name": "getIncomingPayments",
      "outputs": [
        {
          "name": "",
          "type": "address[]"
        }
      ],
      "payable": false,
      "stateMutability": "view",
      "type": "function"
    },
    {
      "constant": true,
      "inputs": [
        {
          "name": "wallet",
          "type": "address"
        }
      ],
      "name": "getOutgoingPayments",
      "outputs": [
        {
          "name": "",
          "type": "address[]"
        }
      ],
      "payable": false,
      "stateMutability": "view",
      "type": "function"
    },
    {
      "constant": true,
      "inputs": [
        {
          "name": "recipient",
          "type": "address"
        }
      ],
      "name": "getTotalIncomingPayments",
      "outputs": [
        {
          "name": "",
          "type": "uint256"
        }
      ],
      "payable": false,
      "stateMutability": "view",
      "type": "function"
    },
    {
      "constant": true,
      "inputs": [
        {
          "name": "wallet",
          "type": "address"
        }
      ],
      "name": "getTotalOutgoingPayments",
      "outputs": [
        {
          "name": "",
          "type": "uint256"
        }
      ],
      "payable": false,
      "stateMutability": "view",
      "type": "function"
    },
    {
      "constant": true,
      "inputs": [
        {
          "name": "recipient",
          "type": "address"
        },
        {
          "name": "i",
          "type": "uint256"
        }
      ],
      "name": "getIncomingPaymentAtIndex",
      "outputs": [
        {
          "name": "",
          "type": "address"
        }
      ],
      "payable": false,
      "stateMutability": "view",
      "type": "function"
    },
    {
      "constant": true,
      "inputs": [
        {
          "name": "wallet",
          "type": "address"
        },
        {
          "name": "i",
          "type": "uint256"
        }
      ],
      "name": "getOutgoingPaymentAtIndex",
      "outputs": [
        {
          "name": "",
          "type": "address"
        }
      ],
      "payable": false,
      "stateMutability": "view",
      "type": "function"
    },
    {
      "constant": true,
      "inputs": [
        {
          "name": "recipient",
          "type": "address"
        },
        {
          "name": "payment",
          "type": "address"
        }
      ],
      "name": "recipientContainsPayment",
      "outputs": [
        {
          "name": "",
          "type": "bool"
        }
      ],
      "payable": false,
      "stateMutability": "view",
      "type": "function"
    },
    {
      "constant": true,
      "inputs": [
        {
          "name": "wallet",
          "type": "address"
        },
        {
          "name": "payment",
          "type": "address"
        }
      ],
      "name": "walletContainsPayment",
      "outputs": [
        {
          "name": "",
          "type": "bool"
        }
      ],
      "payable": false,
      "stateMutability": "view",
      "type": "function"
    },
    {
      "constant": false,
      "inputs": [
        {
          "name": "newScheduler",
          "type": "address"
        }
      ],
      "name": "addScheduler",
      "outputs": [
        {
          "name": "",
          "type": "bool"
        }
      ],
      "payable": false,
      "stateMutability": "nonpayable",
      "type": "function"
    },
    {
      "constant": false,
      "inputs": [
        {
          "name": "newScheduler",
          "type": "address"
        }
      ],
      "name": "removeScheduler",
      "outputs": [
        {
          "name": "",
          "type": "bool"
        }
      ],
      "payable": false,
      "stateMutability": "nonpayable",
      "type": "function"
    },
    {
      "constant": true,
      "inputs": [],
      "name": "getSchedulers",
      "outputs": [
        {
          "name": "",
          "type": "address[]"
        }
      ],
      "payable": false,
      "stateMutability": "view",
      "type": "function"
    }
  ],
  "bytecode": "0x6080604052336000806101000a81548173ffffffffffffffffffffffffffffffffffffffff021916908373ffffffffffffffffffffffffffffffffffffffff160217905550613911806100536000396000f30060806040526004361061011d576000357c0100000000000000000000000000000000000000000000000000000000900463ffffffff1680630a602534146101225780631209790b1461018e57806316dc8c041461021b5780631cf7744814610276578063242cb3df146102cd57806327f615e61461035a578063306b1022146103b1578063316bef981461040c5780634408f9281461044f5780634e989a4c146104e757806361461954146105125780638d498ba9146105415780638da5cb5b146105d95780639ba00f0f14610630578063beabacc8146106ab578063c45a015514610730578063c4d66de814610787578063da1bffa6146107ca578063daf1548c14610845578063f2fde38b1461085c578063f4c0f4131461089f575b600080fd5b34801561012e57600080fd5b506101376108e2565b6040518080602001828103825283818151815260200191508051906020019060200280838360005b8381101561017a57808201518184015260208101905061015f565b505050509050019250505060405180910390f35b34801561019a57600080fd5b506101d9600480360381019080803573ffffffffffffffffffffffffffffffffffffffff169060200190929190803590602001909291905050506109e8565b604051808273ffffffffffffffffffffffffffffffffffffffff1673ffffffffffffffffffffffffffffffffffffffff16815260200191505060405180910390f35b34801561022757600080fd5b5061025c600480360381019080803573ffffffffffffffffffffffffffffffffffffffff169060200190929190505050610ae0565b604051808215151515815260200191505060405180910390f35b34801561028257600080fd5b506102b7600480360381019080803573ffffffffffffffffffffffffffffffffffffffff169060200190929190505050610c21565b6040518082815260200191505060405180910390f35b3480156102d957600080fd5b50610318600480360381019080803573ffffffffffffffffffffffffffffffffffffffff16906020019092919080359060200190929190505050610d10565b604051808273ffffffffffffffffffffffffffffffffffffffff1673ffffffffffffffffffffffffffffffffffffffff16815260200191505060405180910390f35b34801561036657600080fd5b5061039b600480360381019080803573ffffffffffffffffffffffffffffffffffffffff169060200190929190505050610e08565b6040518082815260200191505060405180910390f35b3480156103bd57600080fd5b506103f2600480360381019080803573ffffffffffffffffffffffffffffffffffffffff169060200190929190505050610ef7565b604051808215151515815260200191505060405180910390f35b34801561041857600080fd5b5061044d600480360381019080803573ffffffffffffffffffffffffffffffffffffffff169060200190929190505050611038565b005b34801561045b57600080fd5b50610490600480360381019080803573ffffffffffffffffffffffffffffffffffffffff169060200190929190505050611641565b6040518080602001828103825283818151815260200191508051906020019060200280838360005b838110156104d35780820151818401526020810190506104b8565b505050509050019250505060405180910390f35b3480156104f357600080fd5b506104fc611786565b6040518082815260200191505060405180910390f35b34801561051e57600080fd5b5061052761178c565b604051808215151515815260200191505060405180910390f35b34801561054d57600080fd5b50610582600480360381019080803573ffffffffffffffffffffffffffffffffffffffff16906020019092919050505061202b565b6040518080602001828103825283818151815260200191508051906020019060200280838360005b838110156105c55780820151818401526020810190506105aa565b505050509050019250505060405180910390f35b3480156105e557600080fd5b506105ee612170565b604051808273ffffffffffffffffffffffffffffffffffffffff1673ffffffffffffffffffffffffffffffffffffffff16815260200191505060405180910390f35b34801561063c57600080fd5b50610691600480360381019080803573ffffffffffffffffffffffffffffffffffffffff169060200190929190803573ffffffffffffffffffffffffffffffffffffffff169060200190929190505050612195565b604051808215151515815260200191505060405180910390f35b3480156106b757600080fd5b50610716600480360381019080803573ffffffffffffffffffffffffffffffffffffffff169060200190929190803573ffffffffffffffffffffffffffffffffffffffff169060200190929190803590602001909291905050506122b9565b604051808215151515815260200191505060405180910390f35b34801561073c57600080fd5b5061074561297d565b604051808273ffffffffffffffffffffffffffffffffffffffff1673ffffffffffffffffffffffffffffffffffffffff16815260200191505060405180910390f35b34801561079357600080fd5b506107c8600480360381019080803573ffffffffffffffffffffffffffffffffffffffff1690602001909291905050506129a3565b005b3480156107d657600080fd5b5061082b600480360381019080803573ffffffffffffffffffffffffffffffffffffffff169060200190929190803573ffffffffffffffffffffffffffffffffffffffff169060200190929190505050612ace565b604051808215151515815260200191505060405180910390f35b34801561085157600080fd5b5061085a612bf2565b005b34801561086857600080fd5b5061089d600480360381019080803573ffffffffffffffffffffffffffffffffffffffff169060200190929190505050613118565b005b3480156108ab57600080fd5b506108e0600480360381019080803573ffffffffffffffffffffffffffffffffffffffff1690602001909291905050506131b6565b005b6060600373__ListLib_______________________________6357abf55690916040518263ffffffff167c01000000000000000000000000000000000000000000000000000000000281526004018082815260200191505060006040518083038186803b15801561095257600080fd5b505af4158015610966573d6000803e3d6000fd5b505050506040513d6000823e3d601f19601f82011682018060405250602081101561099057600080fd5b8101908080516401000000008111156109a857600080fd5b828101905060208101848111156109be57600080fd5b81518560208202830111640100000000821117156109db57600080fd5b5050929190505050905090565b6000600760008473ffffffffffffffffffffffffffffffffffffffff1673ffffffffffffffffffffffffffffffffffffffff16815260200190815260200160002073__ListLib_______________________________63a544c2139091846040518363ffffffff167c0100000000000000000000000000000000000000000000000000000000028152600401808381526020018281526020019250505060206040518083038186803b158015610a9d57600080fd5b505af4158015610ab1573d6000803e3d6000fd5b505050506040513d6020811015610ac757600080fd5b8101908080519060200190929190505050905092915050565b60008060009054906101000a900473ffffffffffffffffffffffffffffffffffffffff1673ffffffffffffffffffffffffffffffffffffffff163373ffffffffffffffffffffffffffffffffffffffff16141515610b3d57600080fd5b600373__ListLib_______________________________63af9fe56b9091846040518363ffffffff167c0100000000000000000000000000000000000000000000000000000000028152600401808381526020018273ffffffffffffffffffffffffffffffffffffffff1673ffffffffffffffffffffffffffffffffffffffff1681526020019250505060206040518083038186803b158015610bdf57600080fd5b505af4158015610bf3573d6000803e3d6000fd5b505050506040513d6020811015610c0957600080fd5b81019080805190602001909291905050509050919050565b6000600660008373ffffffffffffffffffffffffffffffffffffffff1673ffffffffffffffffffffffffffffffffffffffff16815260200190815260200160002073__ListLib_______________________________630faa9b9890916040518263ffffffff167c01000000000000000000000000000000000000000000000000000000000281526004018082815260200191505060206040518083038186803b158015610cce57600080fd5b505af4158015610ce2573d6000803e3d6000fd5b505050506040513d6020811015610cf857600080fd5b81019080805190602001909291905050509050919050565b6000600660008473ffffffffffffffffffffffffffffffffffffffff1673ffffffffffffffffffffffffffffffffffffffff16815260200190815260200160002073__ListLib_______________________________63a544c2139091846040518363ffffffff167c0100000000000000000000000000000000000000000000000000000000028152600401808381526020018281526020019250505060206040518083038186803b158015610dc557600080fd5b505af4158015610dd9573d6000803e3d6000fd5b505050506040513d6020811015610def57600080fd5b8101908080519060200190929190505050905092915050565b6000600760008373ffffffffffffffffffffffffffffffffffffffff1673ffffffffffffffffffffffffffffffffffffffff16815260200190815260200160002073__ListLib_______________________________630faa9b9890916040518263ffffffff167c01000000000000000000000000000000000000000000000000000000000281526004018082815260200191505060206040518083038186803b158015610eb557600080fd5b505af4158015610ec9573d6000803e3d6000fd5b505050506040513d6020811015610edf57600080fd5b81019080805190602001909291905050509050919050565b60008060009054906101000a900473ffffffffffffffffffffffffffffffffffffffff1673ffffffffffffffffffffffffffffffffffffffff163373ffffffffffffffffffffffffffffffffffffffff16141515610f5457600080fd5b600373__ListLib_______________________________63a45c62aa9091846040518363ffffffff167c0100000000000000000000000000000000000000000000000000000000028152600401808381526020018273ffffffffffffffffffffffffffffffffffffffff1673ffffffffffffffffffffffffffffffffffffffff1681526020019250505060206040518083038186803b158015610ff657600080fd5b505af415801561100a573d6000803e3d6000fd5b505050506040513d602081101561102057600080fd5b81019080805190602001909291905050509050919050565b600373__ListLib_______________________________632b63aaef9091336040518363ffffffff167c0100000000000000000000000000000000000000000000000000000000028152600401808381526020018273ffffffffffffffffffffffffffffffffffffffff1673ffffffffffffffffffffffffffffffffffffffff1681526020019250505060206040518083038186803b1580156110da57600080fd5b505af41580156110ee573d6000803e3d6000fd5b505050506040513d602081101561110457600080fd5b8101908080519060200190929190505050151561112057600080fd5b600760008273ffffffffffffffffffffffffffffffffffffffff1663521eb2736040518163ffffffff167c0100000000000000000000000000000000000000000000000000000000028152600401602060405180830381600087803b15801561118857600080fd5b505af115801561119c573d6000803e3d6000fd5b505050506040513d60208110156111b257600080fd5b810190808051906020019092919050505073ffffffffffffffffffffffffffffffffffffffff1673ffffffffffffffffffffffffffffffffffffffff16815260200190815260200160002073__ListLib_______________________________63a45c62aa9091836040518363ffffffff167c0100000000000000000000000000000000000000000000000000000000028152600401808381526020018273ffffffffffffffffffffffffffffffffffffffff1673ffffffffffffffffffffffffffffffffffffffff1681526020019250505060206040518083038186803b15801561129d57600080fd5b505af41580156112b1573d6000803e3d6000fd5b505050506040513d60208110156112c757600080fd5b81019080805190602001909291905050501515611372576040517f08c379a000000000000000000000000000000000000000000000000000000000815260040180806020018281038252602c8152602001807f6661696c656420746f20616464207061796d656e7420746f2077616c6c65742081526020017f7061796d656e74206c697374000000000000000000000000000000000000000081525060400191505060405180910390fd5b600660008273ffffffffffffffffffffffffffffffffffffffff166366d003ac6040518163ffffffff167c0100000000000000000000000000000000000000000000000000000000028152600401602060405180830381600087803b1580156113da57600080fd5b505af11580156113ee573d6000803e3d6000fd5b505050506040513d602081101561140457600080fd5b810190808051906020019092919050505073ffffffffffffffffffffffffffffffffffffffff1673ffffffffffffffffffffffffffffffffffffffff16815260200190815260200160002073__ListLib_______________________________63a45c62aa9091836040518363ffffffff167c0100000000000000000000000000000000000000000000000000000000028152600401808381526020018273ffffffffffffffffffffffffffffffffffffffff1673ffffffffffffffffffffffffffffffffffffffff1681526020019250505060206040518083038186803b1580156114ef57600080fd5b505af4158015611503573d6000803e3d6000fd5b505050506040513d602081101561151957600080fd5b810190808051906020019092919050505015156115c4576040517f08c379a000000000000000000000000000000000000000000000000000000000815260040180806020018281038252602f8152602001807f6661696c656420746f20616464207061796d656e7420746f207265636970696581526020017f6e74207061796d656e74206c697374000000000000000000000000000000000081525060400191505060405180910390fd5b3373ffffffffffffffffffffffffffffffffffffffff167f501bc89253dedaa79976a8ee719dad5a769c5613a0e93ff7c4fbadb01e197fee82604051808273ffffffffffffffffffffffffffffffffffffffff1673ffffffffffffffffffffffffffffffffffffffff16815260200191505060405180910390a250565b6060600660008373ffffffffffffffffffffffffffffffffffffffff1673ffffffffffffffffffffffffffffffffffffffff16815260200190815260200160002073__ListLib_______________________________6357abf55690916040518263ffffffff167c01000000000000000000000000000000000000000000000000000000000281526004018082815260200191505060006040518083038186803b1580156116ee57600080fd5b505af4158015611702573d6000803e3d6000fd5b505050506040513d6000823e3d601f19601f82011682018060405250602081101561172c57600080fd5b81019080805164010000000081111561174457600080fd5b8281019050602081018481111561175a57600080fd5b815185602082028301116401000000008211171561177757600080fd5b50509291905050509050919050565b60015481565b600080600080339050600760008273ffffffffffffffffffffffffffffffffffffffff1663521eb2736040518163ffffffff167c0100000000000000000000000000000000000000000000000000000000028152600401602060405180830381600087803b1580156117fd57600080fd5b505af1158015611811573d6000803e3d6000fd5b505050506040513d602081101561182757600080fd5b810190808051906020019092919050505073ffffffffffffffffffffffffffffffffffffffff1673ffffffffffffffffffffffffffffffffffffffff16815260200190815260200160002073__ListLib_______________________________632b63aaef9091836040518363ffffffff167c0100000000000000000000000000000000000000000000000000000000028152600401808381526020018273ffffffffffffffffffffffffffffffffffffffff1673ffffffffffffffffffffffffffffffffffffffff1681526020019250505060206040518083038186803b15801561191257600080fd5b505af4158015611926573d6000803e3d6000fd5b505050506040513d602081101561193c57600080fd5b810190808051906020019092919050505015156119e7576040517f08c379a00000000000000000000000000000000000000000000000000000000081526004018080602001828103825260318152602001807f7061796d656e7420646f6573206e6f7420657869737420696e2074686520776181526020017f6c6c6574207061796d656e74206c69737400000000000000000000000000000081525060400191505060405180910390fd5b600660008273ffffffffffffffffffffffffffffffffffffffff166366d003ac6040518163ffffffff167c0100000000000000000000000000000000000000000000000000000000028152600401602060405180830381600087803b158015611a4f57600080fd5b505af1158015611a63573d6000803e3d6000fd5b505050506040513d6020811015611a7957600080fd5b810190808051906020019092919050505073ffffffffffffffffffffffffffffffffffffffff1673ffffffffffffffffffffffffffffffffffffffff16815260200190815260200160002073__ListLib_______________________________632b63aaef9091836040518363ffffffff167c0100000000000000000000000000000000000000000000000000000000028152600401808381526020018273ffffffffffffffffffffffffffffffffffffffff1673ffffffffffffffffffffffffffffffffffffffff1681526020019250505060206040518083038186803b158015611b6457600080fd5b505af4158015611b78573d6000803e3d6000fd5b505050506040513d6020811015611b8e57600080fd5b81019080805190602001909291905050501515611c39576040517f08c379a00000000000000000000000000000000000000000000000000000000081526004018080602001828103825260348152602001807f7061796d656e7420646f6573206e6f7420657869737420696e2074686520726581526020017f63697069656e74207061796d656e74206c69737400000000000000000000000081525060400191505060405180910390fd5b3392508273ffffffffffffffffffffffffffffffffffffffff1663aa8c217c6040518163ffffffff167c0100000000000000000000000000000000000000000000000000000000028152600401602060405180830381600087803b158015611ca057600080fd5b505af1158015611cb4573d6000803e3d6000fd5b505050506040513d6020811015611cca57600080fd5b810190808051906020019092919050505091508273ffffffffffffffffffffffffffffffffffffffff1663521eb2736040518163ffffffff167c0100000000000000000000000000000000000000000000000000000000028152600401602060405180830381600087803b158015611d4157600080fd5b505af1158015611d55573d6000803e3d6000fd5b505050506040513d6020811015611d6b57600080fd5b810190808051906020019092919050505073ffffffffffffffffffffffffffffffffffffffff1663beabacc88473ffffffffffffffffffffffffffffffffffffffff1663fc0c546a6040518163ffffffff167c0100000000000000000000000000000000000000000000000000000000028152600401602060405180830381600087803b158015611dfb57600080fd5b505af1158015611e0f573d6000803e3d6000fd5b505050506040513d6020811015611e2557600080fd5b81019080805190602001909291905050508573ffffffffffffffffffffffffffffffffffffffff166366d003ac6040518163ffffffff167c0100000000000000000000000000000000000000000000000000000000028152600401602060405180830381600087803b158015611e9a57600080fd5b505af1158015611eae573d6000803e3d6000fd5b505050506040513d6020811015611ec457600080fd5b8101908080519060200190929190505050856040518463ffffffff167c0100000000000000000000000000000000000000000000000000000000028152600401808473ffffffffffffffffffffffffffffffffffffffff1673ffffffffffffffffffffffffffffffffffffffff1681526020018373ffffffffffffffffffffffffffffffffffffffff1673ffffffffffffffffffffffffffffffffffffffff1681526020018281526020019350505050602060405180830381600087803b158015611f8e57600080fd5b505af1158015611fa2573d6000803e3d6000fd5b505050506040513d6020811015611fb857600080fd5b810190808051906020019092919050505093508273ffffffffffffffffffffffffffffffffffffffff167f2dd2240a23ea416c5b90edc6772bb4cbbf7fe2247d579e88a246898cd27f2f64838660405180838152602001821515151581526020019250505060405180910390a250505090565b6060600760008373ffffffffffffffffffffffffffffffffffffffff1673ffffffffffffffffffffffffffffffffffffffff16815260200190815260200160002073__ListLib_______________________________6357abf55690916040518263ffffffff167c01000000000000000000000000000000000000000000000000000000000281526004018082815260200191505060006040518083038186803b1580156120d857600080fd5b505af41580156120ec573d6000803e3d6000fd5b505050506040513d6000823e3d601f19601f82011682018060405250602081101561211657600080fd5b81019080805164010000000081111561212e57600080fd5b8281019050602081018481111561214457600080fd5b815185602082028301116401000000008211171561216157600080fd5b50509291905050509050919050565b6000809054906101000a900473ffffffffffffffffffffffffffffffffffffffff1681565b6000600760008473ffffffffffffffffffffffffffffffffffffffff1673ffffffffffffffffffffffffffffffffffffffff16815260200190815260200160002073__ListLib_______________________________632b63aaef9091846040518363ffffffff167c0100000000000000000000000000000000000000000000000000000000028152600401808381526020018273ffffffffffffffffffffffffffffffffffffffff1673ffffffffffffffffffffffffffffffffffffffff1681526020019250505060206040518083038186803b15801561227657600080fd5b505af415801561228a573d6000803e3d6000fd5b505050506040513d60208110156122a057600080fd5b8101908080519060200190929190505050905092915050565b6000806000339050600760008273ffffffffffffffffffffffffffffffffffffffff1663521eb2736040518163ffffffff167c0100000000000000000000000000000000000000000000000000000000028152600401602060405180830381600087803b15801561232957600080fd5b505af115801561233d573d6000803e3d6000fd5b505050506040513d602081101561235357600080fd5b810190808051906020019092919050505073ffffffffffffffffffffffffffffffffffffffff1673ffffffffffffffffffffffffffffffffffffffff16815260200190815260200160002073__ListLib_______________________________632b63aaef9091836040518363ffffffff167c0100000000000000000000000000000000000000000000000000000000028152600401808381526020018273ffffffffffffffffffffffffffffffffffffffff1673ffffffffffffffffffffffffffffffffffffffff1681526020019250505060206040518083038186803b15801561243e57600080fd5b505af4158015612452573d6000803e3d6000fd5b505050506040513d602081101561246857600080fd5b81019080805190602001909291905050501515612513576040517f08c379a00000000000000000000000000000000000000000000000000000000081526004018080602001828103825260318152602001807f7061796d656e7420646f6573206e6f7420657869737420696e2074686520776181526020017f6c6c6574207061796d656e74206c69737400000000000000000000000000000081525060400191505060405180910390fd5b600660008273ffffffffffffffffffffffffffffffffffffffff166366d003ac6040518163ffffffff167c0100000000000000000000000000000000000000000000000000000000028152600401602060405180830381600087803b15801561257b57600080fd5b505af115801561258f573d6000803e3d6000fd5b505050506040513d60208110156125a557600080fd5b810190808051906020019092919050505073ffffffffffffffffffffffffffffffffffffffff1673ffffffffffffffffffffffffffffffffffffffff16815260200190815260200160002073__ListLib_______________________________632b63aaef9091836040518363ffffffff167c0100000000000000000000000000000000000000000000000000000000028152600401808381526020018273ffffffffffffffffffffffffffffffffffffffff1673ffffffffffffffffffffffffffffffffffffffff1681526020019250505060206040518083038186803b15801561269057600080fd5b505af41580156126a4573d6000803e3d6000fd5b505050506040513d60208110156126ba57600080fd5b81019080805190602001909291905050501515612765576040517f08c379a00000000000000000000000000000000000000000000000000000000081526004018080602001828103825260348152602001807f7061796d656e7420646f6573206e6f7420657869737420696e2074686520726581526020017f63697069656e74207061796d656e74206c69737400000000000000000000000081525060400191505060405180910390fd5b3391508173ffffffffffffffffffffffffffffffffffffffff1663521eb2736040518163ffffffff167c0100000000000000000000000000000000000000000000000000000000028152600401602060405180830381600087803b1580156127cc57600080fd5b505af11580156127e0573d6000803e3d6000fd5b505050506040513d60208110156127f657600080fd5b810190808051906020019092919050505073ffffffffffffffffffffffffffffffffffffffff1663beabacc88787876040518463ffffffff167c0100000000000000000000000000000000000000000000000000000000028152600401808473ffffffffffffffffffffffffffffffffffffffff1673ffffffffffffffffffffffffffffffffffffffff1681526020018373ffffffffffffffffffffffffffffffffffffffff1673ffffffffffffffffffffffffffffffffffffffff1681526020018281526020019350505050602060405180830381600087803b1580156128dd57600080fd5b505af11580156128f1573d6000803e3d6000fd5b505050506040513d602081101561290757600080fd5b810190808051906020019092919050505092508173ffffffffffffffffffffffffffffffffffffffff167f2dd2240a23ea416c5b90edc6772bb4cbbf7fe2247d579e88a246898cd27f2f64858560405180838152602001821515151581526020019250505060405180910390a250509392505050565b600260009054906101000a900473ffffffffffffffffffffffffffffffffffffffff1681565b6000600154141515612a43576040517f08c379a00000000000000000000000000000000000000000000000000000000081526004018080602001828103825260228152602001807f626c6f636b20637265617465642063616e206f6e6c7920626520736574206f6e81526020017f636500000000000000000000000000000000000000000000000000000000000081525060400191505060405180910390fd5b4360018190555033600260006101000a81548173ffffffffffffffffffffffffffffffffffffffff021916908373ffffffffffffffffffffffffffffffffffffffff160217905550806000806101000a81548173ffffffffffffffffffffffffffffffffffffffff021916908373ffffffffffffffffffffffffffffffffffffffff16021790555050565b6000600660008473ffffffffffffffffffffffffffffffffffffffff1673ffffffffffffffffffffffffffffffffffffffff16815260200190815260200160002073__ListLib_______________________________632b63aaef9091846040518363ffffffff167c0100000000000000000000000000000000000000000000000000000000028152600401808381526020018273ffffffffffffffffffffffffffffffffffffffff1673ffffffffffffffffffffffffffffffffffffffff1681526020019250505060206040518083038186803b158015612baf57600080fd5b505af4158015612bc3573d6000803e3d6000fd5b505050506040513d6020811015612bd957600080fd5b8101908080519060200190929190505050905092915050565b6000339050600760008273ffffffffffffffffffffffffffffffffffffffff1663521eb2736040518163ffffffff167c0100000000000000000000000000000000000000000000000000000000028152600401602060405180830381600087803b158015612c5f57600080fd5b505af1158015612c73573d6000803e3d6000fd5b505050506040513d6020811015612c8957600080fd5b810190808051906020019092919050505073ffffffffffffffffffffffffffffffffffffffff1673ffffffffffffffffffffffffffffffffffffffff16815260200190815260200160002073__ListLib_______________________________63af9fe56b9091836040518363ffffffff167c0100000000000000000000000000000000000000000000000000000000028152600401808381526020018273ffffffffffffffffffffffffffffffffffffffff1673ffffffffffffffffffffffffffffffffffffffff1681526020019250505060206040518083038186803b158015612d7457600080fd5b505af4158015612d88573d6000803e3d6000fd5b505050506040513d6020811015612d9e57600080fd5b81019080805190602001909291905050501515612e49576040517f08c379a00000000000000000000000000000000000000000000000000000000081526004018080602001828103825260318152602001807f6661696c656420746f2072656d6f7665207061796d656e742066726f6d20776181526020017f6c6c6574207061796d656e74206c69737400000000000000000000000000000081525060400191505060405180910390fd5b600660008273ffffffffffffffffffffffffffffffffffffffff166366d003ac6040518163ffffffff167c0100000000000000000000000000000000000000000000000000000000028152600401602060405180830381600087803b158015612eb157600080fd5b505af1158015612ec5573d6000803e3d6000fd5b505050506040513d6020811015612edb57600080fd5b810190808051906020019092919050505073ffffffffffffffffffffffffffffffffffffffff1673ffffffffffffffffffffffffffffffffffffffff16815260200190815260200160002073__ListLib_______________________________63af9fe56b9091836040518363ffffffff167c0100000000000000000000000000000000000000000000000000000000028152600401808381526020018273ffffffffffffffffffffffffffffffffffffffff1673ffffffffffffffffffffffffffffffffffffffff1681526020019250505060206040518083038186803b158015612fc657600080fd5b505af4158015612fda573d6000803e3d6000fd5b505050506040513d6020811015612ff057600080fd5b8101908080519060200190929190505050151561309b576040517f08c379a00000000000000000000000000000000000000000000000000000000081526004018080602001828103825260348152602001807f6661696c656420746f2072656d6f7665207061796d656e742066726f6d20726581526020017f63697069656e74207061796d656e74206c69737400000000000000000000000081525060400191505060405180910390fd5b8073ffffffffffffffffffffffffffffffffffffffff167f034bc3130a7ffc24d449116d1eaac102b50fc88f2ce34d6c9ce195b2aac92bd882604051808273ffffffffffffffffffffffffffffffffffffffff1673ffffffffffffffffffffffffffffffffffffffff16815260200191505060405180910390a250565b6000809054906101000a900473ffffffffffffffffffffffffffffffffffffffff1673ffffffffffffffffffffffffffffffffffffffff163373ffffffffffffffffffffffffffffffffffffffff1614151561317357600080fd5b806000806101000a81548173ffffffffffffffffffffffffffffffffffffffff021916908373ffffffffffffffffffffffffffffffffffffffff16021790555050565b8073ffffffffffffffffffffffffffffffffffffffff1663521eb2736040518163ffffffff167c0100000000000000000000000000000000000000000000000000000000028152600401602060405180830381600087803b15801561321a57600080fd5b505af115801561322e573d6000803e3d6000fd5b505050506040513d602081101561324457600080fd5b810190808051906020019092919050505073ffffffffffffffffffffffffffffffffffffffff166307779627336040518263ffffffff167c0100000000000000000000000000000000000000000000000000000000028152600401808273ffffffffffffffffffffffffffffffffffffffff1673ffffffffffffffffffffffffffffffffffffffff168152602001915050602060405180830381600087803b1580156132ef57600080fd5b505af1158015613303573d6000803e3d6000fd5b505050506040513d602081101561331957600080fd5b810190808051906020019092919050505015156133c4576040517f08c379a00000000000000000000000000000000000000000000000000000000081526004018080602001828103825260288152602001807f6f6e6c7920612064656c65676174652063616e20756e7363686564756c65206181526020017f207061796d656e7400000000000000000000000000000000000000000000000081525060400191505060405180910390fd5b600760008273ffffffffffffffffffffffffffffffffffffffff1663521eb2736040518163ffffffff167c0100000000000000000000000000000000000000000000000000000000028152600401602060405180830381600087803b15801561342c57600080fd5b505af1158015613440573d6000803e3d6000fd5b505050506040513d602081101561345657600080fd5b810190808051906020019092919050505073ffffffffffffffffffffffffffffffffffffffff1673ffffffffffffffffffffffffffffffffffffffff16815260200190815260200160002073__ListLib_______________________________63af9fe56b9091836040518363ffffffff167c0100000000000000000000000000000000000000000000000000000000028152600401808381526020018273ffffffffffffffffffffffffffffffffffffffff1673ffffffffffffffffffffffffffffffffffffffff1681526020019250505060206040518083038186803b15801561354157600080fd5b505af4158015613555573d6000803e3d6000fd5b505050506040513d602081101561356b57600080fd5b81019080805190602001909291905050501515613616576040517f08c379a00000000000000000000000000000000000000000000000000000000081526004018080602001828103825260318152602001807f6661696c656420746f2072656d6f7665207061796d656e742066726f6d20776181526020017f6c6c6574207061796d656e74206c69737400000000000000000000000000000081525060400191505060405180910390fd5b600660008273ffffffffffffffffffffffffffffffffffffffff166366d003ac6040518163ffffffff167c0100000000000000000000000000000000000000000000000000000000028152600401602060405180830381600087803b15801561367e57600080fd5b505af1158015613692573d6000803e3d6000fd5b505050506040513d60208110156136a857600080fd5b810190808051906020019092919050505073ffffffffffffffffffffffffffffffffffffffff1673ffffffffffffffffffffffffffffffffffffffff16815260200190815260200160002073__ListLib_______________________________63af9fe56b9091836040518363ffffffff167c0100000000000000000000000000000000000000000000000000000000028152600401808381526020018273ffffffffffffffffffffffffffffffffffffffff1673ffffffffffffffffffffffffffffffffffffffff1681526020019250505060206040518083038186803b15801561379357600080fd5b505af41580156137a7573d6000803e3d6000fd5b505050506040513d60208110156137bd57600080fd5b81019080805190602001909291905050501515613868576040517f08c379a00000000000000000000000000000000000000000000000000000000081526004018080602001828103825260348152602001807f6661696c656420746f2072656d6f7665207061796d656e742066726f6d20726581526020017f63697069656e74207061796d656e74206c69737400000000000000000000000081525060400191505060405180910390fd5b3373ffffffffffffffffffffffffffffffffffffffff167f034bc3130a7ffc24d449116d1eaac102b50fc88f2ce34d6c9ce195b2aac92bd882604051808273ffffffffffffffffffffffffffffffffffffffff1673ffffffffffffffffffffffffffffffffffffffff16815260200191505060405180910390a2505600a165627a7a72305820de18dff6ec464cd70bf60c0f2b14d4ba71b52f685c337e2c658859cbef1c782f0029",
  "source": "pragma solidity ^0.4.23;\r\n\r\nimport \"../../external/Owned.sol\";\r\nimport \"../../libraries/ListLib.sol\";\r\nimport \"../../Interfaces.sol\";\r\n\r\ncontract PaymentDelegate is Owned, IPaymentDelegate, ITokenSender {\r\n\r\n    using ListLib for ListLib.AddressList;\r\n\r\n    uint public blockCreated;\r\n    address public factory;\r\n\r\n    ListLib.AddressList schedulers;\r\n\r\n    mapping (address => ListLib.AddressList) incoming;\r\n    mapping (address => ListLib.AddressList) outgoing;\r\n\r\n    function initialize (address _owner) public {\r\n        require(blockCreated == 0, \"block created can only be set once\");\r\n\r\n        blockCreated = block.number;\r\n        \r\n        factory = msg.sender;\r\n        owner = _owner;\r\n    }\r\n\r\n    function transfer (address token, address recipient, uint amount) public validPayment returns (bool success) {\r\n        IPayment payment = IPayment(msg.sender);\r\n        success = payment.wallet().transfer(token, recipient, amount);\r\n        emit Payment_event(payment, amount, success);\r\n    }\r\n\r\n    function execute () public validPayment returns (bool success) {\r\n        IPayment payment = IPayment(msg.sender);\r\n        uint paymentAmount = payment.amount();\r\n        success = payment.wallet().transfer(\r\n            payment.token(), \r\n            payment.recipient(), \r\n            paymentAmount\r\n        );\r\n\r\n        emit Payment_event(payment, paymentAmount, success);\r\n    }\r\n\r\n    function schedule (IPayment payment) public onlySchedulers {\r\n        require(outgoing[payment.wallet()].add(payment), \"failed to add payment to wallet payment list\");\r\n        require(incoming[payment.recipient()].add(payment), \"failed to add payment to recipient payment list\");\r\n\r\n        emit Schedule_event(msg.sender, payment);\r\n    }\r\n\r\n    function unschedule (IPayment payment) public {\r\n        require(payment.wallet().isDelegate(msg.sender), \"only a delegate can unschedule a payment\");\r\n        require(outgoing[payment.wallet()].remove(payment), \"failed to remove payment from wallet payment list\");\r\n        require(incoming[payment.recipient()].remove(payment), \"failed to remove payment from recipient payment list\");\r\n\r\n        emit Unschedule_event(msg.sender, payment);\r\n    }\r\n\r\n    function unschedule () public {\r\n        IPayment payment = IPayment(msg.sender);\r\n        require(outgoing[payment.wallet()].remove(payment), \"failed to remove payment from wallet payment list\");\r\n        require(incoming[payment.recipient()].remove(payment), \"failed to remove payment from recipient payment list\");\r\n\r\n        emit Unschedule_event(payment, payment);\r\n    }\r\n    \r\n    function getIncomingPayments (address recipient) public view returns (address[]) {\r\n        return incoming[recipient].get();\r\n    }\r\n\r\n    function getOutgoingPayments (IDelegatedWallet wallet) public view returns (address[]) {\r\n        return outgoing[wallet].get();\r\n    }\r\n    \r\n    function getTotalIncomingPayments (address recipient) public view returns (uint) {\r\n        return incoming[recipient].getLength();\r\n    }\r\n    \r\n    function getTotalOutgoingPayments (IDelegatedWallet wallet) public view returns (uint) {\r\n        return outgoing[wallet].getLength();\r\n    }\r\n\r\n    function getIncomingPaymentAtIndex (address recipient, uint i) public view returns (IPayment) {\r\n        return IPayment(incoming[recipient].index(i));\r\n    }\r\n\r\n    function getOutgoingPaymentAtIndex (IDelegatedWallet wallet, uint i) public view returns (IPayment) {\r\n        return IPayment(outgoing[wallet].index(i));\r\n    }\r\n\r\n    function recipientContainsPayment (address recipient, IPayment payment) public view returns (bool) {\r\n        return incoming[recipient].contains(payment);\r\n    }\r\n\r\n    function walletContainsPayment (address wallet, IPayment payment) public view returns (bool) {\r\n        return outgoing[wallet].contains(payment);\r\n    }\r\n\r\n    function addScheduler (address newScheduler) public onlyOwner returns (bool) {\r\n        return schedulers.add(newScheduler);\r\n    }\r\n    \r\n    function removeScheduler (address newScheduler) public onlyOwner returns (bool) {\r\n        return schedulers.remove(newScheduler);\r\n    }\r\n\r\n    function getSchedulers () public view returns (address[]) {\r\n        return schedulers.get();\r\n    }\r\n\r\n    modifier validPayment () {\r\n        IPayment payment = IPayment(msg.sender);\r\n        require(outgoing[payment.wallet()].contains(payment), \"payment does not exist in the wallet payment list\");\r\n        require(incoming[payment.recipient()].contains(payment), \"payment does not exist in the recipient payment list\");\r\n        _;\r\n    }\r\n\r\n    modifier onlySchedulers () {\r\n        require(schedulers.contains(msg.sender));\r\n        _;\r\n    }\r\n    \r\n    event Payment_event (IPayment indexed payment, uint amount, bool success);\r\n    event Schedule_event (address indexed scheduler, IPayment payment);\r\n    event Unschedule_event (address indexed caller, IPayment payment);\r\n\r\n}\r\n",
  "sourcePath": "C:\\Users\\My\\Documents\\GitHub\\everchain-project\\recurring-alarm-clock\\contracts\\components\\payment-delegate\\PaymentDelegate.sol",
  "compiler": {
    "name": "solc",
    "version": "0.4.24+commit.e67f0147.Emscripten.clang"
  },
  "schemaVersion": "2.0.1",
  "updatedAt": "2018-10-16T21:51:53.484Z"
}