{
  "contractName": "PaymentDelegate",
  "abi": [
    {
      "constant": true,
      "inputs": [],
      "name": "blockCreated",
      "outputs": [
        {
          "name": "",
          "type": "uint256"
        }
      ],
      "payable": false,
      "stateMutability": "view",
      "type": "function"
    },
    {
      "constant": true,
      "inputs": [],
      "name": "owner",
      "outputs": [
        {
          "name": "",
          "type": "address"
        }
      ],
      "payable": false,
      "stateMutability": "view",
      "type": "function"
    },
    {
      "constant": true,
      "inputs": [],
      "name": "factory",
      "outputs": [
        {
          "name": "",
          "type": "address"
        }
      ],
      "payable": false,
      "stateMutability": "view",
      "type": "function"
    },
    {
      "constant": false,
      "inputs": [
        {
          "name": "_newOwner",
          "type": "address"
        }
      ],
      "name": "transferOwnership",
      "outputs": [],
      "payable": false,
      "stateMutability": "nonpayable",
      "type": "function"
    },
    {
      "anonymous": false,
      "inputs": [
        {
          "indexed": true,
          "name": "payment",
          "type": "address"
        },
        {
          "indexed": false,
          "name": "amount",
          "type": "uint256"
        },
        {
          "indexed": false,
          "name": "success",
          "type": "bool"
        }
      ],
      "name": "Payment_event",
      "type": "event"
    },
    {
      "anonymous": false,
      "inputs": [
        {
          "indexed": true,
          "name": "scheduler",
          "type": "address"
        },
        {
          "indexed": true,
          "name": "wallet",
          "type": "address"
        },
        {
          "indexed": true,
          "name": "recipient",
          "type": "address"
        },
        {
          "indexed": false,
          "name": "payment",
          "type": "address"
        }
      ],
      "name": "Schedule_event",
      "type": "event"
    },
    {
      "anonymous": false,
      "inputs": [
        {
          "indexed": true,
          "name": "caller",
          "type": "address"
        },
        {
          "indexed": false,
          "name": "payment",
          "type": "address"
        }
      ],
      "name": "Unschedule_event",
      "type": "event"
    },
    {
      "constant": false,
      "inputs": [
        {
          "name": "_owner",
          "type": "address"
        }
      ],
      "name": "initialize",
      "outputs": [],
      "payable": false,
      "stateMutability": "nonpayable",
      "type": "function"
    },
    {
      "constant": false,
      "inputs": [
        {
          "name": "token",
          "type": "address"
        },
        {
          "name": "recipient",
          "type": "address"
        },
        {
          "name": "amount",
          "type": "uint256"
        }
      ],
      "name": "transfer",
      "outputs": [
        {
          "name": "success",
          "type": "bool"
        }
      ],
      "payable": false,
      "stateMutability": "nonpayable",
      "type": "function"
    },
    {
      "constant": false,
      "inputs": [],
      "name": "execute",
      "outputs": [
        {
          "name": "success",
          "type": "bool"
        }
      ],
      "payable": false,
      "stateMutability": "nonpayable",
      "type": "function"
    },
    {
      "constant": false,
      "inputs": [
        {
          "name": "payment",
          "type": "address"
        }
      ],
      "name": "schedule",
      "outputs": [],
      "payable": false,
      "stateMutability": "nonpayable",
      "type": "function"
    },
    {
      "constant": false,
      "inputs": [
        {
          "name": "payment",
          "type": "address"
        }
      ],
      "name": "unschedule",
      "outputs": [],
      "payable": false,
      "stateMutability": "nonpayable",
      "type": "function"
    },
    {
      "constant": false,
      "inputs": [],
      "name": "unschedule",
      "outputs": [],
      "payable": false,
      "stateMutability": "nonpayable",
      "type": "function"
    },
    {
      "constant": true,
      "inputs": [
        {
          "name": "recipient",
          "type": "address"
        }
      ],
      "name": "getIncomingPayments",
      "outputs": [
        {
          "name": "",
          "type": "address[]"
        }
      ],
      "payable": false,
      "stateMutability": "view",
      "type": "function"
    },
    {
      "constant": true,
      "inputs": [
        {
          "name": "wallet",
          "type": "address"
        }
      ],
      "name": "getOutgoingPayments",
      "outputs": [
        {
          "name": "",
          "type": "address[]"
        }
      ],
      "payable": false,
      "stateMutability": "view",
      "type": "function"
    },
    {
      "constant": true,
      "inputs": [
        {
          "name": "recipient",
          "type": "address"
        }
      ],
      "name": "getTotalIncomingPayments",
      "outputs": [
        {
          "name": "",
          "type": "uint256"
        }
      ],
      "payable": false,
      "stateMutability": "view",
      "type": "function"
    },
    {
      "constant": true,
      "inputs": [
        {
          "name": "wallet",
          "type": "address"
        }
      ],
      "name": "getTotalOutgoingPayments",
      "outputs": [
        {
          "name": "",
          "type": "uint256"
        }
      ],
      "payable": false,
      "stateMutability": "view",
      "type": "function"
    },
    {
      "constant": true,
      "inputs": [
        {
          "name": "recipient",
          "type": "address"
        },
        {
          "name": "i",
          "type": "uint256"
        }
      ],
      "name": "getIncomingPaymentAtIndex",
      "outputs": [
        {
          "name": "",
          "type": "address"
        }
      ],
      "payable": false,
      "stateMutability": "view",
      "type": "function"
    },
    {
      "constant": true,
      "inputs": [
        {
          "name": "wallet",
          "type": "address"
        },
        {
          "name": "i",
          "type": "uint256"
        }
      ],
      "name": "getOutgoingPaymentAtIndex",
      "outputs": [
        {
          "name": "",
          "type": "address"
        }
      ],
      "payable": false,
      "stateMutability": "view",
      "type": "function"
    },
    {
      "constant": true,
      "inputs": [
        {
          "name": "recipient",
          "type": "address"
        },
        {
          "name": "payment",
          "type": "address"
        }
      ],
      "name": "recipientContainsPayment",
      "outputs": [
        {
          "name": "",
          "type": "bool"
        }
      ],
      "payable": false,
      "stateMutability": "view",
      "type": "function"
    },
    {
      "constant": true,
      "inputs": [
        {
          "name": "wallet",
          "type": "address"
        },
        {
          "name": "payment",
          "type": "address"
        }
      ],
      "name": "walletContainsPayment",
      "outputs": [
        {
          "name": "",
          "type": "bool"
        }
      ],
      "payable": false,
      "stateMutability": "view",
      "type": "function"
    },
    {
      "constant": false,
      "inputs": [
        {
          "name": "newScheduler",
          "type": "address"
        }
      ],
      "name": "addScheduler",
      "outputs": [
        {
          "name": "",
          "type": "bool"
        }
      ],
      "payable": false,
      "stateMutability": "nonpayable",
      "type": "function"
    },
    {
      "constant": false,
      "inputs": [
        {
          "name": "newScheduler",
          "type": "address"
        }
      ],
      "name": "removeScheduler",
      "outputs": [
        {
          "name": "",
          "type": "bool"
        }
      ],
      "payable": false,
      "stateMutability": "nonpayable",
      "type": "function"
    },
    {
      "constant": true,
      "inputs": [],
      "name": "getSchedulers",
      "outputs": [
        {
          "name": "",
          "type": "address[]"
        }
      ],
      "payable": false,
      "stateMutability": "view",
      "type": "function"
    }
  ],
  "bytecode": "0x6080604052336000806101000a81548173ffffffffffffffffffffffffffffffffffffffff021916908373ffffffffffffffffffffffffffffffffffffffff160217905550613a7b806100536000396000f30060806040526004361061011d576000357c0100000000000000000000000000000000000000000000000000000000900463ffffffff1680630a602534146101225780631209790b1461018e57806316dc8c041461021b5780631cf7744814610276578063242cb3df146102cd57806327f615e61461035a578063306b1022146103b1578063316bef981461040c5780634408f9281461044f5780634e989a4c146104e757806361461954146105125780638d498ba9146105415780638da5cb5b146105d95780639ba00f0f14610630578063beabacc8146106ab578063c45a015514610730578063c4d66de814610787578063da1bffa6146107ca578063daf1548c14610845578063f2fde38b1461085c578063f4c0f4131461089f575b600080fd5b34801561012e57600080fd5b506101376108e2565b6040518080602001828103825283818151815260200191508051906020019060200280838360005b8381101561017a57808201518184015260208101905061015f565b505050509050019250505060405180910390f35b34801561019a57600080fd5b506101d9600480360381019080803573ffffffffffffffffffffffffffffffffffffffff169060200190929190803590602001909291905050506109e8565b604051808273ffffffffffffffffffffffffffffffffffffffff1673ffffffffffffffffffffffffffffffffffffffff16815260200191505060405180910390f35b34801561022757600080fd5b5061025c600480360381019080803573ffffffffffffffffffffffffffffffffffffffff169060200190929190505050610ae0565b604051808215151515815260200191505060405180910390f35b34801561028257600080fd5b506102b7600480360381019080803573ffffffffffffffffffffffffffffffffffffffff169060200190929190505050610c21565b6040518082815260200191505060405180910390f35b3480156102d957600080fd5b50610318600480360381019080803573ffffffffffffffffffffffffffffffffffffffff16906020019092919080359060200190929190505050610d10565b604051808273ffffffffffffffffffffffffffffffffffffffff1673ffffffffffffffffffffffffffffffffffffffff16815260200191505060405180910390f35b34801561036657600080fd5b5061039b600480360381019080803573ffffffffffffffffffffffffffffffffffffffff169060200190929190505050610e08565b6040518082815260200191505060405180910390f35b3480156103bd57600080fd5b506103f2600480360381019080803573ffffffffffffffffffffffffffffffffffffffff169060200190929190505050610ef7565b604051808215151515815260200191505060405180910390f35b34801561041857600080fd5b5061044d600480360381019080803573ffffffffffffffffffffffffffffffffffffffff169060200190929190505050611038565b005b34801561045b57600080fd5b50610490600480360381019080803573ffffffffffffffffffffffffffffffffffffffff1690602001909291905050506117ab565b6040518080602001828103825283818151815260200191508051906020019060200280838360005b838110156104d35780820151818401526020810190506104b8565b505050509050019250505060405180910390f35b3480156104f357600080fd5b506104fc6118f0565b6040518082815260200191505060405180910390f35b34801561051e57600080fd5b506105276118f6565b604051808215151515815260200191505060405180910390f35b34801561054d57600080fd5b50610582600480360381019080803573ffffffffffffffffffffffffffffffffffffffff169060200190929190505050612195565b6040518080602001828103825283818151815260200191508051906020019060200280838360005b838110156105c55780820151818401526020810190506105aa565b505050509050019250505060405180910390f35b3480156105e557600080fd5b506105ee6122da565b604051808273ffffffffffffffffffffffffffffffffffffffff1673ffffffffffffffffffffffffffffffffffffffff16815260200191505060405180910390f35b34801561063c57600080fd5b50610691600480360381019080803573ffffffffffffffffffffffffffffffffffffffff169060200190929190803573ffffffffffffffffffffffffffffffffffffffff1690602001909291905050506122ff565b604051808215151515815260200191505060405180910390f35b3480156106b757600080fd5b50610716600480360381019080803573ffffffffffffffffffffffffffffffffffffffff169060200190929190803573ffffffffffffffffffffffffffffffffffffffff16906020019092919080359060200190929190505050612423565b604051808215151515815260200191505060405180910390f35b34801561073c57600080fd5b50610745612ae7565b604051808273ffffffffffffffffffffffffffffffffffffffff1673ffffffffffffffffffffffffffffffffffffffff16815260200191505060405180910390f35b34801561079357600080fd5b506107c8600480360381019080803573ffffffffffffffffffffffffffffffffffffffff169060200190929190505050612b0d565b005b3480156107d657600080fd5b5061082b600480360381019080803573ffffffffffffffffffffffffffffffffffffffff169060200190929190803573ffffffffffffffffffffffffffffffffffffffff169060200190929190505050612c38565b604051808215151515815260200191505060405180910390f35b34801561085157600080fd5b5061085a612d5c565b005b34801561086857600080fd5b5061089d600480360381019080803573ffffffffffffffffffffffffffffffffffffffff169060200190929190505050613282565b005b3480156108ab57600080fd5b506108e0600480360381019080803573ffffffffffffffffffffffffffffffffffffffff169060200190929190505050613320565b005b6060600373__ListLib_______________________________6357abf55690916040518263ffffffff167c01000000000000000000000000000000000000000000000000000000000281526004018082815260200191505060006040518083038186803b15801561095257600080fd5b505af4158015610966573d6000803e3d6000fd5b505050506040513d6000823e3d601f19601f82011682018060405250602081101561099057600080fd5b8101908080516401000000008111156109a857600080fd5b828101905060208101848111156109be57600080fd5b81518560208202830111640100000000821117156109db57600080fd5b5050929190505050905090565b6000600760008473ffffffffffffffffffffffffffffffffffffffff1673ffffffffffffffffffffffffffffffffffffffff16815260200190815260200160002073__ListLib_______________________________63a544c2139091846040518363ffffffff167c0100000000000000000000000000000000000000000000000000000000028152600401808381526020018281526020019250505060206040518083038186803b158015610a9d57600080fd5b505af4158015610ab1573d6000803e3d6000fd5b505050506040513d6020811015610ac757600080fd5b8101908080519060200190929190505050905092915050565b60008060009054906101000a900473ffffffffffffffffffffffffffffffffffffffff1673ffffffffffffffffffffffffffffffffffffffff163373ffffffffffffffffffffffffffffffffffffffff16141515610b3d57600080fd5b600373__ListLib_______________________________63af9fe56b9091846040518363ffffffff167c0100000000000000000000000000000000000000000000000000000000028152600401808381526020018273ffffffffffffffffffffffffffffffffffffffff1673ffffffffffffffffffffffffffffffffffffffff1681526020019250505060206040518083038186803b158015610bdf57600080fd5b505af4158015610bf3573d6000803e3d6000fd5b505050506040513d6020811015610c0957600080fd5b81019080805190602001909291905050509050919050565b6000600660008373ffffffffffffffffffffffffffffffffffffffff1673ffffffffffffffffffffffffffffffffffffffff16815260200190815260200160002073__ListLib_______________________________630faa9b9890916040518263ffffffff167c01000000000000000000000000000000000000000000000000000000000281526004018082815260200191505060206040518083038186803b158015610cce57600080fd5b505af4158015610ce2573d6000803e3d6000fd5b505050506040513d6020811015610cf857600080fd5b81019080805190602001909291905050509050919050565b6000600660008473ffffffffffffffffffffffffffffffffffffffff1673ffffffffffffffffffffffffffffffffffffffff16815260200190815260200160002073__ListLib_______________________________63a544c2139091846040518363ffffffff167c0100000000000000000000000000000000000000000000000000000000028152600401808381526020018281526020019250505060206040518083038186803b158015610dc557600080fd5b505af4158015610dd9573d6000803e3d6000fd5b505050506040513d6020811015610def57600080fd5b8101908080519060200190929190505050905092915050565b6000600760008373ffffffffffffffffffffffffffffffffffffffff1673ffffffffffffffffffffffffffffffffffffffff16815260200190815260200160002073__ListLib_______________________________630faa9b9890916040518263ffffffff167c01000000000000000000000000000000000000000000000000000000000281526004018082815260200191505060206040518083038186803b158015610eb557600080fd5b505af4158015610ec9573d6000803e3d6000fd5b505050506040513d6020811015610edf57600080fd5b81019080805190602001909291905050509050919050565b60008060009054906101000a900473ffffffffffffffffffffffffffffffffffffffff1673ffffffffffffffffffffffffffffffffffffffff163373ffffffffffffffffffffffffffffffffffffffff16141515610f5457600080fd5b600373__ListLib_______________________________63a45c62aa9091846040518363ffffffff167c0100000000000000000000000000000000000000000000000000000000028152600401808381526020018273ffffffffffffffffffffffffffffffffffffffff1673ffffffffffffffffffffffffffffffffffffffff1681526020019250505060206040518083038186803b158015610ff657600080fd5b505af415801561100a573d6000803e3d6000fd5b505050506040513d602081101561102057600080fd5b81019080805190602001909291905050509050919050565b600373__ListLib_______________________________632b63aaef9091336040518363ffffffff167c0100000000000000000000000000000000000000000000000000000000028152600401808381526020018273ffffffffffffffffffffffffffffffffffffffff1673ffffffffffffffffffffffffffffffffffffffff1681526020019250505060206040518083038186803b1580156110da57600080fd5b505af41580156110ee573d6000803e3d6000fd5b505050506040513d602081101561110457600080fd5b8101908080519060200190929190505050151561112057600080fd5b600760008273ffffffffffffffffffffffffffffffffffffffff1663521eb2736040518163ffffffff167c0100000000000000000000000000000000000000000000000000000000028152600401602060405180830381600087803b15801561118857600080fd5b505af115801561119c573d6000803e3d6000fd5b505050506040513d60208110156111b257600080fd5b810190808051906020019092919050505073ffffffffffffffffffffffffffffffffffffffff1673ffffffffffffffffffffffffffffffffffffffff16815260200190815260200160002073__ListLib_______________________________63a45c62aa9091836040518363ffffffff167c0100000000000000000000000000000000000000000000000000000000028152600401808381526020018273ffffffffffffffffffffffffffffffffffffffff1673ffffffffffffffffffffffffffffffffffffffff1681526020019250505060206040518083038186803b15801561129d57600080fd5b505af41580156112b1573d6000803e3d6000fd5b505050506040513d60208110156112c757600080fd5b81019080805190602001909291905050501515611372576040517f08c379a000000000000000000000000000000000000000000000000000000000815260040180806020018281038252602c8152602001807f6661696c656420746f20616464207061796d656e7420746f2077616c6c65742081526020017f7061796d656e74206c697374000000000000000000000000000000000000000081525060400191505060405180910390fd5b600660008273ffffffffffffffffffffffffffffffffffffffff166366d003ac6040518163ffffffff167c0100000000000000000000000000000000000000000000000000000000028152600401602060405180830381600087803b1580156113da57600080fd5b505af11580156113ee573d6000803e3d6000fd5b505050506040513d602081101561140457600080fd5b810190808051906020019092919050505073ffffffffffffffffffffffffffffffffffffffff1673ffffffffffffffffffffffffffffffffffffffff16815260200190815260200160002073__ListLib_______________________________63a45c62aa9091836040518363ffffffff167c0100000000000000000000000000000000000000000000000000000000028152600401808381526020018273ffffffffffffffffffffffffffffffffffffffff1673ffffffffffffffffffffffffffffffffffffffff1681526020019250505060206040518083038186803b1580156114ef57600080fd5b505af4158015611503573d6000803e3d6000fd5b505050506040513d602081101561151957600080fd5b810190808051906020019092919050505015156115c4576040517f08c379a000000000000000000000000000000000000000000000000000000000815260040180806020018281038252602f8152602001807f6661696c656420746f20616464207061796d656e7420746f207265636970696581526020017f6e74207061796d656e74206c697374000000000000000000000000000000000081525060400191505060405180910390fd5b8073ffffffffffffffffffffffffffffffffffffffff166366d003ac6040518163ffffffff167c0100000000000000000000000000000000000000000000000000000000028152600401602060405180830381600087803b15801561162857600080fd5b505af115801561163c573d6000803e3d6000fd5b505050506040513d602081101561165257600080fd5b810190808051906020019092919050505073ffffffffffffffffffffffffffffffffffffffff168173ffffffffffffffffffffffffffffffffffffffff1663521eb2736040518163ffffffff167c0100000000000000000000000000000000000000000000000000000000028152600401602060405180830381600087803b1580156116dd57600080fd5b505af11580156116f1573d6000803e3d6000fd5b505050506040513d602081101561170757600080fd5b810190808051906020019092919050505073ffffffffffffffffffffffffffffffffffffffff163373ffffffffffffffffffffffffffffffffffffffff167f1a22f82abc8afd4dfdb60c5b6377ba50c0c945c152ea15f599b789cb4d2bf9d984604051808273ffffffffffffffffffffffffffffffffffffffff1673ffffffffffffffffffffffffffffffffffffffff16815260200191505060405180910390a450565b6060600660008373ffffffffffffffffffffffffffffffffffffffff1673ffffffffffffffffffffffffffffffffffffffff16815260200190815260200160002073__ListLib_______________________________6357abf55690916040518263ffffffff167c01000000000000000000000000000000000000000000000000000000000281526004018082815260200191505060006040518083038186803b15801561185857600080fd5b505af415801561186c573d6000803e3d6000fd5b505050506040513d6000823e3d601f19601f82011682018060405250602081101561189657600080fd5b8101908080516401000000008111156118ae57600080fd5b828101905060208101848111156118c457600080fd5b81518560208202830111640100000000821117156118e157600080fd5b50509291905050509050919050565b60015481565b600080600080339050600760008273ffffffffffffffffffffffffffffffffffffffff1663521eb2736040518163ffffffff167c0100000000000000000000000000000000000000000000000000000000028152600401602060405180830381600087803b15801561196757600080fd5b505af115801561197b573d6000803e3d6000fd5b505050506040513d602081101561199157600080fd5b810190808051906020019092919050505073ffffffffffffffffffffffffffffffffffffffff1673ffffffffffffffffffffffffffffffffffffffff16815260200190815260200160002073__ListLib_______________________________632b63aaef9091836040518363ffffffff167c0100000000000000000000000000000000000000000000000000000000028152600401808381526020018273ffffffffffffffffffffffffffffffffffffffff1673ffffffffffffffffffffffffffffffffffffffff1681526020019250505060206040518083038186803b158015611a7c57600080fd5b505af4158015611a90573d6000803e3d6000fd5b505050506040513d6020811015611aa657600080fd5b81019080805190602001909291905050501515611b51576040517f08c379a00000000000000000000000000000000000000000000000000000000081526004018080602001828103825260318152602001807f7061796d656e7420646f6573206e6f7420657869737420696e2074686520776181526020017f6c6c6574207061796d656e74206c69737400000000000000000000000000000081525060400191505060405180910390fd5b600660008273ffffffffffffffffffffffffffffffffffffffff166366d003ac6040518163ffffffff167c0100000000000000000000000000000000000000000000000000000000028152600401602060405180830381600087803b158015611bb957600080fd5b505af1158015611bcd573d6000803e3d6000fd5b505050506040513d6020811015611be357600080fd5b810190808051906020019092919050505073ffffffffffffffffffffffffffffffffffffffff1673ffffffffffffffffffffffffffffffffffffffff16815260200190815260200160002073__ListLib_______________________________632b63aaef9091836040518363ffffffff167c0100000000000000000000000000000000000000000000000000000000028152600401808381526020018273ffffffffffffffffffffffffffffffffffffffff1673ffffffffffffffffffffffffffffffffffffffff1681526020019250505060206040518083038186803b158015611cce57600080fd5b505af4158015611ce2573d6000803e3d6000fd5b505050506040513d6020811015611cf857600080fd5b81019080805190602001909291905050501515611da3576040517f08c379a00000000000000000000000000000000000000000000000000000000081526004018080602001828103825260348152602001807f7061796d656e7420646f6573206e6f7420657869737420696e2074686520726581526020017f63697069656e74207061796d656e74206c69737400000000000000000000000081525060400191505060405180910390fd5b3392508273ffffffffffffffffffffffffffffffffffffffff1663aa8c217c6040518163ffffffff167c0100000000000000000000000000000000000000000000000000000000028152600401602060405180830381600087803b158015611e0a57600080fd5b505af1158015611e1e573d6000803e3d6000fd5b505050506040513d6020811015611e3457600080fd5b810190808051906020019092919050505091508273ffffffffffffffffffffffffffffffffffffffff1663521eb2736040518163ffffffff167c0100000000000000000000000000000000000000000000000000000000028152600401602060405180830381600087803b158015611eab57600080fd5b505af1158015611ebf573d6000803e3d6000fd5b505050506040513d6020811015611ed557600080fd5b810190808051906020019092919050505073ffffffffffffffffffffffffffffffffffffffff1663beabacc88473ffffffffffffffffffffffffffffffffffffffff1663fc0c546a6040518163ffffffff167c0100000000000000000000000000000000000000000000000000000000028152600401602060405180830381600087803b158015611f6557600080fd5b505af1158015611f79573d6000803e3d6000fd5b505050506040513d6020811015611f8f57600080fd5b81019080805190602001909291905050508573ffffffffffffffffffffffffffffffffffffffff166366d003ac6040518163ffffffff167c0100000000000000000000000000000000000000000000000000000000028152600401602060405180830381600087803b15801561200457600080fd5b505af1158015612018573d6000803e3d6000fd5b505050506040513d602081101561202e57600080fd5b8101908080519060200190929190505050856040518463ffffffff167c0100000000000000000000000000000000000000000000000000000000028152600401808473ffffffffffffffffffffffffffffffffffffffff1673ffffffffffffffffffffffffffffffffffffffff1681526020018373ffffffffffffffffffffffffffffffffffffffff1673ffffffffffffffffffffffffffffffffffffffff1681526020018281526020019350505050602060405180830381600087803b1580156120f857600080fd5b505af115801561210c573d6000803e3d6000fd5b505050506040513d602081101561212257600080fd5b810190808051906020019092919050505093508273ffffffffffffffffffffffffffffffffffffffff167f2dd2240a23ea416c5b90edc6772bb4cbbf7fe2247d579e88a246898cd27f2f64838660405180838152602001821515151581526020019250505060405180910390a250505090565b6060600760008373ffffffffffffffffffffffffffffffffffffffff1673ffffffffffffffffffffffffffffffffffffffff16815260200190815260200160002073__ListLib_______________________________6357abf55690916040518263ffffffff167c01000000000000000000000000000000000000000000000000000000000281526004018082815260200191505060006040518083038186803b15801561224257600080fd5b505af4158015612256573d6000803e3d6000fd5b505050506040513d6000823e3d601f19601f82011682018060405250602081101561228057600080fd5b81019080805164010000000081111561229857600080fd5b828101905060208101848111156122ae57600080fd5b81518560208202830111640100000000821117156122cb57600080fd5b50509291905050509050919050565b6000809054906101000a900473ffffffffffffffffffffffffffffffffffffffff1681565b6000600760008473ffffffffffffffffffffffffffffffffffffffff1673ffffffffffffffffffffffffffffffffffffffff16815260200190815260200160002073__ListLib_______________________________632b63aaef9091846040518363ffffffff167c0100000000000000000000000000000000000000000000000000000000028152600401808381526020018273ffffffffffffffffffffffffffffffffffffffff1673ffffffffffffffffffffffffffffffffffffffff1681526020019250505060206040518083038186803b1580156123e057600080fd5b505af41580156123f4573d6000803e3d6000fd5b505050506040513d602081101561240a57600080fd5b8101908080519060200190929190505050905092915050565b6000806000339050600760008273ffffffffffffffffffffffffffffffffffffffff1663521eb2736040518163ffffffff167c0100000000000000000000000000000000000000000000000000000000028152600401602060405180830381600087803b15801561249357600080fd5b505af11580156124a7573d6000803e3d6000fd5b505050506040513d60208110156124bd57600080fd5b810190808051906020019092919050505073ffffffffffffffffffffffffffffffffffffffff1673ffffffffffffffffffffffffffffffffffffffff16815260200190815260200160002073__ListLib_______________________________632b63aaef9091836040518363ffffffff167c0100000000000000000000000000000000000000000000000000000000028152600401808381526020018273ffffffffffffffffffffffffffffffffffffffff1673ffffffffffffffffffffffffffffffffffffffff1681526020019250505060206040518083038186803b1580156125a857600080fd5b505af41580156125bc573d6000803e3d6000fd5b505050506040513d60208110156125d257600080fd5b8101908080519060200190929190505050151561267d576040517f08c379a00000000000000000000000000000000000000000000000000000000081526004018080602001828103825260318152602001807f7061796d656e7420646f6573206e6f7420657869737420696e2074686520776181526020017f6c6c6574207061796d656e74206c69737400000000000000000000000000000081525060400191505060405180910390fd5b600660008273ffffffffffffffffffffffffffffffffffffffff166366d003ac6040518163ffffffff167c0100000000000000000000000000000000000000000000000000000000028152600401602060405180830381600087803b1580156126e557600080fd5b505af11580156126f9573d6000803e3d6000fd5b505050506040513d602081101561270f57600080fd5b810190808051906020019092919050505073ffffffffffffffffffffffffffffffffffffffff1673ffffffffffffffffffffffffffffffffffffffff16815260200190815260200160002073__ListLib_______________________________632b63aaef9091836040518363ffffffff167c0100000000000000000000000000000000000000000000000000000000028152600401808381526020018273ffffffffffffffffffffffffffffffffffffffff1673ffffffffffffffffffffffffffffffffffffffff1681526020019250505060206040518083038186803b1580156127fa57600080fd5b505af415801561280e573d6000803e3d6000fd5b505050506040513d602081101561282457600080fd5b810190808051906020019092919050505015156128cf576040517f08c379a00000000000000000000000000000000000000000000000000000000081526004018080602001828103825260348152602001807f7061796d656e7420646f6573206e6f7420657869737420696e2074686520726581526020017f63697069656e74207061796d656e74206c69737400000000000000000000000081525060400191505060405180910390fd5b3391508173ffffffffffffffffffffffffffffffffffffffff1663521eb2736040518163ffffffff167c0100000000000000000000000000000000000000000000000000000000028152600401602060405180830381600087803b15801561293657600080fd5b505af115801561294a573d6000803e3d6000fd5b505050506040513d602081101561296057600080fd5b810190808051906020019092919050505073ffffffffffffffffffffffffffffffffffffffff1663beabacc88787876040518463ffffffff167c0100000000000000000000000000000000000000000000000000000000028152600401808473ffffffffffffffffffffffffffffffffffffffff1673ffffffffffffffffffffffffffffffffffffffff1681526020018373ffffffffffffffffffffffffffffffffffffffff1673ffffffffffffffffffffffffffffffffffffffff1681526020018281526020019350505050602060405180830381600087803b158015612a4757600080fd5b505af1158015612a5b573d6000803e3d6000fd5b505050506040513d6020811015612a7157600080fd5b810190808051906020019092919050505092508173ffffffffffffffffffffffffffffffffffffffff167f2dd2240a23ea416c5b90edc6772bb4cbbf7fe2247d579e88a246898cd27f2f64858560405180838152602001821515151581526020019250505060405180910390a250509392505050565b600260009054906101000a900473ffffffffffffffffffffffffffffffffffffffff1681565b6000600154141515612bad576040517f08c379a00000000000000000000000000000000000000000000000000000000081526004018080602001828103825260228152602001807f626c6f636b20637265617465642063616e206f6e6c7920626520736574206f6e81526020017f636500000000000000000000000000000000000000000000000000000000000081525060400191505060405180910390fd5b4360018190555033600260006101000a81548173ffffffffffffffffffffffffffffffffffffffff021916908373ffffffffffffffffffffffffffffffffffffffff160217905550806000806101000a81548173ffffffffffffffffffffffffffffffffffffffff021916908373ffffffffffffffffffffffffffffffffffffffff16021790555050565b6000600660008473ffffffffffffffffffffffffffffffffffffffff1673ffffffffffffffffffffffffffffffffffffffff16815260200190815260200160002073__ListLib_______________________________632b63aaef9091846040518363ffffffff167c0100000000000000000000000000000000000000000000000000000000028152600401808381526020018273ffffffffffffffffffffffffffffffffffffffff1673ffffffffffffffffffffffffffffffffffffffff1681526020019250505060206040518083038186803b158015612d1957600080fd5b505af4158015612d2d573d6000803e3d6000fd5b505050506040513d6020811015612d4357600080fd5b8101908080519060200190929190505050905092915050565b6000339050600760008273ffffffffffffffffffffffffffffffffffffffff1663521eb2736040518163ffffffff167c0100000000000000000000000000000000000000000000000000000000028152600401602060405180830381600087803b158015612dc957600080fd5b505af1158015612ddd573d6000803e3d6000fd5b505050506040513d6020811015612df357600080fd5b810190808051906020019092919050505073ffffffffffffffffffffffffffffffffffffffff1673ffffffffffffffffffffffffffffffffffffffff16815260200190815260200160002073__ListLib_______________________________63af9fe56b9091836040518363ffffffff167c0100000000000000000000000000000000000000000000000000000000028152600401808381526020018273ffffffffffffffffffffffffffffffffffffffff1673ffffffffffffffffffffffffffffffffffffffff1681526020019250505060206040518083038186803b158015612ede57600080fd5b505af4158015612ef2573d6000803e3d6000fd5b505050506040513d6020811015612f0857600080fd5b81019080805190602001909291905050501515612fb3576040517f08c379a00000000000000000000000000000000000000000000000000000000081526004018080602001828103825260318152602001807f6661696c656420746f2072656d6f7665207061796d656e742066726f6d20776181526020017f6c6c6574207061796d656e74206c69737400000000000000000000000000000081525060400191505060405180910390fd5b600660008273ffffffffffffffffffffffffffffffffffffffff166366d003ac6040518163ffffffff167c0100000000000000000000000000000000000000000000000000000000028152600401602060405180830381600087803b15801561301b57600080fd5b505af115801561302f573d6000803e3d6000fd5b505050506040513d602081101561304557600080fd5b810190808051906020019092919050505073ffffffffffffffffffffffffffffffffffffffff1673ffffffffffffffffffffffffffffffffffffffff16815260200190815260200160002073__ListLib_______________________________63af9fe56b9091836040518363ffffffff167c0100000000000000000000000000000000000000000000000000000000028152600401808381526020018273ffffffffffffffffffffffffffffffffffffffff1673ffffffffffffffffffffffffffffffffffffffff1681526020019250505060206040518083038186803b15801561313057600080fd5b505af4158015613144573d6000803e3d6000fd5b505050506040513d602081101561315a57600080fd5b81019080805190602001909291905050501515613205576040517f08c379a00000000000000000000000000000000000000000000000000000000081526004018080602001828103825260348152602001807f6661696c656420746f2072656d6f7665207061796d656e742066726f6d20726581526020017f63697069656e74207061796d656e74206c69737400000000000000000000000081525060400191505060405180910390fd5b8073ffffffffffffffffffffffffffffffffffffffff167f034bc3130a7ffc24d449116d1eaac102b50fc88f2ce34d6c9ce195b2aac92bd882604051808273ffffffffffffffffffffffffffffffffffffffff1673ffffffffffffffffffffffffffffffffffffffff16815260200191505060405180910390a250565b6000809054906101000a900473ffffffffffffffffffffffffffffffffffffffff1673ffffffffffffffffffffffffffffffffffffffff163373ffffffffffffffffffffffffffffffffffffffff161415156132dd57600080fd5b806000806101000a81548173ffffffffffffffffffffffffffffffffffffffff021916908373ffffffffffffffffffffffffffffffffffffffff16021790555050565b8073ffffffffffffffffffffffffffffffffffffffff1663521eb2736040518163ffffffff167c0100000000000000000000000000000000000000000000000000000000028152600401602060405180830381600087803b15801561338457600080fd5b505af1158015613398573d6000803e3d6000fd5b505050506040513d60208110156133ae57600080fd5b810190808051906020019092919050505073ffffffffffffffffffffffffffffffffffffffff166307779627336040518263ffffffff167c0100000000000000000000000000000000000000000000000000000000028152600401808273ffffffffffffffffffffffffffffffffffffffff1673ffffffffffffffffffffffffffffffffffffffff168152602001915050602060405180830381600087803b15801561345957600080fd5b505af115801561346d573d6000803e3d6000fd5b505050506040513d602081101561348357600080fd5b8101908080519060200190929190505050151561352e576040517f08c379a00000000000000000000000000000000000000000000000000000000081526004018080602001828103825260288152602001807f6f6e6c7920612064656c65676174652063616e20756e7363686564756c65206181526020017f207061796d656e7400000000000000000000000000000000000000000000000081525060400191505060405180910390fd5b600760008273ffffffffffffffffffffffffffffffffffffffff1663521eb2736040518163ffffffff167c0100000000000000000000000000000000000000000000000000000000028152600401602060405180830381600087803b15801561359657600080fd5b505af11580156135aa573d6000803e3d6000fd5b505050506040513d60208110156135c057600080fd5b810190808051906020019092919050505073ffffffffffffffffffffffffffffffffffffffff1673ffffffffffffffffffffffffffffffffffffffff16815260200190815260200160002073__ListLib_______________________________63af9fe56b9091836040518363ffffffff167c0100000000000000000000000000000000000000000000000000000000028152600401808381526020018273ffffffffffffffffffffffffffffffffffffffff1673ffffffffffffffffffffffffffffffffffffffff1681526020019250505060206040518083038186803b1580156136ab57600080fd5b505af41580156136bf573d6000803e3d6000fd5b505050506040513d60208110156136d557600080fd5b81019080805190602001909291905050501515613780576040517f08c379a00000000000000000000000000000000000000000000000000000000081526004018080602001828103825260318152602001807f6661696c656420746f2072656d6f7665207061796d656e742066726f6d20776181526020017f6c6c6574207061796d656e74206c69737400000000000000000000000000000081525060400191505060405180910390fd5b600660008273ffffffffffffffffffffffffffffffffffffffff166366d003ac6040518163ffffffff167c0100000000000000000000000000000000000000000000000000000000028152600401602060405180830381600087803b1580156137e857600080fd5b505af11580156137fc573d6000803e3d6000fd5b505050506040513d602081101561381257600080fd5b810190808051906020019092919050505073ffffffffffffffffffffffffffffffffffffffff1673ffffffffffffffffffffffffffffffffffffffff16815260200190815260200160002073__ListLib_______________________________63af9fe56b9091836040518363ffffffff167c0100000000000000000000000000000000000000000000000000000000028152600401808381526020018273ffffffffffffffffffffffffffffffffffffffff1673ffffffffffffffffffffffffffffffffffffffff1681526020019250505060206040518083038186803b1580156138fd57600080fd5b505af4158015613911573d6000803e3d6000fd5b505050506040513d602081101561392757600080fd5b810190808051906020019092919050505015156139d2576040517f08c379a00000000000000000000000000000000000000000000000000000000081526004018080602001828103825260348152602001807f6661696c656420746f2072656d6f7665207061796d656e742066726f6d20726581526020017f63697069656e74207061796d656e74206c69737400000000000000000000000081525060400191505060405180910390fd5b3373ffffffffffffffffffffffffffffffffffffffff167f034bc3130a7ffc24d449116d1eaac102b50fc88f2ce34d6c9ce195b2aac92bd882604051808273ffffffffffffffffffffffffffffffffffffffff1673ffffffffffffffffffffffffffffffffffffffff16815260200191505060405180910390a2505600a165627a7a72305820c8e16699dae899d91b37c6bdb87a73e1595b1cc94522175e4c38a98aed0428ca0029",
  "source": "pragma solidity ^0.4.23;\r\n\r\nimport \"../../external/Owned.sol\";\r\nimport \"../../libraries/ListLib.sol\";\r\nimport \"../../Interfaces.sol\";\r\n\r\ncontract PaymentDelegate is Owned, IPaymentDelegate, ITokenSender {\r\n\r\n    using ListLib for ListLib.AddressList;\r\n\r\n    uint public blockCreated;\r\n    address public factory;\r\n\r\n    ListLib.AddressList schedulers;\r\n\r\n    mapping (address => ListLib.AddressList) incoming;\r\n    mapping (address => ListLib.AddressList) outgoing;\r\n\r\n    function initialize (address _owner) public {\r\n        require(blockCreated == 0, \"block created can only be set once\");\r\n\r\n        blockCreated = block.number;\r\n        \r\n        factory = msg.sender;\r\n        owner = _owner;\r\n    }\r\n\r\n    function transfer (address token, address recipient, uint amount) public validPayment returns (bool success) {\r\n        IPayment payment = IPayment(msg.sender);\r\n        success = payment.wallet().transfer(token, recipient, amount);\r\n        emit Payment_event(payment, amount, success);\r\n    }\r\n\r\n    function execute () public validPayment returns (bool success) {\r\n        IPayment payment = IPayment(msg.sender);\r\n        uint paymentAmount = payment.amount();\r\n        success = payment.wallet().transfer(\r\n            payment.token(), \r\n            payment.recipient(), \r\n            paymentAmount\r\n        );\r\n\r\n        emit Payment_event(payment, paymentAmount, success);\r\n    }\r\n\r\n    function schedule (IPayment payment) public onlySchedulers {\r\n        require(outgoing[payment.wallet()].add(payment), \"failed to add payment to wallet payment list\");\r\n        require(incoming[payment.recipient()].add(payment), \"failed to add payment to recipient payment list\");\r\n\r\n        emit Schedule_event(msg.sender, payment.wallet(), payment.recipient(), payment);\r\n    }\r\n\r\n    function unschedule (IPayment payment) public {\r\n        require(payment.wallet().isDelegate(msg.sender), \"only a delegate can unschedule a payment\");\r\n        require(outgoing[payment.wallet()].remove(payment), \"failed to remove payment from wallet payment list\");\r\n        require(incoming[payment.recipient()].remove(payment), \"failed to remove payment from recipient payment list\");\r\n\r\n        emit Unschedule_event(msg.sender, payment);\r\n    }\r\n\r\n    function unschedule () public {\r\n        IPayment payment = IPayment(msg.sender);\r\n        require(outgoing[payment.wallet()].remove(payment), \"failed to remove payment from wallet payment list\");\r\n        require(incoming[payment.recipient()].remove(payment), \"failed to remove payment from recipient payment list\");\r\n\r\n        emit Unschedule_event(payment, payment);\r\n    }\r\n    \r\n    function getIncomingPayments (address recipient) public view returns (address[]) {\r\n        return incoming[recipient].get();\r\n    }\r\n\r\n    function getOutgoingPayments (IDelegatedWallet wallet) public view returns (address[]) {\r\n        return outgoing[wallet].get();\r\n    }\r\n    \r\n    function getTotalIncomingPayments (address recipient) public view returns (uint) {\r\n        return incoming[recipient].getLength();\r\n    }\r\n    \r\n    function getTotalOutgoingPayments (IDelegatedWallet wallet) public view returns (uint) {\r\n        return outgoing[wallet].getLength();\r\n    }\r\n\r\n    function getIncomingPaymentAtIndex (address recipient, uint i) public view returns (IPayment) {\r\n        return IPayment(incoming[recipient].index(i));\r\n    }\r\n\r\n    function getOutgoingPaymentAtIndex (IDelegatedWallet wallet, uint i) public view returns (IPayment) {\r\n        return IPayment(outgoing[wallet].index(i));\r\n    }\r\n\r\n    function recipientContainsPayment (address recipient, IPayment payment) public view returns (bool) {\r\n        return incoming[recipient].contains(payment);\r\n    }\r\n\r\n    function walletContainsPayment (address wallet, IPayment payment) public view returns (bool) {\r\n        return outgoing[wallet].contains(payment);\r\n    }\r\n\r\n    function addScheduler (address newScheduler) public onlyOwner returns (bool) {\r\n        return schedulers.add(newScheduler);\r\n    }\r\n    \r\n    function removeScheduler (address newScheduler) public onlyOwner returns (bool) {\r\n        return schedulers.remove(newScheduler);\r\n    }\r\n\r\n    function getSchedulers () public view returns (address[]) {\r\n        return schedulers.get();\r\n    }\r\n\r\n    modifier validPayment () {\r\n        IPayment payment = IPayment(msg.sender);\r\n        require(outgoing[payment.wallet()].contains(payment), \"payment does not exist in the wallet payment list\");\r\n        require(incoming[payment.recipient()].contains(payment), \"payment does not exist in the recipient payment list\");\r\n        _;\r\n    }\r\n\r\n    modifier onlySchedulers () {\r\n        require(schedulers.contains(msg.sender));\r\n        _;\r\n    }\r\n    \r\n    event Payment_event (IPayment indexed payment, uint amount, bool success);\r\n    event Schedule_event (address indexed scheduler, address indexed wallet, address indexed recipient, IPayment payment);\r\n    event Unschedule_event (address indexed caller, IPayment payment);\r\n\r\n}\r\n",
  "sourcePath": "C:\\Users\\My\\Documents\\GitHub\\everchain-project\\recurring-alarm-clock\\contracts\\components\\payment-delegate\\PaymentDelegate.sol",
  "compiler": {
    "name": "solc",
    "version": "0.4.24+commit.e67f0147.Emscripten.clang"
  },
  "schemaVersion": "2.0.1",
  "updatedAt": "2018-10-23T07:02:04.738Z"
}