{
  "contractName": "PaymentHub",
  "abi": [
    {
      "anonymous": false,
      "inputs": [
        {
          "indexed": true,
          "name": "payment",
          "type": "address"
        },
        {
          "indexed": true,
          "name": "recipient",
          "type": "address"
        }
      ],
      "name": "Register_event",
      "type": "event"
    },
    {
      "anonymous": false,
      "inputs": [
        {
          "indexed": true,
          "name": "payment",
          "type": "address"
        },
        {
          "indexed": true,
          "name": "recipient",
          "type": "address"
        }
      ],
      "name": "Unregister_event",
      "type": "event"
    },
    {
      "anonymous": false,
      "inputs": [
        {
          "indexed": false,
          "name": "ftx",
          "type": "address"
        },
        {
          "indexed": true,
          "name": "recipient",
          "type": "address"
        }
      ],
      "name": "Clear_event",
      "type": "event"
    },
    {
      "constant": false,
      "inputs": [
        {
          "name": "recipient",
          "type": "address"
        }
      ],
      "name": "register",
      "outputs": [
        {
          "name": "success",
          "type": "bool"
        }
      ],
      "payable": false,
      "stateMutability": "nonpayable",
      "type": "function"
    },
    {
      "constant": false,
      "inputs": [
        {
          "name": "recipient",
          "type": "address"
        }
      ],
      "name": "unregister",
      "outputs": [
        {
          "name": "success",
          "type": "bool"
        }
      ],
      "payable": false,
      "stateMutability": "nonpayable",
      "type": "function"
    },
    {
      "constant": false,
      "inputs": [
        {
          "name": "payment",
          "type": "address"
        }
      ],
      "name": "clear",
      "outputs": [
        {
          "name": "success",
          "type": "bool"
        }
      ],
      "payable": false,
      "stateMutability": "nonpayable",
      "type": "function"
    },
    {
      "constant": true,
      "inputs": [
        {
          "name": "recipient",
          "type": "address"
        }
      ],
      "name": "getIncomingPayments",
      "outputs": [
        {
          "name": "",
          "type": "address[]"
        }
      ],
      "payable": false,
      "stateMutability": "view",
      "type": "function"
    },
    {
      "constant": true,
      "inputs": [
        {
          "name": "recipient",
          "type": "address"
        }
      ],
      "name": "getTotalIncomingPayments",
      "outputs": [
        {
          "name": "",
          "type": "uint256"
        }
      ],
      "payable": false,
      "stateMutability": "view",
      "type": "function"
    },
    {
      "constant": true,
      "inputs": [
        {
          "name": "recipient",
          "type": "address"
        },
        {
          "name": "i",
          "type": "uint256"
        }
      ],
      "name": "getIncomingPaymentAtIndex",
      "outputs": [
        {
          "name": "",
          "type": "address"
        }
      ],
      "payable": false,
      "stateMutability": "view",
      "type": "function"
    },
    {
      "constant": true,
      "inputs": [
        {
          "name": "recipient",
          "type": "address"
        },
        {
          "name": "payment",
          "type": "address"
        }
      ],
      "name": "recipientContainsPayment",
      "outputs": [
        {
          "name": "",
          "type": "bool"
        }
      ],
      "payable": false,
      "stateMutability": "view",
      "type": "function"
    }
  ],
  "bytecode": "0x608060405234801561001057600080fd5b50610d1d806100206000396000f3fe608060405260043610610083576000357c0100000000000000000000000000000000000000000000000000000000900463ffffffff1680631cf7744814610088578063242cb3df146100ed5780632ec2c246146101885780633d0a4061146101f15780634408f9281461025a5780634420e48614610300578063da1bffa614610369575b600080fd5b34801561009457600080fd5b506100d7600480360360208110156100ab57600080fd5b81019080803573ffffffffffffffffffffffffffffffffffffffff1690602001909291905050506103f2565b6040518082815260200191505060405180910390f35b3480156100f957600080fd5b506101466004803603604081101561011057600080fd5b81019080803573ffffffffffffffffffffffffffffffffffffffff169060200190929190803590602001909291905050506104e0565b604051808273ffffffffffffffffffffffffffffffffffffffff1673ffffffffffffffffffffffffffffffffffffffff16815260200191505060405180910390f35b34801561019457600080fd5b506101d7600480360360208110156101ab57600080fd5b81019080803573ffffffffffffffffffffffffffffffffffffffff1690602001909291905050506105d7565b604051808215151515815260200191505060405180910390f35b3480156101fd57600080fd5b506102406004803603602081101561021457600080fd5b81019080803573ffffffffffffffffffffffffffffffffffffffff16906020019092919050505061075f565b604051808215151515815260200191505060405180910390f35b34801561026657600080fd5b506102a96004803603602081101561027d57600080fd5b81019080803573ffffffffffffffffffffffffffffffffffffffff169060200190929190505050610902565b6040518080602001828103825283818151815260200191508051906020019060200280838360005b838110156102ec5780820151818401526020810190506102d1565b505050509050019250505060405180910390f35b34801561030c57600080fd5b5061034f6004803603602081101561032357600080fd5b81019080803573ffffffffffffffffffffffffffffffffffffffff169060200190929190505050610a46565b604051808215151515815260200191505060405180910390f35b34801561037557600080fd5b506103d86004803603604081101561038c57600080fd5b81019080803573ffffffffffffffffffffffffffffffffffffffff169060200190929190803573ffffffffffffffffffffffffffffffffffffffff169060200190929190505050610bce565b604051808215151515815260200191505060405180910390f35b60008060008373ffffffffffffffffffffffffffffffffffffffff1673ffffffffffffffffffffffffffffffffffffffff16815260200190815260200160002073__AddressListLib________________________631ecb748690916040518263ffffffff167c01000000000000000000000000000000000000000000000000000000000281526004018082815260200191505060206040518083038186803b15801561049e57600080fd5b505af41580156104b2573d6000803e3d6000fd5b505050506040513d60208110156104c857600080fd5b81019080805190602001909291905050509050919050565b60008060008473ffffffffffffffffffffffffffffffffffffffff1673ffffffffffffffffffffffffffffffffffffffff16815260200190815260200160002073__AddressListLib________________________63492d214c9091846040518363ffffffff167c0100000000000000000000000000000000000000000000000000000000028152600401808381526020018281526020019250505060206040518083038186803b15801561059457600080fd5b505af41580156105a8573d6000803e3d6000fd5b505050506040513d60208110156105be57600080fd5b8101908080519060200190929190505050905092915050565b6000803390506000808473ffffffffffffffffffffffffffffffffffffffff1673ffffffffffffffffffffffffffffffffffffffff16815260200190815260200160002073__AddressListLib________________________636c11a8a39091836040518363ffffffff167c0100000000000000000000000000000000000000000000000000000000028152600401808381526020018273ffffffffffffffffffffffffffffffffffffffff1673ffffffffffffffffffffffffffffffffffffffff1681526020019250505060206040518083038186803b1580156106bb57600080fd5b505af41580156106cf573d6000803e3d6000fd5b505050506040513d60208110156106e557600080fd5b810190808051906020019092919050505091508115610759578273ffffffffffffffffffffffffffffffffffffffff168173ffffffffffffffffffffffffffffffffffffffff167fc4e3e1c0bf06296aec3bd78e8658e358b7397da9143472548493238caa81293a60405160405180910390a35b50919050565b60008060003373ffffffffffffffffffffffffffffffffffffffff1673ffffffffffffffffffffffffffffffffffffffff16815260200190815260200160002073__AddressListLib________________________636c11a8a39091846040518363ffffffff167c0100000000000000000000000000000000000000000000000000000000028152600401808381526020018273ffffffffffffffffffffffffffffffffffffffff1673ffffffffffffffffffffffffffffffffffffffff1681526020019250505060206040518083038186803b15801561083f57600080fd5b505af4158015610853573d6000803e3d6000fd5b505050506040513d602081101561086957600080fd5b8101908080519060200190929190505050905080156108fd573373ffffffffffffffffffffffffffffffffffffffff167f1145ab2523762d63e9c714ac17287a4d4d895cbe090cc44582ffc28e2f8737a783604051808273ffffffffffffffffffffffffffffffffffffffff1673ffffffffffffffffffffffffffffffffffffffff16815260200191505060405180910390a25b919050565b60606000808373ffffffffffffffffffffffffffffffffffffffff1673ffffffffffffffffffffffffffffffffffffffff16815260200190815260200160002073__AddressListLib________________________6330b05fbc90916040518263ffffffff167c01000000000000000000000000000000000000000000000000000000000281526004018082815260200191505060006040518083038186803b1580156109ae57600080fd5b505af41580156109c2573d6000803e3d6000fd5b505050506040513d6000823e3d601f19601f8201168201806040525060208110156109ec57600080fd5b810190808051640100000000811115610a0457600080fd5b82810190506020810184811115610a1a57600080fd5b8151856020820283011164010000000082111715610a3757600080fd5b50509291905050509050919050565b6000803390506000808473ffffffffffffffffffffffffffffffffffffffff1673ffffffffffffffffffffffffffffffffffffffff16815260200190815260200160002073__AddressListLib________________________6390c158cb9091836040518363ffffffff167c0100000000000000000000000000000000000000000000000000000000028152600401808381526020018273ffffffffffffffffffffffffffffffffffffffff1673ffffffffffffffffffffffffffffffffffffffff1681526020019250505060206040518083038186803b158015610b2a57600080fd5b505af4158015610b3e573d6000803e3d6000fd5b505050506040513d6020811015610b5457600080fd5b810190808051906020019092919050505091508115610bc8578273ffffffffffffffffffffffffffffffffffffffff168173ffffffffffffffffffffffffffffffffffffffff167f347b8ea0fe30e336623ec1c0be9f8df5d6c70d0077bd29c56d971c473372c31b60405160405180910390a35b50919050565b60008060008473ffffffffffffffffffffffffffffffffffffffff1673ffffffffffffffffffffffffffffffffffffffff16815260200190815260200160002073__AddressListLib________________________631a65cb959091846040518363ffffffff167c0100000000000000000000000000000000000000000000000000000000028152600401808381526020018273ffffffffffffffffffffffffffffffffffffffff1673ffffffffffffffffffffffffffffffffffffffff1681526020019250505060206040518083038186803b158015610cae57600080fd5b505af4158015610cc2573d6000803e3d6000fd5b505050506040513d6020811015610cd857600080fd5b810190808051906020019092919050505090509291505056fea165627a7a723058200fe798c0e54165b879541ca9dbadf079d87034140b339543ae72a2600474b4d20029",
  "source": "pragma solidity ^0.5.0;\n\nimport \"../external/AddressListLib.sol\";\nimport \"../Interfaces.sol\";\n\ncontract PaymentHub {\n\n    using AddressListLib for AddressListLib.AddressList;      // Import the data structure AddressList from the AddressListLib contract\n\n    mapping (address => AddressListLib.AddressList) incomingPaymentsFor;  // Incoming payments per account\n\n    function register (address recipient) public returns (bool success) {\n        IFutureTransaction payment = IFutureTransaction(msg.sender);\n        success = incomingPaymentsFor[recipient].add(address(payment));\n        if(success)\n            emit Register_event(payment, recipient);\n    }\n\n    function unregister (address recipient) public returns (bool success) {\n        IFutureTransaction payment = IFutureTransaction(msg.sender);\n        success = incomingPaymentsFor[recipient].remove(address(payment));\n        if(success)\n            emit Unregister_event(payment, recipient);\n    }\n\n    function clear (IFutureTransaction payment) public returns (bool success) {\n        success = incomingPaymentsFor[msg.sender].remove(address(payment));\n        if(success)\n            emit Clear_event(payment, msg.sender);\n    }\n\n    /// @notice Fetches the incoming payments of a given recipient\n    /// @param recipient The account to search\n    /// @return The list of incoming payments associated with the 'recipient'\n    function getIncomingPayments (address recipient) public view returns (address[] memory) {\n        return incomingPaymentsFor[recipient].get();\n    }\n\n    /// @notice Fetches the total number of incoming payments of a given recipient\n    /// @param recipient The account for which we are fetching the number of incoming payment\n    /// @return The number of incoming payments associated with the 'recipient'\n    function getTotalIncomingPayments (address recipient) public view returns (uint) {\n        return incomingPaymentsFor[recipient].getLength();\n    }\n\n    /// @notice Fetches the incoming payments of a given recipient at a given index\n    /// @param recipient The account to search\n    /// @param i The index of the payment to fetch\n    /// @return The incoming payment at index 'i'\n    function getIncomingPaymentAtIndex (address recipient, uint i) public view returns (IFutureTransaction) {\n        return IFutureTransaction(incomingPaymentsFor[recipient].index(i));\n    }\n\n    /// @notice Indicated whether an account currently is associated with an incoming payment\n    /// @param recipient The account to search\n    /// @param payment The payment to check for\n    /// @return True if the given 'recipient' contains the given 'payment'\n    function recipientContainsPayment (address recipient, IFutureTransaction payment) public view returns (bool) {\n        return incomingPaymentsFor[recipient].contains(address(payment));\n    }\n\n    event Register_event (IFutureTransaction indexed payment, address indexed recipient);\n    event Unregister_event (IFutureTransaction indexed payment, address indexed recipient);\n    event Clear_event(IFutureTransaction ftx, address indexed recipient);\n\n}\n\ncontract RecurringPayment is IPayment {\n\n}\n",
  "sourcePath": "/home/joe/Documents/github/everchain-project/recurring-transactions/contracts/delegates/RecurringPayments.sol",
  "compiler": {
    "name": "solc",
    "version": "0.5.0+commit.1d4f565a.Emscripten.clang"
  },
  "schemaVersion": "3.0.9",
  "updatedAt": "2019-05-14T22:16:21.106Z",
  "devdoc": {
    "methods": {
      "getIncomingPaymentAtIndex(address,uint256)": {
        "params": {
          "i": "The index of the payment to fetch",
          "recipient": "The account to search"
        },
        "return": "The incoming payment at index 'i'"
      },
      "getIncomingPayments(address)": {
        "params": {
          "recipient": "The account to search"
        },
        "return": "The list of incoming payments associated with the 'recipient'"
      },
      "getTotalIncomingPayments(address)": {
        "params": {
          "recipient": "The account for which we are fetching the number of incoming payment"
        },
        "return": "The number of incoming payments associated with the 'recipient'"
      },
      "recipientContainsPayment(address,address)": {
        "params": {
          "payment": "The payment to check for",
          "recipient": "The account to search"
        },
        "return": "True if the given 'recipient' contains the given 'payment'"
      }
    }
  },
  "userdoc": {
    "methods": {
      "getIncomingPaymentAtIndex(address,uint256)": {
        "notice": "Fetches the incoming payments of a given recipient at a given index"
      },
      "getIncomingPayments(address)": {
        "notice": "Fetches the incoming payments of a given recipient"
      },
      "getTotalIncomingPayments(address)": {
        "notice": "Fetches the total number of incoming payments of a given recipient"
      },
      "recipientContainsPayment(address,address)": {
        "notice": "Indicated whether an account currently is associated with an incoming payment"
      }
    }
  }
}