{
  "contractName": "PaymentDelegate",
  "abi": [
    {
      "constant": true,
      "inputs": [],
      "name": "blockCreated",
      "outputs": [
        {
          "name": "",
          "type": "uint256"
        }
      ],
      "payable": false,
      "stateMutability": "view",
      "type": "function"
    },
    {
      "constant": true,
      "inputs": [],
      "name": "owner",
      "outputs": [
        {
          "name": "",
          "type": "address"
        }
      ],
      "payable": false,
      "stateMutability": "view",
      "type": "function"
    },
    {
      "constant": false,
      "inputs": [
        {
          "name": "_newOwner",
          "type": "address"
        }
      ],
      "name": "transferOwnership",
      "outputs": [],
      "payable": false,
      "stateMutability": "nonpayable",
      "type": "function"
    },
    {
      "inputs": [
        {
          "name": "_owner",
          "type": "address"
        }
      ],
      "payable": false,
      "stateMutability": "nonpayable",
      "type": "constructor"
    },
    {
      "anonymous": false,
      "inputs": [
        {
          "indexed": true,
          "name": "payment",
          "type": "address"
        },
        {
          "indexed": false,
          "name": "amount",
          "type": "uint256"
        },
        {
          "indexed": false,
          "name": "success",
          "type": "bool"
        }
      ],
      "name": "Payment_event",
      "type": "event"
    },
    {
      "anonymous": false,
      "inputs": [
        {
          "indexed": false,
          "name": "payment",
          "type": "address"
        },
        {
          "indexed": true,
          "name": "wallet",
          "type": "address"
        }
      ],
      "name": "Schedule_event",
      "type": "event"
    },
    {
      "anonymous": false,
      "inputs": [
        {
          "indexed": false,
          "name": "payment",
          "type": "address"
        },
        {
          "indexed": true,
          "name": "caller",
          "type": "address"
        }
      ],
      "name": "Unschedule_event",
      "type": "event"
    },
    {
      "constant": false,
      "inputs": [],
      "name": "execute",
      "outputs": [
        {
          "name": "success",
          "type": "bool"
        }
      ],
      "payable": false,
      "stateMutability": "nonpayable",
      "type": "function"
    },
    {
      "constant": false,
      "inputs": [
        {
          "name": "payment",
          "type": "address"
        }
      ],
      "name": "schedule",
      "outputs": [],
      "payable": false,
      "stateMutability": "nonpayable",
      "type": "function"
    },
    {
      "constant": false,
      "inputs": [],
      "name": "unschedule",
      "outputs": [],
      "payable": false,
      "stateMutability": "nonpayable",
      "type": "function"
    },
    {
      "constant": false,
      "inputs": [
        {
          "name": "payment",
          "type": "address"
        }
      ],
      "name": "unschedule",
      "outputs": [],
      "payable": false,
      "stateMutability": "nonpayable",
      "type": "function"
    },
    {
      "constant": true,
      "inputs": [
        {
          "name": "wallet",
          "type": "address"
        }
      ],
      "name": "getPayments",
      "outputs": [
        {
          "name": "",
          "type": "address[]"
        }
      ],
      "payable": false,
      "stateMutability": "view",
      "type": "function"
    },
    {
      "constant": true,
      "inputs": [
        {
          "name": "wallet",
          "type": "address"
        }
      ],
      "name": "getTotalPayments",
      "outputs": [
        {
          "name": "",
          "type": "uint256"
        }
      ],
      "payable": false,
      "stateMutability": "view",
      "type": "function"
    },
    {
      "constant": true,
      "inputs": [
        {
          "name": "wallet",
          "type": "address"
        },
        {
          "name": "i",
          "type": "uint256"
        }
      ],
      "name": "getPaymentAtIndex",
      "outputs": [
        {
          "name": "",
          "type": "address"
        }
      ],
      "payable": false,
      "stateMutability": "view",
      "type": "function"
    },
    {
      "constant": true,
      "inputs": [
        {
          "name": "wallet",
          "type": "address"
        },
        {
          "name": "payment",
          "type": "address"
        }
      ],
      "name": "walletContainsPayment",
      "outputs": [
        {
          "name": "",
          "type": "bool"
        }
      ],
      "payable": false,
      "stateMutability": "view",
      "type": "function"
    }
  ],
  "bytecode": "0x608060405234801561001057600080fd5b5060405160208061189a8339810180604052602081101561003057600080fd5b8101908080519060200190929190505050336000806101000a81548173ffffffffffffffffffffffffffffffffffffffff021916908373ffffffffffffffffffffffffffffffffffffffff1602179055506000600154141515610121576040517f08c379a00000000000000000000000000000000000000000000000000000000081526004018080602001828103825260228152602001807f626c6f636b20637265617465642063616e206f6e6c7920626520736574206f6e81526020017f636500000000000000000000000000000000000000000000000000000000000081525060400191505060405180910390fd5b43600181905550806000806101000a81548173ffffffffffffffffffffffffffffffffffffffff021916908373ffffffffffffffffffffffffffffffffffffffff16021790555050611722806101786000396000f3fe6080604052600436106100af576000357c0100000000000000000000000000000000000000000000000000000000900463ffffffff1680631d6a1711146100b4578063316bef981461015a5780634d39ae47146101ab5780634e989a4c14610210578063614619541461023b5780638da5cb5b1461026a5780639ba00f0f146102c1578063a9f29c0b1461034a578063daf1548c146103e5578063f2fde38b146103fc578063f4c0f4131461044d575b600080fd5b3480156100c057600080fd5b50610103600480360360208110156100d757600080fd5b81019080803573ffffffffffffffffffffffffffffffffffffffff16906020019092919050505061049e565b6040518080602001828103825283818151815260200191508051906020019060200280838360005b8381101561014657808201518184015260208101905061012b565b505050509050019250505060405180910390f35b34801561016657600080fd5b506101a96004803603602081101561017d57600080fd5b81019080803573ffffffffffffffffffffffffffffffffffffffff1690602001909291905050506105e3565b005b3480156101b757600080fd5b506101fa600480360360208110156101ce57600080fd5b81019080803573ffffffffffffffffffffffffffffffffffffffff169060200190929190505050610878565b6040518082815260200191505060405180910390f35b34801561021c57600080fd5b50610225610967565b6040518082815260200191505060405180910390f35b34801561024757600080fd5b5061025061096d565b604051808215151515815260200191505060405180910390f35b34801561027657600080fd5b5061027f610fb1565b604051808273ffffffffffffffffffffffffffffffffffffffff1673ffffffffffffffffffffffffffffffffffffffff16815260200191505060405180910390f35b3480156102cd57600080fd5b50610330600480360360408110156102e457600080fd5b81019080803573ffffffffffffffffffffffffffffffffffffffff169060200190929190803573ffffffffffffffffffffffffffffffffffffffff169060200190929190505050610fd6565b604051808215151515815260200191505060405180910390f35b34801561035657600080fd5b506103a36004803603604081101561036d57600080fd5b81019080803573ffffffffffffffffffffffffffffffffffffffff169060200190929190803590602001909291905050506110fa565b604051808273ffffffffffffffffffffffffffffffffffffffff1673ffffffffffffffffffffffffffffffffffffffff16815260200191505060405180910390f35b3480156103f157600080fd5b506103fa6111f2565b005b34801561040857600080fd5b5061044b6004803603602081101561041f57600080fd5b81019080803573ffffffffffffffffffffffffffffffffffffffff169060200190929190505050611203565b005b34801561045957600080fd5b5061049c6004803603602081101561047057600080fd5b81019080803573ffffffffffffffffffffffffffffffffffffffff1690602001909291905050506112a1565b005b6060600260008373ffffffffffffffffffffffffffffffffffffffff1673ffffffffffffffffffffffffffffffffffffffff16815260200190815260200160002073__ListLib_______________________________6357abf55690916040518263ffffffff167c01000000000000000000000000000000000000000000000000000000000281526004018082815260200191505060006040518083038186803b15801561054b57600080fd5b505af415801561055f573d6000803e3d6000fd5b505050506040513d6000823e3d601f19601f82011682018060405250602081101561058957600080fd5b8101908080516401000000008111156105a157600080fd5b828101905060208101848111156105b757600080fd5b81518560208202830111640100000000821117156105d457600080fd5b50509291905050509050919050565b6000809054906101000a900473ffffffffffffffffffffffffffffffffffffffff1673ffffffffffffffffffffffffffffffffffffffff163373ffffffffffffffffffffffffffffffffffffffff1614151561063e57600080fd5b60008173ffffffffffffffffffffffffffffffffffffffff1663521eb2736040518163ffffffff167c010000000000000000000000000000000000000000000000000000000002815260040160206040518083038186803b1580156106a257600080fd5b505afa1580156106b6573d6000803e3d6000fd5b505050506040513d60208110156106cc57600080fd5b81019080805190602001909291905050509050600260008273ffffffffffffffffffffffffffffffffffffffff1673ffffffffffffffffffffffffffffffffffffffff16815260200190815260200160002073__ListLib_______________________________63a45c62aa9091846040518363ffffffff167c0100000000000000000000000000000000000000000000000000000000028152600401808381526020018273ffffffffffffffffffffffffffffffffffffffff1673ffffffffffffffffffffffffffffffffffffffff1681526020019250505060206040518083038186803b1580156107be57600080fd5b505af41580156107d2573d6000803e3d6000fd5b505050506040513d60208110156107e857600080fd5b8101908080519060200190929190505050508073ffffffffffffffffffffffffffffffffffffffff167f501bc89253dedaa79976a8ee719dad5a769c5613a0e93ff7c4fbadb01e197fee83604051808273ffffffffffffffffffffffffffffffffffffffff1673ffffffffffffffffffffffffffffffffffffffff16815260200191505060405180910390a25050565b6000600260008373ffffffffffffffffffffffffffffffffffffffff1673ffffffffffffffffffffffffffffffffffffffff16815260200190815260200160002073__ListLib_______________________________630faa9b9890916040518263ffffffff167c01000000000000000000000000000000000000000000000000000000000281526004018082815260200191505060206040518083038186803b15801561092557600080fd5b505af4158015610939573d6000803e3d6000fd5b505050506040513d602081101561094f57600080fd5b81019080805190602001909291905050509050919050565b60015481565b60008033905060008173ffffffffffffffffffffffffffffffffffffffff1663521eb2736040518163ffffffff167c010000000000000000000000000000000000000000000000000000000002815260040160206040518083038186803b1580156109d757600080fd5b505afa1580156109eb573d6000803e3d6000fd5b505050506040513d6020811015610a0157600080fd5b81019080805190602001909291905050509050600260008273ffffffffffffffffffffffffffffffffffffffff1673ffffffffffffffffffffffffffffffffffffffff16815260200190815260200160002073__ListLib_______________________________632b63aaef9091846040518363ffffffff167c0100000000000000000000000000000000000000000000000000000000028152600401808381526020018273ffffffffffffffffffffffffffffffffffffffff1673ffffffffffffffffffffffffffffffffffffffff1681526020019250505060206040518083038186803b158015610af357600080fd5b505af4158015610b07573d6000803e3d6000fd5b505050506040513d6020811015610b1d57600080fd5b81019080805190602001909291905050501515610bc8576040517f08c379a00000000000000000000000000000000000000000000000000000000081526004018080602001828103825260318152602001807f7061796d656e7420646f6573206e6f7420657869737420696e2074686520776181526020017f6c6c6574207061796d656e74206c69737400000000000000000000000000000081525060400191505060405180910390fd5b60008273ffffffffffffffffffffffffffffffffffffffff1663aa8c217c6040518163ffffffff167c010000000000000000000000000000000000000000000000000000000002815260040160206040518083038186803b158015610c2c57600080fd5b505afa158015610c40573d6000803e3d6000fd5b505050506040513d6020811015610c5657600080fd5b810190808051906020019092919050505090508273ffffffffffffffffffffffffffffffffffffffff1663521eb2736040518163ffffffff167c010000000000000000000000000000000000000000000000000000000002815260040160206040518083038186803b158015610ccb57600080fd5b505afa158015610cdf573d6000803e3d6000fd5b505050506040513d6020811015610cf557600080fd5b810190808051906020019092919050505073ffffffffffffffffffffffffffffffffffffffff1663beabacc88473ffffffffffffffffffffffffffffffffffffffff1663fc0c546a6040518163ffffffff167c010000000000000000000000000000000000000000000000000000000002815260040160206040518083038186803b158015610d8357600080fd5b505afa158015610d97573d6000803e3d6000fd5b505050506040513d6020811015610dad57600080fd5b81019080805190602001909291905050508573ffffffffffffffffffffffffffffffffffffffff166366d003ac6040518163ffffffff167c010000000000000000000000000000000000000000000000000000000002815260040160206040518083038186803b158015610e2057600080fd5b505afa158015610e34573d6000803e3d6000fd5b505050506040513d6020811015610e4a57600080fd5b8101908080519060200190929190505050846040518463ffffffff167c0100000000000000000000000000000000000000000000000000000000028152600401808473ffffffffffffffffffffffffffffffffffffffff1673ffffffffffffffffffffffffffffffffffffffff1681526020018373ffffffffffffffffffffffffffffffffffffffff1673ffffffffffffffffffffffffffffffffffffffff1681526020018281526020019350505050602060405180830381600087803b158015610f1457600080fd5b505af1158015610f28573d6000803e3d6000fd5b505050506040513d6020811015610f3e57600080fd5b810190808051906020019092919050505093508273ffffffffffffffffffffffffffffffffffffffff167f2dd2240a23ea416c5b90edc6772bb4cbbf7fe2247d579e88a246898cd27f2f64828660405180838152602001821515151581526020019250505060405180910390a250505090565b6000809054906101000a900473ffffffffffffffffffffffffffffffffffffffff1681565b6000600260008473ffffffffffffffffffffffffffffffffffffffff1673ffffffffffffffffffffffffffffffffffffffff16815260200190815260200160002073__ListLib_______________________________632b63aaef9091846040518363ffffffff167c0100000000000000000000000000000000000000000000000000000000028152600401808381526020018273ffffffffffffffffffffffffffffffffffffffff1673ffffffffffffffffffffffffffffffffffffffff1681526020019250505060206040518083038186803b1580156110b757600080fd5b505af41580156110cb573d6000803e3d6000fd5b505050506040513d60208110156110e157600080fd5b8101908080519060200190929190505050905092915050565b6000600260008473ffffffffffffffffffffffffffffffffffffffff1673ffffffffffffffffffffffffffffffffffffffff16815260200190815260200160002073__ListLib_______________________________63a544c2139091846040518363ffffffff167c0100000000000000000000000000000000000000000000000000000000028152600401808381526020018281526020019250505060206040518083038186803b1580156111af57600080fd5b505af41580156111c3573d6000803e3d6000fd5b505050506040513d60208110156111d957600080fd5b8101908080519060200190929190505050905092915050565b6000339050611200816114b7565b50565b6000809054906101000a900473ffffffffffffffffffffffffffffffffffffffff1673ffffffffffffffffffffffffffffffffffffffff163373ffffffffffffffffffffffffffffffffffffffff1614151561125e57600080fd5b806000806101000a81548173ffffffffffffffffffffffffffffffffffffffff021916908373ffffffffffffffffffffffffffffffffffffffff16021790555050565b8073ffffffffffffffffffffffffffffffffffffffff1663521eb2736040518163ffffffff167c010000000000000000000000000000000000000000000000000000000002815260040160206040518083038186803b15801561130357600080fd5b505afa158015611317573d6000803e3d6000fd5b505050506040513d602081101561132d57600080fd5b810190808051906020019092919050505073ffffffffffffffffffffffffffffffffffffffff166307779627336040518263ffffffff167c0100000000000000000000000000000000000000000000000000000000028152600401808273ffffffffffffffffffffffffffffffffffffffff1673ffffffffffffffffffffffffffffffffffffffff16815260200191505060206040518083038186803b1580156113d657600080fd5b505afa1580156113ea573d6000803e3d6000fd5b505050506040513d602081101561140057600080fd5b810190808051906020019092919050505015156114ab576040517f08c379a00000000000000000000000000000000000000000000000000000000081526004018080602001828103825260288152602001807f6f6e6c7920612064656c65676174652063616e20756e7363686564756c65206181526020017f207061796d656e7400000000000000000000000000000000000000000000000081525060400191505060405180910390fd5b6114b4816114b7565b50565b60008173ffffffffffffffffffffffffffffffffffffffff1663521eb2736040518163ffffffff167c010000000000000000000000000000000000000000000000000000000002815260040160206040518083038186803b15801561151b57600080fd5b505afa15801561152f573d6000803e3d6000fd5b505050506040513d602081101561154557600080fd5b81019080805190602001909291905050509050600260008273ffffffffffffffffffffffffffffffffffffffff1673ffffffffffffffffffffffffffffffffffffffff16815260200190815260200160002073__ListLib_______________________________63af9fe56b9091846040518363ffffffff167c0100000000000000000000000000000000000000000000000000000000028152600401808381526020018273ffffffffffffffffffffffffffffffffffffffff1673ffffffffffffffffffffffffffffffffffffffff1681526020019250505060206040518083038186803b15801561163757600080fd5b505af415801561164b573d6000803e3d6000fd5b505050506040513d602081101561166157600080fd5b8101908080519060200190929190505050156116f2578173ffffffffffffffffffffffffffffffffffffffff167f034bc3130a7ffc24d449116d1eaac102b50fc88f2ce34d6c9ce195b2aac92bd883604051808273ffffffffffffffffffffffffffffffffffffffff1673ffffffffffffffffffffffffffffffffffffffff16815260200191505060405180910390a25b505056fea165627a7a72305820810f27d891d2bd3428f643b498e7fa20986052b0c2934c5aa65f412e4e3e3e8a0029",
  "source": "pragma solidity ^0.5.0;\r\n\r\nimport \"../external/Owned.sol\";\r\nimport \"../external/ListLib.sol\";\r\nimport \"../Interfaces.sol\";\r\n\r\n/// @title PaymentDelegate Contract\r\n/// @author Joseph Reed\r\n/// @dev The PaymentDelegate handles executing payments on a delegated wallet. Only the owner can schedule payments\r\ncontract PaymentDelegate is Owned {\r\n\r\n    using ListLib for ListLib.AddressList;  // Import the data structure AddressList from the ListLib contract\r\n\r\n    uint public blockCreated;               // The block the payment delegate was deployed\r\n    \r\n    mapping (address => ListLib.AddressList) payments;  // The list of active alarm clocks for each account\r\n\r\n    /// @notice Initializes the payment delegate.\r\n    /// @param _owner The address with permission to schedule payments\r\n    constructor (address _owner) public {\r\n        require(blockCreated == 0, \"block created can only be set once\");\r\n\r\n        blockCreated = block.number;\r\n        \r\n        owner = _owner;\r\n    }\r\n\r\n    /// @notice Executes the payment associated with the address of 'msg.sender'\r\n    /// @return True if the payment executed successfully\r\n    function execute () public returns (bool success) {\r\n        IPayment payment = IPayment(msg.sender);\r\n        address wallet = address(payment.wallet());\r\n        require(payments[wallet].contains(address(payment)), \"payment does not exist in the wallet payment list\");\r\n\r\n        uint paymentAmount = payment.amount();\r\n        success = payment.wallet().transfer(\r\n            payment.token(), \r\n            payment.recipient(),\r\n            paymentAmount\r\n        );\r\n\r\n        emit Payment_event(payment, paymentAmount, success);\r\n    }\r\n\r\n    /// @notice Schedules a payment. Only callable by a trusted payment scheduler\r\n    /// @param payment The payment contract responsible for holding logic and data about the payment\r\n    function schedule (IPayment payment) public onlyOwner {\r\n        address wallet = address(payment.wallet());\r\n        payments[wallet].add(address(payment));\r\n\r\n        emit Schedule_event(payment, wallet);\r\n    }\r\n\r\n    /// @notice Unschedules a payment. Only callable by a delegate of the wallet supplied with the payment\r\n    /// @param payment The payment contract responsible for holding logic and data about the payment\r\n    function unschedule (IPayment payment) public {\r\n        require(payment.wallet().isDelegate(msg.sender), \"only a delegate can unschedule a payment\");\r\n\r\n        remove(payment);\r\n    }\r\n\r\n    /// @notice Unschedules a payment. Only callable by the payment contract\r\n    function unschedule () public {\r\n        IPayment payment = IPayment(msg.sender);\r\n        remove(payment);\r\n    }\r\n    \r\n    /// @notice Fetches the payments of a given wallet\r\n    /// @param wallet The account to search\r\n    /// @return The list of payments associated with the 'wallet'\r\n    function getPayments (address wallet) public view returns (address[] memory) {\r\n        return payments[wallet].get();\r\n    }\r\n    \r\n    /// @notice Fetches the total number of payments of a given wallet\r\n    /// @param wallet The account for which we are fetching the number of payment\r\n    /// @return The number of payments associated with the 'wallet'\r\n    function getTotalPayments (address wallet) public view returns (uint) {\r\n        return payments[wallet].getLength();\r\n    }\r\n\r\n    /// @notice Fetches the payments of a given wallet at a given index\r\n    /// @param wallet The account to search\r\n    /// @param i The index of the payment to fetch\r\n    /// @return The payment at index 'i'\r\n    function getPaymentAtIndex (address wallet, uint i) public view returns (address) {\r\n        return payments[wallet].index(i);\r\n    }\r\n\r\n    /// @notice Indicated whether an account currently is associated with an outgoing payment\r\n    /// @param wallet The account to search\r\n    /// @param payment The payment to check for\r\n    /// @return True if the given 'wallet' contains the given 'payment'\r\n    function walletContainsPayment (address wallet, IPayment payment) public view returns (bool) {\r\n        return payments[wallet].contains(address(payment));\r\n    }\r\n\r\n    /// @notice An internal function used for removing a payment from a wallet\r\n    /// @param payment The payment to remove from the payment wallet\r\n    function remove (IPayment payment) internal {\r\n        address wallet = address(payment.wallet());\r\n        if(payments[wallet].remove(address(payment)))\r\n            emit Unschedule_event(payment, address(payment));\r\n    }\r\n    \r\n    event Payment_event (IPayment indexed payment, uint amount, bool success);\r\n    event Schedule_event (IPayment payment, address indexed wallet);\r\n    event Unschedule_event (IPayment payment, address indexed caller);\r\n\r\n}\r\n",
  "sourcePath": "C:/Users/My/Documents/GitHub/everchain-project/recurring-alarm-clock/contracts/components/PaymentDelegate.sol",
  "compiler": {
    "name": "solc",
    "version": "0.5.0+commit.1d4f565a.Emscripten.clang"
  },
  "schemaVersion": "3.0.0-beta.2",
  "updatedAt": "2018-11-25T22:53:41.296Z",
  "devdoc": {
    "details": "The PaymentDelegate handles executing payments on a delegated wallet. Only the owner can schedule payments",
    "methods": {
      "constructor": {
        "params": {
          "_owner": "The address with permission to schedule payments"
        }
      },
      "execute()": {
        "return": "True if the payment executed successfully"
      },
      "getPaymentAtIndex(address,uint256)": {
        "return": "The payment at index 'i'"
      },
      "getPayments(address)": {
        "return": "The list of payments associated with the 'wallet'"
      },
      "getTotalPayments(address)": {
        "return": "The number of payments associated with the 'wallet'"
      },
      "schedule(address)": {
        "params": {
          "payment": "The payment contract responsible for holding logic and data about the payment"
        }
      },
      "unschedule(address)": {
        "params": {
          "payment": "The payment contract responsible for holding logic and data about the payment"
        }
      },
      "walletContainsPayment(address,address)": {
        "return": "True if the given 'wallet' contains the given 'payment'"
      }
    }
  },
  "userdoc": {
    "methods": {
      "unschedule()": {
        "notice": "Unschedules a payment. Only callable by the payment contract"
      }
    }
  }
}