{
  "contractName": "RecurringAlarmClockAssistant",
  "abi": [
    {
      "constant": true,
      "inputs": [],
      "name": "priorityCaller",
      "outputs": [
        {
          "name": "",
          "type": "address"
        }
      ],
      "payable": false,
      "stateMutability": "view",
      "type": "function"
    },
    {
      "constant": true,
      "inputs": [],
      "name": "owner",
      "outputs": [
        {
          "name": "",
          "type": "address"
        }
      ],
      "payable": false,
      "stateMutability": "view",
      "type": "function"
    },
    {
      "constant": true,
      "inputs": [],
      "name": "Factory",
      "outputs": [
        {
          "name": "",
          "type": "address"
        }
      ],
      "payable": false,
      "stateMutability": "view",
      "type": "function"
    },
    {
      "constant": true,
      "inputs": [],
      "name": "safetyMultiplier",
      "outputs": [
        {
          "name": "",
          "type": "uint256"
        }
      ],
      "payable": false,
      "stateMutability": "view",
      "type": "function"
    },
    {
      "constant": false,
      "inputs": [
        {
          "name": "_newOwner",
          "type": "address"
        }
      ],
      "name": "transferOwnership",
      "outputs": [],
      "payable": false,
      "stateMutability": "nonpayable",
      "type": "function"
    },
    {
      "inputs": [
        {
          "name": "everchain",
          "type": "address"
        },
        {
          "name": "factory",
          "type": "address"
        }
      ],
      "payable": false,
      "stateMutability": "nonpayable",
      "type": "constructor"
    },
    {
      "constant": false,
      "inputs": [
        {
          "name": "delegate",
          "type": "address"
        },
        {
          "name": "wallet",
          "type": "address"
        },
        {
          "name": "startTimestamp",
          "type": "uint256"
        },
        {
          "name": "totalPayments",
          "type": "uint256"
        },
        {
          "name": "period",
          "type": "uint256"
        },
        {
          "name": "gas",
          "type": "uint256"
        }
      ],
      "name": "createRecurringAlarmClock",
      "outputs": [
        {
          "name": "",
          "type": "address"
        }
      ],
      "payable": false,
      "stateMutability": "nonpayable",
      "type": "function"
    },
    {
      "constant": false,
      "inputs": [
        {
          "name": "newSafetyMultiplier",
          "type": "uint256"
        }
      ],
      "name": "updateSafetyMultiplier",
      "outputs": [],
      "payable": false,
      "stateMutability": "nonpayable",
      "type": "function"
    }
  ],
  "bytecode": "0x6080604052600160035534801561001557600080fd5b506040516040806108808339810180604052810190808051906020019092919080519060200190929190505050336000806101000a81548173ffffffffffffffffffffffffffffffffffffffff021916908373ffffffffffffffffffffffffffffffffffffffff16021790555081600260006101000a81548173ffffffffffffffffffffffffffffffffffffffff021916908373ffffffffffffffffffffffffffffffffffffffff16021790555080600160006101000a81548173ffffffffffffffffffffffffffffffffffffffff021916908373ffffffffffffffffffffffffffffffffffffffff160217905550505061076b806101156000396000f300608060405260043610610083576000357c0100000000000000000000000000000000000000000000000000000000900463ffffffff1680631fd3ea52146100885780638da5cb5b146100df578063c83dd23114610136578063d57f1d9b1461018d578063e05297cb146101b8578063ea7dca3d146101e5578063f2fde38b146102b0575b600080fd5b34801561009457600080fd5b5061009d6102f3565b604051808273ffffffffffffffffffffffffffffffffffffffff1673ffffffffffffffffffffffffffffffffffffffff16815260200191505060405180910390f35b3480156100eb57600080fd5b506100f4610319565b604051808273ffffffffffffffffffffffffffffffffffffffff1673ffffffffffffffffffffffffffffffffffffffff16815260200191505060405180910390f35b34801561014257600080fd5b5061014b61033e565b604051808273ffffffffffffffffffffffffffffffffffffffff1673ffffffffffffffffffffffffffffffffffffffff16815260200191505060405180910390f35b34801561019957600080fd5b506101a2610364565b6040518082815260200191505060405180910390f35b3480156101c457600080fd5b506101e36004803603810190808035906020019092919050505061036a565b005b3480156101f157600080fd5b5061026e600480360381019080803573ffffffffffffffffffffffffffffffffffffffff169060200190929190803573ffffffffffffffffffffffffffffffffffffffff169060200190929190803590602001909291908035906020019092919080359060200190929190803590602001909291905050506103cf565b604051808273ffffffffffffffffffffffffffffffffffffffff1673ffffffffffffffffffffffffffffffffffffffff16815260200191505060405180910390f35b3480156102bc57600080fd5b506102f1600480360381019080803573ffffffffffffffffffffffffffffffffffffffff16906020019092919050505061065a565b005b600260009054906101000a900473ffffffffffffffffffffffffffffffffffffffff1681565b6000809054906101000a900473ffffffffffffffffffffffffffffffffffffffff1681565b600160009054906101000a900473ffffffffffffffffffffffffffffffffffffffff1681565b60035481565b6000809054906101000a900473ffffffffffffffffffffffffffffffffffffffff1673ffffffffffffffffffffffffffffffffffffffff163373ffffffffffffffffffffffffffffffffffffffff161415156103c557600080fd5b8060038190555050565b60006103d96106f8565b6103e161071b565b606060405190810160405280600354815260200186815260200187815250915061014060405190810160405280610e10815260200160b4815260200161012c815260200160028152602001620151808152602001888152602001858152602001600081526020016000815260200160008152509050600160009054906101000a900473ffffffffffffffffffffffffffffffffffffffff1673ffffffffffffffffffffffffffffffffffffffff16637efecbd98a8a600260009054906101000a900473ffffffffffffffffffffffffffffffffffffffff1686866040518663ffffffff167c0100000000000000000000000000000000000000000000000000000000028152600401808673ffffffffffffffffffffffffffffffffffffffff1673ffffffffffffffffffffffffffffffffffffffff1681526020018573ffffffffffffffffffffffffffffffffffffffff1673ffffffffffffffffffffffffffffffffffffffff1681526020018473ffffffffffffffffffffffffffffffffffffffff1673ffffffffffffffffffffffffffffffffffffffff1681526020018060200184600360200280838360005b838110156105ab578082015181840152602081019050610590565b5050505090500183600a60200280838360005b838110156105d95780820151818401526020810190506105be565b505050509050018281038252600081526020016020019650505050505050602060405180830381600087803b15801561061157600080fd5b505af1158015610625573d6000803e3d6000fd5b505050506040513d602081101561063b57600080fd5b8101908080519060200190929190505050925050509695505050505050565b6000809054906101000a900473ffffffffffffffffffffffffffffffffffffffff1673ffffffffffffffffffffffffffffffffffffffff163373ffffffffffffffffffffffffffffffffffffffff161415156106b557600080fd5b806000806101000a81548173ffffffffffffffffffffffffffffffffffffffff021916908373ffffffffffffffffffffffffffffffffffffffff16021790555050565b606060405190810160405280600390602082028038833980820191505090505090565b61014060405190810160405280600a906020820280388339808201915050905050905600a165627a7a72305820fc04616c92d21447cd4a286dc2d4bf896077a859625776caccb730061dc3c68e0029",
  "source": "pragma solidity ^0.4.23;\r\n\r\nimport \"../external/Owned.sol\";\r\nimport \"../components/recurring-alarm-clock/RecurringAlarmClockFactory.sol\";\r\n\r\ncontract RecurringAlarmClockAssistant is Owned {\r\n    \r\n    RecurringAlarmClockFactory public Factory;\r\n    address public priorityCaller;\r\n    uint public safetyMultiplier = 1;\r\n\r\n    constructor (\r\n        address everchain, \r\n        RecurringAlarmClockFactory factory\r\n    ) public {\r\n        priorityCaller = everchain;\r\n        Factory = factory;\r\n    }\r\n\r\n    function createRecurringAlarmClock(\r\n        IPaymentDelegate delegate,\r\n        IDelegatedWallet wallet,\r\n        uint startTimestamp,\r\n        uint totalPayments,\r\n        uint period,\r\n        uint gas\r\n    ) public returns (RecurringAlarmClock) {\r\n        uint[3] memory recurringAlarmClockOptions = [\r\n            safetyMultiplier,\r\n            period,\r\n            totalPayments\r\n        ];\r\n\r\n        uint[10] memory ethereumAlarmClockOptions = [\r\n            60 minutes,     // claimWindowSize\r\n            3 minutes,      // freezePeriod\r\n            5 minutes,      // reservedWindowSize\r\n            2,              // 2 = Use timestamp based scheduling instead of blocks\r\n            24 hours,       // The size of the execution window\r\n            startTimestamp, // The start of the execution window\r\n            gas,            // The amount of gas to be sent with the transaction\r\n            0,              // The amount of ether to be sent\r\n            0,              // The minimum gas price for the alarm when called\r\n            0               // The required deposit by the claimer\r\n        ];\r\n        \r\n        return Factory.createRecurringAlarmClock(\r\n            delegate,\r\n            wallet,\r\n            priorityCaller,\r\n            \"\",\r\n            recurringAlarmClockOptions,\r\n            ethereumAlarmClockOptions\r\n        );\r\n    }\r\n\r\n    function updateSafetyMultiplier(uint newSafetyMultiplier) public onlyOwner {\r\n        safetyMultiplier = newSafetyMultiplier;\r\n    }\r\n\r\n}\r\n",
  "sourcePath": "C:\\Users\\My\\Documents\\GitHub\\everchain-project\\recurring-alarm-clock\\contracts\\examples\\RecurringAlarmClockAssistant.sol",
  "compiler": {
    "name": "solc",
    "version": "0.4.24+commit.e67f0147.Emscripten.clang"
  },
  "schemaVersion": "2.0.1",
  "updatedAt": "2018-10-23T07:02:04.646Z"
}