{
  "contractName": "RecurringTransactionDeployer",
  "abi": [
    {
      "constant": true,
      "inputs": [
        {
          "name": "",
          "type": "uint256"
        }
      ],
      "name": "defaultLimits",
      "outputs": [
        {
          "name": "",
          "type": "uint256"
        }
      ],
      "payable": false,
      "stateMutability": "view",
      "type": "function",
      "signature": "0x3cc554b2"
    },
    {
      "constant": true,
      "inputs": [],
      "name": "blockCreated",
      "outputs": [
        {
          "name": "",
          "type": "uint256"
        }
      ],
      "payable": false,
      "stateMutability": "view",
      "type": "function",
      "signature": "0x4e989a4c"
    },
    {
      "constant": true,
      "inputs": [],
      "name": "defaultCaller",
      "outputs": [
        {
          "name": "",
          "type": "address"
        }
      ],
      "payable": false,
      "stateMutability": "view",
      "type": "function",
      "signature": "0x6426d5bc"
    },
    {
      "constant": true,
      "inputs": [],
      "name": "defaultOracle",
      "outputs": [
        {
          "name": "",
          "type": "address"
        }
      ],
      "payable": false,
      "stateMutability": "view",
      "type": "function",
      "signature": "0x80dce169"
    },
    {
      "constant": true,
      "inputs": [],
      "name": "owner",
      "outputs": [
        {
          "name": "",
          "type": "address"
        }
      ],
      "payable": false,
      "stateMutability": "view",
      "type": "function",
      "signature": "0x8da5cb5b"
    },
    {
      "constant": true,
      "inputs": [],
      "name": "defaultFactory",
      "outputs": [
        {
          "name": "",
          "type": "address"
        }
      ],
      "payable": false,
      "stateMutability": "view",
      "type": "function",
      "signature": "0xd4b6846d"
    },
    {
      "constant": false,
      "inputs": [
        {
          "name": "_newOwner",
          "type": "address"
        }
      ],
      "name": "transferOwnership",
      "outputs": [],
      "payable": false,
      "stateMutability": "nonpayable",
      "type": "function",
      "signature": "0xf2fde38b"
    },
    {
      "inputs": [
        {
          "name": "_defaultPaymentDelegate",
          "type": "address"
        },
        {
          "name": "_defaultFactory",
          "type": "address"
        },
        {
          "name": "_defaultOracle",
          "type": "address"
        }
      ],
      "payable": false,
      "stateMutability": "nonpayable",
      "type": "constructor",
      "signature": "constructor"
    },
    {
      "anonymous": false,
      "inputs": [
        {
          "indexed": true,
          "name": "caller",
          "type": "address"
        },
        {
          "indexed": false,
          "name": "rtx",
          "type": "address"
        }
      ],
      "name": "Deploy_event",
      "type": "event",
      "signature": "0xfd1b49d61ae2fe543e12f32cb6d5e208848407b7c6f0abfef297d02839437dd2"
    },
    {
      "constant": false,
      "inputs": [
        {
          "name": "newDefaultOracle",
          "type": "address"
        }
      ],
      "name": "setDefaultOracle",
      "outputs": [],
      "payable": false,
      "stateMutability": "nonpayable",
      "type": "function",
      "signature": "0xc44014d2"
    },
    {
      "constant": false,
      "inputs": [
        {
          "name": "newDefaultCaller",
          "type": "address"
        }
      ],
      "name": "setDefaultCaller",
      "outputs": [],
      "payable": false,
      "stateMutability": "nonpayable",
      "type": "function",
      "signature": "0xad24ea65"
    },
    {
      "constant": false,
      "inputs": [
        {
          "name": "wallet",
          "type": "address"
        }
      ],
      "name": "deploy",
      "outputs": [
        {
          "name": "rtx",
          "type": "address"
        }
      ],
      "payable": false,
      "stateMutability": "nonpayable",
      "type": "function",
      "signature": "0x4c96a389"
    },
    {
      "constant": false,
      "inputs": [
        {
          "name": "wallet",
          "type": "address"
        },
        {
          "name": "callAddress",
          "type": "address"
        },
        {
          "name": "callData",
          "type": "bytes"
        },
        {
          "name": "callOptions",
          "type": "uint256[7]"
        }
      ],
      "name": "deployAndStart",
      "outputs": [
        {
          "name": "rtx",
          "type": "address"
        }
      ],
      "payable": false,
      "stateMutability": "nonpayable",
      "type": "function",
      "signature": "0xb075c72a"
    }
  ],
  "bytecode": "0x60806040524360015534801561001457600080fd5b506040516060806115b48339810180604052606081101561003457600080fd5b81019080805190602001909291908051906020019092919080519060200190929190505050336000806101000a81548173ffffffffffffffffffffffffffffffffffffffff021916908373ffffffffffffffffffffffffffffffffffffffff16021790555082600260006101000a81548173ffffffffffffffffffffffffffffffffffffffff021916908373ffffffffffffffffffffffffffffffffffffffff16021790555081600360006101000a81548173ffffffffffffffffffffffffffffffffffffffff021916908373ffffffffffffffffffffffffffffffffffffffff16021790555080600460006101000a81548173ffffffffffffffffffffffffffffffffffffffff021916908373ffffffffffffffffffffffffffffffffffffffff16021790555033600560006101000a81548173ffffffffffffffffffffffffffffffffffffffff021916908373ffffffffffffffffffffffffffffffffffffffff160217905550610e10600660006003811015156101b057fe5b018190555060b4600660016003811015156101c757fe5b018190555061012c600660026003811015156101df57fe5b01819055505050506113be806101f66000396000f3fe6080604052600436106100af576000357c0100000000000000000000000000000000000000000000000000000000900463ffffffff1680633cc554b2146100b45780634c96a389146101035780634e989a4c146101945780636426d5bc146101bf57806380dce169146102165780638da5cb5b1461026d578063ad24ea65146102c4578063b075c72a14610315578063c44014d21461049f578063d4b6846d146104f0578063f2fde38b14610547575b600080fd5b3480156100c057600080fd5b506100ed600480360360208110156100d757600080fd5b8101908080359060200190929190505050610598565b6040518082815260200191505060405180910390f35b34801561010f57600080fd5b506101526004803603602081101561012657600080fd5b81019080803573ffffffffffffffffffffffffffffffffffffffff1690602001909291905050506105b2565b604051808273ffffffffffffffffffffffffffffffffffffffff1673ffffffffffffffffffffffffffffffffffffffff16815260200191505060405180910390f35b3480156101a057600080fd5b506101a9610b43565b6040518082815260200191505060405180910390f35b3480156101cb57600080fd5b506101d4610b49565b604051808273ffffffffffffffffffffffffffffffffffffffff1673ffffffffffffffffffffffffffffffffffffffff16815260200191505060405180910390f35b34801561022257600080fd5b5061022b610b6f565b604051808273ffffffffffffffffffffffffffffffffffffffff1673ffffffffffffffffffffffffffffffffffffffff16815260200191505060405180910390f35b34801561027957600080fd5b50610282610b95565b604051808273ffffffffffffffffffffffffffffffffffffffff1673ffffffffffffffffffffffffffffffffffffffff16815260200191505060405180910390f35b3480156102d057600080fd5b50610313600480360360208110156102e757600080fd5b81019080803573ffffffffffffffffffffffffffffffffffffffff169060200190929190505050610bba565b005b34801561032157600080fd5b5061045d600480360361014081101561033957600080fd5b81019080803573ffffffffffffffffffffffffffffffffffffffff169060200190929190803573ffffffffffffffffffffffffffffffffffffffff1690602001909291908035906020019064010000000081111561039657600080fd5b8201836020820111156103a857600080fd5b803590602001918460018302840111640100000000831117156103ca57600080fd5b91908080601f016020809104026020016040519081016040528093929190818152602001838380828437600081840152601f19601f8201169050808301925050505050505091929192908060e001906007806020026040519081016040528092919082600760200280828437600081840152601f19601f8201169050808301925050505050509192919290505050610c59565b604051808273ffffffffffffffffffffffffffffffffffffffff1673ffffffffffffffffffffffffffffffffffffffff16815260200191505060405180910390f35b3480156104ab57600080fd5b506104ee600480360360208110156104c257600080fd5b81019080803573ffffffffffffffffffffffffffffffffffffffff16906020019092919050505061122f565b005b3480156104fc57600080fd5b506105056112ce565b604051808273ffffffffffffffffffffffffffffffffffffffff1673ffffffffffffffffffffffffffffffffffffffff16815260200191505060405180910390f35b34801561055357600080fd5b506105966004803603602081101561056a57600080fd5b81019080803573ffffffffffffffffffffffffffffffffffffffff1690602001909291905050506112f4565b005b6006816003811015156105a757fe5b016000915090505481565b60008173ffffffffffffffffffffffffffffffffffffffff166307779627336040518263ffffffff167c0100000000000000000000000000000000000000000000000000000000028152600401808273ffffffffffffffffffffffffffffffffffffffff1673ffffffffffffffffffffffffffffffffffffffff16815260200191505060206040518083038186803b15801561064d57600080fd5b505afa158015610661573d6000803e3d6000fd5b505050506040513d602081101561067757600080fd5b81019080805190602001909291905050501515610722576040517f08c379a00000000000000000000000000000000000000000000000000000000081526004018080602001828103825260248152602001807f7468652063616c6c6572206d75737420626520612077616c6c65742064656c6581526020017f676174650000000000000000000000000000000000000000000000000000000081525060400191505060405180910390fd5b600360009054906101000a900473ffffffffffffffffffffffffffffffffffffffff1673ffffffffffffffffffffffffffffffffffffffff16633e68680a83600260009054906101000a900473ffffffffffffffffffffffffffffffffffffffff166040518363ffffffff167c0100000000000000000000000000000000000000000000000000000000028152600401808373ffffffffffffffffffffffffffffffffffffffff1673ffffffffffffffffffffffffffffffffffffffff1681526020018273ffffffffffffffffffffffffffffffffffffffff1673ffffffffffffffffffffffffffffffffffffffff16815260200192505050602060405180830381600087803b15801561083557600080fd5b505af1158015610849573d6000803e3d6000fd5b505050506040513d602081101561085f57600080fd5b810190808051906020019092919050505090508073ffffffffffffffffffffffffffffffffffffffff16633c2d7ec860066040518263ffffffff167c01000000000000000000000000000000000000000000000000000000000281526004018082600380156108e3576020028201915b8154815260200190600101908083116108cf575b5050915050600060405180830381600087803b15801561090257600080fd5b505af1158015610916573d6000803e3d6000fd5b505050508073ffffffffffffffffffffffffffffffffffffffff1663a4d0c0a9600460009054906101000a900473ffffffffffffffffffffffffffffffffffffffff166040518263ffffffff167c0100000000000000000000000000000000000000000000000000000000028152600401808273ffffffffffffffffffffffffffffffffffffffff1673ffffffffffffffffffffffffffffffffffffffff168152602001915050600060405180830381600087803b1580156109d757600080fd5b505af11580156109eb573d6000803e3d6000fd5b505050508073ffffffffffffffffffffffffffffffffffffffff1663ff080651600560009054906101000a900473ffffffffffffffffffffffffffffffffffffffff166040518263ffffffff167c0100000000000000000000000000000000000000000000000000000000028152600401808273ffffffffffffffffffffffffffffffffffffffff1673ffffffffffffffffffffffffffffffffffffffff168152602001915050600060405180830381600087803b158015610aac57600080fd5b505af1158015610ac0573d6000803e3d6000fd5b505050503373ffffffffffffffffffffffffffffffffffffffff167ffd1b49d61ae2fe543e12f32cb6d5e208848407b7c6f0abfef297d02839437dd282604051808273ffffffffffffffffffffffffffffffffffffffff1673ffffffffffffffffffffffffffffffffffffffff16815260200191505060405180910390a2919050565b60015481565b600560009054906101000a900473ffffffffffffffffffffffffffffffffffffffff1681565b600460009054906101000a900473ffffffffffffffffffffffffffffffffffffffff1681565b6000809054906101000a900473ffffffffffffffffffffffffffffffffffffffff1681565b6000809054906101000a900473ffffffffffffffffffffffffffffffffffffffff1673ffffffffffffffffffffffffffffffffffffffff163373ffffffffffffffffffffffffffffffffffffffff16141515610c1557600080fd5b80600560006101000a81548173ffffffffffffffffffffffffffffffffffffffff021916908373ffffffffffffffffffffffffffffffffffffffff16021790555050565b60008473ffffffffffffffffffffffffffffffffffffffff166307779627336040518263ffffffff167c0100000000000000000000000000000000000000000000000000000000028152600401808273ffffffffffffffffffffffffffffffffffffffff1673ffffffffffffffffffffffffffffffffffffffff16815260200191505060206040518083038186803b158015610cf457600080fd5b505afa158015610d08573d6000803e3d6000fd5b505050506040513d6020811015610d1e57600080fd5b81019080805190602001909291905050501515610dc9576040517f08c379a00000000000000000000000000000000000000000000000000000000081526004018080602001828103825260248152602001807f7468652063616c6c6572206d75737420626520612077616c6c65742064656c6581526020017f676174650000000000000000000000000000000000000000000000000000000081525060400191505060405180910390fd5b8473ffffffffffffffffffffffffffffffffffffffff166307779627600260009054906101000a900473ffffffffffffffffffffffffffffffffffffffff166040518263ffffffff167c0100000000000000000000000000000000000000000000000000000000028152600401808273ffffffffffffffffffffffffffffffffffffffff1673ffffffffffffffffffffffffffffffffffffffff16815260200191505060206040518083038186803b158015610e8457600080fd5b505afa158015610e98573d6000803e3d6000fd5b505050506040513d6020811015610eae57600080fd5b81019080805190602001909291905050501515610f59576040517f08c379a00000000000000000000000000000000000000000000000000000000081526004018080602001828103825260368152602001807f7468652064656661756c74207061796d656e742064656c6567617465206d757381526020017f7420626520612077616c6c65742064656c65676174650000000000000000000081525060400191505060405180910390fd5b610f62856105b2565b9050600260009054906101000a900473ffffffffffffffffffffffffffffffffffffffff1673ffffffffffffffffffffffffffffffffffffffff1663316bef98826040518263ffffffff167c0100000000000000000000000000000000000000000000000000000000028152600401808273ffffffffffffffffffffffffffffffffffffffff1673ffffffffffffffffffffffffffffffffffffffff168152602001915050602060405180830381600087803b15801561102157600080fd5b505af1158015611035573d6000803e3d6000fd5b505050506040513d602081101561104b57600080fd5b8101908080519060200190929190505050508073ffffffffffffffffffffffffffffffffffffffff166346b9c7b08585856040518463ffffffff167c0100000000000000000000000000000000000000000000000000000000028152600401808473ffffffffffffffffffffffffffffffffffffffff1673ffffffffffffffffffffffffffffffffffffffff1681526020018060200183600760200280838360005b838110156111085780820151818401526020810190506110ed565b50505050905001828103825284818151815260200191508051906020019080838360005b8381101561114757808201518184015260208101905061112c565b50505050905090810190601f1680156111745780820380516001836020036101000a031916815260200191505b50945050505050600060405180830381600087803b15801561119557600080fd5b505af11580156111a9573d6000803e3d6000fd5b505050503373ffffffffffffffffffffffffffffffffffffffff167ffd1b49d61ae2fe543e12f32cb6d5e208848407b7c6f0abfef297d02839437dd282604051808273ffffffffffffffffffffffffffffffffffffffff1673ffffffffffffffffffffffffffffffffffffffff16815260200191505060405180910390a2949350505050565b6000809054906101000a900473ffffffffffffffffffffffffffffffffffffffff1673ffffffffffffffffffffffffffffffffffffffff163373ffffffffffffffffffffffffffffffffffffffff1614151561128a57600080fd5b80600460006101000a81548173ffffffffffffffffffffffffffffffffffffffff021916908373ffffffffffffffffffffffffffffffffffffffff16021790555050565b600360009054906101000a900473ffffffffffffffffffffffffffffffffffffffff1681565b6000809054906101000a900473ffffffffffffffffffffffffffffffffffffffff1673ffffffffffffffffffffffffffffffffffffffff163373ffffffffffffffffffffffffffffffffffffffff1614151561134f57600080fd5b806000806101000a81548173ffffffffffffffffffffffffffffffffffffffff021916908373ffffffffffffffffffffffffffffffffffffffff1602179055505056fea165627a7a72305820eb5d3dadfac239c8f38d7c33c37c9e5ffca11c406b78da03de83792a581647030029",
  "source": "pragma solidity ^0.5.0;\n\nimport \"./RecurringTransactionFactory.sol\";\nimport \"./GasPriceOracle.sol\";\nimport \"./PaymentDelegate.sol\";\n\n/// @title RecurringTransactionDeployer\n/// @author Joseph Reed\n/// @dev This contract's goal is to make it super easy to create a recurring transaction by setting several default values\ncontract RecurringTransactionDeployer is Owned {\n\n    uint public blockCreated = block.number;\n    \n    DecentralizedPaymentDelegate defaultPaymentDelegate;\n    RecurringTransactionFactory public defaultFactory;\n    GasPriceOracle public defaultOracle;\n    address public defaultCaller;\n    uint[3] public defaultLimits;\n\n    /// @notice Constructor to create a smart contract which aids in creating a recurring transaction\n    /// @param _defaultPaymentDelegate The default payment delegate contract responsible for handling payments\n    /// @param _defaultFactory The default factory contract responsible for deploying decentralized transactions\n    /// @param _defaultOracle The default gas price oracle responsible for predicting future gas costs\n    constructor (\n        DecentralizedPaymentDelegate _defaultPaymentDelegate,\n        RecurringTransactionFactory _defaultFactory,\n        GasPriceOracle _defaultOracle\n    ) public {\n        defaultPaymentDelegate = _defaultPaymentDelegate;\n        defaultFactory = _defaultFactory;\n        defaultOracle = _defaultOracle;\n        defaultCaller = msg.sender;\n        \n        defaultLimits[0] = 60 minutes;  // claimWindowSize\n        defaultLimits[1] = 3 minutes;   // freezeIntervalDuration\n        defaultLimits[2] = 5 minutes;   // reservedWindowSize\n    }\n\n    function setDefaultOracle (GasPriceOracle newDefaultOracle) public onlyOwner {\n        defaultOracle = newDefaultOracle;\n    }\n\n    function setDefaultCaller (address newDefaultCaller) public onlyOwner {\n        defaultCaller = newDefaultCaller;\n    }\n\n    /// @notice Creates a recurring transaction belonging to the specified wallet\n    /// @param wallet The funding wallet, change address, and owner of the deployed alarms\n    /// @return The recurring transaction contract address\n    function deploy (IDelegatedWallet wallet) public returns (RecurringTransaction rtx) {\n        require(wallet.isDelegate(msg.sender), \"the caller must be a wallet delegate\");\n        \n        rtx = defaultFactory.create(wallet, defaultPaymentDelegate);\n        rtx.setExecutionLimits(defaultLimits);\n        rtx.setGasPriceOracle(defaultOracle);\n        rtx.setPriorityCaller(defaultCaller);\n\n        emit Deploy_event(msg.sender, address(rtx));\n    }\n\n    /// @notice Creates and starts a recurring transaction belonging to the specified wallet with the specified call options\n    /// @param wallet The funding wallet, change address, and owner of the deployed alarms\n    /// @param callAddress The address the transaction will call each time it is triggered\n    /// @param callData The data the transaction will send with the call\n    /// @param callOptions The options defining how and when to trigger the transaction\n    ///        [callValue, callGas, startTimestamp, windowSize, intervalValue, intervalUnit, maxIntervals]\n    /// @return The recurring transaction contract address\n    function deployAndStart (\n        IDelegatedWallet wallet,\n        address payable callAddress,\n        bytes memory callData,\n        uint[7] memory callOptions\n    ) public returns (RecurringTransaction rtx) {\n        require(wallet.isDelegate(msg.sender), \"the caller must be a wallet delegate\");\n        require(wallet.isDelegate(address(defaultPaymentDelegate)), \"the default payment delegate must be a wallet delegate\");\n\n        rtx = deploy(wallet);\n        defaultPaymentDelegate.schedule(rtx);\n        rtx.start(callAddress, callData, callOptions);\n\n        emit Deploy_event(msg.sender, address(rtx));\n    }    \n\n    event Deploy_event(address indexed caller, address rtx);\n\n}\n",
  "sourcePath": "/home/joe/Documents/github/everchain-project/recurring-transactions/contracts/RecurringTransactionDeployer.sol",
  "compiler": {
    "name": "solc",
    "version": "0.5.0+commit.1d4f565a.Emscripten.clang"
  },
  "schemaVersion": "3.0.1",
  "updatedAt": "2019-02-20T06:34:10.883Z",
  "devdoc": {
    "author": "Joseph Reed",
    "details": "This contract's goal is to make it super easy to create a recurring transaction by setting several default values",
    "methods": {
      "constructor": {
        "params": {
          "_defaultFactory": "The default factory contract responsible for deploying decentralized transactions",
          "_defaultOracle": "The default gas price oracle responsible for predicting future gas costs",
          "_defaultPaymentDelegate": "The default payment delegate contract responsible for handling payments"
        }
      },
      "deploy(address)": {
        "params": {
          "wallet": "The funding wallet, change address, and owner of the deployed alarms"
        },
        "return": "The recurring transaction contract address"
      },
      "deployAndStart(address,address,bytes,uint256[7])": {
        "params": {
          "callAddress": "The address the transaction will call each time it is triggered",
          "callData": "The data the transaction will send with the call",
          "callOptions": "The options defining how and when to trigger the transaction        [callValue, callGas, startTimestamp, windowSize, intervalValue, intervalUnit, maxIntervals]",
          "wallet": "The funding wallet, change address, and owner of the deployed alarms"
        },
        "return": "The recurring transaction contract address"
      }
    },
    "title": "RecurringTransactionDeployer"
  },
  "userdoc": {
    "methods": {
      "constructor": "Constructor to create a smart contract which aids in creating a recurring transaction",
      "deploy(address)": {
        "notice": "Creates a recurring transaction belonging to the specified wallet"
      },
      "deployAndStart(address,address,bytes,uint256[7])": {
        "notice": "Creates and starts a recurring transaction belonging to the specified wallet with the specified call options"
      }
    }
  }
}