{
  "contractName": "RecurringAlarmClock",
  "abi": [
    {
      "constant": true,
      "inputs": [],
      "name": "priorityCaller",
      "outputs": [
        {
          "name": "",
          "type": "address"
        }
      ],
      "payable": false,
      "stateMutability": "view",
      "type": "function"
    },
    {
      "constant": true,
      "inputs": [],
      "name": "task",
      "outputs": [
        {
          "name": "",
          "type": "address"
        }
      ],
      "payable": false,
      "stateMutability": "view",
      "type": "function"
    },
    {
      "constant": true,
      "inputs": [],
      "name": "blockStarted",
      "outputs": [
        {
          "name": "",
          "type": "uint256"
        }
      ],
      "payable": false,
      "stateMutability": "view",
      "type": "function"
    },
    {
      "constant": true,
      "inputs": [],
      "name": "currentInterval",
      "outputs": [
        {
          "name": "",
          "type": "uint256"
        }
      ],
      "payable": false,
      "stateMutability": "view",
      "type": "function"
    },
    {
      "constant": true,
      "inputs": [
        {
          "name": "",
          "type": "uint256"
        }
      ],
      "name": "eacOptions",
      "outputs": [
        {
          "name": "",
          "type": "uint256"
        }
      ],
      "payable": false,
      "stateMutability": "view",
      "type": "function"
    },
    {
      "constant": true,
      "inputs": [],
      "name": "eac",
      "outputs": [
        {
          "name": "",
          "type": "address"
        }
      ],
      "payable": false,
      "stateMutability": "view",
      "type": "function"
    },
    {
      "constant": true,
      "inputs": [],
      "name": "wallet",
      "outputs": [
        {
          "name": "",
          "type": "address"
        }
      ],
      "payable": false,
      "stateMutability": "view",
      "type": "function"
    },
    {
      "constant": true,
      "inputs": [],
      "name": "recipient",
      "outputs": [
        {
          "name": "",
          "type": "address"
        }
      ],
      "payable": false,
      "stateMutability": "view",
      "type": "function"
    },
    {
      "constant": true,
      "inputs": [],
      "name": "maxIntervals",
      "outputs": [
        {
          "name": "",
          "type": "uint256"
        }
      ],
      "payable": false,
      "stateMutability": "view",
      "type": "function"
    },
    {
      "constant": true,
      "inputs": [],
      "name": "alarm",
      "outputs": [
        {
          "name": "",
          "type": "address"
        }
      ],
      "payable": false,
      "stateMutability": "view",
      "type": "function"
    },
    {
      "constant": true,
      "inputs": [],
      "name": "delegate",
      "outputs": [
        {
          "name": "",
          "type": "address"
        }
      ],
      "payable": false,
      "stateMutability": "view",
      "type": "function"
    },
    {
      "constant": true,
      "inputs": [],
      "name": "safetyMultiplier",
      "outputs": [
        {
          "name": "",
          "type": "uint256"
        }
      ],
      "payable": false,
      "stateMutability": "view",
      "type": "function"
    },
    {
      "constant": true,
      "inputs": [],
      "name": "period",
      "outputs": [
        {
          "name": "",
          "type": "uint256"
        }
      ],
      "payable": false,
      "stateMutability": "view",
      "type": "function"
    },
    {
      "constant": true,
      "inputs": [],
      "name": "token",
      "outputs": [
        {
          "name": "",
          "type": "address"
        }
      ],
      "payable": false,
      "stateMutability": "view",
      "type": "function"
    },
    {
      "payable": true,
      "stateMutability": "payable",
      "type": "fallback"
    },
    {
      "anonymous": false,
      "inputs": [
        {
          "indexed": true,
          "name": "sender",
          "type": "address"
        },
        {
          "indexed": false,
          "name": "amount",
          "type": "uint256"
        }
      ],
      "name": "Deposit_event",
      "type": "event"
    },
    {
      "anonymous": false,
      "inputs": [
        {
          "indexed": false,
          "name": "sender",
          "type": "address"
        },
        {
          "indexed": false,
          "name": "alarm",
          "type": "address"
        }
      ],
      "name": "ValidRequest_event",
      "type": "event"
    },
    {
      "anonymous": false,
      "inputs": [
        {
          "indexed": false,
          "name": "params",
          "type": "bool[6]"
        }
      ],
      "name": "InvalidRequest_event",
      "type": "event"
    },
    {
      "constant": false,
      "inputs": [
        {
          "name": "_eac",
          "type": "address"
        },
        {
          "name": "_delegate",
          "type": "address"
        },
        {
          "name": "_wallet",
          "type": "address"
        },
        {
          "name": "_priorityCaller",
          "type": "address"
        },
        {
          "name": "_recurringAlarmClockOptions",
          "type": "uint256[3]"
        },
        {
          "name": "_ethereumAlarmClockOptions",
          "type": "uint256[10]"
        }
      ],
      "name": "initialize",
      "outputs": [],
      "payable": false,
      "stateMutability": "nonpayable",
      "type": "function"
    },
    {
      "constant": false,
      "inputs": [
        {
          "name": "_task",
          "type": "address"
        }
      ],
      "name": "start",
      "outputs": [],
      "payable": false,
      "stateMutability": "nonpayable",
      "type": "function"
    },
    {
      "constant": false,
      "inputs": [],
      "name": "cancel",
      "outputs": [],
      "payable": false,
      "stateMutability": "nonpayable",
      "type": "function"
    },
    {
      "constant": true,
      "inputs": [],
      "name": "amount",
      "outputs": [
        {
          "name": "",
          "type": "uint256"
        }
      ],
      "payable": false,
      "stateMutability": "view",
      "type": "function"
    }
  ],
  "bytecode": "0x608060405234801561001057600080fd5b50611823806100206000396000f3006080604052600436106100fc576000357c0100000000000000000000000000000000000000000000000000000000900463ffffffff1680631fd3ea52146101635780633283f641146101ba5780633396133714610211578063363487bc1461023c578063440c44eb1461026757806349ef8763146102a8578063521eb273146102ff57806366d003ac1461035657806386ab53e5146103ad578063aa8c217c146103d8578063babccbab14610403578063bb7e8c2814610505578063c89e43611461055c578063d57f1d9b146105b3578063dd0b281e146105de578063ea8a1af014610621578063ef78d4fd14610638578063fc0c546a14610663575b60003414156101125761010d6106ba565b610161565b3373ffffffffffffffffffffffffffffffffffffffff167f13d8b731cfddb1e8d6d230a4f64afe94251cf4c4fa93e730ebda89a63f8baa21346040518082815260200191505060405180910390a25b005b34801561016f57600080fd5b50610178610948565b604051808273ffffffffffffffffffffffffffffffffffffffff1673ffffffffffffffffffffffffffffffffffffffff16815260200191505060405180910390f35b3480156101c657600080fd5b506101cf61096e565b604051808273ffffffffffffffffffffffffffffffffffffffff1673ffffffffffffffffffffffffffffffffffffffff16815260200191505060405180910390f35b34801561021d57600080fd5b50610226610994565b6040518082815260200191505060405180910390f35b34801561024857600080fd5b5061025161099a565b6040518082815260200191505060405180910390f35b34801561027357600080fd5b50610292600480360381019080803590602001909291905050506109a0565b6040518082815260200191505060405180910390f35b3480156102b457600080fd5b506102bd6109ba565b604051808273ffffffffffffffffffffffffffffffffffffffff1673ffffffffffffffffffffffffffffffffffffffff16815260200191505060405180910390f35b34801561030b57600080fd5b506103146109e0565b604051808273ffffffffffffffffffffffffffffffffffffffff1673ffffffffffffffffffffffffffffffffffffffff16815260200191505060405180910390f35b34801561036257600080fd5b5061036b610a06565b604051808273ffffffffffffffffffffffffffffffffffffffff1673ffffffffffffffffffffffffffffffffffffffff16815260200191505060405180910390f35b3480156103b957600080fd5b506103c2610a2c565b6040518082815260200191505060405180910390f35b3480156103e457600080fd5b506103ed610a32565b6040518082815260200191505060405180910390f35b34801561040f57600080fd5b50610503600480360381019080803573ffffffffffffffffffffffffffffffffffffffff169060200190929190803573ffffffffffffffffffffffffffffffffffffffff169060200190929190803573ffffffffffffffffffffffffffffffffffffffff169060200190929190803573ffffffffffffffffffffffffffffffffffffffff1690602001909291908060600190600380602002604051908101604052809291908260036020028082843782019150505050509192919290806101400190600a806020026040519081016040528092919082600a6020028082843782019150505050509192919290505050610a52565b005b34801561051157600080fd5b5061051a610c6d565b604051808273ffffffffffffffffffffffffffffffffffffffff1673ffffffffffffffffffffffffffffffffffffffff16815260200191505060405180910390f35b34801561056857600080fd5b50610571610c93565b604051808273ffffffffffffffffffffffffffffffffffffffff1673ffffffffffffffffffffffffffffffffffffffff16815260200191505060405180910390f35b3480156105bf57600080fd5b506105c8610cb9565b6040518082815260200191505060405180910390f35b3480156105ea57600080fd5b5061061f600480360381019080803573ffffffffffffffffffffffffffffffffffffffff169060200190929190505050610cbf565b005b34801561062d57600080fd5b50610636610df7565b005b34801561064457600080fd5b5061064d610f17565b6040518082815260200191505060405180910390f35b34801561066f57600080fd5b50610678610f1d565b604051808273ffffffffffffffffffffffffffffffffffffffff1673ffffffffffffffffffffffffffffffffffffffff16815260200191505060405180910390f35b6000600b60009054906101000a900473ffffffffffffffffffffffffffffffffffffffff1673ffffffffffffffffffffffffffffffffffffffff163373ffffffffffffffffffffffffffffffffffffffff1614151561071857600080fd5b601854601954149050600660009054906101000a900473ffffffffffffffffffffffffffffffffffffffff1673ffffffffffffffffffffffffffffffffffffffff16635601eaea6019546018546040518363ffffffff167c01000000000000000000000000000000000000000000000000000000000281526004018083815260200182815260200192505050602060405180830381600087803b1580156107be57600080fd5b505af11580156107d2573d6000803e3d6000fd5b505050506040513d60208110156107e857600080fd5b810190808051906020019092919050505050801561090957600860009054906101000a900473ffffffffffffffffffffffffffffffffffffffff1673ffffffffffffffffffffffffffffffffffffffff1663daf1548c6040518163ffffffff167c0100000000000000000000000000000000000000000000000000000000028152600401602060405180830381600087803b15801561088657600080fd5b505af115801561089a573d6000803e3d6000fd5b505050506040513d60208110156108b057600080fd5b8101908080519060200190929190505050506000600b60006101000a81548173ffffffffffffffffffffffffffffffffffffffff021916908373ffffffffffffffffffffffffffffffffffffffff160217905550610945565b601960008154809291906001019190505550601754600c6005600a8110151561092e57fe5b0160008282540192505081905550610944610f43565b5b50565b600a60009054906101000a900473ffffffffffffffffffffffffffffffffffffffff1681565b600660009054906101000a900473ffffffffffffffffffffffffffffffffffffffff1681565b60055481565b60195481565b600c81600a811015156109af57fe5b016000915090505481565b600760009054906101000a900473ffffffffffffffffffffffffffffffffffffffff1681565b600960009054906101000a900473ffffffffffffffffffffffffffffffffffffffff1681565b600260009054906101000a900473ffffffffffffffffffffffffffffffffffffffff1681565b60185481565b600080600c6006600a81101515610a4557fe5b01549050803a0291505090565b6000600554141515610af2576040517f08c379a00000000000000000000000000000000000000000000000000000000081526004018080602001828103825260368152602001807f636f6e74726163742063616e206f6e6c79206265206265666f7265207468652081526020017f616c61726d20636c6f636b20697320737461727465640000000000000000000081525060400191505060405180910390fd5b85600760006101000a81548173ffffffffffffffffffffffffffffffffffffffff021916908373ffffffffffffffffffffffffffffffffffffffff16021790555083600960006101000a81548173ffffffffffffffffffffffffffffffffffffffff021916908373ffffffffffffffffffffffffffffffffffffffff16021790555084600860006101000a81548173ffffffffffffffffffffffffffffffffffffffff021916908373ffffffffffffffffffffffffffffffffffffffff16021790555082600a60006101000a81548173ffffffffffffffffffffffffffffffffffffffff021916908373ffffffffffffffffffffffffffffffffffffffff16021790555080600c90600a610c07929190611728565b50816000600381101515610c1757fe5b6020020151601681905550816001600381101515610c3157fe5b6020020151601781905550816002600381101515610c4b57fe5b6020020151601881905550600160198190555043600581905550505050505050565b600b60009054906101000a900473ffffffffffffffffffffffffffffffffffffffff1681565b600860009054906101000a900473ffffffffffffffffffffffffffffffffffffffff1681565b60165481565b600073ffffffffffffffffffffffffffffffffffffffff16600660009054906101000a900473ffffffffffffffffffffffffffffffffffffffff1673ffffffffffffffffffffffffffffffffffffffff16141515610dab576040517f08c379a00000000000000000000000000000000000000000000000000000000081526004018080602001828103825260348152602001807f636f6e74726163742063616e206f6e6c7920626520737461727465642077686581526020017f6e2074686520616c61726d20697320656d70747900000000000000000000000081525060400191505060405180910390fd5b80600660006101000a81548173ffffffffffffffffffffffffffffffffffffffff021916908373ffffffffffffffffffffffffffffffffffffffff160217905550610df4610f43565b50565b600660009054906101000a900473ffffffffffffffffffffffffffffffffffffffff1673ffffffffffffffffffffffffffffffffffffffff163373ffffffffffffffffffffffffffffffffffffffff16141515610e5357600080fd5b600860009054906101000a900473ffffffffffffffffffffffffffffffffffffffff1673ffffffffffffffffffffffffffffffffffffffff1663daf1548c6040518163ffffffff167c0100000000000000000000000000000000000000000000000000000000028152600401602060405180830381600087803b158015610ed957600080fd5b505af1158015610eed573d6000803e3d6000fd5b505050506040513d6020811015610f0357600080fd5b810190808051906020019092919050505050565b60175481565b600360009054906101000a900473ffffffffffffffffffffffffffffffffffffffff1681565b6000806000610f50611768565b610f5861178b565b610f606117af565b600860009054906101000a900473ffffffffffffffffffffffffffffffffffffffff1673ffffffffffffffffffffffffffffffffffffffff1663beabacc8600030610fa9610a32565b6040518463ffffffff167c0100000000000000000000000000000000000000000000000000000000028152600401808473ffffffffffffffffffffffffffffffffffffffff1673ffffffffffffffffffffffffffffffffffffffff1681526020018373ffffffffffffffffffffffffffffffffffffffff1673ffffffffffffffffffffffffffffffffffffffff1681526020018281526020019350505050602060405180830381600087803b15801561106157600080fd5b505af1158015611075573d6000803e3d6000fd5b505050506040513d602081101561108b57600080fd5b8101908080519060200190929190505050503073ffffffffffffffffffffffffffffffffffffffff163195506064868115156110c357fe5b0494508486039350606060405190810160405280600960009054906101000a900473ffffffffffffffffffffffffffffffffffffffff1673ffffffffffffffffffffffffffffffffffffffff1673ffffffffffffffffffffffffffffffffffffffff168152602001600a60009054906101000a900473ffffffffffffffffffffffffffffffffffffffff1673ffffffffffffffffffffffffffffffffffffffff1673ffffffffffffffffffffffffffffffffffffffff1681526020013073ffffffffffffffffffffffffffffffffffffffff1673ffffffffffffffffffffffffffffffffffffffff16815250925061018060405190810160405280868152602001858152602001600c6000600a811015156111da57fe5b01548152602001600c6001600a811015156111f157fe5b01548152602001600c6002600a8110151561120857fe5b01548152602001600c6003600a8110151561121f57fe5b01548152602001600c6004600a8110151561123657fe5b01548152602001600c6005600a8110151561124d57fe5b01548152602001600c6006600a8110151561126457fe5b01548152602001600c6007600a8110151561127b57fe5b01548152602001600c6008600a8110151561129257fe5b01548152602001600c6009600a811015156112a957fe5b01548152509150600760009054906101000a900473ffffffffffffffffffffffffffffffffffffffff1673ffffffffffffffffffffffffffffffffffffffff16631e35ff058484896040518463ffffffff167c01000000000000000000000000000000000000000000000000000000000281526004018084600360200280838360005b8381101561134757808201518184015260208101905061132c565b5050505090500183600c60200280838360005b8381101561137557808201518184015260208101905061135a565b50505050905001828152602001935050505060c060405180830381600087803b1580156113a157600080fd5b505af11580156113b5573d6000803e3d6000fd5b505050506040513d601f19601f8201168201806040525060c08110156113da57600080fd5b810190809190505090508060006006811015156113f357fe5b60200201518015611414575080600160068110151561140e57fe5b60200201515b8015611430575080600260068110151561142a57fe5b60200201515b801561144c575080600360068110151561144657fe5b60200201515b8015611468575080600460068110151561146257fe5b60200201515b8015611484575080600560068110151561147e57fe5b60200201515b156116c057600760009054906101000a900473ffffffffffffffffffffffffffffffffffffffff1673ffffffffffffffffffffffffffffffffffffffff1663d7ceab4c8785856040518463ffffffff167c01000000000000000000000000000000000000000000000000000000000281526004018083600360200280838360005b83811015611520578082015181840152602081019050611505565b5050505090500182600c60200280838360005b8381101561154e578082015181840152602081019050611533565b505050509050018060200182810382526000815260200160200193505050506020604051808303818588803b15801561158657600080fd5b505af115801561159a573d6000803e3d6000fd5b50505050506040513d60208110156115b157600080fd5b8101908080519060200190929190505050600b60006101000a81548173ffffffffffffffffffffffffffffffffffffffff021916908373ffffffffffffffffffffffffffffffffffffffff1602179055507f673bacbd542d3e65fd90fc7fc8631e3a9bdc4ae4ffad940781805f85596c172133600b60009054906101000a900473ffffffffffffffffffffffffffffffffffffffff16604051808373ffffffffffffffffffffffffffffffffffffffff1673ffffffffffffffffffffffffffffffffffffffff1681526020018273ffffffffffffffffffffffffffffffffffffffff1673ffffffffffffffffffffffffffffffffffffffff1681526020019250505060405180910390a1611720565b7febec2a47d1b8a4f2300d8b1a3f76af4035584f4667e3a47730f7c47eeb4675af816040518082600660200280838360005b8381101561170d5780820151818401526020810190506116f2565b5050505090500191505060405180910390a15b505050505050565b82600a8101928215611757579160200282015b8281111561175657825182559160200191906001019061173b565b5b50905061176491906117d2565b5090565b606060405190810160405280600390602082028038833980820191505090505090565b61018060405190810160405280600c90602082028038833980820191505090505090565b60c060405190810160405280600690602082028038833980820191505090505090565b6117f491905b808211156117f05760008160009055506001016117d8565b5090565b905600a165627a7a72305820bb8a0dfecd9fb111df53bf2e5988acb263ebf9cb09fb2f84000bcee7b8ab42690029",
  "source": "pragma solidity ^0.4.23;\r\n\r\nimport \"./external/RequestFactoryInterface.sol\";\r\nimport \"./Interfaces.sol\";\r\n\r\ncontract RecurringAlarmClock is IRecurringAlarmClock {\r\n\r\n    uint public blockStarted;               // The block the alarm clock was started\r\n    address constant ETHER = address(0x0);  // Used for code readability\r\n    \r\n    IRecurringTask public task;             // The task to execute when the alarm is triggered\r\n    RequestFactoryInterface public eac;     // Interface provided by the Ethereum Alarm Clock\r\n    IFuturePaymentDelegate public delegate; // The delegate that pulls funds for each alarm\r\n    address public wallet;                  // The address which owns the alarm and collects any leftover funds\r\n    address public priorityCaller;          // The priority recipient of part of the alarm deposit\r\n    address public alarm;                   // The next scheduled alarm contract\r\n\r\n    uint[10] public eacOptions;             // The options used when setting an alarm using the Ethereum Alarm Clock\r\n    uint public safetyMultiplier;           // The multiplier to use when calculating the alarm cost\r\n    uint public period;                     // The amount of time between each alarm\r\n    uint public maxIntervals;               // The number of times this alarm will go off\r\n    uint public currentInterval;            // Keeps track of how many alarms have been called\r\n\r\n    function initialize (\r\n        RequestFactoryInterface _eac,\r\n        IFuturePaymentDelegate _delegate,\r\n        address _wallet,\r\n        address _priorityCaller,\r\n        uint[3] _recurringAlarmClockOptions,\r\n        uint[10] _ethereumAlarmClockOptions\r\n    ) public {\r\n        require(blockStarted == 0, \"contract can only be before the alarm clock is started\");\r\n\r\n        eac = _eac;\r\n        wallet = _wallet;\r\n        delegate = _delegate;\r\n        priorityCaller = _priorityCaller;\r\n\r\n        eacOptions = _ethereumAlarmClockOptions;\r\n        safetyMultiplier = _recurringAlarmClockOptions[0];\r\n        period = _recurringAlarmClockOptions[1];\r\n        maxIntervals = _recurringAlarmClockOptions[2];\r\n        currentInterval = 1;\r\n        \r\n        blockStarted = block.number;\r\n    }\r\n\r\n    function start (IRecurringTask _task) public {\r\n        require(task == address(0x0), \"contract can only be started when the alarm is empty\");\r\n        \r\n        task = _task;\r\n        \r\n        scheduleAlarm();\r\n    }\r\n\r\n    function cancel () public onlyTask {\r\n        delegate.unschedule();\r\n    }\r\n\r\n    function amount () public view returns (uint) {\r\n        uint gas = eacOptions[6];\r\n        return tx.gasprice * gas; // return tx.gasprice * gas * safetyMultiplier / 10^18;\r\n    }\r\n\r\n    function () public payable {\r\n        if(msg.value == 0)\r\n            handleAlarmCall();\r\n        else\r\n            emit Deposit_event(msg.sender, msg.value);\r\n    }\r\n\r\n    function handleAlarmCall () internal {\r\n        require(msg.sender == address(alarm));\r\n        \r\n        bool finished = currentInterval == maxIntervals;\r\n        task.execute(currentInterval, maxIntervals); // ignore success or failure\r\n\r\n        if(finished){\r\n            delegate.unschedule();\r\n            alarm = address(0x0);\r\n        } else {\r\n            currentInterval++;\r\n            eacOptions[5] += period;\r\n            scheduleAlarm();\r\n        }\r\n    }\r\n\r\n    function scheduleAlarm () internal {\r\n        delegate.transfer(ETHER, this, amount());\r\n        \r\n        uint endowment = address(this).balance;    \r\n        uint priorityFee = endowment / 100;\r\n        uint callBounty = endowment - priorityFee;\r\n\r\n        address[3] memory addressOptions = [\r\n        //  this,           // In the future, I'd like the owner address to equal this contract and keep the wallet as the change address\r\n            wallet,         // Change from the alarm is sent to this address, also the account that can owns the alarm. \r\n            priorityCaller, // The priority fee is sent to this address\r\n            this            // The contract to call at execution\r\n        ];\r\n\r\n        uint[12] memory uintOptions = [\r\n            priorityFee,    // A fee that goes to the fee recipient\r\n            callBounty,     // The bounty for the account that triggers this alarm\r\n            eacOptions[0],  // claimWindowSize\r\n            eacOptions[1],  // freezePeriod\r\n            eacOptions[2],  // reservedWindowSize\r\n            eacOptions[3],  // 2 = Use timestamp based scheduling instead of blocks\r\n            eacOptions[4],  // The size of the execution window\r\n            eacOptions[5],  // The start of the execution window\r\n            eacOptions[6],  // The amount of gas to be sent with the transaction\r\n            eacOptions[7],  // The amount of ether to be sent\r\n            eacOptions[8],  // The minimum gas price for the alarm when called\r\n            eacOptions[9]   // The required deposit by the claimer\r\n        ];\r\n\r\n        bool[6] memory params = eac.validateRequestParams(\r\n            addressOptions,\r\n            uintOptions,\r\n            endowment\r\n        );\r\n\r\n        if(params[0] && params[1] && params[2] && params[3] && params[4] && params[5]){\r\n            alarm = eac.createValidatedRequest.value(endowment)(addressOptions, uintOptions, \"\");\r\n            emit ValidRequest_event(msg.sender, alarm);\r\n        } else {\r\n            emit InvalidRequest_event(params);\r\n        }\r\n    }\r\n\r\n    modifier onlyTask () {\r\n        require(msg.sender == address(task));\r\n        _;\r\n    }\r\n    \r\n    event Deposit_event (address indexed sender, uint amount);\r\n    event ValidRequest_event (address sender, address alarm);\r\n    event InvalidRequest_event (bool[6] params);\r\n}\r\n",
  "sourcePath": "C:\\Users\\My\\Documents\\GitHub\\everchain-project\\recurring-alarm-clock\\contracts\\RecurringAlarmClock.sol",
  "compiler": {
    "name": "solc",
    "version": "0.4.24+commit.e67f0147.Emscripten.clang"
  },
  "schemaVersion": "2.0.1",
  "updatedAt": "2018-10-07T04:51:18.229Z"
}