{
  "contractName": "RecurringTransactionHelper",
  "abi": [
    {
      "constant": true,
      "inputs": [
        {
          "name": "",
          "type": "uint256"
        }
      ],
      "name": "defaultLimits",
      "outputs": [
        {
          "name": "",
          "type": "uint256"
        }
      ],
      "payable": false,
      "stateMutability": "view",
      "type": "function"
    },
    {
      "constant": true,
      "inputs": [],
      "name": "defaultPriorityCaller",
      "outputs": [
        {
          "name": "",
          "type": "address"
        }
      ],
      "payable": false,
      "stateMutability": "view",
      "type": "function"
    },
    {
      "constant": true,
      "inputs": [],
      "name": "blockCreated",
      "outputs": [
        {
          "name": "",
          "type": "uint256"
        }
      ],
      "payable": false,
      "stateMutability": "view",
      "type": "function"
    },
    {
      "constant": true,
      "inputs": [],
      "name": "defaultGasPriceFeed",
      "outputs": [
        {
          "name": "",
          "type": "address"
        }
      ],
      "payable": false,
      "stateMutability": "view",
      "type": "function"
    },
    {
      "constant": true,
      "inputs": [],
      "name": "defaultTokenPriceFeed",
      "outputs": [
        {
          "name": "",
          "type": "address"
        }
      ],
      "payable": false,
      "stateMutability": "view",
      "type": "function"
    },
    {
      "constant": true,
      "inputs": [],
      "name": "defaultFactory",
      "outputs": [
        {
          "name": "",
          "type": "address"
        }
      ],
      "payable": false,
      "stateMutability": "view",
      "type": "function"
    },
    {
      "constant": true,
      "inputs": [
        {
          "name": "_defaultScheduler",
          "type": "address"
        },
        {
          "name": "_defaultFactory",
          "type": "address"
        },
        {
          "name": "_defaultGasPriceFeed",
          "type": "address"
        },
        {
          "name": "_defaultTokenPriceFeed",
          "type": "address"
        }
      ],
      "name": "defaultFactory",
      "outputs": [
        {
          "name": "",
          "type": "address"
        }
      ],
      "payable": false,
      "stateMutability": "nonpayable",
      "type": "constructor"
    },
    {
      "constant": false,
      "inputs": [
        {
          "name": "caller",
          "type": "address",
          "indexed": true
        },
        {
          "indexed": false,
          "name": "rtx",
          "type": "address"
        }
      ],
      "name": "Deploy_event",
      "outputs": [],
      "payable": false,
      "stateMutability": "nonpayable",
      "type": "event",
      "anonymous": false
    },
    {
      "inputs": [
        {
          "name": "wallet",
          "type": "address"
        },
        {
          "name": "_defaultFactory",
          "type": "address"
        },
        {
          "name": "_defaultGasPriceFeed",
          "type": "address"
        },
        {
          "name": "_defaultTokenPriceFeed",
          "type": "address"
        }
      ],
      "payable": false,
      "stateMutability": "nonpayable",
      "type": "function",
      "constant": false,
      "name": "deploy",
      "outputs": [
        {
          "name": "rtx",
          "type": "address"
        }
      ]
    },
    {
      "anonymous": false,
      "inputs": [
        {
          "indexed": true,
          "name": "wallet",
          "type": "address"
        },
        {
          "indexed": false,
          "name": "callAddress",
          "type": "address"
        },
        {
          "name": "callData",
          "type": "bytes"
        },
        {
          "name": "callOptions",
          "type": "uint256[8]"
        }
      ],
      "name": "deployAndStart",
      "type": "function",
      "constant": false,
      "outputs": [
        {
          "name": "rtx",
          "type": "address"
        }
      ],
      "payable": false,
      "stateMutability": "nonpayable"
    },
    {
      "constant": false,
      "inputs": [
        {
          "name": "newGasPriceFeed",
          "type": "address"
        }
      ],
      "name": "setDefaultGasPriceFeed",
      "outputs": [],
      "payable": false,
      "stateMutability": "nonpayable",
      "type": "function"
    },
    {
      "constant": false,
      "inputs": [
        {
          "name": "newPriceFeed",
          "type": "address"
        }
      ],
      "name": "setDefaultPriceFeed",
      "outputs": [],
      "payable": false,
      "stateMutability": "nonpayable",
      "type": "function"
    },
    {
      "constant": false,
      "inputs": [
        {
          "name": "newDefaultCaller",
          "type": "address"
        }
      ],
      "name": "setDefaultCaller",
      "outputs": [],
      "payable": false,
      "stateMutability": "nonpayable",
      "type": "function"
    },
    {
      "constant": false,
      "inputs": [
        {
          "name": "wallet",
          "type": "address"
        }
      ],
      "name": "deployRTx",
      "outputs": [
        {
          "name": "rtx",
          "type": "address"
        }
      ],
      "payable": false,
      "stateMutability": "nonpayable",
      "type": "function"
    },
    {
      "constant": false,
      "inputs": [
        {
          "name": "wallet",
          "type": "address"
        },
        {
          "name": "callAddress",
          "type": "address"
        },
        {
          "name": "callData",
          "type": "bytes"
        },
        {
          "name": "callOptions",
          "type": "uint256[8]"
        }
      ],
      "name": "deployAndStart",
      "outputs": [
        {
          "name": "rtx",
          "type": "address"
        }
      ],
      "payable": false,
      "stateMutability": "nonpayable",
      "type": "function"
    }
  ],
  "bytecode": "0x60806040524360005534801561001457600080fd5b5060405160808061132d8339810180604052608081101561003457600080fd5b810190808051906020019092919080519060200190929190805190602001909291908051906020019092919050505083600160006101000a81548173ffffffffffffffffffffffffffffffffffffffff021916908373ffffffffffffffffffffffffffffffffffffffff16021790555082600260006101000a81548173ffffffffffffffffffffffffffffffffffffffff021916908373ffffffffffffffffffffffffffffffffffffffff16021790555081600360006101000a81548173ffffffffffffffffffffffffffffffffffffffff021916908373ffffffffffffffffffffffffffffffffffffffff16021790555080600460006101000a81548173ffffffffffffffffffffffffffffffffffffffff021916908373ffffffffffffffffffffffffffffffffffffffff16021790555033600560006101000a81548173ffffffffffffffffffffffffffffffffffffffff021916908373ffffffffffffffffffffffffffffffffffffffff160217905550612a30600660006003811015156101bb57fe5b018190555060b4600660016003811015156101d257fe5b0181905550612a30600660026003811015156101ea57fe5b01819055505050505061112b806102026000396000f3fe60806040526004361061008e576000357c0100000000000000000000000000000000000000000000000000000000900463ffffffff16806309e9ae2f146100935780633cc554b21461021e5780634913b0291461026d5780634c96a389146102c45780634e989a4c146103555780635af4a65c14610380578063644f416b146103d7578063d4b6846d1461042e575b600080fd5b34801561009f57600080fd5b506101dc60048036036101608110156100b757600080fd5b81019080803573ffffffffffffffffffffffffffffffffffffffff169060200190929190803573ffffffffffffffffffffffffffffffffffffffff1690602001909291908035906020019064010000000081111561011457600080fd5b82018360208201111561012657600080fd5b8035906020019184600183028401116401000000008311171561014857600080fd5b91908080601f016020809104026020016040519081016040528093929190818152602001838380828437600081840152601f19601f8201169050808301925050505050505091929192908061010001906008806020026040519081016040528092919082600860200280828437600081840152601f19601f8201169050808301925050505050509192919290505050610485565b604051808273ffffffffffffffffffffffffffffffffffffffff1673ffffffffffffffffffffffffffffffffffffffff16815260200191505060405180910390f35b34801561022a57600080fd5b506102576004803603602081101561024157600080fd5b81019080803590602001909291905050506109e1565b6040518082815260200191505060405180910390f35b34801561027957600080fd5b506102826109fb565b604051808273ffffffffffffffffffffffffffffffffffffffff1673ffffffffffffffffffffffffffffffffffffffff16815260200191505060405180910390f35b3480156102d057600080fd5b50610313600480360360208110156102e757600080fd5b81019080803573ffffffffffffffffffffffffffffffffffffffff169060200190929190505050610a21565b604051808273ffffffffffffffffffffffffffffffffffffffff1673ffffffffffffffffffffffffffffffffffffffff16815260200191505060405180910390f35b34801561036157600080fd5b5061036a611087565b6040518082815260200191505060405180910390f35b34801561038c57600080fd5b5061039561108d565b604051808273ffffffffffffffffffffffffffffffffffffffff1673ffffffffffffffffffffffffffffffffffffffff16815260200191505060405180910390f35b3480156103e357600080fd5b506103ec6110b3565b604051808273ffffffffffffffffffffffffffffffffffffffff1673ffffffffffffffffffffffffffffffffffffffff16815260200191505060405180910390f35b34801561043a57600080fd5b506104436110d9565b604051808273ffffffffffffffffffffffffffffffffffffffff1673ffffffffffffffffffffffffffffffffffffffff16815260200191505060405180910390f35b60008473ffffffffffffffffffffffffffffffffffffffff166307779627336040518263ffffffff167c0100000000000000000000000000000000000000000000000000000000028152600401808273ffffffffffffffffffffffffffffffffffffffff1673ffffffffffffffffffffffffffffffffffffffff16815260200191505060206040518083038186803b15801561052057600080fd5b505afa158015610534573d6000803e3d6000fd5b505050506040513d602081101561054a57600080fd5b810190808051906020019092919050505015156105f5576040517f08c379a00000000000000000000000000000000000000000000000000000000081526004018080602001828103825260248152602001807f7468652063616c6c6572206d75737420626520612077616c6c65742064656c6581526020017f676174650000000000000000000000000000000000000000000000000000000081525060400191505060405180910390fd5b8473ffffffffffffffffffffffffffffffffffffffff166307779627600160009054906101000a900473ffffffffffffffffffffffffffffffffffffffff166040518263ffffffff167c0100000000000000000000000000000000000000000000000000000000028152600401808273ffffffffffffffffffffffffffffffffffffffff1673ffffffffffffffffffffffffffffffffffffffff16815260200191505060206040518083038186803b1580156106b057600080fd5b505afa1580156106c4573d6000803e3d6000fd5b505050506040513d60208110156106da57600080fd5b81019080805190602001909291905050501515610785576040517f08c379a000000000000000000000000000000000000000000000000000000000815260040180806020018281038252602f8152602001807f7468652064656661756c74207363686564756c6572206d75737420626520612081526020017f77616c6c65742064656c6567617465000000000000000000000000000000000081525060400191505060405180910390fd5b61078e85610a21565b9050600160009054906101000a900473ffffffffffffffffffffffffffffffffffffffff1673ffffffffffffffffffffffffffffffffffffffff1663316bef98826040518263ffffffff167c0100000000000000000000000000000000000000000000000000000000028152600401808273ffffffffffffffffffffffffffffffffffffffff1673ffffffffffffffffffffffffffffffffffffffff168152602001915050602060405180830381600087803b15801561084d57600080fd5b505af1158015610861573d6000803e3d6000fd5b505050506040513d602081101561087757600080fd5b8101908080519060200190929190505050508073ffffffffffffffffffffffffffffffffffffffff1663e7aaf0e98585856040518463ffffffff167c0100000000000000000000000000000000000000000000000000000000028152600401808473ffffffffffffffffffffffffffffffffffffffff1673ffffffffffffffffffffffffffffffffffffffff1681526020018060200183600860200280838360005b83811015610934578082015181840152602081019050610919565b50505050905001828103825284818151815260200191508051906020019080838360005b83811015610973578082015181840152602081019050610958565b50505050905090810190601f1680156109a05780820380516001836020036101000a031916815260200191505b50945050505050600060405180830381600087803b1580156109c157600080fd5b505af11580156109d5573d6000803e3d6000fd5b50505050949350505050565b6006816003811015156109f057fe5b016000915090505481565b600560009054906101000a900473ffffffffffffffffffffffffffffffffffffffff1681565b60008173ffffffffffffffffffffffffffffffffffffffff166307779627336040518263ffffffff167c0100000000000000000000000000000000000000000000000000000000028152600401808273ffffffffffffffffffffffffffffffffffffffff1673ffffffffffffffffffffffffffffffffffffffff16815260200191505060206040518083038186803b158015610abc57600080fd5b505afa158015610ad0573d6000803e3d6000fd5b505050506040513d6020811015610ae657600080fd5b81019080805190602001909291905050501515610b91576040517f08c379a00000000000000000000000000000000000000000000000000000000081526004018080602001828103825260248152602001807f7468652063616c6c6572206d75737420626520612077616c6c65742064656c6581526020017f676174650000000000000000000000000000000000000000000000000000000081525060400191505060405180910390fd5b600260009054906101000a900473ffffffffffffffffffffffffffffffffffffffff1673ffffffffffffffffffffffffffffffffffffffff16633e68680a83600160009054906101000a900473ffffffffffffffffffffffffffffffffffffffff166040518363ffffffff167c0100000000000000000000000000000000000000000000000000000000028152600401808373ffffffffffffffffffffffffffffffffffffffff1673ffffffffffffffffffffffffffffffffffffffff1681526020018273ffffffffffffffffffffffffffffffffffffffff1673ffffffffffffffffffffffffffffffffffffffff16815260200192505050602060405180830381600087803b158015610ca457600080fd5b505af1158015610cb8573d6000803e3d6000fd5b505050506040513d6020811015610cce57600080fd5b810190808051906020019092919050505090508073ffffffffffffffffffffffffffffffffffffffff16633c2d7ec860066040518263ffffffff167c0100000000000000000000000000000000000000000000000000000000028152600401808260038015610d52576020028201915b815481526020019060010190808311610d3e575b5050915050600060405180830381600087803b158015610d7157600080fd5b505af1158015610d85573d6000803e3d6000fd5b505050508073ffffffffffffffffffffffffffffffffffffffff1663b45994f8600360009054906101000a900473ffffffffffffffffffffffffffffffffffffffff166040518263ffffffff167c0100000000000000000000000000000000000000000000000000000000028152600401808273ffffffffffffffffffffffffffffffffffffffff1673ffffffffffffffffffffffffffffffffffffffff168152602001915050600060405180830381600087803b158015610e4657600080fd5b505af1158015610e5a573d6000803e3d6000fd5b505050508073ffffffffffffffffffffffffffffffffffffffff16633e78cf73600460009054906101000a900473ffffffffffffffffffffffffffffffffffffffff166040518263ffffffff167c0100000000000000000000000000000000000000000000000000000000028152600401808273ffffffffffffffffffffffffffffffffffffffff1673ffffffffffffffffffffffffffffffffffffffff168152602001915050600060405180830381600087803b158015610f1b57600080fd5b505af1158015610f2f573d6000803e3d6000fd5b505050508073ffffffffffffffffffffffffffffffffffffffff1663ff080651600560009054906101000a900473ffffffffffffffffffffffffffffffffffffffff166040518263ffffffff167c0100000000000000000000000000000000000000000000000000000000028152600401808273ffffffffffffffffffffffffffffffffffffffff1673ffffffffffffffffffffffffffffffffffffffff168152602001915050600060405180830381600087803b158015610ff057600080fd5b505af1158015611004573d6000803e3d6000fd5b505050503373ffffffffffffffffffffffffffffffffffffffff167ffd1b49d61ae2fe543e12f32cb6d5e208848407b7c6f0abfef297d02839437dd282604051808273ffffffffffffffffffffffffffffffffffffffff1673ffffffffffffffffffffffffffffffffffffffff16815260200191505060405180910390a2919050565b60005481565b600360009054906101000a900473ffffffffffffffffffffffffffffffffffffffff1681565b600460009054906101000a900473ffffffffffffffffffffffffffffffffffffffff1681565b600260009054906101000a900473ffffffffffffffffffffffffffffffffffffffff168156fea165627a7a7230582044f9035780bafc6d8e95af8fa89aa1cf59b4e0888d76e251df62212ececc87250029",
  "source": "pragma solidity ^0.5.0;\n\nimport \"../RecurringTransactionFactory.sol\";\nimport \"./TransactionScheduler.sol\";\n\n/// @title RecurringTransactionDeployer\n/// @author Joseph Reed\n/// @dev This contract's goal is to make it super easy to create a recurring transaction by setting several default values\ncontract RecurringTransactionHelper {\n\n    uint public blockCreated = block.number;\n\n    TransactionScheduler defaultScheduler;\n    RecurringTransactionFactory public defaultFactory;\n    IUintFeed public defaultGasPriceFeed;\n    IUintFeed public defaultTokenPriceFeed;\n    address public defaultPriorityCaller;\n    uint[3] public defaultLimits;\n\n    /// @notice Constructor to create a smart contract which aids in creating a recurring transaction\n    /// @param _defaultScheduler The default payment delegate contract responsible for handling payments\n    /// @param _defaultFactory The default factory contract responsible for deploying decentralized transactions\n    /// ... todo\n    constructor (\n        TransactionScheduler _defaultScheduler,\n        RecurringTransactionFactory _defaultFactory,\n        IUintFeed _defaultGasPriceFeed,\n        IUintFeed _defaultTokenPriceFeed\n    ) public {\n        defaultScheduler = _defaultScheduler;\n        defaultFactory = _defaultFactory;\n        defaultGasPriceFeed = _defaultGasPriceFeed;\n        defaultTokenPriceFeed = _defaultTokenPriceFeed;\n        defaultPriorityCaller = msg.sender;\n\n        defaultLimits[0] = 180 minutes;     // claimWindowSize\n        defaultLimits[1] = 3 minutes;       // freezeIntervalDuration\n        defaultLimits[2] = 180 minutes;     // reservedWindowSize\n    }\n\n    /// @notice Creates a recurring transaction belonging to the specified wallet\n    /// @param wallet The funding wallet, change address, and owner of the deployed alarms\n    /// @return The recurring transaction contract address\n    function deploy (IDelegatedWallet wallet) public returns (RecurringTransaction rtx) {\n        require(wallet.isDelegate(msg.sender), \"the caller must be a wallet delegate\");\n\n        rtx = defaultFactory.create(wallet, defaultScheduler);\n        rtx.setExecutionLimits(defaultLimits);\n        rtx.setGasPriceFeed(defaultGasPriceFeed);\n        rtx.setTokenPriceFeed(defaultTokenPriceFeed);\n        rtx.setPriorityCaller(defaultPriorityCaller);\n\n        emit Deploy_event(msg.sender, address(rtx));\n    }\n\n    /// @notice Creates and starts a recurring transaction belonging to the specified wallet with the specified call options\n    /// @param wallet The funding wallet, change address, and owner of the deployed alarms\n    /// @param callAddress The address the transaction will call each time it is triggered\n    /// @param callData The data the transaction will send with the call\n    /// @param callOptions The options defining how and when to trigger the transaction\n    ///        [callValue, callGas, startTimestamp, windowSize, intervalValue, intervalUnit, maxIntervals]\n    /// @return The recurring transaction contract address\n    function deployAndStart (\n        IDelegatedWallet wallet,\n        address payable callAddress,\n        bytes memory callData,\n        uint[8] memory callOptions\n    ) public returns (RecurringTransaction rtx) {\n        require(wallet.isDelegate(msg.sender), \"the caller must be a wallet delegate\");\n        require(wallet.isDelegate(address(defaultScheduler)), \"the default scheduler must be a wallet delegate\");\n\n        rtx = deploy(wallet);\n        defaultScheduler.schedule(rtx);\n        rtx.start(callAddress, callData, callOptions);\n    }\n\n    event Deploy_event(address indexed caller, address rtx);\n\n}\n",
  "sourcePath": "/home/joe/Documents/github/everchain-project/recurring-transactions/contracts/delegates/RecurringTransactionHelper.sol",
  "compiler": {
    "name": "solc",
    "version": "0.5.0+commit.1d4f565a.Emscripten.clang"
  },
  "schemaVersion": "3.0.9",
  "updatedAt": "2019-05-14T22:34:57.360Z",
  "devdoc": {
    "author": "Joseph Reed",
    "details": "This contract's goal is to make it super easy to create a recurring transaction by setting several default values",
    "methods": {
      "constructor": {
        "params": {
          "_defaultFactory": "The default factory contract responsible for deploying decentralized transactions ... todo",
          "_defaultScheduler": "The default payment delegate contract responsible for handling payments"
        }
      },
      "deployAndStart(address,address,bytes,uint256[8])": {
        "params": {
          "callAddress": "The address the transaction will call each time it is triggered",
          "callData": "The data the transaction will send with the call",
          "callOptions": "The options defining how and when to trigger the transaction        [callValue, callGas, startTimestamp, windowSize, intervalValue, intervalUnit, maxIntervals]",
          "wallet": "The funding wallet, change address, and owner of the deployed alarms"
        },
        "return": "The recurring transaction contract address"
      },
      "deployRTx(address)": {
        "params": {
          "wallet": "The funding wallet, change address, and owner of the deployed alarms"
        },
        "return": "The recurring transaction contract address"
      },
      "deploy(address)": {
        "params": {
          "wallet": "The funding wallet, change address, and owner of the deployed alarms"
        },
        "return": "The recurring transaction contract address"
      }
    },
    "title": "RecurringTransactionDeployer"
  },
  "userdoc": {
    "methods": {
      "constructor": "Constructor to create a smart contract which aids in creating a recurring transaction",
      "deployAndStart(address,address,bytes,uint256[8])": {
        "notice": "Creates and starts a recurring transaction belonging to the specified wallet with the specified call options"
      },
      "deployRTx(address)": {
        "notice": "Creates a recurring transaction belonging to the specified wallet"
      },
      "deploy(address)": {
        "notice": "Creates a recurring transaction belonging to the specified wallet"
      }
    }
  }
}