{
  "contractName": "RecurringAlarmClockFactory",
  "abi": [
    {
      "constant": true,
      "inputs": [],
      "name": "ethereumAlarmClock",
      "outputs": [
        {
          "name": "",
          "type": "address"
        }
      ],
      "payable": false,
      "stateMutability": "view",
      "type": "function"
    },
    {
      "constant": true,
      "inputs": [],
      "name": "alarmClockBlueprint",
      "outputs": [
        {
          "name": "",
          "type": "address"
        }
      ],
      "payable": false,
      "stateMutability": "view",
      "type": "function"
    },
    {
      "inputs": [
        {
          "name": "_ethereumAlarmClock",
          "type": "address"
        },
        {
          "name": "_alarmClockBlueprint",
          "type": "address"
        }
      ],
      "payable": false,
      "stateMutability": "nonpayable",
      "type": "constructor"
    },
    {
      "anonymous": false,
      "inputs": [
        {
          "indexed": true,
          "name": "target",
          "type": "address"
        },
        {
          "indexed": false,
          "name": "clone",
          "type": "address"
        }
      ],
      "name": "CloneCreated",
      "type": "event"
    },
    {
      "constant": false,
      "inputs": [
        {
          "name": "delegate",
          "type": "address"
        },
        {
          "name": "wallet",
          "type": "address"
        },
        {
          "name": "priorityCaller",
          "type": "address"
        },
        {
          "name": "callData",
          "type": "bytes"
        },
        {
          "name": "recurringAlarmClockOptions",
          "type": "uint256[3]"
        },
        {
          "name": "ethereumAlarmClockOptions",
          "type": "uint256[10]"
        }
      ],
      "name": "createRecurringAlarmClock",
      "outputs": [
        {
          "name": "recurringAlarmClock",
          "type": "address"
        }
      ],
      "payable": false,
      "stateMutability": "nonpayable",
      "type": "function"
    }
  ],
  "bytecode": "0x608060405234801561001057600080fd5b506040516040806107fd8339810180604052810190808051906020019092919080519060200190929190505050816000806101000a81548173ffffffffffffffffffffffffffffffffffffffff021916908373ffffffffffffffffffffffffffffffffffffffff16021790555080600160006101000a81548173ffffffffffffffffffffffffffffffffffffffff021916908373ffffffffffffffffffffffffffffffffffffffff160217905550505061072e806100cf6000396000f300608060405260043610610057576000357c0100000000000000000000000000000000000000000000000000000000900463ffffffff16806321363e571461005c5780635f943a4e146100b35780637efecbd91461010a575b600080fd5b34801561006857600080fd5b50610071610272565b604051808273ffffffffffffffffffffffffffffffffffffffff1673ffffffffffffffffffffffffffffffffffffffff16815260200191505060405180910390f35b3480156100bf57600080fd5b506100c8610297565b604051808273ffffffffffffffffffffffffffffffffffffffff1673ffffffffffffffffffffffffffffffffffffffff16815260200191505060405180910390f35b34801561011657600080fd5b50610230600480360381019080803573ffffffffffffffffffffffffffffffffffffffff169060200190929190803573ffffffffffffffffffffffffffffffffffffffff169060200190929190803573ffffffffffffffffffffffffffffffffffffffff169060200190929190803590602001908201803590602001908080601f01602080910402602001604051908101604052809392919081815260200183838082843782019150505050505091929192908060600190600380602002604051908101604052809291908260036020028082843782019150505050509192919290806101400190600a806020026040519081016040528092919082600a60200280828437820191505050505091929192905050506102bd565b604051808273ffffffffffffffffffffffffffffffffffffffff1673ffffffffffffffffffffffffffffffffffffffff16815260200191505060405180910390f35b6000809054906101000a900473ffffffffffffffffffffffffffffffffffffffff1681565b600160009054906101000a900473ffffffffffffffffffffffffffffffffffffffff1681565b60006102ea600160009054906101000a900473ffffffffffffffffffffffffffffffffffffffff166105e6565b90508673ffffffffffffffffffffffffffffffffffffffff1663316bef98826040518263ffffffff167c0100000000000000000000000000000000000000000000000000000000028152600401808273ffffffffffffffffffffffffffffffffffffffff1673ffffffffffffffffffffffffffffffffffffffff168152602001915050600060405180830381600087803b15801561038757600080fd5b505af115801561039b573d6000803e3d6000fd5b505050508073ffffffffffffffffffffffffffffffffffffffff1663b94d3da06000809054906101000a900473ffffffffffffffffffffffffffffffffffffffff168989898989896040518863ffffffff167c0100000000000000000000000000000000000000000000000000000000028152600401808873ffffffffffffffffffffffffffffffffffffffff1673ffffffffffffffffffffffffffffffffffffffff1681526020018773ffffffffffffffffffffffffffffffffffffffff1673ffffffffffffffffffffffffffffffffffffffff1681526020018673ffffffffffffffffffffffffffffffffffffffff1673ffffffffffffffffffffffffffffffffffffffff1681526020018573ffffffffffffffffffffffffffffffffffffffff1673ffffffffffffffffffffffffffffffffffffffff1681526020018060200184600360200280838360005b838110156105055780820151818401526020810190506104ea565b5050505090500183600a60200280838360005b83811015610533578082015181840152602081019050610518565b50505050905001828103825285818151815260200191508051906020019080838360005b83811015610572578082015181840152602081019050610557565b50505050905090810190601f16801561059f5780820380516001836020036101000a031916815260200191505b5098505050505050505050600060405180830381600087803b1580156105c457600080fd5b505af11580156105d8573d6000803e3d6000fd5b505050509695505050505050565b60006060600080606060405190810160405280603f81526020017f600034603b57603080600f833981f36000368180378080368173bebebebebebe81526020017fbebebebebebebebebebebebebebe5af43d82803e15602c573d90f35b3d90fd008152509250846c01000000000000000000000000029150600090505b60148110156106eb57818160148110151561067a57fe5b1a7f0100000000000000000000000000000000000000000000000000000000000000028382601a018151811015156106ae57fe5b9060200101907effffffffffffffffffffffffffffffffffffffffffffffffffffffffffffff1916908160001a9053508080600101915050610663565b82516020840181816000f0955050505050509190505600a165627a7a7230582064114643f6eb94e372609c648229af20fff2e0ddd80bf659caf13ef6a10da1a20029",
  "source": "pragma solidity ^0.4.23;\r\n\r\nimport \"../../external/CloneFactory.sol\";\r\nimport \"../../Interfaces.sol\";\r\nimport \"./RecurringAlarmClock.sol\";\r\n\r\ncontract RecurringAlarmClockFactory is CloneFactory {\r\n\r\n    RequestFactoryInterface public ethereumAlarmClock;\r\n    RecurringAlarmClock public alarmClockBlueprint;\r\n\r\n    constructor (\r\n        RequestFactoryInterface _ethereumAlarmClock, \r\n        RecurringAlarmClock _alarmClockBlueprint\r\n    ) public {\r\n        ethereumAlarmClock = _ethereumAlarmClock;\r\n        alarmClockBlueprint = _alarmClockBlueprint;\r\n    }\r\n\r\n    function createRecurringAlarmClock(\r\n        IFuturePaymentDelegate delegate,\r\n        IDelegatedWallet wallet,\r\n        address priorityCaller,\r\n        bytes callData,\r\n        uint[3] recurringAlarmClockOptions,\r\n        uint[10] ethereumAlarmClockOptions\r\n    ) public returns (RecurringAlarmClock recurringAlarmClock) {\r\n        recurringAlarmClock = RecurringAlarmClock(createClone(alarmClockBlueprint));\r\n        delegate.schedule(recurringAlarmClock);\r\n        recurringAlarmClock.initialize(\r\n            ethereumAlarmClock,\r\n            delegate,\r\n            wallet,\r\n            priorityCaller,\r\n            callData,\r\n            recurringAlarmClockOptions,\r\n            ethereumAlarmClockOptions\r\n        );\r\n    }\r\n\r\n}\r\n",
  "sourcePath": "C:\\Users\\My\\Documents\\GitHub\\everchain-project\\recurring-alarm-clock\\contracts\\components\\recurring-alarm-clock\\RecurringAlarmClockFactory.sol",
  "compiler": {
    "name": "solc",
    "version": "0.4.24+commit.e67f0147.Emscripten.clang"
  },
  "schemaVersion": "2.0.1",
  "updatedAt": "2018-10-13T04:35:07.883Z"
}