{
  "contractName": "RecurringPaymentFactory",
  "abi": [
    {
      "constant": true,
      "inputs": [],
      "name": "blueprint",
      "outputs": [
        {
          "name": "",
          "type": "address"
        }
      ],
      "payable": false,
      "stateMutability": "view",
      "type": "function"
    },
    {
      "inputs": [
        {
          "name": "_blueprint",
          "type": "address"
        }
      ],
      "payable": false,
      "stateMutability": "nonpayable",
      "type": "constructor"
    },
    {
      "anonymous": false,
      "inputs": [
        {
          "indexed": true,
          "name": "creator",
          "type": "address"
        },
        {
          "indexed": false,
          "name": "recurringPayment",
          "type": "address"
        }
      ],
      "name": "CreatePayment_event",
      "type": "event"
    },
    {
      "anonymous": false,
      "inputs": [
        {
          "indexed": true,
          "name": "target",
          "type": "address"
        },
        {
          "indexed": false,
          "name": "clone",
          "type": "address"
        }
      ],
      "name": "CloneCreated",
      "type": "event"
    },
    {
      "constant": false,
      "inputs": [
        {
          "name": "delegate",
          "type": "address"
        },
        {
          "name": "wallet",
          "type": "address"
        },
        {
          "name": "token",
          "type": "address"
        },
        {
          "name": "recipient",
          "type": "address"
        },
        {
          "name": "paymentAmount",
          "type": "uint256"
        }
      ],
      "name": "createRecurringPayment",
      "outputs": [
        {
          "name": "paymentTask",
          "type": "address"
        }
      ],
      "payable": false,
      "stateMutability": "nonpayable",
      "type": "function"
    }
  ],
  "bytecode": "0x608060405234801561001057600080fd5b5060405160208061058d83398101806040528101908080519060200190929190505050806000806101000a81548173ffffffffffffffffffffffffffffffffffffffff021916908373ffffffffffffffffffffffffffffffffffffffff1602179055505061050a806100836000396000f30060806040526004361061004c576000357c0100000000000000000000000000000000000000000000000000000000900463ffffffff16806387a3fefd14610051578063c05efa151461013e575b600080fd5b34801561005d57600080fd5b506100fc600480360381019080803573ffffffffffffffffffffffffffffffffffffffff169060200190929190803573ffffffffffffffffffffffffffffffffffffffff169060200190929190803573ffffffffffffffffffffffffffffffffffffffff169060200190929190803573ffffffffffffffffffffffffffffffffffffffff16906020019092919080359060200190929190505050610195565b604051808273ffffffffffffffffffffffffffffffffffffffff1673ffffffffffffffffffffffffffffffffffffffff16815260200191505060405180910390f35b34801561014a57600080fd5b5061015361039d565b604051808273ffffffffffffffffffffffffffffffffffffffff1673ffffffffffffffffffffffffffffffffffffffff16815260200191505060405180910390f35b60006101c16000809054906101000a900473ffffffffffffffffffffffffffffffffffffffff166103c2565b90508073ffffffffffffffffffffffffffffffffffffffff1663f7013ef687878787876040518663ffffffff167c0100000000000000000000000000000000000000000000000000000000028152600401808673ffffffffffffffffffffffffffffffffffffffff1673ffffffffffffffffffffffffffffffffffffffff1681526020018573ffffffffffffffffffffffffffffffffffffffff1673ffffffffffffffffffffffffffffffffffffffff1681526020018473ffffffffffffffffffffffffffffffffffffffff1673ffffffffffffffffffffffffffffffffffffffff1681526020018373ffffffffffffffffffffffffffffffffffffffff1673ffffffffffffffffffffffffffffffffffffffff16815260200182815260200195505050505050600060405180830381600087803b15801561030257600080fd5b505af1158015610316573d6000803e3d6000fd5b505050503373ffffffffffffffffffffffffffffffffffffffff167f56febe278ca3b7ac6ad996f92d3a5effe19a9d86540d85080990552f2aa8bb1382604051808273ffffffffffffffffffffffffffffffffffffffff1673ffffffffffffffffffffffffffffffffffffffff16815260200191505060405180910390a295945050505050565b6000809054906101000a900473ffffffffffffffffffffffffffffffffffffffff1681565b60006060600080606060405190810160405280603f81526020017f600034603b57603080600f833981f36000368180378080368173bebebebebebe81526020017fbebebebebebebebebebebebebebe5af43d82803e15602c573d90f35b3d90fd008152509250846c01000000000000000000000000029150600090505b60148110156104c757818160148110151561045657fe5b1a7f0100000000000000000000000000000000000000000000000000000000000000028382601a0181518110151561048a57fe5b9060200101907effffffffffffffffffffffffffffffffffffffffffffffffffffffffffffff1916908160001a905350808060010191505061043f565b82516020840181816000f0955050505050509190505600a165627a7a723058204d30fac1a51a9e98cd2c5eb45dc08d3f35616034abc75b50187f660b2e13e9970029",
  "source": "pragma solidity ^0.4.23;\r\n\r\nimport \"../../external/CloneFactory.sol\";\r\nimport \"../../Interfaces.sol\";\r\nimport \"./RecurringPayment.sol\";\r\n\r\ncontract RecurringPaymentFactory is CloneFactory {\r\n\r\n    RecurringPayment public blueprint;\r\n\r\n    constructor (RecurringPayment _blueprint) public {\r\n        blueprint = _blueprint;\r\n    }\r\n\r\n    function createRecurringPayment (\r\n        IFuturePaymentDelegate delegate,\r\n        IDelegatedWallet wallet,\r\n        address token,\r\n        address recipient,\r\n        uint paymentAmount\r\n    ) public returns (RecurringPayment paymentTask) {\r\n        paymentTask = RecurringPayment(createClone(blueprint));\r\n        paymentTask.initialize(\r\n            delegate,       // the wallet that executes the payment\r\n            wallet,         // supplies delegates that can cancel the task\r\n            token,          // the token to use when making a payment\r\n            recipient,      // the recipient of the payment\r\n            paymentAmount   // how much of the token to send each payment\r\n        );\r\n\r\n        emit CreatePayment_event(msg.sender, paymentTask);\r\n    }\r\n\r\n    event CreatePayment_event (address indexed creator, RecurringPayment recurringPayment);\r\n    \r\n}\r\n",
  "sourcePath": "C:\\Users\\My\\Documents\\GitHub\\everchain-project\\recurring-alarm-clock\\contracts\\examples\\recurring-payment\\RecurringPaymentFactory.sol",
  "compiler": {
    "name": "solc",
    "version": "0.4.24+commit.e67f0147.Emscripten.clang"
  },
  "schemaVersion": "2.0.1",
  "updatedAt": "2018-10-13T04:35:07.886Z"
}