{
  "contractName": "RecurringAlarmClockFactory",
  "abi": [
    {
      "constant": true,
      "inputs": [],
      "name": "ethereumAlarmClock",
      "outputs": [
        {
          "name": "",
          "type": "address"
        }
      ],
      "payable": false,
      "stateMutability": "view",
      "type": "function"
    },
    {
      "constant": true,
      "inputs": [],
      "name": "blueprint",
      "outputs": [
        {
          "name": "",
          "type": "address"
        }
      ],
      "payable": false,
      "stateMutability": "view",
      "type": "function"
    },
    {
      "inputs": [
        {
          "name": "_ethereumAlarmClock",
          "type": "address"
        },
        {
          "name": "_blueprint",
          "type": "address"
        }
      ],
      "payable": false,
      "stateMutability": "nonpayable",
      "type": "constructor"
    },
    {
      "anonymous": false,
      "inputs": [
        {
          "indexed": true,
          "name": "caller",
          "type": "address"
        },
        {
          "indexed": false,
          "name": "alarmClock",
          "type": "address"
        }
      ],
      "name": "AlarmClock_event",
      "type": "event"
    },
    {
      "anonymous": false,
      "inputs": [
        {
          "indexed": true,
          "name": "target",
          "type": "address"
        },
        {
          "indexed": false,
          "name": "clone",
          "type": "address"
        }
      ],
      "name": "CloneCreated",
      "type": "event"
    },
    {
      "constant": false,
      "inputs": [
        {
          "name": "delegate",
          "type": "address"
        },
        {
          "name": "wallet",
          "type": "address"
        },
        {
          "name": "gasPriceOracle",
          "type": "address"
        },
        {
          "name": "priorityCaller",
          "type": "address"
        },
        {
          "name": "task",
          "type": "address"
        },
        {
          "name": "callData",
          "type": "bytes"
        },
        {
          "name": "recurringAlarmClockOptions",
          "type": "uint256[3]"
        },
        {
          "name": "ethereumAlarmClockOptions",
          "type": "uint256[10]"
        }
      ],
      "name": "createRecurringAlarmClock",
      "outputs": [
        {
          "name": "recurringAlarmClock",
          "type": "address"
        }
      ],
      "payable": false,
      "stateMutability": "nonpayable",
      "type": "function"
    }
  ],
  "bytecode": "0x608060405234801561001057600080fd5b506040516040806109b78339810180604052604081101561003057600080fd5b810190808051906020019092919080519060200190929190505050816000806101000a81548173ffffffffffffffffffffffffffffffffffffffff021916908373ffffffffffffffffffffffffffffffffffffffff16021790555080600160006101000a81548173ffffffffffffffffffffffffffffffffffffffff021916908373ffffffffffffffffffffffffffffffffffffffff16021790555050506108da806100dd6000396000f3fe608060405260043610610057576000357c0100000000000000000000000000000000000000000000000000000000900463ffffffff1680630738c8921461005c57806321363e5714610288578063c05efa15146102df575b600080fd5b34801561006857600080fd5b50610246600480360361026081101561008057600080fd5b81019080803573ffffffffffffffffffffffffffffffffffffffff169060200190929190803573ffffffffffffffffffffffffffffffffffffffff169060200190929190803573ffffffffffffffffffffffffffffffffffffffff169060200190929190803573ffffffffffffffffffffffffffffffffffffffff169060200190929190803573ffffffffffffffffffffffffffffffffffffffff1690602001909291908035906020019064010000000081111561013d57600080fd5b82018360208201111561014f57600080fd5b8035906020019184600183028401116401000000008311171561017157600080fd5b91908080601f016020809104026020016040519081016040528093929190818152602001838380828437600081840152601f19601f82011690508083019250505050505050919291929080606001906003806020026040519081016040528092919082600360200280828437600081840152601f19601f8201169050808301925050505050509192919290806101400190600a806020026040519081016040528092919082600a60200280828437600081840152601f19601f8201169050808301925050505050509192919290505050610336565b604051808273ffffffffffffffffffffffffffffffffffffffff1673ffffffffffffffffffffffffffffffffffffffff16815260200191505060405180910390f35b34801561029457600080fd5b5061029d610748565b604051808273ffffffffffffffffffffffffffffffffffffffff1673ffffffffffffffffffffffffffffffffffffffff16815260200191505060405180910390f35b3480156102eb57600080fd5b506102f461076d565b604051808273ffffffffffffffffffffffffffffffffffffffff1673ffffffffffffffffffffffffffffffffffffffff16815260200191505060405180910390f35b600080610364600160009054906101000a900473ffffffffffffffffffffffffffffffffffffffff16610793565b90508091508973ffffffffffffffffffffffffffffffffffffffff1663316bef98836040518263ffffffff167c0100000000000000000000000000000000000000000000000000000000028152600401808273ffffffffffffffffffffffffffffffffffffffff1673ffffffffffffffffffffffffffffffffffffffff168152602001915050600060405180830381600087803b15801561040457600080fd5b505af1158015610418573d6000803e3d6000fd5b505050508173ffffffffffffffffffffffffffffffffffffffff1663b64710ef6000809054906101000a900473ffffffffffffffffffffffffffffffffffffffff168c8c8c8c8c8c8c8c6040518a63ffffffff167c0100000000000000000000000000000000000000000000000000000000028152600401808a73ffffffffffffffffffffffffffffffffffffffff1673ffffffffffffffffffffffffffffffffffffffff1681526020018973ffffffffffffffffffffffffffffffffffffffff1673ffffffffffffffffffffffffffffffffffffffff1681526020018873ffffffffffffffffffffffffffffffffffffffff1673ffffffffffffffffffffffffffffffffffffffff1681526020018773ffffffffffffffffffffffffffffffffffffffff1673ffffffffffffffffffffffffffffffffffffffff1681526020018673ffffffffffffffffffffffffffffffffffffffff1673ffffffffffffffffffffffffffffffffffffffff1681526020018573ffffffffffffffffffffffffffffffffffffffff1673ffffffffffffffffffffffffffffffffffffffff1681526020018060200184600360200280838360005b838110156105e85780820151818401526020810190506105cd565b5050505090500183600a60200280838360005b838110156106165780820151818401526020810190506105fb565b50505050905001828103825285818151815260200191508051906020019080838360005b8381101561065557808201518184015260208101905061063a565b50505050905090810190601f1680156106825780820380516001836020036101000a031916815260200191505b509a5050505050505050505050600060405180830381600087803b1580156106a957600080fd5b505af11580156106bd573d6000803e3d6000fd5b505050503373ffffffffffffffffffffffffffffffffffffffff167f2dc5e1c014138ff75f9aaa8fcea2a414b754daca19cb3e3a4b9639f269a9640f83604051808273ffffffffffffffffffffffffffffffffffffffff1673ffffffffffffffffffffffffffffffffffffffff16815260200191505060405180910390a25098975050505050505050565b6000809054906101000a900473ffffffffffffffffffffffffffffffffffffffff1681565b600160009054906101000a900473ffffffffffffffffffffffffffffffffffffffff1681565b600060608060405190810160405280603f81526020017f600034603b57603080600f833981f36000368180378080368173bebebebebebe81526020017fbebebebebebebebebebebebebebe5af43d82803e15602c573d90f35b3d90fd0081525090506000836c0100000000000000000000000002905060008090505b601481101561089757818160148110151561082657fe5b1a7f0100000000000000000000000000000000000000000000000000000000000000028382601a0181518110151561085a57fe5b9060200101907effffffffffffffffffffffffffffffffffffffffffffffffffffffffffffff1916908160001a905350808060010191505061080f565b5081516020830181816000f094505050505091905056fea165627a7a72305820c97b1347192da9d06eec7cde818337580965de350fbf167f3a58939ee0921be70029",
  "source": "pragma solidity ^0.5.0;\r\n\r\nimport \"./external/CloneFactory.sol\";\r\nimport \"./RecurringAlarmClock.sol\";\r\nimport \"./Interfaces.sol\";\r\n\r\n/// @title RecurringAlarmClockFactory Contract\r\n/// @author Joseph Reed\r\n/// @dev This contract's goal is to create a recurring alarm clocks\r\ncontract RecurringAlarmClockFactory is CloneFactory {\r\n\r\n    address public ethereumAlarmClock;  // The contract responsible for deploying decentralized alarms\r\n    address public blueprint;     // The recurring alarm clock blueprint to supply the clone factory\r\n\r\n    /// @notice Constructor to create a DelegatedWalletFactory\r\n    /// @param _ethereumAlarmClock The contract responsible for deploying decentralized alarms \r\n    /// @param _blueprint The recurring alarm clock blueprint \r\n    constructor (\r\n        address _ethereumAlarmClock, \r\n        address _blueprint\r\n    ) public {\r\n        ethereumAlarmClock = _ethereumAlarmClock;\r\n        blueprint = _blueprint;\r\n    }\r\n\r\n    /// @notice Creates a delegated wallet with the owner set to 'owner' and no delegates\r\n    /// @param delegate The delegate from which to pull alarm payments\r\n    /// @param wallet The funding wallet, change address, and owner of the deployed alarms\r\n    /// @param priorityCaller The priority caller receives a base amount of the alarm fee regardless of if they call the alarm.\r\n    /// @param recurringAlarmClockOptions The options used for creating the recurring alarm clock\r\n    /// @param ethereumAlarmClockOptions The options used for creating decentralized alarms.\r\n    /// @return The recurring alarm clock contract\r\n    function createRecurringAlarmClock(\r\n        IPaymentDelegate delegate,\r\n        IDelegatedWallet wallet,\r\n        IUintFeed gasPriceOracle,\r\n        address priorityCaller,\r\n        address task,\r\n        bytes memory callData,\r\n        uint[3] memory recurringAlarmClockOptions,\r\n        uint[10] memory ethereumAlarmClockOptions\r\n    ) public returns (RecurringAlarmClock recurringAlarmClock) {\r\n        // see https://solidity.readthedocs.io/en/v0.5.0/050-breaking-changes.html?highlight=address_make_payable for converting to payable addresses\r\n        address payable clone = address(uint160(createClone(blueprint)));\r\n        recurringAlarmClock = RecurringAlarmClock(clone);\r\n\r\n        delegate.schedule(recurringAlarmClock);\r\n\r\n        recurringAlarmClock.initialize(\r\n            RequestFactoryInterface(ethereumAlarmClock),\r\n            delegate,\r\n            wallet,\r\n            gasPriceOracle,\r\n            priorityCaller,\r\n            task,\r\n            callData,\r\n            recurringAlarmClockOptions,\r\n            ethereumAlarmClockOptions\r\n        );\r\n\r\n        emit AlarmClock_event(msg.sender, address(recurringAlarmClock));\r\n    }\r\n\r\n    event AlarmClock_event(address indexed caller, address alarmClock);\r\n\r\n}\r\n",
  "sourcePath": "C:/Users/My/Documents/GitHub/everchain-project/recurring-alarm-clock/contracts/RecurringAlarmClockFactory.sol",
  "compiler": {
    "name": "solc",
    "version": "0.5.0+commit.1d4f565a.Emscripten.clang"
  },
  "schemaVersion": "3.0.0-beta.2",
  "updatedAt": "2018-11-25T22:53:41.276Z",
  "devdoc": {
    "details": "This contract's goal is to create a recurring alarm clocks",
    "methods": {
      "constructor": {
        "params": {
          "_blueprint": "The recurring alarm clock blueprint "
        }
      },
      "createRecurringAlarmClock(address,address,address,address,address,bytes,uint256[3],uint256[10])": {
        "return": "The recurring alarm clock contract"
      }
    }
  },
  "userdoc": {
    "methods": {}
  }
}