{
  "contractName": "RecurringAlarmClock",
  "abi": [
    {
      "constant": true,
      "inputs": [],
      "name": "priorityCaller",
      "outputs": [
        {
          "name": "",
          "type": "address"
        }
      ],
      "payable": false,
      "stateMutability": "view",
      "type": "function"
    },
    {
      "constant": true,
      "inputs": [],
      "name": "task",
      "outputs": [
        {
          "name": "",
          "type": "address"
        }
      ],
      "payable": false,
      "stateMutability": "view",
      "type": "function"
    },
    {
      "constant": true,
      "inputs": [],
      "name": "blockStarted",
      "outputs": [
        {
          "name": "",
          "type": "uint256"
        }
      ],
      "payable": false,
      "stateMutability": "view",
      "type": "function"
    },
    {
      "constant": true,
      "inputs": [],
      "name": "currentInterval",
      "outputs": [
        {
          "name": "",
          "type": "uint256"
        }
      ],
      "payable": false,
      "stateMutability": "view",
      "type": "function"
    },
    {
      "constant": true,
      "inputs": [
        {
          "name": "",
          "type": "uint256"
        }
      ],
      "name": "eacOptions",
      "outputs": [
        {
          "name": "",
          "type": "uint256"
        }
      ],
      "payable": false,
      "stateMutability": "view",
      "type": "function"
    },
    {
      "constant": true,
      "inputs": [],
      "name": "eac",
      "outputs": [
        {
          "name": "",
          "type": "address"
        }
      ],
      "payable": false,
      "stateMutability": "view",
      "type": "function"
    },
    {
      "constant": true,
      "inputs": [],
      "name": "wallet",
      "outputs": [
        {
          "name": "",
          "type": "address"
        }
      ],
      "payable": false,
      "stateMutability": "view",
      "type": "function"
    },
    {
      "constant": true,
      "inputs": [],
      "name": "maxIntervals",
      "outputs": [
        {
          "name": "",
          "type": "uint256"
        }
      ],
      "payable": false,
      "stateMutability": "view",
      "type": "function"
    },
    {
      "constant": true,
      "inputs": [],
      "name": "alarm",
      "outputs": [
        {
          "name": "",
          "type": "address"
        }
      ],
      "payable": false,
      "stateMutability": "view",
      "type": "function"
    },
    {
      "constant": true,
      "inputs": [],
      "name": "delegate",
      "outputs": [
        {
          "name": "",
          "type": "address"
        }
      ],
      "payable": false,
      "stateMutability": "view",
      "type": "function"
    },
    {
      "constant": true,
      "inputs": [],
      "name": "safetyMultiplier",
      "outputs": [
        {
          "name": "",
          "type": "uint256"
        }
      ],
      "payable": false,
      "stateMutability": "view",
      "type": "function"
    },
    {
      "constant": true,
      "inputs": [],
      "name": "period",
      "outputs": [
        {
          "name": "",
          "type": "uint256"
        }
      ],
      "payable": false,
      "stateMutability": "view",
      "type": "function"
    },
    {
      "constant": true,
      "inputs": [],
      "name": "token",
      "outputs": [
        {
          "name": "",
          "type": "address"
        }
      ],
      "payable": false,
      "stateMutability": "view",
      "type": "function"
    },
    {
      "payable": true,
      "stateMutability": "payable",
      "type": "fallback"
    },
    {
      "anonymous": false,
      "inputs": [
        {
          "indexed": true,
          "name": "sender",
          "type": "address"
        },
        {
          "indexed": false,
          "name": "amount",
          "type": "uint256"
        }
      ],
      "name": "Deposit_event",
      "type": "event"
    },
    {
      "anonymous": false,
      "inputs": [
        {
          "indexed": false,
          "name": "sender",
          "type": "address"
        },
        {
          "indexed": false,
          "name": "alarm",
          "type": "address"
        }
      ],
      "name": "ValidRequest_event",
      "type": "event"
    },
    {
      "anonymous": false,
      "inputs": [
        {
          "indexed": false,
          "name": "params",
          "type": "bool[6]"
        }
      ],
      "name": "InvalidRequest_event",
      "type": "event"
    },
    {
      "constant": false,
      "inputs": [
        {
          "name": "_eac",
          "type": "address"
        },
        {
          "name": "_delegate",
          "type": "address"
        },
        {
          "name": "_wallet",
          "type": "address"
        },
        {
          "name": "_priorityCaller",
          "type": "address"
        },
        {
          "name": "_token",
          "type": "address"
        },
        {
          "name": "_recurringAlarmClockOptions",
          "type": "uint256[3]"
        },
        {
          "name": "_ethereumAlarmClockOptions",
          "type": "uint256[10]"
        }
      ],
      "name": "initialize",
      "outputs": [],
      "payable": false,
      "stateMutability": "nonpayable",
      "type": "function"
    },
    {
      "constant": false,
      "inputs": [
        {
          "name": "_task",
          "type": "address"
        }
      ],
      "name": "start",
      "outputs": [],
      "payable": false,
      "stateMutability": "nonpayable",
      "type": "function"
    },
    {
      "constant": false,
      "inputs": [],
      "name": "cancel",
      "outputs": [],
      "payable": false,
      "stateMutability": "nonpayable",
      "type": "function"
    },
    {
      "constant": true,
      "inputs": [],
      "name": "amount",
      "outputs": [
        {
          "name": "",
          "type": "uint256"
        }
      ],
      "payable": false,
      "stateMutability": "pure",
      "type": "function"
    }
  ],
  "bytecode": "0x608060405234801561001057600080fd5b506116c9806100206000396000f3006080604052600436106100f1576000357c0100000000000000000000000000000000000000000000000000000000900463ffffffff1680631fd3ea521461011a5780633283f6411461017157806333961337146101c8578063363487bc146101f3578063440c44eb1461021e57806349ef87631461025f578063521eb273146102b6578063593853201461030d57806386ab53e51461042f578063aa8c217c1461045a578063bb7e8c2814610485578063c89e4361146104dc578063d57f1d9b14610533578063dd0b281e1461055e578063ea8a1af0146105a1578063ef78d4fd146105b8578063fc0c546a146105e3575b600073ffffffffffffffffffffffffffffffffffffffff16600960009054906101000a90505050005b34801561012657600080fd5b5061012f61063a565b604051808273ffffffffffffffffffffffffffffffffffffffff1673ffffffffffffffffffffffffffffffffffffffff16815260200191505060405180910390f35b34801561017d57600080fd5b50610186610660565b604051808273ffffffffffffffffffffffffffffffffffffffff1673ffffffffffffffffffffffffffffffffffffffff16815260200191505060405180910390f35b3480156101d457600080fd5b506101dd610686565b6040518082815260200191505060405180910390f35b3480156101ff57600080fd5b5061020861068c565b6040518082815260200191505060405180910390f35b34801561022a57600080fd5b5061024960048036038101908080359060200190929190505050610692565b6040518082815260200191505060405180910390f35b34801561026b57600080fd5b506102746106ac565b604051808273ffffffffffffffffffffffffffffffffffffffff1673ffffffffffffffffffffffffffffffffffffffff16815260200191505060405180910390f35b3480156102c257600080fd5b506102cb6106d2565b604051808273ffffffffffffffffffffffffffffffffffffffff1673ffffffffffffffffffffffffffffffffffffffff16815260200191505060405180910390f35b34801561031957600080fd5b5061042d600480360381019080803573ffffffffffffffffffffffffffffffffffffffff169060200190929190803573ffffffffffffffffffffffffffffffffffffffff169060200190929190803573ffffffffffffffffffffffffffffffffffffffff169060200190929190803573ffffffffffffffffffffffffffffffffffffffff169060200190929190803573ffffffffffffffffffffffffffffffffffffffff1690602001909291908060600190600380602002604051908101604052809291908260036020028082843782019150505050509192919290806101400190600a806020026040519081016040528092919082600a60200280828437820191505050505091929192905050506106f8565b005b34801561043b57600080fd5b5061044461094e565b6040518082815260200191505060405180910390f35b34801561046657600080fd5b5061046f610954565b6040518082815260200191505060405180910390f35b34801561049157600080fd5b5061049a610963565b604051808273ffffffffffffffffffffffffffffffffffffffff1673ffffffffffffffffffffffffffffffffffffffff16815260200191505060405180910390f35b3480156104e857600080fd5b506104f1610989565b604051808273ffffffffffffffffffffffffffffffffffffffff1673ffffffffffffffffffffffffffffffffffffffff16815260200191505060405180910390f35b34801561053f57600080fd5b506105486109af565b6040518082815260200191505060405180910390f35b34801561056a57600080fd5b5061059f600480360381019080803573ffffffffffffffffffffffffffffffffffffffff1690602001909291905050506109b5565b005b3480156105ad57600080fd5b506105b6610aa8565b005b3480156105c457600080fd5b506105cd610d9c565b6040518082815260200191505060405180910390f35b3480156105ef57600080fd5b506105f8610da2565b604051808273ffffffffffffffffffffffffffffffffffffffff1673ffffffffffffffffffffffffffffffffffffffff16815260200191505060405180910390f35b600760009054906101000a900473ffffffffffffffffffffffffffffffffffffffff1681565b600660009054906101000a900473ffffffffffffffffffffffffffffffffffffffff1681565b60025481565b60175481565b600a81600a811015156106a157fe5b016000915090505481565b600360009054906101000a900473ffffffffffffffffffffffffffffffffffffffff1681565b600560009054906101000a900473ffffffffffffffffffffffffffffffffffffffff1681565b6000600254141515610798576040517f08c379a00000000000000000000000000000000000000000000000000000000081526004018080602001828103825260368152602001807f636f6e74726163742063616e206f6e6c79206265206265666f7265207468652081526020017f616c61726d20636c6f636b20697320737461727465640000000000000000000081525060400191505060405180910390fd5b84600560006101000a81548173ffffffffffffffffffffffffffffffffffffffff021916908373ffffffffffffffffffffffffffffffffffffffff16021790555085600460006101000a81548173ffffffffffffffffffffffffffffffffffffffff021916908373ffffffffffffffffffffffffffffffffffffffff16021790555086600360006101000a81548173ffffffffffffffffffffffffffffffffffffffff021916908373ffffffffffffffffffffffffffffffffffffffff16021790555083600760006101000a81548173ffffffffffffffffffffffffffffffffffffffff021916908373ffffffffffffffffffffffffffffffffffffffff16021790555082600860006101000a81548173ffffffffffffffffffffffffffffffffffffffff021916908373ffffffffffffffffffffffffffffffffffffffff16021790555080600a90600a6108ee9291906115ce565b508160006003811015156108fe57fe5b602002015160148190555081600160038110151561091857fe5b602002015160158190555081600260038110151561093257fe5b6020020151601681905550600160178190555050505050505050565b60165481565b6000662386f26fc10000905090565b600960009054906101000a900473ffffffffffffffffffffffffffffffffffffffff1681565b600460009054906101000a900473ffffffffffffffffffffffffffffffffffffffff1681565b60145481565b6000600254141515610a55576040517f08c379a00000000000000000000000000000000000000000000000000000000081526004018080602001828103825260348152602001807f636f6e74726163742063616e206f6e6c7920626520737461727465642077686581526020017f6e2074686520616c61726d20697320656d70747900000000000000000000000081525060400191505060405180910390fd5b80600660006101000a81548173ffffffffffffffffffffffffffffffffffffffff021916908373ffffffffffffffffffffffffffffffffffffffff16021790555043600281905550610aa5610dc8565b50565b600560009054906101000a900473ffffffffffffffffffffffffffffffffffffffff1673ffffffffffffffffffffffffffffffffffffffff166307779627336040518263ffffffff167c0100000000000000000000000000000000000000000000000000000000028152600401808273ffffffffffffffffffffffffffffffffffffffff1673ffffffffffffffffffffffffffffffffffffffff168152602001915050602060405180830381600087803b158015610b6557600080fd5b505af1158015610b79573d6000803e3d6000fd5b505050506040513d6020811015610b8f57600080fd5b81019080805190602001909291905050501515610c3a576040517f08c379a000000000000000000000000000000000000000000000000000000000815260040180806020018281038252602c8152602001807f6f6e6c79207468652064656c65676174652063616e2063616e63656c2074686581526020017f20616c61726d20636c6f636b000000000000000000000000000000000000000081525060400191505060405180910390fd5b600460009054906101000a900473ffffffffffffffffffffffffffffffffffffffff1673ffffffffffffffffffffffffffffffffffffffff1663bef4876b6040518163ffffffff167c0100000000000000000000000000000000000000000000000000000000028152600401602060405180830381600087803b158015610cc057600080fd5b505af1158015610cd4573d6000803e3d6000fd5b505050506040513d6020811015610cea57600080fd5b810190808051906020019092919050505050600660009054906101000a900473ffffffffffffffffffffffffffffffffffffffff1673ffffffffffffffffffffffffffffffffffffffff1663ea8a1af06040518163ffffffff167c0100000000000000000000000000000000000000000000000000000000028152600401600060405180830381600087803b158015610d8257600080fd5b505af1158015610d96573d6000803e3d6000fd5b50505050565b60155481565b600860009054906101000a900473ffffffffffffffffffffffffffffffffffffffff1681565b6000806000610dd561160e565b610ddd611631565b610de5611655565b600460009054906101000a900473ffffffffffffffffffffffffffffffffffffffff1673ffffffffffffffffffffffffffffffffffffffff1663beabacc8600860009054906101000a900473ffffffffffffffffffffffffffffffffffffffff1630610e4f610954565b6040518463ffffffff167c0100000000000000000000000000000000000000000000000000000000028152600401808473ffffffffffffffffffffffffffffffffffffffff1673ffffffffffffffffffffffffffffffffffffffff1681526020018373ffffffffffffffffffffffffffffffffffffffff1673ffffffffffffffffffffffffffffffffffffffff1681526020018281526020019350505050602060405180830381600087803b158015610f0757600080fd5b505af1158015610f1b573d6000803e3d6000fd5b505050506040513d6020811015610f3157600080fd5b8101908080519060200190929190505050503073ffffffffffffffffffffffffffffffffffffffff16319550606486811515610f6957fe5b0494508486039350606060405190810160405280600560009054906101000a900473ffffffffffffffffffffffffffffffffffffffff1673ffffffffffffffffffffffffffffffffffffffff1673ffffffffffffffffffffffffffffffffffffffff168152602001600760009054906101000a900473ffffffffffffffffffffffffffffffffffffffff1673ffffffffffffffffffffffffffffffffffffffff1673ffffffffffffffffffffffffffffffffffffffff1681526020013073ffffffffffffffffffffffffffffffffffffffff1673ffffffffffffffffffffffffffffffffffffffff16815250925061018060405190810160405280868152602001858152602001600a6000600a8110151561108057fe5b01548152602001600a6001600a8110151561109757fe5b01548152602001600a6002600a811015156110ae57fe5b01548152602001600a6003600a811015156110c557fe5b01548152602001600a6004600a811015156110dc57fe5b01548152602001600a6005600a811015156110f357fe5b01548152602001600a6006600a8110151561110a57fe5b01548152602001600a6007600a8110151561112157fe5b01548152602001600a6008600a8110151561113857fe5b01548152602001600a6009600a8110151561114f57fe5b01548152509150600360009054906101000a900473ffffffffffffffffffffffffffffffffffffffff1673ffffffffffffffffffffffffffffffffffffffff16631e35ff058484896040518463ffffffff167c01000000000000000000000000000000000000000000000000000000000281526004018084600360200280838360005b838110156111ed5780820151818401526020810190506111d2565b5050505090500183600c60200280838360005b8381101561121b578082015181840152602081019050611200565b50505050905001828152602001935050505060c060405180830381600087803b15801561124757600080fd5b505af115801561125b573d6000803e3d6000fd5b505050506040513d601f19601f8201168201806040525060c081101561128057600080fd5b8101908091905050905080600060068110151561129957fe5b602002015180156112ba57508060016006811015156112b457fe5b60200201515b80156112d657508060026006811015156112d057fe5b60200201515b80156112f257508060036006811015156112ec57fe5b60200201515b801561130e575080600460068110151561130857fe5b60200201515b801561132a575080600560068110151561132457fe5b60200201515b1561156657600360009054906101000a900473ffffffffffffffffffffffffffffffffffffffff1673ffffffffffffffffffffffffffffffffffffffff1663d7ceab4c8785856040518463ffffffff167c01000000000000000000000000000000000000000000000000000000000281526004018083600360200280838360005b838110156113c65780820151818401526020810190506113ab565b5050505090500182600c60200280838360005b838110156113f45780820151818401526020810190506113d9565b505050509050018060200182810382526000815260200160200193505050506020604051808303818588803b15801561142c57600080fd5b505af1158015611440573d6000803e3d6000fd5b50505050506040513d602081101561145757600080fd5b8101908080519060200190929190505050600960006101000a81548173ffffffffffffffffffffffffffffffffffffffff021916908373ffffffffffffffffffffffffffffffffffffffff1602179055507f673bacbd542d3e65fd90fc7fc8631e3a9bdc4ae4ffad940781805f85596c172133600960009054906101000a900473ffffffffffffffffffffffffffffffffffffffff16604051808373ffffffffffffffffffffffffffffffffffffffff1673ffffffffffffffffffffffffffffffffffffffff1681526020018273ffffffffffffffffffffffffffffffffffffffff1673ffffffffffffffffffffffffffffffffffffffff1681526020019250505060405180910390a16115c6565b7febec2a47d1b8a4f2300d8b1a3f76af4035584f4667e3a47730f7c47eeb4675af816040518082600660200280838360005b838110156115b3578082015181840152602081019050611598565b5050505090500191505060405180910390a15b505050505050565b82600a81019282156115fd579160200282015b828111156115fc5782518255916020019190600101906115e1565b5b50905061160a9190611678565b5090565b606060405190810160405280600390602082028038833980820191505090505090565b61018060405190810160405280600c90602082028038833980820191505090505090565b60c060405190810160405280600690602082028038833980820191505090505090565b61169a91905b8082111561169657600081600090555060010161167e565b5090565b905600a165627a7a72305820ac0c01414c238d2cbfbf7600d86f94334d7c0052165e973ee2bec6a6993308a70029",
  "source": "pragma solidity ^0.4.23;\r\n\r\nimport \"./external/EthereumAlarmClock.sol\";\r\nimport \"./Interfaces.sol\";\r\n\r\ncontract RecurringAlarmClock is IRecurringAlarmClock {\r\n\r\n    uint public blockStarted;\r\n    \r\n    RequestFactoryInterface public eac;         // Interface provided by the Ethereum Alarm Clock\r\n    IFuturePaymentDelegate public delegate;     // The delegate that pulls funds for each alarm\r\n    IDelegatedWallet public wallet;             // The address which owns the alarm and collects any leftover funds\r\n    ITask public task;                          // The task to execute when the alarm is triggered\r\n    address public priorityCaller;              // The priority recipient of part of the alarm deposit\r\n    address public token;                       // The token pulled from the delegate\r\n    address public alarm;                       // The next scheduled alarm contract\r\n\r\n    uint[10] public eacOptions;                 // The options used when setting an alarm using the Ethereum Alarm Clock\r\n    uint public safetyMultiplier;               // The multiplier to use when calculating the alarm cost\r\n    uint public period;                         // The amount of time between each alarm\r\n    uint public maxIntervals;                   // The number of times this alarm will go off\r\n    uint public currentInterval;                // Keeps track of how many alarms have been called\r\n\r\n    function initialize (\r\n        RequestFactoryInterface _eac,\r\n        IFuturePaymentDelegate _delegate,\r\n        IDelegatedWallet _wallet,\r\n        address _priorityCaller,\r\n        address _token,\r\n        uint[3] _recurringAlarmClockOptions,\r\n        uint[10] _ethereumAlarmClockOptions\r\n    ) public {\r\n        require(blockStarted == 0, \"contract can only be before the alarm clock is started\");\r\n\r\n        wallet = _wallet;\r\n        delegate = _delegate;\r\n        eac = _eac;\r\n        priorityCaller = _priorityCaller;\r\n        token = _token;\r\n\r\n        eacOptions = _ethereumAlarmClockOptions;\r\n        safetyMultiplier = _recurringAlarmClockOptions[0];\r\n        period = _recurringAlarmClockOptions[1];\r\n        maxIntervals = _recurringAlarmClockOptions[2];\r\n        currentInterval = 1;\r\n    }\r\n\r\n    function start (ITask _task) public {\r\n        require(blockStarted == 0, \"contract can only be started when the alarm is empty\");\r\n        \r\n        task = _task;\r\n        blockStarted = block.number;\r\n\r\n        scheduleAlarm();\r\n    }\r\n\r\n    function cancel () public onlyDelegates {\r\n        delegate.finished();\r\n        task.cancel();\r\n    }\r\n\r\n    function amount () public pure returns (uint) {\r\n        // uint gas = eacOptions[6];\r\n        // return tx.gasprice * gas * safetyMultiplier / 10^18;\r\n        return 0.01 ether;\r\n    }\r\n\r\n    function () public payable {\r\n        alarm == address(0x0);\r\n/*\r\n        if(msg.value == 0)\r\n            handleAlarmCall();\r\n        else\r\n            emit Deposit_event(msg.sender, msg.value);\r\n*/\r\n    }\r\n\r\n    function handleAlarmCall () internal {\r\n        require(msg.sender == address(alarm));\r\n        \r\n        bool complete = currentInterval == maxIntervals;\r\n        task.execute(complete); // ignore success or failure\r\n\r\n        if(!complete)\r\n            eacOptions[4] += period;\r\n\r\n        currentInterval++;\r\n        if(currentInterval <= maxIntervals)\r\n            scheduleAlarm();\r\n        else\r\n            alarm = address(0x0);\r\n\r\n        if(alarm == address(0x0)){\r\n            delegate.finished();\r\n            task.cancel();\r\n        }\r\n    }\r\n\r\n    function scheduleAlarm () internal {\r\n        delegate.transfer(token, this, amount());\r\n        \r\n        uint endowment = address(this).balance;    \r\n        uint priorityFee = endowment / 100;\r\n        uint callBounty = endowment - priorityFee;\r\n\r\n        address[3] memory addressOptions = [\r\n        /*  this,           // In the future, I'd like the owner address to equal this contract and keep the wallet as the change address */\r\n            wallet,         // Change from the alarm is sent to this address, also the account that can owns the alarm. \r\n            priorityCaller, // The priority fee is sent to this address\r\n            this            // The contract to call at execution\r\n        ];\r\n\r\n        uint[12] memory uintOptions = [\r\n            priorityFee,    // A fee that goes to the fee recipient\r\n            callBounty,     // The bounty for the account that triggers this alarm\r\n            eacOptions[0],  // claimWindowSize\r\n            eacOptions[1],  // freezePeriod\r\n            eacOptions[2],  // reservedWindowSize\r\n            eacOptions[3],  // 2 = Use timestamp based scheduling instead of blocks\r\n            eacOptions[4],  // The size of the execution window\r\n            eacOptions[5],  // The start of the execution window\r\n            eacOptions[6],  // The amount of gas to be sent with the transaction\r\n            eacOptions[7],  // The amount of ether to be sent\r\n            eacOptions[8],  // The minimum gas price for the alarm when called\r\n            eacOptions[9]   // The required deposit by the claimer\r\n        ];\r\n\r\n        bool[6] memory params = eac.validateRequestParams(\r\n            addressOptions,\r\n            uintOptions,\r\n            endowment\r\n        );\r\n\r\n        if(params[0] && params[1] && params[2] && params[3] && params[4] && params[5]){\r\n            alarm = eac.createValidatedRequest.value(endowment)(addressOptions, uintOptions, \"\");\r\n            emit ValidRequest_event(msg.sender, alarm);\r\n        } else {\r\n            emit InvalidRequest_event(params);\r\n        }\r\n    }\r\n\r\n    modifier onlyDelegates () {\r\n        require(wallet.isDelegate(msg.sender), \"only the delegate can cancel the alarm clock\");\r\n        _;\r\n    }\r\n    \r\n    event Deposit_event (address indexed sender, uint amount);\r\n    event ValidRequest_event (address sender, address alarm);\r\n    event InvalidRequest_event (bool[6] params);\r\n}\r\n",
  "sourcePath": "C:\\Users\\My\\Documents\\GitHub\\everchain-project\\recurring-alarm-clock\\contracts\\RecurringAlarmClock.sol",
  "compiler": {
    "name": "solc",
    "version": "0.4.24+commit.e67f0147.Emscripten.clang"
  },
  "schemaVersion": "2.0.1",
  "updatedAt": "2018-10-01T21:52:35.018Z"
}