{
  "contractName": "RecurringTransactionFactory",
  "abi": [
    {
      "constant": true,
      "inputs": [],
      "name": "blockCreated",
      "outputs": [
        {
          "name": "",
          "type": "uint256"
        }
      ],
      "payable": false,
      "stateMutability": "view",
      "type": "function",
      "signature": "0x4e989a4c"
    },
    {
      "constant": true,
      "inputs": [],
      "name": "EAC",
      "outputs": [
        {
          "name": "",
          "type": "address"
        }
      ],
      "payable": false,
      "stateMutability": "view",
      "type": "function",
      "signature": "0x6cf48a55"
    },
    {
      "constant": true,
      "inputs": [],
      "name": "blueprint",
      "outputs": [
        {
          "name": "",
          "type": "address"
        }
      ],
      "payable": false,
      "stateMutability": "view",
      "type": "function",
      "signature": "0xc05efa15"
    },
    {
      "constant": true,
      "inputs": [
        {
          "name": "",
          "type": "address"
        }
      ],
      "name": "created",
      "outputs": [
        {
          "name": "",
          "type": "bool"
        }
      ],
      "payable": false,
      "stateMutability": "view",
      "type": "function",
      "signature": "0xd42efd83"
    },
    {
      "inputs": [
        {
          "name": "_EAC",
          "type": "address"
        },
        {
          "name": "_blueprint",
          "type": "address"
        }
      ],
      "payable": false,
      "stateMutability": "nonpayable",
      "type": "constructor",
      "signature": "constructor"
    },
    {
      "anonymous": false,
      "inputs": [
        {
          "indexed": true,
          "name": "caller",
          "type": "address"
        },
        {
          "indexed": false,
          "name": "rtx",
          "type": "address"
        }
      ],
      "name": "Create_event",
      "type": "event",
      "signature": "0x6979f40e55294b4c1fc4885af64505c49b22de42647a12ea5037558f2ebd894b"
    },
    {
      "constant": false,
      "inputs": [
        {
          "name": "wallet",
          "type": "address"
        },
        {
          "name": "delegate",
          "type": "address"
        }
      ],
      "name": "create",
      "outputs": [
        {
          "name": "rtx",
          "type": "address"
        }
      ],
      "payable": false,
      "stateMutability": "nonpayable",
      "type": "function",
      "signature": "0x3e68680a"
    }
  ],
  "bytecode": "0x60806040524360005534801561001457600080fd5b506040516040806106a48339810180604052604081101561003457600080fd5b81019080805190602001909291908051906020019092919050505081600160006101000a81548173ffffffffffffffffffffffffffffffffffffffff021916908373ffffffffffffffffffffffffffffffffffffffff16021790555080600260006101000a81548173ffffffffffffffffffffffffffffffffffffffff021916908373ffffffffffffffffffffffffffffffffffffffff16021790555050506105c2806100e26000396000f3fe60806040526004361061006d576000357c0100000000000000000000000000000000000000000000000000000000900463ffffffff1680633e68680a146100725780634e989a4c146101235780636cf48a551461014e578063c05efa15146101a5578063d42efd83146101fc575b600080fd5b34801561007e57600080fd5b506100e16004803603604081101561009557600080fd5b81019080803573ffffffffffffffffffffffffffffffffffffffff169060200190929190803573ffffffffffffffffffffffffffffffffffffffff169060200190929190505050610265565b604051808273ffffffffffffffffffffffffffffffffffffffff1673ffffffffffffffffffffffffffffffffffffffff16815260200191505060405180910390f35b34801561012f57600080fd5b506101386104ae565b6040518082815260200191505060405180910390f35b34801561015a57600080fd5b506101636104b4565b604051808273ffffffffffffffffffffffffffffffffffffffff1673ffffffffffffffffffffffffffffffffffffffff16815260200191505060405180910390f35b3480156101b157600080fd5b506101ba6104da565b604051808273ffffffffffffffffffffffffffffffffffffffff1673ffffffffffffffffffffffffffffffffffffffff16815260200191505060405180910390f35b34801561020857600080fd5b5061024b6004803603602081101561021f57600080fd5b81019080803573ffffffffffffffffffffffffffffffffffffffff169060200190929190505050610500565b604051808215151515815260200191505060405180910390f35b600080610293600260009054906101000a900473ffffffffffffffffffffffffffffffffffffffff16610520565b90508091508173ffffffffffffffffffffffffffffffffffffffff1663c0c53b8b600160009054906101000a900473ffffffffffffffffffffffffffffffffffffffff1686866040518463ffffffff167c0100000000000000000000000000000000000000000000000000000000028152600401808473ffffffffffffffffffffffffffffffffffffffff1673ffffffffffffffffffffffffffffffffffffffff1681526020018373ffffffffffffffffffffffffffffffffffffffff1673ffffffffffffffffffffffffffffffffffffffff1681526020018273ffffffffffffffffffffffffffffffffffffffff1673ffffffffffffffffffffffffffffffffffffffff1681526020019350505050600060405180830381600087803b1580156103bd57600080fd5b505af11580156103d1573d6000803e3d6000fd5b505050506001600360008373ffffffffffffffffffffffffffffffffffffffff1673ffffffffffffffffffffffffffffffffffffffff16815260200190815260200160002060006101000a81548160ff0219169083151502179055503373ffffffffffffffffffffffffffffffffffffffff167f6979f40e55294b4c1fc4885af64505c49b22de42647a12ea5037558f2ebd894b83604051808273ffffffffffffffffffffffffffffffffffffffff1673ffffffffffffffffffffffffffffffffffffffff16815260200191505060405180910390a25092915050565b60005481565b600160009054906101000a900473ffffffffffffffffffffffffffffffffffffffff1681565b600260009054906101000a900473ffffffffffffffffffffffffffffffffffffffff1681565b60036020528060005260406000206000915054906101000a900460ff1681565b600080826c010000000000000000000000000290506040517f3d602d80600a3d3981f3363d3d373d3d3d363d7300000000000000000000000081528160148201527f5af43d82803e903d91602b57fd5bf3000000000000000000000000000000000060288201526037816000f09250505091905056fea165627a7a72305820d7749efc65f4ee9956aac7f42dea5fff4182f65667b8004adf234500096ecabe0029",
  "source": "pragma solidity ^0.5.0;\n\nimport \"./external/CloneFactory.sol\";\nimport \"./RecurringTransaction.sol\";\nimport \"./Interfaces.sol\";\n\n/// @title RecurringTransactionFactory Contract\n/// @author Joseph Reed\n/// @dev This contract's goal is to create a recurring transactions\ncontract RecurringTransactionFactory is CloneFactory {\n\n    uint public blockCreated = block.number;\n\n    RequestFactoryInterface public EAC;  // The Ethereum Alarm Clock deploys decentralized alarms\n    address public blueprint;            // The recurring transaction blueprint to supply the clone factory\n\n    mapping (address => bool) public created;\n\n    /// @notice Constructor to create a DelegatedWalletFactory\n    /// @param _EAC The contract responsible for deploying decentralized alarms \n    /// @param _blueprint The recurring transaction blueprint \n    constructor (\n        RequestFactoryInterface _EAC, \n        address _blueprint\n    ) public {\n        EAC = _EAC;\n        blueprint = _blueprint;\n    }\n\n    /// @notice Creates a recurring transaction smart contract\n    /// @param delegate The delegate from which to pull transaction costs\n    /// @param wallet The funding wallet, change address, and owner of the deployed alarms\n    /// @return The recurring transaction contract address\n    function create (\n        IDelegatedWallet wallet,\n        IPaymentDelegate delegate\n    ) public returns (RecurringTransaction rtx) {\n        // for converting to payable addresses see: \n        // https://solidity.readthedocs.io/en/v0.5.0/050-breaking-changes.html?highlight=address_make_payable\n        address payable clone = address(uint160(createClone(blueprint)));\n        rtx = RecurringTransaction(clone);\n        rtx.initialize(EAC, wallet, delegate);\n\n        created[clone] = true;\n\n        emit Create_event(msg.sender, rtx);\n    }\n\n    event Create_event(address indexed caller, RecurringTransaction rtx);\n\n}\n",
  "sourcePath": "/home/joe/Documents/github/everchain-project/recurring-transactions/contracts/RecurringTransactionFactory.sol",
  "compiler": {
    "name": "solc",
    "version": "0.5.0+commit.1d4f565a.Emscripten.clang"
  },
  "schemaVersion": "3.0.1",
  "updatedAt": "2019-02-20T06:34:10.859Z",
  "devdoc": {
    "author": "Joseph Reed",
    "details": "This contract's goal is to create a recurring transactions",
    "methods": {
      "constructor": {
        "params": {
          "_EAC": "The contract responsible for deploying decentralized alarms ",
          "_blueprint": "The recurring transaction blueprint "
        }
      },
      "create(address,address)": {
        "params": {
          "delegate": "The delegate from which to pull transaction costs",
          "wallet": "The funding wallet, change address, and owner of the deployed alarms"
        },
        "return": "The recurring transaction contract address"
      }
    },
    "title": "RecurringTransactionFactory Contract"
  },
  "userdoc": {
    "methods": {
      "constructor": "Constructor to create a DelegatedWalletFactory",
      "create(address,address)": {
        "notice": "Creates a recurring transaction smart contract"
      }
    }
  }
}