{
  "contractName": "RecurringAlarmClock",
  "abi": [
    {
      "constant": true,
      "inputs": [],
      "name": "priorityCaller",
      "outputs": [
        {
          "name": "",
          "type": "address"
        }
      ],
      "payable": false,
      "stateMutability": "view",
      "type": "function"
    },
    {
      "constant": true,
      "inputs": [],
      "name": "intervalDuration",
      "outputs": [
        {
          "name": "",
          "type": "uint256"
        }
      ],
      "payable": false,
      "stateMutability": "view",
      "type": "function"
    },
    {
      "constant": true,
      "inputs": [],
      "name": "task",
      "outputs": [
        {
          "name": "",
          "type": "address"
        }
      ],
      "payable": false,
      "stateMutability": "view",
      "type": "function"
    },
    {
      "constant": true,
      "inputs": [],
      "name": "currentInterval",
      "outputs": [
        {
          "name": "",
          "type": "uint256"
        }
      ],
      "payable": false,
      "stateMutability": "view",
      "type": "function"
    },
    {
      "constant": true,
      "inputs": [
        {
          "name": "",
          "type": "uint256"
        }
      ],
      "name": "eacOptions",
      "outputs": [
        {
          "name": "",
          "type": "uint256"
        }
      ],
      "payable": false,
      "stateMutability": "view",
      "type": "function"
    },
    {
      "constant": true,
      "inputs": [],
      "name": "eac",
      "outputs": [
        {
          "name": "",
          "type": "address"
        }
      ],
      "payable": false,
      "stateMutability": "view",
      "type": "function"
    },
    {
      "constant": true,
      "inputs": [],
      "name": "callData",
      "outputs": [
        {
          "name": "",
          "type": "bytes"
        }
      ],
      "payable": false,
      "stateMutability": "view",
      "type": "function"
    },
    {
      "constant": true,
      "inputs": [],
      "name": "blockCreated",
      "outputs": [
        {
          "name": "",
          "type": "uint256"
        }
      ],
      "payable": false,
      "stateMutability": "view",
      "type": "function"
    },
    {
      "constant": true,
      "inputs": [],
      "name": "wallet",
      "outputs": [
        {
          "name": "",
          "type": "address"
        }
      ],
      "payable": false,
      "stateMutability": "view",
      "type": "function"
    },
    {
      "constant": true,
      "inputs": [],
      "name": "recipient",
      "outputs": [
        {
          "name": "",
          "type": "address"
        }
      ],
      "payable": false,
      "stateMutability": "view",
      "type": "function"
    },
    {
      "constant": true,
      "inputs": [],
      "name": "gasPriceOracle",
      "outputs": [
        {
          "name": "",
          "type": "address"
        }
      ],
      "payable": false,
      "stateMutability": "view",
      "type": "function"
    },
    {
      "constant": true,
      "inputs": [],
      "name": "maximumIntervals",
      "outputs": [
        {
          "name": "",
          "type": "uint256"
        }
      ],
      "payable": false,
      "stateMutability": "view",
      "type": "function"
    },
    {
      "constant": true,
      "inputs": [],
      "name": "alarm",
      "outputs": [
        {
          "name": "",
          "type": "address"
        }
      ],
      "payable": false,
      "stateMutability": "view",
      "type": "function"
    },
    {
      "constant": true,
      "inputs": [],
      "name": "factory",
      "outputs": [
        {
          "name": "",
          "type": "address"
        }
      ],
      "payable": false,
      "stateMutability": "view",
      "type": "function"
    },
    {
      "constant": true,
      "inputs": [],
      "name": "delegate",
      "outputs": [
        {
          "name": "",
          "type": "address"
        }
      ],
      "payable": false,
      "stateMutability": "view",
      "type": "function"
    },
    {
      "constant": true,
      "inputs": [],
      "name": "safetyMultiplier",
      "outputs": [
        {
          "name": "",
          "type": "uint256"
        }
      ],
      "payable": false,
      "stateMutability": "view",
      "type": "function"
    },
    {
      "constant": true,
      "inputs": [],
      "name": "token",
      "outputs": [
        {
          "name": "",
          "type": "address"
        }
      ],
      "payable": false,
      "stateMutability": "view",
      "type": "function"
    },
    {
      "payable": true,
      "stateMutability": "payable",
      "type": "fallback"
    },
    {
      "anonymous": false,
      "inputs": [
        {
          "indexed": true,
          "name": "currentInterval",
          "type": "uint256"
        },
        {
          "indexed": false,
          "name": "success",
          "type": "bool"
        },
        {
          "indexed": false,
          "name": "result",
          "type": "bytes"
        }
      ],
      "name": "Execute_event",
      "type": "event"
    },
    {
      "anonymous": false,
      "inputs": [
        {
          "indexed": true,
          "name": "sender",
          "type": "address"
        },
        {
          "indexed": false,
          "name": "amount",
          "type": "uint256"
        }
      ],
      "name": "Deposit_event",
      "type": "event"
    },
    {
      "anonymous": false,
      "inputs": [
        {
          "indexed": true,
          "name": "sender",
          "type": "address"
        },
        {
          "indexed": false,
          "name": "alarm",
          "type": "address"
        }
      ],
      "name": "ValidRequest_event",
      "type": "event"
    },
    {
      "anonymous": false,
      "inputs": [
        {
          "indexed": false,
          "name": "params",
          "type": "bool[6]"
        }
      ],
      "name": "InvalidRequest_event",
      "type": "event"
    },
    {
      "constant": false,
      "inputs": [
        {
          "name": "_eac",
          "type": "address"
        },
        {
          "name": "_delegate",
          "type": "address"
        },
        {
          "name": "_wallet",
          "type": "address"
        },
        {
          "name": "_oracle",
          "type": "address"
        },
        {
          "name": "_priorityCaller",
          "type": "address"
        },
        {
          "name": "_task",
          "type": "address"
        },
        {
          "name": "_callData",
          "type": "bytes"
        },
        {
          "name": "_recurringAlarmClockOptions",
          "type": "uint256[3]"
        },
        {
          "name": "_ethereumAlarmClockOptions",
          "type": "uint256[10]"
        }
      ],
      "name": "initialize",
      "outputs": [],
      "payable": false,
      "stateMutability": "nonpayable",
      "type": "function"
    },
    {
      "constant": true,
      "inputs": [],
      "name": "amount",
      "outputs": [
        {
          "name": "",
          "type": "uint256"
        }
      ],
      "payable": false,
      "stateMutability": "view",
      "type": "function"
    },
    {
      "constant": false,
      "inputs": [],
      "name": "cancel",
      "outputs": [],
      "payable": false,
      "stateMutability": "nonpayable",
      "type": "function"
    }
  ],
  "bytecode": "0x608060405234801561001057600080fd5b50611e9f806100206000396000f3fe608060405260043610610112576000357c0100000000000000000000000000000000000000000000000000000000900463ffffffff1680631fd3ea52146101795780633076dc42146101d05780633283f641146101fb578063363487bc14610252578063440c44eb1461027d57806349ef8763146102cc5780634e417a98146103235780634e989a4c146103b3578063521eb273146103de57806366d003ac146104355780636f6dc5ae1461048c57806393f358d8146104e3578063aa8c217c1461050e578063b64710ef14610539578063bb7e8c2814610745578063c45a01551461079c578063c89e4361146107f3578063d57f1d9b1461084a578063ea8a1af014610875578063fc0c546a1461088c575b600034111561016e573373ffffffffffffffffffffffffffffffffffffffff167f13d8b731cfddb1e8d6d230a4f64afe94251cf4c4fa93e730ebda89a63f8baa21346040518082815260200191505060405180910390a2610177565b6101766108e3565b5b005b34801561018557600080fd5b5061018e610cc8565b604051808273ffffffffffffffffffffffffffffffffffffffff1673ffffffffffffffffffffffffffffffffffffffff16815260200191505060405180910390f35b3480156101dc57600080fd5b506101e5610cee565b6040518082815260200191505060405180910390f35b34801561020757600080fd5b50610210610cf4565b604051808273ffffffffffffffffffffffffffffffffffffffff1673ffffffffffffffffffffffffffffffffffffffff16815260200191505060405180910390f35b34801561025e57600080fd5b50610267610d1a565b6040518082815260200191505060405180910390f35b34801561028957600080fd5b506102b6600480360360208110156102a057600080fd5b8101908080359060200190929190505050610d20565b6040518082815260200191505060405180910390f35b3480156102d857600080fd5b506102e1610d3a565b604051808273ffffffffffffffffffffffffffffffffffffffff1673ffffffffffffffffffffffffffffffffffffffff16815260200191505060405180910390f35b34801561032f57600080fd5b50610338610d60565b6040518080602001828103825283818151815260200191508051906020019080838360005b8381101561037857808201518184015260208101905061035d565b50505050905090810190601f1680156103a55780820380516001836020036101000a031916815260200191505b509250505060405180910390f35b3480156103bf57600080fd5b506103c8610dfe565b6040518082815260200191505060405180910390f35b3480156103ea57600080fd5b506103f3610e04565b604051808273ffffffffffffffffffffffffffffffffffffffff1673ffffffffffffffffffffffffffffffffffffffff16815260200191505060405180910390f35b34801561044157600080fd5b5061044a610e2a565b604051808273ffffffffffffffffffffffffffffffffffffffff1673ffffffffffffffffffffffffffffffffffffffff16815260200191505060405180910390f35b34801561049857600080fd5b506104a1610e50565b604051808273ffffffffffffffffffffffffffffffffffffffff1673ffffffffffffffffffffffffffffffffffffffff16815260200191505060405180910390f35b3480156104ef57600080fd5b506104f8610e76565b6040518082815260200191505060405180910390f35b34801561051a57600080fd5b50610523610e7c565b6040518082815260200191505060405180910390f35b34801561054557600080fd5b50610743600480360361028081101561055d57600080fd5b81019080803573ffffffffffffffffffffffffffffffffffffffff169060200190929190803573ffffffffffffffffffffffffffffffffffffffff169060200190929190803573ffffffffffffffffffffffffffffffffffffffff169060200190929190803573ffffffffffffffffffffffffffffffffffffffff169060200190929190803573ffffffffffffffffffffffffffffffffffffffff169060200190929190803573ffffffffffffffffffffffffffffffffffffffff1690602001909291908035906020019064010000000081111561063a57600080fd5b82018360208201111561064c57600080fd5b8035906020019184600183028401116401000000008311171561066e57600080fd5b91908080601f016020809104026020016040519081016040528093929190818152602001838380828437600081840152601f19601f82011690508083019250505050505050919291929080606001906003806020026040519081016040528092919082600360200280828437600081840152601f19601f8201169050808301925050505050509192919290806101400190600a806020026040519081016040528092919082600a60200280828437600081840152601f19601f8201169050808301925050505050509192919290505050610f5e565b005b34801561075157600080fd5b5061075a611319565b604051808273ffffffffffffffffffffffffffffffffffffffff1673ffffffffffffffffffffffffffffffffffffffff16815260200191505060405180910390f35b3480156107a857600080fd5b506107b161133f565b604051808273ffffffffffffffffffffffffffffffffffffffff1673ffffffffffffffffffffffffffffffffffffffff16815260200191505060405180910390f35b3480156107ff57600080fd5b50610808611365565b604051808273ffffffffffffffffffffffffffffffffffffffff1673ffffffffffffffffffffffffffffffffffffffff16815260200191505060405180910390f35b34801561085657600080fd5b5061085f61138b565b6040518082815260200191505060405180910390f35b34801561088157600080fd5b5061088a611391565b005b34801561089857600080fd5b506108a1611619565b604051808273ffffffffffffffffffffffffffffffffffffffff1673ffffffffffffffffffffffffffffffffffffffff16815260200191505060405180910390f35b600960009054906101000a900473ffffffffffffffffffffffffffffffffffffffff1673ffffffffffffffffffffffffffffffffffffffff163373ffffffffffffffffffffffffffffffffffffffff161415156109ce576040517f08c379a000000000000000000000000000000000000000000000000000000000815260040180806020018281038252602a8152602001807f6f6e6c7920746865206578656375746f722063616e2068616e646c6520616e2081526020017f616c61726d2063616c6c0000000000000000000000000000000000000000000081525060400191505060405180910390fd5b6000600960006101000a81548173ffffffffffffffffffffffffffffffffffffffff021916908373ffffffffffffffffffffffffffffffffffffffff16021790555060006060600a60009054906101000a900473ffffffffffffffffffffffffffffffffffffffff1673ffffffffffffffffffffffffffffffffffffffff165a60126040518082805460018160011615610100020316600290048015610aab5780601f10610a89576101008083540402835291820191610aab565b820191906000526020600020905b815481529060010190602001808311610a97575b505091505060006040518083038160008787f1925050503d8060008114610aee576040519150601f19603f3d011682016040523d82523d6000602084013e610af3565b606091505b5091509150601f546020541015610b6e57601e5460136005600a81101515610b1757fe5b0160008282540192505081905550610b2d61163f565b600960006101000a81548173ffffffffffffffffffffffffffffffffffffffff021916908373ffffffffffffffffffffffffffffffffffffffff1602179055505b601f546020541415610c1957600c60009054906101000a900473ffffffffffffffffffffffffffffffffffffffff1673ffffffffffffffffffffffffffffffffffffffff1663daf1548c6040518163ffffffff167c0100000000000000000000000000000000000000000000000000000000028152600401600060405180830381600087803b158015610c0057600080fd5b505af1158015610c14573d6000803e3d6000fd5b505050505b6020547f3e451301347796b024cf7240d2801d0087b56813fe7d0387d5b629460f0e2f248383604051808315151515815260200180602001828103825283818151815260200191508051906020019080838360005b83811015610c89578082015181840152602081019050610c6e565b50505050905090810190601f168015610cb65780820380516001836020036101000a031916815260200191505b50935050505060405180910390a25050565b601160009054906101000a900473ffffffffffffffffffffffffffffffffffffffff1681565b601e5481565b600a60009054906101000a900473ffffffffffffffffffffffffffffffffffffffff1681565b60205481565b601381600a81101515610d2f57fe5b016000915090505481565b600b60009054906101000a900473ffffffffffffffffffffffffffffffffffffffff1681565b60128054600181600116156101000203166002900480601f016020809104026020016040519081016040528092919081815260200182805460018160011615610100020316600290048015610df65780601f10610dcb57610100808354040283529160200191610df6565b820191906000526020600020905b815481529060010190602001808311610dd957829003601f168201915b505050505081565b60075481565b600d60009054906101000a900473ffffffffffffffffffffffffffffffffffffffff1681565b601060009054906101000a900473ffffffffffffffffffffffffffffffffffffffff1681565b600e60009054906101000a900473ffffffffffffffffffffffffffffffffffffffff1681565b601f5481565b60008060136006600a81101515610e8f57fe5b01549050601d5481600e60009054906101000a900473ffffffffffffffffffffffffffffffffffffffff1673ffffffffffffffffffffffffffffffffffffffff166357de26a46040518163ffffffff167c010000000000000000000000000000000000000000000000000000000002815260040160206040518083038186803b158015610f1b57600080fd5b505afa158015610f2f573d6000803e3d6000fd5b505050506040513d6020811015610f4557600080fd5b8101908080519060200190929190505050020291505090565b6000600754141515610ffe576040517f08c379a00000000000000000000000000000000000000000000000000000000081526004018080602001828103825260258152602001807f636f6e74726163742063616e206f6e6c7920626520696e697469616c697a656481526020017f206f6e636500000000000000000000000000000000000000000000000000000081525060400191505060405180910390fd5b4360078190555033600860006101000a81548173ffffffffffffffffffffffffffffffffffffffff021916908373ffffffffffffffffffffffffffffffffffffffff16021790555085600e60006101000a81548173ffffffffffffffffffffffffffffffffffffffff021916908373ffffffffffffffffffffffffffffffffffffffff1602179055506000600f60006101000a81548173ffffffffffffffffffffffffffffffffffffffff021916908373ffffffffffffffffffffffffffffffffffffffff16021790555030601060006101000a81548173ffffffffffffffffffffffffffffffffffffffff021916908373ffffffffffffffffffffffffffffffffffffffff16021790555083600a60006101000a81548173ffffffffffffffffffffffffffffffffffffffff021916908373ffffffffffffffffffffffffffffffffffffffff16021790555088600b60006101000a81548173ffffffffffffffffffffffffffffffffffffffff021916908373ffffffffffffffffffffffffffffffffffffffff16021790555087600c60006101000a81548173ffffffffffffffffffffffffffffffffffffffff021916908373ffffffffffffffffffffffffffffffffffffffff16021790555086600d60006101000a81548173ffffffffffffffffffffffffffffffffffffffff021916908373ffffffffffffffffffffffffffffffffffffffff16021790555084601160006101000a81548173ffffffffffffffffffffffffffffffffffffffff021916908373ffffffffffffffffffffffffffffffffffffffff1602179055508260129080519060200190611265929190611d47565b5080601390600a611277929190611dc7565b5081600060038110151561128757fe5b6020020151601d819055508160016003811015156112a157fe5b6020020151601e819055508160026003811015156112bb57fe5b6020020151601f819055506112ce61163f565b600960006101000a81548173ffffffffffffffffffffffffffffffffffffffff021916908373ffffffffffffffffffffffffffffffffffffffff160217905550505050505050505050565b600960009054906101000a900473ffffffffffffffffffffffffffffffffffffffff1681565b600860009054906101000a900473ffffffffffffffffffffffffffffffffffffffff1681565b600c60009054906101000a900473ffffffffffffffffffffffffffffffffffffffff1681565b601d5481565b600a60009054906101000a900473ffffffffffffffffffffffffffffffffffffffff1673ffffffffffffffffffffffffffffffffffffffff163373ffffffffffffffffffffffffffffffffffffffff1614806114df5750600d60009054906101000a900473ffffffffffffffffffffffffffffffffffffffff1673ffffffffffffffffffffffffffffffffffffffff166307779627336040518263ffffffff167c0100000000000000000000000000000000000000000000000000000000028152600401808273ffffffffffffffffffffffffffffffffffffffff1673ffffffffffffffffffffffffffffffffffffffff16815260200191505060206040518083038186803b1580156114a357600080fd5b505afa1580156114b7573d6000803e3d6000fd5b505050506040513d60208110156114cd57600080fd5b81019080805190602001909291905050505b1515611579576040517f08c379a000000000000000000000000000000000000000000000000000000000815260040180806020018281038252602e8152602001807f6d73672e73656e646572206973206e6f742074686520616c61726d207461736b81526020017f206f7220612064656c656761746500000000000000000000000000000000000081525060400191505060405180910390fd5b600c60009054906101000a900473ffffffffffffffffffffffffffffffffffffffff1673ffffffffffffffffffffffffffffffffffffffff1663daf1548c6040518163ffffffff167c0100000000000000000000000000000000000000000000000000000000028152600401600060405180830381600087803b1580156115ff57600080fd5b505af1158015611613573d6000803e3d6000fd5b50505050565b600f60009054906101000a900473ffffffffffffffffffffffffffffffffffffffff1681565b6000602060008154809291906001019190505550600c60009054906101000a900473ffffffffffffffffffffffffffffffffffffffff1673ffffffffffffffffffffffffffffffffffffffff1663614619546040518163ffffffff167c0100000000000000000000000000000000000000000000000000000000028152600401602060405180830381600087803b1580156116d957600080fd5b505af11580156116ed573d6000803e3d6000fd5b505050506040513d602081101561170357600080fd5b81019080805190602001909291905050505060003073ffffffffffffffffffffffffffffffffffffffff16319050600060648281151561173f57fe5b04905060008183039050611751611e07565b606060405190810160405280600d60009054906101000a900473ffffffffffffffffffffffffffffffffffffffff1673ffffffffffffffffffffffffffffffffffffffff1673ffffffffffffffffffffffffffffffffffffffff168152602001601160009054906101000a900473ffffffffffffffffffffffffffffffffffffffff1673ffffffffffffffffffffffffffffffffffffffff1673ffffffffffffffffffffffffffffffffffffffff1681526020013073ffffffffffffffffffffffffffffffffffffffff1673ffffffffffffffffffffffffffffffffffffffff16815250905061183f611e2a565b6101806040519081016040528085815260200184815260200160136000600a8110151561186857fe5b0154815260200160136001600a8110151561187f57fe5b0154815260200160136002600a8110151561189657fe5b0154815260200160136003600a811015156118ad57fe5b0154815260200160136004600a811015156118c457fe5b0154815260200160136005600a811015156118db57fe5b0154815260200160136006600a811015156118f257fe5b0154815260200160136007600a8110151561190957fe5b0154815260200160136008600a8110151561192057fe5b0154815260200160136009600a8110151561193757fe5b01548152509050600b60009054906101000a900473ffffffffffffffffffffffffffffffffffffffff1673ffffffffffffffffffffffffffffffffffffffff1663d7ceab4c8684846040518463ffffffff167c01000000000000000000000000000000000000000000000000000000000281526004018083600360200280838360005b838110156119d55780820151818401526020810190506119ba565b5050505090500182600c60200280838360005b83811015611a035780820151818401526020810190506119e8565b505050509050018060200182810382526000815260200160200193505050506020604051808303818588803b158015611a3b57600080fd5b505af1158015611a4f573d6000803e3d6000fd5b50505050506040513d6020811015611a6657600080fd5b8101908080519060200190929190505050600960006101000a81548173ffffffffffffffffffffffffffffffffffffffff021916908373ffffffffffffffffffffffffffffffffffffffff160217905550600073ffffffffffffffffffffffffffffffffffffffff16600960009054906101000a900473ffffffffffffffffffffffffffffffffffffffff1673ffffffffffffffffffffffffffffffffffffffff16141515611bb0573373ffffffffffffffffffffffffffffffffffffffff167f673bacbd542d3e65fd90fc7fc8631e3a9bdc4ae4ffad940781805f85596c1721600960009054906101000a900473ffffffffffffffffffffffffffffffffffffffff16604051808273ffffffffffffffffffffffffffffffffffffffff1673ffffffffffffffffffffffffffffffffffffffff16815260200191505060405180910390a2611d3f565b7febec2a47d1b8a4f2300d8b1a3f76af4035584f4667e3a47730f7c47eeb4675af600b60009054906101000a900473ffffffffffffffffffffffffffffffffffffffff1673ffffffffffffffffffffffffffffffffffffffff16631e35ff058484896040518463ffffffff167c01000000000000000000000000000000000000000000000000000000000281526004018084600360200280838360005b83811015611c68578082015181840152602081019050611c4d565b5050505090500183600c60200280838360005b83811015611c96578082015181840152602081019050611c7b565b50505050905001828152602001935050505060c06040518083038186803b158015611cc057600080fd5b505afa158015611cd4573d6000803e3d6000fd5b505050506040513d601f19601f8201168201806040525060c0811015611cf957600080fd5b81019080919050506040518082600660200280838360005b83811015611d2c578082015181840152602081019050611d11565b5050505090500191505060405180910390a15b505050505090565b828054600181600116156101000203166002900490600052602060002090601f016020900481019282601f10611d8857805160ff1916838001178555611db6565b82800160010185558215611db6579182015b82811115611db5578251825591602001919060010190611d9a565b5b509050611dc39190611e4e565b5090565b82600a8101928215611df6579160200282015b82811115611df5578251825591602001919060010190611dda565b5b509050611e039190611e4e565b5090565b606060405190810160405280600390602082028038833980820191505090505090565b61018060405190810160405280600c90602082028038833980820191505090505090565b611e7091905b80821115611e6c576000816000905550600101611e54565b5090565b9056fea165627a7a72305820911d43acfb12c431f2c07a40596a1322214e2befa9d6caf1c7ea78017ff743260029",
  "source": "pragma solidity ^0.5.0;\r\n\r\nimport \"./external/BokkyPooBahsDateTimeLibrary.sol\";\r\nimport \"./Interfaces.sol\";\r\n\r\n/// @title RecurringAlarmClock Contract\r\n/// @author Joseph Reed\r\n/// @dev This contract's goal is to execute recurring tasks completely on-chain. It requires four main components:\r\n///      1. A source for on chain alarms. This contract uses the Ethereum Alarm Clock (eac)\r\n///      2. A payment delegate with this alarm scheduled and permitted to pull funds for each alarm\r\n///      3. A funded delegated wallet with the payment delegate set as a delegate\r\n///      4. A recurring task to execute\r\ncontract RecurringAlarmClock is IRecurringAlarmClock {\r\n\r\n    uint public blockCreated;               // The block the alarm clock was started\r\n    address public factory;                 // The factory that deployed this contract\r\n    address public alarm;                   // The next scheduled alarm contract\r\n    address public task;                    // The address of the task contract\r\n    RequestFactoryInterface public eac;     // Interface provided by the Ethereum Alarm Clock\r\n    IPaymentDelegate public delegate;       // The delegate that pulls funds for each alarm\r\n    IDelegatedWallet public wallet;         // The address which owns the alarm and collects any leftover funds\r\n    IUintFeed public gasPriceOracle;        // The Gas Price Oracle that fetches the current gas price of the network\r\n    address public token;                   // The token to pull when funding an alarm. default of 0x0 represents native ether\r\n    address public recipient;               // The recipient to send pulled funds to. set to 'this' at initialization\r\n    address public priorityCaller;          // The priority recipient of part of the alarm deposit\r\n    bytes public callData;                  // The data for the task to execute when the alarm is triggered\r\n    uint[10] public eacOptions;             // The options used when setting an alarm using the Ethereum Alarm Clock\r\n    uint public safetyMultiplier;           // The multiplier to use when calculating the alarm cost\r\n    uint public intervalDuration;           // The amount of time between each alarm\r\n    uint public maximumIntervals;           // The number of times this alarm will go off\r\n    uint public currentInterval;            // Keeps track of how many alarms have been called\r\n\r\n    /// @notice Initializes the recurring alarm clock. Uses 'initialize()' instead of a constructor to make use of the clone \r\n    ///         factory at https://github.com/optionality/clone-factory. In general, 'initialize()' should be  \r\n    ///         called directly following it's deployment through the use of a factory\r\n    /// @param _eac The contract responsible for deploying decentralized alarms\r\n    /// @param _delegate The delegate from which to pull alarm payments\r\n    /// @param _wallet The funding wallet, change address, and owner of the deployed alarms\r\n    /// @param _priorityCaller The priority caller receives a base amount of the alarm fee regardless of if they call the alarm\r\n    /// @param _recurringAlarmClockOptions The options used for creating the recurring alarm clock\r\n    /// @param _ethereumAlarmClockOptions The options used for creating decentralized alarms\r\n    function initialize (\r\n        RequestFactoryInterface _eac,\r\n        IPaymentDelegate _delegate,\r\n        IDelegatedWallet _wallet,\r\n        IUintFeed _oracle,\r\n        address _priorityCaller,\r\n        address _task,\r\n        bytes memory _callData,\r\n        uint[3] memory _recurringAlarmClockOptions,\r\n        uint[10] memory _ethereumAlarmClockOptions\r\n    ) public {\r\n        require(blockCreated == 0, \"contract can only be initialized once\");\r\n\r\n        blockCreated = block.number;    // The block number at the time of deployment\r\n        factory = msg.sender;           // The factory that deployed this contract\r\n\r\n        gasPriceOracle = _oracle;       // The Gas Price Oracle that fetches the current gas price of the network\r\n        token = address(0x0);           // '0x0' == Ether; EAC alarms use ether as the default/only currency\r\n        recipient = address(this);      // This alarm clock is the recipient of it's own recurring payment\r\n        task = _task;\r\n\r\n        eac = _eac;\r\n        delegate = _delegate;\r\n        wallet = _wallet;\r\n        priorityCaller = _priorityCaller;\r\n        callData = _callData;\r\n        eacOptions = _ethereumAlarmClockOptions;\r\n        safetyMultiplier = _recurringAlarmClockOptions[0];\r\n        intervalDuration = _recurringAlarmClockOptions[1];\r\n        maximumIntervals = _recurringAlarmClockOptions[2];\r\n\r\n        alarm = newAlarm();\r\n    }\r\n\r\n    /// @notice The default function collects ether sent by the payment delegate and is also called by\r\n    ///         each alarm when they are triggered\r\n    function () external payable {\r\n        if(msg.value > 0)\r\n            emit Deposit_event(msg.sender, msg.value);\r\n        else\r\n            handleAlarmCall();\r\n    }\r\n\r\n    /// @notice The heart of the recurring alarm clock.\r\n    ///         1. Check if the caller is the current alarm\r\n    ///         2. Execute the task\r\n    ///         3. Reschedule the alarm\r\n    ///         4. Cleanup\r\n    function handleAlarmCall () internal {\r\n        require(msg.sender == alarm, \"only the executor can handle an alarm call\");\r\n        alarm = address(0x0);\r\n\r\n        (bool success, bytes memory result) = address(task).call.gas(gasleft())(callData);\r\n\r\n        if(currentInterval < maximumIntervals){\r\n            eacOptions[5] += intervalDuration;\r\n            alarm = newAlarm();\r\n        }\r\n\r\n        if(currentInterval == maximumIntervals)\r\n            delegate.unschedule();\r\n\r\n        emit Execute_event(currentInterval, success, result);\r\n    }\r\n\r\n    /// @notice Schedules a new alarm with the Ethereum Alarm Clock\r\n    /// @return The new alarm scheduled\r\n    function newAlarm () internal returns (address) {\r\n        currentInterval++;\r\n        delegate.execute();\r\n        \r\n        uint endowment = address(this).balance;     // Commit all available ether to the next alarm\r\n        uint priorityFee = endowment / 100;         // Set one percent aside for the priority caller\r\n        uint timeBounty = endowment - priorityFee;  // Set the remaining ether aside for the time bounty\r\n\r\n        address[3] memory addressOptions = [\r\n            address(wallet),    // Change from the alarm is sent to this address, also the account that can owns the alarm. \r\n        //  address(this),      // In the future, I'd like the owner address to equal this contract and keep the wallet as the change address\r\n            priorityCaller,     // The priority fee is sent to the priority caller\r\n            address(this)       // The contract to call at execution\r\n        ];\r\n\r\n        uint[12] memory uintOptions = [\r\n            priorityFee,    // A fee that goes to the fee recipient\r\n            timeBounty,     // The bounty for the account that triggers this alarm\r\n            eacOptions[0],  // claimWindowSize\r\n            eacOptions[1],  // freezeintervalDuration\r\n            eacOptions[2],  // reservedWindowSize\r\n            eacOptions[3],  // 2 = Use timestamp based scheduling instead of blocks\r\n            eacOptions[4],  // The size of the execution window\r\n            eacOptions[5],  // The start of the execution window\r\n            eacOptions[6],  // The amount of gas to be sent with the transaction\r\n            eacOptions[7],  // The amount of ether to be sent\r\n            eacOptions[8],  // The minimum gas price for the alarm when called\r\n            eacOptions[9]   // The required deposit by the claimer\r\n        ];\r\n\r\n        alarm = eac.createValidatedRequest.value(endowment)(addressOptions, uintOptions, \"\");\r\n\r\n        if(alarm != address(0x0))\r\n            emit ValidRequest_event(msg.sender, alarm);\r\n        else\r\n            emit InvalidRequest_event(eac.validateRequestParams(addressOptions, uintOptions, endowment));\r\n    }\r\n\r\n    /// @notice Calculates the amount of ether needed to fund each alarm\r\n    /// @return The amount of ether to send when the payment delegate is called\r\n    function amount () public view returns (uint) {\r\n        uint gas = eacOptions[6];\r\n        return gasPriceOracle.read() * gas * safetyMultiplier;\r\n    }\r\n\r\n    /// @notice Cancels the recurring alarm clock. Only callable by the task or a wallet delegate\r\n    function cancel () public {\r\n        require(msg.sender == task || wallet.isDelegate(msg.sender), \"msg.sender is not the alarm task or a delegate\");\r\n\r\n        delegate.unschedule();\r\n    }\r\n    \r\n    event Execute_event(uint indexed currentInterval, bool success, bytes result);\r\n    event Deposit_event (address indexed sender, uint amount);\r\n    event ValidRequest_event (address indexed sender, address alarm);\r\n    event InvalidRequest_event (bool[6] params);\r\n\r\n}\r\n",
  "sourcePath": "C:\\Users\\My\\Documents\\GitHub\\everchain-project\\recurring-alarm-clock\\contracts\\RecurringAlarmClock.sol",
  "compiler": {
    "name": "solc",
    "version": "0.5.0+commit.1d4f565a.Emscripten.clang"
  },
  "schemaVersion": "3.0.0-beta.2",
  "updatedAt": "2018-11-25T22:53:41.306Z",
  "devdoc": {
    "methods": {
      "amount()": {
        "return": "The amount of ether to send when the payment delegate is called"
      },
      "initialize(address,address,address,address,address,address,bytes,uint256[3],uint256[10])": {
        "params": {
          "_ethereumAlarmClockOptions": "The options used for creating decentralized alarms"
        }
      }
    }
  },
  "userdoc": {
    "methods": {
      "cancel()": {
        "notice": "Cancels the recurring alarm clock. Only callable by the task or a wallet delegate"
      }
    },
    "notice": "4. A recurring task to execute"
  }
}