{
  "contractName": "RecurringAlarmClockDeployer",
  "abi": [
    {
      "constant": true,
      "inputs": [
        {
          "name": "",
          "type": "uint256"
        }
      ],
      "name": "defaultLimits",
      "outputs": [
        {
          "name": "",
          "type": "uint256"
        }
      ],
      "payable": false,
      "stateMutability": "view",
      "type": "function",
      "signature": "0x3cc554b2"
    },
    {
      "constant": true,
      "inputs": [],
      "name": "blockCreated",
      "outputs": [
        {
          "name": "",
          "type": "uint256"
        }
      ],
      "payable": false,
      "stateMutability": "view",
      "type": "function",
      "signature": "0x4e989a4c"
    },
    {
      "constant": true,
      "inputs": [],
      "name": "defaultCaller",
      "outputs": [
        {
          "name": "",
          "type": "address"
        }
      ],
      "payable": false,
      "stateMutability": "view",
      "type": "function",
      "signature": "0x6426d5bc"
    },
    {
      "constant": true,
      "inputs": [],
      "name": "defaultOracle",
      "outputs": [
        {
          "name": "",
          "type": "address"
        }
      ],
      "payable": false,
      "stateMutability": "view",
      "type": "function",
      "signature": "0x80dce169"
    },
    {
      "constant": true,
      "inputs": [],
      "name": "owner",
      "outputs": [
        {
          "name": "",
          "type": "address"
        }
      ],
      "payable": false,
      "stateMutability": "view",
      "type": "function",
      "signature": "0x8da5cb5b"
    },
    {
      "constant": true,
      "inputs": [],
      "name": "defaultFactory",
      "outputs": [
        {
          "name": "",
          "type": "address"
        }
      ],
      "payable": false,
      "stateMutability": "view",
      "type": "function",
      "signature": "0xd4b6846d"
    },
    {
      "constant": false,
      "inputs": [
        {
          "name": "_newOwner",
          "type": "address"
        }
      ],
      "name": "transferOwnership",
      "outputs": [],
      "payable": false,
      "stateMutability": "nonpayable",
      "type": "function",
      "signature": "0xf2fde38b"
    },
    {
      "inputs": [
        {
          "name": "_defaultFactory",
          "type": "address"
        },
        {
          "name": "_defaultOracle",
          "type": "address"
        }
      ],
      "payable": false,
      "stateMutability": "nonpayable",
      "type": "constructor",
      "signature": "constructor"
    },
    {
      "anonymous": false,
      "inputs": [
        {
          "indexed": true,
          "name": "caller",
          "type": "address"
        },
        {
          "indexed": false,
          "name": "alarmClock",
          "type": "address"
        }
      ],
      "name": "DeployAlarmClock_event",
      "type": "event",
      "signature": "0x70dc8e65a761e44c3d4bcfc0b77bb62b529ef682056cc3b760da012d4a07d5a3"
    },
    {
      "constant": false,
      "inputs": [
        {
          "name": "newDefaultOracle",
          "type": "address"
        }
      ],
      "name": "setDefaultOracle",
      "outputs": [],
      "payable": false,
      "stateMutability": "nonpayable",
      "type": "function",
      "signature": "0xc44014d2"
    },
    {
      "constant": false,
      "inputs": [
        {
          "name": "newDefaultCaller",
          "type": "address"
        }
      ],
      "name": "setDefaultCaller",
      "outputs": [],
      "payable": false,
      "stateMutability": "nonpayable",
      "type": "function",
      "signature": "0xad24ea65"
    },
    {
      "constant": false,
      "inputs": [
        {
          "name": "newDefaultFactory",
          "type": "address"
        }
      ],
      "name": "setDefaultFactory",
      "outputs": [],
      "payable": false,
      "stateMutability": "nonpayable",
      "type": "function",
      "signature": "0x63186e5f"
    },
    {
      "constant": false,
      "inputs": [
        {
          "name": "wallet",
          "type": "address"
        },
        {
          "name": "delegate",
          "type": "address"
        }
      ],
      "name": "createAlarmClock",
      "outputs": [
        {
          "name": "alarmClock",
          "type": "address"
        }
      ],
      "payable": false,
      "stateMutability": "nonpayable",
      "type": "function",
      "signature": "0x0d0e9e34"
    },
    {
      "constant": false,
      "inputs": [
        {
          "name": "wallet",
          "type": "address"
        },
        {
          "name": "delegate",
          "type": "address"
        },
        {
          "name": "callAddress",
          "type": "address"
        },
        {
          "name": "callData",
          "type": "bytes"
        },
        {
          "name": "callOptions",
          "type": "uint256[7]"
        }
      ],
      "name": "createAndStartAlarmClock",
      "outputs": [
        {
          "name": "alarmClock",
          "type": "address"
        }
      ],
      "payable": false,
      "stateMutability": "nonpayable",
      "type": "function",
      "signature": "0xc5cdb9ac"
    },
    {
      "constant": false,
      "inputs": [
        {
          "name": "wallet",
          "type": "address"
        },
        {
          "name": "delegate",
          "type": "address"
        },
        {
          "name": "customOracle",
          "type": "address"
        },
        {
          "name": "customCaller",
          "type": "address"
        },
        {
          "name": "customLimits",
          "type": "uint256[3]"
        },
        {
          "name": "callAddress",
          "type": "address"
        },
        {
          "name": "callData",
          "type": "bytes"
        },
        {
          "name": "callOptions",
          "type": "uint256[7]"
        }
      ],
      "name": "createAndStartRawAlarmClock",
      "outputs": [
        {
          "name": "alarmClock",
          "type": "address"
        }
      ],
      "payable": false,
      "stateMutability": "nonpayable",
      "type": "function",
      "signature": "0xe952c571"
    }
  ],
  "bytecode": "0x60806040524360015534801561001457600080fd5b506040516040806121dc8339810180604052604081101561003457600080fd5b810190808051906020019092919080519060200190929190505050336000806101000a81548173ffffffffffffffffffffffffffffffffffffffff021916908373ffffffffffffffffffffffffffffffffffffffff16021790555081600260006101000a81548173ffffffffffffffffffffffffffffffffffffffff021916908373ffffffffffffffffffffffffffffffffffffffff16021790555080600360006101000a81548173ffffffffffffffffffffffffffffffffffffffff021916908373ffffffffffffffffffffffffffffffffffffffff16021790555033600460006101000a81548173ffffffffffffffffffffffffffffffffffffffff021916908373ffffffffffffffffffffffffffffffffffffffff160217905550610e106005600060038110151561016557fe5b018190555060b46005600160038110151561017c57fe5b018190555061012c6005600260038110151561019457fe5b01819055505050612032806101aa6000396000f3fe6080604052600436106100c5576000357c0100000000000000000000000000000000000000000000000000000000900463ffffffff1680630d0e9e34146100ca5780633cc554b21461017b5780634e989a4c146101ca57806363186e5f146101f55780636426d5bc1461024657806380dce1691461029d5780638da5cb5b146102f4578063ad24ea651461034b578063c44014d21461039c578063c5cdb9ac146103ed578063d4b6846d14610597578063e952c571146105ee578063f2fde38b14610819575b600080fd5b3480156100d657600080fd5b50610139600480360360408110156100ed57600080fd5b81019080803573ffffffffffffffffffffffffffffffffffffffff169060200190929190803573ffffffffffffffffffffffffffffffffffffffff16906020019092919050505061086a565b604051808273ffffffffffffffffffffffffffffffffffffffff1673ffffffffffffffffffffffffffffffffffffffff16815260200191505060405180910390f35b34801561018757600080fd5b506101b46004803603602081101561019e57600080fd5b8101908080359060200190929190505050610dda565b6040518082815260200191505060405180910390f35b3480156101d657600080fd5b506101df610df4565b6040518082815260200191505060405180910390f35b34801561020157600080fd5b506102446004803603602081101561021857600080fd5b81019080803573ffffffffffffffffffffffffffffffffffffffff169060200190929190505050610dfa565b005b34801561025257600080fd5b5061025b610e99565b604051808273ffffffffffffffffffffffffffffffffffffffff1673ffffffffffffffffffffffffffffffffffffffff16815260200191505060405180910390f35b3480156102a957600080fd5b506102b2610ebf565b604051808273ffffffffffffffffffffffffffffffffffffffff1673ffffffffffffffffffffffffffffffffffffffff16815260200191505060405180910390f35b34801561030057600080fd5b50610309610ee5565b604051808273ffffffffffffffffffffffffffffffffffffffff1673ffffffffffffffffffffffffffffffffffffffff16815260200191505060405180910390f35b34801561035757600080fd5b5061039a6004803603602081101561036e57600080fd5b81019080803573ffffffffffffffffffffffffffffffffffffffff169060200190929190505050610f0a565b005b3480156103a857600080fd5b506103eb600480360360208110156103bf57600080fd5b81019080803573ffffffffffffffffffffffffffffffffffffffff169060200190929190505050610fa9565b005b3480156103f957600080fd5b50610555600480360361016081101561041157600080fd5b81019080803573ffffffffffffffffffffffffffffffffffffffff169060200190929190803573ffffffffffffffffffffffffffffffffffffffff169060200190929190803573ffffffffffffffffffffffffffffffffffffffff1690602001909291908035906020019064010000000081111561048e57600080fd5b8201836020820111156104a057600080fd5b803590602001918460018302840111640100000000831117156104c257600080fd5b91908080601f016020809104026020016040519081016040528093929190818152602001838380828437600081840152601f19601f8201169050808301925050505050505091929192908060e001906007806020026040519081016040528092919082600760200280828437600081840152601f19601f8201169050808301925050505050509192919290505050611048565b604051808273ffffffffffffffffffffffffffffffffffffffff1673ffffffffffffffffffffffffffffffffffffffff16815260200191505060405180910390f35b3480156105a357600080fd5b506105ac6117e2565b604051808273ffffffffffffffffffffffffffffffffffffffff1673ffffffffffffffffffffffffffffffffffffffff16815260200191505060405180910390f35b3480156105fa57600080fd5b506107d7600480360361020081101561061257600080fd5b81019080803573ffffffffffffffffffffffffffffffffffffffff169060200190929190803573ffffffffffffffffffffffffffffffffffffffff169060200190929190803573ffffffffffffffffffffffffffffffffffffffff169060200190929190803573ffffffffffffffffffffffffffffffffffffffff16906020019092919080606001906003806020026040519081016040528092919082600360200280828437600081840152601f19601f8201169050808301925050505050509192919290803573ffffffffffffffffffffffffffffffffffffffff1690602001909291908035906020019064010000000081111561071057600080fd5b82018360208201111561072257600080fd5b8035906020019184600183028401116401000000008311171561074457600080fd5b91908080601f016020809104026020016040519081016040528093929190818152602001838380828437600081840152601f19601f8201169050808301925050505050505091929192908060e001906007806020026040519081016040528092919082600760200280828437600081840152601f19601f8201169050808301925050505050509192919290505050611808565b604051808273ffffffffffffffffffffffffffffffffffffffff1673ffffffffffffffffffffffffffffffffffffffff16815260200191505060405180910390f35b34801561082557600080fd5b506108686004803603602081101561083c57600080fd5b81019080803573ffffffffffffffffffffffffffffffffffffffff169060200190929190505050611f68565b005b60008273ffffffffffffffffffffffffffffffffffffffff166307779627336040518263ffffffff167c0100000000000000000000000000000000000000000000000000000000028152600401808273ffffffffffffffffffffffffffffffffffffffff1673ffffffffffffffffffffffffffffffffffffffff16815260200191505060206040518083038186803b15801561090557600080fd5b505afa158015610919573d6000803e3d6000fd5b505050506040513d602081101561092f57600080fd5b810190808051906020019092919050505015156109da576040517f08c379a00000000000000000000000000000000000000000000000000000000081526004018080602001828103825260248152602001807f7468652063616c6c6572206d75737420626520612077616c6c65742064656c6581526020017f676174650000000000000000000000000000000000000000000000000000000081525060400191505060405180910390fd5b600260009054906101000a900473ffffffffffffffffffffffffffffffffffffffff1673ffffffffffffffffffffffffffffffffffffffff16630d0e9e3484846040518363ffffffff167c0100000000000000000000000000000000000000000000000000000000028152600401808373ffffffffffffffffffffffffffffffffffffffff1673ffffffffffffffffffffffffffffffffffffffff1681526020018273ffffffffffffffffffffffffffffffffffffffff1673ffffffffffffffffffffffffffffffffffffffff16815260200192505050602060405180830381600087803b158015610acb57600080fd5b505af1158015610adf573d6000803e3d6000fd5b505050506040513d6020811015610af557600080fd5b810190808051906020019092919050505090508073ffffffffffffffffffffffffffffffffffffffff16633c2d7ec860056040518263ffffffff167c0100000000000000000000000000000000000000000000000000000000028152600401808260038015610b79576020028201915b815481526020019060010190808311610b65575b5050915050600060405180830381600087803b158015610b9857600080fd5b505af1158015610bac573d6000803e3d6000fd5b505050508073ffffffffffffffffffffffffffffffffffffffff1663a4d0c0a9600360009054906101000a900473ffffffffffffffffffffffffffffffffffffffff166040518263ffffffff167c0100000000000000000000000000000000000000000000000000000000028152600401808273ffffffffffffffffffffffffffffffffffffffff1673ffffffffffffffffffffffffffffffffffffffff168152602001915050600060405180830381600087803b158015610c6d57600080fd5b505af1158015610c81573d6000803e3d6000fd5b505050508073ffffffffffffffffffffffffffffffffffffffff1663ff080651600460009054906101000a900473ffffffffffffffffffffffffffffffffffffffff166040518263ffffffff167c0100000000000000000000000000000000000000000000000000000000028152600401808273ffffffffffffffffffffffffffffffffffffffff1673ffffffffffffffffffffffffffffffffffffffff168152602001915050600060405180830381600087803b158015610d4257600080fd5b505af1158015610d56573d6000803e3d6000fd5b505050503373ffffffffffffffffffffffffffffffffffffffff167f70dc8e65a761e44c3d4bcfc0b77bb62b529ef682056cc3b760da012d4a07d5a382604051808273ffffffffffffffffffffffffffffffffffffffff1673ffffffffffffffffffffffffffffffffffffffff16815260200191505060405180910390a292915050565b600581600381101515610de957fe5b016000915090505481565b60015481565b6000809054906101000a900473ffffffffffffffffffffffffffffffffffffffff1673ffffffffffffffffffffffffffffffffffffffff163373ffffffffffffffffffffffffffffffffffffffff16141515610e5557600080fd5b80600260006101000a81548173ffffffffffffffffffffffffffffffffffffffff021916908373ffffffffffffffffffffffffffffffffffffffff16021790555050565b600460009054906101000a900473ffffffffffffffffffffffffffffffffffffffff1681565b600360009054906101000a900473ffffffffffffffffffffffffffffffffffffffff1681565b6000809054906101000a900473ffffffffffffffffffffffffffffffffffffffff1681565b6000809054906101000a900473ffffffffffffffffffffffffffffffffffffffff1673ffffffffffffffffffffffffffffffffffffffff163373ffffffffffffffffffffffffffffffffffffffff16141515610f6557600080fd5b80600460006101000a81548173ffffffffffffffffffffffffffffffffffffffff021916908373ffffffffffffffffffffffffffffffffffffffff16021790555050565b6000809054906101000a900473ffffffffffffffffffffffffffffffffffffffff1673ffffffffffffffffffffffffffffffffffffffff163373ffffffffffffffffffffffffffffffffffffffff1614151561100457600080fd5b80600360006101000a81548173ffffffffffffffffffffffffffffffffffffffff021916908373ffffffffffffffffffffffffffffffffffffffff16021790555050565b60008573ffffffffffffffffffffffffffffffffffffffff166307779627336040518263ffffffff167c0100000000000000000000000000000000000000000000000000000000028152600401808273ffffffffffffffffffffffffffffffffffffffff1673ffffffffffffffffffffffffffffffffffffffff16815260200191505060206040518083038186803b1580156110e357600080fd5b505afa1580156110f7573d6000803e3d6000fd5b505050506040513d602081101561110d57600080fd5b810190808051906020019092919050505015156111b8576040517f08c379a00000000000000000000000000000000000000000000000000000000081526004018080602001828103825260248152602001807f7468652063616c6c6572206d75737420626520612077616c6c65742064656c6581526020017f676174650000000000000000000000000000000000000000000000000000000081525060400191505060405180910390fd5b600260009054906101000a900473ffffffffffffffffffffffffffffffffffffffff1673ffffffffffffffffffffffffffffffffffffffff16630d0e9e3487876040518363ffffffff167c0100000000000000000000000000000000000000000000000000000000028152600401808373ffffffffffffffffffffffffffffffffffffffff1673ffffffffffffffffffffffffffffffffffffffff1681526020018273ffffffffffffffffffffffffffffffffffffffff1673ffffffffffffffffffffffffffffffffffffffff16815260200192505050602060405180830381600087803b1580156112a957600080fd5b505af11580156112bd573d6000803e3d6000fd5b505050506040513d60208110156112d357600080fd5b810190808051906020019092919050505090508073ffffffffffffffffffffffffffffffffffffffff16633c2d7ec860056040518263ffffffff167c0100000000000000000000000000000000000000000000000000000000028152600401808260038015611357576020028201915b815481526020019060010190808311611343575b5050915050600060405180830381600087803b15801561137657600080fd5b505af115801561138a573d6000803e3d6000fd5b505050508073ffffffffffffffffffffffffffffffffffffffff1663a4d0c0a9600360009054906101000a900473ffffffffffffffffffffffffffffffffffffffff166040518263ffffffff167c0100000000000000000000000000000000000000000000000000000000028152600401808273ffffffffffffffffffffffffffffffffffffffff1673ffffffffffffffffffffffffffffffffffffffff168152602001915050600060405180830381600087803b15801561144b57600080fd5b505af115801561145f573d6000803e3d6000fd5b505050508073ffffffffffffffffffffffffffffffffffffffff1663ff080651600460009054906101000a900473ffffffffffffffffffffffffffffffffffffffff166040518263ffffffff167c0100000000000000000000000000000000000000000000000000000000028152600401808273ffffffffffffffffffffffffffffffffffffffff1673ffffffffffffffffffffffffffffffffffffffff168152602001915050600060405180830381600087803b15801561152057600080fd5b505af1158015611534573d6000803e3d6000fd5b505050508473ffffffffffffffffffffffffffffffffffffffff1663316bef98826040518263ffffffff167c0100000000000000000000000000000000000000000000000000000000028152600401808273ffffffffffffffffffffffffffffffffffffffff1673ffffffffffffffffffffffffffffffffffffffff168152602001915050602060405180830381600087803b1580156115d357600080fd5b505af11580156115e7573d6000803e3d6000fd5b505050506040513d60208110156115fd57600080fd5b8101908080519060200190929190505050508073ffffffffffffffffffffffffffffffffffffffff166346b9c7b08585856040518463ffffffff167c0100000000000000000000000000000000000000000000000000000000028152600401808473ffffffffffffffffffffffffffffffffffffffff1673ffffffffffffffffffffffffffffffffffffffff1681526020018060200183600760200280838360005b838110156116ba57808201518184015260208101905061169f565b50505050905001828103825284818151815260200191508051906020019080838360005b838110156116f95780820151818401526020810190506116de565b50505050905090810190601f1680156117265780820380516001836020036101000a031916815260200191505b50945050505050600060405180830381600087803b15801561174757600080fd5b505af115801561175b573d6000803e3d6000fd5b505050503373ffffffffffffffffffffffffffffffffffffffff167f70dc8e65a761e44c3d4bcfc0b77bb62b529ef682056cc3b760da012d4a07d5a382604051808273ffffffffffffffffffffffffffffffffffffffff1673ffffffffffffffffffffffffffffffffffffffff16815260200191505060405180910390a295945050505050565b600260009054906101000a900473ffffffffffffffffffffffffffffffffffffffff1681565b60008873ffffffffffffffffffffffffffffffffffffffff166307779627336040518263ffffffff167c0100000000000000000000000000000000000000000000000000000000028152600401808273ffffffffffffffffffffffffffffffffffffffff1673ffffffffffffffffffffffffffffffffffffffff16815260200191505060206040518083038186803b1580156118a357600080fd5b505afa1580156118b7573d6000803e3d6000fd5b505050506040513d60208110156118cd57600080fd5b81019080805190602001909291905050501515611978576040517f08c379a00000000000000000000000000000000000000000000000000000000081526004018080602001828103825260248152602001807f7468652063616c6c6572206d75737420626520612077616c6c65742064656c6581526020017f676174650000000000000000000000000000000000000000000000000000000081525060400191505060405180910390fd5b600260009054906101000a900473ffffffffffffffffffffffffffffffffffffffff1673ffffffffffffffffffffffffffffffffffffffff16630d0e9e348a8a6040518363ffffffff167c0100000000000000000000000000000000000000000000000000000000028152600401808373ffffffffffffffffffffffffffffffffffffffff1673ffffffffffffffffffffffffffffffffffffffff1681526020018273ffffffffffffffffffffffffffffffffffffffff1673ffffffffffffffffffffffffffffffffffffffff16815260200192505050602060405180830381600087803b158015611a6957600080fd5b505af1158015611a7d573d6000803e3d6000fd5b505050506040513d6020811015611a9357600080fd5b810190808051906020019092919050505090508073ffffffffffffffffffffffffffffffffffffffff16633c2d7ec8866040518263ffffffff167c01000000000000000000000000000000000000000000000000000000000281526004018082600360200280838360005b83811015611b19578082015181840152602081019050611afe565b50505050905001915050600060405180830381600087803b158015611b3d57600080fd5b505af1158015611b51573d6000803e3d6000fd5b505050508073ffffffffffffffffffffffffffffffffffffffff1663a4d0c0a9886040518263ffffffff167c0100000000000000000000000000000000000000000000000000000000028152600401808273ffffffffffffffffffffffffffffffffffffffff1673ffffffffffffffffffffffffffffffffffffffff168152602001915050600060405180830381600087803b158015611bf057600080fd5b505af1158015611c04573d6000803e3d6000fd5b505050508073ffffffffffffffffffffffffffffffffffffffff1663ff080651876040518263ffffffff167c0100000000000000000000000000000000000000000000000000000000028152600401808273ffffffffffffffffffffffffffffffffffffffff1673ffffffffffffffffffffffffffffffffffffffff168152602001915050600060405180830381600087803b158015611ca357600080fd5b505af1158015611cb7573d6000803e3d6000fd5b505050508773ffffffffffffffffffffffffffffffffffffffff1663316bef98826040518263ffffffff167c0100000000000000000000000000000000000000000000000000000000028152600401808273ffffffffffffffffffffffffffffffffffffffff1673ffffffffffffffffffffffffffffffffffffffff168152602001915050602060405180830381600087803b158015611d5657600080fd5b505af1158015611d6a573d6000803e3d6000fd5b505050506040513d6020811015611d8057600080fd5b8101908080519060200190929190505050508073ffffffffffffffffffffffffffffffffffffffff166346b9c7b08585856040518463ffffffff167c0100000000000000000000000000000000000000000000000000000000028152600401808473ffffffffffffffffffffffffffffffffffffffff1673ffffffffffffffffffffffffffffffffffffffff1681526020018060200183600760200280838360005b83811015611e3d578082015181840152602081019050611e22565b50505050905001828103825284818151815260200191508051906020019080838360005b83811015611e7c578082015181840152602081019050611e61565b50505050905090810190601f168015611ea95780820380516001836020036101000a031916815260200191505b50945050505050600060405180830381600087803b158015611eca57600080fd5b505af1158015611ede573d6000803e3d6000fd5b505050503373ffffffffffffffffffffffffffffffffffffffff167f70dc8e65a761e44c3d4bcfc0b77bb62b529ef682056cc3b760da012d4a07d5a382604051808273ffffffffffffffffffffffffffffffffffffffff1673ffffffffffffffffffffffffffffffffffffffff16815260200191505060405180910390a298975050505050505050565b6000809054906101000a900473ffffffffffffffffffffffffffffffffffffffff1673ffffffffffffffffffffffffffffffffffffffff163373ffffffffffffffffffffffffffffffffffffffff16141515611fc357600080fd5b806000806101000a81548173ffffffffffffffffffffffffffffffffffffffff021916908373ffffffffffffffffffffffffffffffffffffffff1602179055505056fea165627a7a72305820f35443db5be16b819e27b0b524d75aabbf3346481bb320512f55dc67917754be0029",
  "source": "pragma solidity ^0.5.0;\n\nimport \"./RecurringAlarmClockFactory.sol\";\nimport \"./PaymentDelegate.sol\";\n\n/// @title RecurringAlarmClockDeployer\n/// @author Joseph Reed\n/// @dev This contract's goal is to make it super easy to create a recurring alarm clock by setting several default values\ncontract RecurringAlarmClockDeployer is Owned {\n\n    uint public blockCreated = block.number;\n    \n    RecurringAlarmClockFactory public defaultFactory;\n    IGasPriceOracle public defaultOracle;\n    address public defaultCaller;\n    uint[3] public defaultLimits;\n\n    /// @notice Constructor to create a smart contract which aids in creating a recurring alarm clock\n    /// @param _defaultFactory The default factory contract responsible for deploying decentralized alarm clocks\n    /// @param _defaultOracle The default gas price oracle responsible for predicting future gas costs\n    constructor (\n        RecurringAlarmClockFactory _defaultFactory,\n        IGasPriceOracle _defaultOracle\n    ) public {\n        defaultFactory = _defaultFactory;\n        defaultOracle = _defaultOracle;\n        defaultCaller = msg.sender;\n        \n        defaultLimits[0] = 60 minutes;     // claimWindowSize\n        defaultLimits[1] = 3 minutes;      // freezeIntervalDuration\n        defaultLimits[2] = 5 minutes;      // reservedWindowSize\n    }\n\n    function setDefaultOracle (IGasPriceOracle newDefaultOracle) public onlyOwner {\n        defaultOracle = newDefaultOracle;\n    }\n\n    function setDefaultCaller (address newDefaultCaller) public onlyOwner {\n        defaultCaller = newDefaultCaller;\n    }\n\n    function setDefaultFactory (RecurringAlarmClockFactory newDefaultFactory) public onlyOwner {\n        defaultFactory = newDefaultFactory;\n    }\n\n    /// @notice Creates an alarm clock belonging to the specified wallet\n    /// @param wallet The funding wallet, change address, and owner of the deployed alarms\n    /// @param delegate The delegate from which to pull alarm payments\n    /// @return The recurring alarm clock contract address\n    function createAlarmClock(\n        IDelegatedWallet wallet, \n        IPaymentDelegate delegate\n    ) public returns (RecurringAlarmClock alarmClock) {\n        require(wallet.isDelegate(msg.sender), \"the caller must be a wallet delegate\");\n        \n        alarmClock = defaultFactory.createAlarmClock(wallet,delegate);\n        alarmClock.setExecutionLimits(defaultLimits);\n        alarmClock.setGasPriceOracle(defaultOracle);\n        alarmClock.setPriorityCaller(defaultCaller);\n        emit DeployAlarmClock_event(msg.sender, address(alarmClock));\n    }\n\n    /// @notice Creates and starts an alarm clock belonging to the specified wallet with the specified call options\n    /// @param wallet The funding wallet, change address, and owner of the deployed alarms\n    /// @param delegate The delegate from which to pull alarm payments\n    /// @param callAddress The address the alarm clock will call each time it is triggered\n    /// @param callData The data the alarm clock will send with the call\n    /// @param callOptions The options defining how and when to trigger the alarm clock\n    /// @return The recurring alarm clock contract address\n    function createAndStartAlarmClock(\n        IDelegatedWallet wallet,\n        IPaymentDelegate delegate,\n        address payable callAddress,\n        bytes memory callData,\n        uint[7] memory callOptions      // callValue, callGas, startTimestamp, windowSize, intervalValue, intervalUnit, maxIntervals\n    ) public returns (RecurringAlarmClock alarmClock) {\n        require(wallet.isDelegate(msg.sender), \"the caller must be a wallet delegate\");\n\n        alarmClock = defaultFactory.createAlarmClock(wallet,delegate);\n        alarmClock.setExecutionLimits(defaultLimits);\n        alarmClock.setGasPriceOracle(defaultOracle);\n        alarmClock.setPriorityCaller(defaultCaller);\n\n        delegate.schedule(alarmClock);\n\n        alarmClock.start(callAddress, callData, callOptions);\n        emit DeployAlarmClock_event(msg.sender, address(alarmClock));\n    }    \n\n    /// @notice Creates an alarm clock\n    /// @param delegate The delegate from which to pull alarm payments\n    /// @param wallet The funding wallet, change address, and owner of the deployed alarms\n    /// @param customCaller The custom caller receives a base amount of the alarm fee regardless of if they call the alarm.\n    /// @param customOracle The feed that supplies the current network gas price\n    /// @param customLimits The ethereum alarm clock limits used when calling decentralized alarms.\n    /// @param callAddress The address the alarm clock will call each time it is triggered\n    /// @param callData The data the alarm clock will send with the call\n    /// @param callOptions The options defining how and when to trigger the alarm clock\n    /// @return The recurring alarm clock contract address\n    function createAndStartRawAlarmClock(\n        IDelegatedWallet wallet,\n        IPaymentDelegate delegate,\n        IGasPriceOracle customOracle,\n        address customCaller,\n        uint[3] memory customLimits,\n        address payable callAddress,\n        bytes memory callData,\n        uint[7] memory callOptions      // callValue, callGas, startTimestamp, windowSize, intervalValue, intervalUnit, maxIntervals\n    ) public returns (RecurringAlarmClock alarmClock) {\n        require(wallet.isDelegate(msg.sender), \"the caller must be a wallet delegate\");\n\n        alarmClock = defaultFactory.createAlarmClock(wallet,delegate);\n        alarmClock.setExecutionLimits(customLimits);\n        alarmClock.setGasPriceOracle(customOracle);\n        alarmClock.setPriorityCaller(customCaller);\n\n        delegate.schedule(alarmClock);\n\n        alarmClock.start(callAddress, callData, callOptions);\n        emit DeployAlarmClock_event(msg.sender, address(alarmClock));\n    }\n\n    event DeployAlarmClock_event(address indexed caller, address alarmClock);\n\n}\n",
  "sourcePath": "/home/joe/Documents/github/everchain-project/recurring-alarm-clock/contracts/RecurringAlarmClockDeployer.sol",
  "compiler": {
    "name": "solc",
    "version": "0.5.0+commit.1d4f565a.Emscripten.clang"
  },
  "schemaVersion": "3.0.1",
  "updatedAt": "2019-01-20T00:08:46.452Z",
  "devdoc": {
    "author": "Joseph Reed",
    "details": "This contract's goal is to make it super easy to create a recurring alarm clock by setting several default values",
    "methods": {
      "constructor": {
        "params": {
          "_defaultFactory": "The default factory contract responsible for deploying decentralized alarm clocks",
          "_defaultOracle": "The default gas price oracle responsible for predicting future gas costs"
        }
      },
      "createAlarmClock(address,address)": {
        "params": {
          "delegate": "The delegate from which to pull alarm payments",
          "wallet": "The funding wallet, change address, and owner of the deployed alarms"
        },
        "return": "The recurring alarm clock contract address"
      },
      "createAndStartAlarmClock(address,address,address,bytes,uint256[7])": {
        "params": {
          "callAddress": "The address the alarm clock will call each time it is triggered",
          "callData": "The data the alarm clock will send with the call",
          "callOptions": "The options defining how and when to trigger the alarm clock",
          "delegate": "The delegate from which to pull alarm payments",
          "wallet": "The funding wallet, change address, and owner of the deployed alarms"
        },
        "return": "The recurring alarm clock contract address"
      },
      "createAndStartRawAlarmClock(address,address,address,address,uint256[3],address,bytes,uint256[7])": {
        "params": {
          "callAddress": "The address the alarm clock will call each time it is triggered",
          "callData": "The data the alarm clock will send with the call",
          "callOptions": "The options defining how and when to trigger the alarm clock",
          "customCaller": "The custom caller receives a base amount of the alarm fee regardless of if they call the alarm.",
          "customLimits": "The ethereum alarm clock limits used when calling decentralized alarms.",
          "customOracle": "The feed that supplies the current network gas price",
          "delegate": "The delegate from which to pull alarm payments",
          "wallet": "The funding wallet, change address, and owner of the deployed alarms"
        },
        "return": "The recurring alarm clock contract address"
      }
    },
    "title": "RecurringAlarmClockDeployer"
  },
  "userdoc": {
    "methods": {
      "constructor": "Constructor to create a smart contract which aids in creating a recurring alarm clock",
      "createAlarmClock(address,address)": {
        "notice": "Creates an alarm clock belonging to the specified wallet"
      },
      "createAndStartAlarmClock(address,address,address,bytes,uint256[7])": {
        "notice": "Creates and starts an alarm clock belonging to the specified wallet with the specified call options"
      },
      "createAndStartRawAlarmClock(address,address,address,address,uint256[3],address,bytes,uint256[7])": {
        "notice": "Creates an alarm clock"
      }
    }
  }
}