{
  "contractName": "RecurringAlarmClockWizard",
  "abi": [
    {
      "constant": true,
      "inputs": [],
      "name": "priorityCaller",
      "outputs": [
        {
          "name": "",
          "type": "address"
        }
      ],
      "payable": false,
      "stateMutability": "view",
      "type": "function"
    },
    {
      "constant": true,
      "inputs": [],
      "name": "factory",
      "outputs": [
        {
          "name": "",
          "type": "address"
        }
      ],
      "payable": false,
      "stateMutability": "view",
      "type": "function"
    },
    {
      "constant": true,
      "inputs": [],
      "name": "safetyMultiplier",
      "outputs": [
        {
          "name": "",
          "type": "uint256"
        }
      ],
      "payable": false,
      "stateMutability": "view",
      "type": "function"
    },
    {
      "inputs": [
        {
          "name": "_everchain",
          "type": "address"
        },
        {
          "name": "_factory",
          "type": "address"
        }
      ],
      "payable": false,
      "stateMutability": "nonpayable",
      "type": "constructor"
    },
    {
      "anonymous": false,
      "inputs": [
        {
          "indexed": true,
          "name": "target",
          "type": "address"
        },
        {
          "indexed": false,
          "name": "clone",
          "type": "address"
        }
      ],
      "name": "CloneCreated",
      "type": "event"
    },
    {
      "constant": false,
      "inputs": [
        {
          "name": "delegate",
          "type": "address"
        },
        {
          "name": "wallet",
          "type": "address"
        },
        {
          "name": "startTimestamp",
          "type": "uint256"
        },
        {
          "name": "totalPayments",
          "type": "uint256"
        },
        {
          "name": "period",
          "type": "uint256"
        },
        {
          "name": "gas",
          "type": "uint256"
        }
      ],
      "name": "createRecurringAlarmClock",
      "outputs": [
        {
          "name": "",
          "type": "address"
        }
      ],
      "payable": false,
      "stateMutability": "nonpayable",
      "type": "function"
    }
  ],
  "bytecode": "0x6080604052601860025534801561001557600080fd5b50604051604080610619833981018060405281019080805190602001909291908051906020019092919050505081600160006101000a81548173ffffffffffffffffffffffffffffffffffffffff021916908373ffffffffffffffffffffffffffffffffffffffff160217905550806000806101000a81548173ffffffffffffffffffffffffffffffffffffffff021916908373ffffffffffffffffffffffffffffffffffffffff1602179055505050610545806100d46000396000f300608060405260043610610062576000357c0100000000000000000000000000000000000000000000000000000000900463ffffffff1680631fd3ea5214610067578063c45a0155146100be578063d57f1d9b14610115578063ea7dca3d14610140575b600080fd5b34801561007357600080fd5b5061007c61020b565b604051808273ffffffffffffffffffffffffffffffffffffffff1673ffffffffffffffffffffffffffffffffffffffff16815260200191505060405180910390f35b3480156100ca57600080fd5b506100d3610231565b604051808273ffffffffffffffffffffffffffffffffffffffff1673ffffffffffffffffffffffffffffffffffffffff16815260200191505060405180910390f35b34801561012157600080fd5b5061012a610256565b6040518082815260200191505060405180910390f35b34801561014c57600080fd5b506101c9600480360381019080803573ffffffffffffffffffffffffffffffffffffffff169060200190929190803573ffffffffffffffffffffffffffffffffffffffff1690602001909291908035906020019092919080359060200190929190803590602001909291908035906020019092919050505061025c565b604051808273ffffffffffffffffffffffffffffffffffffffff1673ffffffffffffffffffffffffffffffffffffffff16815260200191505060405180910390f35b600160009054906101000a900473ffffffffffffffffffffffffffffffffffffffff1681565b6000809054906101000a900473ffffffffffffffffffffffffffffffffffffffff1681565b60025481565b60006102666104d2565b61026e6104f5565b606060405190810160405280600254815260200186815260200187815250915061014060405190810160405280610e10815260200160b4815260200161012c8152602001600281526020016201518081526020018881526020018581526020016000815260200160008152602001600081525090506000809054906101000a900473ffffffffffffffffffffffffffffffffffffffff1673ffffffffffffffffffffffffffffffffffffffff1663919a57ad8a8a600160009054906101000a900473ffffffffffffffffffffffffffffffffffffffff1686866040518663ffffffff167c0100000000000000000000000000000000000000000000000000000000028152600401808673ffffffffffffffffffffffffffffffffffffffff1673ffffffffffffffffffffffffffffffffffffffff1681526020018573ffffffffffffffffffffffffffffffffffffffff1673ffffffffffffffffffffffffffffffffffffffff1681526020018473ffffffffffffffffffffffffffffffffffffffff1673ffffffffffffffffffffffffffffffffffffffff16815260200183600360200280838360005b83811015610433578082015181840152602081019050610418565b5050505090500182600a60200280838360005b83811015610461578082015181840152602081019050610446565b5050505090500195505050505050602060405180830381600087803b15801561048957600080fd5b505af115801561049d573d6000803e3d6000fd5b505050506040513d60208110156104b357600080fd5b8101908080519060200190929190505050925050509695505050505050565b606060405190810160405280600390602082028038833980820191505090505090565b61014060405190810160405280600a906020820280388339808201915050905050905600a165627a7a7230582054e84b2328dd42259f5827ce1b7f71bdeded92d71f1d312b8ed713ae5b85f2a30029",
  "source": "pragma solidity ^0.4.23;\r\n\r\nimport \"./external/CloneFactory.sol\";\r\nimport \"./RecurringAlarmClockFactory.sol\";\r\n\r\ncontract RecurringAlarmClockWizard is CloneFactory {\r\n    \r\n    RecurringAlarmClockFactory public factory;\r\n    address public priorityCaller;\r\n    uint public safetyMultiplier = 10^18;\r\n\r\n    constructor (address _everchain, RecurringAlarmClockFactory _factory) public {\r\n        priorityCaller = _everchain;\r\n        factory = _factory;\r\n    }\r\n\r\n    function createRecurringAlarmClock(\r\n        IFuturePaymentDelegate delegate,\r\n        IDelegatedWallet wallet,\r\n        uint startTimestamp,\r\n        uint totalPayments,\r\n        uint period,\r\n        uint gas\r\n    ) public returns (RecurringAlarmClock) {\r\n        uint[3] memory recurringAlarmClockOptions = [\r\n            safetyMultiplier,\r\n            period,\r\n            totalPayments\r\n        ];\r\n\r\n        uint[10] memory ethereumAlarmClockOptions = [\r\n            60 minutes,     // claimWindowSize\r\n            3 minutes,      // freezePeriod\r\n            5 minutes,      // reservedWindowSize\r\n            2,              // 2 = Use timestamp based scheduling instead of blocks\r\n            24 hours,       // The size of the execution window\r\n            startTimestamp, // The start of the execution window\r\n            gas,            // The amount of gas to be sent with the transaction\r\n            0,              // The amount of ether to be sent\r\n            0,              // The minimum gas price for the alarm when called\r\n            0               // The required deposit by the claimer\r\n        ];\r\n        \r\n        return factory.createRecurringAlarmClock(\r\n            delegate,\r\n            wallet,\r\n            priorityCaller,\r\n            recurringAlarmClockOptions,\r\n            ethereumAlarmClockOptions\r\n        );\r\n    }\r\n\r\n}\r\n",
  "sourcePath": "C:\\Users\\My\\Documents\\GitHub\\everchain-project\\recurring-alarm-clock\\contracts\\RecurringAlarmClockWizard.sol",
  "compiler": {
    "name": "solc",
    "version": "0.4.24+commit.e67f0147.Emscripten.clang"
  },
  "schemaVersion": "2.0.1",
  "updatedAt": "2018-10-01T21:52:34.996Z"
}