{
  "contractName": "RecurringAlarmClock",
  "abi": [
    {
      "constant": true,
      "inputs": [],
      "name": "priorityCaller",
      "outputs": [
        {
          "name": "",
          "type": "address"
        }
      ],
      "payable": false,
      "stateMutability": "view",
      "type": "function"
    },
    {
      "constant": true,
      "inputs": [],
      "name": "intervalDuration",
      "outputs": [
        {
          "name": "",
          "type": "uint256"
        }
      ],
      "payable": false,
      "stateMutability": "view",
      "type": "function"
    },
    {
      "constant": true,
      "inputs": [],
      "name": "task",
      "outputs": [
        {
          "name": "",
          "type": "address"
        }
      ],
      "payable": false,
      "stateMutability": "view",
      "type": "function"
    },
    {
      "constant": true,
      "inputs": [],
      "name": "currentInterval",
      "outputs": [
        {
          "name": "",
          "type": "uint256"
        }
      ],
      "payable": false,
      "stateMutability": "view",
      "type": "function"
    },
    {
      "constant": true,
      "inputs": [
        {
          "name": "",
          "type": "uint256"
        }
      ],
      "name": "eacOptions",
      "outputs": [
        {
          "name": "",
          "type": "uint256"
        }
      ],
      "payable": false,
      "stateMutability": "view",
      "type": "function"
    },
    {
      "constant": true,
      "inputs": [],
      "name": "eac",
      "outputs": [
        {
          "name": "",
          "type": "address"
        }
      ],
      "payable": false,
      "stateMutability": "view",
      "type": "function"
    },
    {
      "constant": true,
      "inputs": [],
      "name": "callData",
      "outputs": [
        {
          "name": "",
          "type": "bytes"
        }
      ],
      "payable": false,
      "stateMutability": "view",
      "type": "function"
    },
    {
      "constant": true,
      "inputs": [],
      "name": "blockCreated",
      "outputs": [
        {
          "name": "",
          "type": "uint256"
        }
      ],
      "payable": false,
      "stateMutability": "view",
      "type": "function"
    },
    {
      "constant": true,
      "inputs": [],
      "name": "wallet",
      "outputs": [
        {
          "name": "",
          "type": "address"
        }
      ],
      "payable": false,
      "stateMutability": "view",
      "type": "function"
    },
    {
      "constant": true,
      "inputs": [],
      "name": "recipient",
      "outputs": [
        {
          "name": "",
          "type": "address"
        }
      ],
      "payable": false,
      "stateMutability": "view",
      "type": "function"
    },
    {
      "constant": true,
      "inputs": [],
      "name": "maximumIntervals",
      "outputs": [
        {
          "name": "",
          "type": "uint256"
        }
      ],
      "payable": false,
      "stateMutability": "view",
      "type": "function"
    },
    {
      "constant": true,
      "inputs": [],
      "name": "alarm",
      "outputs": [
        {
          "name": "",
          "type": "address"
        }
      ],
      "payable": false,
      "stateMutability": "view",
      "type": "function"
    },
    {
      "constant": true,
      "inputs": [],
      "name": "delegate",
      "outputs": [
        {
          "name": "",
          "type": "address"
        }
      ],
      "payable": false,
      "stateMutability": "view",
      "type": "function"
    },
    {
      "constant": true,
      "inputs": [],
      "name": "safetyMultiplier",
      "outputs": [
        {
          "name": "",
          "type": "uint256"
        }
      ],
      "payable": false,
      "stateMutability": "view",
      "type": "function"
    },
    {
      "constant": true,
      "inputs": [],
      "name": "token",
      "outputs": [
        {
          "name": "",
          "type": "address"
        }
      ],
      "payable": false,
      "stateMutability": "view",
      "type": "function"
    },
    {
      "payable": true,
      "stateMutability": "payable",
      "type": "fallback"
    },
    {
      "anonymous": false,
      "inputs": [
        {
          "indexed": false,
          "name": "alarm",
          "type": "address"
        },
        {
          "indexed": false,
          "name": "currentInterval",
          "type": "uint256"
        },
        {
          "indexed": false,
          "name": "success",
          "type": "bool"
        }
      ],
      "name": "Task_event",
      "type": "event"
    },
    {
      "anonymous": false,
      "inputs": [
        {
          "indexed": true,
          "name": "sender",
          "type": "address"
        },
        {
          "indexed": false,
          "name": "amount",
          "type": "uint256"
        }
      ],
      "name": "Deposit_event",
      "type": "event"
    },
    {
      "anonymous": false,
      "inputs": [
        {
          "indexed": true,
          "name": "sender",
          "type": "address"
        },
        {
          "indexed": false,
          "name": "alarm",
          "type": "address"
        }
      ],
      "name": "ValidRequest_event",
      "type": "event"
    },
    {
      "anonymous": false,
      "inputs": [
        {
          "indexed": false,
          "name": "params",
          "type": "bool[6]"
        }
      ],
      "name": "InvalidRequest_event",
      "type": "event"
    },
    {
      "constant": false,
      "inputs": [
        {
          "name": "_eac",
          "type": "address"
        },
        {
          "name": "_delegate",
          "type": "address"
        },
        {
          "name": "_wallet",
          "type": "address"
        },
        {
          "name": "_priorityCaller",
          "type": "address"
        },
        {
          "name": "_callData",
          "type": "bytes"
        },
        {
          "name": "_recurringAlarmClockOptions",
          "type": "uint256[3]"
        },
        {
          "name": "_ethereumAlarmClockOptions",
          "type": "uint256[10]"
        }
      ],
      "name": "initialize",
      "outputs": [],
      "payable": false,
      "stateMutability": "nonpayable",
      "type": "function"
    },
    {
      "constant": false,
      "inputs": [
        {
          "name": "_task",
          "type": "address"
        }
      ],
      "name": "start",
      "outputs": [],
      "payable": false,
      "stateMutability": "nonpayable",
      "type": "function"
    },
    {
      "constant": true,
      "inputs": [],
      "name": "amount",
      "outputs": [
        {
          "name": "",
          "type": "uint256"
        }
      ],
      "payable": false,
      "stateMutability": "view",
      "type": "function"
    },
    {
      "constant": false,
      "inputs": [],
      "name": "cancel",
      "outputs": [],
      "payable": false,
      "stateMutability": "nonpayable",
      "type": "function"
    }
  ],
  "bytecode": "0x608060405234801561001057600080fd5b50611a2e806100206000396000f300608060405260043610610107576000357c0100000000000000000000000000000000000000000000000000000000900463ffffffff1680631fd3ea521461016e5780633076dc42146101c55780633283f641146101f0578063363487bc14610247578063440c44eb1461027257806349ef8763146102b35780634e417a981461030a5780634e989a4c1461039a578063521eb273146103c557806366d003ac1461041c57806393f358d814610473578063aa8c217c1461049e578063b94d3da0146104c9578063bb7e8c2814610611578063c89e436114610668578063d57f1d9b146106bf578063dd0b281e146106ea578063ea8a1af01461072d578063fc0c546a14610744575b600034141561011d5761011861079b565b61016c565b3373ffffffffffffffffffffffffffffffffffffffff167f13d8b731cfddb1e8d6d230a4f64afe94251cf4c4fa93e730ebda89a63f8baa21346040518082815260200191505060405180910390a25b005b34801561017a57600080fd5b50610183610a5d565b604051808273ffffffffffffffffffffffffffffffffffffffff1673ffffffffffffffffffffffffffffffffffffffff16815260200191505060405180910390f35b3480156101d157600080fd5b506101da610a83565b6040518082815260200191505060405180910390f35b3480156101fc57600080fd5b50610205610a89565b604051808273ffffffffffffffffffffffffffffffffffffffff1673ffffffffffffffffffffffffffffffffffffffff16815260200191505060405180910390f35b34801561025357600080fd5b5061025c610aaf565b6040518082815260200191505060405180910390f35b34801561027e57600080fd5b5061029d60048036038101908080359060200190929190505050610ab5565b6040518082815260200191505060405180910390f35b3480156102bf57600080fd5b506102c8610acf565b604051808273ffffffffffffffffffffffffffffffffffffffff1673ffffffffffffffffffffffffffffffffffffffff16815260200191505060405180910390f35b34801561031657600080fd5b5061031f610af5565b6040518080602001828103825283818151815260200191508051906020019080838360005b8381101561035f578082015181840152602081019050610344565b50505050905090810190601f16801561038c5780820380516001836020036101000a031916815260200191505b509250505060405180910390f35b3480156103a657600080fd5b506103af610b93565b6040518082815260200191505060405180910390f35b3480156103d157600080fd5b506103da610b99565b604051808273ffffffffffffffffffffffffffffffffffffffff1673ffffffffffffffffffffffffffffffffffffffff16815260200191505060405180910390f35b34801561042857600080fd5b50610431610bbf565b604051808273ffffffffffffffffffffffffffffffffffffffff1673ffffffffffffffffffffffffffffffffffffffff16815260200191505060405180910390f35b34801561047f57600080fd5b50610488610be5565b6040518082815260200191505060405180910390f35b3480156104aa57600080fd5b506104b3610beb565b6040518082815260200191505060405180910390f35b3480156104d557600080fd5b5061060f600480360381019080803573ffffffffffffffffffffffffffffffffffffffff169060200190929190803573ffffffffffffffffffffffffffffffffffffffff169060200190929190803573ffffffffffffffffffffffffffffffffffffffff169060200190929190803573ffffffffffffffffffffffffffffffffffffffff169060200190929190803590602001908201803590602001908080601f01602080910402602001604051908101604052809392919081815260200183838082843782019150505050505091929192908060600190600380602002604051908101604052809291908260036020028082843782019150505050509192919290806101400190600a806020026040519081016040528092919082600a6020028082843782019150505050509192919290505050610c1e565b005b34801561061d57600080fd5b50610626610e51565b604051808273ffffffffffffffffffffffffffffffffffffffff1673ffffffffffffffffffffffffffffffffffffffff16815260200191505060405180910390f35b34801561067457600080fd5b5061067d610e77565b604051808273ffffffffffffffffffffffffffffffffffffffff1673ffffffffffffffffffffffffffffffffffffffff16815260200191505060405180910390f35b3480156106cb57600080fd5b506106d4610e9d565b6040518082815260200191505060405180910390f35b3480156106f657600080fd5b5061072b600480360381019080803573ffffffffffffffffffffffffffffffffffffffff169060200190929190505050610ea3565b005b34801561073957600080fd5b50610742610fdb565b005b34801561075057600080fd5b50610759611140565b604051808273ffffffffffffffffffffffffffffffffffffffff1673ffffffffffffffffffffffffffffffffffffffff16815260200191505060405180910390f35b6000600a60009054906101000a900473ffffffffffffffffffffffffffffffffffffffff1673ffffffffffffffffffffffffffffffffffffffff163373ffffffffffffffffffffffffffffffffffffffff161415156107f957600080fd5b600860009054906101000a900473ffffffffffffffffffffffffffffffffffffffff1673ffffffffffffffffffffffffffffffffffffffff165a600b604051808280546001816001161561010002031660029004801561089a5780601f1061086f5761010080835404028352916020019161089a565b820191906000526020600020905b81548152906001019060200180831161087d57829003601f168201915b505091505060006040518083038160008787f19250505090507ff389d8eb5d2b0093897464beef0e2fcd8000e243b5d356fbe2728c4297aa8df13360195483604051808473ffffffffffffffffffffffffffffffffffffffff1673ffffffffffffffffffffffffffffffffffffffff16815260200183815260200182151515158152602001935050505060405180910390a160185460195411151561097957601960008154809291906001019190505550601754600c6005600a8110151561095e57fe5b0160008282540192505081905550610974611166565b610a5a565b600660009054906101000a900473ffffffffffffffffffffffffffffffffffffffff1673ffffffffffffffffffffffffffffffffffffffff1663daf1548c6040518163ffffffff167c0100000000000000000000000000000000000000000000000000000000028152600401600060405180830381600087803b1580156109ff57600080fd5b505af1158015610a13573d6000803e3d6000fd5b505050506000600a60006101000a81548173ffffffffffffffffffffffffffffffffffffffff021916908373ffffffffffffffffffffffffffffffffffffffff1602179055505b50565b600960009054906101000a900473ffffffffffffffffffffffffffffffffffffffff1681565b60175481565b600860009054906101000a900473ffffffffffffffffffffffffffffffffffffffff1681565b60195481565b600c81600a81101515610ac457fe5b016000915090505481565b600560009054906101000a900473ffffffffffffffffffffffffffffffffffffffff1681565b600b8054600181600116156101000203166002900480601f016020809104026020016040519081016040528092919081815260200182805460018160011615610100020316600290048015610b8b5780601f10610b6057610100808354040283529160200191610b8b565b820191906000526020600020905b815481529060010190602001808311610b6e57829003601f168201915b505050505081565b60045481565b600760009054906101000a900473ffffffffffffffffffffffffffffffffffffffff1681565b600260009054906101000a900473ffffffffffffffffffffffffffffffffffffffff1681565b60185481565b600080600c6006600a81101515610bfe57fe5b015490506012600a601654833a0202811515610c1657fe5b041891505090565b6000600454141515610cbe576040517f08c379a00000000000000000000000000000000000000000000000000000000081526004018080602001828103825260258152602001807f636f6e74726163742063616e206f6e6c7920626520696e697469616c697a656481526020017f206f6e636500000000000000000000000000000000000000000000000000000081525060400191505060405180910390fd5b86600560006101000a81548173ffffffffffffffffffffffffffffffffffffffff021916908373ffffffffffffffffffffffffffffffffffffffff16021790555085600660006101000a81548173ffffffffffffffffffffffffffffffffffffffff021916908373ffffffffffffffffffffffffffffffffffffffff16021790555084600760006101000a81548173ffffffffffffffffffffffffffffffffffffffff021916908373ffffffffffffffffffffffffffffffffffffffff16021790555083600960006101000a81548173ffffffffffffffffffffffffffffffffffffffff021916908373ffffffffffffffffffffffffffffffffffffffff16021790555082600b9080519060200190610dd89291906118b3565b5080600c90600a610dea929190611933565b50816000600381101515610dfa57fe5b6020020151601681905550816001600381101515610e1457fe5b6020020151601781905550816002600381101515610e2e57fe5b602002015160188190555060016019819055504360048190555050505050505050565b600a60009054906101000a900473ffffffffffffffffffffffffffffffffffffffff1681565b600660009054906101000a900473ffffffffffffffffffffffffffffffffffffffff1681565b60165481565b600073ffffffffffffffffffffffffffffffffffffffff16600860009054906101000a900473ffffffffffffffffffffffffffffffffffffffff1673ffffffffffffffffffffffffffffffffffffffff16141515610f8f576040517f08c379a00000000000000000000000000000000000000000000000000000000081526004018080602001828103825260248152602001807f7461736b206d757374206e6f742062652073657420746f20737461727420612081526020017f7461736b0000000000000000000000000000000000000000000000000000000081525060400191505060405180910390fd5b80600860006101000a81548173ffffffffffffffffffffffffffffffffffffffff021916908373ffffffffffffffffffffffffffffffffffffffff160217905550610fd8611166565b50565b600860009054906101000a900473ffffffffffffffffffffffffffffffffffffffff1673ffffffffffffffffffffffffffffffffffffffff163373ffffffffffffffffffffffffffffffffffffffff161415156110a0576040517f08c379a00000000000000000000000000000000000000000000000000000000081526004018080602001828103825260208152602001807f6d73672e73656e646572206973206e6f742074686520616c61726d207461736b81525060200191505060405180910390fd5b600660009054906101000a900473ffffffffffffffffffffffffffffffffffffffff1673ffffffffffffffffffffffffffffffffffffffff1663daf1548c6040518163ffffffff167c0100000000000000000000000000000000000000000000000000000000028152600401600060405180830381600087803b15801561112657600080fd5b505af115801561113a573d6000803e3d6000fd5b50505050565b600360009054906101000a900473ffffffffffffffffffffffffffffffffffffffff1681565b6000806000611173611973565b61117b611996565b6111836119ba565b600660009054906101000a900473ffffffffffffffffffffffffffffffffffffffff1673ffffffffffffffffffffffffffffffffffffffff1663614619546040518163ffffffff167c0100000000000000000000000000000000000000000000000000000000028152600401602060405180830381600087803b15801561120957600080fd5b505af115801561121d573d6000803e3d6000fd5b505050506040513d602081101561123357600080fd5b8101908080519060200190929190505050503073ffffffffffffffffffffffffffffffffffffffff1631955060648681151561126b57fe5b0494508486039350606060405190810160405280600760009054906101000a900473ffffffffffffffffffffffffffffffffffffffff1673ffffffffffffffffffffffffffffffffffffffff1673ffffffffffffffffffffffffffffffffffffffff168152602001600960009054906101000a900473ffffffffffffffffffffffffffffffffffffffff1673ffffffffffffffffffffffffffffffffffffffff1673ffffffffffffffffffffffffffffffffffffffff1681526020013073ffffffffffffffffffffffffffffffffffffffff1673ffffffffffffffffffffffffffffffffffffffff16815250925061018060405190810160405280868152602001858152602001600c6000600a8110151561138257fe5b01548152602001600c6001600a8110151561139957fe5b01548152602001600c6002600a811015156113b057fe5b01548152602001600c6003600a811015156113c757fe5b01548152602001600c6004600a811015156113de57fe5b01548152602001600c6005600a811015156113f557fe5b01548152602001600c6006600a8110151561140c57fe5b01548152602001600c6007600a8110151561142357fe5b01548152602001600c6008600a8110151561143a57fe5b01548152602001600c6009600a8110151561145157fe5b01548152509150600560009054906101000a900473ffffffffffffffffffffffffffffffffffffffff1673ffffffffffffffffffffffffffffffffffffffff16631e35ff058484896040518463ffffffff167c01000000000000000000000000000000000000000000000000000000000281526004018084600360200280838360005b838110156114ef5780820151818401526020810190506114d4565b5050505090500183600c60200280838360005b8381101561151d578082015181840152602081019050611502565b50505050905001828152602001935050505060c060405180830381600087803b15801561154957600080fd5b505af115801561155d573d6000803e3d6000fd5b505050506040513d601f19601f8201168201806040525060c081101561158257600080fd5b8101908091905050905080600060068110151561159b57fe5b602002015180156115bc57508060016006811015156115b657fe5b60200201515b80156115d857508060026006811015156115d257fe5b60200201515b80156115f457508060036006811015156115ee57fe5b60200201515b8015611610575080600460068110151561160a57fe5b60200201515b801561162c575080600560068110151561162657fe5b60200201515b1561184b57600560009054906101000a900473ffffffffffffffffffffffffffffffffffffffff1673ffffffffffffffffffffffffffffffffffffffff1663d7ceab4c8785856040518463ffffffff167c01000000000000000000000000000000000000000000000000000000000281526004018083600360200280838360005b838110156116c85780820151818401526020810190506116ad565b5050505090500182600c60200280838360005b838110156116f65780820151818401526020810190506116db565b505050509050018060200182810382526000815260200160200193505050506020604051808303818588803b15801561172e57600080fd5b505af1158015611742573d6000803e3d6000fd5b50505050506040513d602081101561175957600080fd5b8101908080519060200190929190505050600a60006101000a81548173ffffffffffffffffffffffffffffffffffffffff021916908373ffffffffffffffffffffffffffffffffffffffff1602179055503373ffffffffffffffffffffffffffffffffffffffff167f673bacbd542d3e65fd90fc7fc8631e3a9bdc4ae4ffad940781805f85596c1721600a60009054906101000a900473ffffffffffffffffffffffffffffffffffffffff16604051808273ffffffffffffffffffffffffffffffffffffffff1673ffffffffffffffffffffffffffffffffffffffff16815260200191505060405180910390a26118ab565b7febec2a47d1b8a4f2300d8b1a3f76af4035584f4667e3a47730f7c47eeb4675af816040518082600660200280838360005b8381101561189857808201518184015260208101905061187d565b5050505090500191505060405180910390a15b505050505050565b828054600181600116156101000203166002900490600052602060002090601f016020900481019282601f106118f457805160ff1916838001178555611922565b82800160010185558215611922579182015b82811115611921578251825591602001919060010190611906565b5b50905061192f91906119dd565b5090565b82600a8101928215611962579160200282015b82811115611961578251825591602001919060010190611946565b5b50905061196f91906119dd565b5090565b606060405190810160405280600390602082028038833980820191505090505090565b61018060405190810160405280600c90602082028038833980820191505090505090565b60c060405190810160405280600690602082028038833980820191505090505090565b6119ff91905b808211156119fb5760008160009055506001016119e3565b5090565b905600a165627a7a723058202e708c3f0caf51cbc2dc10ebe738580bc7a0a9203364e62293827b1f18804aeb0029",
  "source": "pragma solidity ^0.4.23;\r\n\r\nimport \"../../external/RequestFactoryInterface.sol\";\r\nimport \"../../Interfaces.sol\";\r\n\r\ncontract RecurringAlarmClock is IFuturePayment {\r\n\r\n    uint public blockCreated;               // The block the alarm clock was started\r\n    \r\n    RequestFactoryInterface public eac;     // Interface provided by the Ethereum Alarm Clock\r\n    IFuturePaymentDelegate public delegate; // The delegate that pulls funds for each alarm\r\n    IDelegatedWallet public wallet;         // The address which owns the alarm and collects any leftover funds\r\n    ITask public task;                      // The address of the task contract\r\n    address public priorityCaller;          // The priority recipient of part of the alarm deposit\r\n    address public alarm;                   // The next scheduled alarm contract\r\n\r\n    bytes public callData;                  // The data for the task to execute when the alarm is triggered\r\n\r\n    uint[10] public eacOptions;             // The options used when setting an alarm using the Ethereum Alarm Clock\r\n    uint public safetyMultiplier;           // The multiplier to use when calculating the alarm cost\r\n    uint public intervalDuration;           // The amount of time between each alarm\r\n    uint public maximumIntervals;           // The number of times this alarm will go off\r\n    uint public currentInterval;            // Keeps track of how many alarms have been called\r\n\r\n    function initialize (\r\n        RequestFactoryInterface _eac,\r\n        IFuturePaymentDelegate _delegate,\r\n        IDelegatedWallet _wallet,\r\n        address _priorityCaller,\r\n        bytes _callData,\r\n        uint[3] _recurringAlarmClockOptions,\r\n        uint[10] _ethereumAlarmClockOptions\r\n    ) public {\r\n        require(blockCreated == 0, \"contract can only be initialized once\");\r\n\r\n        eac = _eac;\r\n        delegate = _delegate;\r\n        wallet = _wallet;\r\n        priorityCaller = _priorityCaller;\r\n\r\n        callData = _callData;\r\n\r\n        eacOptions = _ethereumAlarmClockOptions;\r\n        safetyMultiplier = _recurringAlarmClockOptions[0];\r\n        intervalDuration = _recurringAlarmClockOptions[1];\r\n        maximumIntervals = _recurringAlarmClockOptions[2];\r\n        currentInterval = 1;\r\n\r\n        blockCreated = block.number;\r\n    }\r\n\r\n    function start (ITask _task) public {\r\n        require(task == address(0x0), \"task must not be set to start a task\");\r\n\r\n        task = _task;\r\n        \r\n        scheduleAlarm();\r\n    }\r\n\r\n    function () public payable {\r\n        if(msg.value == 0)\r\n            handleAlarmCall();\r\n        else\r\n            emit Deposit_event(msg.sender, msg.value);\r\n    }\r\n\r\n    function amount () public view returns (uint) {\r\n        uint gas = eacOptions[6];\r\n        return tx.gasprice * gas * safetyMultiplier / 10^18;\r\n    }\r\n\r\n    function cancel () public onlyTask {\r\n        delegate.unschedule();\r\n    }\r\n\r\n    function handleAlarmCall () internal {\r\n        require(msg.sender == alarm);\r\n        \r\n        bool success = address(task).call.gas(gasleft())(callData);\r\n        emit Task_event(msg.sender, currentInterval, success);\r\n\r\n        if(currentInterval <= maximumIntervals){\r\n            currentInterval++;\r\n            eacOptions[5] += intervalDuration;\r\n            scheduleAlarm();\r\n        } else {\r\n            delegate.unschedule();\r\n            alarm = address(0x0);\r\n        }\r\n    }\r\n\r\n    function scheduleAlarm () internal {\r\n        delegate.execute();\r\n        \r\n        uint endowment = address(this).balance;    \r\n        uint priorityFee = endowment / 100;\r\n        uint callBounty = endowment - priorityFee;\r\n\r\n        address[3] memory addressOptions = [\r\n        //  this,           // In the future, I'd like the owner address to equal this contract and keep the wallet as the change address\r\n            wallet,         // Change from the alarm is sent to this address, also the account that can owns the alarm. \r\n            priorityCaller, // The priority fee is sent to this address\r\n            this            // The contract to call at execution\r\n        ];\r\n\r\n        uint[12] memory uintOptions = [\r\n            priorityFee,    // A fee that goes to the fee recipient\r\n            callBounty,     // The bounty for the account that triggers this alarm\r\n            eacOptions[0],  // claimWindowSize\r\n            eacOptions[1],  // freezeintervalDuration\r\n            eacOptions[2],  // reservedWindowSize\r\n            eacOptions[3],  // 2 = Use timestamp based scheduling instead of blocks\r\n            eacOptions[4],  // The size of the execution window\r\n            eacOptions[5],  // The start of the execution window\r\n            eacOptions[6],  // The amount of gas to be sent with the transaction\r\n            eacOptions[7],  // The amount of ether to be sent\r\n            eacOptions[8],  // The minimum gas price for the alarm when called\r\n            eacOptions[9]   // The required deposit by the claimer\r\n        ];\r\n\r\n        bool[6] memory params = eac.validateRequestParams(\r\n            addressOptions,\r\n            uintOptions,\r\n            endowment\r\n        );\r\n\r\n        if(params[0] && params[1] && params[2] && params[3] && params[4] && params[5]){\r\n            alarm = eac.createValidatedRequest.value(endowment)(addressOptions, uintOptions, \"\");\r\n            emit ValidRequest_event(msg.sender, alarm);\r\n        } else {\r\n            emit InvalidRequest_event(params);\r\n        }\r\n    }\r\n\r\n    modifier onlyTask () {\r\n        require(msg.sender == address(task), \"msg.sender is not the alarm task\");\r\n        _;\r\n    }\r\n    \r\n    event Task_event(address alarm, uint currentInterval, bool success);\r\n    event Deposit_event (address indexed sender, uint amount);\r\n    event ValidRequest_event (address indexed sender, address alarm);\r\n    event InvalidRequest_event (bool[6] params);\r\n\r\n}\r\n",
  "sourcePath": "C:\\Users\\My\\Documents\\GitHub\\everchain-project\\recurring-alarm-clock\\contracts\\components\\recurring-alarm-clock\\RecurringAlarmClock.sol",
  "compiler": {
    "name": "solc",
    "version": "0.4.24+commit.e67f0147.Emscripten.clang"
  },
  "schemaVersion": "2.0.1",
  "updatedAt": "2018-10-13T04:35:07.880Z"
}