{
  "contractName": "RecurringPaymentFactory",
  "abi": [
    {
      "constant": true,
      "inputs": [],
      "name": "blockCreated",
      "outputs": [
        {
          "name": "",
          "type": "uint256"
        }
      ],
      "payable": false,
      "stateMutability": "view",
      "type": "function"
    },
    {
      "constant": true,
      "inputs": [],
      "name": "blueprint",
      "outputs": [
        {
          "name": "",
          "type": "address"
        }
      ],
      "payable": false,
      "stateMutability": "view",
      "type": "function"
    },
    {
      "inputs": [
        {
          "name": "_blueprint",
          "type": "address"
        }
      ],
      "payable": false,
      "stateMutability": "nonpayable",
      "type": "constructor"
    },
    {
      "anonymous": false,
      "inputs": [
        {
          "indexed": true,
          "name": "creator",
          "type": "address"
        },
        {
          "indexed": false,
          "name": "recurringPayment",
          "type": "address"
        }
      ],
      "name": "CreatePayment_event",
      "type": "event"
    },
    {
      "anonymous": false,
      "inputs": [
        {
          "indexed": true,
          "name": "target",
          "type": "address"
        },
        {
          "indexed": false,
          "name": "clone",
          "type": "address"
        }
      ],
      "name": "CloneCreated",
      "type": "event"
    },
    {
      "constant": false,
      "inputs": [
        {
          "name": "alarmClock",
          "type": "address"
        },
        {
          "name": "delegate",
          "type": "address"
        },
        {
          "name": "wallet",
          "type": "address"
        },
        {
          "name": "token",
          "type": "address"
        },
        {
          "name": "recipient",
          "type": "address"
        },
        {
          "name": "paymentAmount",
          "type": "uint256"
        }
      ],
      "name": "createRecurringPayment",
      "outputs": [
        {
          "name": "paymentTask",
          "type": "address"
        }
      ],
      "payable": false,
      "stateMutability": "nonpayable",
      "type": "function"
    }
  ],
  "bytecode": "0x608060405234801561001057600080fd5b50604051602080610628833981018060405281019080805190602001909291905050504360008190555080600160006101000a81548173ffffffffffffffffffffffffffffffffffffffff021916908373ffffffffffffffffffffffffffffffffffffffff1602179055505061059d8061008b6000396000f300608060405260043610610057576000357c0100000000000000000000000000000000000000000000000000000000900463ffffffff1680634e989a4c1461005c5780634fb55a7614610087578063c05efa1514610194575b600080fd5b34801561006857600080fd5b506100716101eb565b6040518082815260200191505060405180910390f35b34801561009357600080fd5b50610152600480360381019080803573ffffffffffffffffffffffffffffffffffffffff169060200190929190803573ffffffffffffffffffffffffffffffffffffffff169060200190929190803573ffffffffffffffffffffffffffffffffffffffff169060200190929190803573ffffffffffffffffffffffffffffffffffffffff169060200190929190803573ffffffffffffffffffffffffffffffffffffffff169060200190929190803590602001909291905050506101f1565b604051808273ffffffffffffffffffffffffffffffffffffffff1673ffffffffffffffffffffffffffffffffffffffff16815260200191505060405180910390f35b3480156101a057600080fd5b506101a961042f565b604051808273ffffffffffffffffffffffffffffffffffffffff1673ffffffffffffffffffffffffffffffffffffffff16815260200191505060405180910390f35b60005481565b600061021e600160009054906101000a900473ffffffffffffffffffffffffffffffffffffffff16610455565b90508073ffffffffffffffffffffffffffffffffffffffff166395b6ef0c8888888888886040518763ffffffff167c0100000000000000000000000000000000000000000000000000000000028152600401808773ffffffffffffffffffffffffffffffffffffffff1673ffffffffffffffffffffffffffffffffffffffff1681526020018673ffffffffffffffffffffffffffffffffffffffff1673ffffffffffffffffffffffffffffffffffffffff1681526020018573ffffffffffffffffffffffffffffffffffffffff1673ffffffffffffffffffffffffffffffffffffffff1681526020018473ffffffffffffffffffffffffffffffffffffffff1673ffffffffffffffffffffffffffffffffffffffff1681526020018373ffffffffffffffffffffffffffffffffffffffff1673ffffffffffffffffffffffffffffffffffffffff1681526020018281526020019650505050505050600060405180830381600087803b15801561039357600080fd5b505af11580156103a7573d6000803e3d6000fd5b505050503373ffffffffffffffffffffffffffffffffffffffff167f56febe278ca3b7ac6ad996f92d3a5effe19a9d86540d85080990552f2aa8bb1382604051808273ffffffffffffffffffffffffffffffffffffffff1673ffffffffffffffffffffffffffffffffffffffff16815260200191505060405180910390a29695505050505050565b600160009054906101000a900473ffffffffffffffffffffffffffffffffffffffff1681565b60006060600080606060405190810160405280603f81526020017f600034603b57603080600f833981f36000368180378080368173bebebebebebe81526020017fbebebebebebebebebebebebebebe5af43d82803e15602c573d90f35b3d90fd008152509250846c01000000000000000000000000029150600090505b601481101561055a5781816014811015156104e957fe5b1a7f0100000000000000000000000000000000000000000000000000000000000000028382601a0181518110151561051d57fe5b9060200101907effffffffffffffffffffffffffffffffffffffffffffffffffffffffffffff1916908160001a90535080806001019150506104d2565b82516020840181816000f0955050505050509190505600a165627a7a723058208d00f8c2ec22e5dd39ff761f7b2729d21a3cd80705221348cd3971e2520029a10029",
  "source": "pragma solidity ^0.4.23;\r\n\r\nimport \"../../external/CloneFactory.sol\";\r\nimport \"../../Interfaces.sol\";\r\nimport \"./RecurringPayment.sol\";\r\n\r\ncontract RecurringPaymentFactory is CloneFactory {\r\n\r\n    uint public blockCreated;\r\n\r\n    RecurringPayment public blueprint;\r\n\r\n    constructor (RecurringPayment _blueprint) public {\r\n        blockCreated = block.number;\r\n        blueprint = _blueprint;\r\n    }\r\n\r\n    function createRecurringPayment (\r\n        IRecurringAlarmClock alarmClock,\r\n        IPaymentDelegate delegate,\r\n        IDelegatedWallet wallet,\r\n        address token,\r\n        address recipient,\r\n        uint paymentAmount\r\n    ) public returns (RecurringPayment paymentTask) {\r\n        paymentTask = RecurringPayment(createClone(blueprint));\r\n        paymentTask.initialize(\r\n            alarmClock,     // the alarm clock that acts as the executor of the payment\r\n            delegate,       // the payment delegate that forwards each payment\r\n            wallet,         // the delegated wallet the payment originates from\r\n            token,          // the token to use when making a payment\r\n            recipient,      // the recipient of the payment\r\n            paymentAmount   // how much of the token to send each payment\r\n        );\r\n\r\n        emit CreatePayment_event(msg.sender, paymentTask);\r\n    }\r\n\r\n    event CreatePayment_event (address indexed creator, RecurringPayment recurringPayment);\r\n    \r\n}\r\n",
  "sourcePath": "C:\\Users\\My\\Documents\\GitHub\\everchain-project\\recurring-alarm-clock\\contracts\\examples\\recurring-payment\\RecurringPaymentFactory.sol",
  "compiler": {
    "name": "solc",
    "version": "0.4.24+commit.e67f0147.Emscripten.clang"
  },
  "schemaVersion": "2.0.1",
  "updatedAt": "2018-10-23T07:02:04.638Z"
}