{
  "contractName": "RecurringTransaction",
  "abi": [
    {
      "constant": true,
      "inputs": [],
      "name": "BASE_GAS_COST",
      "outputs": [
        {
          "name": "",
          "type": "uint256"
        }
      ],
      "payable": false,
      "stateMutability": "view",
      "type": "function",
      "signature": "0x079766a8"
    },
    {
      "constant": true,
      "inputs": [],
      "name": "priorityCaller",
      "outputs": [
        {
          "name": "",
          "type": "address"
        }
      ],
      "payable": false,
      "stateMutability": "view",
      "type": "function",
      "signature": "0x1fd3ea52"
    },
    {
      "constant": true,
      "inputs": [
        {
          "name": "",
          "type": "uint256"
        }
      ],
      "name": "limits",
      "outputs": [
        {
          "name": "",
          "type": "uint256"
        }
      ],
      "payable": false,
      "stateMutability": "view",
      "type": "function",
      "signature": "0x20e9daf1"
    },
    {
      "constant": true,
      "inputs": [],
      "name": "intervalUnit",
      "outputs": [
        {
          "name": "",
          "type": "uint256"
        }
      ],
      "payable": false,
      "stateMutability": "view",
      "type": "function",
      "signature": "0x226b45dd"
    },
    {
      "constant": true,
      "inputs": [],
      "name": "alarmStart",
      "outputs": [
        {
          "name": "",
          "type": "uint256"
        }
      ],
      "payable": false,
      "stateMutability": "view",
      "type": "function",
      "signature": "0x2352b8c0"
    },
    {
      "constant": true,
      "inputs": [],
      "name": "blockStarted",
      "outputs": [
        {
          "name": "",
          "type": "uint256"
        }
      ],
      "payable": false,
      "stateMutability": "view",
      "type": "function",
      "signature": "0x33961337"
    },
    {
      "constant": true,
      "inputs": [],
      "name": "currentInterval",
      "outputs": [
        {
          "name": "",
          "type": "uint256"
        }
      ],
      "payable": false,
      "stateMutability": "view",
      "type": "function",
      "signature": "0x363487bc"
    },
    {
      "constant": true,
      "inputs": [],
      "name": "intervalValue",
      "outputs": [
        {
          "name": "",
          "type": "uint256"
        }
      ],
      "payable": false,
      "stateMutability": "view",
      "type": "function",
      "signature": "0x3d9bb20f"
    },
    {
      "constant": true,
      "inputs": [],
      "name": "callAddress",
      "outputs": [
        {
          "name": "",
          "type": "address"
        }
      ],
      "payable": false,
      "stateMutability": "view",
      "type": "function",
      "signature": "0x3e23ee43"
    },
    {
      "constant": true,
      "inputs": [],
      "name": "callData",
      "outputs": [
        {
          "name": "",
          "type": "bytes"
        }
      ],
      "payable": false,
      "stateMutability": "view",
      "type": "function",
      "signature": "0x4e417a98"
    },
    {
      "constant": true,
      "inputs": [],
      "name": "wallet",
      "outputs": [
        {
          "name": "",
          "type": "address"
        }
      ],
      "payable": false,
      "stateMutability": "view",
      "type": "function",
      "signature": "0x521eb273"
    },
    {
      "constant": true,
      "inputs": [],
      "name": "EAC",
      "outputs": [
        {
          "name": "",
          "type": "address"
        }
      ],
      "payable": false,
      "stateMutability": "view",
      "type": "function",
      "signature": "0x6cf48a55"
    },
    {
      "constant": true,
      "inputs": [],
      "name": "maxIntervals",
      "outputs": [
        {
          "name": "",
          "type": "uint256"
        }
      ],
      "payable": false,
      "stateMutability": "view",
      "type": "function",
      "signature": "0x86ab53e5"
    },
    {
      "constant": true,
      "inputs": [],
      "name": "windowSize",
      "outputs": [
        {
          "name": "",
          "type": "uint256"
        }
      ],
      "payable": false,
      "stateMutability": "view",
      "type": "function",
      "signature": "0x8a14117a"
    },
    {
      "constant": true,
      "inputs": [],
      "name": "blockInitialized",
      "outputs": [
        {
          "name": "",
          "type": "uint256"
        }
      ],
      "payable": false,
      "stateMutability": "view",
      "type": "function",
      "signature": "0x9bc40c4c"
    },
    {
      "constant": true,
      "inputs": [],
      "name": "txRequest",
      "outputs": [
        {
          "name": "",
          "type": "address"
        }
      ],
      "payable": false,
      "stateMutability": "view",
      "type": "function",
      "signature": "0xb17bdabc"
    },
    {
      "constant": true,
      "inputs": [],
      "name": "callGas",
      "outputs": [
        {
          "name": "",
          "type": "uint256"
        }
      ],
      "payable": false,
      "stateMutability": "view",
      "type": "function",
      "signature": "0xc1459d31"
    },
    {
      "constant": true,
      "inputs": [],
      "name": "factory",
      "outputs": [
        {
          "name": "",
          "type": "address"
        }
      ],
      "payable": false,
      "stateMutability": "view",
      "type": "function",
      "signature": "0xc45a0155"
    },
    {
      "constant": true,
      "inputs": [],
      "name": "delegate",
      "outputs": [
        {
          "name": "",
          "type": "address"
        }
      ],
      "payable": false,
      "stateMutability": "view",
      "type": "function",
      "signature": "0xc89e4361"
    },
    {
      "constant": true,
      "inputs": [],
      "name": "callValue",
      "outputs": [
        {
          "name": "",
          "type": "uint256"
        }
      ],
      "payable": false,
      "stateMutability": "view",
      "type": "function",
      "signature": "0xd62457f6"
    },
    {
      "constant": true,
      "inputs": [],
      "name": "gasPrice",
      "outputs": [
        {
          "name": "",
          "type": "address"
        }
      ],
      "payable": false,
      "stateMutability": "view",
      "type": "function",
      "signature": "0xfe173b97"
    },
    {
      "inputs": [],
      "payable": false,
      "stateMutability": "nonpayable",
      "type": "constructor",
      "signature": "constructor"
    },
    {
      "payable": true,
      "stateMutability": "payable",
      "type": "fallback"
    },
    {
      "anonymous": false,
      "inputs": [
        {
          "indexed": true,
          "name": "msgSender",
          "type": "address"
        },
        {
          "indexed": false,
          "name": "msgValue",
          "type": "uint256"
        }
      ],
      "name": "AlarmPaid_event",
      "type": "event",
      "signature": "0xec736eda410777c3e885f2301f1963ee8748c0ae65da066567ae125fb6dad98e"
    },
    {
      "anonymous": false,
      "inputs": [
        {
          "indexed": false,
          "name": "txRequest",
          "type": "address"
        }
      ],
      "name": "ValidRequest_event",
      "type": "event",
      "signature": "0x56c039ceb7f3be5b9a60845fef29d56e277f6fc3d9b2fe5d58e642fc45f6d7e7"
    },
    {
      "anonymous": false,
      "inputs": [
        {
          "indexed": false,
          "name": "reason",
          "type": "bool[6]"
        }
      ],
      "name": "InvalidRequest_event",
      "type": "event",
      "signature": "0xebec2a47d1b8a4f2300d8b1a3f76af4035584f4667e3a47730f7c47eeb4675af"
    },
    {
      "anonymous": false,
      "inputs": [
        {
          "indexed": true,
          "name": "delegate",
          "type": "address"
        },
        {
          "indexed": true,
          "name": "callAddress",
          "type": "address"
        },
        {
          "indexed": false,
          "name": "callData",
          "type": "bytes"
        },
        {
          "indexed": false,
          "name": "callOptions",
          "type": "uint256[7]"
        }
      ],
      "name": "Start_event",
      "type": "event",
      "signature": "0xc212bf07854a0351b03f51c2298c205fb0dacc3d3e295c201cb638bc723f205b"
    },
    {
      "anonymous": false,
      "inputs": [
        {
          "indexed": false,
          "name": "txRequest",
          "type": "address"
        },
        {
          "indexed": true,
          "name": "callAddress",
          "type": "address"
        },
        {
          "indexed": false,
          "name": "callValue",
          "type": "uint256"
        },
        {
          "indexed": false,
          "name": "callData",
          "type": "bytes"
        },
        {
          "indexed": false,
          "name": "currentInterval",
          "type": "uint256"
        },
        {
          "indexed": false,
          "name": "maxIntervals",
          "type": "uint256"
        },
        {
          "indexed": false,
          "name": "success",
          "type": "bool"
        },
        {
          "indexed": false,
          "name": "result",
          "type": "bytes"
        }
      ],
      "name": "Execute_event",
      "type": "event",
      "signature": "0x968531fbda7ff008c2a442854562e50e1e83e9abac26892523e1ccc0a37fc046"
    },
    {
      "anonymous": false,
      "inputs": [
        {
          "indexed": true,
          "name": "delegate",
          "type": "address"
        }
      ],
      "name": "Destroy_event",
      "type": "event",
      "signature": "0xbc7064aca23c0e69b68258a088ec093344fca10e8b09429256169782e7f029d9"
    },
    {
      "constant": false,
      "inputs": [
        {
          "name": "_EAC",
          "type": "address"
        },
        {
          "name": "_wallet",
          "type": "address"
        },
        {
          "name": "_delegate",
          "type": "address"
        }
      ],
      "name": "initialize",
      "outputs": [],
      "payable": false,
      "stateMutability": "nonpayable",
      "type": "function",
      "signature": "0xc0c53b8b"
    },
    {
      "constant": false,
      "inputs": [
        {
          "name": "_callAddress",
          "type": "address"
        },
        {
          "name": "_callData",
          "type": "bytes"
        },
        {
          "name": "_callOptions",
          "type": "uint256[7]"
        }
      ],
      "name": "start",
      "outputs": [],
      "payable": false,
      "stateMutability": "nonpayable",
      "type": "function",
      "signature": "0x46b9c7b0"
    },
    {
      "constant": false,
      "inputs": [],
      "name": "destroy",
      "outputs": [],
      "payable": false,
      "stateMutability": "nonpayable",
      "type": "function",
      "signature": "0x83197ef0"
    },
    {
      "constant": false,
      "inputs": [
        {
          "name": "_priorityCaller",
          "type": "address"
        }
      ],
      "name": "setPriorityCaller",
      "outputs": [],
      "payable": false,
      "stateMutability": "nonpayable",
      "type": "function",
      "signature": "0xff080651"
    },
    {
      "constant": false,
      "inputs": [
        {
          "name": "_limits",
          "type": "uint256[3]"
        }
      ],
      "name": "setExecutionLimits",
      "outputs": [],
      "payable": false,
      "stateMutability": "nonpayable",
      "type": "function",
      "signature": "0x3c2d7ec8"
    },
    {
      "constant": false,
      "inputs": [
        {
          "name": "_oracle",
          "type": "address"
        }
      ],
      "name": "setGasPriceOracle",
      "outputs": [],
      "payable": false,
      "stateMutability": "nonpayable",
      "type": "function",
      "signature": "0xa4d0c0a9"
    }
  ],
  "bytecode": "0x608060405234801561001057600080fd5b5043601481905550612e5e806100276000396000f3fe60806040526004361061015f576000357c0100000000000000000000000000000000000000000000000000000000900463ffffffff168063079766a8146101c65780631fd3ea52146101f157806320e9daf114610248578063226b45dd146102975780632352b8c0146102c257806333961337146102ed578063363487bc146103185780633c2d7ec8146103435780633d9bb20f146103b55780633e23ee43146103e057806346b9c7b0146104375780634e417a9814610561578063521eb273146105f15780636cf48a551461064857806383197ef01461069f57806386ab53e5146106b65780638a14117a146106e15780639bc40c4c1461070c578063a4d0c0a914610737578063b17bdabc14610788578063c0c53b8b146107df578063c1459d3114610870578063c45a01551461089b578063c89e4361146108f2578063d62457f614610949578063fe173b9714610974578063ff080651146109cb575b60003411156101bb573373ffffffffffffffffffffffffffffffffffffffff167fec736eda410777c3e885f2301f1963ee8748c0ae65da066567ae125fb6dad98e346040518082815260200191505060405180910390a26101c4565b6101c3610a1c565b5b005b3480156101d257600080fd5b506101db611065565b6040518082815260200191505060405180910390f35b3480156101fd57600080fd5b5061020661106b565b604051808273ffffffffffffffffffffffffffffffffffffffff1673ffffffffffffffffffffffffffffffffffffffff16815260200191505060405180910390f35b34801561025457600080fd5b506102816004803603602081101561026b57600080fd5b8101908080359060200190929190505050611091565b6040518082815260200191505060405180910390f35b3480156102a357600080fd5b506102ac6110ab565b6040518082815260200191505060405180910390f35b3480156102ce57600080fd5b506102d76110b1565b6040518082815260200191505060405180910390f35b3480156102f957600080fd5b506103026110b7565b6040518082815260200191505060405180910390f35b34801561032457600080fd5b5061032d6110bd565b6040518082815260200191505060405180910390f35b34801561034f57600080fd5b506103b36004803603606081101561036657600080fd5b8101908080606001906003806020026040519081016040528092919082600360200280828437600081840152601f19601f82011690508083019250505050505091929192905050506110c3565b005b3480156103c157600080fd5b506103ca611242565b6040518082815260200191505060405180910390f35b3480156103ec57600080fd5b506103f5611248565b604051808273ffffffffffffffffffffffffffffffffffffffff1673ffffffffffffffffffffffffffffffffffffffff16815260200191505060405180910390f35b34801561044357600080fd5b5061055f600480360361012081101561045b57600080fd5b81019080803573ffffffffffffffffffffffffffffffffffffffff1690602001909291908035906020019064010000000081111561049857600080fd5b8201836020820111156104aa57600080fd5b803590602001918460018302840111640100000000831117156104cc57600080fd5b91908080601f016020809104026020016040519081016040528093929190818152602001838380828437600081840152601f19601f8201169050808301925050505050505091929192908060e001906007806020026040519081016040528092919082600760200280828437600081840152601f19601f820116905080830192505050505050919291929050505061126e565b005b34801561056d57600080fd5b506105766117dd565b6040518080602001828103825283818151815260200191508051906020019080838360005b838110156105b657808201518184015260208101905061059b565b50505050905090810190601f1680156105e35780820380516001836020036101000a031916815260200191505b509250505060405180910390f35b3480156105fd57600080fd5b5061060661187b565b604051808273ffffffffffffffffffffffffffffffffffffffff1673ffffffffffffffffffffffffffffffffffffffff16815260200191505060405180910390f35b34801561065457600080fd5b5061065d6118a1565b604051808273ffffffffffffffffffffffffffffffffffffffff1673ffffffffffffffffffffffffffffffffffffffff16815260200191505060405180910390f35b3480156106ab57600080fd5b506106b46118c7565b005b3480156106c257600080fd5b506106cb611b71565b6040518082815260200191505060405180910390f35b3480156106ed57600080fd5b506106f6611b77565b6040518082815260200191505060405180910390f35b34801561071857600080fd5b50610721611b7d565b6040518082815260200191505060405180910390f35b34801561074357600080fd5b506107866004803603602081101561075a57600080fd5b81019080803573ffffffffffffffffffffffffffffffffffffffff169060200190929190505050611b83565b005b34801561079457600080fd5b5061079d611d31565b604051808273ffffffffffffffffffffffffffffffffffffffff1673ffffffffffffffffffffffffffffffffffffffff16815260200191505060405180910390f35b3480156107eb57600080fd5b5061086e6004803603606081101561080257600080fd5b81019080803573ffffffffffffffffffffffffffffffffffffffff169060200190929190803573ffffffffffffffffffffffffffffffffffffffff169060200190929190803573ffffffffffffffffffffffffffffffffffffffff169060200190929190505050611d57565b005b34801561087c57600080fd5b50610885611eeb565b6040518082815260200191505060405180910390f35b3480156108a757600080fd5b506108b0611ef1565b604051808273ffffffffffffffffffffffffffffffffffffffff1673ffffffffffffffffffffffffffffffffffffffff16815260200191505060405180910390f35b3480156108fe57600080fd5b50610907611f17565b604051808273ffffffffffffffffffffffffffffffffffffffff1673ffffffffffffffffffffffffffffffffffffffff16815260200191505060405180910390f35b34801561095557600080fd5b5061095e611f3d565b6040518082815260200191505060405180910390f35b34801561098057600080fd5b50610989611f43565b604051808273ffffffffffffffffffffffffffffffffffffffff1673ffffffffffffffffffffffffffffffffffffffff16815260200191505060405180910390f35b3480156109d757600080fd5b50610a1a600480360360208110156109ee57600080fd5b81019080803573ffffffffffffffffffffffffffffffffffffffff169060200190929190505050611f69565b005b602560009054906101000a900473ffffffffffffffffffffffffffffffffffffffff1673ffffffffffffffffffffffffffffffffffffffff163373ffffffffffffffffffffffffffffffffffffffff16141515610ae1576040517f08c379a000000000000000000000000000000000000000000000000000000000815260040180806020018281038252601d8152602001807f6d73672e73656e646572206d757374206265207478207265717565737400000081525060200191505060405180910390fd5b6000602854141515610c2657601760009054906101000a900473ffffffffffffffffffffffffffffffffffffffff1673ffffffffffffffffffffffffffffffffffffffff1663beabacc86000306028546040518463ffffffff167c0100000000000000000000000000000000000000000000000000000000028152600401808473ffffffffffffffffffffffffffffffffffffffff1673ffffffffffffffffffffffffffffffffffffffff1681526020018373ffffffffffffffffffffffffffffffffffffffff1673ffffffffffffffffffffffffffffffffffffffff1681526020018281526020019350505050602060405180830381600087803b158015610be957600080fd5b505af1158015610bfd573d6000803e3d6000fd5b505050506040513d6020811015610c1357600080fd5b8101908080519060200190929190505050505b60006060602660009054906101000a900473ffffffffffffffffffffffffffffffffffffffff1673ffffffffffffffffffffffffffffffffffffffff166028546029549060276040518082805460018160011615610100020316600290048015610cc75780601f10610ca5576101008083540402835291820191610cc7565b820191906000526020600020905b815481529060010190602001808311610cb3575b5050915050600060405180830381858888f193505050503d8060008114610d0a576040519150601f19603f3d011682016040523d82523d6000602084013e610d0f565b606091505b5091509150602660009054906101000a900473ffffffffffffffffffffffffffffffffffffffff1673ffffffffffffffffffffffffffffffffffffffff167f968531fbda7ff008c2a442854562e50e1e83e9abac26892523e1ccc0a37fc046602560009054906101000a900473ffffffffffffffffffffffffffffffffffffffff1660285460276024546023548888604051808873ffffffffffffffffffffffffffffffffffffffff1673ffffffffffffffffffffffffffffffffffffffff168152602001878152602001806020018681526020018581526020018415151515815260200180602001838103835288818154600181600116156101000203166002900481526020019150805460018160011615610100020316600290048015610e795780601f10610e4e57610100808354040283529160200191610e79565b820191906000526020600020905b815481529060010190602001808311610e5c57829003601f168201915b5050838103825284818151815260200191508051906020019080838360005b83811015610eb3578082015181840152602081019050610e98565b50505050905090810190601f168015610ee05780820380516001836020036101000a031916815260200191505b50995050505050505050505060405180910390a26023546024541080610f0857506000602354145b156110295760006022541415610f3a57610f2f602154601e5461211790919063ffffffff16565b601e8190555061101c565b60016022541415610f6757610f5c602154601e5461213390919063ffffffff16565b601e8190555061101b565b60026022541415610f9457610f89602154601e5461215290919063ffffffff16565b601e8190555061101a565b60036022541415610fc157610fb6602154601e5461217290919063ffffffff16565b601e81905550611019565b60046022541415610fee57610fe3602154601e5461219390919063ffffffff16565b601e81905550611018565b6005602254141561101757611010602154601e5461223f90919063ffffffff16565b601e819055505b5b5b5b5b5b6110246122c2565b61104f565b602560006101000a81549073ffffffffffffffffffffffffffffffffffffffff02191690555b6024600081548092919060010191905055505050565b60155481565b601a60009054906101000a900473ffffffffffffffffffffffffffffffffffffffff1681565b601b816003811015156110a057fe5b016000915090505481565b60225481565b601e5481565b60205481565b60245481565b601660009054906101000a900473ffffffffffffffffffffffffffffffffffffffff1673ffffffffffffffffffffffffffffffffffffffff166307779627336040518263ffffffff167c0100000000000000000000000000000000000000000000000000000000028152600401808273ffffffffffffffffffffffffffffffffffffffff1673ffffffffffffffffffffffffffffffffffffffff16815260200191505060206040518083038186803b15801561117e57600080fd5b505afa158015611192573d6000803e3d6000fd5b505050506040513d60208110156111a857600080fd5b8101908080519060200190929190505050151561122d576040517f08c379a000000000000000000000000000000000000000000000000000000000815260040180806020018281038252601d8152602001807f6d73672073656e646572206d75737420626520612064656c656761746500000081525060200191505060405180910390fd5b80601b90600361123e929190612d06565b5050565b60215481565b602660009054906101000a900473ffffffffffffffffffffffffffffffffffffffff1681565b601660009054906101000a900473ffffffffffffffffffffffffffffffffffffffff1673ffffffffffffffffffffffffffffffffffffffff166307779627336040518263ffffffff167c0100000000000000000000000000000000000000000000000000000000028152600401808273ffffffffffffffffffffffffffffffffffffffff1673ffffffffffffffffffffffffffffffffffffffff16815260200191505060206040518083038186803b15801561132957600080fd5b505afa15801561133d573d6000803e3d6000fd5b505050506040513d602081101561135357600080fd5b810190808051906020019092919050505015156113d8576040517f08c379a000000000000000000000000000000000000000000000000000000000815260040180806020018281038252601d8152602001807f6d73672073656e646572206d75737420626520612064656c656761746500000081525060200191505060405180910390fd5b600073ffffffffffffffffffffffffffffffffffffffff168373ffffffffffffffffffffffffffffffffffffffff161415151561147d576040517f08c379a000000000000000000000000000000000000000000000000000000000815260040180806020018281038252601e8152602001807f63616c6c2061646472657373206d757374206e6f7420626520656d707479000081525060200191505060405180910390fd5b4281600260078110151561148d57fe5b602002015111151561152d576040517f08c379a00000000000000000000000000000000000000000000000000000000081526004018080602001828103825260258152602001807f73746172742074696d657374616d702063616e6e6f7420626520696e2074686581526020017f207061737400000000000000000000000000000000000000000000000000000081525060400191505060405180910390fd5b600081600360078110151561153e57fe5b6020020151141515156115b9576040517f08c379a000000000000000000000000000000000000000000000000000000000815260040180806020018281038252601a8152602001807f77696e646f772073697a652063616e6e6f74206265207a65726f00000000000081525060200191505060405180910390fd5b4360208190555082602660006101000a81548173ffffffffffffffffffffffffffffffffffffffff021916908373ffffffffffffffffffffffffffffffffffffffff1602179055508160279080519060200190611617929190612d46565b5080600060078110151561162757fe5b602002015160288190555080600160078110151561164157fe5b602002015160298190555080600260078110151561165b57fe5b6020020151601e8190555080600360078110151561167557fe5b6020020151601f8190555080600460078110151561168f57fe5b60200201516021819055508060056007811015156116a957fe5b60200201516022819055508060066007811015156116c357fe5b602002015160238190555060016024819055506116de6122c2565b8273ffffffffffffffffffffffffffffffffffffffff163373ffffffffffffffffffffffffffffffffffffffff167fc212bf07854a0351b03f51c2298c205fb0dacc3d3e295c201cb638bc723f205b8484604051808060200183600760200280838360005b8381101561175e578082015181840152602081019050611743565b50505050905001828103825284818151815260200191508051906020019080838360005b8381101561179d578082015181840152602081019050611782565b50505050905090810190601f1680156117ca5780820380516001836020036101000a031916815260200191505b50935050505060405180910390a3505050565b60278054600181600116156101000203166002900480601f0160208091040260200160405190810160405280929190818152602001828054600181600116156101000203166002900480156118735780601f1061184857610100808354040283529160200191611873565b820191906000526020600020905b81548152906001019060200180831161185657829003601f168201915b505050505081565b601660009054906101000a900473ffffffffffffffffffffffffffffffffffffffff1681565b601960009054906101000a900473ffffffffffffffffffffffffffffffffffffffff1681565b601660009054906101000a900473ffffffffffffffffffffffffffffffffffffffff1673ffffffffffffffffffffffffffffffffffffffff166307779627336040518263ffffffff167c0100000000000000000000000000000000000000000000000000000000028152600401808273ffffffffffffffffffffffffffffffffffffffff1673ffffffffffffffffffffffffffffffffffffffff16815260200191505060206040518083038186803b15801561198257600080fd5b505afa158015611996573d6000803e3d6000fd5b505050506040513d60208110156119ac57600080fd5b81019080805190602001909291905050501515611a31576040517f08c379a000000000000000000000000000000000000000000000000000000000815260040180806020018281038252601d8152602001807f6d73672073656e646572206d75737420626520612064656c656761746500000081525060200191505060405180910390fd5b601760009054906101000a900473ffffffffffffffffffffffffffffffffffffffff1673ffffffffffffffffffffffffffffffffffffffff1663daf1548c6040518163ffffffff167c0100000000000000000000000000000000000000000000000000000000028152600401602060405180830381600087803b158015611ab757600080fd5b505af1158015611acb573d6000803e3d6000fd5b505050506040513d6020811015611ae157600080fd5b8101908080519060200190929190505050503373ffffffffffffffffffffffffffffffffffffffff167fbc7064aca23c0e69b68258a088ec093344fca10e8b09429256169782e7f029d960405160405180910390a2601660009054906101000a900473ffffffffffffffffffffffffffffffffffffffff1673ffffffffffffffffffffffffffffffffffffffff16ff5b60235481565b601f5481565b60145481565b601660009054906101000a900473ffffffffffffffffffffffffffffffffffffffff1673ffffffffffffffffffffffffffffffffffffffff166307779627336040518263ffffffff167c0100000000000000000000000000000000000000000000000000000000028152600401808273ffffffffffffffffffffffffffffffffffffffff1673ffffffffffffffffffffffffffffffffffffffff16815260200191505060206040518083038186803b158015611c3e57600080fd5b505afa158015611c52573d6000803e3d6000fd5b505050506040513d6020811015611c6857600080fd5b81019080805190602001909291905050501515611ced576040517f08c379a000000000000000000000000000000000000000000000000000000000815260040180806020018281038252601d8152602001807f6d73672073656e646572206d75737420626520612064656c656761746500000081525060200191505060405180910390fd5b80601860006101000a81548173ffffffffffffffffffffffffffffffffffffffff021916908373ffffffffffffffffffffffffffffffffffffffff16021790555050565b602560009054906101000a900473ffffffffffffffffffffffffffffffffffffffff1681565b6000601454141515611dd1576040517f08c379a000000000000000000000000000000000000000000000000000000000815260040180806020018281038252601c8152602001807f636f6e747261637420616c726561647920696e697469616c697a65640000000081525060200191505060405180910390fd5b33601360006101000a81548173ffffffffffffffffffffffffffffffffffffffff021916908373ffffffffffffffffffffffffffffffffffffffff16021790555043601481905550620aae6060158190555082601960006101000a81548173ffffffffffffffffffffffffffffffffffffffff021916908373ffffffffffffffffffffffffffffffffffffffff16021790555081601660006101000a81548173ffffffffffffffffffffffffffffffffffffffff021916908373ffffffffffffffffffffffffffffffffffffffff16021790555080601760006101000a81548173ffffffffffffffffffffffffffffffffffffffff021916908373ffffffffffffffffffffffffffffffffffffffff160217905550505050565b60295481565b601360009054906101000a900473ffffffffffffffffffffffffffffffffffffffff1681565b601760009054906101000a900473ffffffffffffffffffffffffffffffffffffffff1681565b60285481565b601860009054906101000a900473ffffffffffffffffffffffffffffffffffffffff1681565b601660009054906101000a900473ffffffffffffffffffffffffffffffffffffffff1673ffffffffffffffffffffffffffffffffffffffff166307779627336040518263ffffffff167c0100000000000000000000000000000000000000000000000000000000028152600401808273ffffffffffffffffffffffffffffffffffffffff1673ffffffffffffffffffffffffffffffffffffffff16815260200191505060206040518083038186803b15801561202457600080fd5b505afa158015612038573d6000803e3d6000fd5b505050506040513d602081101561204e57600080fd5b810190808051906020019092919050505015156120d3576040517f08c379a000000000000000000000000000000000000000000000000000000000815260040180806020018281038252601d8152602001807f6d73672073656e646572206d75737420626520612064656c656761746500000081525060200191505060405180910390fd5b80601a60006101000a81548173ffffffffffffffffffffffffffffffffffffffff021916908373ffffffffffffffffffffffffffffffffffffffff16021790555050565b6000818301905082811015151561212d57600080fd5b92915050565b6000603c82028301905082811015151561214c57600080fd5b92915050565b6000610e1082028301905082811015151561216c57600080fd5b92915050565b60006201518082028301905082811015151561218d57600080fd5b92915050565b6000806000806121b062015180878115156121aa57fe5b04612a8f565b8093508194508295505050508482019150600c600183038115156121d057fe5b04830192506001600c600184038115156121e657fe5b0601915060006121f68484612b71565b905080821115612204578091505b620151808781151561221257fe5b0662015180612222868686612bfe565b0201945086851015151561223557600080fd5b5050505092915050565b60008060008061225c620151808781151561225657fe5b04612a8f565b809350819450829550505050848301925060006122798484612b71565b905080821115612287578091505b620151808781151561229557fe5b06620151806122a5868686612bfe565b020194508685101515156122b857600080fd5b5050505092915050565b60006029546015540190506000601860009054906101000a900473ffffffffffffffffffffffffffffffffffffffff1673ffffffffffffffffffffffffffffffffffffffff166312a2a035601f54601e54016040518263ffffffff167c01000000000000000000000000000000000000000000000000000000000281526004018082815260200191505060206040518083038186803b15801561236457600080fd5b505afa158015612378573d6000803e3d6000fd5b505050506040513d602081101561238e57600080fd5b81019080805190602001909291905050508202905060008111156124e357601760009054906101000a900473ffffffffffffffffffffffffffffffffffffffff1673ffffffffffffffffffffffffffffffffffffffff1663beabacc8600030846040518463ffffffff167c0100000000000000000000000000000000000000000000000000000000028152600401808473ffffffffffffffffffffffffffffffffffffffff1673ffffffffffffffffffffffffffffffffffffffff1681526020018373ffffffffffffffffffffffffffffffffffffffff1673ffffffffffffffffffffffffffffffffffffffff1681526020018281526020019350505050602060405180830381600087803b1580156124a657600080fd5b505af11580156124ba573d6000803e3d6000fd5b505050506040513d60208110156124d057600080fd5b8101908080519060200190929190505050505b60003073ffffffffffffffffffffffffffffffffffffffff16319050600060648281151561250d57fe5b0490506000818303905061251f612dc6565b606060405190810160405280601660009054906101000a900473ffffffffffffffffffffffffffffffffffffffff1673ffffffffffffffffffffffffffffffffffffffff1673ffffffffffffffffffffffffffffffffffffffff168152602001601a60009054906101000a900473ffffffffffffffffffffffffffffffffffffffff1673ffffffffffffffffffffffffffffffffffffffff1673ffffffffffffffffffffffffffffffffffffffff1681526020013073ffffffffffffffffffffffffffffffffffffffff1673ffffffffffffffffffffffffffffffffffffffff16815250905061260d612de9565b61018060405190810160405280858152602001848152602001601b600060038110151561263657fe5b01548152602001601b600160038110151561264d57fe5b01548152602001601b600260038110151561266457fe5b0154815260200160028152602001601f548152602001601e5481526020018881526020016000815260200160008152602001868152509050601960009054906101000a900473ffffffffffffffffffffffffffffffffffffffff1673ffffffffffffffffffffffffffffffffffffffff1663d7ceab4c8684846040518463ffffffff167c01000000000000000000000000000000000000000000000000000000000281526004018083600360200280838360005b83811015612733578082015181840152602081019050612718565b5050505090500182600c60200280838360005b83811015612761578082015181840152602081019050612746565b505050509050018060200182810382526000815260200160200193505050506020604051808303818588803b15801561279957600080fd5b505af11580156127ad573d6000803e3d6000fd5b50505050506040513d60208110156127c457600080fd5b8101908080519060200190929190505050602560006101000a81548173ffffffffffffffffffffffffffffffffffffffff021916908373ffffffffffffffffffffffffffffffffffffffff160217905550600073ffffffffffffffffffffffffffffffffffffffff16602560009054906101000a900473ffffffffffffffffffffffffffffffffffffffff1673ffffffffffffffffffffffffffffffffffffffff161415156128f7577f56c039ceb7f3be5b9a60845fef29d56e277f6fc3d9b2fe5d58e642fc45f6d7e7602560009054906101000a900473ffffffffffffffffffffffffffffffffffffffff16604051808273ffffffffffffffffffffffffffffffffffffffff1673ffffffffffffffffffffffffffffffffffffffff16815260200191505060405180910390a1612a86565b7febec2a47d1b8a4f2300d8b1a3f76af4035584f4667e3a47730f7c47eeb4675af601960009054906101000a900473ffffffffffffffffffffffffffffffffffffffff1673ffffffffffffffffffffffffffffffffffffffff16631e35ff058484896040518463ffffffff167c01000000000000000000000000000000000000000000000000000000000281526004018084600360200280838360005b838110156129af578082015181840152602081019050612994565b5050505090500183600c60200280838360005b838110156129dd5780820151818401526020810190506129c2565b50505050905001828152602001935050505060c06040518083038186803b158015612a0757600080fd5b505afa158015612a1b573d6000803e3d6000fd5b505050506040513d601f19601f8201168201806040525060c0811015612a4057600080fd5b81019080919050506040518082600660200280838360005b83811015612a73578082015181840152602081019050612a58565b5050505090500191505060405180910390a15b50505050505050565b600080600080849050600062253d8c62010bd98301019050600062023ab182600402811515612aba57fe5b059050600460038262023ab10201811515612ad157fe5b0582039150600062164b0960018401610fa002811515612aed57fe5b059050601f6004826105b502811515612b0257fe5b058403019250600061098f84605002811515612b1a57fe5b059050600060508261098f02811515612b2f57fe5b0585039050600b82811515612b4057fe5b05945084600c0260028301039150848360318603606402010192508298508197508096505050505050509193909250565b60006001821480612b825750600382145b80612b8d5750600582145b80612b985750600782145b80612ba35750600882145b80612bae5750600a82145b80612bb95750600c82145b15612bc757601f9050612bf8565b600282141515612bda57601e9050612bf7565b612be383612cbd565b612bee57601c612bf1565b601d5b60ff1690505b5b92915050565b60006107b28410151515612c1157600080fd5b600084905060008490506000849050600062253d8c60046064600c600e8703811515612c3957fe5b05611324880101811515612c4957fe5b05600302811515612c5657fe5b05600c80600c600e8803811515612c6957fe5b0502600287030361016f02811515612c7d57fe5b056004600c600e8803811515612c8f57fe5b056112c08901016105b502811515612ca357fe5b05617d4b8603010103039050809450505050509392505050565b600080600483811515612ccc57fe5b06148015612ce757506000606483811515612ce357fe5b0614155b80612cff5750600061019083811515612cfc57fe5b06145b9050919050565b8260038101928215612d35579160200282015b82811115612d34578251825591602001919060010190612d19565b5b509050612d429190612e0d565b5090565b828054600181600116156101000203166002900490600052602060002090601f016020900481019282601f10612d8757805160ff1916838001178555612db5565b82800160010185558215612db5579182015b82811115612db4578251825591602001919060010190612d99565b5b509050612dc29190612e0d565b5090565b606060405190810160405280600390602082028038833980820191505090505090565b61018060405190810160405280600c90602082028038833980820191505090505090565b612e2f91905b80821115612e2b576000816000905550600101612e13565b5090565b9056fea165627a7a72305820499257ae051e0090737656889ec5296c87f398469d1621ce5972ef43c84be9de0029",
  "source": "pragma solidity ^0.5.0;\n\nimport \"./external/BokkyPooBahsDateTimeLibrary.sol\";\nimport \"./Interfaces.sol\";\n\n/// @title Recurring Transaction Contract\n/// @author Joseph Reed\n/// @dev This contract's allows decentralized execution of on-chain recurring tasks. It requires three main components:\n///     1. An external source for calling transactions at future time. This contract uses the Ethereum Alarm Clock (EAC)\n///     2. A payment delegate with the Recurring Transaction scheduled\n///     3. A funded delegated wallet with the payment delegate set as a delegate\n/// To calculate the cost of each transaction the supplied gas price oracle determines the current network price times a  \n/// multiplierbased on how far in the future the transaction is executed. As long as the delegated wallet has enough funds, \n/// the recurring transactions will continue.\ncontract RecurringTransaction is IRecurringTransaction {\n\n    using BokkyPooBahsDateTimeLibrary for uint; // A Date/Time library for manipulating timestamps\n    \n    address public factory;             // The factory that deployed this contract\n    uint public blockInitialized;       // The block the alarm clock was initialized\n    uint public BASE_GAS_COST;          // The minimum amount of gas it takes to run the alarm clock not including the triggered task. \n\n    // Payment Options\n    IDelegatedWallet public wallet;     // The address which owns the alarm and collects any leftover funds\n    IPaymentDelegate public delegate;   // The delegate that pulls funds for each alarm\n    IGasPriceOracle public gasPrice;    // The fetches the current or future gas price of the network\n    \n    // Ethereum Alarm Clock Options\n    RequestFactoryInterface public EAC; // Interface provided by the Ethereum Alarm Clock\n    address public priorityCaller;      // The priority recipient of part of the alarm deposit\n    uint[3] public limits;              // The execution limits used when calling the alarm\n    uint public alarmStart;             // The start of the execution window for the current alarm\n    uint public windowSize;             // The number of seconds after the alarm start in which the alarm can be executed\n    \n    // Recurring Transaction Options\n    uint public blockStarted;           // The block the current recurring transaction started\n    uint public intervalValue;          // The value of the time unit when calculating the next alarm timestamp\n    uint public intervalUnit;           // The time unit used when calculating the next alarm timestamp: 0 = seconds, 1 = minutes, 2 = hours, 3 = days, 4 = months, 5 = years\n    uint public maxIntervals;           // The number of times this alarm will go off. 0 = infinite\n    uint public currentInterval;        // Keeps track of how many alarms have been called\n\n    // Execution Options\n    address public txRequest;           // The next scheduled transaction request contract\n    address payable public callAddress; // The address of the contract to call\n    bytes public callData;              // The data to send with the contract call\n    uint public callValue;              // The amount of ether to send with the contract call\n    uint public callGas;                // The amount of extra gas to add to the BASE_GAS_COST when scheduling an alarm\n    \n    constructor() public {\n        blockInitialized = block.number; // force the master contract to be initialized. Ensures the master copy is never self destructed.\n    }\n\n    /// @notice Uses 'initialize()' instead of a constructor to make use of the clone \n    ///         factory at https://github.com/optionality/clone-factory. In general, 'initialize()' should be  \n    ///         called directly following the alarm clock deployment through the use of a factory.\n    /// @param _EAC The Ethereum Alarm Clock smart contract responsible for creating decentralized alarms.\n    /// @param _wallet The funding wallet, change address, and owner of the deployed alarms\n    /// @param _delegate The delegate from which to pull alarm payments\n    function initialize (\n        RequestFactoryInterface _EAC,\n        IDelegatedWallet _wallet,\n        IPaymentDelegate _delegate\n    ) public {\n        require(blockInitialized == 0, \"contract already initialized\");\n        \n        factory = msg.sender;\n        blockInitialized = block.number;\n        BASE_GAS_COST = 700000;\n\n        EAC = _EAC;\n        wallet = _wallet;\n        delegate = _delegate;\n    }\n\n    function start (\n        address payable _callAddress,\n        bytes memory _callData,\n        uint[7] memory _callOptions\n    ) public onlyDelegates {\n        require(_callAddress != address(0x0), \"call address must not be empty\");\n        require(_callOptions[2] > now, \"start timestamp cannot be in the past\");\n        require(_callOptions[3] != 0, \"window size cannot be zero\");\n\n        blockStarted = block.number;\n        callAddress = _callAddress;\n        callData = _callData;\n        callValue = _callOptions[0];\n        callGas = _callOptions[1];\n        alarmStart = _callOptions[2];\n        windowSize = _callOptions[3];\n        intervalValue = _callOptions[4];\n        intervalUnit = _callOptions[5];\n        maxIntervals = _callOptions[6];\n        currentInterval = 1;\n\n        scheduleTransaction();\n\n        emit Start_event(msg.sender, _callAddress, _callData, _callOptions);\n    }\n\n    /// @notice The default function collects ether sent by the payment delegate and is also called by\n    ///         each alarm when they are triggered\n    function () external payable {\n        if(msg.value > 0)\n            emit AlarmPaid_event(msg.sender, msg.value);\n        else\n            handleAlarmCall();\n    }\n\n    /// @notice The heart of the recurring alarm clock.\n    ///         1. Check if the caller is the current alarm\n    ///         2. Execute the task\n    ///         3. Reschedule the alarm\n    ///         4. Cleanup\n    function handleAlarmCall () internal {\n        require(msg.sender == txRequest, \"msg.sender must be tx request\");\n\n        if(callValue != 0) delegate.transfer(address(0x0), address(this), callValue);\n        (bool success, bytes memory result) = callAddress.call.value(callValue).gas(callGas)(callData);\n        emit Execute_event(txRequest, callAddress, callValue, callData, currentInterval, maxIntervals, success, result);\n\n        if(currentInterval < maxIntervals || maxIntervals == 0) {\n                 if(intervalUnit == 0) alarmStart = alarmStart.addSeconds(intervalValue);\n            else if(intervalUnit == 1) alarmStart = alarmStart.addMinutes(intervalValue);\n            else if(intervalUnit == 2) alarmStart = alarmStart.addHours(intervalValue);\n            else if(intervalUnit == 3) alarmStart = alarmStart.addDays(intervalValue);\n            else if(intervalUnit == 4) alarmStart = alarmStart.addMonths(intervalValue);\n            else if(intervalUnit == 5) alarmStart = alarmStart.addYears(intervalValue);\n \n            scheduleTransaction();\n        } else {\n            delete txRequest;\n        }\n\n        currentInterval++;\n    }\n\n    /// @notice Schedules a new transaction request with the Ethereum Alarm Clock\n    function scheduleTransaction () internal {\n        uint totalGasCost = BASE_GAS_COST + callGas;    // The amount of gas to be sent with the transaction\n        uint currentCost = totalGasCost * gasPrice.future(alarmStart + windowSize);\n\n        // Pull the necessary funds for the alarm\n        if(currentCost > 0) delegate.transfer(address(0x0), address(this), currentCost); \n        uint endowment = address(this).balance;         // Commit all available ether to the next alarm\n        uint priorityFee = endowment / 100;             // Set one percent aside for the priority caller\n        uint timeBounty = endowment - priorityFee;      // Set the remaining ether aside for the time bounty\n\n        address[3] memory addressOptions = [\n            address(wallet),    // Change from the alarm is sent to this address, also the account that can owns the alarm.\n            priorityCaller,     // The priority fee is sent to the priority caller\n            address(this)       // The contract to call at execution\n        ];\n\n        uint[12] memory uintOptions = [\n            priorityFee,    // A fee that goes to the fee recipient\n            timeBounty,     // The bounty for the account that triggers this alarm\n            limits[0],      // claimWindowSize\n            limits[1],      // freezeintervalDuration\n            limits[2],      // reservedWindowSize\n            2,              // 1 = use block based scheduling, 2 = Use timestamp based scheduling\n            windowSize,     // The size of the execution window\n            alarmStart,     // The start of the execution window\n            totalGasCost,   // The amount of gas to be sent with the transaction\n            0,              // The amount of ether to be sent\n            0,              // The minimum gas price for the transaction when called\n            endowment       // The required deposit by the claimer\n        ];\n\n        txRequest = EAC.createValidatedRequest.value(endowment)(addressOptions, uintOptions, \"\");\n\n        if(txRequest != address(0x0))\n            emit ValidRequest_event(txRequest);\n        else\n            emit InvalidRequest_event(EAC.validateRequestParams(addressOptions, uintOptions, endowment));\n    }\n\n    /// @notice Cleans up and destroys the alarm. Any leftover ether is sent to the wallet.\n    function destroy () public onlyDelegates {\n        delegate.unschedule();\n        emit Destroy_event(msg.sender);\n\n        selfdestruct(address(wallet));\n    }\n\n    /// @notice Sets the priority caller that receives the fee when an alarm is called\n    /// @param _priorityCaller The address that receives the alarm fee when it is triggered.\n    function setPriorityCaller (address _priorityCaller) public onlyDelegates {\n        priorityCaller = _priorityCaller;\n    }\n\n    /// @notice Sets the execution limits for when an alarm can be claimed, called, or cancelled.\n    /// @param _limits The execution limits applied to each decentralized alarm\n    function setExecutionLimits (uint[3] memory _limits) public onlyDelegates {\n        limits = _limits;\n    }\n\n    /// @notice Sets the oracle that predicts future gas prices.\n    /// @param _oracle Attempts to predict the gas price at a future date\n    function setGasPriceOracle (IGasPriceOracle _oracle) public onlyDelegates {\n        gasPrice = _oracle;\n    }\n\n    modifier onlyDelegates () {\n        require(wallet.isDelegate(msg.sender), \"msg sender must be a delegate\");\n        _;\n    }\n\n    event AlarmPaid_event (address indexed msgSender, uint msgValue);\n    event ValidRequest_event (address txRequest);\n    event InvalidRequest_event (bool[6] reason);\n    event Start_event(\n        address indexed delegate,\n        address indexed callAddress,\n        bytes callData,\n        uint[7] callOptions\n    );\n    event Execute_event(\n        address txRequest,\n        address indexed callAddress,\n        uint callValue,\n        bytes callData,\n        uint currentInterval,\n        uint maxIntervals,\n        bool success,\n        bytes result\n    );\n    event Destroy_event(address indexed delegate);\n\n}\n",
  "sourcePath": "/home/joe/Documents/github/everchain-project/recurring-transactions/contracts/RecurringTransaction.sol",
  "compiler": {
    "name": "solc",
    "version": "0.5.0+commit.1d4f565a.Emscripten.clang"
  },
  "schemaVersion": "3.0.1",
  "updatedAt": "2019-02-20T06:34:10.910Z",
  "devdoc": {
    "author": "Joseph Reed",
    "details": "This contract's allows decentralized execution of on-chain recurring tasks. It requires three main components:     1. An external source for calling transactions at future time. This contract uses the Ethereum Alarm Clock (EAC)     2. A payment delegate with the Recurring Transaction scheduled     3. A funded delegated wallet with the payment delegate set as a delegate To calculate the cost of each transaction the supplied gas price oracle determines the current network price times a   multiplierbased on how far in the future the transaction is executed. As long as the delegated wallet has enough funds,  the recurring transactions will continue.",
    "methods": {
      "initialize(address,address,address)": {
        "params": {
          "_EAC": "The Ethereum Alarm Clock smart contract responsible for creating decentralized alarms.",
          "_delegate": "The delegate from which to pull alarm payments",
          "_wallet": "The funding wallet, change address, and owner of the deployed alarms"
        }
      },
      "setExecutionLimits(uint256[3])": {
        "params": {
          "_limits": "The execution limits applied to each decentralized alarm"
        }
      },
      "setGasPriceOracle(address)": {
        "params": {
          "_oracle": "Attempts to predict the gas price at a future date"
        }
      },
      "setPriorityCaller(address)": {
        "params": {
          "_priorityCaller": "The address that receives the alarm fee when it is triggered."
        }
      }
    },
    "title": "Recurring Transaction Contract"
  },
  "userdoc": {
    "methods": {
      "destroy()": {
        "notice": "Cleans up and destroys the alarm. Any leftover ether is sent to the wallet."
      },
      "initialize(address,address,address)": {
        "notice": "Uses 'initialize()' instead of a constructor to make use of the clone          factory at https://github.com/optionality/clone-factory. In general, 'initialize()' should be           called directly following the alarm clock deployment through the use of a factory."
      },
      "setExecutionLimits(uint256[3])": {
        "notice": "Sets the execution limits for when an alarm can be claimed, called, or cancelled."
      },
      "setGasPriceOracle(address)": {
        "notice": "Sets the oracle that predicts future gas prices."
      },
      "setPriorityCaller(address)": {
        "notice": "Sets the priority caller that receives the fee when an alarm is called"
      }
    }
  }
}