{
  "contractName": "RecurringAlarmClock",
  "abi": [
    {
      "constant": true,
      "inputs": [],
      "name": "BASE_GAS_COST",
      "outputs": [
        {
          "name": "",
          "type": "uint256"
        }
      ],
      "payable": false,
      "stateMutability": "view",
      "type": "function",
      "signature": "0x079766a8"
    },
    {
      "constant": true,
      "inputs": [],
      "name": "priorityCaller",
      "outputs": [
        {
          "name": "",
          "type": "address"
        }
      ],
      "payable": false,
      "stateMutability": "view",
      "type": "function",
      "signature": "0x1fd3ea52"
    },
    {
      "constant": true,
      "inputs": [
        {
          "name": "",
          "type": "uint256"
        }
      ],
      "name": "limits",
      "outputs": [
        {
          "name": "",
          "type": "uint256"
        }
      ],
      "payable": false,
      "stateMutability": "view",
      "type": "function",
      "signature": "0x20e9daf1"
    },
    {
      "constant": true,
      "inputs": [],
      "name": "intervalUnit",
      "outputs": [
        {
          "name": "",
          "type": "uint256"
        }
      ],
      "payable": false,
      "stateMutability": "view",
      "type": "function",
      "signature": "0x226b45dd"
    },
    {
      "constant": true,
      "inputs": [],
      "name": "alarmStart",
      "outputs": [
        {
          "name": "",
          "type": "uint256"
        }
      ],
      "payable": false,
      "stateMutability": "view",
      "type": "function",
      "signature": "0x2352b8c0"
    },
    {
      "constant": true,
      "inputs": [],
      "name": "currentInterval",
      "outputs": [
        {
          "name": "",
          "type": "uint256"
        }
      ],
      "payable": false,
      "stateMutability": "view",
      "type": "function",
      "signature": "0x363487bc"
    },
    {
      "constant": true,
      "inputs": [],
      "name": "intervalValue",
      "outputs": [
        {
          "name": "",
          "type": "uint256"
        }
      ],
      "payable": false,
      "stateMutability": "view",
      "type": "function",
      "signature": "0x3d9bb20f"
    },
    {
      "constant": true,
      "inputs": [],
      "name": "callAddress",
      "outputs": [
        {
          "name": "",
          "type": "address"
        }
      ],
      "payable": false,
      "stateMutability": "view",
      "type": "function",
      "signature": "0x3e23ee43"
    },
    {
      "constant": true,
      "inputs": [],
      "name": "callData",
      "outputs": [
        {
          "name": "",
          "type": "bytes"
        }
      ],
      "payable": false,
      "stateMutability": "view",
      "type": "function",
      "signature": "0x4e417a98"
    },
    {
      "constant": true,
      "inputs": [],
      "name": "wallet",
      "outputs": [
        {
          "name": "",
          "type": "address"
        }
      ],
      "payable": false,
      "stateMutability": "view",
      "type": "function",
      "signature": "0x521eb273"
    },
    {
      "constant": true,
      "inputs": [],
      "name": "EAC",
      "outputs": [
        {
          "name": "",
          "type": "address"
        }
      ],
      "payable": false,
      "stateMutability": "view",
      "type": "function",
      "signature": "0x6cf48a55"
    },
    {
      "constant": true,
      "inputs": [],
      "name": "maxIntervals",
      "outputs": [
        {
          "name": "",
          "type": "uint256"
        }
      ],
      "payable": false,
      "stateMutability": "view",
      "type": "function",
      "signature": "0x86ab53e5"
    },
    {
      "constant": true,
      "inputs": [],
      "name": "windowSize",
      "outputs": [
        {
          "name": "",
          "type": "uint256"
        }
      ],
      "payable": false,
      "stateMutability": "view",
      "type": "function",
      "signature": "0x8a14117a"
    },
    {
      "constant": true,
      "inputs": [],
      "name": "blockInitialized",
      "outputs": [
        {
          "name": "",
          "type": "uint256"
        }
      ],
      "payable": false,
      "stateMutability": "view",
      "type": "function",
      "signature": "0x9bc40c4c"
    },
    {
      "constant": true,
      "inputs": [],
      "name": "alarm",
      "outputs": [
        {
          "name": "",
          "type": "address"
        }
      ],
      "payable": false,
      "stateMutability": "view",
      "type": "function",
      "signature": "0xbb7e8c28"
    },
    {
      "constant": true,
      "inputs": [],
      "name": "callGas",
      "outputs": [
        {
          "name": "",
          "type": "uint256"
        }
      ],
      "payable": false,
      "stateMutability": "view",
      "type": "function",
      "signature": "0xc1459d31"
    },
    {
      "constant": true,
      "inputs": [],
      "name": "factory",
      "outputs": [
        {
          "name": "",
          "type": "address"
        }
      ],
      "payable": false,
      "stateMutability": "view",
      "type": "function",
      "signature": "0xc45a0155"
    },
    {
      "constant": true,
      "inputs": [],
      "name": "delegate",
      "outputs": [
        {
          "name": "",
          "type": "address"
        }
      ],
      "payable": false,
      "stateMutability": "view",
      "type": "function",
      "signature": "0xc89e4361"
    },
    {
      "constant": true,
      "inputs": [],
      "name": "callValue",
      "outputs": [
        {
          "name": "",
          "type": "uint256"
        }
      ],
      "payable": false,
      "stateMutability": "view",
      "type": "function",
      "signature": "0xd62457f6"
    },
    {
      "constant": true,
      "inputs": [],
      "name": "gasPrice",
      "outputs": [
        {
          "name": "",
          "type": "address"
        }
      ],
      "payable": false,
      "stateMutability": "view",
      "type": "function",
      "signature": "0xfe173b97"
    },
    {
      "payable": true,
      "stateMutability": "payable",
      "type": "fallback"
    },
    {
      "anonymous": false,
      "inputs": [
        {
          "indexed": false,
          "name": "sender",
          "type": "address"
        },
        {
          "indexed": false,
          "name": "amount",
          "type": "uint256"
        }
      ],
      "name": "AlarmPaid_event",
      "type": "event",
      "signature": "0xec736eda410777c3e885f2301f1963ee8748c0ae65da066567ae125fb6dad98e"
    },
    {
      "anonymous": false,
      "inputs": [
        {
          "indexed": false,
          "name": "newAlarm",
          "type": "address"
        }
      ],
      "name": "ValidRequest_event",
      "type": "event",
      "signature": "0x56c039ceb7f3be5b9a60845fef29d56e277f6fc3d9b2fe5d58e642fc45f6d7e7"
    },
    {
      "anonymous": false,
      "inputs": [
        {
          "indexed": false,
          "name": "params",
          "type": "bool[6]"
        }
      ],
      "name": "InvalidRequest_event",
      "type": "event",
      "signature": "0xebec2a47d1b8a4f2300d8b1a3f76af4035584f4667e3a47730f7c47eeb4675af"
    },
    {
      "anonymous": false,
      "inputs": [
        {
          "indexed": false,
          "name": "callAddress",
          "type": "address"
        },
        {
          "indexed": false,
          "name": "callData",
          "type": "bytes"
        },
        {
          "indexed": false,
          "name": "callOptions",
          "type": "uint256[7]"
        }
      ],
      "name": "Start_event",
      "type": "event",
      "signature": "0xc0aaa1f6494add73873ec5c1b67811fd24bea78b5cea983a3fc20dc57c5359fc"
    },
    {
      "anonymous": false,
      "inputs": [
        {
          "indexed": false,
          "name": "alarm",
          "type": "address"
        },
        {
          "indexed": false,
          "name": "currentInterval",
          "type": "uint256"
        },
        {
          "indexed": false,
          "name": "maxIntervals",
          "type": "uint256"
        },
        {
          "indexed": false,
          "name": "callAddress",
          "type": "address"
        },
        {
          "indexed": false,
          "name": "callValue",
          "type": "uint256"
        },
        {
          "indexed": false,
          "name": "callData",
          "type": "bytes"
        },
        {
          "indexed": false,
          "name": "success",
          "type": "bool"
        },
        {
          "indexed": false,
          "name": "result",
          "type": "bytes"
        }
      ],
      "name": "Execute_event",
      "type": "event",
      "signature": "0x895175f0ccd2a45d6ee25facf9b0c6f40300c4dd93407786c2c62d55cdfd4542"
    },
    {
      "constant": false,
      "inputs": [
        {
          "name": "_EAC",
          "type": "address"
        },
        {
          "name": "_wallet",
          "type": "address"
        },
        {
          "name": "_delegate",
          "type": "address"
        }
      ],
      "name": "initialize",
      "outputs": [],
      "payable": false,
      "stateMutability": "nonpayable",
      "type": "function",
      "signature": "0xc0c53b8b"
    },
    {
      "constant": false,
      "inputs": [
        {
          "name": "_limits",
          "type": "uint256[3]"
        }
      ],
      "name": "setExecutionLimits",
      "outputs": [],
      "payable": false,
      "stateMutability": "nonpayable",
      "type": "function",
      "signature": "0x3c2d7ec8"
    },
    {
      "constant": false,
      "inputs": [
        {
          "name": "_oracle",
          "type": "address"
        }
      ],
      "name": "setGasPriceOracle",
      "outputs": [],
      "payable": false,
      "stateMutability": "nonpayable",
      "type": "function",
      "signature": "0xa4d0c0a9"
    },
    {
      "constant": false,
      "inputs": [
        {
          "name": "_priorityCaller",
          "type": "address"
        }
      ],
      "name": "setPriorityCaller",
      "outputs": [],
      "payable": false,
      "stateMutability": "nonpayable",
      "type": "function",
      "signature": "0xff080651"
    },
    {
      "constant": false,
      "inputs": [
        {
          "name": "_callAddress",
          "type": "address"
        },
        {
          "name": "_callData",
          "type": "bytes"
        },
        {
          "name": "_callOptions",
          "type": "uint256[7]"
        }
      ],
      "name": "start",
      "outputs": [],
      "payable": false,
      "stateMutability": "nonpayable",
      "type": "function",
      "signature": "0x46b9c7b0"
    },
    {
      "constant": false,
      "inputs": [],
      "name": "destroy",
      "outputs": [],
      "payable": false,
      "stateMutability": "nonpayable",
      "type": "function",
      "signature": "0x83197ef0"
    }
  ],
  "bytecode": "0x608060405234801561001057600080fd5b50612eb4806100206000396000f3fe608060405260043610610154576000357c0100000000000000000000000000000000000000000000000000000000900463ffffffff168063079766a8146101d85780631fd3ea521461020357806320e9daf11461025a578063226b45dd146102a95780632352b8c0146102d4578063363487bc146102ff5780633c2d7ec81461032a5780633d9bb20f1461039c5780633e23ee43146103c757806346b9c7b01461041e5780634e417a9814610548578063521eb273146105d85780636cf48a551461062f57806383197ef01461068657806386ab53e51461069d5780638a14117a146106c85780639bc40c4c146106f3578063a4d0c0a91461071e578063bb7e8c281461076f578063c0c53b8b146107c6578063c1459d3114610857578063c45a015514610882578063c89e4361146108d9578063d62457f614610930578063fe173b971461095b578063ff080651146109b2575b60003411156101cd577fec736eda410777c3e885f2301f1963ee8748c0ae65da066567ae125fb6dad98e3334604051808373ffffffffffffffffffffffffffffffffffffffff1673ffffffffffffffffffffffffffffffffffffffff1681526020018281526020019250505060405180910390a16101d6565b6101d5610a03565b5b005b3480156101e457600080fd5b506101ed61108d565b6040518082815260200191505060405180910390f35b34801561020f57600080fd5b50610218611093565b604051808273ffffffffffffffffffffffffffffffffffffffff1673ffffffffffffffffffffffffffffffffffffffff16815260200191505060405180910390f35b34801561026657600080fd5b506102936004803603602081101561027d57600080fd5b81019080803590602001909291905050506110b9565b6040518082815260200191505060405180910390f35b3480156102b557600080fd5b506102be6110d3565b6040518082815260200191505060405180910390f35b3480156102e057600080fd5b506102e96110d9565b6040518082815260200191505060405180910390f35b34801561030b57600080fd5b506103146110df565b6040518082815260200191505060405180910390f35b34801561033657600080fd5b5061039a6004803603606081101561034d57600080fd5b8101908080606001906003806020026040519081016040528092919082600360200280828437600081840152601f19601f82011690508083019250505050505091929192905050506110e5565b005b3480156103a857600080fd5b506103b161128a565b6040518082815260200191505060405180910390f35b3480156103d357600080fd5b506103dc611290565b604051808273ffffffffffffffffffffffffffffffffffffffff1673ffffffffffffffffffffffffffffffffffffffff16815260200191505060405180910390f35b34801561042a57600080fd5b50610546600480360361012081101561044257600080fd5b81019080803573ffffffffffffffffffffffffffffffffffffffff1690602001909291908035906020019064010000000081111561047f57600080fd5b82018360208201111561049157600080fd5b803590602001918460018302840111640100000000831117156104b357600080fd5b91908080601f016020809104026020016040519081016040528093929190818152602001838380828437600081840152601f19601f8201169050808301925050505050505091929192908060e001906007806020026040519081016040528092919082600760200280828437600081840152601f19601f82011690508083019250505050505091929192905050506112b6565b005b34801561055457600080fd5b5061055d6117e1565b6040518080602001828103825283818151815260200191508051906020019080838360005b8381101561059d578082015181840152602081019050610582565b50505050905090810190601f1680156105ca5780820380516001836020036101000a031916815260200191505b509250505060405180910390f35b3480156105e457600080fd5b506105ed61187f565b604051808273ffffffffffffffffffffffffffffffffffffffff1673ffffffffffffffffffffffffffffffffffffffff16815260200191505060405180910390f35b34801561063b57600080fd5b506106446118a5565b604051808273ffffffffffffffffffffffffffffffffffffffff1673ffffffffffffffffffffffffffffffffffffffff16815260200191505060405180910390f35b34801561069257600080fd5b5061069b6118cb565b005b3480156106a957600080fd5b506106b2611b58565b6040518082815260200191505060405180910390f35b3480156106d457600080fd5b506106dd611b5e565b6040518082815260200191505060405180910390f35b3480156106ff57600080fd5b50610708611b64565b6040518082815260200191505060405180910390f35b34801561072a57600080fd5b5061076d6004803603602081101561074157600080fd5b81019080803573ffffffffffffffffffffffffffffffffffffffff169060200190929190505050611b6a565b005b34801561077b57600080fd5b50610784611d3e565b604051808273ffffffffffffffffffffffffffffffffffffffff1673ffffffffffffffffffffffffffffffffffffffff16815260200191505060405180910390f35b3480156107d257600080fd5b50610855600480360360608110156107e957600080fd5b81019080803573ffffffffffffffffffffffffffffffffffffffff169060200190929190803573ffffffffffffffffffffffffffffffffffffffff169060200190929190803573ffffffffffffffffffffffffffffffffffffffff169060200190929190505050611d64565b005b34801561086357600080fd5b5061086c611f1e565b6040518082815260200191505060405180910390f35b34801561088e57600080fd5b50610897611f24565b604051808273ffffffffffffffffffffffffffffffffffffffff1673ffffffffffffffffffffffffffffffffffffffff16815260200191505060405180910390f35b3480156108e557600080fd5b506108ee611f4a565b604051808273ffffffffffffffffffffffffffffffffffffffff1673ffffffffffffffffffffffffffffffffffffffff16815260200191505060405180910390f35b34801561093c57600080fd5b50610945611f70565b6040518082815260200191505060405180910390f35b34801561096757600080fd5b50610970611f76565b604051808273ffffffffffffffffffffffffffffffffffffffff1673ffffffffffffffffffffffffffffffffffffffff16815260200191505060405180910390f35b3480156109be57600080fd5b50610a01600480360360208110156109d557600080fd5b81019080803573ffffffffffffffffffffffffffffffffffffffff169060200190929190505050611f9c565b005b601a60009054906101000a900473ffffffffffffffffffffffffffffffffffffffff1673ffffffffffffffffffffffffffffffffffffffff163373ffffffffffffffffffffffffffffffffffffffff16141515610aee576040517f08c379a000000000000000000000000000000000000000000000000000000000815260040180806020018281038252602a8152602001807f6f6e6c792074686520616c61726d2063616e207472696767657220746865206181526020017f6c61726d20636c6f636b0000000000000000000000000000000000000000000081525060400191505060405180910390fd5b6000601d54141515610c3357600d60009054906101000a900473ffffffffffffffffffffffffffffffffffffffff1673ffffffffffffffffffffffffffffffffffffffff1663beabacc8600030601d546040518463ffffffff167c0100000000000000000000000000000000000000000000000000000000028152600401808473ffffffffffffffffffffffffffffffffffffffff1673ffffffffffffffffffffffffffffffffffffffff1681526020018373ffffffffffffffffffffffffffffffffffffffff1673ffffffffffffffffffffffffffffffffffffffff1681526020018281526020019350505050602060405180830381600087803b158015610bf657600080fd5b505af1158015610c0a573d6000803e3d6000fd5b505050506040513d6020811015610c2057600080fd5b8101908080519060200190929190505050505b60006060601b60009054906101000a900473ffffffffffffffffffffffffffffffffffffffff1673ffffffffffffffffffffffffffffffffffffffff16601d545a90601c6040518082805460018160011615610100020316600290048015610cd25780601f10610cb0576101008083540402835291820191610cd2565b820191906000526020600020905b815481529060010190602001808311610cbe575b5050915050600060405180830381858888f193505050503d8060008114610d15576040519150601f19603f3d011682016040523d82523d6000602084013e610d1a565b606091505b50915091507f895175f0ccd2a45d6ee25facf9b0c6f40300c4dd93407786c2c62d55cdfd4542601a60009054906101000a900473ffffffffffffffffffffffffffffffffffffffff16601954601854601b60009054906101000a900473ffffffffffffffffffffffffffffffffffffffff16601d54601c8888604051808973ffffffffffffffffffffffffffffffffffffffff1673ffffffffffffffffffffffffffffffffffffffff1681526020018881526020018781526020018673ffffffffffffffffffffffffffffffffffffffff1673ffffffffffffffffffffffffffffffffffffffff168152602001858152602001806020018415151515815260200180602001838103835286818154600181600116156101000203166002900481526020019150805460018160011615610100020316600290048015610ea05780601f10610e7557610100808354040283529160200191610ea0565b820191906000526020600020905b815481529060010190602001808311610e8357829003601f168201915b5050838103825284818151815260200191508051906020019080838360005b83811015610eda578082015181840152602081019050610ebf565b50505050905090810190601f168015610f075780820380516001836020036101000a031916815260200191505b509a505050505050505050505060405180910390a16018546019541080610f3057506000601854145b156110515760006017541415610f6257610f5760165460145461217090919063ffffffff16565b601481905550611044565b60016017541415610f8f57610f8460165460145461218c90919063ffffffff16565b601481905550611043565b60026017541415610fbc57610fb16016546014546121ab90919063ffffffff16565b601481905550611042565b60036017541415610fe957610fde6016546014546121cb90919063ffffffff16565b601481905550611041565b600460175414156110165761100b6016546014546121ec90919063ffffffff16565b601481905550611040565b6005601754141561103f5761103860165460145461229890919063ffffffff16565b6014819055505b5b5b5b5b5b61104c61231b565b611077565b601a60006101000a81549073ffffffffffffffffffffffffffffffffffffffff02191690555b6019600081548092919060010191905055505050565b600b5481565b601060009054906101000a900473ffffffffffffffffffffffffffffffffffffffff1681565b6011816003811015156110c857fe5b016000915090505481565b60175481565b60145481565b60195481565b600c60009054906101000a900473ffffffffffffffffffffffffffffffffffffffff1673ffffffffffffffffffffffffffffffffffffffff166307779627336040518263ffffffff167c0100000000000000000000000000000000000000000000000000000000028152600401808273ffffffffffffffffffffffffffffffffffffffff1673ffffffffffffffffffffffffffffffffffffffff16815260200191505060206040518083038186803b1580156111a057600080fd5b505afa1580156111b4573d6000803e3d6000fd5b505050506040513d60208110156111ca57600080fd5b81019080805190602001909291905050501515611275576040517f08c379a000000000000000000000000000000000000000000000000000000000815260040180806020018281038252602d8152602001807f6f6e6c7920612077616c6c65742064656c65676174652063616e2063616c6c2081526020017f746869732066756e6374696f6e0000000000000000000000000000000000000081525060400191505060405180910390fd5b806011906003611286929190612d5c565b5050565b60165481565b601b60009054906101000a900473ffffffffffffffffffffffffffffffffffffffff1681565b600c60009054906101000a900473ffffffffffffffffffffffffffffffffffffffff1673ffffffffffffffffffffffffffffffffffffffff166307779627336040518263ffffffff167c0100000000000000000000000000000000000000000000000000000000028152600401808273ffffffffffffffffffffffffffffffffffffffff1673ffffffffffffffffffffffffffffffffffffffff16815260200191505060206040518083038186803b15801561137157600080fd5b505afa158015611385573d6000803e3d6000fd5b505050506040513d602081101561139b57600080fd5b81019080805190602001909291905050501515611446576040517f08c379a000000000000000000000000000000000000000000000000000000000815260040180806020018281038252602d8152602001807f6f6e6c7920612077616c6c65742064656c65676174652063616e2063616c6c2081526020017f746869732066756e6374696f6e0000000000000000000000000000000000000081525060400191505060405180910390fd5b600073ffffffffffffffffffffffffffffffffffffffff168373ffffffffffffffffffffffffffffffffffffffff161415151561148257600080fd5b4281600260078110151561149257fe5b6020020151111515611532576040517f08c379a00000000000000000000000000000000000000000000000000000000081526004018080602001828103825260268152602001807f73746172742074696d657374616d702063616e6e6f7420626520696e2074686581526020017f20706173742e000000000000000000000000000000000000000000000000000081525060400191505060405180910390fd5b600081600360078110151561154357fe5b6020020151141515156115be576040517f08c379a000000000000000000000000000000000000000000000000000000000815260040180806020018281038252601a8152602001807f77696e646f772073697a652063616e6e6f74206265207a65726f00000000000081525060200191505060405180910390fd5b82601b60006101000a81548173ffffffffffffffffffffffffffffffffffffffff021916908373ffffffffffffffffffffffffffffffffffffffff16021790555081601c9080519060200190611615929190612d9c565b5080600060078110151561162557fe5b6020020151601d8190555080600160078110151561163f57fe5b602002015160068190555080600260078110151561165957fe5b602002015160148190555080600360078110151561167357fe5b602002015160158190555080600460078110151561168d57fe5b60200201516016819055508060056007811015156116a757fe5b60200201516017819055508060066007811015156116c157fe5b602002015160188190555060016019819055506116dc61231b565b7fc0aaa1f6494add73873ec5c1b67811fd24bea78b5cea983a3fc20dc57c5359fc838383604051808473ffffffffffffffffffffffffffffffffffffffff1673ffffffffffffffffffffffffffffffffffffffff1681526020018060200183600760200280838360005b83811015611761578082015181840152602081019050611746565b50505050905001828103825284818151815260200191508051906020019080838360005b838110156117a0578082015181840152602081019050611785565b50505050905090810190601f1680156117cd5780820380516001836020036101000a031916815260200191505b5094505050505060405180910390a1505050565b601c8054600181600116156101000203166002900480601f0160208091040260200160405190810160405280929190818152602001828054600181600116156101000203166002900480156118775780601f1061184c57610100808354040283529160200191611877565b820191906000526020600020905b81548152906001019060200180831161185a57829003601f168201915b505050505081565b600c60009054906101000a900473ffffffffffffffffffffffffffffffffffffffff1681565b600f60009054906101000a900473ffffffffffffffffffffffffffffffffffffffff1681565b600c60009054906101000a900473ffffffffffffffffffffffffffffffffffffffff1673ffffffffffffffffffffffffffffffffffffffff166307779627336040518263ffffffff167c0100000000000000000000000000000000000000000000000000000000028152600401808273ffffffffffffffffffffffffffffffffffffffff1673ffffffffffffffffffffffffffffffffffffffff16815260200191505060206040518083038186803b15801561198657600080fd5b505afa15801561199a573d6000803e3d6000fd5b505050506040513d60208110156119b057600080fd5b81019080805190602001909291905050501515611a5b576040517f08c379a000000000000000000000000000000000000000000000000000000000815260040180806020018281038252602d8152602001807f6f6e6c7920612077616c6c65742064656c65676174652063616e2063616c6c2081526020017f746869732066756e6374696f6e0000000000000000000000000000000000000081525060400191505060405180910390fd5b600d60009054906101000a900473ffffffffffffffffffffffffffffffffffffffff1673ffffffffffffffffffffffffffffffffffffffff1663daf1548c6040518163ffffffff167c0100000000000000000000000000000000000000000000000000000000028152600401602060405180830381600087803b158015611ae157600080fd5b505af1158015611af5573d6000803e3d6000fd5b505050506040513d6020811015611b0b57600080fd5b810190808051906020019092919050505050600c60009054906101000a900473ffffffffffffffffffffffffffffffffffffffff1673ffffffffffffffffffffffffffffffffffffffff16ff5b60185481565b60155481565b600a5481565b600c60009054906101000a900473ffffffffffffffffffffffffffffffffffffffff1673ffffffffffffffffffffffffffffffffffffffff166307779627336040518263ffffffff167c0100000000000000000000000000000000000000000000000000000000028152600401808273ffffffffffffffffffffffffffffffffffffffff1673ffffffffffffffffffffffffffffffffffffffff16815260200191505060206040518083038186803b158015611c2557600080fd5b505afa158015611c39573d6000803e3d6000fd5b505050506040513d6020811015611c4f57600080fd5b81019080805190602001909291905050501515611cfa576040517f08c379a000000000000000000000000000000000000000000000000000000000815260040180806020018281038252602d8152602001807f6f6e6c7920612077616c6c65742064656c65676174652063616e2063616c6c2081526020017f746869732066756e6374696f6e0000000000000000000000000000000000000081525060400191505060405180910390fd5b80600e60006101000a81548173ffffffffffffffffffffffffffffffffffffffff021916908373ffffffffffffffffffffffffffffffffffffffff16021790555050565b601a60009054906101000a900473ffffffffffffffffffffffffffffffffffffffff1681565b6000600a54141515611e04576040517f08c379a00000000000000000000000000000000000000000000000000000000081526004018080602001828103825260388152602001807f746865206c6f636b2066756e6374696f6e2063616e2062652063616c6c65642081526020017f6f6e6c79206f6e63652062792074686520666163746f7279000000000000000081525060400191505060405180910390fd5b33600960006101000a81548173ffffffffffffffffffffffffffffffffffffffff021916908373ffffffffffffffffffffffffffffffffffffffff16021790555043600a81905550620aae60600b8190555082600f60006101000a81548173ffffffffffffffffffffffffffffffffffffffff021916908373ffffffffffffffffffffffffffffffffffffffff16021790555081600c60006101000a81548173ffffffffffffffffffffffffffffffffffffffff021916908373ffffffffffffffffffffffffffffffffffffffff16021790555080600d60006101000a81548173ffffffffffffffffffffffffffffffffffffffff021916908373ffffffffffffffffffffffffffffffffffffffff160217905550505050565b60065481565b600960009054906101000a900473ffffffffffffffffffffffffffffffffffffffff1681565b600d60009054906101000a900473ffffffffffffffffffffffffffffffffffffffff1681565b601d5481565b600e60009054906101000a900473ffffffffffffffffffffffffffffffffffffffff1681565b600c60009054906101000a900473ffffffffffffffffffffffffffffffffffffffff1673ffffffffffffffffffffffffffffffffffffffff166307779627336040518263ffffffff167c0100000000000000000000000000000000000000000000000000000000028152600401808273ffffffffffffffffffffffffffffffffffffffff1673ffffffffffffffffffffffffffffffffffffffff16815260200191505060206040518083038186803b15801561205757600080fd5b505afa15801561206b573d6000803e3d6000fd5b505050506040513d602081101561208157600080fd5b8101908080519060200190929190505050151561212c576040517f08c379a000000000000000000000000000000000000000000000000000000000815260040180806020018281038252602d8152602001807f6f6e6c7920612077616c6c65742064656c65676174652063616e2063616c6c2081526020017f746869732066756e6374696f6e0000000000000000000000000000000000000081525060400191505060405180910390fd5b80601060006101000a81548173ffffffffffffffffffffffffffffffffffffffff021916908373ffffffffffffffffffffffffffffffffffffffff16021790555050565b6000818301905082811015151561218657600080fd5b92915050565b6000603c8202830190508281101515156121a557600080fd5b92915050565b6000610e108202830190508281101515156121c557600080fd5b92915050565b6000620151808202830190508281101515156121e657600080fd5b92915050565b600080600080612209620151808781151561220357fe5b04612ae5565b8093508194508295505050508482019150600c6001830381151561222957fe5b04830192506001600c6001840381151561223f57fe5b06019150600061224f8484612bc7565b90508082111561225d578091505b620151808781151561226b57fe5b066201518061227b868686612c54565b0201945086851015151561228e57600080fd5b5050505092915050565b6000806000806122b562015180878115156122af57fe5b04612ae5565b809350819450829550505050848301925060006122d28484612bc7565b9050808211156122e0578091505b62015180878115156122ee57fe5b06620151806122fe868686612c54565b0201945086851015151561231157600080fd5b5050505092915050565b6000600654600b540190506000600e60009054906101000a900473ffffffffffffffffffffffffffffffffffffffff1673ffffffffffffffffffffffffffffffffffffffff166312a2a0356014546040518263ffffffff167c01000000000000000000000000000000000000000000000000000000000281526004018082815260200191505060206040518083038186803b1580156123b957600080fd5b505afa1580156123cd573d6000803e3d6000fd5b505050506040513d60208110156123e357600080fd5b810190808051906020019092919050505082029050600081111561253857600d60009054906101000a900473ffffffffffffffffffffffffffffffffffffffff1673ffffffffffffffffffffffffffffffffffffffff1663beabacc8600030846040518463ffffffff167c0100000000000000000000000000000000000000000000000000000000028152600401808473ffffffffffffffffffffffffffffffffffffffff1673ffffffffffffffffffffffffffffffffffffffff1681526020018373ffffffffffffffffffffffffffffffffffffffff1673ffffffffffffffffffffffffffffffffffffffff1681526020018281526020019350505050602060405180830381600087803b1580156124fb57600080fd5b505af115801561250f573d6000803e3d6000fd5b505050506040513d602081101561252557600080fd5b8101908080519060200190929190505050505b60003073ffffffffffffffffffffffffffffffffffffffff16319050600060648281151561256257fe5b04905060008183039050612574612e1c565b606060405190810160405280600c60009054906101000a900473ffffffffffffffffffffffffffffffffffffffff1673ffffffffffffffffffffffffffffffffffffffff1673ffffffffffffffffffffffffffffffffffffffff168152602001601060009054906101000a900473ffffffffffffffffffffffffffffffffffffffff1673ffffffffffffffffffffffffffffffffffffffff1673ffffffffffffffffffffffffffffffffffffffff1681526020013073ffffffffffffffffffffffffffffffffffffffff1673ffffffffffffffffffffffffffffffffffffffff168152509050612662612e3f565b610180604051908101604052808581526020018481526020016011600060038110151561268b57fe5b01548152602001601160016003811015156126a257fe5b01548152602001601160026003811015156126b957fe5b015481526020016002815260200160155481526020016014548152602001888152602001600081526020016000815260200160008152509050600f60009054906101000a900473ffffffffffffffffffffffffffffffffffffffff1673ffffffffffffffffffffffffffffffffffffffff1663d7ceab4c8684846040518463ffffffff167c01000000000000000000000000000000000000000000000000000000000281526004018083600360200280838360005b8381101561278957808201518184015260208101905061276e565b5050505090500182600c60200280838360005b838110156127b757808201518184015260208101905061279c565b505050509050018060200182810382526000815260200160200193505050506020604051808303818588803b1580156127ef57600080fd5b505af1158015612803573d6000803e3d6000fd5b50505050506040513d602081101561281a57600080fd5b8101908080519060200190929190505050601a60006101000a81548173ffffffffffffffffffffffffffffffffffffffff021916908373ffffffffffffffffffffffffffffffffffffffff160217905550600073ffffffffffffffffffffffffffffffffffffffff16601a60009054906101000a900473ffffffffffffffffffffffffffffffffffffffff1673ffffffffffffffffffffffffffffffffffffffff1614151561294d577f56c039ceb7f3be5b9a60845fef29d56e277f6fc3d9b2fe5d58e642fc45f6d7e7601a60009054906101000a900473ffffffffffffffffffffffffffffffffffffffff16604051808273ffffffffffffffffffffffffffffffffffffffff1673ffffffffffffffffffffffffffffffffffffffff16815260200191505060405180910390a1612adc565b7febec2a47d1b8a4f2300d8b1a3f76af4035584f4667e3a47730f7c47eeb4675af600f60009054906101000a900473ffffffffffffffffffffffffffffffffffffffff1673ffffffffffffffffffffffffffffffffffffffff16631e35ff058484896040518463ffffffff167c01000000000000000000000000000000000000000000000000000000000281526004018084600360200280838360005b83811015612a055780820151818401526020810190506129ea565b5050505090500183600c60200280838360005b83811015612a33578082015181840152602081019050612a18565b50505050905001828152602001935050505060c06040518083038186803b158015612a5d57600080fd5b505afa158015612a71573d6000803e3d6000fd5b505050506040513d601f19601f8201168201806040525060c0811015612a9657600080fd5b81019080919050506040518082600660200280838360005b83811015612ac9578082015181840152602081019050612aae565b5050505090500191505060405180910390a15b50505050505050565b600080600080849050600062253d8c62010bd98301019050600062023ab182600402811515612b1057fe5b059050600460038262023ab10201811515612b2757fe5b0582039150600062164b0960018401610fa002811515612b4357fe5b059050601f6004826105b502811515612b5857fe5b058403019250600061098f84605002811515612b7057fe5b059050600060508261098f02811515612b8557fe5b0585039050600b82811515612b9657fe5b05945084600c0260028301039150848360318603606402010192508298508197508096505050505050509193909250565b60006001821480612bd85750600382145b80612be35750600582145b80612bee5750600782145b80612bf95750600882145b80612c045750600a82145b80612c0f5750600c82145b15612c1d57601f9050612c4e565b600282141515612c3057601e9050612c4d565b612c3983612d13565b612c4457601c612c47565b601d5b60ff1690505b5b92915050565b60006107b28410151515612c6757600080fd5b600084905060008490506000849050600062253d8c60046064600c600e8703811515612c8f57fe5b05611324880101811515612c9f57fe5b05600302811515612cac57fe5b05600c80600c600e8803811515612cbf57fe5b0502600287030361016f02811515612cd357fe5b056004600c600e8803811515612ce557fe5b056112c08901016105b502811515612cf957fe5b05617d4b8603010103039050809450505050509392505050565b600080600483811515612d2257fe5b06148015612d3d57506000606483811515612d3957fe5b0614155b80612d555750600061019083811515612d5257fe5b06145b9050919050565b8260038101928215612d8b579160200282015b82811115612d8a578251825591602001919060010190612d6f565b5b509050612d989190612e63565b5090565b828054600181600116156101000203166002900490600052602060002090601f016020900481019282601f10612ddd57805160ff1916838001178555612e0b565b82800160010185558215612e0b579182015b82811115612e0a578251825591602001919060010190612def565b5b509050612e189190612e63565b5090565b606060405190810160405280600390602082028038833980820191505090505090565b61018060405190810160405280600c90602082028038833980820191505090505090565b612e8591905b80821115612e81576000816000905550600101612e69565b5090565b9056fea165627a7a723058209ca532387f51b40cdeccc0904aac24e599d7d4ddf19d0111d4d45bbe380178a10029",
  "source": "pragma solidity ^0.5.0;\n\nimport \"./external/BokkyPooBahsDateTimeLibrary.sol\";\nimport \"./Interfaces.sol\";\n\n/// @title RecurringAlarmClock Contract\n/// @author Joseph Reed\n/// @dev This contract's goal is to execute recurring tasks completely on-chain. It requires four main components:\n///      1. A source for on chain alarms. This contract uses the Ethereum Alarm Clock (eac)\n///      2. A payment delegate with this alarm scheduled and permitted to pull funds for each alarm\n///      3. A funded delegated wallet with the payment delegate set as a delegate\n///      4. A recurring task to execute\ncontract RecurringAlarmClock is IRecurringAlarmClock {\n\n    using BokkyPooBahsDateTimeLibrary for uint;\n    \n    address public factory;             // The factory that deployed this contract\n    uint public blockInitialized;       // The block the alarm clock was initialized\n    uint public BASE_GAS_COST;          // The minimum amount of gas it takes to run the alarm clock not including the triggered task.\n\n    // Payment Options\n    IDelegatedWallet public wallet;     // The address which owns the alarm and collects any leftover funds\n    IPaymentDelegate public delegate;   // The delegate that pulls funds for each alarm\n    IGasPriceOracle public gasPrice;    // The fetches the current or future gas price of the network\n    \n    // Ethereum Alarm Clock Options\n    RequestFactoryInterface public EAC; // Interface provided by the Ethereum Alarm Clock\n    address public priorityCaller;      // The priority recipient of part of the alarm deposit\n    uint[3] public limits;              // The execution limits used when calling the alarm\n    uint public alarmStart;             // The start of the execution window for the next alarm\n    uint public windowSize;             // The window of time during which an alarm can be executed\n    \n    // Recurring Alarm Clock Options\n    uint public intervalValue;          // The value of the time unit when calculating the next alarm timestamp\n    uint public intervalUnit;           // The time unit used when calculating the next alarm timestamp: 0 = seconds, 1 = minutes, 2 = hours, 3 = days, 4 = months, 5 = years\n    uint public maxIntervals;           // The number of times this alarm will go off. 0 = infinite\n    uint public currentInterval;        // Keeps track of how many alarms have been called\n\n    // Execution Options\n    address public alarm;       // The next scheduled alarm contract\n    address payable public callAddress; // The address of the task contract\n    bytes public callData;              // The data for the task to execute when the alarm is triggered\n    uint public callValue;              // The amount of ether to send when the task is triggered\n    \n    /// @notice Uses 'initialize()' instead of a constructor to make use of the clone \n    ///         factory at https://github.com/optionality/clone-factory. In general, 'initialize()' should be  \n    ///         called directly following the alarm clock deployment through the use of a factory.\n    /// @param _EAC The Ethereum Alarm Clock smart contract responsible for creating decentralized alarms.\n    /// @param _wallet The funding wallet, change address, and owner of the deployed alarms\n    /// @param _delegate The delegate from which to pull alarm payments\n    function initialize (\n        RequestFactoryInterface _EAC,\n        IDelegatedWallet _wallet,\n        IPaymentDelegate _delegate\n    ) public {\n        require(blockInitialized == 0, \"the lock function can be called only once by the factory\");\n        \n        factory = msg.sender;\n        blockInitialized = block.number;\n        BASE_GAS_COST = 700000;\n\n        EAC = _EAC;\n        wallet = _wallet;\n        delegate = _delegate;\n    }\n\n    /// @param _limits The execution limits applied to each decentralized alarm\n    function setExecutionLimits (uint[3] memory _limits) public onlyDelegates {\n        limits = _limits;\n    }\n\n    /// @param _oracle To do\n    function setGasPriceOracle (IGasPriceOracle _oracle) public onlyDelegates {\n        gasPrice = _oracle;\n    }\n\n    /// @param _priorityCaller To do\n    function setPriorityCaller (address _priorityCaller) public onlyDelegates {\n        priorityCaller = _priorityCaller;\n    }\n\n    function start (\n        address payable _callAddress,\n        bytes memory _callData,\n        uint[7] memory _callOptions\n    ) public onlyDelegates {\n        require(_callAddress != address(0x0));\n        require(_callOptions[2] > now, \"start timestamp cannot be in the past.\");\n        require(_callOptions[3] != 0, \"window size cannot be zero\");\n\n        callAddress = _callAddress;\n        callData = _callData;\n        callValue = _callOptions[0];\n        callGas = _callOptions[1];\n        alarmStart = _callOptions[2];\n        windowSize = _callOptions[3];\n        intervalValue = _callOptions[4];\n        intervalUnit = _callOptions[5];\n        maxIntervals = _callOptions[6];\n        currentInterval = 1;\n\n        scheduleAlarm();\n\n        emit Start_event(_callAddress, _callData, _callOptions);\n    }\n\n    /// @notice The default function collects ether sent by the payment delegate and is also called by\n    ///         each alarm when they are triggered\n    function () external payable {\n        if(msg.value > 0)\n            emit AlarmPaid_event(msg.sender, msg.value);\n        else\n            handleAlarmCall();\n    }\n\n    /// @notice The heart of the recurring alarm clock.\n    ///         1. Check if the caller is the current alarm\n    ///         2. Execute the task\n    ///         3. Reschedule the alarm\n    ///         4. Cleanup\n    function handleAlarmCall () internal {\n        require(msg.sender == alarm, \"only the alarm can trigger the alarm clock\");\n\n        if(callValue != 0) delegate.transfer(address(0x0), address(this), callValue);\n        (bool success, bytes memory result) = callAddress.call.value(callValue).gas(gasleft())(callData);\n        emit Execute_event(alarm, currentInterval, maxIntervals, callAddress, callValue, callData , success, result);\n\n        if(currentInterval < maxIntervals || maxIntervals == 0) {\n                 if(intervalUnit == 0) alarmStart = alarmStart.addSeconds(intervalValue);\n            else if(intervalUnit == 1) alarmStart = alarmStart.addMinutes(intervalValue);\n            else if(intervalUnit == 2) alarmStart = alarmStart.addHours(intervalValue);\n            else if(intervalUnit == 3) alarmStart = alarmStart.addDays(intervalValue);\n            else if(intervalUnit == 4) alarmStart = alarmStart.addMonths(intervalValue);\n            else if(intervalUnit == 5) alarmStart = alarmStart.addYears(intervalValue);\n \n            scheduleAlarm();\n        } else {\n            delete alarm;\n        }\n\n        currentInterval++;\n    }\n\n    /// @notice Schedules a new alarm with the Ethereum Alarm Clock\n    function scheduleAlarm () internal {\n        uint totalGasCost = BASE_GAS_COST + callGas;    // The amount of gas to be sent with the transaction\n        uint currentCost = totalGasCost * gasPrice.future(alarmStart);\n\n        // Pull the necessary funds for the alarm\n        if(currentCost > 0) delegate.transfer(address(0x0), address(this), currentCost); \n        uint endowment = address(this).balance;         // Commit all available ether to the next alarm\n        uint priorityFee = endowment / 100;             // Set one percent aside for the priority caller\n        uint timeBounty = endowment - priorityFee;      // Set the remaining ether aside for the time bounty\n\n        address[3] memory addressOptions = [\n            address(wallet),    // Change from the alarm is sent to this address, also the account that can owns the alarm.\n            priorityCaller,     // The priority fee is sent to the priority caller\n            address(this)       // The contract to call at execution\n        ];\n\n        uint[12] memory uintOptions = [\n            priorityFee,    // A fee that goes to the fee recipient\n            timeBounty,     // The bounty for the account that triggers this alarm\n            limits[0],      // claimWindowSize\n            limits[1],      // freezeintervalDuration\n            limits[2],      // reservedWindowSize\n            2,              // 1 = use block based scheduling, 2 = Use timestamp based scheduling\n            windowSize,     // The size of the execution window\n            alarmStart,     // The start of the execution window\n            totalGasCost,   // The amount of gas to be sent with the transaction\n            0,              // The amount of ether to be sent\n            0,              // The minimum gas price for the alarm when called\n            0               // The required deposit by the claimer\n        ];\n\n        alarm = EAC.createValidatedRequest.value(endowment)(addressOptions, uintOptions, \"\");\n\n        if(alarm != address(0x0))\n            emit ValidRequest_event(alarm);\n        else\n            emit InvalidRequest_event(EAC.validateRequestParams(addressOptions, uintOptions, endowment));\n    }\n\n    function destroy () public onlyDelegates {\n        delegate.unschedule();\n        selfdestruct(address(wallet));\n    }\n\n    modifier onlyDelegates () {\n        require(wallet.isDelegate(msg.sender), \"only a wallet delegate can call this function\");\n        _;\n    }\n    \n    event AlarmPaid_event (address sender, uint amount);\n    event ValidRequest_event (address newAlarm);\n    event InvalidRequest_event (bool[6] params);\n    event Start_event(\n        address callAddress,\n        bytes callData,\n        uint[7] callOptions\n    );    \n    event Execute_event(\n        address alarm,\n        uint currentInterval,\n        uint maxIntervals,\n        address callAddress,\n        uint callValue,\n        bytes callData,\n        bool success,\n        bytes result\n    );\n\n}\n",
  "sourcePath": "/home/joe/Documents/github/everchain-project/recurring-alarm-clock/contracts/RecurringAlarmClock.sol",
  "compiler": {
    "name": "solc",
    "version": "0.5.0+commit.1d4f565a.Emscripten.clang"
  },
  "schemaVersion": "3.0.1",
  "updatedAt": "2019-01-15T02:14:40.687Z",
  "devdoc": {
    "author": "Joseph Reed",
    "details": "This contract's goal is to execute recurring tasks completely on-chain. It requires four main components:      1. A source for on chain alarms. This contract uses the Ethereum Alarm Clock (eac)      2. A payment delegate with this alarm scheduled and permitted to pull funds for each alarm      3. A funded delegated wallet with the payment delegate set as a delegate      4. A recurring task to execute",
    "methods": {
      "initialize(address,address,address)": {
        "params": {
          "_EAC": "The Ethereum Alarm Clock smart contract responsible for creating decentralized alarms.",
          "_delegate": "The delegate from which to pull alarm payments",
          "_wallet": "The funding wallet, change address, and owner of the deployed alarms"
        }
      },
      "setExecutionLimits(uint256[3])": {
        "params": {
          "_limits": "The execution limits applied to each decentralized alarm"
        }
      },
      "setGasPriceOracle(address)": {
        "params": {
          "_oracle": "To do"
        }
      },
      "setPriorityCaller(address)": {
        "params": {
          "_priorityCaller": "To do"
        }
      }
    },
    "title": "RecurringAlarmClock Contract"
  },
  "userdoc": {
    "methods": {
      "initialize(address,address,address)": {
        "notice": "Uses 'initialize()' instead of a constructor to make use of the clone          factory at https://github.com/optionality/clone-factory. In general, 'initialize()' should be           called directly following the alarm clock deployment through the use of a factory."
      }
    }
  }
}