{
  "contractName": "RecurringPaymentFactory",
  "abi": [
    {
      "constant": true,
      "inputs": [],
      "name": "gas",
      "outputs": [
        {
          "name": "",
          "type": "uint256"
        }
      ],
      "payable": false,
      "stateMutability": "view",
      "type": "function"
    },
    {
      "constant": true,
      "inputs": [],
      "name": "owner",
      "outputs": [
        {
          "name": "",
          "type": "address"
        }
      ],
      "payable": false,
      "stateMutability": "view",
      "type": "function"
    },
    {
      "constant": true,
      "inputs": [],
      "name": "wizard",
      "outputs": [
        {
          "name": "",
          "type": "address"
        }
      ],
      "payable": false,
      "stateMutability": "view",
      "type": "function"
    },
    {
      "constant": true,
      "inputs": [],
      "name": "blueprint",
      "outputs": [
        {
          "name": "",
          "type": "address"
        }
      ],
      "payable": false,
      "stateMutability": "view",
      "type": "function"
    },
    {
      "constant": false,
      "inputs": [
        {
          "name": "_newOwner",
          "type": "address"
        }
      ],
      "name": "transferOwnership",
      "outputs": [],
      "payable": false,
      "stateMutability": "nonpayable",
      "type": "function"
    },
    {
      "inputs": [
        {
          "name": "_wizard",
          "type": "address"
        },
        {
          "name": "_blueprint",
          "type": "address"
        },
        {
          "name": "_initialGas",
          "type": "uint256"
        }
      ],
      "payable": false,
      "stateMutability": "nonpayable",
      "type": "constructor"
    },
    {
      "anonymous": false,
      "inputs": [
        {
          "indexed": true,
          "name": "owner",
          "type": "address"
        },
        {
          "indexed": true,
          "name": "delegate",
          "type": "address"
        },
        {
          "indexed": false,
          "name": "recurringPayment",
          "type": "address"
        }
      ],
      "name": "CreatePayment_event",
      "type": "event"
    },
    {
      "anonymous": false,
      "inputs": [
        {
          "indexed": true,
          "name": "target",
          "type": "address"
        },
        {
          "indexed": false,
          "name": "clone",
          "type": "address"
        }
      ],
      "name": "CloneCreated",
      "type": "event"
    },
    {
      "constant": false,
      "inputs": [
        {
          "name": "delegate",
          "type": "address"
        },
        {
          "name": "wallet",
          "type": "address"
        },
        {
          "name": "token",
          "type": "address"
        },
        {
          "name": "recipient",
          "type": "address"
        },
        {
          "name": "paymentAmount",
          "type": "uint256"
        },
        {
          "name": "startTimestamp",
          "type": "uint256"
        },
        {
          "name": "totalPayments",
          "type": "uint256"
        },
        {
          "name": "period",
          "type": "uint256"
        }
      ],
      "name": "createRecurringPayment",
      "outputs": [
        {
          "name": "",
          "type": "address"
        }
      ],
      "payable": false,
      "stateMutability": "nonpayable",
      "type": "function"
    },
    {
      "constant": false,
      "inputs": [
        {
          "name": "newGas",
          "type": "uint256"
        }
      ],
      "name": "setGas",
      "outputs": [],
      "payable": false,
      "stateMutability": "nonpayable",
      "type": "function"
    }
  ],
  "bytecode": "0x608060405234801561001057600080fd5b50604051606080611095833981018060405281019080805190602001909291908051906020019092919080519060200190929190505050336000806101000a81548173ffffffffffffffffffffffffffffffffffffffff021916908373ffffffffffffffffffffffffffffffffffffffff16021790555082600160006101000a81548173ffffffffffffffffffffffffffffffffffffffff021916908373ffffffffffffffffffffffffffffffffffffffff16021790555081600260006101000a81548173ffffffffffffffffffffffffffffffffffffffff021916908373ffffffffffffffffffffffffffffffffffffffff16021790555080600381905550505050610f73806101226000396000f300608060405260043610610083576000357c0100000000000000000000000000000000000000000000000000000000900463ffffffff1680635995b9c3146100885780636ca7c216146101935780638da5cb5b146101be578063aabbbd6514610215578063c05efa151461026c578063dd51faa2146102c3578063f2fde38b146102f0575b600080fd5b34801561009457600080fd5b50610151600480360381019080803573ffffffffffffffffffffffffffffffffffffffff169060200190929190803573ffffffffffffffffffffffffffffffffffffffff169060200190929190803573ffffffffffffffffffffffffffffffffffffffff169060200190929190803573ffffffffffffffffffffffffffffffffffffffff16906020019092919080359060200190929190803590602001909291908035906020019092919080359060200190929190505050610333565b604051808273ffffffffffffffffffffffffffffffffffffffff1673ffffffffffffffffffffffffffffffffffffffff16815260200191505060405180910390f35b34801561019f57600080fd5b506101a8610cb1565b6040518082815260200191505060405180910390f35b3480156101ca57600080fd5b506101d3610cb7565b604051808273ffffffffffffffffffffffffffffffffffffffff1673ffffffffffffffffffffffffffffffffffffffff16815260200191505060405180910390f35b34801561022157600080fd5b5061022a610cdc565b604051808273ffffffffffffffffffffffffffffffffffffffff1673ffffffffffffffffffffffffffffffffffffffff16815260200191505060405180910390f35b34801561027857600080fd5b50610281610d02565b604051808273ffffffffffffffffffffffffffffffffffffffff1673ffffffffffffffffffffffffffffffffffffffff16815260200191505060405180910390f35b3480156102cf57600080fd5b506102ee60048036038101908080359060200190929190505050610d28565b005b3480156102fc57600080fd5b50610331600480360381019080803573ffffffffffffffffffffffffffffffffffffffff169060200190929190505050610d8d565b005b60008060008973ffffffffffffffffffffffffffffffffffffffff1663077796278c6040518263ffffffff167c0100000000000000000000000000000000000000000000000000000000028152600401808273ffffffffffffffffffffffffffffffffffffffff1673ffffffffffffffffffffffffffffffffffffffff168152602001915050602060405180830381600087803b1580156103d357600080fd5b505af11580156103e7573d6000803e3d6000fd5b505050506040513d60208110156103fd57600080fd5b810190808051906020019092919050505015156104ce576040517f08c379a00000000000000000000000000000000000000000000000000000000081526004018080602001828103825260418152602001807f667574757265207061796d656e742064656c6567617465206973206e6f74206181526020017f2064656c656761746520666f72207468652070726f76696465642077616c6c6581526020017f740000000000000000000000000000000000000000000000000000000000000081525060600191505060405180910390fd5b8973ffffffffffffffffffffffffffffffffffffffff166307779627336040518263ffffffff167c0100000000000000000000000000000000000000000000000000000000028152600401808273ffffffffffffffffffffffffffffffffffffffff1673ffffffffffffffffffffffffffffffffffffffff168152602001915050602060405180830381600087803b15801561056957600080fd5b505af115801561057d573d6000803e3d6000fd5b505050506040513d602081101561059357600080fd5b8101908080519060200190929190505050151561063e576040517f08c379a00000000000000000000000000000000000000000000000000000000081526004018080602001828103825260348152602001807f6d73672e73656e646572206973206e6f7420612064656c656761746520666f7281526020017f207468652070726f76696465642077616c6c657400000000000000000000000081525060400191505060405180910390fd5b610669600260009054906101000a900473ffffffffffffffffffffffffffffffffffffffff16610e2b565b9150600160009054906101000a900473ffffffffffffffffffffffffffffffffffffffff1673ffffffffffffffffffffffffffffffffffffffff1663ea7dca3d8c8c8989896003546040518763ffffffff167c0100000000000000000000000000000000000000000000000000000000028152600401808773ffffffffffffffffffffffffffffffffffffffff1673ffffffffffffffffffffffffffffffffffffffff1681526020018673ffffffffffffffffffffffffffffffffffffffff1673ffffffffffffffffffffffffffffffffffffffff1681526020018581526020018481526020018381526020018281526020019650505050505050602060405180830381600087803b15801561077e57600080fd5b505af1158015610792573d6000803e3d6000fd5b505050506040513d60208110156107a857600080fd5b810190808051906020019092919050505090508173ffffffffffffffffffffffffffffffffffffffff166395b6ef0c828d8d8d8d8d6040518763ffffffff167c0100000000000000000000000000000000000000000000000000000000028152600401808773ffffffffffffffffffffffffffffffffffffffff1673ffffffffffffffffffffffffffffffffffffffff1681526020018673ffffffffffffffffffffffffffffffffffffffff1673ffffffffffffffffffffffffffffffffffffffff1681526020018573ffffffffffffffffffffffffffffffffffffffff1673ffffffffffffffffffffffffffffffffffffffff1681526020018473ffffffffffffffffffffffffffffffffffffffff1673ffffffffffffffffffffffffffffffffffffffff1681526020018373ffffffffffffffffffffffffffffffffffffffff1673ffffffffffffffffffffffffffffffffffffffff1681526020018281526020019650505050505050600060405180830381600087803b15801561092e57600080fd5b505af1158015610942573d6000803e3d6000fd5b505050508a73ffffffffffffffffffffffffffffffffffffffff16632b65849c828c6040518363ffffffff167c0100000000000000000000000000000000000000000000000000000000028152600401808373ffffffffffffffffffffffffffffffffffffffff1673ffffffffffffffffffffffffffffffffffffffff1681526020018273ffffffffffffffffffffffffffffffffffffffff1673ffffffffffffffffffffffffffffffffffffffff16815260200192505050602060405180830381600087803b158015610a1557600080fd5b505af1158015610a29573d6000803e3d6000fd5b505050506040513d6020811015610a3f57600080fd5b8101908080519060200190929190505050508a73ffffffffffffffffffffffffffffffffffffffff16632b65849c838c6040518363ffffffff167c0100000000000000000000000000000000000000000000000000000000028152600401808373ffffffffffffffffffffffffffffffffffffffff1673ffffffffffffffffffffffffffffffffffffffff1681526020018273ffffffffffffffffffffffffffffffffffffffff1673ffffffffffffffffffffffffffffffffffffffff16815260200192505050602060405180830381600087803b158015610b2057600080fd5b505af1158015610b34573d6000803e3d6000fd5b505050506040513d6020811015610b4a57600080fd5b8101908080519060200190929190505050508073ffffffffffffffffffffffffffffffffffffffff1663dd0b281e836040518263ffffffff167c0100000000000000000000000000000000000000000000000000000000028152600401808273ffffffffffffffffffffffffffffffffffffffff1673ffffffffffffffffffffffffffffffffffffffff168152602001915050600060405180830381600087803b158015610bf757600080fd5b505af1158015610c0b573d6000803e3d6000fd5b505050508a73ffffffffffffffffffffffffffffffffffffffff163373ffffffffffffffffffffffffffffffffffffffff167f7e409b33686e856fa9065fe6f4db4c9f2b3a486181255d765d684879801c878e84604051808273ffffffffffffffffffffffffffffffffffffffff1673ffffffffffffffffffffffffffffffffffffffff16815260200191505060405180910390a3819250505098975050505050505050565b60035481565b6000809054906101000a900473ffffffffffffffffffffffffffffffffffffffff1681565b600160009054906101000a900473ffffffffffffffffffffffffffffffffffffffff1681565b600260009054906101000a900473ffffffffffffffffffffffffffffffffffffffff1681565b6000809054906101000a900473ffffffffffffffffffffffffffffffffffffffff1673ffffffffffffffffffffffffffffffffffffffff163373ffffffffffffffffffffffffffffffffffffffff16141515610d8357600080fd5b8060038190555050565b6000809054906101000a900473ffffffffffffffffffffffffffffffffffffffff1673ffffffffffffffffffffffffffffffffffffffff163373ffffffffffffffffffffffffffffffffffffffff16141515610de857600080fd5b806000806101000a81548173ffffffffffffffffffffffffffffffffffffffff021916908373ffffffffffffffffffffffffffffffffffffffff16021790555050565b60006060600080606060405190810160405280603f81526020017f600034603b57603080600f833981f36000368180378080368173bebebebebebe81526020017fbebebebebebebebebebebebebebe5af43d82803e15602c573d90f35b3d90fd008152509250846c01000000000000000000000000029150600090505b6014811015610f30578181601481101515610ebf57fe5b1a7f0100000000000000000000000000000000000000000000000000000000000000028382601a01815181101515610ef357fe5b9060200101907effffffffffffffffffffffffffffffffffffffffffffffffffffffffffffff1916908160001a9053508080600101915050610ea8565b82516020840181816000f0955050505050509190505600a165627a7a723058203d3036a4b3e9b776353cff36609080cba3153299d4922c8701d9d2bcc9a59be10029",
  "source": "pragma solidity ^0.4.23;\r\n\r\nimport \"../../external/Owned.sol\";\r\nimport \"../../Interfaces.sol\";\r\nimport \"../../RecurringAlarmClockWizard.sol\";\r\nimport \"./RecurringPayment.sol\";\r\n\r\ncontract RecurringPaymentFactory is Owned, CloneFactory {\r\n\r\n    RecurringAlarmClockWizard public wizard;\r\n    RecurringPayment public blueprint;\r\n\r\n    uint public gas;\r\n\r\n    constructor (\r\n        RecurringAlarmClockWizard _wizard,\r\n        RecurringPayment _blueprint,\r\n        uint _initialGas\r\n    ) public {\r\n        wizard = _wizard;\r\n        blueprint = _blueprint;\r\n        gas = _initialGas;\r\n    }\r\n\r\n    function createRecurringPayment (\r\n        IFuturePaymentDelegate delegate,\r\n        IDelegatedWallet wallet,\r\n        address token,\r\n        address recipient,\r\n        uint paymentAmount,\r\n        uint startTimestamp,\r\n        uint totalPayments,\r\n        uint period\r\n    ) public returns (RecurringPayment) {\r\n        require(wallet.isDelegate(delegate), \"future payment delegate is not a delegate for the provided wallet\");\r\n        require(wallet.isDelegate(msg.sender), \"msg.sender is not a delegate for the provided wallet\");\r\n        \r\n        RecurringPayment paymentTask = RecurringPayment(createClone(blueprint));\r\n\r\n        RecurringAlarmClock alarmClock = wizard.createRecurringAlarmClock(\r\n            delegate,\r\n            wallet,\r\n            startTimestamp,\r\n            totalPayments,\r\n            period,\r\n            gas\r\n        );\r\n        \r\n        paymentTask.initialize(\r\n            alarmClock,     // the owner of the recurring payment\r\n            delegate,       // the wallet that executes the payment\r\n            wallet,         // supplies delegates that can cancel the task\r\n            token,          // the token to use when making a payment\r\n            recipient,      // the recipient of the payment\r\n            paymentAmount   // how much of the token to send each payment\r\n        );\r\n\r\n        delegate.schedule(alarmClock, wallet);\r\n        delegate.schedule(paymentTask, wallet);\r\n        \r\n        alarmClock.start(paymentTask);\r\n        \r\n        emit CreatePayment_event(msg.sender, delegate, paymentTask);\r\n        \r\n        return paymentTask;\r\n    }\r\n\r\n    function setGas (uint newGas) public onlyOwner {\r\n        gas = newGas;\r\n    }\r\n\r\n    event CreatePayment_event (\r\n        address indexed owner,\r\n        IFuturePaymentDelegate indexed delegate,\r\n        RecurringPayment recurringPayment\r\n    );\r\n    \r\n}\r\n",
  "sourcePath": "C:\\Users\\My\\Documents\\GitHub\\everchain-project\\recurring-alarm-clock\\contracts\\examples\\recurring-payment\\RecurringPaymentFactory.sol",
  "compiler": {
    "name": "solc",
    "version": "0.4.24+commit.e67f0147.Emscripten.clang"
  },
  "schemaVersion": "2.0.1",
  "updatedAt": "2018-10-01T21:52:35.005Z"
}