{
  "contractName": "RecurringAlarmClock",
  "abi": [
    {
      "constant": true,
      "inputs": [],
      "name": "priorityCaller",
      "outputs": [
        {
          "name": "",
          "type": "address"
        }
      ],
      "payable": false,
      "stateMutability": "view",
      "type": "function"
    },
    {
      "constant": true,
      "inputs": [],
      "name": "intervalDuration",
      "outputs": [
        {
          "name": "",
          "type": "uint256"
        }
      ],
      "payable": false,
      "stateMutability": "view",
      "type": "function"
    },
    {
      "constant": true,
      "inputs": [],
      "name": "task",
      "outputs": [
        {
          "name": "",
          "type": "address"
        }
      ],
      "payable": false,
      "stateMutability": "view",
      "type": "function"
    },
    {
      "constant": true,
      "inputs": [],
      "name": "currentInterval",
      "outputs": [
        {
          "name": "",
          "type": "uint256"
        }
      ],
      "payable": false,
      "stateMutability": "view",
      "type": "function"
    },
    {
      "constant": true,
      "inputs": [],
      "name": "maxGasPrice",
      "outputs": [
        {
          "name": "",
          "type": "uint256"
        }
      ],
      "payable": false,
      "stateMutability": "view",
      "type": "function"
    },
    {
      "constant": true,
      "inputs": [
        {
          "name": "",
          "type": "uint256"
        }
      ],
      "name": "eacOptions",
      "outputs": [
        {
          "name": "",
          "type": "uint256"
        }
      ],
      "payable": false,
      "stateMutability": "view",
      "type": "function"
    },
    {
      "constant": true,
      "inputs": [],
      "name": "eac",
      "outputs": [
        {
          "name": "",
          "type": "address"
        }
      ],
      "payable": false,
      "stateMutability": "view",
      "type": "function"
    },
    {
      "constant": true,
      "inputs": [],
      "name": "callData",
      "outputs": [
        {
          "name": "",
          "type": "bytes"
        }
      ],
      "payable": false,
      "stateMutability": "view",
      "type": "function"
    },
    {
      "constant": true,
      "inputs": [],
      "name": "blockCreated",
      "outputs": [
        {
          "name": "",
          "type": "uint256"
        }
      ],
      "payable": false,
      "stateMutability": "view",
      "type": "function"
    },
    {
      "constant": true,
      "inputs": [],
      "name": "wallet",
      "outputs": [
        {
          "name": "",
          "type": "address"
        }
      ],
      "payable": false,
      "stateMutability": "view",
      "type": "function"
    },
    {
      "constant": true,
      "inputs": [],
      "name": "recipient",
      "outputs": [
        {
          "name": "",
          "type": "address"
        }
      ],
      "payable": false,
      "stateMutability": "view",
      "type": "function"
    },
    {
      "constant": true,
      "inputs": [],
      "name": "maximumIntervals",
      "outputs": [
        {
          "name": "",
          "type": "uint256"
        }
      ],
      "payable": false,
      "stateMutability": "view",
      "type": "function"
    },
    {
      "constant": true,
      "inputs": [],
      "name": "executor",
      "outputs": [
        {
          "name": "",
          "type": "address"
        }
      ],
      "payable": false,
      "stateMutability": "view",
      "type": "function"
    },
    {
      "constant": true,
      "inputs": [],
      "name": "factory",
      "outputs": [
        {
          "name": "",
          "type": "address"
        }
      ],
      "payable": false,
      "stateMutability": "view",
      "type": "function"
    },
    {
      "constant": true,
      "inputs": [],
      "name": "delegate",
      "outputs": [
        {
          "name": "",
          "type": "address"
        }
      ],
      "payable": false,
      "stateMutability": "view",
      "type": "function"
    },
    {
      "constant": true,
      "inputs": [],
      "name": "safetyMultiplier",
      "outputs": [
        {
          "name": "",
          "type": "uint256"
        }
      ],
      "payable": false,
      "stateMutability": "view",
      "type": "function"
    },
    {
      "constant": true,
      "inputs": [],
      "name": "token",
      "outputs": [
        {
          "name": "",
          "type": "address"
        }
      ],
      "payable": false,
      "stateMutability": "view",
      "type": "function"
    },
    {
      "payable": true,
      "stateMutability": "payable",
      "type": "fallback"
    },
    {
      "anonymous": false,
      "inputs": [
        {
          "indexed": true,
          "name": "currentInterval",
          "type": "uint256"
        },
        {
          "indexed": false,
          "name": "success",
          "type": "bool"
        }
      ],
      "name": "Execute_event",
      "type": "event"
    },
    {
      "anonymous": false,
      "inputs": [
        {
          "indexed": true,
          "name": "sender",
          "type": "address"
        },
        {
          "indexed": false,
          "name": "amount",
          "type": "uint256"
        }
      ],
      "name": "Deposit_event",
      "type": "event"
    },
    {
      "anonymous": false,
      "inputs": [
        {
          "indexed": true,
          "name": "sender",
          "type": "address"
        },
        {
          "indexed": false,
          "name": "alarm",
          "type": "address"
        }
      ],
      "name": "ValidRequest_event",
      "type": "event"
    },
    {
      "anonymous": false,
      "inputs": [
        {
          "indexed": false,
          "name": "params",
          "type": "bool[6]"
        }
      ],
      "name": "InvalidRequest_event",
      "type": "event"
    },
    {
      "constant": false,
      "inputs": [
        {
          "name": "_eac",
          "type": "address"
        },
        {
          "name": "_delegate",
          "type": "address"
        },
        {
          "name": "_wallet",
          "type": "address"
        },
        {
          "name": "_priorityCaller",
          "type": "address"
        },
        {
          "name": "_callData",
          "type": "bytes"
        },
        {
          "name": "_recurringAlarmClockOptions",
          "type": "uint256[3]"
        },
        {
          "name": "_ethereumAlarmClockOptions",
          "type": "uint256[10]"
        }
      ],
      "name": "initialize",
      "outputs": [],
      "payable": false,
      "stateMutability": "nonpayable",
      "type": "function"
    },
    {
      "constant": false,
      "inputs": [
        {
          "name": "_task",
          "type": "address"
        }
      ],
      "name": "start",
      "outputs": [],
      "payable": false,
      "stateMutability": "nonpayable",
      "type": "function"
    },
    {
      "constant": true,
      "inputs": [],
      "name": "amount",
      "outputs": [
        {
          "name": "",
          "type": "uint256"
        }
      ],
      "payable": false,
      "stateMutability": "view",
      "type": "function"
    },
    {
      "constant": false,
      "inputs": [],
      "name": "cancel",
      "outputs": [],
      "payable": false,
      "stateMutability": "nonpayable",
      "type": "function"
    }
  ],
  "bytecode": "0x608060405234801561001057600080fd5b50611c31806100206000396000f30060806040526004361061011d576000357c0100000000000000000000000000000000000000000000000000000000900463ffffffff1680631fd3ea52146101845780633076dc42146101db5780633283f64114610206578063363487bc1461025d5780633de39c1114610288578063440c44eb146102b357806349ef8763146102f45780634e417a981461034b5780634e989a4c146103db578063521eb2731461040657806366d003ac1461045d57806393f358d8146104b4578063aa8c217c146104df578063b94d3da01461050a578063c34c08e514610652578063c45a0155146106a9578063c89e436114610700578063d57f1d9b14610757578063dd0b281e14610782578063ea8a1af0146107c5578063fc0c546a146107dc575b60003414156101335761012e610833565b610182565b3373ffffffffffffffffffffffffffffffffffffffff167f13d8b731cfddb1e8d6d230a4f64afe94251cf4c4fa93e730ebda89a63f8baa21346040518082815260200191505060405180910390a25b005b34801561019057600080fd5b50610199610b90565b604051808273ffffffffffffffffffffffffffffffffffffffff1673ffffffffffffffffffffffffffffffffffffffff16815260200191505060405180910390f35b3480156101e757600080fd5b506101f0610bb6565b6040518082815260200191505060405180910390f35b34801561021257600080fd5b5061021b610bbc565b604051808273ffffffffffffffffffffffffffffffffffffffff1673ffffffffffffffffffffffffffffffffffffffff16815260200191505060405180910390f35b34801561026957600080fd5b50610272610be2565b6040518082815260200191505060405180910390f35b34801561029457600080fd5b5061029d610be8565b6040518082815260200191505060405180910390f35b3480156102bf57600080fd5b506102de60048036038101908080359060200190929190505050610bee565b6040518082815260200191505060405180910390f35b34801561030057600080fd5b50610309610c08565b604051808273ffffffffffffffffffffffffffffffffffffffff1673ffffffffffffffffffffffffffffffffffffffff16815260200191505060405180910390f35b34801561035757600080fd5b50610360610c2e565b6040518080602001828103825283818151815260200191508051906020019080838360005b838110156103a0578082015181840152602081019050610385565b50505050905090810190601f1680156103cd5780820380516001836020036101000a031916815260200191505b509250505060405180910390f35b3480156103e757600080fd5b506103f0610ccc565b6040518082815260200191505060405180910390f35b34801561041257600080fd5b5061041b610cd2565b604051808273ffffffffffffffffffffffffffffffffffffffff1673ffffffffffffffffffffffffffffffffffffffff16815260200191505060405180910390f35b34801561046957600080fd5b50610472610cf8565b604051808273ffffffffffffffffffffffffffffffffffffffff1673ffffffffffffffffffffffffffffffffffffffff16815260200191505060405180910390f35b3480156104c057600080fd5b506104c9610d1e565b6040518082815260200191505060405180910390f35b3480156104eb57600080fd5b506104f4610d24565b6040518082815260200191505060405180910390f35b34801561051657600080fd5b50610650600480360381019080803573ffffffffffffffffffffffffffffffffffffffff169060200190929190803573ffffffffffffffffffffffffffffffffffffffff169060200190929190803573ffffffffffffffffffffffffffffffffffffffff169060200190929190803573ffffffffffffffffffffffffffffffffffffffff169060200190929190803590602001908201803590602001908080601f01602080910402602001604051908101604052809392919081815260200183838082843782019150505050505091929192908060600190600380602002604051908101604052809291908260036020028082843782019150505050509192919290806101400190600a806020026040519081016040528092919082600a6020028082843782019150505050509192919290505050610d4a565b005b34801561065e57600080fd5b50610667611044565b604051808273ffffffffffffffffffffffffffffffffffffffff1673ffffffffffffffffffffffffffffffffffffffff16815260200191505060405180910390f35b3480156106b557600080fd5b506106be61106a565b604051808273ffffffffffffffffffffffffffffffffffffffff1673ffffffffffffffffffffffffffffffffffffffff16815260200191505060405180910390f35b34801561070c57600080fd5b50610715611090565b604051808273ffffffffffffffffffffffffffffffffffffffff1673ffffffffffffffffffffffffffffffffffffffff16815260200191505060405180910390f35b34801561076357600080fd5b5061076c6110b6565b6040518082815260200191505060405180910390f35b34801561078e57600080fd5b506107c3600480360381019080803573ffffffffffffffffffffffffffffffffffffffff1690602001909291905050506110bc565b005b3480156107d157600080fd5b506107da61123c565b005b3480156107e857600080fd5b506107f16113a1565b604051808273ffffffffffffffffffffffffffffffffffffffff1673ffffffffffffffffffffffffffffffffffffffff16815260200191505060405180910390f35b6000601260009054906101000a900473ffffffffffffffffffffffffffffffffffffffff1673ffffffffffffffffffffffffffffffffffffffff163373ffffffffffffffffffffffffffffffffffffffff16141515610920576040517f08c379a00000000000000000000000000000000000000000000000000000000081526004018080602001828103825260388152602001807f6f6e6c7920746865206578656375746f722073686f756c642062652061626c6581526020017f20746f2068616e646c6520616e20616c61726d2063616c6c000000000000000081525060400191505060405180910390fd5b6000601260006101000a81548173ffffffffffffffffffffffffffffffffffffffff021916908373ffffffffffffffffffffffffffffffffffffffff160217905550600b60009054906101000a900473ffffffffffffffffffffffffffffffffffffffff1673ffffffffffffffffffffffffffffffffffffffff165a60136040518082805460018160011615610100020316600290048015610a035780601f106109d857610100808354040283529160200191610a03565b820191906000526020600020905b8154815290600101906020018083116109e657829003601f168201915b505091505060006040518083038160008787f19250505090506021547f577176a7851c8520b78fcc0bf15980a9640dbf05caf66ea36d24cac42489aecc82604051808215151515815260200191505060405180910390a26020546021541015610b8d57602160008154809291906001019190505550601f5460146005600a81101515610a8b57fe5b0160008282540192505081905550610aa16113c7565b601260006101000a81548173ffffffffffffffffffffffffffffffffffffffff021916908373ffffffffffffffffffffffffffffffffffffffff1602179055506020546021541415610b8c57600d60009054906101000a900473ffffffffffffffffffffffffffffffffffffffff1673ffffffffffffffffffffffffffffffffffffffff1663daf1548c6040518163ffffffff167c0100000000000000000000000000000000000000000000000000000000028152600401600060405180830381600087803b158015610b7357600080fd5b505af1158015610b87573d6000803e3d6000fd5b505050505b5b50565b601160009054906101000a900473ffffffffffffffffffffffffffffffffffffffff1681565b601f5481565b600b60009054906101000a900473ffffffffffffffffffffffffffffffffffffffff1681565b60215481565b60225481565b601481600a81101515610bfd57fe5b016000915090505481565b600c60009054906101000a900473ffffffffffffffffffffffffffffffffffffffff1681565b60138054600181600116156101000203166002900480601f016020809104026020016040519081016040528092919081815260200182805460018160011615610100020316600290048015610cc45780601f10610c9957610100808354040283529160200191610cc4565b820191906000526020600020905b815481529060010190602001808311610ca757829003601f168201915b505050505081565b60095481565b600e60009054906101000a900473ffffffffffffffffffffffffffffffffffffffff1681565b601060009054906101000a900473ffffffffffffffffffffffffffffffffffffffff1681565b60205481565b60008060146006600a81101515610d3757fe5b01549050601e5481602254020291505090565b6000600954141515610dea576040517f08c379a00000000000000000000000000000000000000000000000000000000081526004018080602001828103825260258152602001807f636f6e74726163742063616e206f6e6c7920626520696e697469616c697a656481526020017f206f6e636500000000000000000000000000000000000000000000000000000081525060400191505060405180910390fd5b4360098190555033600a60006101000a81548173ffffffffffffffffffffffffffffffffffffffff021916908373ffffffffffffffffffffffffffffffffffffffff160217905550633b9aca0060228190555086600c60006101000a81548173ffffffffffffffffffffffffffffffffffffffff021916908373ffffffffffffffffffffffffffffffffffffffff16021790555085600d60006101000a81548173ffffffffffffffffffffffffffffffffffffffff021916908373ffffffffffffffffffffffffffffffffffffffff16021790555084600e60006101000a81548173ffffffffffffffffffffffffffffffffffffffff021916908373ffffffffffffffffffffffffffffffffffffffff1602179055506000600f60006101000a81548173ffffffffffffffffffffffffffffffffffffffff021916908373ffffffffffffffffffffffffffffffffffffffff16021790555030601060006101000a81548173ffffffffffffffffffffffffffffffffffffffff021916908373ffffffffffffffffffffffffffffffffffffffff16021790555083601160006101000a81548173ffffffffffffffffffffffffffffffffffffffff021916908373ffffffffffffffffffffffffffffffffffffffff1602179055508260139080519060200190610fda929190611ab6565b5080601490600a610fec929190611b36565b50816000600381101515610ffc57fe5b6020020151601e8190555081600160038110151561101657fe5b6020020151601f8190555081600260038110151561103057fe5b602002015160208190555050505050505050565b601260009054906101000a900473ffffffffffffffffffffffffffffffffffffffff1681565b600a60009054906101000a900473ffffffffffffffffffffffffffffffffffffffff1681565b600d60009054906101000a900473ffffffffffffffffffffffffffffffffffffffff1681565b601e5481565b600073ffffffffffffffffffffffffffffffffffffffff16600b60009054906101000a900473ffffffffffffffffffffffffffffffffffffffff1673ffffffffffffffffffffffffffffffffffffffff161415156111a8576040517f08c379a00000000000000000000000000000000000000000000000000000000081526004018080602001828103825260248152602001807f7461736b206d757374206e6f742062652073657420746f20737461727420612081526020017f7461736b0000000000000000000000000000000000000000000000000000000081525060400191505060405180910390fd5b600160218190555080600b60006101000a81548173ffffffffffffffffffffffffffffffffffffffff021916908373ffffffffffffffffffffffffffffffffffffffff1602179055506111f96113c7565b601260006101000a81548173ffffffffffffffffffffffffffffffffffffffff021916908373ffffffffffffffffffffffffffffffffffffffff16021790555050565b600b60009054906101000a900473ffffffffffffffffffffffffffffffffffffffff1673ffffffffffffffffffffffffffffffffffffffff163373ffffffffffffffffffffffffffffffffffffffff16141515611301576040517f08c379a00000000000000000000000000000000000000000000000000000000081526004018080602001828103825260208152602001807f6d73672e73656e646572206973206e6f742074686520616c61726d207461736b81525060200191505060405180910390fd5b600d60009054906101000a900473ffffffffffffffffffffffffffffffffffffffff1673ffffffffffffffffffffffffffffffffffffffff1663daf1548c6040518163ffffffff167c0100000000000000000000000000000000000000000000000000000000028152600401600060405180830381600087803b15801561138757600080fd5b505af115801561139b573d6000803e3d6000fd5b50505050565b600f60009054906101000a900473ffffffffffffffffffffffffffffffffffffffff1681565b6000806000806113d5611b76565b6113dd611b99565b6113e5611bbd565b600d60009054906101000a900473ffffffffffffffffffffffffffffffffffffffff1673ffffffffffffffffffffffffffffffffffffffff1663614619546040518163ffffffff167c0100000000000000000000000000000000000000000000000000000000028152600401602060405180830381600087803b15801561146b57600080fd5b505af115801561147f573d6000803e3d6000fd5b505050506040513d602081101561149557600080fd5b8101908080519060200190929190505050503073ffffffffffffffffffffffffffffffffffffffff163195506064868115156114cd57fe5b0494508486039350606060405190810160405280600e60009054906101000a900473ffffffffffffffffffffffffffffffffffffffff1673ffffffffffffffffffffffffffffffffffffffff1673ffffffffffffffffffffffffffffffffffffffff168152602001601160009054906101000a900473ffffffffffffffffffffffffffffffffffffffff1673ffffffffffffffffffffffffffffffffffffffff1673ffffffffffffffffffffffffffffffffffffffff1681526020013073ffffffffffffffffffffffffffffffffffffffff1673ffffffffffffffffffffffffffffffffffffffff1681525092506101806040519081016040528086815260200185815260200160146000600a811015156115e457fe5b0154815260200160146001600a811015156115fb57fe5b0154815260200160146002600a8110151561161257fe5b0154815260200160146003600a8110151561162957fe5b0154815260200160146004600a8110151561164057fe5b0154815260200160146005600a8110151561165757fe5b0154815260200160146006600a8110151561166e57fe5b0154815260200160146007600a8110151561168557fe5b0154815260200160146008600a8110151561169c57fe5b0154815260200160146009600a811015156116b357fe5b01548152509150600c60009054906101000a900473ffffffffffffffffffffffffffffffffffffffff1673ffffffffffffffffffffffffffffffffffffffff16631e35ff058484896040518463ffffffff167c01000000000000000000000000000000000000000000000000000000000281526004018084600360200280838360005b83811015611751578082015181840152602081019050611736565b5050505090500183600c60200280838360005b8381101561177f578082015181840152602081019050611764565b50505050905001828152602001935050505060c060405180830381600087803b1580156117ab57600080fd5b505af11580156117bf573d6000803e3d6000fd5b505050506040513d601f19601f8201168201806040525060c08110156117e457600080fd5b810190809190505090508060006006811015156117fd57fe5b6020020151801561181e575080600160068110151561181857fe5b60200201515b801561183a575080600260068110151561183457fe5b60200201515b8015611856575080600360068110151561185057fe5b60200201515b8015611872575080600460068110151561186c57fe5b60200201515b801561188e575080600560068110151561188857fe5b60200201515b15611a4d57600c60009054906101000a900473ffffffffffffffffffffffffffffffffffffffff1673ffffffffffffffffffffffffffffffffffffffff1663d7ceab4c8785856040518463ffffffff167c01000000000000000000000000000000000000000000000000000000000281526004018083600360200280838360005b8381101561192a57808201518184015260208101905061190f565b5050505090500182600c60200280838360005b8381101561195857808201518184015260208101905061193d565b505050509050018060200182810382526000815260200160200193505050506020604051808303818588803b15801561199057600080fd5b505af11580156119a4573d6000803e3d6000fd5b50505050506040513d60208110156119bb57600080fd5b810190808051906020019092919050505096503373ffffffffffffffffffffffffffffffffffffffff167f673bacbd542d3e65fd90fc7fc8631e3a9bdc4ae4ffad940781805f85596c172188604051808273ffffffffffffffffffffffffffffffffffffffff1673ffffffffffffffffffffffffffffffffffffffff16815260200191505060405180910390a2611aad565b7febec2a47d1b8a4f2300d8b1a3f76af4035584f4667e3a47730f7c47eeb4675af816040518082600660200280838360005b83811015611a9a578082015181840152602081019050611a7f565b5050505090500191505060405180910390a15b50505050505090565b828054600181600116156101000203166002900490600052602060002090601f016020900481019282601f10611af757805160ff1916838001178555611b25565b82800160010185558215611b25579182015b82811115611b24578251825591602001919060010190611b09565b5b509050611b329190611be0565b5090565b82600a8101928215611b65579160200282015b82811115611b64578251825591602001919060010190611b49565b5b509050611b729190611be0565b5090565b606060405190810160405280600390602082028038833980820191505090505090565b61018060405190810160405280600c90602082028038833980820191505090505090565b60c060405190810160405280600690602082028038833980820191505090505090565b611c0291905b80821115611bfe576000816000905550600101611be6565b5090565b905600a165627a7a723058208bcd0c5a0ca85f79318464b845239c8efbc1fa043dd24e1cbbba40d34d52737e0029",
  "source": "pragma solidity ^0.4.23;\r\n\r\nimport \"../../external/RequestFactoryInterface.sol\";\r\nimport \"../../Interfaces.sol\";\r\n\r\ncontract RecurringAlarmClock is IRecurringAlarmClock {\r\n\r\n    address constant ETHER = address(0x0);\r\n\r\n    uint public blockCreated;               // The block the alarm clock was started\r\n    address public factory;                 // The factory that created this contract\r\n\r\n    ITask public task;                      // The address of the task contract\r\n    RequestFactoryInterface public eac;     // Interface provided by the Ethereum Alarm Clock\r\n    IPaymentDelegate public delegate;       // The delegate that pulls funds for each alarm\r\n    IDelegatedWallet public wallet;         // The address which owns the alarm and collects any leftover funds\r\n    address public token;                   // The token to pull when funding an alarm. default of 0x0 represents native ether\r\n    address public recipient;               // The recipient to send pulled funds to. set to 'this' at initialization\r\n    address public priorityCaller;          // The priority recipient of part of the alarm deposit\r\n    address public executor;                // The next scheduled alarm contract\r\n    \r\n    bytes public callData;                  // The data for the task to execute when the alarm is triggered\r\n\r\n    uint[10] public eacOptions;             // The options used when setting an alarm using the Ethereum Alarm Clock\r\n    uint public safetyMultiplier;           // The multiplier to use when calculating the alarm cost\r\n    uint public intervalDuration;           // The amount of time between each alarm\r\n    uint public maximumIntervals;           // The number of times this alarm will go off\r\n    uint public currentInterval;            // Keeps track of how many alarms have been called\r\n    uint public maxGasPrice;                // placeholder for a gas price oracle\r\n\r\n    function initialize (\r\n        RequestFactoryInterface _eac,\r\n        IPaymentDelegate _delegate,\r\n        IDelegatedWallet _wallet,\r\n        address _priorityCaller,\r\n        bytes _callData,\r\n        uint[3] _recurringAlarmClockOptions,\r\n        uint[10] _ethereumAlarmClockOptions\r\n    ) public {\r\n        require(blockCreated == 0, \"contract can only be initialized once\");\r\n\r\n        blockCreated = block.number;\r\n        factory = msg.sender;\r\n        maxGasPrice = 1000000000;\r\n\r\n        eac = _eac;\r\n        delegate = _delegate;\r\n        wallet = _wallet;\r\n        token = address(0x0);\r\n        recipient = this;\r\n        priorityCaller = _priorityCaller;\r\n\r\n        callData = _callData;\r\n\r\n        eacOptions = _ethereumAlarmClockOptions;\r\n        safetyMultiplier = _recurringAlarmClockOptions[0];\r\n        intervalDuration = _recurringAlarmClockOptions[1];\r\n        maximumIntervals = _recurringAlarmClockOptions[2];\r\n    }\r\n\r\n    function start (ITask _task) public {\r\n        require(task == address(0x0), \"task must not be set to start a task\");\r\n\r\n        currentInterval = 1;\r\n        task = _task;\r\n        \r\n        executor = newAlarm();\r\n    }\r\n\r\n    function () public payable {\r\n        if(msg.value == 0)\r\n            handleAlarmCall();\r\n        else\r\n            emit Deposit_event(msg.sender, msg.value);\r\n    }\r\n\r\n    function amount () public view returns (uint) {\r\n        uint gas = eacOptions[6];\r\n        return maxGasPrice * gas * safetyMultiplier;\r\n    }\r\n\r\n    function cancel () public {\r\n        require(msg.sender == address(task), \"msg.sender is not the alarm task\");\r\n\r\n        delegate.unschedule();\r\n    }\r\n\r\n    function handleAlarmCall () internal {\r\n        require(msg.sender == executor, \"only the executor should be able to handle an alarm call\");\r\n        executor = address(0x0);\r\n        \r\n        bool success = address(task).call.gas(gasleft())(callData);\r\n        emit Execute_event(currentInterval, success);\r\n        \r\n        if(currentInterval < maximumIntervals){\r\n            currentInterval++;\r\n            eacOptions[5] += intervalDuration;\r\n            executor = newAlarm();\r\n            \r\n            if(currentInterval == maximumIntervals)\r\n                delegate.unschedule();\r\n        }\r\n    }\r\n\r\n    function newAlarm () internal returns (address newExecutor) {\r\n        delegate.execute();\r\n        \r\n        uint endowment = address(this).balance;    \r\n        uint priorityFee = endowment / 100;\r\n        uint callBounty = endowment - priorityFee;\r\n\r\n        address[3] memory addressOptions = [\r\n        //  this,           // In the future, I'd like the owner address to equal this contract and keep the wallet as the change address\r\n            wallet,         // Change from the alarm is sent to this address, also the account that can owns the alarm. \r\n            priorityCaller, // The priority fee is sent to this address\r\n            this            // The contract to call at execution\r\n        ];\r\n\r\n        uint[12] memory uintOptions = [\r\n            priorityFee,    // A fee that goes to the fee recipient\r\n            callBounty,     // The bounty for the account that triggers this alarm\r\n            eacOptions[0],  // claimWindowSize\r\n            eacOptions[1],  // freezeintervalDuration\r\n            eacOptions[2],  // reservedWindowSize\r\n            eacOptions[3],  // 2 = Use timestamp based scheduling instead of blocks\r\n            eacOptions[4],  // The size of the execution window\r\n            eacOptions[5],  // The start of the execution window\r\n            eacOptions[6],  // The amount of gas to be sent with the transaction\r\n            eacOptions[7],  // The amount of ether to be sent\r\n            eacOptions[8],  // The minimum gas price for the alarm when called\r\n            eacOptions[9]   // The required deposit by the claimer\r\n        ];\r\n\r\n        bool[6] memory params = eac.validateRequestParams(\r\n            addressOptions,\r\n            uintOptions,\r\n            endowment\r\n        );\r\n\r\n        if(params[0] && params[1] && params[2] && params[3] && params[4] && params[5]){\r\n            newExecutor = eac.createValidatedRequest.value(endowment)(addressOptions, uintOptions, \"\");\r\n            emit ValidRequest_event(msg.sender, newExecutor);\r\n        } else {\r\n            emit InvalidRequest_event(params);\r\n        }\r\n    }\r\n    \r\n    event Execute_event(uint indexed currentInterval, bool success);\r\n    event Deposit_event (address indexed sender, uint amount);\r\n    event ValidRequest_event (address indexed sender, address alarm);\r\n    event InvalidRequest_event (bool[6] params);\r\n\r\n}\r\n",
  "sourcePath": "C:\\Users\\My\\Documents\\GitHub\\everchain-project\\recurring-alarm-clock\\contracts\\components\\recurring-alarm-clock\\RecurringAlarmClock.sol",
  "compiler": {
    "name": "solc",
    "version": "0.4.24+commit.e67f0147.Emscripten.clang"
  },
  "schemaVersion": "2.0.1",
  "updatedAt": "2018-10-23T07:02:04.725Z"
}