{
  "contractName": "RecurringAlarmClockFactory",
  "abi": [
    {
      "constant": true,
      "inputs": [],
      "name": "ethereumAlarmClock",
      "outputs": [
        {
          "name": "",
          "type": "address"
        }
      ],
      "payable": false,
      "stateMutability": "view",
      "type": "function"
    },
    {
      "constant": true,
      "inputs": [],
      "name": "alarmClockBlueprint",
      "outputs": [
        {
          "name": "",
          "type": "address"
        }
      ],
      "payable": false,
      "stateMutability": "view",
      "type": "function"
    },
    {
      "inputs": [
        {
          "name": "_ethereumAlarmClock",
          "type": "address"
        },
        {
          "name": "_alarmClockBlueprint",
          "type": "address"
        }
      ],
      "payable": false,
      "stateMutability": "nonpayable",
      "type": "constructor"
    },
    {
      "anonymous": false,
      "inputs": [
        {
          "indexed": true,
          "name": "target",
          "type": "address"
        },
        {
          "indexed": false,
          "name": "clone",
          "type": "address"
        }
      ],
      "name": "CloneCreated",
      "type": "event"
    },
    {
      "constant": false,
      "inputs": [
        {
          "name": "delegate",
          "type": "address"
        },
        {
          "name": "wallet",
          "type": "address"
        },
        {
          "name": "priorityCaller",
          "type": "address"
        },
        {
          "name": "recurringAlarmClockOptions",
          "type": "uint256[3]"
        },
        {
          "name": "ethereumAlarmClockOptions",
          "type": "uint256[10]"
        }
      ],
      "name": "createRecurringAlarmClock",
      "outputs": [
        {
          "name": "",
          "type": "address"
        }
      ],
      "payable": false,
      "stateMutability": "nonpayable",
      "type": "function"
    }
  ],
  "bytecode": "0x608060405234801561001057600080fd5b5060405160408061069b8339810180604052810190808051906020019092919080519060200190929190505050816000806101000a81548173ffffffffffffffffffffffffffffffffffffffff021916908373ffffffffffffffffffffffffffffffffffffffff16021790555080600160006101000a81548173ffffffffffffffffffffffffffffffffffffffff021916908373ffffffffffffffffffffffffffffffffffffffff16021790555050506105cc806100cf6000396000f300608060405260043610610057576000357c0100000000000000000000000000000000000000000000000000000000900463ffffffff16806321363e571461005c5780635f943a4e146100b3578063919a57ad1461010a575b600080fd5b34801561006857600080fd5b5061007161022c565b604051808273ffffffffffffffffffffffffffffffffffffffff1673ffffffffffffffffffffffffffffffffffffffff16815260200191505060405180910390f35b3480156100bf57600080fd5b506100c8610251565b604051808273ffffffffffffffffffffffffffffffffffffffff1673ffffffffffffffffffffffffffffffffffffffff16815260200191505060405180910390f35b34801561011657600080fd5b506101ea600480360381019080803573ffffffffffffffffffffffffffffffffffffffff169060200190929190803573ffffffffffffffffffffffffffffffffffffffff169060200190929190803573ffffffffffffffffffffffffffffffffffffffff1690602001909291908060600190600380602002604051908101604052809291908260036020028082843782019150505050509192919290806101400190600a806020026040519081016040528092919082600a6020028082843782019150505050509192919290505050610277565b604051808273ffffffffffffffffffffffffffffffffffffffff1673ffffffffffffffffffffffffffffffffffffffff16815260200191505060405180910390f35b6000809054906101000a900473ffffffffffffffffffffffffffffffffffffffff1681565b600160009054906101000a900473ffffffffffffffffffffffffffffffffffffffff1681565b6000806102a5600160009054906101000a900473ffffffffffffffffffffffffffffffffffffffff16610484565b90508073ffffffffffffffffffffffffffffffffffffffff1663babccbab6000809054906101000a900473ffffffffffffffffffffffffffffffffffffffff1689898989896040518763ffffffff167c0100000000000000000000000000000000000000000000000000000000028152600401808773ffffffffffffffffffffffffffffffffffffffff1673ffffffffffffffffffffffffffffffffffffffff1681526020018673ffffffffffffffffffffffffffffffffffffffff1673ffffffffffffffffffffffffffffffffffffffff1681526020018573ffffffffffffffffffffffffffffffffffffffff1673ffffffffffffffffffffffffffffffffffffffff1681526020018473ffffffffffffffffffffffffffffffffffffffff1673ffffffffffffffffffffffffffffffffffffffff16815260200183600360200280838360005b838110156104085780820151818401526020810190506103ed565b5050505090500182600a60200280838360005b8381101561043657808201518184015260208101905061041b565b505050509050019650505050505050600060405180830381600087803b15801561045f57600080fd5b505af1158015610473573d6000803e3d6000fd5b505050508091505095945050505050565b60006060600080606060405190810160405280603f81526020017f600034603b57603080600f833981f36000368180378080368173bebebebebebe81526020017fbebebebebebebebebebebebebebe5af43d82803e15602c573d90f35b3d90fd008152509250846c01000000000000000000000000029150600090505b601481101561058957818160148110151561051857fe5b1a7f0100000000000000000000000000000000000000000000000000000000000000028382601a0181518110151561054c57fe5b9060200101907effffffffffffffffffffffffffffffffffffffffffffffffffffffffffffff1916908160001a9053508080600101915050610501565b82516020840181816000f0955050505050509190505600a165627a7a72305820e5a7eb80c055c0d75c2b72c8a9ac3dafed0f70a84cb71abddebde8f09ed0c7c50029",
  "source": "pragma solidity ^0.4.23;\r\n\r\nimport \"../external/CloneFactory.sol\";\r\nimport \"../RecurringAlarmClock.sol\";\r\n\r\ncontract RecurringAlarmClockFactory is CloneFactory {\r\n\r\n    RequestFactoryInterface public ethereumAlarmClock;\r\n    RecurringAlarmClock public alarmClockBlueprint;\r\n\r\n    constructor (\r\n        RequestFactoryInterface _ethereumAlarmClock, \r\n        RecurringAlarmClock _alarmClockBlueprint\r\n    ) public {\r\n        ethereumAlarmClock = _ethereumAlarmClock;\r\n        alarmClockBlueprint = _alarmClockBlueprint;\r\n    }\r\n\r\n    function createRecurringAlarmClock(\r\n        IFuturePaymentDelegate delegate,\r\n        address wallet,\r\n        address priorityCaller,\r\n        uint[3] recurringAlarmClockOptions,\r\n        uint[10] ethereumAlarmClockOptions\r\n    ) public returns (RecurringAlarmClock) {\r\n        RecurringAlarmClock recurringAlarmClock = RecurringAlarmClock(createClone(alarmClockBlueprint));\r\n        recurringAlarmClock.initialize(\r\n            ethereumAlarmClock,\r\n            delegate,\r\n            wallet,\r\n            priorityCaller,\r\n            recurringAlarmClockOptions,\r\n            ethereumAlarmClockOptions\r\n        );\r\n\r\n        return recurringAlarmClock;\r\n    }\r\n\r\n}\r\n",
  "sourcePath": "C:\\Users\\My\\Documents\\GitHub\\everchain-project\\recurring-alarm-clock\\contracts\\utility\\RecurringAlarmClockFactory.sol",
  "compiler": {
    "name": "solc",
    "version": "0.4.24+commit.e67f0147.Emscripten.clang"
  },
  "schemaVersion": "2.0.1",
  "updatedAt": "2018-10-07T04:51:18.088Z"
}