{
  "contractName": "RecurringAlarmClock",
  "abi": [
    {
      "constant": true,
      "inputs": [],
      "name": "priorityCaller",
      "outputs": [
        {
          "name": "",
          "type": "address"
        }
      ],
      "payable": false,
      "stateMutability": "view",
      "type": "function"
    },
    {
      "constant": true,
      "inputs": [],
      "name": "intervalDuration",
      "outputs": [
        {
          "name": "",
          "type": "uint256"
        }
      ],
      "payable": false,
      "stateMutability": "view",
      "type": "function"
    },
    {
      "constant": true,
      "inputs": [],
      "name": "task",
      "outputs": [
        {
          "name": "",
          "type": "address"
        }
      ],
      "payable": false,
      "stateMutability": "view",
      "type": "function"
    },
    {
      "constant": true,
      "inputs": [],
      "name": "currentInterval",
      "outputs": [
        {
          "name": "",
          "type": "uint256"
        }
      ],
      "payable": false,
      "stateMutability": "view",
      "type": "function"
    },
    {
      "constant": true,
      "inputs": [],
      "name": "maxGasPrice",
      "outputs": [
        {
          "name": "",
          "type": "uint256"
        }
      ],
      "payable": false,
      "stateMutability": "view",
      "type": "function"
    },
    {
      "constant": true,
      "inputs": [
        {
          "name": "",
          "type": "uint256"
        }
      ],
      "name": "eacOptions",
      "outputs": [
        {
          "name": "",
          "type": "uint256"
        }
      ],
      "payable": false,
      "stateMutability": "view",
      "type": "function"
    },
    {
      "constant": true,
      "inputs": [],
      "name": "eac",
      "outputs": [
        {
          "name": "",
          "type": "address"
        }
      ],
      "payable": false,
      "stateMutability": "view",
      "type": "function"
    },
    {
      "constant": true,
      "inputs": [],
      "name": "callData",
      "outputs": [
        {
          "name": "",
          "type": "bytes"
        }
      ],
      "payable": false,
      "stateMutability": "view",
      "type": "function"
    },
    {
      "constant": true,
      "inputs": [],
      "name": "blockCreated",
      "outputs": [
        {
          "name": "",
          "type": "uint256"
        }
      ],
      "payable": false,
      "stateMutability": "view",
      "type": "function"
    },
    {
      "constant": true,
      "inputs": [],
      "name": "wallet",
      "outputs": [
        {
          "name": "",
          "type": "address"
        }
      ],
      "payable": false,
      "stateMutability": "view",
      "type": "function"
    },
    {
      "constant": true,
      "inputs": [],
      "name": "recipient",
      "outputs": [
        {
          "name": "",
          "type": "address"
        }
      ],
      "payable": false,
      "stateMutability": "view",
      "type": "function"
    },
    {
      "constant": true,
      "inputs": [],
      "name": "maximumIntervals",
      "outputs": [
        {
          "name": "",
          "type": "uint256"
        }
      ],
      "payable": false,
      "stateMutability": "view",
      "type": "function"
    },
    {
      "constant": true,
      "inputs": [],
      "name": "alarm",
      "outputs": [
        {
          "name": "",
          "type": "address"
        }
      ],
      "payable": false,
      "stateMutability": "view",
      "type": "function"
    },
    {
      "constant": true,
      "inputs": [],
      "name": "factory",
      "outputs": [
        {
          "name": "",
          "type": "address"
        }
      ],
      "payable": false,
      "stateMutability": "view",
      "type": "function"
    },
    {
      "constant": true,
      "inputs": [],
      "name": "delegate",
      "outputs": [
        {
          "name": "",
          "type": "address"
        }
      ],
      "payable": false,
      "stateMutability": "view",
      "type": "function"
    },
    {
      "constant": true,
      "inputs": [],
      "name": "safetyMultiplier",
      "outputs": [
        {
          "name": "",
          "type": "uint256"
        }
      ],
      "payable": false,
      "stateMutability": "view",
      "type": "function"
    },
    {
      "constant": true,
      "inputs": [],
      "name": "token",
      "outputs": [
        {
          "name": "",
          "type": "address"
        }
      ],
      "payable": false,
      "stateMutability": "view",
      "type": "function"
    },
    {
      "payable": true,
      "stateMutability": "payable",
      "type": "fallback"
    },
    {
      "anonymous": false,
      "inputs": [
        {
          "indexed": true,
          "name": "currentInterval",
          "type": "uint256"
        },
        {
          "indexed": false,
          "name": "success",
          "type": "bool"
        }
      ],
      "name": "Execute_event",
      "type": "event"
    },
    {
      "anonymous": false,
      "inputs": [
        {
          "indexed": true,
          "name": "sender",
          "type": "address"
        },
        {
          "indexed": false,
          "name": "amount",
          "type": "uint256"
        }
      ],
      "name": "Deposit_event",
      "type": "event"
    },
    {
      "anonymous": false,
      "inputs": [
        {
          "indexed": true,
          "name": "sender",
          "type": "address"
        },
        {
          "indexed": false,
          "name": "alarm",
          "type": "address"
        }
      ],
      "name": "ValidRequest_event",
      "type": "event"
    },
    {
      "anonymous": false,
      "inputs": [
        {
          "indexed": false,
          "name": "params",
          "type": "bool[6]"
        }
      ],
      "name": "InvalidRequest_event",
      "type": "event"
    },
    {
      "constant": false,
      "inputs": [
        {
          "name": "_eac",
          "type": "address"
        },
        {
          "name": "_delegate",
          "type": "address"
        },
        {
          "name": "_wallet",
          "type": "address"
        },
        {
          "name": "_priorityCaller",
          "type": "address"
        },
        {
          "name": "_callData",
          "type": "bytes"
        },
        {
          "name": "_recurringAlarmClockOptions",
          "type": "uint256[3]"
        },
        {
          "name": "_ethereumAlarmClockOptions",
          "type": "uint256[10]"
        }
      ],
      "name": "initialize",
      "outputs": [],
      "payable": false,
      "stateMutability": "nonpayable",
      "type": "function"
    },
    {
      "constant": false,
      "inputs": [
        {
          "name": "_task",
          "type": "address"
        }
      ],
      "name": "start",
      "outputs": [],
      "payable": false,
      "stateMutability": "nonpayable",
      "type": "function"
    },
    {
      "constant": true,
      "inputs": [],
      "name": "amount",
      "outputs": [
        {
          "name": "",
          "type": "uint256"
        }
      ],
      "payable": false,
      "stateMutability": "view",
      "type": "function"
    },
    {
      "constant": false,
      "inputs": [],
      "name": "cancel",
      "outputs": [],
      "payable": false,
      "stateMutability": "nonpayable",
      "type": "function"
    }
  ],
  "bytecode": "0x608060405234801561001057600080fd5b50611b77806100206000396000f30060806040526004361061011d576000357c0100000000000000000000000000000000000000000000000000000000900463ffffffff1680631fd3ea52146101845780633076dc42146101db5780633283f64114610206578063363487bc1461025d5780633de39c1114610288578063440c44eb146102b357806349ef8763146102f45780634e417a981461034b5780634e989a4c146103db578063521eb2731461040657806366d003ac1461045d57806393f358d8146104b4578063aa8c217c146104df578063b94d3da01461050a578063bb7e8c2814610652578063c45a0155146106a9578063c89e436114610700578063d57f1d9b14610757578063dd0b281e14610782578063ea8a1af0146107c5578063fc0c546a146107dc575b60003414156101335761012e610833565b610182565b3373ffffffffffffffffffffffffffffffffffffffff167f13d8b731cfddb1e8d6d230a4f64afe94251cf4c4fa93e730ebda89a63f8baa21346040518082815260200191505060405180910390a25b005b34801561019057600080fd5b50610199610ab9565b604051808273ffffffffffffffffffffffffffffffffffffffff1673ffffffffffffffffffffffffffffffffffffffff16815260200191505060405180910390f35b3480156101e757600080fd5b506101f0610adf565b6040518082815260200191505060405180910390f35b34801561021257600080fd5b5061021b610ae5565b604051808273ffffffffffffffffffffffffffffffffffffffff1673ffffffffffffffffffffffffffffffffffffffff16815260200191505060405180910390f35b34801561026957600080fd5b50610272610b0b565b6040518082815260200191505060405180910390f35b34801561029457600080fd5b5061029d610b11565b6040518082815260200191505060405180910390f35b3480156102bf57600080fd5b506102de60048036038101908080359060200190929190505050610b17565b6040518082815260200191505060405180910390f35b34801561030057600080fd5b50610309610b31565b604051808273ffffffffffffffffffffffffffffffffffffffff1673ffffffffffffffffffffffffffffffffffffffff16815260200191505060405180910390f35b34801561035757600080fd5b50610360610b57565b6040518080602001828103825283818151815260200191508051906020019080838360005b838110156103a0578082015181840152602081019050610385565b50505050905090810190601f1680156103cd5780820380516001836020036101000a031916815260200191505b509250505060405180910390f35b3480156103e757600080fd5b506103f0610bf5565b6040518082815260200191505060405180910390f35b34801561041257600080fd5b5061041b610bfb565b604051808273ffffffffffffffffffffffffffffffffffffffff1673ffffffffffffffffffffffffffffffffffffffff16815260200191505060405180910390f35b34801561046957600080fd5b50610472610c21565b604051808273ffffffffffffffffffffffffffffffffffffffff1673ffffffffffffffffffffffffffffffffffffffff16815260200191505060405180910390f35b3480156104c057600080fd5b506104c9610c47565b6040518082815260200191505060405180910390f35b3480156104eb57600080fd5b506104f4610c4d565b6040518082815260200191505060405180910390f35b34801561051657600080fd5b50610650600480360381019080803573ffffffffffffffffffffffffffffffffffffffff169060200190929190803573ffffffffffffffffffffffffffffffffffffffff169060200190929190803573ffffffffffffffffffffffffffffffffffffffff169060200190929190803573ffffffffffffffffffffffffffffffffffffffff169060200190929190803590602001908201803590602001908080601f01602080910402602001604051908101604052809392919081815260200183838082843782019150505050505091929192908060600190600380602002604051908101604052809291908260036020028082843782019150505050509192919290806101400190600a806020026040519081016040528092919082600a6020028082843782019150505050509192919290505050610c73565b005b34801561065e57600080fd5b50610667610f6c565b604051808273ffffffffffffffffffffffffffffffffffffffff1673ffffffffffffffffffffffffffffffffffffffff16815260200191505060405180910390f35b3480156106b557600080fd5b506106be610f92565b604051808273ffffffffffffffffffffffffffffffffffffffff1673ffffffffffffffffffffffffffffffffffffffff16815260200191505060405180910390f35b34801561070c57600080fd5b50610715610fb8565b604051808273ffffffffffffffffffffffffffffffffffffffff1673ffffffffffffffffffffffffffffffffffffffff16815260200191505060405180910390f35b34801561076357600080fd5b5061076c610fde565b6040518082815260200191505060405180910390f35b34801561078e57600080fd5b506107c3600480360381019080803573ffffffffffffffffffffffffffffffffffffffff169060200190929190505050610fe4565b005b3480156107d157600080fd5b506107da611124565b005b3480156107e857600080fd5b506107f1611289565b604051808273ffffffffffffffffffffffffffffffffffffffff1673ffffffffffffffffffffffffffffffffffffffff16815260200191505060405180910390f35b6000601060009054906101000a900473ffffffffffffffffffffffffffffffffffffffff1673ffffffffffffffffffffffffffffffffffffffff163373ffffffffffffffffffffffffffffffffffffffff1614151561089157600080fd5b600960009054906101000a900473ffffffffffffffffffffffffffffffffffffffff1673ffffffffffffffffffffffffffffffffffffffff165a601160405180828054600181600116156101000203166002900480156109325780601f1061090757610100808354040283529160200191610932565b820191906000526020600020905b81548152906001019060200180831161091557829003601f168201915b505091505060006040518083038160008787f1925050509050601f547f577176a7851c8520b78fcc0bf15980a9640dbf05caf66ea36d24cac42489aecc82604051808215151515815260200191505060405180910390a2601e54601f5410156109d557601f60008154809291906001019190505550601d5460126005600a811015156109ba57fe5b01600082825401925050819055506109d06112af565b610ab6565b600b60009054906101000a900473ffffffffffffffffffffffffffffffffffffffff1673ffffffffffffffffffffffffffffffffffffffff1663daf1548c6040518163ffffffff167c0100000000000000000000000000000000000000000000000000000000028152600401600060405180830381600087803b158015610a5b57600080fd5b505af1158015610a6f573d6000803e3d6000fd5b505050506000601060006101000a81548173ffffffffffffffffffffffffffffffffffffffff021916908373ffffffffffffffffffffffffffffffffffffffff1602179055505b50565b600f60009054906101000a900473ffffffffffffffffffffffffffffffffffffffff1681565b601d5481565b600960009054906101000a900473ffffffffffffffffffffffffffffffffffffffff1681565b601f5481565b60205481565b601281600a81101515610b2657fe5b016000915090505481565b600a60009054906101000a900473ffffffffffffffffffffffffffffffffffffffff1681565b60118054600181600116156101000203166002900480601f016020809104026020016040519081016040528092919081815260200182805460018160011615610100020316600290048015610bed5780601f10610bc257610100808354040283529160200191610bed565b820191906000526020600020905b815481529060010190602001808311610bd057829003601f168201915b505050505081565b60075481565b600c60009054906101000a900473ffffffffffffffffffffffffffffffffffffffff1681565b600e60009054906101000a900473ffffffffffffffffffffffffffffffffffffffff1681565b601e5481565b60008060126006600a81101515610c6057fe5b01549050601c5481602054020291505090565b6000600754141515610d13576040517f08c379a00000000000000000000000000000000000000000000000000000000081526004018080602001828103825260258152602001807f636f6e74726163742063616e206f6e6c7920626520696e697469616c697a656481526020017f206f6e636500000000000000000000000000000000000000000000000000000081525060400191505060405180910390fd5b4360078190555033600860006101000a81548173ffffffffffffffffffffffffffffffffffffffff021916908373ffffffffffffffffffffffffffffffffffffffff1602179055506298968060208190555086600a60006101000a81548173ffffffffffffffffffffffffffffffffffffffff021916908373ffffffffffffffffffffffffffffffffffffffff16021790555085600b60006101000a81548173ffffffffffffffffffffffffffffffffffffffff021916908373ffffffffffffffffffffffffffffffffffffffff16021790555084600c60006101000a81548173ffffffffffffffffffffffffffffffffffffffff021916908373ffffffffffffffffffffffffffffffffffffffff1602179055506000600d60006101000a81548173ffffffffffffffffffffffffffffffffffffffff021916908373ffffffffffffffffffffffffffffffffffffffff16021790555030600e60006101000a81548173ffffffffffffffffffffffffffffffffffffffff021916908373ffffffffffffffffffffffffffffffffffffffff16021790555083600f60006101000a81548173ffffffffffffffffffffffffffffffffffffffff021916908373ffffffffffffffffffffffffffffffffffffffff1602179055508260119080519060200190610f029291906119fc565b5080601290600a610f14929190611a7c565b50816000600381101515610f2457fe5b6020020151601c81905550816001600381101515610f3e57fe5b6020020151601d81905550816002600381101515610f5857fe5b6020020151601e8190555050505050505050565b601060009054906101000a900473ffffffffffffffffffffffffffffffffffffffff1681565b600860009054906101000a900473ffffffffffffffffffffffffffffffffffffffff1681565b600b60009054906101000a900473ffffffffffffffffffffffffffffffffffffffff1681565b601c5481565b600073ffffffffffffffffffffffffffffffffffffffff16600960009054906101000a900473ffffffffffffffffffffffffffffffffffffffff1673ffffffffffffffffffffffffffffffffffffffff161415156110d0576040517f08c379a00000000000000000000000000000000000000000000000000000000081526004018080602001828103825260248152602001807f7461736b206d757374206e6f742062652073657420746f20737461727420612081526020017f7461736b0000000000000000000000000000000000000000000000000000000081525060400191505060405180910390fd5b6001601f8190555080600960006101000a81548173ffffffffffffffffffffffffffffffffffffffff021916908373ffffffffffffffffffffffffffffffffffffffff1602179055506111216112af565b50565b600960009054906101000a900473ffffffffffffffffffffffffffffffffffffffff1673ffffffffffffffffffffffffffffffffffffffff163373ffffffffffffffffffffffffffffffffffffffff161415156111e9576040517f08c379a00000000000000000000000000000000000000000000000000000000081526004018080602001828103825260208152602001807f6d73672e73656e646572206973206e6f742074686520616c61726d207461736b81525060200191505060405180910390fd5b600b60009054906101000a900473ffffffffffffffffffffffffffffffffffffffff1673ffffffffffffffffffffffffffffffffffffffff1663daf1548c6040518163ffffffff167c0100000000000000000000000000000000000000000000000000000000028152600401600060405180830381600087803b15801561126f57600080fd5b505af1158015611283573d6000803e3d6000fd5b50505050565b600d60009054906101000a900473ffffffffffffffffffffffffffffffffffffffff1681565b60008060006112bc611abc565b6112c4611adf565b6112cc611b03565b600b60009054906101000a900473ffffffffffffffffffffffffffffffffffffffff1673ffffffffffffffffffffffffffffffffffffffff1663614619546040518163ffffffff167c0100000000000000000000000000000000000000000000000000000000028152600401602060405180830381600087803b15801561135257600080fd5b505af1158015611366573d6000803e3d6000fd5b505050506040513d602081101561137c57600080fd5b8101908080519060200190929190505050503073ffffffffffffffffffffffffffffffffffffffff163195506064868115156113b457fe5b0494508486039350606060405190810160405280600c60009054906101000a900473ffffffffffffffffffffffffffffffffffffffff1673ffffffffffffffffffffffffffffffffffffffff1673ffffffffffffffffffffffffffffffffffffffff168152602001600f60009054906101000a900473ffffffffffffffffffffffffffffffffffffffff1673ffffffffffffffffffffffffffffffffffffffff1673ffffffffffffffffffffffffffffffffffffffff1681526020013073ffffffffffffffffffffffffffffffffffffffff1673ffffffffffffffffffffffffffffffffffffffff1681525092506101806040519081016040528086815260200185815260200160126000600a811015156114cb57fe5b0154815260200160126001600a811015156114e257fe5b0154815260200160126002600a811015156114f957fe5b0154815260200160126003600a8110151561151057fe5b0154815260200160126004600a8110151561152757fe5b0154815260200160126005600a8110151561153e57fe5b0154815260200160126006600a8110151561155557fe5b0154815260200160126007600a8110151561156c57fe5b0154815260200160126008600a8110151561158357fe5b0154815260200160126009600a8110151561159a57fe5b01548152509150600a60009054906101000a900473ffffffffffffffffffffffffffffffffffffffff1673ffffffffffffffffffffffffffffffffffffffff16631e35ff058484896040518463ffffffff167c01000000000000000000000000000000000000000000000000000000000281526004018084600360200280838360005b8381101561163857808201518184015260208101905061161d565b5050505090500183600c60200280838360005b8381101561166657808201518184015260208101905061164b565b50505050905001828152602001935050505060c060405180830381600087803b15801561169257600080fd5b505af11580156116a6573d6000803e3d6000fd5b505050506040513d601f19601f8201168201806040525060c08110156116cb57600080fd5b810190809190505090508060006006811015156116e457fe5b6020020151801561170557508060016006811015156116ff57fe5b60200201515b8015611721575080600260068110151561171b57fe5b60200201515b801561173d575080600360068110151561173757fe5b60200201515b8015611759575080600460068110151561175357fe5b60200201515b8015611775575080600560068110151561176f57fe5b60200201515b1561199457600a60009054906101000a900473ffffffffffffffffffffffffffffffffffffffff1673ffffffffffffffffffffffffffffffffffffffff1663d7ceab4c8785856040518463ffffffff167c01000000000000000000000000000000000000000000000000000000000281526004018083600360200280838360005b838110156118115780820151818401526020810190506117f6565b5050505090500182600c60200280838360005b8381101561183f578082015181840152602081019050611824565b505050509050018060200182810382526000815260200160200193505050506020604051808303818588803b15801561187757600080fd5b505af115801561188b573d6000803e3d6000fd5b50505050506040513d60208110156118a257600080fd5b8101908080519060200190929190505050601060006101000a81548173ffffffffffffffffffffffffffffffffffffffff021916908373ffffffffffffffffffffffffffffffffffffffff1602179055503373ffffffffffffffffffffffffffffffffffffffff167f673bacbd542d3e65fd90fc7fc8631e3a9bdc4ae4ffad940781805f85596c1721601060009054906101000a900473ffffffffffffffffffffffffffffffffffffffff16604051808273ffffffffffffffffffffffffffffffffffffffff1673ffffffffffffffffffffffffffffffffffffffff16815260200191505060405180910390a26119f4565b7febec2a47d1b8a4f2300d8b1a3f76af4035584f4667e3a47730f7c47eeb4675af816040518082600660200280838360005b838110156119e15780820151818401526020810190506119c6565b5050505090500191505060405180910390a15b505050505050565b828054600181600116156101000203166002900490600052602060002090601f016020900481019282601f10611a3d57805160ff1916838001178555611a6b565b82800160010185558215611a6b579182015b82811115611a6a578251825591602001919060010190611a4f565b5b509050611a789190611b26565b5090565b82600a8101928215611aab579160200282015b82811115611aaa578251825591602001919060010190611a8f565b5b509050611ab89190611b26565b5090565b606060405190810160405280600390602082028038833980820191505090505090565b61018060405190810160405280600c90602082028038833980820191505090505090565b60c060405190810160405280600690602082028038833980820191505090505090565b611b4891905b80821115611b44576000816000905550600101611b2c565b5090565b905600a165627a7a72305820a5c09e297de944b6a4712c6870cd8a43527ad91a130222eb2fcbf46f93a7e54b0029",
  "source": "pragma solidity ^0.4.23;\r\n\r\nimport \"../../external/RequestFactoryInterface.sol\";\r\nimport \"../../Interfaces.sol\";\r\n\r\ncontract RecurringAlarmClock is IRecurringAlarmClock {\r\n\r\n    uint public blockCreated;               // The block the alarm clock was started\r\n    address public factory;                 // The factory that created this contract\r\n\r\n    ITask public task;                      // The address of the task contract\r\n    RequestFactoryInterface public eac;     // Interface provided by the Ethereum Alarm Clock\r\n    IPaymentDelegate public delegate;       // The delegate that pulls funds for each alarm\r\n    IDelegatedWallet public wallet;         // The address which owns the alarm and collects any leftover funds\r\n    address public token;                   // The token to pull when funding an alarm. default of 0x0 represents native ether\r\n    address public recipient;               // The recipient to send pulled funds to. set to 'this' at initialization\r\n    address public priorityCaller;          // The priority recipient of part of the alarm deposit\r\n    address public alarm;                   // The next scheduled alarm contract\r\n    \r\n    bytes public callData;                  // The data for the task to execute when the alarm is triggered\r\n\r\n    uint[10] public eacOptions;             // The options used when setting an alarm using the Ethereum Alarm Clock\r\n    uint public safetyMultiplier;           // The multiplier to use when calculating the alarm cost\r\n    uint public intervalDuration;           // The amount of time between each alarm\r\n    uint public maximumIntervals;           // The number of times this alarm will go off\r\n    uint public currentInterval;            // Keeps track of how many alarms have been called\r\n    uint public maxGasPrice;                // placeholder for a gas price oracle\r\n\r\n    function initialize (\r\n        RequestFactoryInterface _eac,\r\n        IPaymentDelegate _delegate,\r\n        IDelegatedWallet _wallet,\r\n        address _priorityCaller,\r\n        bytes _callData,\r\n        uint[3] _recurringAlarmClockOptions,\r\n        uint[10] _ethereumAlarmClockOptions\r\n    ) public {\r\n        require(blockCreated == 0, \"contract can only be initialized once\");\r\n\r\n        blockCreated = block.number;\r\n        factory = msg.sender;\r\n        maxGasPrice = 10000000;\r\n\r\n        eac = _eac;\r\n        delegate = _delegate;\r\n        wallet = _wallet;\r\n        token = address(0x0);\r\n        recipient = this;\r\n        priorityCaller = _priorityCaller;\r\n\r\n        callData = _callData;\r\n\r\n        eacOptions = _ethereumAlarmClockOptions;\r\n        safetyMultiplier = _recurringAlarmClockOptions[0];\r\n        intervalDuration = _recurringAlarmClockOptions[1];\r\n        maximumIntervals = _recurringAlarmClockOptions[2];\r\n    }\r\n\r\n    function start (ITask _task) public {\r\n        require(task == address(0x0), \"task must not be set to start a task\");\r\n\r\n        currentInterval = 1;\r\n        task = _task;\r\n        \r\n        scheduleAlarm();\r\n    }\r\n\r\n    function () public payable {\r\n        if(msg.value == 0)\r\n            handleAlarmCall();\r\n        else\r\n            emit Deposit_event(msg.sender, msg.value);\r\n    }\r\n\r\n    function amount () public view returns (uint) {\r\n        uint gas = eacOptions[6];\r\n        return maxGasPrice * gas * safetyMultiplier;\r\n    }\r\n\r\n    function cancel () public onlyTask {\r\n        delegate.unschedule();\r\n    }\r\n\r\n    function handleAlarmCall () internal {\r\n        require(msg.sender == alarm);\r\n\r\n        bool success = address(task).call.gas(gasleft())(callData);\r\n        emit Execute_event(currentInterval, success);\r\n\r\n        if(currentInterval < maximumIntervals){\r\n            currentInterval++;\r\n            eacOptions[5] += intervalDuration;\r\n            scheduleAlarm();\r\n        } else {\r\n            delegate.unschedule();\r\n            alarm = address(0x0);\r\n        }\r\n    }\r\n\r\n    function scheduleAlarm () internal {\r\n        delegate.execute();\r\n        \r\n        uint endowment = address(this).balance;    \r\n        uint priorityFee = endowment / 100;\r\n        uint callBounty = endowment - priorityFee;\r\n\r\n        address[3] memory addressOptions = [\r\n        //  this,           // In the future, I'd like the owner address to equal this contract and keep the wallet as the change address\r\n            wallet,         // Change from the alarm is sent to this address, also the account that can owns the alarm. \r\n            priorityCaller, // The priority fee is sent to this address\r\n            this            // The contract to call at execution\r\n        ];\r\n\r\n        uint[12] memory uintOptions = [\r\n            priorityFee,    // A fee that goes to the fee recipient\r\n            callBounty,     // The bounty for the account that triggers this alarm\r\n            eacOptions[0],  // claimWindowSize\r\n            eacOptions[1],  // freezeintervalDuration\r\n            eacOptions[2],  // reservedWindowSize\r\n            eacOptions[3],  // 2 = Use timestamp based scheduling instead of blocks\r\n            eacOptions[4],  // The size of the execution window\r\n            eacOptions[5],  // The start of the execution window\r\n            eacOptions[6],  // The amount of gas to be sent with the transaction\r\n            eacOptions[7],  // The amount of ether to be sent\r\n            eacOptions[8],  // The minimum gas price for the alarm when called\r\n            eacOptions[9]   // The required deposit by the claimer\r\n        ];\r\n\r\n        bool[6] memory params = eac.validateRequestParams(\r\n            addressOptions,\r\n            uintOptions,\r\n            endowment\r\n        );\r\n\r\n        if(params[0] && params[1] && params[2] && params[3] && params[4] && params[5]){\r\n            alarm = eac.createValidatedRequest.value(endowment)(addressOptions, uintOptions, \"\");\r\n            emit ValidRequest_event(msg.sender, alarm);\r\n        } else {\r\n            emit InvalidRequest_event(params);\r\n        }\r\n    }\r\n\r\n    modifier onlyTask () {\r\n        require(msg.sender == address(task), \"msg.sender is not the alarm task\");\r\n        _;\r\n    }\r\n    \r\n    event Execute_event(uint indexed currentInterval, bool success);\r\n    event Deposit_event (address indexed sender, uint amount);\r\n    event ValidRequest_event (address indexed sender, address alarm);\r\n    event InvalidRequest_event (bool[6] params);\r\n\r\n}\r\n",
  "sourcePath": "C:\\Users\\My\\Documents\\GitHub\\everchain-project\\recurring-alarm-clock\\contracts\\components\\recurring-alarm-clock\\RecurringAlarmClock.sol",
  "compiler": {
    "name": "solc",
    "version": "0.4.24+commit.e67f0147.Emscripten.clang"
  },
  "schemaVersion": "2.0.1",
  "updatedAt": "2018-10-16T21:51:53.474Z"
}