{
  "contractName": "RecurringPaymentScheduler",
  "abi": [
    {
      "constant": true,
      "inputs": [],
      "name": "Assistant",
      "outputs": [
        {
          "name": "",
          "type": "address"
        }
      ],
      "payable": false,
      "stateMutability": "view",
      "type": "function"
    },
    {
      "constant": true,
      "inputs": [],
      "name": "blockCreated",
      "outputs": [
        {
          "name": "",
          "type": "uint256"
        }
      ],
      "payable": false,
      "stateMutability": "view",
      "type": "function"
    },
    {
      "constant": true,
      "inputs": [],
      "name": "Factory",
      "outputs": [
        {
          "name": "",
          "type": "address"
        }
      ],
      "payable": false,
      "stateMutability": "view",
      "type": "function"
    },
    {
      "inputs": [
        {
          "name": "assistant",
          "type": "address"
        },
        {
          "name": "factory",
          "type": "address"
        }
      ],
      "payable": false,
      "stateMutability": "nonpayable",
      "type": "constructor"
    },
    {
      "anonymous": false,
      "inputs": [
        {
          "indexed": true,
          "name": "owner",
          "type": "address"
        },
        {
          "indexed": false,
          "name": "recurringPayment",
          "type": "address"
        }
      ],
      "name": "CreatePayment_event",
      "type": "event"
    },
    {
      "constant": false,
      "inputs": [
        {
          "name": "delegate",
          "type": "address"
        },
        {
          "name": "wallet",
          "type": "address"
        },
        {
          "name": "token",
          "type": "address"
        },
        {
          "name": "recipient",
          "type": "address"
        },
        {
          "name": "paymentAmount",
          "type": "uint256"
        },
        {
          "name": "startTimestamp",
          "type": "uint256"
        },
        {
          "name": "totalPayments",
          "type": "uint256"
        },
        {
          "name": "period",
          "type": "uint256"
        },
        {
          "name": "gas",
          "type": "uint256"
        }
      ],
      "name": "createRecurringPayment",
      "outputs": [
        {
          "name": "paymentTask",
          "type": "address"
        }
      ],
      "payable": false,
      "stateMutability": "nonpayable",
      "type": "function"
    }
  ],
  "bytecode": "0x608060405234801561001057600080fd5b50604051604080610c1a83398101806040528101908080519060200190929190805190602001909291905050504360008190555081600160006101000a81548173ffffffffffffffffffffffffffffffffffffffff021916908373ffffffffffffffffffffffffffffffffffffffff16021790555080600260006101000a81548173ffffffffffffffffffffffffffffffffffffffff021916908373ffffffffffffffffffffffffffffffffffffffff1602179055505050610b43806100d76000396000f300608060405260043610610062576000357c0100000000000000000000000000000000000000000000000000000000900463ffffffff1680631faddb82146100675780634e989a4c146100be578063b168f239146100e9578063c83dd231146101fe575b600080fd5b34801561007357600080fd5b5061007c610255565b604051808273ffffffffffffffffffffffffffffffffffffffff1673ffffffffffffffffffffffffffffffffffffffff16815260200191505060405180910390f35b3480156100ca57600080fd5b506100d361027b565b6040518082815260200191505060405180910390f35b3480156100f557600080fd5b506101bc600480360381019080803573ffffffffffffffffffffffffffffffffffffffff169060200190929190803573ffffffffffffffffffffffffffffffffffffffff169060200190929190803573ffffffffffffffffffffffffffffffffffffffff169060200190929190803573ffffffffffffffffffffffffffffffffffffffff1690602001909291908035906020019092919080359060200190929190803590602001909291908035906020019092919080359060200190929190505050610281565b604051808273ffffffffffffffffffffffffffffffffffffffff1673ffffffffffffffffffffffffffffffffffffffff16815260200191505060405180910390f35b34801561020a57600080fd5b50610213610af1565b604051808273ffffffffffffffffffffffffffffffffffffffff1673ffffffffffffffffffffffffffffffffffffffff16815260200191505060405180910390f35b600160009054906101000a900473ffffffffffffffffffffffffffffffffffffffff1681565b60005481565b6000808973ffffffffffffffffffffffffffffffffffffffff1663077796278c6040518263ffffffff167c0100000000000000000000000000000000000000000000000000000000028152600401808273ffffffffffffffffffffffffffffffffffffffff1673ffffffffffffffffffffffffffffffffffffffff168152602001915050602060405180830381600087803b15801561031f57600080fd5b505af1158015610333573d6000803e3d6000fd5b505050506040513d602081101561034957600080fd5b810190808051906020019092919050505015156103f4576040517f08c379a000000000000000000000000000000000000000000000000000000000815260040180806020018281038252603a8152602001807f7061796d656e742064656c6567617465206973206e6f7420612064656c65676181526020017f746520666f72207468652070726f76696465642077616c6c657400000000000081525060400191505060405180910390fd5b8973ffffffffffffffffffffffffffffffffffffffff166307779627336040518263ffffffff167c0100000000000000000000000000000000000000000000000000000000028152600401808273ffffffffffffffffffffffffffffffffffffffff1673ffffffffffffffffffffffffffffffffffffffff168152602001915050602060405180830381600087803b15801561048f57600080fd5b505af11580156104a3573d6000803e3d6000fd5b505050506040513d60208110156104b957600080fd5b81019080805190602001909291905050501515610564576040517f08c379a00000000000000000000000000000000000000000000000000000000081526004018080602001828103825260348152602001807f6d73672e73656e646572206973206e6f7420612064656c656761746520666f7281526020017f207468652070726f76696465642077616c6c657400000000000000000000000081525060400191505060405180910390fd5b600160009054906101000a900473ffffffffffffffffffffffffffffffffffffffff1673ffffffffffffffffffffffffffffffffffffffff1663ea7dca3d8c8c898989896040518763ffffffff167c0100000000000000000000000000000000000000000000000000000000028152600401808773ffffffffffffffffffffffffffffffffffffffff1673ffffffffffffffffffffffffffffffffffffffff1681526020018673ffffffffffffffffffffffffffffffffffffffff1673ffffffffffffffffffffffffffffffffffffffff1681526020018581526020018481526020018381526020018281526020019650505050505050602060405180830381600087803b15801561067557600080fd5b505af1158015610689573d6000803e3d6000fd5b505050506040513d602081101561069f57600080fd5b81019080805190602001909291905050509050600260009054906101000a900473ffffffffffffffffffffffffffffffffffffffff1673ffffffffffffffffffffffffffffffffffffffff166387a3fefd8c8c8c8c8c6040518663ffffffff167c0100000000000000000000000000000000000000000000000000000000028152600401808673ffffffffffffffffffffffffffffffffffffffff1673ffffffffffffffffffffffffffffffffffffffff1681526020018573ffffffffffffffffffffffffffffffffffffffff1673ffffffffffffffffffffffffffffffffffffffff1681526020018473ffffffffffffffffffffffffffffffffffffffff1673ffffffffffffffffffffffffffffffffffffffff1681526020018373ffffffffffffffffffffffffffffffffffffffff1673ffffffffffffffffffffffffffffffffffffffff16815260200182815260200195505050505050602060405180830381600087803b15801561081357600080fd5b505af1158015610827573d6000803e3d6000fd5b505050506040513d602081101561083d57600080fd5b810190808051906020019092919050505091508a73ffffffffffffffffffffffffffffffffffffffff1663316bef98826040518263ffffffff167c0100000000000000000000000000000000000000000000000000000000028152600401808273ffffffffffffffffffffffffffffffffffffffff1673ffffffffffffffffffffffffffffffffffffffff168152602001915050600060405180830381600087803b1580156108eb57600080fd5b505af11580156108ff573d6000803e3d6000fd5b505050508a73ffffffffffffffffffffffffffffffffffffffff1663316bef98836040518263ffffffff167c0100000000000000000000000000000000000000000000000000000000028152600401808273ffffffffffffffffffffffffffffffffffffffff1673ffffffffffffffffffffffffffffffffffffffff168152602001915050600060405180830381600087803b15801561099e57600080fd5b505af11580156109b2573d6000803e3d6000fd5b505050508073ffffffffffffffffffffffffffffffffffffffff1663dd0b281e836040518263ffffffff167c0100000000000000000000000000000000000000000000000000000000028152600401808273ffffffffffffffffffffffffffffffffffffffff1673ffffffffffffffffffffffffffffffffffffffff168152602001915050600060405180830381600087803b158015610a5157600080fd5b505af1158015610a65573d6000803e3d6000fd5b505050503373ffffffffffffffffffffffffffffffffffffffff167f56febe278ca3b7ac6ad996f92d3a5effe19a9d86540d85080990552f2aa8bb1383604051808273ffffffffffffffffffffffffffffffffffffffff1673ffffffffffffffffffffffffffffffffffffffff16815260200191505060405180910390a2509998505050505050505050565b600260009054906101000a900473ffffffffffffffffffffffffffffffffffffffff16815600a165627a7a72305820c9a948f4dcb762e9a4475c3573fc6e16a7eabcf62238b63e0766fe586400e1740029",
  "source": "pragma solidity ^0.4.23;\r\n\r\nimport \"../../Interfaces.sol\";\r\nimport \"../recurring-payment/RecurringPaymentFactory.sol\";\r\nimport \"../recurring-payment/RecurringPayment.sol\";\r\nimport \"../RecurringAlarmClockAssistant.sol\";\r\n\r\ncontract RecurringPaymentScheduler {\r\n\r\n    uint public blockCreated;\r\n\r\n    RecurringAlarmClockAssistant public Assistant;\r\n    RecurringPaymentFactory public Factory;\r\n    \r\n    constructor (\r\n        RecurringAlarmClockAssistant assistant,\r\n        RecurringPaymentFactory factory\r\n    ) public {\r\n        blockCreated = block.number;\r\n        Assistant = assistant;\r\n        Factory = factory;\r\n    }\r\n\r\n    function createRecurringPayment (\r\n        IPaymentDelegate delegate,\r\n        IDelegatedWallet wallet,\r\n        address token,\r\n        address recipient,\r\n        uint paymentAmount,\r\n        uint startTimestamp,\r\n        uint totalPayments,\r\n        uint period,\r\n        uint gas\r\n    ) public returns (RecurringPayment paymentTask) {\r\n        require(wallet.isDelegate(delegate), \"payment delegate is not a delegate for the provided wallet\");\r\n        require(wallet.isDelegate(msg.sender), \"msg.sender is not a delegate for the provided wallet\");\r\n        \r\n        RecurringAlarmClock alarmClock = Assistant.createRecurringAlarmClock(\r\n            delegate,       // the delegate that executes the payment\r\n            wallet,         // the change address for excess ether not used during alarm execution and also the owner of the alarm\r\n            startTimestamp, // the starting timestamp (in seconds)\r\n            totalPayments,  // how many payments to execute\r\n            period,         // how long between each payment (in seconds)\r\n            gas             // how much gas to use when executing each alarm,\r\n        );\r\n\r\n        paymentTask = Factory.createRecurringPayment(\r\n            delegate,       // the delegate that executes the payment\r\n            wallet,         // supplies delegates that can cancel the task\r\n            token,          // the token to use when making a payment\r\n            recipient,      // the recipient of the payment\r\n            paymentAmount   // how much of the token to send each payment\r\n        );\r\n\r\n        delegate.schedule(alarmClock);  // schedules the alarm clock with the future payment delegate\r\n        delegate.schedule(paymentTask); // schedules the payment task with the future payment delegate\r\n        alarmClock.start(paymentTask);  // assigns the payment task to the alarm clock and starts the alarm\r\n\r\n        emit CreatePayment_event(msg.sender, paymentTask);\r\n    }\r\n\r\n    event CreatePayment_event (address indexed owner, RecurringPayment recurringPayment);\r\n    \r\n}\r\n",
  "sourcePath": "C:\\Users\\My\\Documents\\GitHub\\everchain-project\\recurring-alarm-clock\\contracts\\examples\\recurring-payment\\RecurringPaymentScheduler.sol",
  "compiler": {
    "name": "solc",
    "version": "0.4.24+commit.e67f0147.Emscripten.clang"
  },
  "schemaVersion": "2.0.1",
  "updatedAt": "2018-10-16T21:51:53.415Z"
}