{
  "contractName": "RecurringAlarmClock",
  "abi": [
    {
      "constant": true,
      "inputs": [],
      "name": "priorityCaller",
      "outputs": [
        {
          "name": "",
          "type": "address"
        }
      ],
      "payable": false,
      "stateMutability": "view",
      "type": "function"
    },
    {
      "constant": true,
      "inputs": [],
      "name": "task",
      "outputs": [
        {
          "name": "",
          "type": "address"
        }
      ],
      "payable": false,
      "stateMutability": "view",
      "type": "function"
    },
    {
      "constant": true,
      "inputs": [],
      "name": "blockStarted",
      "outputs": [
        {
          "name": "",
          "type": "uint256"
        }
      ],
      "payable": false,
      "stateMutability": "view",
      "type": "function"
    },
    {
      "constant": true,
      "inputs": [],
      "name": "currentInterval",
      "outputs": [
        {
          "name": "",
          "type": "uint256"
        }
      ],
      "payable": false,
      "stateMutability": "view",
      "type": "function"
    },
    {
      "constant": true,
      "inputs": [
        {
          "name": "",
          "type": "uint256"
        }
      ],
      "name": "eacOptions",
      "outputs": [
        {
          "name": "",
          "type": "uint256"
        }
      ],
      "payable": false,
      "stateMutability": "view",
      "type": "function"
    },
    {
      "constant": true,
      "inputs": [],
      "name": "eac",
      "outputs": [
        {
          "name": "",
          "type": "address"
        }
      ],
      "payable": false,
      "stateMutability": "view",
      "type": "function"
    },
    {
      "constant": true,
      "inputs": [],
      "name": "wallet",
      "outputs": [
        {
          "name": "",
          "type": "address"
        }
      ],
      "payable": false,
      "stateMutability": "view",
      "type": "function"
    },
    {
      "constant": true,
      "inputs": [],
      "name": "maxIntervals",
      "outputs": [
        {
          "name": "",
          "type": "uint256"
        }
      ],
      "payable": false,
      "stateMutability": "view",
      "type": "function"
    },
    {
      "constant": true,
      "inputs": [],
      "name": "alarm",
      "outputs": [
        {
          "name": "",
          "type": "address"
        }
      ],
      "payable": false,
      "stateMutability": "view",
      "type": "function"
    },
    {
      "constant": true,
      "inputs": [],
      "name": "delegate",
      "outputs": [
        {
          "name": "",
          "type": "address"
        }
      ],
      "payable": false,
      "stateMutability": "view",
      "type": "function"
    },
    {
      "constant": true,
      "inputs": [],
      "name": "safetyMultiplier",
      "outputs": [
        {
          "name": "",
          "type": "uint256"
        }
      ],
      "payable": false,
      "stateMutability": "view",
      "type": "function"
    },
    {
      "constant": true,
      "inputs": [],
      "name": "period",
      "outputs": [
        {
          "name": "",
          "type": "uint256"
        }
      ],
      "payable": false,
      "stateMutability": "view",
      "type": "function"
    },
    {
      "payable": true,
      "stateMutability": "payable",
      "type": "fallback"
    },
    {
      "anonymous": false,
      "inputs": [
        {
          "indexed": true,
          "name": "sender",
          "type": "address"
        },
        {
          "indexed": false,
          "name": "amount",
          "type": "uint256"
        }
      ],
      "name": "Deposit_event",
      "type": "event"
    },
    {
      "anonymous": false,
      "inputs": [
        {
          "indexed": false,
          "name": "sender",
          "type": "address"
        },
        {
          "indexed": false,
          "name": "alarm",
          "type": "address"
        }
      ],
      "name": "ValidRequest_event",
      "type": "event"
    },
    {
      "anonymous": false,
      "inputs": [
        {
          "indexed": false,
          "name": "params",
          "type": "bool[6]"
        }
      ],
      "name": "InvalidRequest_event",
      "type": "event"
    },
    {
      "constant": false,
      "inputs": [
        {
          "name": "_eac",
          "type": "address"
        },
        {
          "name": "_delegate",
          "type": "address"
        },
        {
          "name": "_wallet",
          "type": "address"
        },
        {
          "name": "_priorityCaller",
          "type": "address"
        },
        {
          "name": "_recurringAlarmClockOptions",
          "type": "uint256[3]"
        },
        {
          "name": "_ethereumAlarmClockOptions",
          "type": "uint256[10]"
        }
      ],
      "name": "initialize",
      "outputs": [],
      "payable": false,
      "stateMutability": "nonpayable",
      "type": "function"
    },
    {
      "constant": false,
      "inputs": [
        {
          "name": "_task",
          "type": "address"
        }
      ],
      "name": "start",
      "outputs": [],
      "payable": false,
      "stateMutability": "nonpayable",
      "type": "function"
    },
    {
      "constant": false,
      "inputs": [],
      "name": "cancel",
      "outputs": [],
      "payable": false,
      "stateMutability": "nonpayable",
      "type": "function"
    },
    {
      "constant": true,
      "inputs": [],
      "name": "amount",
      "outputs": [
        {
          "name": "",
          "type": "uint256"
        }
      ],
      "payable": false,
      "stateMutability": "view",
      "type": "function"
    }
  ],
  "bytecode": "0x608060405234801561001057600080fd5b50611712806100206000396000f3006080604052600436106100e6576000357c0100000000000000000000000000000000000000000000000000000000900463ffffffff1680631fd3ea521461014d5780633283f641146101a457806333961337146101fb578063363487bc14610226578063440c44eb1461025157806349ef876314610292578063521eb273146102e957806386ab53e514610340578063aa8c217c1461036b578063babccbab14610396578063bb7e8c2814610498578063c89e4361146104ef578063d57f1d9b14610546578063dd0b281e14610571578063ea8a1af0146105b4578063ef78d4fd146105cb575b60003414156100fc576100f76105f6565b61014b565b3373ffffffffffffffffffffffffffffffffffffffff167f13d8b731cfddb1e8d6d230a4f64afe94251cf4c4fa93e730ebda89a63f8baa21346040518082815260200191505060405180910390a25b005b34801561015957600080fd5b50610162610884565b604051808273ffffffffffffffffffffffffffffffffffffffff1673ffffffffffffffffffffffffffffffffffffffff16815260200191505060405180910390f35b3480156101b057600080fd5b506101b96108aa565b604051808273ffffffffffffffffffffffffffffffffffffffff1673ffffffffffffffffffffffffffffffffffffffff16815260200191505060405180910390f35b34801561020757600080fd5b506102106108d0565b6040518082815260200191505060405180910390f35b34801561023257600080fd5b5061023b6108d6565b6040518082815260200191505060405180910390f35b34801561025d57600080fd5b5061027c600480360381019080803590602001909291905050506108dc565b6040518082815260200191505060405180910390f35b34801561029e57600080fd5b506102a76108f6565b604051808273ffffffffffffffffffffffffffffffffffffffff1673ffffffffffffffffffffffffffffffffffffffff16815260200191505060405180910390f35b3480156102f557600080fd5b506102fe61091c565b604051808273ffffffffffffffffffffffffffffffffffffffff1673ffffffffffffffffffffffffffffffffffffffff16815260200191505060405180910390f35b34801561034c57600080fd5b50610355610942565b6040518082815260200191505060405180910390f35b34801561037757600080fd5b50610380610948565b6040518082815260200191505060405180910390f35b3480156103a257600080fd5b50610496600480360381019080803573ffffffffffffffffffffffffffffffffffffffff169060200190929190803573ffffffffffffffffffffffffffffffffffffffff169060200190929190803573ffffffffffffffffffffffffffffffffffffffff169060200190929190803573ffffffffffffffffffffffffffffffffffffffff1690602001909291908060600190600380602002604051908101604052809291908260036020028082843782019150505050509192919290806101400190600a806020026040519081016040528092919082600a6020028082843782019150505050509192919290505050610968565b005b3480156104a457600080fd5b506104ad610b83565b604051808273ffffffffffffffffffffffffffffffffffffffff1673ffffffffffffffffffffffffffffffffffffffff16815260200191505060405180910390f35b3480156104fb57600080fd5b50610504610ba9565b604051808273ffffffffffffffffffffffffffffffffffffffff1673ffffffffffffffffffffffffffffffffffffffff16815260200191505060405180910390f35b34801561055257600080fd5b5061055b610bcf565b6040518082815260200191505060405180910390f35b34801561057d57600080fd5b506105b2600480360381019080803573ffffffffffffffffffffffffffffffffffffffff169060200190929190505050610bd5565b005b3480156105c057600080fd5b506105c9610d0d565b005b3480156105d757600080fd5b506105e0610e2d565b6040518082815260200191505060405180910390f35b6000600860009054906101000a900473ffffffffffffffffffffffffffffffffffffffff1673ffffffffffffffffffffffffffffffffffffffff163373ffffffffffffffffffffffffffffffffffffffff1614151561065457600080fd5b601554601654149050600360009054906101000a900473ffffffffffffffffffffffffffffffffffffffff1673ffffffffffffffffffffffffffffffffffffffff16635601eaea6016546015546040518363ffffffff167c01000000000000000000000000000000000000000000000000000000000281526004018083815260200182815260200192505050602060405180830381600087803b1580156106fa57600080fd5b505af115801561070e573d6000803e3d6000fd5b505050506040513d602081101561072457600080fd5b810190808051906020019092919050505050801561084557600560009054906101000a900473ffffffffffffffffffffffffffffffffffffffff1673ffffffffffffffffffffffffffffffffffffffff1663daf1548c6040518163ffffffff167c0100000000000000000000000000000000000000000000000000000000028152600401602060405180830381600087803b1580156107c257600080fd5b505af11580156107d6573d6000803e3d6000fd5b505050506040513d60208110156107ec57600080fd5b8101908080519060200190929190505050506000600860006101000a81548173ffffffffffffffffffffffffffffffffffffffff021916908373ffffffffffffffffffffffffffffffffffffffff160217905550610881565b60166000815480929190600101919050555060145460096005600a8110151561086a57fe5b0160008282540192505081905550610880610e33565b5b50565b600760009054906101000a900473ffffffffffffffffffffffffffffffffffffffff1681565b600360009054906101000a900473ffffffffffffffffffffffffffffffffffffffff1681565b60025481565b60165481565b600981600a811015156108eb57fe5b016000915090505481565b600460009054906101000a900473ffffffffffffffffffffffffffffffffffffffff1681565b600660009054906101000a900473ffffffffffffffffffffffffffffffffffffffff1681565b60155481565b60008060096006600a8110151561095b57fe5b01549050803a0291505090565b6000600254141515610a08576040517f08c379a00000000000000000000000000000000000000000000000000000000081526004018080602001828103825260368152602001807f636f6e74726163742063616e206f6e6c79206265206265666f7265207468652081526020017f616c61726d20636c6f636b20697320737461727465640000000000000000000081525060400191505060405180910390fd5b85600460006101000a81548173ffffffffffffffffffffffffffffffffffffffff021916908373ffffffffffffffffffffffffffffffffffffffff16021790555083600660006101000a81548173ffffffffffffffffffffffffffffffffffffffff021916908373ffffffffffffffffffffffffffffffffffffffff16021790555084600560006101000a81548173ffffffffffffffffffffffffffffffffffffffff021916908373ffffffffffffffffffffffffffffffffffffffff16021790555082600760006101000a81548173ffffffffffffffffffffffffffffffffffffffff021916908373ffffffffffffffffffffffffffffffffffffffff16021790555080600990600a610b1d929190611617565b50816000600381101515610b2d57fe5b6020020151601381905550816001600381101515610b4757fe5b6020020151601481905550816002600381101515610b6157fe5b6020020151601581905550600160168190555043600281905550505050505050565b600860009054906101000a900473ffffffffffffffffffffffffffffffffffffffff1681565b600560009054906101000a900473ffffffffffffffffffffffffffffffffffffffff1681565b60135481565b600073ffffffffffffffffffffffffffffffffffffffff16600360009054906101000a900473ffffffffffffffffffffffffffffffffffffffff1673ffffffffffffffffffffffffffffffffffffffff16141515610cc1576040517f08c379a00000000000000000000000000000000000000000000000000000000081526004018080602001828103825260348152602001807f636f6e74726163742063616e206f6e6c7920626520737461727465642077686581526020017f6e2074686520616c61726d20697320656d70747900000000000000000000000081525060400191505060405180910390fd5b80600360006101000a81548173ffffffffffffffffffffffffffffffffffffffff021916908373ffffffffffffffffffffffffffffffffffffffff160217905550610d0a610e33565b50565b600360009054906101000a900473ffffffffffffffffffffffffffffffffffffffff1673ffffffffffffffffffffffffffffffffffffffff163373ffffffffffffffffffffffffffffffffffffffff16141515610d6957600080fd5b600560009054906101000a900473ffffffffffffffffffffffffffffffffffffffff1673ffffffffffffffffffffffffffffffffffffffff1663daf1548c6040518163ffffffff167c0100000000000000000000000000000000000000000000000000000000028152600401602060405180830381600087803b158015610def57600080fd5b505af1158015610e03573d6000803e3d6000fd5b505050506040513d6020811015610e1957600080fd5b810190808051906020019092919050505050565b60145481565b6000806000610e40611657565b610e4861167a565b610e5061169e565b600560009054906101000a900473ffffffffffffffffffffffffffffffffffffffff1673ffffffffffffffffffffffffffffffffffffffff1663beabacc8600030610e99610948565b6040518463ffffffff167c0100000000000000000000000000000000000000000000000000000000028152600401808473ffffffffffffffffffffffffffffffffffffffff1673ffffffffffffffffffffffffffffffffffffffff1681526020018373ffffffffffffffffffffffffffffffffffffffff1673ffffffffffffffffffffffffffffffffffffffff1681526020018281526020019350505050602060405180830381600087803b158015610f5157600080fd5b505af1158015610f65573d6000803e3d6000fd5b505050506040513d6020811015610f7b57600080fd5b8101908080519060200190929190505050503073ffffffffffffffffffffffffffffffffffffffff16319550606486811515610fb357fe5b0494508486039350606060405190810160405280600660009054906101000a900473ffffffffffffffffffffffffffffffffffffffff1673ffffffffffffffffffffffffffffffffffffffff1673ffffffffffffffffffffffffffffffffffffffff168152602001600760009054906101000a900473ffffffffffffffffffffffffffffffffffffffff1673ffffffffffffffffffffffffffffffffffffffff1673ffffffffffffffffffffffffffffffffffffffff1681526020013073ffffffffffffffffffffffffffffffffffffffff1673ffffffffffffffffffffffffffffffffffffffff1681525092506101806040519081016040528086815260200185815260200160096000600a811015156110ca57fe5b0154815260200160096001600a811015156110e157fe5b0154815260200160096002600a811015156110f857fe5b0154815260200160096003600a8110151561110f57fe5b0154815260200160096004600a8110151561112657fe5b0154815260200160096005600a8110151561113d57fe5b0154815260200160096006600a8110151561115457fe5b0154815260200160096007600a8110151561116b57fe5b0154815260200160096008600a8110151561118257fe5b01548152602001600980600a8110151561119857fe5b01548152509150600460009054906101000a900473ffffffffffffffffffffffffffffffffffffffff1673ffffffffffffffffffffffffffffffffffffffff16631e35ff058484896040518463ffffffff167c01000000000000000000000000000000000000000000000000000000000281526004018084600360200280838360005b8381101561123657808201518184015260208101905061121b565b5050505090500183600c60200280838360005b83811015611264578082015181840152602081019050611249565b50505050905001828152602001935050505060c060405180830381600087803b15801561129057600080fd5b505af11580156112a4573d6000803e3d6000fd5b505050506040513d601f19601f8201168201806040525060c08110156112c957600080fd5b810190809190505090508060006006811015156112e257fe5b6020020151801561130357508060016006811015156112fd57fe5b60200201515b801561131f575080600260068110151561131957fe5b60200201515b801561133b575080600360068110151561133557fe5b60200201515b8015611357575080600460068110151561135157fe5b60200201515b8015611373575080600560068110151561136d57fe5b60200201515b156115af57600460009054906101000a900473ffffffffffffffffffffffffffffffffffffffff1673ffffffffffffffffffffffffffffffffffffffff1663d7ceab4c8785856040518463ffffffff167c01000000000000000000000000000000000000000000000000000000000281526004018083600360200280838360005b8381101561140f5780820151818401526020810190506113f4565b5050505090500182600c60200280838360005b8381101561143d578082015181840152602081019050611422565b505050509050018060200182810382526000815260200160200193505050506020604051808303818588803b15801561147557600080fd5b505af1158015611489573d6000803e3d6000fd5b50505050506040513d60208110156114a057600080fd5b8101908080519060200190929190505050600860006101000a81548173ffffffffffffffffffffffffffffffffffffffff021916908373ffffffffffffffffffffffffffffffffffffffff1602179055507f673bacbd542d3e65fd90fc7fc8631e3a9bdc4ae4ffad940781805f85596c172133600860009054906101000a900473ffffffffffffffffffffffffffffffffffffffff16604051808373ffffffffffffffffffffffffffffffffffffffff1673ffffffffffffffffffffffffffffffffffffffff1681526020018273ffffffffffffffffffffffffffffffffffffffff1673ffffffffffffffffffffffffffffffffffffffff1681526020019250505060405180910390a161160f565b7febec2a47d1b8a4f2300d8b1a3f76af4035584f4667e3a47730f7c47eeb4675af816040518082600660200280838360005b838110156115fc5780820151818401526020810190506115e1565b5050505090500191505060405180910390a15b505050505050565b82600a8101928215611646579160200282015b8281111561164557825182559160200191906001019061162a565b5b50905061165391906116c1565b5090565b606060405190810160405280600390602082028038833980820191505090505090565b61018060405190810160405280600c90602082028038833980820191505090505090565b60c060405190810160405280600690602082028038833980820191505090505090565b6116e391905b808211156116df5760008160009055506001016116c7565b5090565b905600a165627a7a72305820567f11c7b235c818975fbb61d4a4fc346eb1d309b0452ba76f51986fecae2aa30029",
  "source": "pragma solidity ^0.4.23;\r\n\r\nimport \"./external/RequestFactoryInterface.sol\";\r\nimport \"./Interfaces.sol\";\r\n\r\ncontract RecurringAlarmClock is IRecurringAlarmClock {\r\n\r\n    uint public blockStarted;               // The block the alarm clock was started\r\n    address constant ETHER = address(0x0);  // Used for code readability\r\n    \r\n    ITask public task;                      // The task to execute when the alarm is triggered\r\n    RequestFactoryInterface public eac;     // Interface provided by the Ethereum Alarm Clock\r\n    IFuturePaymentDelegate public delegate; // The delegate that pulls funds for each alarm\r\n    address public wallet;                  // The address which owns the alarm and collects any leftover funds\r\n    address public priorityCaller;          // The priority recipient of part of the alarm deposit\r\n    address public alarm;                   // The next scheduled alarm contract\r\n\r\n    uint[10] public eacOptions;             // The options used when setting an alarm using the Ethereum Alarm Clock\r\n    uint public safetyMultiplier;           // The multiplier to use when calculating the alarm cost\r\n    uint public period;                     // The amount of time between each alarm\r\n    uint public maxIntervals;               // The number of times this alarm will go off\r\n    uint public currentInterval;            // Keeps track of how many alarms have been called\r\n\r\n    function initialize (\r\n        RequestFactoryInterface _eac,\r\n        IFuturePaymentDelegate _delegate,\r\n        address _wallet,\r\n        address _priorityCaller,\r\n        uint[3] _recurringAlarmClockOptions,\r\n        uint[10] _ethereumAlarmClockOptions\r\n    ) public {\r\n        require(blockStarted == 0, \"contract can only be before the alarm clock is started\");\r\n\r\n        eac = _eac;\r\n        wallet = _wallet;\r\n        delegate = _delegate;\r\n        priorityCaller = _priorityCaller;\r\n\r\n        eacOptions = _ethereumAlarmClockOptions;\r\n        safetyMultiplier = _recurringAlarmClockOptions[0];\r\n        period = _recurringAlarmClockOptions[1];\r\n        maxIntervals = _recurringAlarmClockOptions[2];\r\n        currentInterval = 1;\r\n        \r\n        blockStarted = block.number;\r\n    }\r\n\r\n    function start (ITask _task) public {\r\n        require(task == address(0x0), \"contract can only be started when the alarm is empty\");\r\n        \r\n        task = _task;\r\n        \r\n        scheduleAlarm();\r\n    }\r\n\r\n    function cancel () public onlyTask {\r\n        delegate.unschedule();\r\n    }\r\n\r\n    function amount () public view returns (uint) {\r\n        uint gas = eacOptions[6];\r\n        return tx.gasprice * gas; // return tx.gasprice * gas * safetyMultiplier / 10^18;\r\n    }\r\n\r\n    function () public payable {\r\n        if(msg.value == 0)\r\n            handleAlarmCall();\r\n        else\r\n            emit Deposit_event(msg.sender, msg.value);\r\n    }\r\n\r\n    function handleAlarmCall () internal {\r\n        require(msg.sender == address(alarm));\r\n        \r\n        bool finished = currentInterval == maxIntervals;\r\n        task.execute(currentInterval, maxIntervals); // ignore success or failure\r\n\r\n        if(finished){\r\n            delegate.unschedule();\r\n            alarm = address(0x0);\r\n        } else {\r\n            currentInterval++;\r\n            eacOptions[5] += period;\r\n            scheduleAlarm();\r\n        }\r\n    }\r\n\r\n    function scheduleAlarm () internal {\r\n        delegate.transfer(ETHER, this, amount());\r\n        \r\n        uint endowment = address(this).balance;    \r\n        uint priorityFee = endowment / 100;\r\n        uint callBounty = endowment - priorityFee;\r\n\r\n        address[3] memory addressOptions = [\r\n        //  this,           // In the future, I'd like the owner address to equal this contract and keep the wallet as the change address\r\n            wallet,         // Change from the alarm is sent to this address, also the account that can owns the alarm. \r\n            priorityCaller, // The priority fee is sent to this address\r\n            this            // The contract to call at execution\r\n        ];\r\n\r\n        uint[12] memory uintOptions = [\r\n            priorityFee,    // A fee that goes to the fee recipient\r\n            callBounty,     // The bounty for the account that triggers this alarm\r\n            eacOptions[0],  // claimWindowSize\r\n            eacOptions[1],  // freezePeriod\r\n            eacOptions[2],  // reservedWindowSize\r\n            eacOptions[3],  // 2 = Use timestamp based scheduling instead of blocks\r\n            eacOptions[4],  // The size of the execution window\r\n            eacOptions[5],  // The start of the execution window\r\n            eacOptions[6],  // The amount of gas to be sent with the transaction\r\n            eacOptions[7],  // The amount of ether to be sent\r\n            eacOptions[8],  // The minimum gas price for the alarm when called\r\n            eacOptions[9]   // The required deposit by the claimer\r\n        ];\r\n\r\n        bool[6] memory params = eac.validateRequestParams(\r\n            addressOptions,\r\n            uintOptions,\r\n            endowment\r\n        );\r\n\r\n        if(params[0] && params[1] && params[2] && params[3] && params[4] && params[5]){\r\n            alarm = eac.createValidatedRequest.value(endowment)(addressOptions, uintOptions, \"\");\r\n            emit ValidRequest_event(msg.sender, alarm);\r\n        } else {\r\n            emit InvalidRequest_event(params);\r\n        }\r\n    }\r\n\r\n    modifier onlyTask () {\r\n        require(msg.sender == address(task));\r\n        _;\r\n    }\r\n    \r\n    event Deposit_event (address indexed sender, uint amount);\r\n    event ValidRequest_event (address sender, address alarm);\r\n    event InvalidRequest_event (bool[6] params);\r\n}\r\n",
  "sourcePath": "C:\\Users\\My\\Documents\\GitHub\\everchain-project\\recurring-alarm-clock\\contracts\\RecurringAlarmClock.sol",
  "compiler": {
    "name": "solc",
    "version": "0.4.24+commit.e67f0147.Emscripten.clang"
  },
  "schemaVersion": "2.0.1",
  "updatedAt": "2018-10-07T00:40:00.822Z"
}