{
  "contractName": "RecurringAlarmClock",
  "abi": [
    {
      "constant": true,
      "inputs": [],
      "name": "BASE_GAS_COST",
      "outputs": [
        {
          "name": "",
          "type": "uint256"
        }
      ],
      "payable": false,
      "stateMutability": "view",
      "type": "function",
      "signature": "0x079766a8"
    },
    {
      "constant": true,
      "inputs": [],
      "name": "priorityCaller",
      "outputs": [
        {
          "name": "",
          "type": "address"
        }
      ],
      "payable": false,
      "stateMutability": "view",
      "type": "function",
      "signature": "0x1fd3ea52"
    },
    {
      "constant": true,
      "inputs": [
        {
          "name": "",
          "type": "uint256"
        }
      ],
      "name": "limits",
      "outputs": [
        {
          "name": "",
          "type": "uint256"
        }
      ],
      "payable": false,
      "stateMutability": "view",
      "type": "function",
      "signature": "0x20e9daf1"
    },
    {
      "constant": true,
      "inputs": [],
      "name": "intervalUnit",
      "outputs": [
        {
          "name": "",
          "type": "uint256"
        }
      ],
      "payable": false,
      "stateMutability": "view",
      "type": "function",
      "signature": "0x226b45dd"
    },
    {
      "constant": true,
      "inputs": [],
      "name": "alarmStart",
      "outputs": [
        {
          "name": "",
          "type": "uint256"
        }
      ],
      "payable": false,
      "stateMutability": "view",
      "type": "function",
      "signature": "0x2352b8c0"
    },
    {
      "constant": true,
      "inputs": [],
      "name": "currentInterval",
      "outputs": [
        {
          "name": "",
          "type": "uint256"
        }
      ],
      "payable": false,
      "stateMutability": "view",
      "type": "function",
      "signature": "0x363487bc"
    },
    {
      "constant": true,
      "inputs": [],
      "name": "intervalValue",
      "outputs": [
        {
          "name": "",
          "type": "uint256"
        }
      ],
      "payable": false,
      "stateMutability": "view",
      "type": "function",
      "signature": "0x3d9bb20f"
    },
    {
      "constant": true,
      "inputs": [],
      "name": "callAddress",
      "outputs": [
        {
          "name": "",
          "type": "address"
        }
      ],
      "payable": false,
      "stateMutability": "view",
      "type": "function",
      "signature": "0x3e23ee43"
    },
    {
      "constant": true,
      "inputs": [],
      "name": "callData",
      "outputs": [
        {
          "name": "",
          "type": "bytes"
        }
      ],
      "payable": false,
      "stateMutability": "view",
      "type": "function",
      "signature": "0x4e417a98"
    },
    {
      "constant": true,
      "inputs": [],
      "name": "wallet",
      "outputs": [
        {
          "name": "",
          "type": "address"
        }
      ],
      "payable": false,
      "stateMutability": "view",
      "type": "function",
      "signature": "0x521eb273"
    },
    {
      "constant": true,
      "inputs": [],
      "name": "EAC",
      "outputs": [
        {
          "name": "",
          "type": "address"
        }
      ],
      "payable": false,
      "stateMutability": "view",
      "type": "function",
      "signature": "0x6cf48a55"
    },
    {
      "constant": true,
      "inputs": [],
      "name": "maxIntervals",
      "outputs": [
        {
          "name": "",
          "type": "uint256"
        }
      ],
      "payable": false,
      "stateMutability": "view",
      "type": "function",
      "signature": "0x86ab53e5"
    },
    {
      "constant": true,
      "inputs": [],
      "name": "windowSize",
      "outputs": [
        {
          "name": "",
          "type": "uint256"
        }
      ],
      "payable": false,
      "stateMutability": "view",
      "type": "function",
      "signature": "0x8a14117a"
    },
    {
      "constant": true,
      "inputs": [],
      "name": "blockInitialized",
      "outputs": [
        {
          "name": "",
          "type": "uint256"
        }
      ],
      "payable": false,
      "stateMutability": "view",
      "type": "function",
      "signature": "0x9bc40c4c"
    },
    {
      "constant": true,
      "inputs": [],
      "name": "alarm",
      "outputs": [
        {
          "name": "",
          "type": "address"
        }
      ],
      "payable": false,
      "stateMutability": "view",
      "type": "function",
      "signature": "0xbb7e8c28"
    },
    {
      "constant": true,
      "inputs": [],
      "name": "callGas",
      "outputs": [
        {
          "name": "",
          "type": "uint256"
        }
      ],
      "payable": false,
      "stateMutability": "view",
      "type": "function",
      "signature": "0xc1459d31"
    },
    {
      "constant": true,
      "inputs": [],
      "name": "factory",
      "outputs": [
        {
          "name": "",
          "type": "address"
        }
      ],
      "payable": false,
      "stateMutability": "view",
      "type": "function",
      "signature": "0xc45a0155"
    },
    {
      "constant": true,
      "inputs": [],
      "name": "delegate",
      "outputs": [
        {
          "name": "",
          "type": "address"
        }
      ],
      "payable": false,
      "stateMutability": "view",
      "type": "function",
      "signature": "0xc89e4361"
    },
    {
      "constant": true,
      "inputs": [],
      "name": "callValue",
      "outputs": [
        {
          "name": "",
          "type": "uint256"
        }
      ],
      "payable": false,
      "stateMutability": "view",
      "type": "function",
      "signature": "0xd62457f6"
    },
    {
      "constant": true,
      "inputs": [],
      "name": "gasPrice",
      "outputs": [
        {
          "name": "",
          "type": "address"
        }
      ],
      "payable": false,
      "stateMutability": "view",
      "type": "function",
      "signature": "0xfe173b97"
    },
    {
      "inputs": [],
      "payable": false,
      "stateMutability": "nonpayable",
      "type": "constructor",
      "signature": "constructor"
    },
    {
      "payable": true,
      "stateMutability": "payable",
      "type": "fallback"
    },
    {
      "anonymous": false,
      "inputs": [
        {
          "indexed": true,
          "name": "msgSender",
          "type": "address"
        },
        {
          "indexed": false,
          "name": "msgValue",
          "type": "uint256"
        }
      ],
      "name": "AlarmPaid_event",
      "type": "event",
      "signature": "0xec736eda410777c3e885f2301f1963ee8748c0ae65da066567ae125fb6dad98e"
    },
    {
      "anonymous": false,
      "inputs": [
        {
          "indexed": false,
          "name": "newAlarm",
          "type": "address"
        }
      ],
      "name": "ValidRequest_event",
      "type": "event",
      "signature": "0x56c039ceb7f3be5b9a60845fef29d56e277f6fc3d9b2fe5d58e642fc45f6d7e7"
    },
    {
      "anonymous": false,
      "inputs": [
        {
          "indexed": false,
          "name": "reason",
          "type": "bool[6]"
        }
      ],
      "name": "InvalidRequest_event",
      "type": "event",
      "signature": "0xebec2a47d1b8a4f2300d8b1a3f76af4035584f4667e3a47730f7c47eeb4675af"
    },
    {
      "anonymous": false,
      "inputs": [
        {
          "indexed": true,
          "name": "delegate",
          "type": "address"
        },
        {
          "indexed": true,
          "name": "callAddress",
          "type": "address"
        },
        {
          "indexed": false,
          "name": "callData",
          "type": "bytes"
        },
        {
          "indexed": false,
          "name": "callOptions",
          "type": "uint256[7]"
        }
      ],
      "name": "Start_event",
      "type": "event",
      "signature": "0xc212bf07854a0351b03f51c2298c205fb0dacc3d3e295c201cb638bc723f205b"
    },
    {
      "anonymous": false,
      "inputs": [
        {
          "indexed": false,
          "name": "alarm",
          "type": "address"
        },
        {
          "indexed": true,
          "name": "callAddress",
          "type": "address"
        },
        {
          "indexed": false,
          "name": "callValue",
          "type": "uint256"
        },
        {
          "indexed": false,
          "name": "callData",
          "type": "bytes"
        },
        {
          "indexed": false,
          "name": "currentInterval",
          "type": "uint256"
        },
        {
          "indexed": false,
          "name": "maxIntervals",
          "type": "uint256"
        },
        {
          "indexed": false,
          "name": "success",
          "type": "bool"
        },
        {
          "indexed": false,
          "name": "result",
          "type": "bytes"
        }
      ],
      "name": "Execute_event",
      "type": "event",
      "signature": "0x968531fbda7ff008c2a442854562e50e1e83e9abac26892523e1ccc0a37fc046"
    },
    {
      "anonymous": false,
      "inputs": [
        {
          "indexed": true,
          "name": "delegate",
          "type": "address"
        }
      ],
      "name": "Destroy_event",
      "type": "event",
      "signature": "0xbc7064aca23c0e69b68258a088ec093344fca10e8b09429256169782e7f029d9"
    },
    {
      "constant": false,
      "inputs": [
        {
          "name": "_EAC",
          "type": "address"
        },
        {
          "name": "_wallet",
          "type": "address"
        },
        {
          "name": "_delegate",
          "type": "address"
        }
      ],
      "name": "initialize",
      "outputs": [],
      "payable": false,
      "stateMutability": "nonpayable",
      "type": "function",
      "signature": "0xc0c53b8b"
    },
    {
      "constant": false,
      "inputs": [
        {
          "name": "_callAddress",
          "type": "address"
        },
        {
          "name": "_callData",
          "type": "bytes"
        },
        {
          "name": "_callOptions",
          "type": "uint256[7]"
        }
      ],
      "name": "start",
      "outputs": [],
      "payable": false,
      "stateMutability": "nonpayable",
      "type": "function",
      "signature": "0x46b9c7b0"
    },
    {
      "constant": false,
      "inputs": [],
      "name": "destroy",
      "outputs": [],
      "payable": false,
      "stateMutability": "nonpayable",
      "type": "function",
      "signature": "0x83197ef0"
    },
    {
      "constant": false,
      "inputs": [
        {
          "name": "_priorityCaller",
          "type": "address"
        }
      ],
      "name": "setPriorityCaller",
      "outputs": [],
      "payable": false,
      "stateMutability": "nonpayable",
      "type": "function",
      "signature": "0xff080651"
    },
    {
      "constant": false,
      "inputs": [
        {
          "name": "_limits",
          "type": "uint256[3]"
        }
      ],
      "name": "setExecutionLimits",
      "outputs": [],
      "payable": false,
      "stateMutability": "nonpayable",
      "type": "function",
      "signature": "0x3c2d7ec8"
    },
    {
      "constant": false,
      "inputs": [
        {
          "name": "_oracle",
          "type": "address"
        }
      ],
      "name": "setGasPriceOracle",
      "outputs": [],
      "payable": false,
      "stateMutability": "nonpayable",
      "type": "function",
      "signature": "0xa4d0c0a9"
    }
  ],
  "bytecode": "0x608060405234801561001057600080fd5b5043601481905550612ebb806100276000396000f3fe608060405260043610610154576000357c0100000000000000000000000000000000000000000000000000000000900463ffffffff168063079766a8146101bb5780631fd3ea52146101e657806320e9daf11461023d578063226b45dd1461028c5780632352b8c0146102b7578063363487bc146102e25780633c2d7ec81461030d5780633d9bb20f1461037f5780633e23ee43146103aa57806346b9c7b0146104015780634e417a981461052b578063521eb273146105bb5780636cf48a551461061257806383197ef01461066957806386ab53e5146106805780638a14117a146106ab5780639bc40c4c146106d6578063a4d0c0a914610701578063bb7e8c2814610752578063c0c53b8b146107a9578063c1459d311461083a578063c45a015514610865578063c89e4361146108bc578063d62457f614610913578063fe173b971461093e578063ff08065114610995575b60003411156101b0573373ffffffffffffffffffffffffffffffffffffffff167fec736eda410777c3e885f2301f1963ee8748c0ae65da066567ae125fb6dad98e346040518082815260200191505060405180910390a26101b9565b6101b86109e6565b5b005b3480156101c757600080fd5b506101d0611053565b6040518082815260200191505060405180910390f35b3480156101f257600080fd5b506101fb611059565b604051808273ffffffffffffffffffffffffffffffffffffffff1673ffffffffffffffffffffffffffffffffffffffff16815260200191505060405180910390f35b34801561024957600080fd5b506102766004803603602081101561026057600080fd5b810190808035906020019092919050505061107f565b6040518082815260200191505060405180910390f35b34801561029857600080fd5b506102a1611099565b6040518082815260200191505060405180910390f35b3480156102c357600080fd5b506102cc61109f565b6040518082815260200191505060405180910390f35b3480156102ee57600080fd5b506102f76110a5565b6040518082815260200191505060405180910390f35b34801561031957600080fd5b5061037d6004803603606081101561033057600080fd5b8101908080606001906003806020026040519081016040528092919082600360200280828437600081840152601f19601f82011690508083019250505050505091929192905050506110ab565b005b34801561038b57600080fd5b50610394611250565b6040518082815260200191505060405180910390f35b3480156103b657600080fd5b506103bf611256565b604051808273ffffffffffffffffffffffffffffffffffffffff1673ffffffffffffffffffffffffffffffffffffffff16815260200191505060405180910390f35b34801561040d57600080fd5b50610529600480360361012081101561042557600080fd5b81019080803573ffffffffffffffffffffffffffffffffffffffff1690602001909291908035906020019064010000000081111561046257600080fd5b82018360208201111561047457600080fd5b8035906020019184600183028401116401000000008311171561049657600080fd5b91908080601f016020809104026020016040519081016040528093929190818152602001838380828437600081840152601f19601f8201169050808301925050505050505091929192908060e001906007806020026040519081016040528092919082600760200280828437600081840152601f19601f820116905080830192505050505050919291929050505061127c565b005b34801561053757600080fd5b506105406117a1565b6040518080602001828103825283818151815260200191508051906020019080838360005b83811015610580578082015181840152602081019050610565565b50505050905090810190601f1680156105ad5780820380516001836020036101000a031916815260200191505b509250505060405180910390f35b3480156105c757600080fd5b506105d061183f565b604051808273ffffffffffffffffffffffffffffffffffffffff1673ffffffffffffffffffffffffffffffffffffffff16815260200191505060405180910390f35b34801561061e57600080fd5b50610627611865565b604051808273ffffffffffffffffffffffffffffffffffffffff1673ffffffffffffffffffffffffffffffffffffffff16815260200191505060405180910390f35b34801561067557600080fd5b5061067e61188b565b005b34801561068c57600080fd5b50610695611b5b565b6040518082815260200191505060405180910390f35b3480156106b757600080fd5b506106c0611b61565b6040518082815260200191505060405180910390f35b3480156106e257600080fd5b506106eb611b67565b6040518082815260200191505060405180910390f35b34801561070d57600080fd5b506107506004803603602081101561072457600080fd5b81019080803573ffffffffffffffffffffffffffffffffffffffff169060200190929190505050611b6d565b005b34801561075e57600080fd5b50610767611d41565b604051808273ffffffffffffffffffffffffffffffffffffffff1673ffffffffffffffffffffffffffffffffffffffff16815260200191505060405180910390f35b3480156107b557600080fd5b50610838600480360360608110156107cc57600080fd5b81019080803573ffffffffffffffffffffffffffffffffffffffff169060200190929190803573ffffffffffffffffffffffffffffffffffffffff169060200190929190803573ffffffffffffffffffffffffffffffffffffffff169060200190929190505050611d67565b005b34801561084657600080fd5b5061084f611f21565b6040518082815260200191505060405180910390f35b34801561087157600080fd5b5061087a611f27565b604051808273ffffffffffffffffffffffffffffffffffffffff1673ffffffffffffffffffffffffffffffffffffffff16815260200191505060405180910390f35b3480156108c857600080fd5b506108d1611f4d565b604051808273ffffffffffffffffffffffffffffffffffffffff1673ffffffffffffffffffffffffffffffffffffffff16815260200191505060405180910390f35b34801561091f57600080fd5b50610928611f73565b6040518082815260200191505060405180910390f35b34801561094a57600080fd5b50610953611f79565b604051808273ffffffffffffffffffffffffffffffffffffffff1673ffffffffffffffffffffffffffffffffffffffff16815260200191505060405180910390f35b3480156109a157600080fd5b506109e4600480360360208110156109b857600080fd5b81019080803573ffffffffffffffffffffffffffffffffffffffff169060200190929190505050611f9f565b005b602460009054906101000a900473ffffffffffffffffffffffffffffffffffffffff1673ffffffffffffffffffffffffffffffffffffffff163373ffffffffffffffffffffffffffffffffffffffff16141515610ad1576040517f08c379a000000000000000000000000000000000000000000000000000000000815260040180806020018281038252602a8152602001807f6f6e6c792074686520616c61726d2063616e207472696767657220746865206181526020017f6c61726d20636c6f636b0000000000000000000000000000000000000000000081525060400191505060405180910390fd5b6000602754141515610c1657601760009054906101000a900473ffffffffffffffffffffffffffffffffffffffff1673ffffffffffffffffffffffffffffffffffffffff1663beabacc86000306027546040518463ffffffff167c0100000000000000000000000000000000000000000000000000000000028152600401808473ffffffffffffffffffffffffffffffffffffffff1673ffffffffffffffffffffffffffffffffffffffff1681526020018373ffffffffffffffffffffffffffffffffffffffff1673ffffffffffffffffffffffffffffffffffffffff1681526020018281526020019350505050602060405180830381600087803b158015610bd957600080fd5b505af1158015610bed573d6000803e3d6000fd5b505050506040513d6020811015610c0357600080fd5b8101908080519060200190929190505050505b60006060602560009054906101000a900473ffffffffffffffffffffffffffffffffffffffff1673ffffffffffffffffffffffffffffffffffffffff166027545a9060266040518082805460018160011615610100020316600290048015610cb55780601f10610c93576101008083540402835291820191610cb5565b820191906000526020600020905b815481529060010190602001808311610ca1575b5050915050600060405180830381858888f193505050503d8060008114610cf8576040519150601f19603f3d011682016040523d82523d6000602084013e610cfd565b606091505b5091509150602560009054906101000a900473ffffffffffffffffffffffffffffffffffffffff1673ffffffffffffffffffffffffffffffffffffffff167f968531fbda7ff008c2a442854562e50e1e83e9abac26892523e1ccc0a37fc046602460009054906101000a900473ffffffffffffffffffffffffffffffffffffffff1660275460266023546022548888604051808873ffffffffffffffffffffffffffffffffffffffff1673ffffffffffffffffffffffffffffffffffffffff168152602001878152602001806020018681526020018581526020018415151515815260200180602001838103835288818154600181600116156101000203166002900481526020019150805460018160011615610100020316600290048015610e675780601f10610e3c57610100808354040283529160200191610e67565b820191906000526020600020905b815481529060010190602001808311610e4a57829003601f168201915b5050838103825284818151815260200191508051906020019080838360005b83811015610ea1578082015181840152602081019050610e86565b50505050905090810190601f168015610ece5780820380516001836020036101000a031916815260200191505b50995050505050505050505060405180910390a26022546023541080610ef657506000602254145b156110175760006021541415610f2857610f1d602054601e5461217390919063ffffffff16565b601e8190555061100a565b60016021541415610f5557610f4a602054601e5461218f90919063ffffffff16565b601e81905550611009565b60026021541415610f8257610f77602054601e546121ae90919063ffffffff16565b601e81905550611008565b60036021541415610faf57610fa4602054601e546121ce90919063ffffffff16565b601e81905550611007565b60046021541415610fdc57610fd1602054601e546121ef90919063ffffffff16565b601e81905550611006565b6005602154141561100557610ffe602054601e5461229b90919063ffffffff16565b601e819055505b5b5b5b5b5b61101261231e565b61103d565b602460006101000a81549073ffffffffffffffffffffffffffffffffffffffff02191690555b6023600081548092919060010191905055505050565b60155481565b601a60009054906101000a900473ffffffffffffffffffffffffffffffffffffffff1681565b601b8160038110151561108e57fe5b016000915090505481565b60215481565b601e5481565b60235481565b601660009054906101000a900473ffffffffffffffffffffffffffffffffffffffff1673ffffffffffffffffffffffffffffffffffffffff166307779627336040518263ffffffff167c0100000000000000000000000000000000000000000000000000000000028152600401808273ffffffffffffffffffffffffffffffffffffffff1673ffffffffffffffffffffffffffffffffffffffff16815260200191505060206040518083038186803b15801561116657600080fd5b505afa15801561117a573d6000803e3d6000fd5b505050506040513d602081101561119057600080fd5b8101908080519060200190929190505050151561123b576040517f08c379a000000000000000000000000000000000000000000000000000000000815260040180806020018281038252603c8152602001807f4f6e6c79207468652063616c6c2061646472657373206f7220612064656c656781526020017f6174652063616e20757064617465207468652063616c6c20646174610000000081525060400191505060405180910390fd5b80601b90600361124c929190612d63565b5050565b60205481565b602560009054906101000a900473ffffffffffffffffffffffffffffffffffffffff1681565b601660009054906101000a900473ffffffffffffffffffffffffffffffffffffffff1673ffffffffffffffffffffffffffffffffffffffff166307779627336040518263ffffffff167c0100000000000000000000000000000000000000000000000000000000028152600401808273ffffffffffffffffffffffffffffffffffffffff1673ffffffffffffffffffffffffffffffffffffffff16815260200191505060206040518083038186803b15801561133757600080fd5b505afa15801561134b573d6000803e3d6000fd5b505050506040513d602081101561136157600080fd5b8101908080519060200190929190505050151561140c576040517f08c379a000000000000000000000000000000000000000000000000000000000815260040180806020018281038252603c8152602001807f4f6e6c79207468652063616c6c2061646472657373206f7220612064656c656781526020017f6174652063616e20757064617465207468652063616c6c20646174610000000081525060400191505060405180910390fd5b600073ffffffffffffffffffffffffffffffffffffffff168373ffffffffffffffffffffffffffffffffffffffff161415151561144857600080fd5b4281600260078110151561145857fe5b60200201511115156114f8576040517f08c379a00000000000000000000000000000000000000000000000000000000081526004018080602001828103825260268152602001807f73746172742074696d657374616d702063616e6e6f7420626520696e2074686581526020017f20706173742e000000000000000000000000000000000000000000000000000081525060400191505060405180910390fd5b600081600360078110151561150957fe5b602002015114151515611584576040517f08c379a000000000000000000000000000000000000000000000000000000000815260040180806020018281038252601a8152602001807f77696e646f772073697a652063616e6e6f74206265207a65726f00000000000081525060200191505060405180910390fd5b82602560006101000a81548173ffffffffffffffffffffffffffffffffffffffff021916908373ffffffffffffffffffffffffffffffffffffffff16021790555081602690805190602001906115db929190612da3565b508060006007811015156115eb57fe5b602002015160278190555080600160078110151561160557fe5b602002015160288190555080600260078110151561161f57fe5b6020020151601e8190555080600360078110151561163957fe5b6020020151601f8190555080600460078110151561165357fe5b602002015160208190555080600560078110151561166d57fe5b602002015160218190555080600660078110151561168757fe5b602002015160228190555060016023819055506116a261231e565b8273ffffffffffffffffffffffffffffffffffffffff163373ffffffffffffffffffffffffffffffffffffffff167fc212bf07854a0351b03f51c2298c205fb0dacc3d3e295c201cb638bc723f205b8484604051808060200183600760200280838360005b83811015611722578082015181840152602081019050611707565b50505050905001828103825284818151815260200191508051906020019080838360005b83811015611761578082015181840152602081019050611746565b50505050905090810190601f16801561178e5780820380516001836020036101000a031916815260200191505b50935050505060405180910390a3505050565b60268054600181600116156101000203166002900480601f0160208091040260200160405190810160405280929190818152602001828054600181600116156101000203166002900480156118375780601f1061180c57610100808354040283529160200191611837565b820191906000526020600020905b81548152906001019060200180831161181a57829003601f168201915b505050505081565b601660009054906101000a900473ffffffffffffffffffffffffffffffffffffffff1681565b601960009054906101000a900473ffffffffffffffffffffffffffffffffffffffff1681565b601660009054906101000a900473ffffffffffffffffffffffffffffffffffffffff1673ffffffffffffffffffffffffffffffffffffffff166307779627336040518263ffffffff167c0100000000000000000000000000000000000000000000000000000000028152600401808273ffffffffffffffffffffffffffffffffffffffff1673ffffffffffffffffffffffffffffffffffffffff16815260200191505060206040518083038186803b15801561194657600080fd5b505afa15801561195a573d6000803e3d6000fd5b505050506040513d602081101561197057600080fd5b81019080805190602001909291905050501515611a1b576040517f08c379a000000000000000000000000000000000000000000000000000000000815260040180806020018281038252603c8152602001807f4f6e6c79207468652063616c6c2061646472657373206f7220612064656c656781526020017f6174652063616e20757064617465207468652063616c6c20646174610000000081525060400191505060405180910390fd5b601760009054906101000a900473ffffffffffffffffffffffffffffffffffffffff1673ffffffffffffffffffffffffffffffffffffffff1663daf1548c6040518163ffffffff167c0100000000000000000000000000000000000000000000000000000000028152600401602060405180830381600087803b158015611aa157600080fd5b505af1158015611ab5573d6000803e3d6000fd5b505050506040513d6020811015611acb57600080fd5b8101908080519060200190929190505050503373ffffffffffffffffffffffffffffffffffffffff167fbc7064aca23c0e69b68258a088ec093344fca10e8b09429256169782e7f029d960405160405180910390a2601660009054906101000a900473ffffffffffffffffffffffffffffffffffffffff1673ffffffffffffffffffffffffffffffffffffffff16ff5b60225481565b601f5481565b60145481565b601660009054906101000a900473ffffffffffffffffffffffffffffffffffffffff1673ffffffffffffffffffffffffffffffffffffffff166307779627336040518263ffffffff167c0100000000000000000000000000000000000000000000000000000000028152600401808273ffffffffffffffffffffffffffffffffffffffff1673ffffffffffffffffffffffffffffffffffffffff16815260200191505060206040518083038186803b158015611c2857600080fd5b505afa158015611c3c573d6000803e3d6000fd5b505050506040513d6020811015611c5257600080fd5b81019080805190602001909291905050501515611cfd576040517f08c379a000000000000000000000000000000000000000000000000000000000815260040180806020018281038252603c8152602001807f4f6e6c79207468652063616c6c2061646472657373206f7220612064656c656781526020017f6174652063616e20757064617465207468652063616c6c20646174610000000081525060400191505060405180910390fd5b80601860006101000a81548173ffffffffffffffffffffffffffffffffffffffff021916908373ffffffffffffffffffffffffffffffffffffffff16021790555050565b602460009054906101000a900473ffffffffffffffffffffffffffffffffffffffff1681565b6000601454141515611e07576040517f08c379a000000000000000000000000000000000000000000000000000000000815260040180806020018281038252602a8152602001807f7468697320636f6e74726163742068617320616c7265616479206265656e206981526020017f6e697469616c697a65640000000000000000000000000000000000000000000081525060400191505060405180910390fd5b33601360006101000a81548173ffffffffffffffffffffffffffffffffffffffff021916908373ffffffffffffffffffffffffffffffffffffffff16021790555043601481905550620aae6060158190555082601960006101000a81548173ffffffffffffffffffffffffffffffffffffffff021916908373ffffffffffffffffffffffffffffffffffffffff16021790555081601660006101000a81548173ffffffffffffffffffffffffffffffffffffffff021916908373ffffffffffffffffffffffffffffffffffffffff16021790555080601760006101000a81548173ffffffffffffffffffffffffffffffffffffffff021916908373ffffffffffffffffffffffffffffffffffffffff160217905550505050565b60285481565b601360009054906101000a900473ffffffffffffffffffffffffffffffffffffffff1681565b601760009054906101000a900473ffffffffffffffffffffffffffffffffffffffff1681565b60275481565b601860009054906101000a900473ffffffffffffffffffffffffffffffffffffffff1681565b601660009054906101000a900473ffffffffffffffffffffffffffffffffffffffff1673ffffffffffffffffffffffffffffffffffffffff166307779627336040518263ffffffff167c0100000000000000000000000000000000000000000000000000000000028152600401808273ffffffffffffffffffffffffffffffffffffffff1673ffffffffffffffffffffffffffffffffffffffff16815260200191505060206040518083038186803b15801561205a57600080fd5b505afa15801561206e573d6000803e3d6000fd5b505050506040513d602081101561208457600080fd5b8101908080519060200190929190505050151561212f576040517f08c379a000000000000000000000000000000000000000000000000000000000815260040180806020018281038252603c8152602001807f4f6e6c79207468652063616c6c2061646472657373206f7220612064656c656781526020017f6174652063616e20757064617465207468652063616c6c20646174610000000081525060400191505060405180910390fd5b80601a60006101000a81548173ffffffffffffffffffffffffffffffffffffffff021916908373ffffffffffffffffffffffffffffffffffffffff16021790555050565b6000818301905082811015151561218957600080fd5b92915050565b6000603c8202830190508281101515156121a857600080fd5b92915050565b6000610e108202830190508281101515156121c857600080fd5b92915050565b6000620151808202830190508281101515156121e957600080fd5b92915050565b60008060008061220c620151808781151561220657fe5b04612aec565b8093508194508295505050508482019150600c6001830381151561222c57fe5b04830192506001600c6001840381151561224257fe5b0601915060006122528484612bce565b905080821115612260578091505b620151808781151561226e57fe5b066201518061227e868686612c5b565b0201945086851015151561229157600080fd5b5050505092915050565b6000806000806122b862015180878115156122b257fe5b04612aec565b809350819450829550505050848301925060006122d58484612bce565b9050808211156122e3578091505b62015180878115156122f157fe5b0662015180612301868686612c5b565b0201945086851015151561231457600080fd5b5050505092915050565b60006028546015540190506000601860009054906101000a900473ffffffffffffffffffffffffffffffffffffffff1673ffffffffffffffffffffffffffffffffffffffff166312a2a035601f54601e54016040518263ffffffff167c01000000000000000000000000000000000000000000000000000000000281526004018082815260200191505060206040518083038186803b1580156123c057600080fd5b505afa1580156123d4573d6000803e3d6000fd5b505050506040513d60208110156123ea57600080fd5b810190808051906020019092919050505082029050600081111561253f57601760009054906101000a900473ffffffffffffffffffffffffffffffffffffffff1673ffffffffffffffffffffffffffffffffffffffff1663beabacc8600030846040518463ffffffff167c0100000000000000000000000000000000000000000000000000000000028152600401808473ffffffffffffffffffffffffffffffffffffffff1673ffffffffffffffffffffffffffffffffffffffff1681526020018373ffffffffffffffffffffffffffffffffffffffff1673ffffffffffffffffffffffffffffffffffffffff1681526020018281526020019350505050602060405180830381600087803b15801561250257600080fd5b505af1158015612516573d6000803e3d6000fd5b505050506040513d602081101561252c57600080fd5b8101908080519060200190929190505050505b60003073ffffffffffffffffffffffffffffffffffffffff16319050600060648281151561256957fe5b0490506000818303905061257b612e23565b606060405190810160405280601660009054906101000a900473ffffffffffffffffffffffffffffffffffffffff1673ffffffffffffffffffffffffffffffffffffffff1673ffffffffffffffffffffffffffffffffffffffff168152602001601a60009054906101000a900473ffffffffffffffffffffffffffffffffffffffff1673ffffffffffffffffffffffffffffffffffffffff1673ffffffffffffffffffffffffffffffffffffffff1681526020013073ffffffffffffffffffffffffffffffffffffffff1673ffffffffffffffffffffffffffffffffffffffff168152509050612669612e46565b61018060405190810160405280858152602001848152602001601b600060038110151561269257fe5b01548152602001601b60016003811015156126a957fe5b01548152602001601b60026003811015156126c057fe5b0154815260200160028152602001601f548152602001601e548152602001888152602001600081526020016000815260200160008152509050601960009054906101000a900473ffffffffffffffffffffffffffffffffffffffff1673ffffffffffffffffffffffffffffffffffffffff1663d7ceab4c8684846040518463ffffffff167c01000000000000000000000000000000000000000000000000000000000281526004018083600360200280838360005b83811015612790578082015181840152602081019050612775565b5050505090500182600c60200280838360005b838110156127be5780820151818401526020810190506127a3565b505050509050018060200182810382526000815260200160200193505050506020604051808303818588803b1580156127f657600080fd5b505af115801561280a573d6000803e3d6000fd5b50505050506040513d602081101561282157600080fd5b8101908080519060200190929190505050602460006101000a81548173ffffffffffffffffffffffffffffffffffffffff021916908373ffffffffffffffffffffffffffffffffffffffff160217905550600073ffffffffffffffffffffffffffffffffffffffff16602460009054906101000a900473ffffffffffffffffffffffffffffffffffffffff1673ffffffffffffffffffffffffffffffffffffffff16141515612954577f56c039ceb7f3be5b9a60845fef29d56e277f6fc3d9b2fe5d58e642fc45f6d7e7602460009054906101000a900473ffffffffffffffffffffffffffffffffffffffff16604051808273ffffffffffffffffffffffffffffffffffffffff1673ffffffffffffffffffffffffffffffffffffffff16815260200191505060405180910390a1612ae3565b7febec2a47d1b8a4f2300d8b1a3f76af4035584f4667e3a47730f7c47eeb4675af601960009054906101000a900473ffffffffffffffffffffffffffffffffffffffff1673ffffffffffffffffffffffffffffffffffffffff16631e35ff058484896040518463ffffffff167c01000000000000000000000000000000000000000000000000000000000281526004018084600360200280838360005b83811015612a0c5780820151818401526020810190506129f1565b5050505090500183600c60200280838360005b83811015612a3a578082015181840152602081019050612a1f565b50505050905001828152602001935050505060c06040518083038186803b158015612a6457600080fd5b505afa158015612a78573d6000803e3d6000fd5b505050506040513d601f19601f8201168201806040525060c0811015612a9d57600080fd5b81019080919050506040518082600660200280838360005b83811015612ad0578082015181840152602081019050612ab5565b5050505090500191505060405180910390a15b50505050505050565b600080600080849050600062253d8c62010bd98301019050600062023ab182600402811515612b1757fe5b059050600460038262023ab10201811515612b2e57fe5b0582039150600062164b0960018401610fa002811515612b4a57fe5b059050601f6004826105b502811515612b5f57fe5b058403019250600061098f84605002811515612b7757fe5b059050600060508261098f02811515612b8c57fe5b0585039050600b82811515612b9d57fe5b05945084600c0260028301039150848360318603606402010192508298508197508096505050505050509193909250565b60006001821480612bdf5750600382145b80612bea5750600582145b80612bf55750600782145b80612c005750600882145b80612c0b5750600a82145b80612c165750600c82145b15612c2457601f9050612c55565b600282141515612c3757601e9050612c54565b612c4083612d1a565b612c4b57601c612c4e565b601d5b60ff1690505b5b92915050565b60006107b28410151515612c6e57600080fd5b600084905060008490506000849050600062253d8c60046064600c600e8703811515612c9657fe5b05611324880101811515612ca657fe5b05600302811515612cb357fe5b05600c80600c600e8803811515612cc657fe5b0502600287030361016f02811515612cda57fe5b056004600c600e8803811515612cec57fe5b056112c08901016105b502811515612d0057fe5b05617d4b8603010103039050809450505050509392505050565b600080600483811515612d2957fe5b06148015612d4457506000606483811515612d4057fe5b0614155b80612d5c5750600061019083811515612d5957fe5b06145b9050919050565b8260038101928215612d92579160200282015b82811115612d91578251825591602001919060010190612d76565b5b509050612d9f9190612e6a565b5090565b828054600181600116156101000203166002900490600052602060002090601f016020900481019282601f10612de457805160ff1916838001178555612e12565b82800160010185558215612e12579182015b82811115612e11578251825591602001919060010190612df6565b5b509050612e1f9190612e6a565b5090565b606060405190810160405280600390602082028038833980820191505090505090565b61018060405190810160405280600c90602082028038833980820191505090505090565b612e8c91905b80821115612e88576000816000905550600101612e70565b5090565b9056fea165627a7a7230582034b640837f287d1ec9da0bd6c6c4f9fd85964343c1384605ed9a8512b477b3100029",
  "source": "pragma solidity ^0.5.0;\n\nimport \"./external/BokkyPooBahsDateTimeLibrary.sol\";\nimport \"./Interfaces.sol\";\n\n/// @title RecurringAlarmClock Contract\n/// @author Joseph Reed\n/// @dev This contract's goal is to execute recurring tasks completely on-chain. It requires four main components:\n///      1. A source for on chain alarms. This contract uses the Ethereum Alarm Clock (eac)\n///      2. A payment delegate with this alarm scheduled and permitted to pull funds for each alarm\n///      3. A funded delegated wallet with the payment delegate set as a delegate\n///      4. A recurring task to execute\ncontract RecurringAlarmClock is IRecurringAlarmClock {\n\n    using BokkyPooBahsDateTimeLibrary for uint; // A Date/Time library for manipulating timestamps\n    \n    address public factory;             // The factory that deployed this contract\n    uint public blockInitialized;       // The block the alarm clock was initialized\n    uint public BASE_GAS_COST;          // The minimum amount of gas it takes to run the alarm clock not including the triggered task. \n\n    // Payment Options\n    IDelegatedWallet public wallet;     // The address which owns the alarm and collects any leftover funds\n    IPaymentDelegate public delegate;   // The delegate that pulls funds for each alarm\n    IGasPriceOracle public gasPrice;    // The fetches the current or future gas price of the network\n    \n    // Ethereum Alarm Clock Options\n    RequestFactoryInterface public EAC; // Interface provided by the Ethereum Alarm Clock\n    address public priorityCaller;      // The priority recipient of part of the alarm deposit\n    uint[3] public limits;              // The execution limits used when calling the alarm\n    uint public alarmStart;             // The start of the execution window for the current alarm\n    uint public windowSize;             // The number of seconds after the alarm start in which the alarm can be executed\n    \n    // Recurring Alarm Clock Options\n    uint public intervalValue;          // The value of the time unit when calculating the next alarm timestamp\n    uint public intervalUnit;           // The time unit used when calculating the next alarm timestamp: 0 = seconds, 1 = minutes, 2 = hours, 3 = days, 4 = months, 5 = years\n    uint public maxIntervals;           // The number of times this alarm will go off. 0 = infinite\n    uint public currentInterval;        // Keeps track of how many alarms have been called\n\n    // Execution Options\n    address public alarm;               // The next scheduled alarm contract\n    address payable public callAddress; // The address of the contract to call\n    bytes public callData;              // The data to send with the contract call\n    uint public callValue;              // The amount of ether to send with the contract call\n    uint public callGas;                // The amount of extra gas to add to the BASE_GAS_COST when scheduling an alarm\n\n    constructor() public {\n        blockInitialized = block.number; // force the master contract to be initialized. Ensures the master copy is never self destructed.\n    }\n\n    /// @notice Uses 'initialize()' instead of a constructor to make use of the clone \n    ///         factory at https://github.com/optionality/clone-factory. In general, 'initialize()' should be  \n    ///         called directly following the alarm clock deployment through the use of a factory.\n    /// @param _EAC The Ethereum Alarm Clock smart contract responsible for creating decentralized alarms.\n    /// @param _wallet The funding wallet, change address, and owner of the deployed alarms\n    /// @param _delegate The delegate from which to pull alarm payments\n    function initialize (\n        RequestFactoryInterface _EAC,\n        IDelegatedWallet _wallet,\n        IPaymentDelegate _delegate\n    ) public {\n        require(blockInitialized == 0, \"this contract has already been initialized\");\n        \n        factory = msg.sender;\n        blockInitialized = block.number;\n        BASE_GAS_COST = 700000;\n\n        EAC = _EAC;\n        wallet = _wallet;\n        delegate = _delegate;\n    }\n\n    function start (\n        address payable _callAddress,\n        bytes memory _callData,\n        uint[7] memory _callOptions\n    ) public onlyDelegates {\n        require(_callAddress != address(0x0));\n        require(_callOptions[2] > now, \"start timestamp cannot be in the past.\");\n        require(_callOptions[3] != 0, \"window size cannot be zero\");\n\n        callAddress = _callAddress;\n        callData = _callData;\n        callValue = _callOptions[0];\n        callGas = _callOptions[1];\n        alarmStart = _callOptions[2];\n        windowSize = _callOptions[3];\n        intervalValue = _callOptions[4];\n        intervalUnit = _callOptions[5];\n        maxIntervals = _callOptions[6];\n        currentInterval = 1;\n\n        scheduleAlarm();\n\n        emit Start_event(msg.sender, _callAddress, _callData, _callOptions);\n    }\n\n    /// @notice The default function collects ether sent by the payment delegate and is also called by\n    ///         each alarm when they are triggered\n    function () external payable {\n        if(msg.value > 0)\n            emit AlarmPaid_event(msg.sender, msg.value);\n        else\n            handleAlarmCall();\n    }\n\n    /// @notice The heart of the recurring alarm clock.\n    ///         1. Check if the caller is the current alarm\n    ///         2. Execute the task\n    ///         3. Reschedule the alarm\n    ///         4. Cleanup\n    function handleAlarmCall () internal {\n        require(msg.sender == alarm, \"only the alarm can trigger the alarm clock\");\n\n        if(callValue != 0) delegate.transfer(address(0x0), address(this), callValue);\n        (bool success, bytes memory result) = callAddress.call.value(callValue).gas(gasleft())(callData);\n        emit Execute_event(alarm, callAddress, callValue, callData, currentInterval, maxIntervals, success, result);\n\n        if(currentInterval < maxIntervals || maxIntervals == 0) {\n                 if(intervalUnit == 0) alarmStart = alarmStart.addSeconds(intervalValue);\n            else if(intervalUnit == 1) alarmStart = alarmStart.addMinutes(intervalValue);\n            else if(intervalUnit == 2) alarmStart = alarmStart.addHours(intervalValue);\n            else if(intervalUnit == 3) alarmStart = alarmStart.addDays(intervalValue);\n            else if(intervalUnit == 4) alarmStart = alarmStart.addMonths(intervalValue);\n            else if(intervalUnit == 5) alarmStart = alarmStart.addYears(intervalValue);\n \n            scheduleAlarm();\n        } else {\n            delete alarm;\n        }\n\n        currentInterval++;\n    }\n\n    /// @notice Schedules a new alarm with the Ethereum Alarm Clock\n    function scheduleAlarm () internal {\n        uint totalGasCost = BASE_GAS_COST + callGas;    // The amount of gas to be sent with the transaction\n        uint currentCost = totalGasCost * gasPrice.future(alarmStart + windowSize);\n\n        // Pull the necessary funds for the alarm\n        if(currentCost > 0) delegate.transfer(address(0x0), address(this), currentCost); \n        uint endowment = address(this).balance;         // Commit all available ether to the next alarm\n        uint priorityFee = endowment / 100;             // Set one percent aside for the priority caller\n        uint timeBounty = endowment - priorityFee;      // Set the remaining ether aside for the time bounty\n\n        address[3] memory addressOptions = [\n            address(wallet),    // Change from the alarm is sent to this address, also the account that can owns the alarm.\n            priorityCaller,     // The priority fee is sent to the priority caller\n            address(this)       // The contract to call at execution\n        ];\n\n        uint[12] memory uintOptions = [\n            priorityFee,    // A fee that goes to the fee recipient\n            timeBounty,     // The bounty for the account that triggers this alarm\n            limits[0],      // claimWindowSize\n            limits[1],      // freezeintervalDuration\n            limits[2],      // reservedWindowSize\n            2,              // 1 = use block based scheduling, 2 = Use timestamp based scheduling\n            windowSize,     // The size of the execution window\n            alarmStart,     // The start of the execution window\n            totalGasCost,   // The amount of gas to be sent with the transaction\n            0,              // The amount of ether to be sent\n            0,              // The minimum gas price for the alarm when called\n            0               // The required deposit by the claimer\n        ];\n\n        alarm = EAC.createValidatedRequest.value(endowment)(addressOptions, uintOptions, \"\");\n\n        if(alarm != address(0x0))\n            emit ValidRequest_event(alarm);\n        else\n            emit InvalidRequest_event(EAC.validateRequestParams(addressOptions, uintOptions, endowment));\n    }\n\n    /// @notice Cleans up and destroys the alarm. Any leftover ether is sent to the wallet.\n    function destroy () public onlyDelegates {\n        delegate.unschedule();\n        emit Destroy_event(msg.sender);\n\n        selfdestruct(address(wallet));\n    }\n\n    /// @notice Sets the priority caller that receives the fee when an alarm is called\n    /// @param _priorityCaller The address that receives the alarm fee when it is triggered.\n    function setPriorityCaller (address _priorityCaller) public onlyDelegates {\n        priorityCaller = _priorityCaller;\n    }\n\n    /// @notice Sets the execution limits for when an alarm can be claimed, called, or cancelled.\n    /// @param _limits The execution limits applied to each decentralized alarm\n    function setExecutionLimits (uint[3] memory _limits) public onlyDelegates {\n        limits = _limits;\n    }\n\n    /// @notice Sets the oracle that predicts future gas prices.\n    /// @param _oracle Attempts to predict the gas price at a future date\n    function setGasPriceOracle (IGasPriceOracle _oracle) public onlyDelegates {\n        gasPrice = _oracle;\n    }\n\n    modifier onlyDelegates () {\n        require(wallet.isDelegate(msg.sender), \"Only the call address or a delegate can update the call data\");\n        _;\n    }\n\n    event AlarmPaid_event (address indexed msgSender, uint msgValue);\n    event ValidRequest_event (address newAlarm);\n    event InvalidRequest_event (bool[6] reason);\n    event Start_event(\n        address indexed delegate,\n        address indexed callAddress,\n        bytes callData,\n        uint[7] callOptions\n    );\n    event Execute_event(\n        address alarm,\n        address indexed callAddress,\n        uint callValue,\n        bytes callData,\n        uint currentInterval,\n        uint maxIntervals,\n        bool success,\n        bytes result\n    );\n    event Destroy_event(address indexed delegate);\n\n}\n",
  "sourcePath": "/home/joe/Documents/github/everchain-project/recurring-alarm-clock/contracts/RecurringAlarmClock.sol",
  "compiler": {
    "name": "solc",
    "version": "0.5.0+commit.1d4f565a.Emscripten.clang"
  },
  "schemaVersion": "3.0.1",
  "updatedAt": "2019-01-20T00:08:46.479Z",
  "devdoc": {
    "author": "Joseph Reed",
    "details": "This contract's goal is to execute recurring tasks completely on-chain. It requires four main components:      1. A source for on chain alarms. This contract uses the Ethereum Alarm Clock (eac)      2. A payment delegate with this alarm scheduled and permitted to pull funds for each alarm      3. A funded delegated wallet with the payment delegate set as a delegate      4. A recurring task to execute",
    "methods": {
      "initialize(address,address,address)": {
        "params": {
          "_EAC": "The Ethereum Alarm Clock smart contract responsible for creating decentralized alarms.",
          "_delegate": "The delegate from which to pull alarm payments",
          "_wallet": "The funding wallet, change address, and owner of the deployed alarms"
        }
      },
      "setExecutionLimits(uint256[3])": {
        "params": {
          "_limits": "The execution limits applied to each decentralized alarm"
        }
      },
      "setGasPriceOracle(address)": {
        "params": {
          "_oracle": "Attempts to predict the gas price at a future date"
        }
      },
      "setPriorityCaller(address)": {
        "params": {
          "_priorityCaller": "The address that receives the alarm fee when it is triggered."
        }
      }
    },
    "title": "RecurringAlarmClock Contract"
  },
  "userdoc": {
    "methods": {
      "destroy()": {
        "notice": "Cleans up and destroys the alarm. Any leftover ether is sent to the wallet."
      },
      "initialize(address,address,address)": {
        "notice": "Uses 'initialize()' instead of a constructor to make use of the clone          factory at https://github.com/optionality/clone-factory. In general, 'initialize()' should be           called directly following the alarm clock deployment through the use of a factory."
      },
      "setExecutionLimits(uint256[3])": {
        "notice": "Sets the execution limits for when an alarm can be claimed, called, or cancelled."
      },
      "setGasPriceOracle(address)": {
        "notice": "Sets the oracle that predicts future gas prices."
      },
      "setPriorityCaller(address)": {
        "notice": "Sets the priority caller that receives the fee when an alarm is called"
      }
    }
  }
}