{
  "contractName": "RecurringPaymentScheduler",
  "abi": [
    {
      "constant": true,
      "inputs": [],
      "name": "paymentFactory",
      "outputs": [
        {
          "name": "",
          "type": "address"
        }
      ],
      "payable": false,
      "stateMutability": "view",
      "type": "function"
    },
    {
      "constant": true,
      "inputs": [],
      "name": "owner",
      "outputs": [
        {
          "name": "",
          "type": "address"
        }
      ],
      "payable": false,
      "stateMutability": "view",
      "type": "function"
    },
    {
      "constant": true,
      "inputs": [],
      "name": "scheduler",
      "outputs": [
        {
          "name": "",
          "type": "address"
        }
      ],
      "payable": false,
      "stateMutability": "view",
      "type": "function"
    },
    {
      "constant": false,
      "inputs": [
        {
          "name": "_newOwner",
          "type": "address"
        }
      ],
      "name": "transferOwnership",
      "outputs": [],
      "payable": false,
      "stateMutability": "nonpayable",
      "type": "function"
    },
    {
      "inputs": [
        {
          "name": "_scheduler",
          "type": "address"
        },
        {
          "name": "_paymentFactory",
          "type": "address"
        }
      ],
      "payable": false,
      "stateMutability": "nonpayable",
      "type": "constructor"
    },
    {
      "anonymous": false,
      "inputs": [
        {
          "indexed": true,
          "name": "owner",
          "type": "address"
        },
        {
          "indexed": false,
          "name": "recurringPayment",
          "type": "address"
        }
      ],
      "name": "CreatePayment_event",
      "type": "event"
    },
    {
      "anonymous": false,
      "inputs": [
        {
          "indexed": true,
          "name": "target",
          "type": "address"
        },
        {
          "indexed": false,
          "name": "clone",
          "type": "address"
        }
      ],
      "name": "CloneCreated",
      "type": "event"
    },
    {
      "constant": false,
      "inputs": [
        {
          "name": "delegate",
          "type": "address"
        },
        {
          "name": "wallet",
          "type": "address"
        },
        {
          "name": "token",
          "type": "address"
        },
        {
          "name": "recipient",
          "type": "address"
        },
        {
          "name": "paymentAmount",
          "type": "uint256"
        },
        {
          "name": "startTimestamp",
          "type": "uint256"
        },
        {
          "name": "totalPayments",
          "type": "uint256"
        },
        {
          "name": "period",
          "type": "uint256"
        },
        {
          "name": "gas",
          "type": "uint256"
        }
      ],
      "name": "createRecurringPayment",
      "outputs": [
        {
          "name": "paymentTask",
          "type": "address"
        }
      ],
      "payable": false,
      "stateMutability": "nonpayable",
      "type": "function"
    }
  ],
  "bytecode": "0x608060405234801561001057600080fd5b50604051604080610e2c8339810180604052810190808051906020019092919080519060200190929190505050336000806101000a81548173ffffffffffffffffffffffffffffffffffffffff021916908373ffffffffffffffffffffffffffffffffffffffff16021790555081600260006101000a81548173ffffffffffffffffffffffffffffffffffffffff021916908373ffffffffffffffffffffffffffffffffffffffff16021790555080600360006101000a81548173ffffffffffffffffffffffffffffffffffffffff021916908373ffffffffffffffffffffffffffffffffffffffff1602179055505050610d1c806101106000396000f30060806040526004361061006d576000357c0100000000000000000000000000000000000000000000000000000000900463ffffffff1680637721519a146100725780638da5cb5b146100c9578063b168f23914610120578063d1ad17bf14610235578063f2fde38b1461028c575b600080fd5b34801561007e57600080fd5b506100876102cf565b604051808273ffffffffffffffffffffffffffffffffffffffff1673ffffffffffffffffffffffffffffffffffffffff16815260200191505060405180910390f35b3480156100d557600080fd5b506100de6102f5565b604051808273ffffffffffffffffffffffffffffffffffffffff1673ffffffffffffffffffffffffffffffffffffffff16815260200191505060405180910390f35b34801561012c57600080fd5b506101f3600480360381019080803573ffffffffffffffffffffffffffffffffffffffff169060200190929190803573ffffffffffffffffffffffffffffffffffffffff169060200190929190803573ffffffffffffffffffffffffffffffffffffffff169060200190929190803573ffffffffffffffffffffffffffffffffffffffff169060200190929190803590602001909291908035906020019092919080359060200190929190803590602001909291908035906020019092919050505061031a565b604051808273ffffffffffffffffffffffffffffffffffffffff1673ffffffffffffffffffffffffffffffffffffffff16815260200191505060405180910390f35b34801561024157600080fd5b5061024a610c2c565b604051808273ffffffffffffffffffffffffffffffffffffffff1673ffffffffffffffffffffffffffffffffffffffff16815260200191505060405180910390f35b34801561029857600080fd5b506102cd600480360381019080803573ffffffffffffffffffffffffffffffffffffffff169060200190929190505050610c52565b005b600360009054906101000a900473ffffffffffffffffffffffffffffffffffffffff1681565b6000809054906101000a900473ffffffffffffffffffffffffffffffffffffffff1681565b6000808973ffffffffffffffffffffffffffffffffffffffff1663077796278c6040518263ffffffff167c0100000000000000000000000000000000000000000000000000000000028152600401808273ffffffffffffffffffffffffffffffffffffffff1673ffffffffffffffffffffffffffffffffffffffff168152602001915050602060405180830381600087803b1580156103b857600080fd5b505af11580156103cc573d6000803e3d6000fd5b505050506040513d60208110156103e257600080fd5b810190808051906020019092919050505015156104b3576040517f08c379a00000000000000000000000000000000000000000000000000000000081526004018080602001828103825260418152602001807f667574757265207061796d656e742064656c6567617465206973206e6f74206181526020017f2064656c656761746520666f72207468652070726f76696465642077616c6c6581526020017f740000000000000000000000000000000000000000000000000000000000000081525060600191505060405180910390fd5b8973ffffffffffffffffffffffffffffffffffffffff166307779627336040518263ffffffff167c0100000000000000000000000000000000000000000000000000000000028152600401808273ffffffffffffffffffffffffffffffffffffffff1673ffffffffffffffffffffffffffffffffffffffff168152602001915050602060405180830381600087803b15801561054e57600080fd5b505af1158015610562573d6000803e3d6000fd5b505050506040513d602081101561057857600080fd5b81019080805190602001909291905050501515610623576040517f08c379a00000000000000000000000000000000000000000000000000000000081526004018080602001828103825260348152602001807f6d73672e73656e646572206973206e6f7420612064656c656761746520666f7281526020017f207468652070726f76696465642077616c6c657400000000000000000000000081525060400191505060405180910390fd5b600260009054906101000a900473ffffffffffffffffffffffffffffffffffffffff1673ffffffffffffffffffffffffffffffffffffffff1663ea7dca3d8c8c898989896040518763ffffffff167c0100000000000000000000000000000000000000000000000000000000028152600401808773ffffffffffffffffffffffffffffffffffffffff1673ffffffffffffffffffffffffffffffffffffffff1681526020018673ffffffffffffffffffffffffffffffffffffffff1673ffffffffffffffffffffffffffffffffffffffff1681526020018581526020018481526020018381526020018281526020019650505050505050602060405180830381600087803b15801561073457600080fd5b505af1158015610748573d6000803e3d6000fd5b505050506040513d602081101561075e57600080fd5b81019080805190602001909291905050509050600360009054906101000a900473ffffffffffffffffffffffffffffffffffffffff1673ffffffffffffffffffffffffffffffffffffffff16634fb55a76828d8d8d8d8d6040518763ffffffff167c0100000000000000000000000000000000000000000000000000000000028152600401808773ffffffffffffffffffffffffffffffffffffffff1673ffffffffffffffffffffffffffffffffffffffff1681526020018673ffffffffffffffffffffffffffffffffffffffff1673ffffffffffffffffffffffffffffffffffffffff1681526020018573ffffffffffffffffffffffffffffffffffffffff1673ffffffffffffffffffffffffffffffffffffffff1681526020018473ffffffffffffffffffffffffffffffffffffffff1673ffffffffffffffffffffffffffffffffffffffff1681526020018373ffffffffffffffffffffffffffffffffffffffff1673ffffffffffffffffffffffffffffffffffffffff1681526020018281526020019650505050505050602060405180830381600087803b15801561090657600080fd5b505af115801561091a573d6000803e3d6000fd5b505050506040513d602081101561093057600080fd5b810190808051906020019092919050505091508a73ffffffffffffffffffffffffffffffffffffffff1663316bef98826040518263ffffffff167c0100000000000000000000000000000000000000000000000000000000028152600401808273ffffffffffffffffffffffffffffffffffffffff1673ffffffffffffffffffffffffffffffffffffffff168152602001915050602060405180830381600087803b1580156109de57600080fd5b505af11580156109f2573d6000803e3d6000fd5b505050506040513d6020811015610a0857600080fd5b8101908080519060200190929190505050508a73ffffffffffffffffffffffffffffffffffffffff1663316bef98836040518263ffffffff167c0100000000000000000000000000000000000000000000000000000000028152600401808273ffffffffffffffffffffffffffffffffffffffff1673ffffffffffffffffffffffffffffffffffffffff168152602001915050602060405180830381600087803b158015610ab557600080fd5b505af1158015610ac9573d6000803e3d6000fd5b505050506040513d6020811015610adf57600080fd5b8101908080519060200190929190505050508073ffffffffffffffffffffffffffffffffffffffff1663dd0b281e836040518263ffffffff167c0100000000000000000000000000000000000000000000000000000000028152600401808273ffffffffffffffffffffffffffffffffffffffff1673ffffffffffffffffffffffffffffffffffffffff168152602001915050600060405180830381600087803b158015610b8c57600080fd5b505af1158015610ba0573d6000803e3d6000fd5b505050503373ffffffffffffffffffffffffffffffffffffffff167f56febe278ca3b7ac6ad996f92d3a5effe19a9d86540d85080990552f2aa8bb1383604051808273ffffffffffffffffffffffffffffffffffffffff1673ffffffffffffffffffffffffffffffffffffffff16815260200191505060405180910390a2509998505050505050505050565b600260009054906101000a900473ffffffffffffffffffffffffffffffffffffffff1681565b6000809054906101000a900473ffffffffffffffffffffffffffffffffffffffff1673ffffffffffffffffffffffffffffffffffffffff163373ffffffffffffffffffffffffffffffffffffffff16141515610cad57600080fd5b806000806101000a81548173ffffffffffffffffffffffffffffffffffffffff021916908373ffffffffffffffffffffffffffffffffffffffff160217905550505600a165627a7a7230582035d443add4361ebe2b9ecb03edd59d617492fb98c4b87a250597b158f99821eb0029",
  "source": "pragma solidity ^0.4.23;\r\n\r\nimport \"../external/Owned.sol\";\r\nimport \"../Interfaces.sol\";\r\nimport \"../utility/AddressListFactory.sol\";\r\nimport \"../utility/RecurringAlarmClockScheduler.sol\";\r\nimport \"./RecurringPaymentFactory.sol\";\r\nimport \"./RecurringPayment.sol\";\r\n\r\ncontract RecurringPaymentScheduler is Owned, CloneFactory {\r\n\r\n    address[] emptyList;\r\n\r\n    RecurringAlarmClockScheduler public scheduler;\r\n    RecurringPaymentFactory public paymentFactory;\r\n    \r\n    constructor (\r\n        RecurringAlarmClockScheduler _scheduler,\r\n        RecurringPaymentFactory _paymentFactory\r\n    ) public {\r\n        scheduler = _scheduler;\r\n        paymentFactory = _paymentFactory;\r\n    }\r\n\r\n    function createRecurringPayment (\r\n        IFuturePaymentDelegate delegate,\r\n        IDelegatedWallet wallet,\r\n        address token,\r\n        address recipient,\r\n        uint paymentAmount,\r\n        uint startTimestamp,\r\n        uint totalPayments,\r\n        uint period,\r\n        uint gas\r\n    ) public returns (RecurringPayment paymentTask) {\r\n        require(wallet.isDelegate(delegate), \"future payment delegate is not a delegate for the provided wallet\");\r\n        require(wallet.isDelegate(msg.sender), \"msg.sender is not a delegate for the provided wallet\");\r\n        \r\n        RecurringAlarmClock alarmClock = scheduler.createRecurringAlarmClock(\r\n            delegate,       \r\n            wallet,         \r\n            startTimestamp,\r\n            totalPayments,\r\n            period,\r\n            gas\r\n        );\r\n\r\n        paymentTask = paymentFactory.createRecurringPayment(\r\n            alarmClock,     // the owner of the recurring payment\r\n            delegate,       // the wallet that executes the payment\r\n            wallet,         // supplies delegates that can cancel the task\r\n            token,          // the token to use when making a payment\r\n            recipient,      // the recipient of the payment\r\n            paymentAmount   // how much of the token to send each payment\r\n        );\r\n\r\n        delegate.schedule(alarmClock);\r\n        delegate.schedule(paymentTask);\r\n        alarmClock.start(paymentTask);\r\n\r\n        emit CreatePayment_event(msg.sender, paymentTask);\r\n    }\r\n\r\n    event CreatePayment_event (\r\n        address indexed owner, \r\n        RecurringPayment recurringPayment\r\n    );\r\n    \r\n}\r\n",
  "sourcePath": "C:\\Users\\My\\Documents\\GitHub\\everchain-project\\recurring-alarm-clock\\contracts\\examples\\RecurringPaymentScheduler.sol",
  "compiler": {
    "name": "solc",
    "version": "0.4.24+commit.e67f0147.Emscripten.clang"
  },
  "schemaVersion": "2.0.1",
  "updatedAt": "2018-10-07T04:51:18.151Z"
}