{
  "contractName": "RecurringTransaction",
  "abi": [
    {
      "constant": true,
      "inputs": [],
      "name": "priorityCaller",
      "outputs": [
        {
          "name": "",
          "type": "address"
        }
      ],
      "payable": false,
      "stateMutability": "view",
      "type": "function"
    },
    {
      "constant": true,
      "inputs": [
        {
          "name": "",
          "type": "uint256"
        }
      ],
      "name": "limits",
      "outputs": [
        {
          "name": "",
          "type": "uint256"
        }
      ],
      "payable": false,
      "stateMutability": "view",
      "type": "function"
    },
    {
      "constant": true,
      "inputs": [],
      "name": "intervalUnit",
      "outputs": [
        {
          "name": "",
          "type": "uint256"
        }
      ],
      "payable": false,
      "stateMutability": "view",
      "type": "function"
    },
    {
      "constant": true,
      "inputs": [],
      "name": "alarmStart",
      "outputs": [
        {
          "name": "",
          "type": "uint256"
        }
      ],
      "payable": false,
      "stateMutability": "view",
      "type": "function"
    },
    {
      "constant": true,
      "inputs": [],
      "name": "baseGasCost",
      "outputs": [
        {
          "name": "",
          "type": "uint256"
        }
      ],
      "payable": false,
      "stateMutability": "view",
      "type": "function"
    },
    {
      "constant": true,
      "inputs": [],
      "name": "blockStarted",
      "outputs": [
        {
          "name": "",
          "type": "uint256"
        }
      ],
      "payable": false,
      "stateMutability": "view",
      "type": "function"
    },
    {
      "constant": true,
      "inputs": [],
      "name": "currentInterval",
      "outputs": [
        {
          "name": "",
          "type": "uint256"
        }
      ],
      "payable": false,
      "stateMutability": "view",
      "type": "function"
    },
    {
      "constant": true,
      "inputs": [],
      "name": "intervalValue",
      "outputs": [
        {
          "name": "",
          "type": "uint256"
        }
      ],
      "payable": false,
      "stateMutability": "view",
      "type": "function"
    },
    {
      "constant": true,
      "inputs": [],
      "name": "callAddress",
      "outputs": [
        {
          "name": "",
          "type": "address"
        }
      ],
      "payable": false,
      "stateMutability": "view",
      "type": "function"
    },
    {
      "constant": true,
      "inputs": [],
      "name": "callData",
      "outputs": [
        {
          "name": "",
          "type": "bytes"
        }
      ],
      "payable": false,
      "stateMutability": "view",
      "type": "function"
    },
    {
      "constant": true,
      "inputs": [],
      "name": "wallet",
      "outputs": [
        {
          "name": "",
          "type": "address"
        }
      ],
      "payable": false,
      "stateMutability": "view",
      "type": "function"
    },
    {
      "constant": true,
      "inputs": [],
      "name": "recipient",
      "outputs": [
        {
          "name": "",
          "type": "address"
        }
      ],
      "payable": false,
      "stateMutability": "view",
      "type": "function"
    },
    {
      "constant": true,
      "inputs": [],
      "name": "EAC",
      "outputs": [
        {
          "name": "",
          "type": "address"
        }
      ],
      "payable": false,
      "stateMutability": "view",
      "type": "function"
    },
    {
      "constant": true,
      "inputs": [],
      "name": "tokenPrice",
      "outputs": [
        {
          "name": "",
          "type": "address"
        }
      ],
      "payable": false,
      "stateMutability": "view",
      "type": "function"
    },
    {
      "constant": true,
      "inputs": [],
      "name": "maxIntervals",
      "outputs": [
        {
          "name": "",
          "type": "uint256"
        }
      ],
      "payable": false,
      "stateMutability": "view",
      "type": "function"
    },
    {
      "constant": true,
      "inputs": [],
      "name": "windowSize",
      "outputs": [
        {
          "name": "",
          "type": "uint256"
        }
      ],
      "payable": false,
      "stateMutability": "view",
      "type": "function"
    },
    {
      "constant": true,
      "inputs": [],
      "name": "blockInitialized",
      "outputs": [
        {
          "name": "",
          "type": "uint256"
        }
      ],
      "payable": false,
      "stateMutability": "view",
      "type": "function"
    },
    {
      "constant": true,
      "inputs": [],
      "name": "totalGasCost",
      "outputs": [
        {
          "name": "",
          "type": "uint256"
        }
      ],
      "payable": false,
      "stateMutability": "view",
      "type": "function"
    },
    {
      "constant": true,
      "inputs": [],
      "name": "windowStart",
      "outputs": [
        {
          "name": "",
          "type": "uint256"
        }
      ],
      "payable": false,
      "stateMutability": "view",
      "type": "function"
    },
    {
      "constant": true,
      "inputs": [],
      "name": "txRequest",
      "outputs": [
        {
          "name": "",
          "type": "address"
        }
      ],
      "payable": false,
      "stateMutability": "view",
      "type": "function"
    },
    {
      "constant": true,
      "inputs": [],
      "name": "callGas",
      "outputs": [
        {
          "name": "",
          "type": "uint256"
        }
      ],
      "payable": false,
      "stateMutability": "view",
      "type": "function"
    },
    {
      "constant": true,
      "inputs": [],
      "name": "factory",
      "outputs": [
        {
          "name": "",
          "type": "address"
        }
      ],
      "payable": false,
      "stateMutability": "view",
      "type": "function"
    },
    {
      "constant": true,
      "inputs": [],
      "name": "maximumCost",
      "outputs": [
        {
          "name": "",
          "type": "uint256"
        }
      ],
      "payable": false,
      "stateMutability": "view",
      "type": "function"
    },
    {
      "constant": true,
      "inputs": [],
      "name": "scheduler",
      "outputs": [
        {
          "name": "",
          "type": "address"
        }
      ],
      "payable": false,
      "stateMutability": "view",
      "type": "function"
    },
    {
      "constant": true,
      "inputs": [],
      "name": "callValue",
      "outputs": [
        {
          "name": "",
          "type": "uint256"
        }
      ],
      "payable": false,
      "stateMutability": "view",
      "type": "function"
    },
    {
      "constant": true,
      "inputs": [],
      "name": "token",
      "outputs": [
        {
          "name": "",
          "type": "address"
        }
      ],
      "payable": false,
      "stateMutability": "view",
      "type": "function"
    },
    {
      "constant": true,
      "inputs": [],
      "name": "gasPrice",
      "outputs": [
        {
          "name": "",
          "type": "address"
        }
      ],
      "payable": false,
      "stateMutability": "view",
      "type": "function"
    },
    {
      "inputs": [],
      "payable": false,
      "stateMutability": "nonpayable",
      "type": "constructor"
    },
    {
      "payable": true,
      "stateMutability": "payable",
      "type": "fallback"
    },
    {
      "anonymous": false,
      "inputs": [
        {
          "indexed": true,
          "name": "msgSender",
          "type": "address"
        },
        {
          "indexed": false,
          "name": "msgValue",
          "type": "uint256"
        }
      ],
      "name": "AlarmPaid_event",
      "type": "event"
    },
    {
      "anonymous": false,
      "inputs": [
        {
          "indexed": false,
          "name": "txRequest",
          "type": "address"
        }
      ],
      "name": "ValidRequest_event",
      "type": "event"
    },
    {
      "anonymous": false,
      "inputs": [
        {
          "indexed": false,
          "name": "reason",
          "type": "bool[6]"
        }
      ],
      "name": "InvalidRequest_event",
      "type": "event"
    },
    {
      "anonymous": false,
      "inputs": [
        {
          "indexed": true,
          "name": "delegate",
          "type": "address"
        },
        {
          "indexed": true,
          "name": "callAddress",
          "type": "address"
        },
        {
          "indexed": false,
          "name": "callData",
          "type": "bytes"
        },
        {
          "indexed": false,
          "name": "callOptions",
          "type": "uint256[8]"
        }
      ],
      "name": "Start_event",
      "type": "event"
    },
    {
      "anonymous": false,
      "inputs": [
        {
          "indexed": false,
          "name": "txRequest",
          "type": "address"
        },
        {
          "indexed": true,
          "name": "callAddress",
          "type": "address"
        },
        {
          "indexed": false,
          "name": "callValue",
          "type": "uint256"
        },
        {
          "indexed": false,
          "name": "callData",
          "type": "bytes"
        },
        {
          "indexed": false,
          "name": "currentInterval",
          "type": "uint256"
        },
        {
          "indexed": false,
          "name": "maxIntervals",
          "type": "uint256"
        },
        {
          "indexed": false,
          "name": "success",
          "type": "bool"
        },
        {
          "indexed": false,
          "name": "result",
          "type": "bytes"
        }
      ],
      "name": "Execute_event",
      "type": "event"
    },
    {
      "anonymous": false,
      "inputs": [
        {
          "indexed": true,
          "name": "delegate",
          "type": "address"
        }
      ],
      "name": "Destroy_event",
      "type": "event"
    },
    {
      "constant": false,
      "inputs": [
        {
          "name": "_EAC",
          "type": "address"
        },
        {
          "name": "_wallet",
          "type": "address"
        },
        {
          "name": "_scheduler",
          "type": "address"
        }
      ],
      "name": "initialize",
      "outputs": [],
      "payable": false,
      "stateMutability": "nonpayable",
      "type": "function"
    },
    {
      "constant": false,
      "inputs": [
        {
          "name": "_callAddress",
          "type": "address"
        },
        {
          "name": "_callData",
          "type": "bytes"
        },
        {
          "name": "_callOptions",
          "type": "uint256[8]"
        }
      ],
      "name": "start",
      "outputs": [],
      "payable": false,
      "stateMutability": "nonpayable",
      "type": "function"
    },
    {
      "constant": false,
      "inputs": [],
      "name": "amount",
      "outputs": [
        {
          "name": "",
          "type": "uint256"
        }
      ],
      "payable": false,
      "stateMutability": "nonpayable",
      "type": "function"
    },
    {
      "constant": false,
      "inputs": [],
      "name": "tokenCost",
      "outputs": [
        {
          "name": "",
          "type": "uint256"
        }
      ],
      "payable": false,
      "stateMutability": "nonpayable",
      "type": "function"
    },
    {
      "constant": false,
      "inputs": [],
      "name": "destroy",
      "outputs": [],
      "payable": false,
      "stateMutability": "nonpayable",
      "type": "function"
    },
    {
      "constant": false,
      "inputs": [
        {
          "name": "_priorityCaller",
          "type": "address"
        }
      ],
      "name": "setPriorityCaller",
      "outputs": [],
      "payable": false,
      "stateMutability": "nonpayable",
      "type": "function"
    },
    {
      "constant": false,
      "inputs": [
        {
          "name": "_limits",
          "type": "uint256[3]"
        }
      ],
      "name": "setExecutionLimits",
      "outputs": [],
      "payable": false,
      "stateMutability": "nonpayable",
      "type": "function"
    },
    {
      "constant": false,
      "inputs": [
        {
          "name": "newGasPriceFeed",
          "type": "address"
        }
      ],
      "name": "setGasPriceFeed",
      "outputs": [],
      "payable": false,
      "stateMutability": "nonpayable",
      "type": "function"
    },
    {
      "constant": false,
      "inputs": [
        {
          "name": "newPriceFeed",
          "type": "address"
        }
      ],
      "name": "setTokenPriceFeed",
      "outputs": [],
      "payable": false,
      "stateMutability": "nonpayable",
      "type": "function"
    },
    {
      "constant": false,
      "inputs": [
        {
          "name": "newMaximumCost",
          "type": "uint256"
        }
      ],
      "name": "setMaximumCost",
      "outputs": [],
      "payable": false,
      "stateMutability": "nonpayable",
      "type": "function"
    }
  ],
  "bytecode": "0x608060405234801561001057600080fd5b5043601581905550613674806100276000396000f3fe6080604052600436106101cd576000357c0100000000000000000000000000000000000000000000000000000000900463ffffffff1680631fd3ea521461023457806320e9daf11461028b578063226b45dd146102da5780632352b8c0146103055780632a286e6f14610330578063339613371461035b578063363487bc146103865780633c2d7ec8146103b15780633d9bb20f146104235780633e23ee431461044e5780633e78cf73146104a55780634e417a98146104f6578063521eb2731461058657806366d003ac146105dd5780636cf48a55146106345780637ff9b5961461068b57806383197ef0146106e257806386ab53e5146106f95780638a14117a14610724578063912221d51461074f5780639bc40c4c1461077a578063a7720331146107a5578063aa8c217c146107d0578063b0c2783a146107fb578063b17bdabc14610826578063b45994f81461087d578063c0c53b8b146108ce578063c1459d311461095f578063c45a01551461098a578063cdb2f8a9146109e1578063d18ac4b414610a1c578063d1ad17bf14610a47578063d62457f614610a9e578063e7aaf0e914610ac9578063fc0c546a14610bf4578063fe173b9714610c4b578063ff08065114610ca2575b6000341115610229573373ffffffffffffffffffffffffffffffffffffffff167fec736eda410777c3e885f2301f1963ee8748c0ae65da066567ae125fb6dad98e346040518082815260200191505060405180910390a2610232565b610231610cf3565b5b005b34801561024057600080fd5b50610249611363565b604051808273ffffffffffffffffffffffffffffffffffffffff1673ffffffffffffffffffffffffffffffffffffffff16815260200191505060405180910390f35b34801561029757600080fd5b506102c4600480360360208110156102ae57600080fd5b8101908080359060200190929190505050611389565b6040518082815260200191505060405180910390f35b3480156102e657600080fd5b506102ef6113a3565b6040518082815260200191505060405180910390f35b34801561031157600080fd5b5061031a6113a9565b6040518082815260200191505060405180910390f35b34801561033c57600080fd5b506103456113af565b6040518082815260200191505060405180910390f35b34801561036757600080fd5b506103706113b5565b6040518082815260200191505060405180910390f35b34801561039257600080fd5b5061039b6113bb565b6040518082815260200191505060405180910390f35b3480156103bd57600080fd5b50610421600480360360608110156103d457600080fd5b8101908080606001906003806020026040519081016040528092919082600360200280828437600081840152601f19601f82011690508083019250505050505091929192905050506113c1565b005b34801561042f57600080fd5b50610438611540565b6040518082815260200191505060405180910390f35b34801561045a57600080fd5b50610463611546565b604051808273ffffffffffffffffffffffffffffffffffffffff1673ffffffffffffffffffffffffffffffffffffffff16815260200191505060405180910390f35b3480156104b157600080fd5b506104f4600480360360208110156104c857600080fd5b81019080803573ffffffffffffffffffffffffffffffffffffffff16906020019092919050505061156c565b005b34801561050257600080fd5b5061050b61171a565b6040518080602001828103825283818151815260200191508051906020019080838360005b8381101561054b578082015181840152602081019050610530565b50505050905090810190601f1680156105785780820380516001836020036101000a031916815260200191505b509250505060405180910390f35b34801561059257600080fd5b5061059b6117b8565b604051808273ffffffffffffffffffffffffffffffffffffffff1673ffffffffffffffffffffffffffffffffffffffff16815260200191505060405180910390f35b3480156105e957600080fd5b506105f26117de565b604051808273ffffffffffffffffffffffffffffffffffffffff1673ffffffffffffffffffffffffffffffffffffffff16815260200191505060405180910390f35b34801561064057600080fd5b50610649611804565b604051808273ffffffffffffffffffffffffffffffffffffffff1673ffffffffffffffffffffffffffffffffffffffff16815260200191505060405180910390f35b34801561069757600080fd5b506106a061182a565b604051808273ffffffffffffffffffffffffffffffffffffffff1673ffffffffffffffffffffffffffffffffffffffff16815260200191505060405180910390f35b3480156106ee57600080fd5b506106f7611850565b005b34801561070557600080fd5b5061070e611afa565b6040518082815260200191505060405180910390f35b34801561073057600080fd5b50610739611b00565b6040518082815260200191505060405180910390f35b34801561075b57600080fd5b50610764611b06565b6040518082815260200191505060405180910390f35b34801561078657600080fd5b5061078f611be4565b6040518082815260200191505060405180910390f35b3480156107b157600080fd5b506107ba611bea565b6040518082815260200191505060405180910390f35b3480156107dc57600080fd5b506107e5611bf0565b6040518082815260200191505060405180910390f35b34801561080757600080fd5b50610810611cba565b6040518082815260200191505060405180910390f35b34801561083257600080fd5b5061083b611cc0565b604051808273ffffffffffffffffffffffffffffffffffffffff1673ffffffffffffffffffffffffffffffffffffffff16815260200191505060405180910390f35b34801561088957600080fd5b506108cc600480360360208110156108a057600080fd5b81019080803573ffffffffffffffffffffffffffffffffffffffff169060200190929190505050611ce6565b005b3480156108da57600080fd5b5061095d600480360360608110156108f157600080fd5b81019080803573ffffffffffffffffffffffffffffffffffffffff169060200190929190803573ffffffffffffffffffffffffffffffffffffffff169060200190929190803573ffffffffffffffffffffffffffffffffffffffff169060200190929190505050611e94565b005b34801561096b57600080fd5b50610974612069565b6040518082815260200191505060405180910390f35b34801561099657600080fd5b5061099f61206f565b604051808273ffffffffffffffffffffffffffffffffffffffff1673ffffffffffffffffffffffffffffffffffffffff16815260200191505060405180910390f35b3480156109ed57600080fd5b50610a1a60048036036020811015610a0457600080fd5b8101908080359060200190929190505050612095565b005b348015610a2857600080fd5b50610a31612209565b6040518082815260200191505060405180910390f35b348015610a5357600080fd5b50610a5c61220f565b604051808273ffffffffffffffffffffffffffffffffffffffff1673ffffffffffffffffffffffffffffffffffffffff16815260200191505060405180910390f35b348015610aaa57600080fd5b50610ab3612235565b6040518082815260200191505060405180910390f35b348015610ad557600080fd5b50610bf26004803603610140811015610aed57600080fd5b81019080803573ffffffffffffffffffffffffffffffffffffffff16906020019092919080359060200190640100000000811115610b2a57600080fd5b820183602082011115610b3c57600080fd5b80359060200191846001830284011164010000000083111715610b5e57600080fd5b91908080601f016020809104026020016040519081016040528093929190818152602001838380828437600081840152601f19601f8201169050808301925050505050505091929192908061010001906008806020026040519081016040528092919082600860200280828437600081840152601f19601f820116905080830192505050505050919291929050505061223b565b005b348015610c0057600080fd5b50610c096127d1565b604051808273ffffffffffffffffffffffffffffffffffffffff1673ffffffffffffffffffffffffffffffffffffffff16815260200191505060405180910390f35b348015610c5757600080fd5b50610c606127f7565b604051808273ffffffffffffffffffffffffffffffffffffffff1673ffffffffffffffffffffffffffffffffffffffff16815260200191505060405180910390f35b348015610cae57600080fd5b50610cf160048036036020811015610cc557600080fd5b81019080803573ffffffffffffffffffffffffffffffffffffffff16906020019092919050505061281d565b005b601c60009054906101000a900473ffffffffffffffffffffffffffffffffffffffff1673ffffffffffffffffffffffffffffffffffffffff163373ffffffffffffffffffffffffffffffffffffffff16141515610db8576040517f08c379a000000000000000000000000000000000000000000000000000000000815260040180806020018281038252601d8152602001807f6d73672e73656e646572206d757374206265207478207265717565737400000081525060200191505060405180910390fd5b6000602f54141515610efd57601760009054906101000a900473ffffffffffffffffffffffffffffffffffffffff1673ffffffffffffffffffffffffffffffffffffffff1663beabacc8600030602f546040518463ffffffff167c0100000000000000000000000000000000000000000000000000000000028152600401808473ffffffffffffffffffffffffffffffffffffffff1673ffffffffffffffffffffffffffffffffffffffff1681526020018373ffffffffffffffffffffffffffffffffffffffff1673ffffffffffffffffffffffffffffffffffffffff1681526020018281526020019350505050602060405180830381600087803b158015610ec057600080fd5b505af1158015610ed4573d6000803e3d6000fd5b505050506040513d6020811015610eea57600080fd5b8101908080519060200190929190505050505b60006060602f543073ffffffffffffffffffffffffffffffffffffffff163110151561101257602d60009054906101000a900473ffffffffffffffffffffffffffffffffffffffff1673ffffffffffffffffffffffffffffffffffffffff16602f5460275490602e6040518082805460018160011615610100020316600290048015610fc05780601f10610f9e576101008083540402835291820191610fc0565b820191906000526020600020905b815481529060010190602001808311610fac575b5050915050600060405180830381858888f193505050503d8060008114611003576040519150601f19603f3d011682016040523d82523d6000602084013e611008565b606091505b5080925081935050505b602d60009054906101000a900473ffffffffffffffffffffffffffffffffffffffff1673ffffffffffffffffffffffffffffffffffffffff167f968531fbda7ff008c2a442854562e50e1e83e9abac26892523e1ccc0a37fc046601c60009054906101000a900473ffffffffffffffffffffffffffffffffffffffff16602f54602e6026546025548888604051808873ffffffffffffffffffffffffffffffffffffffff1673ffffffffffffffffffffffffffffffffffffffff1681526020018781526020018060200186815260200185815260200184151515158152602001806020018381038352888181546001816001161561010002031660029004815260200191508054600181600116156101000203166002900480156111775780601f1061114c57610100808354040283529160200191611177565b820191906000526020600020905b81548152906001019060200180831161115a57829003601f168201915b5050838103825284818151815260200191508051906020019080838360005b838110156111b1578082015181840152602081019050611196565b50505050905090810190601f1680156111de5780820380516001836020036101000a031916815260200191505b50995050505050505050505060405180910390a2602554602654108061120657506000602554145b1561132757600060245414156112385761122d6023546020546129cb90919063ffffffff16565b60208190555061131a565b600160245414156112655761125a6023546020546129e790919063ffffffff16565b602081905550611319565b6002602454141561129257611287602354602054612a0690919063ffffffff16565b602081905550611318565b600360245414156112bf576112b4602354602054612a2690919063ffffffff16565b602081905550611317565b600460245414156112ec576112e1602354602054612a4790919063ffffffff16565b602081905550611316565b600560245414156113155761130e602354602054612af390919063ffffffff16565b6020819055505b5b5b5b5b5b611322612b76565b61134d565b601c60006101000a81549073ffffffffffffffffffffffffffffffffffffffff02191690555b6026600081548092919060010191905055505050565b601b60009054906101000a900473ffffffffffffffffffffffffffffffffffffffff1681565b601d8160038110151561139857fe5b016000915090505481565b60245481565b600a5481565b602a5481565b60225481565b60265481565b601860009054906101000a900473ffffffffffffffffffffffffffffffffffffffff1673ffffffffffffffffffffffffffffffffffffffff166307779627336040518263ffffffff167c0100000000000000000000000000000000000000000000000000000000028152600401808273ffffffffffffffffffffffffffffffffffffffff1673ffffffffffffffffffffffffffffffffffffffff16815260200191505060206040518083038186803b15801561147c57600080fd5b505afa158015611490573d6000803e3d6000fd5b505050506040513d60208110156114a657600080fd5b8101908080519060200190929190505050151561152b576040517f08c379a000000000000000000000000000000000000000000000000000000000815260040180806020018281038252601d8152602001807f6d73672073656e646572206d75737420626520612064656c656761746500000081525060200191505060405180910390fd5b80601d90600361153c92919061351c565b5050565b60235481565b602d60009054906101000a900473ffffffffffffffffffffffffffffffffffffffff1681565b601860009054906101000a900473ffffffffffffffffffffffffffffffffffffffff1673ffffffffffffffffffffffffffffffffffffffff166307779627336040518263ffffffff167c0100000000000000000000000000000000000000000000000000000000028152600401808273ffffffffffffffffffffffffffffffffffffffff1673ffffffffffffffffffffffffffffffffffffffff16815260200191505060206040518083038186803b15801561162757600080fd5b505afa15801561163b573d6000803e3d6000fd5b505050506040513d602081101561165157600080fd5b810190808051906020019092919050505015156116d6576040517f08c379a000000000000000000000000000000000000000000000000000000000815260040180806020018281038252601d8152602001807f6d73672073656e646572206d75737420626520612064656c656761746500000081525060200191505060405180910390fd5b80602960006101000a81548173ffffffffffffffffffffffffffffffffffffffff021916908373ffffffffffffffffffffffffffffffffffffffff16021790555050565b602e8054600181600116156101000203166002900480601f0160208091040260200160405190810160405280929190818152602001828054600181600116156101000203166002900480156117b05780601f10611785576101008083540402835291602001916117b0565b820191906000526020600020905b81548152906001019060200180831161179357829003601f168201915b505050505081565b601860009054906101000a900473ffffffffffffffffffffffffffffffffffffffff1681565b601960009054906101000a900473ffffffffffffffffffffffffffffffffffffffff1681565b601a60009054906101000a900473ffffffffffffffffffffffffffffffffffffffff1681565b602960009054906101000a900473ffffffffffffffffffffffffffffffffffffffff1681565b601860009054906101000a900473ffffffffffffffffffffffffffffffffffffffff1673ffffffffffffffffffffffffffffffffffffffff166307779627336040518263ffffffff167c0100000000000000000000000000000000000000000000000000000000028152600401808273ffffffffffffffffffffffffffffffffffffffff1673ffffffffffffffffffffffffffffffffffffffff16815260200191505060206040518083038186803b15801561190b57600080fd5b505afa15801561191f573d6000803e3d6000fd5b505050506040513d602081101561193557600080fd5b810190808051906020019092919050505015156119ba576040517f08c379a000000000000000000000000000000000000000000000000000000000815260040180806020018281038252601d8152602001807f6d73672073656e646572206d75737420626520612064656c656761746500000081525060200191505060405180910390fd5b601760009054906101000a900473ffffffffffffffffffffffffffffffffffffffff1673ffffffffffffffffffffffffffffffffffffffff1663daf1548c6040518163ffffffff167c0100000000000000000000000000000000000000000000000000000000028152600401602060405180830381600087803b158015611a4057600080fd5b505af1158015611a54573d6000803e3d6000fd5b505050506040513d6020811015611a6a57600080fd5b8101908080519060200190929190505050503373ffffffffffffffffffffffffffffffffffffffff167fbc7064aca23c0e69b68258a088ec093344fca10e8b09429256169782e7f029d960405160405180910390a2601860009054906101000a900473ffffffffffffffffffffffffffffffffffffffff1673ffffffffffffffffffffffffffffffffffffffff16ff5b60255481565b60215481565b60006012600a602960009054906101000a900473ffffffffffffffffffffffffffffffffffffffff1673ffffffffffffffffffffffffffffffffffffffff166357de26a46040518163ffffffff167c010000000000000000000000000000000000000000000000000000000002815260040160206040518083038186803b158015611b9057600080fd5b505afa158015611ba4573d6000803e3d6000fd5b505050506040513d6020811015611bba57600080fd5b8101908080519060200190929190505050611bd3611bf0565b02811515611bdd57fe5b0418905090565b60155481565b602b5481565b6000602860009054906101000a900473ffffffffffffffffffffffffffffffffffffffff1673ffffffffffffffffffffffffffffffffffffffff166357de26a46040518163ffffffff167c010000000000000000000000000000000000000000000000000000000002815260040160206040518083038186803b158015611c7657600080fd5b505afa158015611c8a573d6000803e3d6000fd5b505050506040513d6020811015611ca057600080fd5b8101908080519060200190929190505050602b5402905090565b60205481565b601c60009054906101000a900473ffffffffffffffffffffffffffffffffffffffff1681565b601860009054906101000a900473ffffffffffffffffffffffffffffffffffffffff1673ffffffffffffffffffffffffffffffffffffffff166307779627336040518263ffffffff167c0100000000000000000000000000000000000000000000000000000000028152600401808273ffffffffffffffffffffffffffffffffffffffff1673ffffffffffffffffffffffffffffffffffffffff16815260200191505060206040518083038186803b158015611da157600080fd5b505afa158015611db5573d6000803e3d6000fd5b505050506040513d6020811015611dcb57600080fd5b81019080805190602001909291905050501515611e50576040517f08c379a000000000000000000000000000000000000000000000000000000000815260040180806020018281038252601d8152602001807f6d73672073656e646572206d75737420626520612064656c656761746500000081525060200191505060405180910390fd5b80602860006101000a81548173ffffffffffffffffffffffffffffffffffffffff021916908373ffffffffffffffffffffffffffffffffffffffff16021790555050565b6000601554141515611f0e576040517f08c379a000000000000000000000000000000000000000000000000000000000815260040180806020018281038252601c8152602001807f636f6e747261637420616c726561647920696e697469616c697a65640000000081525060200191505060405180910390fd5b33601660006101000a81548173ffffffffffffffffffffffffffffffffffffffff021916908373ffffffffffffffffffffffffffffffffffffffff16021790555043601581905550620aae60602a8190555082601a60006101000a81548173ffffffffffffffffffffffffffffffffffffffff021916908373ffffffffffffffffffffffffffffffffffffffff16021790555081601860006101000a81548173ffffffffffffffffffffffffffffffffffffffff021916908373ffffffffffffffffffffffffffffffffffffffff16021790555080601760006101000a81548173ffffffffffffffffffffffffffffffffffffffff021916908373ffffffffffffffffffffffffffffffffffffffff16021790555030601960006101000a81548173ffffffffffffffffffffffffffffffffffffffff021916908373ffffffffffffffffffffffffffffffffffffffff160217905550505050565b60275481565b601660009054906101000a900473ffffffffffffffffffffffffffffffffffffffff1681565b601860009054906101000a900473ffffffffffffffffffffffffffffffffffffffff1673ffffffffffffffffffffffffffffffffffffffff166307779627336040518263ffffffff167c0100000000000000000000000000000000000000000000000000000000028152600401808273ffffffffffffffffffffffffffffffffffffffff1673ffffffffffffffffffffffffffffffffffffffff16815260200191505060206040518083038186803b15801561215057600080fd5b505afa158015612164573d6000803e3d6000fd5b505050506040513d602081101561217a57600080fd5b810190808051906020019092919050505015156121ff576040517f08c379a000000000000000000000000000000000000000000000000000000000815260040180806020018281038252601d8152602001807f6d73672073656e646572206d75737420626520612064656c656761746500000081525060200191505060405180910390fd5b80602c8190555050565b602c5481565b601760009054906101000a900473ffffffffffffffffffffffffffffffffffffffff1681565b602f5481565b601860009054906101000a900473ffffffffffffffffffffffffffffffffffffffff1673ffffffffffffffffffffffffffffffffffffffff166307779627336040518263ffffffff167c0100000000000000000000000000000000000000000000000000000000028152600401808273ffffffffffffffffffffffffffffffffffffffff1673ffffffffffffffffffffffffffffffffffffffff16815260200191505060206040518083038186803b1580156122f657600080fd5b505afa15801561230a573d6000803e3d6000fd5b505050506040513d602081101561232057600080fd5b810190808051906020019092919050505015156123a5576040517f08c379a000000000000000000000000000000000000000000000000000000000815260040180806020018281038252601d8152602001807f6d73672073656e646572206d75737420626520612064656c656761746500000081525060200191505060405180910390fd5b600073ffffffffffffffffffffffffffffffffffffffff168373ffffffffffffffffffffffffffffffffffffffff161415151561244a576040517f08c379a000000000000000000000000000000000000000000000000000000000815260040180806020018281038252601e8152602001807f63616c6c2061646472657373206d757374206e6f7420626520656d707479000081525060200191505060405180910390fd5b4281600260088110151561245a57fe5b60200201511115156124fa576040517f08c379a00000000000000000000000000000000000000000000000000000000081526004018080602001828103825260258152602001807f73746172742074696d657374616d702063616e6e6f7420626520696e2074686581526020017f207061737400000000000000000000000000000000000000000000000000000081525060400191505060405180910390fd5b600081600360088110151561250b57fe5b602002015114151515612586576040517f08c379a000000000000000000000000000000000000000000000000000000000815260040180806020018281038252601a8152602001807f77696e646f772073697a652063616e6e6f74206265207a65726f00000000000081525060200191505060405180910390fd5b82602d60006101000a81548173ffffffffffffffffffffffffffffffffffffffff021916908373ffffffffffffffffffffffffffffffffffffffff16021790555081602e90805190602001906125dd92919061355c565b508060006008811015156125ed57fe5b6020020151602f8190555080600160088110151561260757fe5b602002015160278190555080600260088110151561262157fe5b602002015160208190555080600360088110151561263b57fe5b602002015160218190555080600460088110151561265557fe5b602002015160238190555080600560088110151561266f57fe5b602002015160248190555080600660088110151561268957fe5b60200201516025819055508060076008811015156126a357fe5b6020020151602c8190555043602281905550602754602a5401602b8190555060016026819055506126d2612b76565b8273ffffffffffffffffffffffffffffffffffffffff163373ffffffffffffffffffffffffffffffffffffffff167f12845b450c014df96c582b3fb0bb3fe456b68d33726114eaf7a100dbeb79afb58484604051808060200183600860200280838360005b83811015612752578082015181840152602081019050612737565b50505050905001828103825284818151815260200191508051906020019080838360005b83811015612791578082015181840152602081019050612776565b50505050905090810190601f1680156127be5780820380516001836020036101000a031916815260200191505b50935050505060405180910390a3505050565b600460009054906101000a900473ffffffffffffffffffffffffffffffffffffffff1681565b602860009054906101000a900473ffffffffffffffffffffffffffffffffffffffff1681565b601860009054906101000a900473ffffffffffffffffffffffffffffffffffffffff1673ffffffffffffffffffffffffffffffffffffffff166307779627336040518263ffffffff167c0100000000000000000000000000000000000000000000000000000000028152600401808273ffffffffffffffffffffffffffffffffffffffff1673ffffffffffffffffffffffffffffffffffffffff16815260200191505060206040518083038186803b1580156128d857600080fd5b505afa1580156128ec573d6000803e3d6000fd5b505050506040513d602081101561290257600080fd5b81019080805190602001909291905050501515612987576040517f08c379a000000000000000000000000000000000000000000000000000000000815260040180806020018281038252601d8152602001807f6d73672073656e646572206d75737420626520612064656c656761746500000081525060200191505060405180910390fd5b80601b60006101000a81548173ffffffffffffffffffffffffffffffffffffffff021916908373ffffffffffffffffffffffffffffffffffffffff16021790555050565b600081830190508281101515156129e157600080fd5b92915050565b6000603c820283019050828110151515612a0057600080fd5b92915050565b6000610e10820283019050828110151515612a2057600080fd5b92915050565b600062015180820283019050828110151515612a4157600080fd5b92915050565b600080600080612a646201518087811515612a5e57fe5b046132a5565b8093508194508295505050508482019150600c60018303811515612a8457fe5b04830192506001600c60018403811515612a9a57fe5b060191506000612aaa8484613387565b905080821115612ab8578091505b6201518087811515612ac657fe5b0662015180612ad6868686613414565b02019450868510151515612ae957600080fd5b5050505092915050565b600080600080612b106201518087811515612b0a57fe5b046132a5565b80935081945082955050505084830192506000612b2d8484613387565b905080821115612b3b578091505b6201518087811515612b4957fe5b0662015180612b59868686613414565b02019450868510151515612b6c57600080fd5b5050505092915050565b6000612b80611bf0565b90506000602c541480612b9b5750602c54612b99611b06565b115b15612cd757601760009054906101000a900473ffffffffffffffffffffffffffffffffffffffff1673ffffffffffffffffffffffffffffffffffffffff1663beabacc8600030846040518463ffffffff167c0100000000000000000000000000000000000000000000000000000000028152600401808473ffffffffffffffffffffffffffffffffffffffff1673ffffffffffffffffffffffffffffffffffffffff1681526020018373ffffffffffffffffffffffffffffffffffffffff1673ffffffffffffffffffffffffffffffffffffffff1681526020018281526020019350505050602060405180830381600087803b158015612c9a57600080fd5b505af1158015612cae573d6000803e3d6000fd5b505050506040513d6020811015612cc457600080fd5b8101908080519060200190929190505050505b803073ffffffffffffffffffffffffffffffffffffffff16311015156132a25760003073ffffffffffffffffffffffffffffffffffffffff163190506000606482811515612d2157fe5b04905060008183039050612d336135dc565b606060405190810160405280601860009054906101000a900473ffffffffffffffffffffffffffffffffffffffff1673ffffffffffffffffffffffffffffffffffffffff1673ffffffffffffffffffffffffffffffffffffffff168152602001601b60009054906101000a900473ffffffffffffffffffffffffffffffffffffffff1673ffffffffffffffffffffffffffffffffffffffff1673ffffffffffffffffffffffffffffffffffffffff1681526020013073ffffffffffffffffffffffffffffffffffffffff1673ffffffffffffffffffffffffffffffffffffffff168152509050612e216135ff565b61018060405190810160405280858152602001848152602001601d6000600381101515612e4a57fe5b01548152602001601d6001600381101515612e6157fe5b01548152602001601d6002600381101515612e7857fe5b015481526020016002815260200160215481526020016020548152602001602b5481526020016000815260200160008152602001868152509050601a60009054906101000a900473ffffffffffffffffffffffffffffffffffffffff1673ffffffffffffffffffffffffffffffffffffffff1663d7ceab4c8684846040518463ffffffff167c01000000000000000000000000000000000000000000000000000000000281526004018083600360200280838360005b83811015612f49578082015181840152602081019050612f2e565b5050505090500182600c60200280838360005b83811015612f77578082015181840152602081019050612f5c565b505050509050018060200182810382526000815260200160200193505050506020604051808303818588803b158015612faf57600080fd5b505af1158015612fc3573d6000803e3d6000fd5b50505050506040513d6020811015612fda57600080fd5b8101908080519060200190929190505050601c60006101000a81548173ffffffffffffffffffffffffffffffffffffffff021916908373ffffffffffffffffffffffffffffffffffffffff160217905550600073ffffffffffffffffffffffffffffffffffffffff16601c60009054906101000a900473ffffffffffffffffffffffffffffffffffffffff1673ffffffffffffffffffffffffffffffffffffffff1614151561310d577f56c039ceb7f3be5b9a60845fef29d56e277f6fc3d9b2fe5d58e642fc45f6d7e7601c60009054906101000a900473ffffffffffffffffffffffffffffffffffffffff16604051808273ffffffffffffffffffffffffffffffffffffffff1673ffffffffffffffffffffffffffffffffffffffff16815260200191505060405180910390a161329c565b7febec2a47d1b8a4f2300d8b1a3f76af4035584f4667e3a47730f7c47eeb4675af601a60009054906101000a900473ffffffffffffffffffffffffffffffffffffffff1673ffffffffffffffffffffffffffffffffffffffff16631e35ff058484896040518463ffffffff167c01000000000000000000000000000000000000000000000000000000000281526004018084600360200280838360005b838110156131c55780820151818401526020810190506131aa565b5050505090500183600c60200280838360005b838110156131f35780820151818401526020810190506131d8565b50505050905001828152602001935050505060c06040518083038186803b15801561321d57600080fd5b505afa158015613231573d6000803e3d6000fd5b505050506040513d601f19601f8201168201806040525060c081101561325657600080fd5b81019080919050506040518082600660200280838360005b8381101561328957808201518184015260208101905061326e565b5050505090500191505060405180910390a15b50505050505b50565b600080600080849050600062253d8c62010bd98301019050600062023ab1826004028115156132d057fe5b059050600460038262023ab102018115156132e757fe5b0582039150600062164b0960018401610fa00281151561330357fe5b059050601f6004826105b50281151561331857fe5b058403019250600061098f8460500281151561333057fe5b059050600060508261098f0281151561334557fe5b0585039050600b8281151561335657fe5b05945084600c0260028301039150848360318603606402010192508298508197508096505050505050509193909250565b600060018214806133985750600382145b806133a35750600582145b806133ae5750600782145b806133b95750600882145b806133c45750600a82145b806133cf5750600c82145b156133dd57601f905061340e565b6002821415156133f057601e905061340d565b6133f9836134d3565b61340457601c613407565b601d5b60ff1690505b5b92915050565b60006107b2841015151561342757600080fd5b600084905060008490506000849050600062253d8c60046064600c600e870381151561344f57fe5b0561132488010181151561345f57fe5b0560030281151561346c57fe5b05600c80600c600e880381151561347f57fe5b0502600287030361016f0281151561349357fe5b056004600c600e88038115156134a557fe5b056112c08901016105b5028115156134b957fe5b05617d4b8603010103039050809450505050509392505050565b6000806004838115156134e257fe5b061480156134fd575060006064838115156134f957fe5b0614155b80613515575060006101908381151561351257fe5b06145b9050919050565b826003810192821561354b579160200282015b8281111561354a57825182559160200191906001019061352f565b5b5090506135589190613623565b5090565b828054600181600116156101000203166002900490600052602060002090601f016020900481019282601f1061359d57805160ff19168380011785556135cb565b828001600101855582156135cb579182015b828111156135ca5782518255916020019190600101906135af565b5b5090506135d89190613623565b5090565b606060405190810160405280600390602082028038833980820191505090505090565b61018060405190810160405280600c90602082028038833980820191505090505090565b61364591905b80821115613641576000816000905550600101613629565b5090565b9056fea165627a7a72305820aac2857753aadcf1b0d9733e7029c0bddccdc32e7f71cff702ef5a9e7cd07de00029",
  "source": "pragma solidity ^0.5.0;\n\nimport \"./external/BokkyPooBahsDateTimeLibrary.sol\";\nimport \"./Interfaces.sol\";\n\n/// @title Recurring Transaction Contract\n/// @author Joseph Reed\n/// @dev This contract's allows decentralized execution of on-chain recurring tasks. It requires three main components:\n///     1. An external source for calling transactions at future time. This contract uses the Ethereum Alarm Clock (EAC)\n///     2. A transaction scheduler with the Recurring Transaction scheduled\n///     3. A funded delegated wallet with the transaction scheduler set as a delegate\n/// The owner sets a maximum cost that they are willing to spend on a given transaction execution in their preferred token.\n/// To calculate the cost a gas price oracle determines the current network price times the transaction gas cost. A new\n/// transaction will fail if the cost to schedule is too high. As long as the delegated wallet has enough funds, the\n/// recurring transactions will continue to execute.\ncontract RecurringTransaction is IRecurringTransaction {\n\n    using BokkyPooBahsDateTimeLibrary for uint; // A Date/Time library for manipulating timestamps\n    uint public blockInitialized;               // The block this contract was initialized\n\n    // IFutureTransaction\n    address public factory;                     // The factory that deployed this contract\n    ITransactionScheduler public scheduler;     // The delegate that pulls transaction costs\n    IDelegatedWallet public wallet;             // Transaction costs are paid by the wallet\n\n    // IPayment\n    address public recipient;                   // The destination address for future payments\n    address constant token = address(0x0);      // The token to pull for payments. Ether = 0x0\n\n    // Ethereum Alarm Clock Options\n    RequestFactoryInterface public EAC;         // Interface provided by the Ethereum Alarm Clock\n    address public priorityCaller;              // The priority recipient receives a bonus when the transaction is executed\n    address public txRequest;                   // The next scheduled transaction request contract\n    uint[3] public limits;                      // The execution limits used when calling the transaction\n    uint public windowStart;                    // The start of the execution window for the current interval\n    uint public windowSize;                     // The span of time during which a transaction can be executed\n\n    // Recurring Transaction Options\n    uint public blockStarted;                   // The block the current recurring transaction started\n    uint public intervalValue;                  // The value of the time unit when calculating the next transaction timestamp\n    uint public intervalUnit;                   // The time unit used when calculating the next window start:\n                                                // 0 = seconds, 1 = minutes, 2 = hours, 3 = days, 4 = months, 5 = years\n    uint public maxIntervals;                   // The number of times this recurring transaction will go off. 0 = infinite\n    uint public currentInterval;                // Keeps track of how many transactions have been called\n    uint public callGas;                        // The amount of extra gas to add when calling each transaction\n\n    // Cost Options\n    IUintFeed public gasPrice;                  // Fetches the current gas price of the network\n    IUintFeed public tokenPrice;                // Fetches the current token price\n    uint public baseGasCost;                    // The minimum amount of gas it takes to run a recurring transaction not including the task\n    uint public totalGasCost;                   // The total amount of gas used for the entire transaction\n    uint public maximumCost;                    // The maximum token cost the user is willing to pay // 0 == infinite\n\n    // Execution Options\n    address payable public callAddress;         // The address of the contract to call\n    bytes public callData;                      // The data to send with the contract call\n    uint public callValue;                      // The amount of ether to send with the contract call\n\n    /// @notice The constructor must force the master copy to be initialized to ensure the master copy can never\n    /// be owned and/or self destructed using the destroy function.\n    constructor() public {\n        blockInitialized = block.number;\n    }\n\n    /// @notice Uses 'initialize()' instead of a constructor to make use of the clone\n    ///         factory at https://github.com/optionality/clone-factory. In general, 'initialize()' should be\n    ///         called directly following the recurring transaction deployment through the use of a factory.\n    /// @param _EAC The Ethereum Alarm Clock smart contract responsible for decentralized execution of future transactions.\n    /// @param _wallet The funding wallet, change address, and owner of the deployed recurring transactions\n    /// @param _scheduler The delegate from which to pull transaction costs and execute transaction calls\n    function initialize (\n        RequestFactoryInterface _EAC,\n        IDelegatedWallet _wallet,\n        ITransactionScheduler _scheduler\n    ) public {\n        require(blockInitialized == 0, \"contract already initialized\");\n\n        factory = msg.sender;\n        blockInitialized = block.number;\n        baseGasCost = 700000;\n\n        EAC = _EAC;\n        wallet = _wallet;\n        scheduler = _scheduler;\n        recipient = address(this);\n    }\n\n    function start (\n        address payable _callAddress,\n        bytes memory _callData,\n        uint[8] memory _callOptions\n    ) public onlyDelegates {\n        require(_callAddress != address(0x0), \"call address must not be empty\");\n        require(_callOptions[2] > now, \"start timestamp cannot be in the past\");\n        require(_callOptions[3] != 0, \"window size cannot be zero\");\n\n        callAddress = _callAddress;\n        callData = _callData;\n        callValue = _callOptions[0];\n        callGas = _callOptions[1];\n        windowStart = _callOptions[2];\n        windowSize = _callOptions[3];\n        intervalValue = _callOptions[4];\n        intervalUnit = _callOptions[5];\n        maxIntervals = _callOptions[6];\n        maximumCost = _callOptions[7];\n\n        blockStarted = block.number;\n        totalGasCost = baseGasCost + callGas;\n        currentInterval = 1;\n\n        scheduleTransaction();\n\n        emit Start_event(msg.sender, _callAddress, _callData, _callOptions);\n    }\n\n    /// @notice The default function collects ether sent by the TransactionScheduler and is also called by\n    /// each 'txRequest' during execution\n    function () external payable {\n        if(msg.value > 0)\n            emit AlarmPaid_event(msg.sender, msg.value);\n        else\n            executeTransaction();\n    }\n\n    /// @notice The heart of the recurring transaction.\n    ///     1. Check if the caller is the current tx request\n    ///     2. Execute the transaction\n    ///     3. Schedule a new tx request\n    ///     4. Cleanup\n    function executeTransaction () internal {\n        require(msg.sender == txRequest, \"msg.sender must be tx request\");\n\n        if(callValue != 0)\n            scheduler.transfer(address(0x0), address(this), callValue);\n\n        bool success; bytes memory result;\n        if(address(this).balance >= callValue)\n            (success, result) = callAddress.call.value(callValue).gas(callGas)(callData);\n\n        emit Execute_event(txRequest, callAddress, callValue, callData, currentInterval, maxIntervals, success, result);\n\n        if(currentInterval < maxIntervals || maxIntervals == 0) {\n                 if(intervalUnit == 0) windowStart = windowStart.addSeconds(intervalValue);\n            else if(intervalUnit == 1) windowStart = windowStart.addMinutes(intervalValue);\n            else if(intervalUnit == 2) windowStart = windowStart.addHours(intervalValue);\n            else if(intervalUnit == 3) windowStart = windowStart.addDays(intervalValue);\n            else if(intervalUnit == 4) windowStart = windowStart.addMonths(intervalValue);\n            else if(intervalUnit == 5) windowStart = windowStart.addYears(intervalValue);\n\n            scheduleTransaction();\n        } else {\n            delete txRequest;\n        }\n\n        currentInterval++;\n    }\n\n    function amount () public returns (uint) {\n        return totalGasCost * gasPrice.read();\n    }\n\n    function tokenCost () public returns (uint) {\n        return amount() * tokenPrice.read() / 10^18;\n    }\n\n    /// @notice Schedules a new transaction request with the Ethereum Alarm Clock\n    function scheduleTransaction () internal {\n        uint costInWei = amount();\n        if(maximumCost == 0 || tokenCost() > maximumCost)\n            scheduler.transfer(token, address(this), costInWei);\n\n        if(address(this).balance >= costInWei){\n            uint endowment = address(this).balance;         // Commit all available ether to the next transaction\n            uint priorityFee = endowment / 100;             // Set one percent aside for the priority caller\n            uint timeBounty = endowment - priorityFee;      // Set the remaining ether aside for the time bounty\n\n            address[3] memory addressOptions = [\n                address(wallet),    // Owner of the txRequest and any change left after execution\n                priorityCaller,     // The base reward sent to the priority caller\n                address(this)       // The contract to call at execution\n            ];\n\n            uint[12] memory uintOptions = [\n                priorityFee,        // A fee that goes to the fee recipient\n                timeBounty,         // The bounty for the account that triggers this transaction request\n                limits[0],          // claimWindowSize\n                limits[1],          // freezeintervalDuration\n                limits[2],          // reservedWindowSize\n                2,                  // 1 = use block based scheduling, 2 = Use timestamp based scheduling\n                windowSize,         // The size of the execution window\n                windowStart,        // The start of the execution window\n                totalGasCost,       // The amount of gas to be sent with the transaction\n                0,                  // The amount of ether to be sent\n                0,                  // The minimum gas price for the transaction when called\n                endowment           // The required deposit by the claimer\n            ];\n\n            txRequest = EAC.createValidatedRequest.value(endowment)(addressOptions, uintOptions, \"\");\n\n            if(txRequest != address(0x0))\n                emit ValidRequest_event(txRequest);\n            else\n                emit InvalidRequest_event(EAC.validateRequestParams(addressOptions, uintOptions, endowment));\n        }\n    }\n\n    /// @notice Cleans up and destroys the recurring transaction. Any leftover ether is sent to the wallet.\n    function destroy () public onlyDelegates {\n        scheduler.unschedule();\n        emit Destroy_event(msg.sender);\n\n        selfdestruct(address(wallet));\n    }\n\n    /// @notice Sets the priority caller that receives the base reward when a transaction is called.\n    /// @param _priorityCaller The address that receives the base reward\n    function setPriorityCaller (address _priorityCaller) public onlyDelegates {\n        priorityCaller = _priorityCaller;\n    }\n\n    /// @notice Sets the execution limits for when a future transaction can be claimed, called, or cancelled.\n    /// @param _limits The execution limits applied to each recurring transaction\n    function setExecutionLimits (uint[3] memory _limits) public onlyDelegates {\n        limits = _limits;\n    }\n\n    function setGasPriceFeed (IUintFeed newGasPriceFeed) public onlyDelegates {\n        gasPrice = newGasPriceFeed;\n    }\n\n    function setTokenPriceFeed (IUintFeed newPriceFeed) public onlyDelegates {\n        tokenPrice = newPriceFeed;\n    }\n\n    function setMaximumCost (uint newMaximumCost) public onlyDelegates {\n        maximumCost = newMaximumCost;\n    }\n\n    modifier onlyDelegates () {\n        require(wallet.isDelegate(msg.sender), \"msg sender must be a delegate\");\n        _;\n    }\n\n    event AlarmPaid_event (address indexed msgSender, uint msgValue);\n    event ValidRequest_event (address txRequest);\n    event InvalidRequest_event (bool[6] reason);\n    event Start_event(\n        address indexed delegate,\n        address indexed callAddress,\n        bytes callData,\n        uint[8] callOptions\n    );\n    event Execute_event(\n        address txRequest,\n        address indexed callAddress,\n        uint callValue,\n        bytes callData,\n        uint currentInterval,\n        uint maxIntervals,\n        bool success,\n        bytes result\n    );\n    event Destroy_event(address indexed delegate);\n\n}\n",
  "sourcePath": "/home/joe/Documents/github/everchain-project/recurring-transactions/contracts/RecurringTransaction.sol",
  "compiler": {
    "name": "solc",
    "version": "0.5.0+commit.1d4f565a.Emscripten.clang"
  },
  "schemaVersion": "3.0.9",
  "updatedAt": "2019-05-14T22:34:57.336Z",
  "devdoc": {
    "author": "Joseph Reed",
    "details": "This contract's allows decentralized execution of on-chain recurring tasks. It requires three main components:     1. An external source for calling transactions at future time. This contract uses the Ethereum Alarm Clock (EAC)     2. A transaction scheduler with the Recurring Transaction scheduled     3. A funded delegated wallet with the transaction scheduler set as a delegate The owner sets a maximum cost that they are willing to spend on a given transaction execution in their preferred token. To calculate the cost a gas price oracle determines the current network price times the transaction gas cost. A new transaction will fail if the cost to schedule is too high. As long as the delegated wallet has enough funds, the recurring transactions will continue to execute.",
    "methods": {
      "initialize(address,address,address)": {
        "params": {
          "_EAC": "The Ethereum Alarm Clock smart contract responsible for decentralized execution of future transactions.",
          "_scheduler": "The delegate from which to pull transaction costs and execute transaction calls",
          "_wallet": "The funding wallet, change address, and owner of the deployed recurring transactions"
        }
      },
      "setExecutionLimits(uint256[3])": {
        "params": {
          "_limits": "The execution limits applied to each recurring transaction"
        }
      },
      "setPriorityCaller(address)": {
        "params": {
          "_priorityCaller": "The address that receives the base reward"
        }
      }
    },
    "title": "Recurring Transaction Contract"
  },
  "userdoc": {
    "methods": {
      "constructor": "The constructor must force the master copy to be initialized to ensure the master copy can never be owned and/or self destructed using the destroy function.",
      "destroy()": {
        "notice": "Cleans up and destroys the recurring transaction. Any leftover ether is sent to the wallet."
      },
      "initialize(address,address,address)": {
        "notice": "Uses 'initialize()' instead of a constructor to make use of the clone         factory at https://github.com/optionality/clone-factory. In general, 'initialize()' should be         called directly following the recurring transaction deployment through the use of a factory."
      },
      "setExecutionLimits(uint256[3])": {
        "notice": "Sets the execution limits for when a future transaction can be claimed, called, or cancelled."
      },
      "setPriorityCaller(address)": {
        "notice": "Sets the priority caller that receives the base reward when a transaction is called."
      }
    }
  }
}