{
  "contractName": "RecurringAlarmClockFactory",
  "abi": [
    {
      "constant": true,
      "inputs": [],
      "name": "ethereumAlarmClock",
      "outputs": [
        {
          "name": "",
          "type": "address"
        }
      ],
      "payable": false,
      "stateMutability": "view",
      "type": "function"
    },
    {
      "constant": true,
      "inputs": [],
      "name": "alarmClockBlueprint",
      "outputs": [
        {
          "name": "",
          "type": "address"
        }
      ],
      "payable": false,
      "stateMutability": "view",
      "type": "function"
    },
    {
      "constant": true,
      "inputs": [],
      "name": "token",
      "outputs": [
        {
          "name": "",
          "type": "address"
        }
      ],
      "payable": false,
      "stateMutability": "view",
      "type": "function"
    },
    {
      "inputs": [
        {
          "name": "_ethereumAlarmClock",
          "type": "address"
        },
        {
          "name": "_alarmClockBlueprint",
          "type": "address"
        }
      ],
      "payable": false,
      "stateMutability": "nonpayable",
      "type": "constructor"
    },
    {
      "anonymous": false,
      "inputs": [
        {
          "indexed": true,
          "name": "target",
          "type": "address"
        },
        {
          "indexed": false,
          "name": "clone",
          "type": "address"
        }
      ],
      "name": "CloneCreated",
      "type": "event"
    },
    {
      "constant": false,
      "inputs": [
        {
          "name": "delegate",
          "type": "address"
        },
        {
          "name": "wallet",
          "type": "address"
        },
        {
          "name": "priorityCaller",
          "type": "address"
        },
        {
          "name": "recurringAlarmClockOptions",
          "type": "uint256[3]"
        },
        {
          "name": "ethereumAlarmClockOptions",
          "type": "uint256[10]"
        }
      ],
      "name": "createRecurringAlarmClock",
      "outputs": [
        {
          "name": "",
          "type": "address"
        }
      ],
      "payable": false,
      "stateMutability": "nonpayable",
      "type": "function"
    }
  ],
  "bytecode": "0x60806040526000600260006101000a81548173ffffffffffffffffffffffffffffffffffffffff021916908373ffffffffffffffffffffffffffffffffffffffff16021790555034801561005257600080fd5b506040516040806107bb8339810180604052810190808051906020019092919080519060200190929190505050816000806101000a81548173ffffffffffffffffffffffffffffffffffffffff021916908373ffffffffffffffffffffffffffffffffffffffff16021790555080600160006101000a81548173ffffffffffffffffffffffffffffffffffffffff021916908373ffffffffffffffffffffffffffffffffffffffff16021790555050506106aa806101116000396000f300608060405260043610610062576000357c0100000000000000000000000000000000000000000000000000000000900463ffffffff16806321363e57146100675780635f943a4e146100be578063919a57ad14610115578063fc0c546a14610237575b600080fd5b34801561007357600080fd5b5061007c61028e565b604051808273ffffffffffffffffffffffffffffffffffffffff1673ffffffffffffffffffffffffffffffffffffffff16815260200191505060405180910390f35b3480156100ca57600080fd5b506100d36102b3565b604051808273ffffffffffffffffffffffffffffffffffffffff1673ffffffffffffffffffffffffffffffffffffffff16815260200191505060405180910390f35b34801561012157600080fd5b506101f5600480360381019080803573ffffffffffffffffffffffffffffffffffffffff169060200190929190803573ffffffffffffffffffffffffffffffffffffffff169060200190929190803573ffffffffffffffffffffffffffffffffffffffff1690602001909291908060600190600380602002604051908101604052809291908260036020028082843782019150505050509192919290806101400190600a806020026040519081016040528092919082600a60200280828437820191505050505091929192905050506102d9565b604051808273ffffffffffffffffffffffffffffffffffffffff1673ffffffffffffffffffffffffffffffffffffffff16815260200191505060405180910390f35b34801561024357600080fd5b5061024c61053c565b604051808273ffffffffffffffffffffffffffffffffffffffff1673ffffffffffffffffffffffffffffffffffffffff16815260200191505060405180910390f35b6000809054906101000a900473ffffffffffffffffffffffffffffffffffffffff1681565b600160009054906101000a900473ffffffffffffffffffffffffffffffffffffffff1681565b600080610307600160009054906101000a900473ffffffffffffffffffffffffffffffffffffffff16610562565b90508073ffffffffffffffffffffffffffffffffffffffff1663593853206000809054906101000a900473ffffffffffffffffffffffffffffffffffffffff16898989600260009054906101000a900473ffffffffffffffffffffffffffffffffffffffff168a8a6040518863ffffffff167c0100000000000000000000000000000000000000000000000000000000028152600401808873ffffffffffffffffffffffffffffffffffffffff1673ffffffffffffffffffffffffffffffffffffffff1681526020018773ffffffffffffffffffffffffffffffffffffffff1673ffffffffffffffffffffffffffffffffffffffff1681526020018673ffffffffffffffffffffffffffffffffffffffff1673ffffffffffffffffffffffffffffffffffffffff1681526020018573ffffffffffffffffffffffffffffffffffffffff1673ffffffffffffffffffffffffffffffffffffffff1681526020018473ffffffffffffffffffffffffffffffffffffffff1673ffffffffffffffffffffffffffffffffffffffff16815260200183600360200280838360005b838110156104bf5780820151818401526020810190506104a4565b5050505090500182600a60200280838360005b838110156104ed5780820151818401526020810190506104d2565b50505050905001975050505050505050600060405180830381600087803b15801561051757600080fd5b505af115801561052b573d6000803e3d6000fd5b505050508091505095945050505050565b600260009054906101000a900473ffffffffffffffffffffffffffffffffffffffff1681565b60006060600080606060405190810160405280603f81526020017f600034603b57603080600f833981f36000368180378080368173bebebebebebe81526020017fbebebebebebebebebebebebebebe5af43d82803e15602c573d90f35b3d90fd008152509250846c01000000000000000000000000029150600090505b60148110156106675781816014811015156105f657fe5b1a7f0100000000000000000000000000000000000000000000000000000000000000028382601a0181518110151561062a57fe5b9060200101907effffffffffffffffffffffffffffffffffffffffffffffffffffffffffffff1916908160001a90535080806001019150506105df565b82516020840181816000f0955050505050509190505600a165627a7a723058201c77b2ec88065d8ec4c9de4d1af1eb2b992b6302fbec8215471a120d1283a8940029",
  "source": "pragma solidity ^0.4.23;\r\n\r\nimport \"./external/CloneFactory.sol\";\r\nimport \"./RecurringAlarmClock.sol\";\r\n\r\ncontract RecurringAlarmClockFactory is CloneFactory {\r\n    \r\n    address constant ETHER = address(0x0);\r\n\r\n    RequestFactoryInterface public ethereumAlarmClock;\r\n    RecurringAlarmClock public alarmClockBlueprint;\r\n    address public token = ETHER;\r\n\r\n    constructor (\r\n        RequestFactoryInterface _ethereumAlarmClock, \r\n        RecurringAlarmClock _alarmClockBlueprint\r\n    ) public {\r\n        ethereumAlarmClock = _ethereumAlarmClock;\r\n        alarmClockBlueprint = _alarmClockBlueprint;\r\n    }\r\n\r\n    function createRecurringAlarmClock(\r\n        IFuturePaymentDelegate delegate,\r\n        IDelegatedWallet wallet,\r\n        address priorityCaller,\r\n        uint[3] recurringAlarmClockOptions,\r\n        uint[10] ethereumAlarmClockOptions\r\n    ) public returns (RecurringAlarmClock) {\r\n        RecurringAlarmClock recurringAlarmClock = RecurringAlarmClock(createClone(alarmClockBlueprint));\r\n        recurringAlarmClock.initialize(\r\n            ethereumAlarmClock,\r\n            delegate,\r\n            wallet,\r\n            priorityCaller,\r\n            token,\r\n            recurringAlarmClockOptions,\r\n            ethereumAlarmClockOptions\r\n        );\r\n\r\n        return recurringAlarmClock;\r\n    }\r\n\r\n}\r\n",
  "sourcePath": "C:\\Users\\My\\Documents\\GitHub\\everchain-project\\recurring-alarm-clock\\contracts\\RecurringAlarmClockFactory.sol",
  "compiler": {
    "name": "solc",
    "version": "0.4.24+commit.e67f0147.Emscripten.clang"
  },
  "schemaVersion": "2.0.1",
  "updatedAt": "2018-10-01T21:52:34.998Z"
}