{
  "contractName": "RecurringPayment",
  "abi": [
    {
      "constant": true,
      "inputs": [],
      "name": "blockCreated",
      "outputs": [
        {
          "name": "",
          "type": "uint256"
        }
      ],
      "payable": false,
      "stateMutability": "view",
      "type": "function"
    },
    {
      "constant": true,
      "inputs": [],
      "name": "wallet",
      "outputs": [
        {
          "name": "",
          "type": "address"
        }
      ],
      "payable": false,
      "stateMutability": "view",
      "type": "function"
    },
    {
      "constant": true,
      "inputs": [],
      "name": "recipient",
      "outputs": [
        {
          "name": "",
          "type": "address"
        }
      ],
      "payable": false,
      "stateMutability": "view",
      "type": "function"
    },
    {
      "constant": true,
      "inputs": [],
      "name": "executor",
      "outputs": [
        {
          "name": "",
          "type": "address"
        }
      ],
      "payable": false,
      "stateMutability": "view",
      "type": "function"
    },
    {
      "constant": true,
      "inputs": [],
      "name": "paymentAmount",
      "outputs": [
        {
          "name": "",
          "type": "uint256"
        }
      ],
      "payable": false,
      "stateMutability": "view",
      "type": "function"
    },
    {
      "constant": true,
      "inputs": [],
      "name": "factory",
      "outputs": [
        {
          "name": "",
          "type": "address"
        }
      ],
      "payable": false,
      "stateMutability": "view",
      "type": "function"
    },
    {
      "constant": true,
      "inputs": [],
      "name": "delegate",
      "outputs": [
        {
          "name": "",
          "type": "address"
        }
      ],
      "payable": false,
      "stateMutability": "view",
      "type": "function"
    },
    {
      "constant": true,
      "inputs": [],
      "name": "token",
      "outputs": [
        {
          "name": "",
          "type": "address"
        }
      ],
      "payable": false,
      "stateMutability": "view",
      "type": "function"
    },
    {
      "payable": false,
      "stateMutability": "nonpayable",
      "type": "fallback"
    },
    {
      "constant": false,
      "inputs": [
        {
          "name": "_executor",
          "type": "address"
        },
        {
          "name": "_delegate",
          "type": "address"
        },
        {
          "name": "_wallet",
          "type": "address"
        },
        {
          "name": "_token",
          "type": "address"
        },
        {
          "name": "_recipient",
          "type": "address"
        },
        {
          "name": "_amount",
          "type": "uint256"
        }
      ],
      "name": "initialize",
      "outputs": [],
      "payable": false,
      "stateMutability": "nonpayable",
      "type": "function"
    },
    {
      "constant": true,
      "inputs": [],
      "name": "getOptions",
      "outputs": [
        {
          "name": "",
          "type": "address[5]"
        },
        {
          "name": "",
          "type": "uint256"
        }
      ],
      "payable": false,
      "stateMutability": "view",
      "type": "function"
    },
    {
      "constant": true,
      "inputs": [],
      "name": "amount",
      "outputs": [
        {
          "name": "",
          "type": "uint256"
        }
      ],
      "payable": false,
      "stateMutability": "view",
      "type": "function"
    },
    {
      "constant": false,
      "inputs": [],
      "name": "cancel",
      "outputs": [],
      "payable": false,
      "stateMutability": "nonpayable",
      "type": "function"
    }
  ],
  "bytecode": "0x608060405234801561001057600080fd5b5061103c806100206000396000f3006080604052600436106100ba576000357c0100000000000000000000000000000000000000000000000000000000900463ffffffff1680634e989a4c14610481578063521eb273146104ac57806366d003ac1461050357806395b6ef0c1461055a578063aa8c217c14610627578063c34c08e514610652578063c35905c6146106a9578063c45a0155146106d4578063c89e43611461072b578063cc2ee19614610782578063ea8a1af0146107dc578063fc0c546a146107f3575b3480156100c657600080fd5b506000600860009054906101000a900473ffffffffffffffffffffffffffffffffffffffff1673ffffffffffffffffffffffffffffffffffffffff163373ffffffffffffffffffffffffffffffffffffffff161415156101b4576040517f08c379a00000000000000000000000000000000000000000000000000000000081526004018080602001828103825260218152602001807f6d73672e73656e646572206973206e6f742074686520616c61726d20636c6f6381526020017f6b0000000000000000000000000000000000000000000000000000000000000081525060400191505060405180910390fd5b600960009054906101000a900473ffffffffffffffffffffffffffffffffffffffff1673ffffffffffffffffffffffffffffffffffffffff1663614619546040518163ffffffff167c0100000000000000000000000000000000000000000000000000000000028152600401602060405180830381600087803b15801561023a57600080fd5b505af115801561024e573d6000803e3d6000fd5b505050506040513d602081101561026457600080fd5b810190808051906020019092919050505050600860009054906101000a900473ffffffffffffffffffffffffffffffffffffffff1690508073ffffffffffffffffffffffffffffffffffffffff166393f358d86040518163ffffffff167c0100000000000000000000000000000000000000000000000000000000028152600401602060405180830381600087803b1580156102ff57600080fd5b505af1158015610313573d6000803e3d6000fd5b505050506040513d602081101561032957600080fd5b81019080805190602001909291905050508173ffffffffffffffffffffffffffffffffffffffff1663363487bc6040518163ffffffff167c0100000000000000000000000000000000000000000000000000000000028152600401602060405180830381600087803b15801561039e57600080fd5b505af11580156103b2573d6000803e3d6000fd5b505050506040513d60208110156103c857600080fd5b8101908080519060200190929190505050141561047e57600960009054906101000a900473ffffffffffffffffffffffffffffffffffffffff1673ffffffffffffffffffffffffffffffffffffffff1663daf1548c6040518163ffffffff167c0100000000000000000000000000000000000000000000000000000000028152600401600060405180830381600087803b15801561046557600080fd5b505af1158015610479573d6000803e3d6000fd5b505050505b50005b34801561048d57600080fd5b5061049661084a565b6040518082815260200191505060405180910390f35b3480156104b857600080fd5b506104c1610850565b604051808273ffffffffffffffffffffffffffffffffffffffff1673ffffffffffffffffffffffffffffffffffffffff16815260200191505060405180910390f35b34801561050f57600080fd5b50610518610876565b604051808273ffffffffffffffffffffffffffffffffffffffff1673ffffffffffffffffffffffffffffffffffffffff16815260200191505060405180910390f35b34801561056657600080fd5b50610625600480360381019080803573ffffffffffffffffffffffffffffffffffffffff169060200190929190803573ffffffffffffffffffffffffffffffffffffffff169060200190929190803573ffffffffffffffffffffffffffffffffffffffff169060200190929190803573ffffffffffffffffffffffffffffffffffffffff169060200190929190803573ffffffffffffffffffffffffffffffffffffffff1690602001909291908035906020019092919050505061089c565b005b34801561063357600080fd5b5061063c610ad8565b6040518082815260200191505060405180910390f35b34801561065e57600080fd5b50610667610ae2565b604051808273ffffffffffffffffffffffffffffffffffffffff1673ffffffffffffffffffffffffffffffffffffffff16815260200191505060405180910390f35b3480156106b557600080fd5b506106be610b08565b6040518082815260200191505060405180910390f35b3480156106e057600080fd5b506106e9610b0e565b604051808273ffffffffffffffffffffffffffffffffffffffff1673ffffffffffffffffffffffffffffffffffffffff16815260200191505060405180910390f35b34801561073757600080fd5b50610740610b34565b604051808273ffffffffffffffffffffffffffffffffffffffff1673ffffffffffffffffffffffffffffffffffffffff16815260200191505060405180910390f35b34801561078e57600080fd5b50610797610b5a565b6040518083600560200280838360005b838110156107c25780820151818401526020810190506107a7565b505050509050018281526020019250505060405180910390f35b3480156107e857600080fd5b506107f1610d1d565b005b3480156107ff57600080fd5b50610808610fc7565b604051808273ffffffffffffffffffffffffffffffffffffffff1673ffffffffffffffffffffffffffffffffffffffff16815260200191505060405180910390f35b60065481565b600a60009054906101000a900473ffffffffffffffffffffffffffffffffffffffff1681565b600c60009054906101000a900473ffffffffffffffffffffffffffffffffffffffff1681565b600060065414151561093c576040517f08c379a00000000000000000000000000000000000000000000000000000000081526004018080602001828103825260258152602001807f636f6e74726163742063616e206f6e6c7920626520696e697469616c697a656481526020017f206f6e636500000000000000000000000000000000000000000000000000000081525060400191505060405180910390fd5b4360068190555033600760006101000a81548173ffffffffffffffffffffffffffffffffffffffff021916908373ffffffffffffffffffffffffffffffffffffffff16021790555085600860006101000a81548173ffffffffffffffffffffffffffffffffffffffff021916908373ffffffffffffffffffffffffffffffffffffffff16021790555084600960006101000a81548173ffffffffffffffffffffffffffffffffffffffff021916908373ffffffffffffffffffffffffffffffffffffffff16021790555083600a60006101000a81548173ffffffffffffffffffffffffffffffffffffffff021916908373ffffffffffffffffffffffffffffffffffffffff16021790555082600b60006101000a81548173ffffffffffffffffffffffffffffffffffffffff021916908373ffffffffffffffffffffffffffffffffffffffff16021790555081600c60006101000a81548173ffffffffffffffffffffffffffffffffffffffff021916908373ffffffffffffffffffffffffffffffffffffffff16021790555080600d81905550505050505050565b6000600d54905090565b600860009054906101000a900473ffffffffffffffffffffffffffffffffffffffff1681565b600d5481565b600760009054906101000a900473ffffffffffffffffffffffffffffffffffffffff1681565b600960009054906101000a900473ffffffffffffffffffffffffffffffffffffffff1681565b610b62610fed565b600060a060405190810160405280600860009054906101000a900473ffffffffffffffffffffffffffffffffffffffff1673ffffffffffffffffffffffffffffffffffffffff1673ffffffffffffffffffffffffffffffffffffffff168152602001600960009054906101000a900473ffffffffffffffffffffffffffffffffffffffff1673ffffffffffffffffffffffffffffffffffffffff1673ffffffffffffffffffffffffffffffffffffffff168152602001600a60009054906101000a900473ffffffffffffffffffffffffffffffffffffffff1673ffffffffffffffffffffffffffffffffffffffff1673ffffffffffffffffffffffffffffffffffffffff168152602001600b60009054906101000a900473ffffffffffffffffffffffffffffffffffffffff1673ffffffffffffffffffffffffffffffffffffffff1673ffffffffffffffffffffffffffffffffffffffff168152602001600c60009054906101000a900473ffffffffffffffffffffffffffffffffffffffff1673ffffffffffffffffffffffffffffffffffffffff1673ffffffffffffffffffffffffffffffffffffffff16815250600d54915091509091565b600a60009054906101000a900473ffffffffffffffffffffffffffffffffffffffff1673ffffffffffffffffffffffffffffffffffffffff166307779627336040518263ffffffff167c0100000000000000000000000000000000000000000000000000000000028152600401808273ffffffffffffffffffffffffffffffffffffffff1673ffffffffffffffffffffffffffffffffffffffff168152602001915050602060405180830381600087803b158015610dda57600080fd5b505af1158015610dee573d6000803e3d6000fd5b505050506040513d6020811015610e0457600080fd5b81019080805190602001909291905050501515610e89576040517f08c379a000000000000000000000000000000000000000000000000000000000815260040180806020018281038252601c8152602001807f6d73672e73656e646572206973206e6f7420612064656c65676174650000000081525060200191505060405180910390fd5b600860009054906101000a900473ffffffffffffffffffffffffffffffffffffffff1673ffffffffffffffffffffffffffffffffffffffff1663ea8a1af06040518163ffffffff167c0100000000000000000000000000000000000000000000000000000000028152600401600060405180830381600087803b158015610f0f57600080fd5b505af1158015610f23573d6000803e3d6000fd5b50505050600960009054906101000a900473ffffffffffffffffffffffffffffffffffffffff1673ffffffffffffffffffffffffffffffffffffffff1663daf1548c6040518163ffffffff167c0100000000000000000000000000000000000000000000000000000000028152600401600060405180830381600087803b158015610fad57600080fd5b505af1158015610fc1573d6000803e3d6000fd5b50505050565b600b60009054906101000a900473ffffffffffffffffffffffffffffffffffffffff1681565b60a0604051908101604052806005906020820280388339808201915050905050905600a165627a7a72305820e63325478eda1db30e4425f797ce0eb55030e366ca4f2ae0b5677861ded94b590029",
  "source": "pragma solidity ^0.4.23;\r\n\r\nimport \"../../external/Owned.sol\";\r\nimport \"../../Interfaces.sol\";\r\n\r\ncontract RecurringPayment is IPayment {\r\n    \r\n    uint public blockCreated;\r\n    address public factory;\r\n\r\n    address public executor;\r\n    IPaymentDelegate public delegate;\r\n    IDelegatedWallet public wallet;\r\n    address public token;\r\n    address public recipient;\r\n    uint public paymentAmount;\r\n    \r\n    function initialize (\r\n        address _executor,\r\n        IPaymentDelegate _delegate,\r\n        IDelegatedWallet _wallet,\r\n        address _token,\r\n        address _recipient,\r\n        uint _amount\r\n    ) public {\r\n        require(blockCreated == 0, \"contract can only be initialized once\");\r\n\r\n        blockCreated = block.number;\r\n        factory = msg.sender;\r\n\r\n        executor = _executor;\r\n        delegate = _delegate;\r\n        wallet = _wallet;\r\n        token = _token;\r\n        recipient = _recipient;\r\n\r\n        paymentAmount = _amount;\r\n    }\r\n\r\n    function getOptions () public view returns (address[5], uint) {\r\n        return (\r\n            [\r\n                executor,\r\n                delegate,\r\n                wallet,\r\n                token,\r\n                recipient\r\n            ],\r\n            paymentAmount\r\n        );\r\n    }\r\n\r\n    function amount () public view returns (uint) {\r\n        return paymentAmount;\r\n    }\r\n    \r\n    function () public {\r\n        require(msg.sender == executor, \"msg.sender is not the alarm clock\");\r\n\r\n        delegate.execute();\r\n        IRecurringAlarmClock alarmClock = IRecurringAlarmClock(executor);\r\n        if(alarmClock.currentInterval() == alarmClock.maximumIntervals())\r\n            delegate.unschedule();\r\n    }\r\n\r\n    function cancel () public {\r\n        require(wallet.isDelegate(msg.sender), \"msg.sender is not a delegate\");\r\n\r\n        IRecurringAlarmClock(executor).cancel();\r\n        delegate.unschedule();\r\n    }\r\n    \r\n}\r\n",
  "sourcePath": "C:\\Users\\My\\Documents\\GitHub\\everchain-project\\recurring-alarm-clock\\contracts\\examples\\recurring-payment\\RecurringPayment.sol",
  "compiler": {
    "name": "solc",
    "version": "0.4.24+commit.e67f0147.Emscripten.clang"
  },
  "schemaVersion": "2.0.1",
  "updatedAt": "2018-10-23T07:02:04.662Z"
}