{
  "contractName": "RequestFactory",
  "abi": [
    {
      "constant": false,
      "inputs": [],
      "name": "unpause",
      "outputs": [],
      "payable": false,
      "stateMutability": "nonpayable",
      "type": "function"
    },
    {
      "constant": true,
      "inputs": [],
      "name": "TIMESTAMP_BUCKET_SIZE",
      "outputs": [
        {
          "name": "",
          "type": "uint256"
        }
      ],
      "payable": false,
      "stateMutability": "view",
      "type": "function"
    },
    {
      "constant": true,
      "inputs": [],
      "name": "paused",
      "outputs": [
        {
          "name": "",
          "type": "bool"
        }
      ],
      "payable": false,
      "stateMutability": "view",
      "type": "function"
    },
    {
      "constant": false,
      "inputs": [],
      "name": "renounceOwnership",
      "outputs": [],
      "payable": false,
      "stateMutability": "nonpayable",
      "type": "function"
    },
    {
      "constant": false,
      "inputs": [],
      "name": "pause",
      "outputs": [],
      "payable": false,
      "stateMutability": "nonpayable",
      "type": "function"
    },
    {
      "constant": true,
      "inputs": [],
      "name": "owner",
      "outputs": [
        {
          "name": "",
          "type": "address"
        }
      ],
      "payable": false,
      "stateMutability": "view",
      "type": "function"
    },
    {
      "constant": true,
      "inputs": [],
      "name": "transactionRequestCore",
      "outputs": [
        {
          "name": "",
          "type": "address"
        }
      ],
      "payable": false,
      "stateMutability": "view",
      "type": "function"
    },
    {
      "constant": false,
      "inputs": [
        {
          "name": "_newOwner",
          "type": "address"
        }
      ],
      "name": "transferOwnership",
      "outputs": [],
      "payable": false,
      "stateMutability": "nonpayable",
      "type": "function"
    },
    {
      "constant": true,
      "inputs": [],
      "name": "BLOCKS_BUCKET_SIZE",
      "outputs": [
        {
          "name": "",
          "type": "uint256"
        }
      ],
      "payable": false,
      "stateMutability": "view",
      "type": "function"
    },
    {
      "inputs": [
        {
          "name": "_transactionRequestCore",
          "type": "address"
        }
      ],
      "payable": false,
      "stateMutability": "nonpayable",
      "type": "constructor"
    },
    {
      "anonymous": false,
      "inputs": [
        {
          "indexed": false,
          "name": "error",
          "type": "uint8"
        }
      ],
      "name": "ValidationError",
      "type": "event"
    },
    {
      "anonymous": false,
      "inputs": [],
      "name": "Pause",
      "type": "event"
    },
    {
      "anonymous": false,
      "inputs": [],
      "name": "Unpause",
      "type": "event"
    },
    {
      "anonymous": false,
      "inputs": [
        {
          "indexed": true,
          "name": "previousOwner",
          "type": "address"
        }
      ],
      "name": "OwnershipRenounced",
      "type": "event"
    },
    {
      "anonymous": false,
      "inputs": [
        {
          "indexed": true,
          "name": "previousOwner",
          "type": "address"
        },
        {
          "indexed": true,
          "name": "newOwner",
          "type": "address"
        }
      ],
      "name": "OwnershipTransferred",
      "type": "event"
    },
    {
      "anonymous": false,
      "inputs": [
        {
          "indexed": true,
          "name": "target",
          "type": "address"
        },
        {
          "indexed": false,
          "name": "clone",
          "type": "address"
        }
      ],
      "name": "CloneCreated",
      "type": "event"
    },
    {
      "anonymous": false,
      "inputs": [
        {
          "indexed": false,
          "name": "request",
          "type": "address"
        },
        {
          "indexed": true,
          "name": "owner",
          "type": "address"
        },
        {
          "indexed": true,
          "name": "bucket",
          "type": "int256"
        },
        {
          "indexed": false,
          "name": "params",
          "type": "uint256[12]"
        }
      ],
      "name": "RequestCreated",
      "type": "event"
    },
    {
      "constant": false,
      "inputs": [
        {
          "name": "_addressArgs",
          "type": "address[3]"
        },
        {
          "name": "_uintArgs",
          "type": "uint256[12]"
        },
        {
          "name": "_callData",
          "type": "bytes"
        }
      ],
      "name": "createRequest",
      "outputs": [
        {
          "name": "",
          "type": "address"
        }
      ],
      "payable": true,
      "stateMutability": "payable",
      "type": "function"
    },
    {
      "constant": false,
      "inputs": [
        {
          "name": "_addressArgs",
          "type": "address[3]"
        },
        {
          "name": "_uintArgs",
          "type": "uint256[12]"
        },
        {
          "name": "_callData",
          "type": "bytes"
        }
      ],
      "name": "createValidatedRequest",
      "outputs": [
        {
          "name": "",
          "type": "address"
        }
      ],
      "payable": true,
      "stateMutability": "payable",
      "type": "function"
    },
    {
      "constant": true,
      "inputs": [
        {
          "name": "_addressArgs",
          "type": "address[3]"
        },
        {
          "name": "_uintArgs",
          "type": "uint256[12]"
        },
        {
          "name": "_endowment",
          "type": "uint256"
        }
      ],
      "name": "validateRequestParams",
      "outputs": [
        {
          "name": "",
          "type": "bool[6]"
        }
      ],
      "payable": false,
      "stateMutability": "view",
      "type": "function"
    },
    {
      "constant": true,
      "inputs": [
        {
          "name": "_address",
          "type": "address"
        }
      ],
      "name": "isKnownRequest",
      "outputs": [
        {
          "name": "isKnown",
          "type": "bool"
        }
      ],
      "payable": false,
      "stateMutability": "view",
      "type": "function"
    },
    {
      "constant": true,
      "inputs": [
        {
          "name": "windowStart",
          "type": "uint256"
        },
        {
          "name": "unit",
          "type": "uint8"
        }
      ],
      "name": "getBucket",
      "outputs": [
        {
          "name": "",
          "type": "int256"
        }
      ],
      "payable": false,
      "stateMutability": "pure",
      "type": "function"
    }
  ],
  "bytecode": "0x608060405260008060146101000a81548160ff02191690831515021790555034801561002a57600080fd5b5060405160208061177183398101806040528101908080519060200190929190505050336000806101000a81548173ffffffffffffffffffffffffffffffffffffffff021916908373ffffffffffffffffffffffffffffffffffffffff16021790555060008173ffffffffffffffffffffffffffffffffffffffff16141515156100b357600080fd5b80600160006101000a81548173ffffffffffffffffffffffffffffffffffffffff021916908373ffffffffffffffffffffffffffffffffffffffff1602179055505061166d806101046000396000f3006080604052600436106100d0576000357c0100000000000000000000000000000000000000000000000000000000900463ffffffff1680631e35ff05146100d55780633f4ba83a1461019d5780634b4e23e1146101b45780635c975abb146101df578063715018a61461020e5780637c4cc101146102255780638456cb59146103205780638da5cb5b146103375780639be916421461038e578063b64eecb1146103e9578063d7ceab4c14610440578063ecd8f2941461053b578063f2fde38b14610589578063fe0a5ab0146105cc575b600080fd5b3480156100e157600080fd5b5061015f6004803603810190808060600190600380602002604051908101604052809291908260036020028082843782019150505050509192919290806101800190600c806020026040519081016040528092919082600c6020028082843782019150505050509192919290803590602001909291905050506105f7565b6040518082600660200280838360005b8381101561018a57808201518184015260208101905061016f565b5050505090500191505060405180910390f35b3480156101a957600080fd5b506101b261081e565b005b3480156101c057600080fd5b506101c96108dc565b6040518082815260200191505060405180910390f35b3480156101eb57600080fd5b506101f46108e2565b604051808215151515815260200191505060405180910390f35b34801561021a57600080fd5b506102236108f5565b005b6102de6004803603810190808060600190600380602002604051908101604052809291908260036020028082843782019150505050509192919290806101800190600c806020026040519081016040528092919082600c6020028082843782019150505050509192919290803590602001908201803590602001908080601f01602080910402602001604051908101604052809392919081815260200183838082843782019150505050505091929192905050506109f7565b604051808273ffffffffffffffffffffffffffffffffffffffff1673ffffffffffffffffffffffffffffffffffffffff16815260200191505060405180910390f35b34801561032c57600080fd5b50610335610df5565b005b34801561034357600080fd5b5061034c610eb5565b604051808273ffffffffffffffffffffffffffffffffffffffff1673ffffffffffffffffffffffffffffffffffffffff16815260200191505060405180910390f35b34801561039a57600080fd5b506103cf600480360381019080803573ffffffffffffffffffffffffffffffffffffffff169060200190929190505050610eda565b604051808215151515815260200191505060405180910390f35b3480156103f557600080fd5b506103fe610f30565b604051808273ffffffffffffffffffffffffffffffffffffffff1673ffffffffffffffffffffffffffffffffffffffff16815260200191505060405180910390f35b6104f96004803603810190808060600190600380602002604051908101604052809291908260036020028082843782019150505050509192919290806101800190600c806020026040519081016040528092919082600c6020028082843782019150505050509192919290803590602001908201803590602001908080601f0160208091040260200160405190810160405280939291908181526020018383808284378201915050505050509192919290505050610f56565b604051808273ffffffffffffffffffffffffffffffffffffffff1673ffffffffffffffffffffffffffffffffffffffff16815260200191505060405180910390f35b34801561054757600080fd5b5061057360048036038101908080359060200190929190803560ff169060200190929190505050611300565b6040518082815260200191505060405180910390f35b34801561059557600080fd5b506105ca600480360381019080803573ffffffffffffffffffffffffffffffffffffffff16906020019092919050505061139c565b005b3480156105d857600080fd5b506105e1611403565b6040518082815260200191505060405180910390f35b6105ff61161e565b73__RequestLib____________________________63cac0425f6080604051908101604052803373ffffffffffffffffffffffffffffffffffffffff1673ffffffffffffffffffffffffffffffffffffffff16815260200187600060038110151561066657fe5b602002015173ffffffffffffffffffffffffffffffffffffffff1673ffffffffffffffffffffffffffffffffffffffff1681526020018760016003811015156106ab57fe5b602002015173ffffffffffffffffffffffffffffffffffffffff1673ffffffffffffffffffffffffffffffffffffffff1681526020018760026003811015156106f057fe5b602002015173ffffffffffffffffffffffffffffffffffffffff1673ffffffffffffffffffffffffffffffffffffffff1681525085856040518463ffffffff167c01000000000000000000000000000000000000000000000000000000000281526004018084600460200280838360005b8381101561077c578082015181840152602081019050610761565b5050505090500183600c60200280838360005b838110156107aa57808201518184015260208101905061078f565b50505050905001828152602001935050505060c06040518083038186803b1580156107d457600080fd5b505af41580156107e8573d6000803e3d6000fd5b505050506040513d601f19601f8201168201806040525060c081101561080d57600080fd5b810190809190505090509392505050565b6000809054906101000a900473ffffffffffffffffffffffffffffffffffffffff1673ffffffffffffffffffffffffffffffffffffffff163373ffffffffffffffffffffffffffffffffffffffff1614151561087957600080fd5b600060149054906101000a900460ff16151561089457600080fd5b60008060146101000a81548160ff0219169083151502179055507f7805862f689e2f13df9f062ff482ad3ad112aca9e0847911ed832e158c525b3360405160405180910390a1565b610e1081565b600060149054906101000a900460ff1681565b6000809054906101000a900473ffffffffffffffffffffffffffffffffffffffff1673ffffffffffffffffffffffffffffffffffffffff163373ffffffffffffffffffffffffffffffffffffffff1614151561095057600080fd5b6000809054906101000a900473ffffffffffffffffffffffffffffffffffffffff1673ffffffffffffffffffffffffffffffffffffffff167ff8df31144d9c2f0f6b59d69b8b98abd5459d07f2742c4df920b25aae33c6482060405160405180910390a260008060006101000a81548173ffffffffffffffffffffffffffffffffffffffff021916908373ffffffffffffffffffffffffffffffffffffffff160217905550565b600080600060149054906101000a900460ff16151515610a1657600080fd5b610a41600160009054906101000a900473ffffffffffffffffffffffffffffffffffffffff16611408565b90508073ffffffffffffffffffffffffffffffffffffffff1663820e8522346080604051908101604052803373ffffffffffffffffffffffffffffffffffffffff1673ffffffffffffffffffffffffffffffffffffffff168152602001896000600381101515610aad57fe5b602002015173ffffffffffffffffffffffffffffffffffffffff1673ffffffffffffffffffffffffffffffffffffffff168152602001896001600381101515610af257fe5b602002015173ffffffffffffffffffffffffffffffffffffffff1673ffffffffffffffffffffffffffffffffffffffff168152602001896002600381101515610b3757fe5b602002015173ffffffffffffffffffffffffffffffffffffffff1673ffffffffffffffffffffffffffffffffffffffff1681525087876040518563ffffffff167c01000000000000000000000000000000000000000000000000000000000281526004018084600460200280838360005b83811015610bc3578082015181840152602081019050610ba8565b5050505090500183600c60200280838360005b83811015610bf1578082015181840152602081019050610bd6565b5050505090500180602001828103825283818151815260200191508051906020019080838360005b83811015610c34578082015181840152602081019050610c19565b50505050905090810190601f168015610c615780820380516001836020036101000a031916815260200191505b509450505050506000604051808303818588803b158015610c8157600080fd5b505af1158015610c95573d6000803e3d6000fd5b50505050506001600260008373ffffffffffffffffffffffffffffffffffffffff1673ffffffffffffffffffffffffffffffffffffffff16815260200190815260200160002060006101000a81548160ff021916908315150217905550610d2d846007600c81101515610d0457fe5b6020020151856005600c81101515610d1857fe5b60200201516002811115610d2857fe5b611300565b856000600381101515610d3c57fe5b602002015173ffffffffffffffffffffffffffffffffffffffff167f15aac4af776447c09d895192c86bab463c38b92191f3ba3f7b8831723c548d6e8387604051808373ffffffffffffffffffffffffffffffffffffffff1673ffffffffffffffffffffffffffffffffffffffff16815260200182600c60200280838360005b83811015610dd7578082015181840152602081019050610dbc565b505050509050019250505060405180910390a3809150509392505050565b6000809054906101000a900473ffffffffffffffffffffffffffffffffffffffff1673ffffffffffffffffffffffffffffffffffffffff163373ffffffffffffffffffffffffffffffffffffffff16141515610e5057600080fd5b600060149054906101000a900460ff16151515610e6c57600080fd5b6001600060146101000a81548160ff0219169083151502179055507f6985a02210a168e66602d3235cb6db0e70f92b3ba4d376a33c0f3d9434bff62560405160405180910390a1565b6000809054906101000a900473ffffffffffffffffffffffffffffffffffffffff1681565b6000600260008373ffffffffffffffffffffffffffffffffffffffff1673ffffffffffffffffffffffffffffffffffffffff16815260200190815260200160002060009054906101000a900460ff169050919050565b600160009054906101000a900473ffffffffffffffffffffffffffffffffffffffff1681565b6000610f6061161e565b610f6b8585346105f7565b90508073__IterTools_____________________________635fa77dac90916040518263ffffffff167c01000000000000000000000000000000000000000000000000000000000281526004018082600660200280838360005b83811015610fe0578082015181840152602081019050610fc5565b5050505090500191505060206040518083038186803b15801561100257600080fd5b505af4158015611016573d6000803e3d6000fd5b505050506040513d602081101561102c57600080fd5b810190808051906020019092919050505015156112ea5780600060068110151561105257fe5b602002015115156110a7577f077a9c333594b471fbfcd18e36bfb234269fe83c1cbb6a332f0b228258bcc02a6000600581111561108b57fe5b604051808260ff1660ff16815260200191505060405180910390a15b8060016006811015156110b657fe5b6020020151151561110b577f077a9c333594b471fbfcd18e36bfb234269fe83c1cbb6a332f0b228258bcc02a600160058111156110ef57fe5b604051808260ff1660ff16815260200191505060405180910390a15b80600260068110151561111a57fe5b6020020151151561116f577f077a9c333594b471fbfcd18e36bfb234269fe83c1cbb6a332f0b228258bcc02a6002600581111561115357fe5b604051808260ff1660ff16815260200191505060405180910390a15b80600360068110151561117e57fe5b602002015115156111d3577f077a9c333594b471fbfcd18e36bfb234269fe83c1cbb6a332f0b228258bcc02a600360058111156111b757fe5b604051808260ff1660ff16815260200191505060405180910390a15b8060046006811015156111e257fe5b60200201511515611237577f077a9c333594b471fbfcd18e36bfb234269fe83c1cbb6a332f0b228258bcc02a6004600581111561121b57fe5b604051808260ff1660ff16815260200191505060405180910390a15b80600560068110151561124657fe5b6020020151151561129a577f077a9c333594b471fbfcd18e36bfb234269fe83c1cbb6a332f0b228258bcc02a60058081111561127e57fe5b604051808260ff1660ff16815260200191505060405180910390a15b3373ffffffffffffffffffffffffffffffffffffffff166108fc349081150290604051600060405180830381858888f193505050501580156112e0573d6000803e3d6000fd5b50600091506112f8565b6112f58585856109f7565b91505b509392505050565b60008060006001600281111561131257fe5b84600281111561131e57fe5b14156113505760f091507fffffffffffffffffffffffffffffffffffffffffffffffffffffffffffffffff9050611382565b60028081111561135c57fe5b84600281111561136857fe5b141561137c57610e10915060019050611381565b600080fd5b5b818581151561138d57fe5b06850381029250505092915050565b6000809054906101000a900473ffffffffffffffffffffffffffffffffffffffff1673ffffffffffffffffffffffffffffffffffffffff163373ffffffffffffffffffffffffffffffffffffffff161415156113f757600080fd5b61140081611524565b50565b60f081565b60006060600080606060405190810160405280603f81526020017f600034603b57603080600f833981f36000368180378080368173bebebebebebe81526020017fbebebebebebebebebebebebebebe5af43d82803e15602c573d90f35b3d90fd008152509250846c01000000000000000000000000029150600090505b601481101561150d57818160148110151561149c57fe5b1a7f0100000000000000000000000000000000000000000000000000000000000000028382601a018151811015156114d057fe5b9060200101907effffffffffffffffffffffffffffffffffffffffffffffffffffffffffffff1916908160001a9053508080600101915050611485565b82516020840181816000f095505050505050919050565b600073ffffffffffffffffffffffffffffffffffffffff168173ffffffffffffffffffffffffffffffffffffffff161415151561156057600080fd5b8073ffffffffffffffffffffffffffffffffffffffff166000809054906101000a900473ffffffffffffffffffffffffffffffffffffffff1673ffffffffffffffffffffffffffffffffffffffff167f8be0079c531659141344cd1fd0a4f28419497f9722a3daafe3b4186f6b6457e060405160405180910390a3806000806101000a81548173ffffffffffffffffffffffffffffffffffffffff021916908373ffffffffffffffffffffffffffffffffffffffff16021790555050565b60c0604051908101604052806006906020820280388339808201915050905050905600a165627a7a723058208120b6a28346038d82a9e225aba9a9dfad85dc9a3f302c1721c76a3fe7007c450029",
  "source": "pragma solidity 0.4.24;\r\n\r\nimport \"contracts/Interface/RequestFactoryInterface.sol\";\r\nimport \"contracts/TransactionRequestCore.sol\";\r\nimport \"contracts/Library/RequestLib.sol\";\r\nimport \"contracts/IterTools.sol\";\r\nimport \"contracts/CloneFactory.sol\";\r\nimport \"contracts/Library/RequestScheduleLib.sol\";\r\n\r\nimport \"openzeppelin-solidity/contracts/lifecycle/Pausable.sol\";\r\n\r\n/**\r\n * @title RequestFactory\r\n * @dev Contract which will produce new TransactionRequests.\r\n */\r\ncontract RequestFactory is RequestFactoryInterface, CloneFactory, Pausable {\r\n    using IterTools for bool[6];\r\n\r\n    TransactionRequestCore public transactionRequestCore;\r\n\r\n    uint constant public BLOCKS_BUCKET_SIZE = 240; //~1h\r\n    uint constant public TIMESTAMP_BUCKET_SIZE = 3600; //1h\r\n\r\n    constructor(\r\n        address _transactionRequestCore\r\n    ) \r\n        public \r\n    {\r\n        require(_transactionRequestCore != 0x0);\r\n\r\n        transactionRequestCore = TransactionRequestCore(_transactionRequestCore);\r\n    }\r\n\r\n    /**\r\n     * @dev The lowest level interface for creating a transaction request.\r\n     *\r\n     * @param _addressArgs [0] -  meta.owner\r\n     * @param _addressArgs [1] -  paymentData.feeRecipient\r\n     * @param _addressArgs [2] -  txnData.toAddress\r\n     * @param _uintArgs [0]    -  paymentData.fee\r\n     * @param _uintArgs [1]    -  paymentData.bounty\r\n     * @param _uintArgs [2]    -  schedule.claimWindowSize\r\n     * @param _uintArgs [3]    -  schedule.freezePeriod\r\n     * @param _uintArgs [4]    -  schedule.reservedWindowSize\r\n     * @param _uintArgs [5]    -  schedule.temporalUnit\r\n     * @param _uintArgs [6]    -  schedule.windowSize\r\n     * @param _uintArgs [7]    -  schedule.windowStart\r\n     * @param _uintArgs [8]    -  txnData.callGas\r\n     * @param _uintArgs [9]    -  txnData.callValue\r\n     * @param _uintArgs [10]   -  txnData.gasPrice\r\n     * @param _uintArgs [11]   -  claimData.requiredDeposit\r\n     * @param _callData        -  The call data\r\n     */\r\n    function createRequest(\r\n        address[3]  _addressArgs,\r\n        uint[12]    _uintArgs,\r\n        bytes       _callData\r\n    )\r\n        whenNotPaused\r\n        public payable returns (address)\r\n    {\r\n        // Create a new transaction request clone from transactionRequestCore.\r\n        address transactionRequest = createClone(transactionRequestCore);\r\n\r\n        // Call initialize on the transaction request clone.\r\n        TransactionRequestCore(transactionRequest).initialize.value(msg.value)(\r\n            [\r\n                msg.sender,       // Created by\r\n                _addressArgs[0],  // meta.owner\r\n                _addressArgs[1],  // paymentData.feeRecipient\r\n                _addressArgs[2]   // txnData.toAddress\r\n            ],\r\n            _uintArgs,            //uint[12]\r\n            _callData\r\n        );\r\n\r\n        // Track the address locally\r\n        requests[transactionRequest] = true;\r\n\r\n        // Log the creation.\r\n        emit RequestCreated(\r\n            transactionRequest,\r\n            _addressArgs[0],\r\n            getBucket(_uintArgs[7], RequestScheduleLib.TemporalUnit(_uintArgs[5])),\r\n            _uintArgs\r\n        );\r\n\r\n        return transactionRequest;\r\n    }\r\n\r\n    /**\r\n     *  The same as createRequest except that it requires validation prior to\r\n     *  creation.\r\n     *\r\n     *  Parameters are the same as `createRequest`\r\n     */\r\n    function createValidatedRequest(\r\n        address[3]  _addressArgs,\r\n        uint[12]    _uintArgs,\r\n        bytes       _callData\r\n    )\r\n        public payable returns (address)\r\n    {\r\n        bool[6] memory isValid = validateRequestParams(\r\n            _addressArgs,\r\n            _uintArgs,\r\n            msg.value\r\n        );\r\n\r\n        if (!isValid.all()) {\r\n            if (!isValid[0]) {\r\n                emit ValidationError(uint8(Errors.InsufficientEndowment));\r\n            }\r\n            if (!isValid[1]) {\r\n                emit ValidationError(uint8(Errors.ReservedWindowBiggerThanExecutionWindow));\r\n            }\r\n            if (!isValid[2]) {\r\n                emit ValidationError(uint8(Errors.InvalidTemporalUnit));\r\n            }\r\n            if (!isValid[3]) {\r\n                emit ValidationError(uint8(Errors.ExecutionWindowTooSoon));\r\n            }\r\n            if (!isValid[4]) {\r\n                emit ValidationError(uint8(Errors.CallGasTooHigh));\r\n            }\r\n            if (!isValid[5]) {\r\n                emit ValidationError(uint8(Errors.EmptyToAddress));\r\n            }\r\n\r\n            // Try to return the ether sent with the message\r\n            msg.sender.transfer(msg.value);\r\n            \r\n            return 0x0;\r\n        }\r\n\r\n        return createRequest(_addressArgs, _uintArgs, _callData);\r\n    }\r\n\r\n    /// ----------------------------\r\n    /// Internal\r\n    /// ----------------------------\r\n\r\n    /*\r\n     *  @dev The enum for launching `ValidationError` events and mapping them to an error.\r\n     */\r\n    enum Errors {\r\n        InsufficientEndowment,\r\n        ReservedWindowBiggerThanExecutionWindow,\r\n        InvalidTemporalUnit,\r\n        ExecutionWindowTooSoon,\r\n        CallGasTooHigh,\r\n        EmptyToAddress\r\n    }\r\n\r\n    event ValidationError(uint8 error);\r\n\r\n    /*\r\n     * @dev Validate the constructor arguments for either `createRequest` or `createValidatedRequest`.\r\n     */\r\n    function validateRequestParams(\r\n        address[3]  _addressArgs,\r\n        uint[12]    _uintArgs,\r\n        uint        _endowment\r\n    )\r\n        public view returns (bool[6])\r\n    {\r\n        return RequestLib.validate(\r\n            [\r\n                msg.sender,      // meta.createdBy\r\n                _addressArgs[0],  // meta.owner\r\n                _addressArgs[1],  // paymentData.feeRecipient\r\n                _addressArgs[2]   // txnData.toAddress\r\n            ],\r\n            _uintArgs,\r\n            _endowment\r\n        );\r\n    }\r\n\r\n    /// Mapping to hold known requests.\r\n    mapping (address => bool) requests;\r\n\r\n    function isKnownRequest(address _address)\r\n        public view returns (bool isKnown)\r\n    {\r\n        return requests[_address];\r\n    }\r\n\r\n    function getBucket(uint windowStart, RequestScheduleLib.TemporalUnit unit)\r\n        public pure returns(int)\r\n    {\r\n        uint bucketSize;\r\n        /* since we want to handle both blocks and timestamps\r\n            and do not want to get into case where buckets overlaps\r\n            block buckets are going to be negative ints\r\n            timestamp buckets are going to be positive ints\r\n            we'll overflow after 2**255-1 blocks instead of 2**256-1 since we encoding this on int256\r\n        */\r\n        int sign;\r\n\r\n        if (unit == RequestScheduleLib.TemporalUnit.Blocks) {\r\n            bucketSize = BLOCKS_BUCKET_SIZE;\r\n            sign = -1;\r\n        } else if (unit == RequestScheduleLib.TemporalUnit.Timestamp) {\r\n            bucketSize = TIMESTAMP_BUCKET_SIZE;\r\n            sign = 1;\r\n        } else {\r\n            revert();\r\n        }\r\n        return sign * int(windowStart - (windowStart % bucketSize));\r\n    }\r\n}\r\n",
  "sourcePath": "C:\\Users\\My\\Documents\\GitHub\\ethereum-alarm-clock\\contracts\\RequestFactory.sol",
  "compiler": {
    "name": "solc",
    "version": "0.4.24+commit.e67f0147.Emscripten.clang"
  },
  "schemaVersion": "2.0.1",
  "updatedAt": "2018-10-06T06:28:31.284Z"
}