{
  "contractName": "SimpleTask",
  "abi": [
    {
      "constant": true,
      "inputs": [],
      "name": "alarmClock",
      "outputs": [
        {
          "name": "",
          "type": "address"
        }
      ],
      "payable": false,
      "stateMutability": "view",
      "type": "function"
    },
    {
      "constant": true,
      "inputs": [],
      "name": "owner",
      "outputs": [
        {
          "name": "",
          "type": "address"
        }
      ],
      "payable": false,
      "stateMutability": "view",
      "type": "function"
    },
    {
      "constant": true,
      "inputs": [],
      "name": "blockInitialized",
      "outputs": [
        {
          "name": "",
          "type": "uint256"
        }
      ],
      "payable": false,
      "stateMutability": "view",
      "type": "function"
    },
    {
      "constant": false,
      "inputs": [
        {
          "name": "_newOwner",
          "type": "address"
        }
      ],
      "name": "transferOwnership",
      "outputs": [],
      "payable": false,
      "stateMutability": "nonpayable",
      "type": "function"
    },
    {
      "payable": false,
      "stateMutability": "nonpayable",
      "type": "fallback"
    },
    {
      "anonymous": false,
      "inputs": [],
      "name": "Task_event",
      "type": "event"
    },
    {
      "constant": false,
      "inputs": [
        {
          "name": "_owner",
          "type": "address"
        },
        {
          "name": "_alarmClock",
          "type": "address"
        }
      ],
      "name": "initialize",
      "outputs": [],
      "payable": false,
      "stateMutability": "nonpayable",
      "type": "function"
    },
    {
      "constant": false,
      "inputs": [],
      "name": "cancel",
      "outputs": [],
      "payable": false,
      "stateMutability": "nonpayable",
      "type": "function"
    }
  ],
  "bytecode": "0x6080604052336000806101000a81548173ffffffffffffffffffffffffffffffffffffffff021916908373ffffffffffffffffffffffffffffffffffffffff1602179055506105d6806100536000396000f300608060405260043610610078576000357c0100000000000000000000000000000000000000000000000000000000900463ffffffff1680633a7b779e1461019e578063485cc955146101f55780638da5cb5b146102585780639bc40c4c146102af578063ea8a1af0146102da578063f2fde38b146102f1575b34801561008457600080fd5b50600260009054906101000a900473ffffffffffffffffffffffffffffffffffffffff1673ffffffffffffffffffffffffffffffffffffffff163373ffffffffffffffffffffffffffffffffffffffff16141515610170576040517f08c379a00000000000000000000000000000000000000000000000000000000081526004018080602001828103825260258152602001807f6f6e6c792074686520616c61726d436c6f636b2063616e2063616c6c2074686581526020017f207461736b00000000000000000000000000000000000000000000000000000081525060400191505060405180910390fd5b7f0918bf515e010329a6890d5fc2a29c8656ddd368d1d224ef92b900bbe461bde460405160405180910390a1005b3480156101aa57600080fd5b506101b3610334565b604051808273ffffffffffffffffffffffffffffffffffffffff1673ffffffffffffffffffffffffffffffffffffffff16815260200191505060405180910390f35b34801561020157600080fd5b50610256600480360381019080803573ffffffffffffffffffffffffffffffffffffffff169060200190929190803573ffffffffffffffffffffffffffffffffffffffff16906020019092919050505061035a565b005b34801561026457600080fd5b5061026d6103e6565b604051808273ffffffffffffffffffffffffffffffffffffffff1673ffffffffffffffffffffffffffffffffffffffff16815260200191505060405180910390f35b3480156102bb57600080fd5b506102c461040b565b6040518082815260200191505060405180910390f35b3480156102e657600080fd5b506102ef610411565b005b3480156102fd57600080fd5b50610332600480360381019080803573ffffffffffffffffffffffffffffffffffffffff16906020019092919050505061050c565b005b600260009054906101000a900473ffffffffffffffffffffffffffffffffffffffff1681565b4360018190555080600260006101000a81548173ffffffffffffffffffffffffffffffffffffffff021916908373ffffffffffffffffffffffffffffffffffffffff160217905550816000806101000a81548173ffffffffffffffffffffffffffffffffffffffff021916908373ffffffffffffffffffffffffffffffffffffffff1602179055505050565b6000809054906101000a900473ffffffffffffffffffffffffffffffffffffffff1681565b60015481565b6000809054906101000a900473ffffffffffffffffffffffffffffffffffffffff1673ffffffffffffffffffffffffffffffffffffffff163373ffffffffffffffffffffffffffffffffffffffff1614151561046c57600080fd5b600260009054906101000a900473ffffffffffffffffffffffffffffffffffffffff1673ffffffffffffffffffffffffffffffffffffffff1663ea8a1af06040518163ffffffff167c0100000000000000000000000000000000000000000000000000000000028152600401600060405180830381600087803b1580156104f257600080fd5b505af1158015610506573d6000803e3d6000fd5b50505050565b6000809054906101000a900473ffffffffffffffffffffffffffffffffffffffff1673ffffffffffffffffffffffffffffffffffffffff163373ffffffffffffffffffffffffffffffffffffffff1614151561056757600080fd5b806000806101000a81548173ffffffffffffffffffffffffffffffffffffffff021916908373ffffffffffffffffffffffffffffffffffffffff160217905550505600a165627a7a723058203859543f23d0459e2870a8a6fa1cd9bb01f570028ace5b88e78a8a16b119f7780029",
  "source": "pragma solidity ^0.4.23;\r\n\r\nimport \"../external/Owned.sol\";\r\nimport \"../Interfaces.sol\";\r\n\r\ncontract SimpleTask is Owned, ITask {\r\n\r\n    uint public blockInitialized;\r\n\r\n    IRecurringAlarmClock public alarmClock;\r\n\r\n    function initialize (address _owner, IRecurringAlarmClock _alarmClock) public {\r\n        blockInitialized = block.number;\r\n\r\n        alarmClock = _alarmClock;\r\n        owner = _owner;\r\n    }\r\n\r\n    function () public {\r\n        require(msg.sender == address(alarmClock), \"only the alarmClock can call the task\");\r\n\r\n        emit Task_event();\r\n    }\r\n\r\n    function cancel () public onlyOwner {\r\n        alarmClock.cancel();\r\n    }\r\n\r\n    event Task_event();\r\n\r\n}",
  "sourcePath": "C:\\Users\\My\\Documents\\GitHub\\everchain-project\\recurring-alarm-clock\\contracts\\tests\\SimpleTask.sol",
  "compiler": {
    "name": "solc",
    "version": "0.4.24+commit.e67f0147.Emscripten.clang"
  },
  "schemaVersion": "2.0.1",
  "updatedAt": "2018-10-16T21:51:53.395Z"
}