{
  "contractName": "SimplePayment",
  "abi": [
    {
      "constant": true,
      "inputs": [],
      "name": "wallet",
      "outputs": [
        {
          "name": "",
          "type": "address"
        }
      ],
      "payable": false,
      "stateMutability": "view",
      "type": "function"
    },
    {
      "constant": true,
      "inputs": [],
      "name": "recipient",
      "outputs": [
        {
          "name": "",
          "type": "address"
        }
      ],
      "payable": false,
      "stateMutability": "view",
      "type": "function"
    },
    {
      "constant": true,
      "inputs": [],
      "name": "blockInitialized",
      "outputs": [
        {
          "name": "",
          "type": "uint256"
        }
      ],
      "payable": false,
      "stateMutability": "view",
      "type": "function"
    },
    {
      "constant": true,
      "inputs": [],
      "name": "delegate",
      "outputs": [
        {
          "name": "",
          "type": "address"
        }
      ],
      "payable": false,
      "stateMutability": "view",
      "type": "function"
    },
    {
      "constant": true,
      "inputs": [],
      "name": "token",
      "outputs": [
        {
          "name": "",
          "type": "address"
        }
      ],
      "payable": false,
      "stateMutability": "view",
      "type": "function"
    },
    {
      "payable": false,
      "stateMutability": "nonpayable",
      "type": "fallback"
    },
    {
      "anonymous": false,
      "inputs": [
        {
          "indexed": false,
          "name": "amount",
          "type": "uint256"
        },
        {
          "indexed": false,
          "name": "success",
          "type": "bool"
        }
      ],
      "name": "Payment_event",
      "type": "event"
    },
    {
      "constant": false,
      "inputs": [
        {
          "name": "_delegate",
          "type": "address"
        },
        {
          "name": "_wallet",
          "type": "address"
        },
        {
          "name": "_token",
          "type": "address"
        },
        {
          "name": "_recipient",
          "type": "address"
        },
        {
          "name": "_amount",
          "type": "uint256"
        }
      ],
      "name": "initialize",
      "outputs": [],
      "payable": false,
      "stateMutability": "nonpayable",
      "type": "function"
    },
    {
      "constant": true,
      "inputs": [],
      "name": "amount",
      "outputs": [
        {
          "name": "",
          "type": "uint256"
        }
      ],
      "payable": false,
      "stateMutability": "view",
      "type": "function"
    },
    {
      "constant": false,
      "inputs": [],
      "name": "cancel",
      "outputs": [],
      "payable": false,
      "stateMutability": "nonpayable",
      "type": "function"
    }
  ],
  "bytecode": "0x608060405234801561001057600080fd5b50610968806100206000396000f30060806040526004361061008e576000357c0100000000000000000000000000000000000000000000000000000000900463ffffffff168063521eb273146102a757806366d003ac146102fe5780639bc40c4c14610355578063aa8c217c14610380578063c89e4361146103ab578063ea8a1af014610402578063f7013ef614610419578063fc0c546a146104c6575b34801561009a57600080fd5b506000600a60009054906101000a900473ffffffffffffffffffffffffffffffffffffffff1673ffffffffffffffffffffffffffffffffffffffff163373ffffffffffffffffffffffffffffffffffffffff161415156100f957600080fd5b600560009054906101000a900473ffffffffffffffffffffffffffffffffffffffff1673ffffffffffffffffffffffffffffffffffffffff1663614619546040518163ffffffff167c0100000000000000000000000000000000000000000000000000000000028152600401602060405180830381600087803b15801561017f57600080fd5b505af1158015610193573d6000803e3d6000fd5b505050506040513d60208110156101a957600080fd5b81019080805190602001909291905050509050600560009054906101000a900473ffffffffffffffffffffffffffffffffffffffff1673ffffffffffffffffffffffffffffffffffffffff1663daf1548c6040518163ffffffff167c0100000000000000000000000000000000000000000000000000000000028152600401600060405180830381600087803b15801561024257600080fd5b505af1158015610256573d6000803e3d6000fd5b505050507f1e9a20b1248b3c170ee57c4bba9adf7007f72c5a7c2644ad0848f04fcec1398d61028361051d565b8260405180838152602001821515151581526020019250505060405180910390a150005b3480156102b357600080fd5b506102bc610527565b604051808273ffffffffffffffffffffffffffffffffffffffff1673ffffffffffffffffffffffffffffffffffffffff16815260200191505060405180910390f35b34801561030a57600080fd5b5061031361054d565b604051808273ffffffffffffffffffffffffffffffffffffffff1673ffffffffffffffffffffffffffffffffffffffff16815260200191505060405180910390f35b34801561036157600080fd5b5061036a610573565b6040518082815260200191505060405180910390f35b34801561038c57600080fd5b5061039561051d565b6040518082815260200191505060405180910390f35b3480156103b757600080fd5b506103c0610579565b604051808273ffffffffffffffffffffffffffffffffffffffff1673ffffffffffffffffffffffffffffffffffffffff16815260200191505060405180910390f35b34801561040e57600080fd5b5061041761059f565b005b34801561042557600080fd5b506104c4600480360381019080803573ffffffffffffffffffffffffffffffffffffffff169060200190929190803573ffffffffffffffffffffffffffffffffffffffff169060200190929190803573ffffffffffffffffffffffffffffffffffffffff169060200190929190803573ffffffffffffffffffffffffffffffffffffffff16906020019092919080359060200190929190505050610742565b005b3480156104d257600080fd5b506104db610916565b604051808273ffffffffffffffffffffffffffffffffffffffff1673ffffffffffffffffffffffffffffffffffffffff16815260200191505060405180910390f35b6000600954905090565b600660009054906101000a900473ffffffffffffffffffffffffffffffffffffffff1681565b600860009054906101000a900473ffffffffffffffffffffffffffffffffffffffff1681565b60045481565b600560009054906101000a900473ffffffffffffffffffffffffffffffffffffffff1681565b600660009054906101000a900473ffffffffffffffffffffffffffffffffffffffff1673ffffffffffffffffffffffffffffffffffffffff166307779627336040518263ffffffff167c0100000000000000000000000000000000000000000000000000000000028152600401808273ffffffffffffffffffffffffffffffffffffffff1673ffffffffffffffffffffffffffffffffffffffff168152602001915050602060405180830381600087803b15801561065c57600080fd5b505af1158015610670573d6000803e3d6000fd5b505050506040513d602081101561068657600080fd5b810190808051906020019092919050505015156106a257600080fd5b600560009054906101000a900473ffffffffffffffffffffffffffffffffffffffff1673ffffffffffffffffffffffffffffffffffffffff1663daf1548c6040518163ffffffff167c0100000000000000000000000000000000000000000000000000000000028152600401600060405180830381600087803b15801561072857600080fd5b505af115801561073c573d6000803e3d6000fd5b50505050565b60006004541415156107bc576040517f08c379a00000000000000000000000000000000000000000000000000000000081526004018080602001828103825260188152602001807f63616e206f6e6c7920696e697469616c697a65206f6e6365000000000000000081525060200191505060405180910390fd5b4360048190555084600560006101000a81548173ffffffffffffffffffffffffffffffffffffffff021916908373ffffffffffffffffffffffffffffffffffffffff16021790555083600660006101000a81548173ffffffffffffffffffffffffffffffffffffffff021916908373ffffffffffffffffffffffffffffffffffffffff16021790555082600760006101000a81548173ffffffffffffffffffffffffffffffffffffffff021916908373ffffffffffffffffffffffffffffffffffffffff16021790555081600860006101000a81548173ffffffffffffffffffffffffffffffffffffffff021916908373ffffffffffffffffffffffffffffffffffffffff1602179055508060098190555033600a60006101000a81548173ffffffffffffffffffffffffffffffffffffffff021916908373ffffffffffffffffffffffffffffffffffffffff1602179055505050505050565b600760009054906101000a900473ffffffffffffffffffffffffffffffffffffffff16815600a165627a7a72305820034117f3f2dc100c09dab862e36571e03d2797f86086cccc72aff4d8a8cde6ca0029",
  "source": "pragma solidity ^0.4.23;\r\n\r\nimport \"../Interfaces.sol\";\r\n\r\ncontract SimplePayment is IPayment {\r\n\r\n    uint public blockInitialized;\r\n\r\n    IPaymentDelegate public delegate;\r\n    IDelegatedWallet public wallet;\r\n    address public token;\r\n    address public recipient;\r\n    uint paymentAmount;\r\n\r\n    address alarm;\r\n\r\n    function initialize (\r\n        IPaymentDelegate _delegate,\r\n        IDelegatedWallet _wallet,\r\n        address _token,\r\n        address _recipient,\r\n        uint _amount\r\n    ) public {\r\n        require(blockInitialized == 0, \"can only initialize once\");\r\n\r\n        blockInitialized = block.number;\r\n\r\n        delegate = _delegate;\r\n        wallet = _wallet;\r\n        token = _token;\r\n        recipient = _recipient;\r\n        paymentAmount = _amount;\r\n\r\n        alarm = msg.sender;\r\n    }\r\n    \r\n    function amount () public view returns (uint) {\r\n        return paymentAmount;\r\n    }\r\n\r\n    function () public {\r\n        require(msg.sender == alarm);\r\n        \r\n        bool success = delegate.execute();\r\n        delegate.unschedule();\r\n\r\n        emit Payment_event(amount(), success);\r\n    }\r\n\r\n    function cancel () public {\r\n        require(wallet.isDelegate(msg.sender));\r\n\r\n        delegate.unschedule();\r\n    }\r\n\r\n    event Payment_event(uint amount, bool success);\r\n\r\n}",
  "sourcePath": "C:\\Users\\My\\Documents\\GitHub\\everchain-project\\recurring-alarm-clock\\contracts\\tests\\SimplePayment.sol",
  "compiler": {
    "name": "solc",
    "version": "0.4.24+commit.e67f0147.Emscripten.clang"
  },
  "schemaVersion": "2.0.1",
  "updatedAt": "2018-10-16T21:51:53.415Z"
}