{
  "contractName": "TokenCoreFactory",
  "abi": [
    {
      "constant": true,
      "inputs": [],
      "name": "blueprint",
      "outputs": [
        {
          "name": "",
          "type": "address"
        }
      ],
      "payable": false,
      "stateMutability": "view",
      "type": "function"
    },
    {
      "inputs": [
        {
          "name": "_blueprint",
          "type": "address"
        }
      ],
      "payable": false,
      "stateMutability": "nonpayable",
      "type": "constructor"
    },
    {
      "anonymous": false,
      "inputs": [
        {
          "indexed": true,
          "name": "caller",
          "type": "address"
        },
        {
          "indexed": true,
          "name": "owner",
          "type": "address"
        },
        {
          "indexed": false,
          "name": "tokenCore",
          "type": "address"
        }
      ],
      "name": "CreateTokenCore_event",
      "type": "event"
    },
    {
      "anonymous": false,
      "inputs": [
        {
          "indexed": true,
          "name": "target",
          "type": "address"
        },
        {
          "indexed": false,
          "name": "clone",
          "type": "address"
        }
      ],
      "name": "CloneCreated",
      "type": "event"
    },
    {
      "constant": false,
      "inputs": [
        {
          "name": "owner",
          "type": "address"
        }
      ],
      "name": "createTokenCore",
      "outputs": [
        {
          "name": "",
          "type": "address"
        }
      ],
      "payable": false,
      "stateMutability": "nonpayable",
      "type": "function"
    }
  ],
  "bytecode": "0x608060405234801561001057600080fd5b5060405160208061049783398101806040528101908080519060200190929190505050806000806101000a81548173ffffffffffffffffffffffffffffffffffffffff021916908373ffffffffffffffffffffffffffffffffffffffff16021790555050610414806100836000396000f30060806040526004361061004c576000357c0100000000000000000000000000000000000000000000000000000000900463ffffffff168063af7f32d914610051578063c05efa15146100d4575b600080fd5b34801561005d57600080fd5b50610092600480360381019080803573ffffffffffffffffffffffffffffffffffffffff16906020019092919050505061012b565b604051808273ffffffffffffffffffffffffffffffffffffffff1673ffffffffffffffffffffffffffffffffffffffff16815260200191505060405180910390f35b3480156100e057600080fd5b506100e96102a7565b604051808273ffffffffffffffffffffffffffffffffffffffff1673ffffffffffffffffffffffffffffffffffffffff16815260200191505060405180910390f35b6000806101586000809054906101000a900473ffffffffffffffffffffffffffffffffffffffff166102cc565b90508073ffffffffffffffffffffffffffffffffffffffff1663c4d66de8846040518263ffffffff167c0100000000000000000000000000000000000000000000000000000000028152600401808273ffffffffffffffffffffffffffffffffffffffff1673ffffffffffffffffffffffffffffffffffffffff168152602001915050600060405180830381600087803b1580156101f557600080fd5b505af1158015610209573d6000803e3d6000fd5b505050508273ffffffffffffffffffffffffffffffffffffffff163373ffffffffffffffffffffffffffffffffffffffff167f54a598d49f63928c75c8be18e8ed097db88d50a5d1140a4ad30217263db0908983604051808273ffffffffffffffffffffffffffffffffffffffff1673ffffffffffffffffffffffffffffffffffffffff16815260200191505060405180910390a380915050919050565b6000809054906101000a900473ffffffffffffffffffffffffffffffffffffffff1681565b60006060600080606060405190810160405280603f81526020017f600034603b57603080600f833981f36000368180378080368173bebebebebebe81526020017fbebebebebebebebebebebebebebe5af43d82803e15602c573d90f35b3d90fd008152509250846c01000000000000000000000000029150600090505b60148110156103d157818160148110151561036057fe5b1a7f0100000000000000000000000000000000000000000000000000000000000000028382601a0181518110151561039457fe5b9060200101907effffffffffffffffffffffffffffffffffffffffffffffffffffffffffffff1916908160001a9053508080600101915050610349565b82516020840181816000f0955050505050509190505600a165627a7a72305820b94780b2bab78ecd8700ac5e1f5d14ab939e22782c4d675ac94cb805e14557110029",
  "source": "pragma solidity ^0.4.23;\r\n\r\nimport \"../external/CloneFactory.sol\";\r\nimport \"./TokenCore.sol\";\r\n\r\ncontract TokenCoreFactory is CloneFactory {\r\n\r\n    TokenCore public blueprint;\r\n\r\n    constructor (TokenCore _blueprint) public {\r\n        blueprint = _blueprint;\r\n    }\r\n\r\n    function createTokenCore (address owner) public returns (TokenCore) {\r\n        TokenCore tokenCore = TokenCore(createClone(blueprint));\r\n        tokenCore.initialize(owner);\r\n        emit CreateTokenCore_event(msg.sender, owner, tokenCore);\r\n\r\n        return tokenCore;\r\n    }\r\n    \r\n    event CreateTokenCore_event(address indexed caller, address indexed owner, TokenCore tokenCore);\r\n}\r\n",
  "sourcePath": "C:\\Users\\My\\Documents\\GitHub\\everchain-project\\recurring-alarm-clock\\contracts\\utility\\TokenCoreFactory.sol",
  "compiler": {
    "name": "solc",
    "version": "0.4.24+commit.e67f0147.Emscripten.clang"
  },
  "schemaVersion": "2.0.1",
  "updatedAt": "2018-09-30T19:37:48.625Z"
}