{
  "contractName": "TokenCore",
  "abi": [
    {
      "constant": true,
      "inputs": [],
      "name": "blockCreated",
      "outputs": [
        {
          "name": "",
          "type": "uint256"
        }
      ],
      "payable": false,
      "stateMutability": "view",
      "type": "function"
    },
    {
      "constant": true,
      "inputs": [],
      "name": "owner",
      "outputs": [
        {
          "name": "",
          "type": "address"
        }
      ],
      "payable": false,
      "stateMutability": "view",
      "type": "function"
    },
    {
      "constant": false,
      "inputs": [
        {
          "name": "_newOwner",
          "type": "address"
        }
      ],
      "name": "transferOwnership",
      "outputs": [],
      "payable": false,
      "stateMutability": "nonpayable",
      "type": "function"
    },
    {
      "payable": true,
      "stateMutability": "payable",
      "type": "fallback"
    },
    {
      "anonymous": false,
      "inputs": [
        {
          "indexed": true,
          "name": "sender",
          "type": "address"
        },
        {
          "indexed": false,
          "name": "amount",
          "type": "uint256"
        }
      ],
      "name": "Deposit_event",
      "type": "event"
    },
    {
      "anonymous": false,
      "inputs": [
        {
          "indexed": true,
          "name": "delegate",
          "type": "address"
        },
        {
          "indexed": true,
          "name": "token",
          "type": "address"
        },
        {
          "indexed": true,
          "name": "recipient",
          "type": "address"
        },
        {
          "indexed": false,
          "name": "amount",
          "type": "uint256"
        },
        {
          "indexed": false,
          "name": "success",
          "type": "bool"
        }
      ],
      "name": "Transfer_event",
      "type": "event"
    },
    {
      "constant": false,
      "inputs": [
        {
          "name": "_owner",
          "type": "address"
        }
      ],
      "name": "initialize",
      "outputs": [],
      "payable": false,
      "stateMutability": "nonpayable",
      "type": "function"
    },
    {
      "constant": false,
      "inputs": [
        {
          "name": "token",
          "type": "address"
        },
        {
          "name": "recipient",
          "type": "address"
        },
        {
          "name": "amount",
          "type": "uint256"
        }
      ],
      "name": "transfer",
      "outputs": [
        {
          "name": "success",
          "type": "bool"
        }
      ],
      "payable": false,
      "stateMutability": "nonpayable",
      "type": "function"
    }
  ],
  "bytecode": "0x6080604052336000806101000a81548173ffffffffffffffffffffffffffffffffffffffff021916908373ffffffffffffffffffffffffffffffffffffffff160217905550610667806100536000396000f30060806040526004361061006d576000357c0100000000000000000000000000000000000000000000000000000000900463ffffffff1680634e989a4c146100bd5780638da5cb5b146100e8578063beabacc81461013f578063c4d66de8146101c4578063f2fde38b14610207575b3373ffffffffffffffffffffffffffffffffffffffff167f13d8b731cfddb1e8d6d230a4f64afe94251cf4c4fa93e730ebda89a63f8baa21346040518082815260200191505060405180910390a2005b3480156100c957600080fd5b506100d261024a565b6040518082815260200191505060405180910390f35b3480156100f457600080fd5b506100fd610250565b604051808273ffffffffffffffffffffffffffffffffffffffff1673ffffffffffffffffffffffffffffffffffffffff16815260200191505060405180910390f35b34801561014b57600080fd5b506101aa600480360381019080803573ffffffffffffffffffffffffffffffffffffffff169060200190929190803573ffffffffffffffffffffffffffffffffffffffff16906020019092919080359060200190929190505050610275565b604051808215151515815260200191505060405180910390f35b3480156101d057600080fd5b50610205600480360381019080803573ffffffffffffffffffffffffffffffffffffffff1690602001909291905050506104b3565b005b34801561021357600080fd5b50610248600480360381019080803573ffffffffffffffffffffffffffffffffffffffff16906020019092919050505061059d565b005b60015481565b6000809054906101000a900473ffffffffffffffffffffffffffffffffffffffff1681565b60008060009054906101000a900473ffffffffffffffffffffffffffffffffffffffff1673ffffffffffffffffffffffffffffffffffffffff163373ffffffffffffffffffffffffffffffffffffffff161415156102d257600080fd5b600073ffffffffffffffffffffffffffffffffffffffff168473ffffffffffffffffffffffffffffffffffffffff161415610343578273ffffffffffffffffffffffffffffffffffffffff166108fc839081150290604051600060405180830381858888f193505050509050610424565b8373ffffffffffffffffffffffffffffffffffffffff1663a9059cbb84846040518363ffffffff167c0100000000000000000000000000000000000000000000000000000000028152600401808373ffffffffffffffffffffffffffffffffffffffff1673ffffffffffffffffffffffffffffffffffffffff16815260200182815260200192505050602060405180830381600087803b1580156103e657600080fd5b505af11580156103fa573d6000803e3d6000fd5b505050506040513d602081101561041057600080fd5b810190808051906020019092919050505090505b8273ffffffffffffffffffffffffffffffffffffffff168473ffffffffffffffffffffffffffffffffffffffff163373ffffffffffffffffffffffffffffffffffffffff167f2b18d03bce2e8cb16f892dea098b0ab4a47885659c15a7e2c68ce7c56c994571858560405180838152602001821515151581526020019250505060405180910390a49392505050565b6000600154141515610553576040517f08c379a00000000000000000000000000000000000000000000000000000000081526004018080602001828103825260258152602001807f636f6e74726163742063616e206f6e6c7920626520696e697469616c697a656481526020017f206f6e636500000000000000000000000000000000000000000000000000000081525060400191505060405180910390fd5b806000806101000a81548173ffffffffffffffffffffffffffffffffffffffff021916908373ffffffffffffffffffffffffffffffffffffffff1602179055504360018190555050565b6000809054906101000a900473ffffffffffffffffffffffffffffffffffffffff1673ffffffffffffffffffffffffffffffffffffffff163373ffffffffffffffffffffffffffffffffffffffff161415156105f857600080fd5b806000806101000a81548173ffffffffffffffffffffffffffffffffffffffff021916908373ffffffffffffffffffffffffffffffffffffffff160217905550505600a165627a7a723058200b77c517059e3aee8564a785ba77af5c43df62e7f5c51a9caf08e560023075050029",
  "source": "pragma solidity ^0.4.23;\r\n\r\nimport \"../external/ERC20.sol\";\r\nimport \"../external/Owned.sol\";\r\nimport \"../Interfaces.sol\";\r\n\r\ncontract TokenCore is Owned, ITokenSender {\r\n\r\n    uint public blockCreated;\r\n\r\n    function initialize (address _owner) public {\r\n        require(blockCreated == 0, \"contract can only be initialized once\");\r\n\r\n        owner = _owner;\r\n\r\n        blockCreated = block.number;\r\n    }\r\n\r\n    function transfer (address token, address recipient, uint amount) public onlyOwner returns (bool success) {\r\n        if(token == address(0x0))\r\n            success = recipient.send(amount);\r\n        else\r\n            success = ERC20(token).transfer(recipient, amount);\r\n        \r\n        emit Transfer_event(msg.sender, token, recipient, amount, success);\r\n    }\r\n\r\n    function () public payable {\r\n        emit Deposit_event(msg.sender, msg.value);\r\n    }\r\n\r\n    event Deposit_event (\r\n        address indexed sender, \r\n        uint amount\r\n    );\r\n\r\n    event Transfer_event (\r\n        address indexed delegate, \r\n        address indexed token, \r\n        address indexed recipient, \r\n        uint amount, \r\n        bool success\r\n    );\r\n\r\n} ",
  "sourcePath": "C:\\Users\\My\\Documents\\GitHub\\everchain-project\\recurring-alarm-clock\\contracts\\utility\\TokenCore.sol",
  "compiler": {
    "name": "solc",
    "version": "0.4.24+commit.e67f0147.Emscripten.clang"
  },
  "schemaVersion": "2.0.1",
  "updatedAt": "2018-09-30T19:37:48.625Z"
}