{
  "contractName": "TransactionScheduler",
  "abi": [
    {
      "constant": true,
      "inputs": [],
      "name": "blockCreated",
      "outputs": [
        {
          "name": "",
          "type": "uint256"
        }
      ],
      "payable": false,
      "stateMutability": "view",
      "type": "function"
    },
    {
      "anonymous": false,
      "inputs": [
        {
          "indexed": true,
          "name": "wallet",
          "type": "address"
        },
        {
          "indexed": true,
          "name": "payment",
          "type": "address"
        },
        {
          "indexed": false,
          "name": "success",
          "type": "bool"
        }
      ],
      "name": "Payment_event",
      "type": "event"
    },
    {
      "anonymous": false,
      "inputs": [
        {
          "indexed": true,
          "name": "wallet",
          "type": "address"
        },
        {
          "indexed": true,
          "name": "caller",
          "type": "address"
        },
        {
          "indexed": true,
          "name": "ftx",
          "type": "address"
        }
      ],
      "name": "Schedule_event",
      "type": "event"
    },
    {
      "anonymous": false,
      "inputs": [
        {
          "indexed": true,
          "name": "wallet",
          "type": "address"
        },
        {
          "indexed": true,
          "name": "caller",
          "type": "address"
        },
        {
          "indexed": true,
          "name": "ftx",
          "type": "address"
        }
      ],
      "name": "Unschedule_event",
      "type": "event"
    },
    {
      "constant": false,
      "inputs": [
        {
          "name": "token",
          "type": "address"
        },
        {
          "name": "recipient",
          "type": "address"
        },
        {
          "name": "amount",
          "type": "uint256"
        }
      ],
      "name": "transfer",
      "outputs": [
        {
          "name": "success",
          "type": "bool"
        }
      ],
      "payable": false,
      "stateMutability": "nonpayable",
      "type": "function"
    },
    {
      "constant": false,
      "inputs": [
        {
          "name": "callAddress",
          "type": "address"
        },
        {
          "name": "callValue",
          "type": "uint256"
        },
        {
          "name": "callData",
          "type": "bytes"
        }
      ],
      "name": "call",
      "outputs": [
        {
          "name": "success",
          "type": "bool"
        },
        {
          "name": "returnData",
          "type": "bytes"
        }
      ],
      "payable": false,
      "stateMutability": "nonpayable",
      "type": "function"
    },
    {
      "constant": false,
      "inputs": [
        {
          "name": "ftx",
          "type": "address"
        }
      ],
      "name": "schedule",
      "outputs": [
        {
          "name": "success",
          "type": "bool"
        }
      ],
      "payable": false,
      "stateMutability": "nonpayable",
      "type": "function"
    },
    {
      "constant": false,
      "inputs": [],
      "name": "unschedule",
      "outputs": [
        {
          "name": "success",
          "type": "bool"
        }
      ],
      "payable": false,
      "stateMutability": "nonpayable",
      "type": "function"
    },
    {
      "constant": false,
      "inputs": [
        {
          "name": "ftx",
          "type": "address"
        }
      ],
      "name": "unschedule",
      "outputs": [
        {
          "name": "success",
          "type": "bool"
        }
      ],
      "payable": false,
      "stateMutability": "nonpayable",
      "type": "function"
    },
    {
      "constant": true,
      "inputs": [
        {
          "name": "ftx",
          "type": "address"
        }
      ],
      "name": "valid",
      "outputs": [
        {
          "name": "",
          "type": "bool"
        }
      ],
      "payable": false,
      "stateMutability": "view",
      "type": "function"
    },
    {
      "constant": true,
      "inputs": [
        {
          "name": "wallet",
          "type": "address"
        }
      ],
      "name": "getOutgoingPayments",
      "outputs": [
        {
          "name": "",
          "type": "address[]"
        }
      ],
      "payable": false,
      "stateMutability": "view",
      "type": "function"
    },
    {
      "constant": true,
      "inputs": [
        {
          "name": "wallet",
          "type": "address"
        }
      ],
      "name": "getTotalFutureTransactions",
      "outputs": [
        {
          "name": "",
          "type": "uint256"
        }
      ],
      "payable": false,
      "stateMutability": "view",
      "type": "function"
    },
    {
      "constant": true,
      "inputs": [
        {
          "name": "wallet",
          "type": "address"
        },
        {
          "name": "i",
          "type": "uint256"
        }
      ],
      "name": "getFutureTransactionAtIndex",
      "outputs": [
        {
          "name": "",
          "type": "address"
        }
      ],
      "payable": false,
      "stateMutability": "view",
      "type": "function"
    },
    {
      "constant": true,
      "inputs": [
        {
          "name": "wallet",
          "type": "address"
        },
        {
          "name": "ftx",
          "type": "address"
        }
      ],
      "name": "walletContainsPayment",
      "outputs": [
        {
          "name": "",
          "type": "bool"
        }
      ],
      "payable": false,
      "stateMutability": "view",
      "type": "function"
    }
  ],
  "bytecode": "0x60806040524360005534801561001457600080fd5b50611e80806100246000396000f3fe6080604052600436106100af576000357c0100000000000000000000000000000000000000000000000000000000900463ffffffff168063316bef98146100b45780634e989a4c1461011d5780636dbf2fa014610148578063785e96d8146102be5780638d498ba9146103595780639ba00f0f146103ff5780639f35991b14610488578063ac8a260c146104ed578063beabacc814610556578063daf1548c146105e9578063f4c0f41314610618575b600080fd5b3480156100c057600080fd5b50610103600480360360208110156100d757600080fd5b81019080803573ffffffffffffffffffffffffffffffffffffffff169060200190929190505050610681565b604051808215151515815260200191505060405180910390f35b34801561012957600080fd5b5061013261093a565b6040518082815260200191505060405180910390f35b34801561015457600080fd5b506102386004803603606081101561016b57600080fd5b81019080803573ffffffffffffffffffffffffffffffffffffffff16906020019092919080359060200190929190803590602001906401000000008111156101b257600080fd5b8201836020820111156101c457600080fd5b803590602001918460018302840111640100000000831117156101e657600080fd5b91908080601f016020809104026020016040519081016040528093929190818152602001838380828437600081840152601f19601f820116905080830192505050505050509192919290505050610940565b604051808315151515815260200180602001828103825283818151815260200191508051906020019080838360005b83811015610282578082015181840152602081019050610267565b50505050905090810190601f1680156102af5780820380516001836020036101000a031916815260200191505b50935050505060405180910390f35b3480156102ca57600080fd5b50610317600480360360408110156102e157600080fd5b81019080803573ffffffffffffffffffffffffffffffffffffffff16906020019092919080359060200190929190505050610dc4565b604051808273ffffffffffffffffffffffffffffffffffffffff1673ffffffffffffffffffffffffffffffffffffffff16815260200191505060405180910390f35b34801561036557600080fd5b506103a86004803603602081101561037c57600080fd5b81019080803573ffffffffffffffffffffffffffffffffffffffff169060200190929190505050610ebc565b6040518080602001828103825283818151815260200191508051906020019060200280838360005b838110156103eb5780820151818401526020810190506103d0565b505050509050019250505060405180910390f35b34801561040b57600080fd5b5061046e6004803603604081101561042257600080fd5b81019080803573ffffffffffffffffffffffffffffffffffffffff169060200190929190803573ffffffffffffffffffffffffffffffffffffffff169060200190929190505050611001565b604051808215151515815260200191505060405180910390f35b34801561049457600080fd5b506104d7600480360360208110156104ab57600080fd5b81019080803573ffffffffffffffffffffffffffffffffffffffff169060200190929190505050611125565b6040518082815260200191505060405180910390f35b3480156104f957600080fd5b5061053c6004803603602081101561051057600080fd5b81019080803573ffffffffffffffffffffffffffffffffffffffff169060200190929190505050611214565b604051808215151515815260200191505060405180910390f35b34801561056257600080fd5b506105cf6004803603606081101561057957600080fd5b81019080803573ffffffffffffffffffffffffffffffffffffffff169060200190929190803573ffffffffffffffffffffffffffffffffffffffff16906020019092919080359060200190929190505050611489565b604051808215151515815260200191505060405180910390f35b3480156105f557600080fd5b506105fe61186a565b604051808215151515815260200191505060405180910390f35b34801561062457600080fd5b506106676004803603602081101561063b57600080fd5b81019080803573ffffffffffffffffffffffffffffffffffffffff169060200190929190505050611aaa565b604051808215151515815260200191505060405180910390f35b6000808273ffffffffffffffffffffffffffffffffffffffff1663521eb2736040518163ffffffff167c010000000000000000000000000000000000000000000000000000000002815260040160206040518083038186803b1580156106e657600080fd5b505afa1580156106fa573d6000803e3d6000fd5b505050506040513d602081101561071057600080fd5b8101908080519060200190929190505050905061072c83611214565b15156107a0576040517f08c379a000000000000000000000000000000000000000000000000000000000815260040180806020018281038252601f8152602001807f667574757265207472616e73616374696f6e206973206e6f742076616c69640081525060200191505060405180910390fd5b600160008273ffffffffffffffffffffffffffffffffffffffff1673ffffffffffffffffffffffffffffffffffffffff16815260200190815260200160002073__AddressListLib________________________6390c158cb9091856040518363ffffffff167c0100000000000000000000000000000000000000000000000000000000028152600401808381526020018273ffffffffffffffffffffffffffffffffffffffff1673ffffffffffffffffffffffffffffffffffffffff1681526020019250505060206040518083038186803b15801561087f57600080fd5b505af4158015610893573d6000803e3d6000fd5b505050506040513d60208110156108a957600080fd5b810190808051906020019092919050505091508115610934578273ffffffffffffffffffffffffffffffffffffffff163373ffffffffffffffffffffffffffffffffffffffff168273ffffffffffffffffffffffffffffffffffffffff167feeff87c17b7a01ed28c42162e95c1b9c8f15ac5b7ba59b6ba8fc617d703e35c060405160405180910390a45b50919050565b60005481565b60006060600033905060008173ffffffffffffffffffffffffffffffffffffffff1663521eb2736040518163ffffffff167c010000000000000000000000000000000000000000000000000000000002815260040160206040518083038186803b1580156109ad57600080fd5b505afa1580156109c1573d6000803e3d6000fd5b505050506040513d60208110156109d757600080fd5b81019080805190602001909291905050509050600160008273ffffffffffffffffffffffffffffffffffffffff1673ffffffffffffffffffffffffffffffffffffffff16815260200190815260200160002073__AddressListLib________________________631a65cb959091846040518363ffffffff167c0100000000000000000000000000000000000000000000000000000000028152600401808381526020018273ffffffffffffffffffffffffffffffffffffffff1673ffffffffffffffffffffffffffffffffffffffff1681526020019250505060206040518083038186803b158015610ac957600080fd5b505af4158015610add573d6000803e3d6000fd5b505050506040513d6020811015610af357600080fd5b81019080805190602001909291905050501515610b9e576040517f08c379a00000000000000000000000000000000000000000000000000000000081526004018080602001828103825260318152602001807f7061796d656e7420646f6573206e6f7420657869737420696e2074686520776181526020017f6c6c6574207061796d656e74206c69737400000000000000000000000000000081525060400191505060405180910390fd5b8073ffffffffffffffffffffffffffffffffffffffff16636dbf2fa08888886040518463ffffffff167c0100000000000000000000000000000000000000000000000000000000028152600401808473ffffffffffffffffffffffffffffffffffffffff1673ffffffffffffffffffffffffffffffffffffffff16815260200183815260200180602001828103825283818151815260200191508051906020019080838360005b83811015610c60578082015181840152602081019050610c45565b50505050905090810190601f168015610c8d5780820380516001836020036101000a031916815260200191505b50945050505050600060405180830381600087803b158015610cae57600080fd5b505af1158015610cc2573d6000803e3d6000fd5b505050506040513d6000823e3d601f19601f820116820180604052506040811015610cec57600080fd5b81019080805190602001909291908051640100000000811115610d0e57600080fd5b82810190506020810184811115610d2457600080fd5b8151856001820283011164010000000082111715610d4157600080fd5b505092919050505080945081955050508173ffffffffffffffffffffffffffffffffffffffff168173ffffffffffffffffffffffffffffffffffffffff167f4dceb65a4c53548f929868e6225cfbffc89698faa122be4b026fd9cace8978b286604051808215151515815260200191505060405180910390a35050935093915050565b6000600160008473ffffffffffffffffffffffffffffffffffffffff1673ffffffffffffffffffffffffffffffffffffffff16815260200190815260200160002073__AddressListLib________________________63492d214c9091846040518363ffffffff167c0100000000000000000000000000000000000000000000000000000000028152600401808381526020018281526020019250505060206040518083038186803b158015610e7957600080fd5b505af4158015610e8d573d6000803e3d6000fd5b505050506040513d6020811015610ea357600080fd5b8101908080519060200190929190505050905092915050565b6060600160008373ffffffffffffffffffffffffffffffffffffffff1673ffffffffffffffffffffffffffffffffffffffff16815260200190815260200160002073__AddressListLib________________________6330b05fbc90916040518263ffffffff167c01000000000000000000000000000000000000000000000000000000000281526004018082815260200191505060006040518083038186803b158015610f6957600080fd5b505af4158015610f7d573d6000803e3d6000fd5b505050506040513d6000823e3d601f19601f820116820180604052506020811015610fa757600080fd5b810190808051640100000000811115610fbf57600080fd5b82810190506020810184811115610fd557600080fd5b8151856020820283011164010000000082111715610ff257600080fd5b50509291905050509050919050565b6000600160008473ffffffffffffffffffffffffffffffffffffffff1673ffffffffffffffffffffffffffffffffffffffff16815260200190815260200160002073__AddressListLib________________________631a65cb959091846040518363ffffffff167c0100000000000000000000000000000000000000000000000000000000028152600401808381526020018273ffffffffffffffffffffffffffffffffffffffff1673ffffffffffffffffffffffffffffffffffffffff1681526020019250505060206040518083038186803b1580156110e257600080fd5b505af41580156110f6573d6000803e3d6000fd5b505050506040513d602081101561110c57600080fd5b8101908080519060200190929190505050905092915050565b6000600160008373ffffffffffffffffffffffffffffffffffffffff1673ffffffffffffffffffffffffffffffffffffffff16815260200190815260200160002073__AddressListLib________________________631ecb748690916040518263ffffffff167c01000000000000000000000000000000000000000000000000000000000281526004018082815260200191505060206040518083038186803b1580156111d257600080fd5b505af41580156111e6573d6000803e3d6000fd5b505050506040513d60208110156111fc57600080fd5b81019080805190602001909291905050509050919050565b6000808273ffffffffffffffffffffffffffffffffffffffff1663521eb2736040518163ffffffff167c010000000000000000000000000000000000000000000000000000000002815260040160206040518083038186803b15801561127957600080fd5b505afa15801561128d573d6000803e3d6000fd5b505050506040513d60208110156112a357600080fd5b810190808051906020019092919050505090508073ffffffffffffffffffffffffffffffffffffffff166307779627306040518263ffffffff167c0100000000000000000000000000000000000000000000000000000000028152600401808273ffffffffffffffffffffffffffffffffffffffff1673ffffffffffffffffffffffffffffffffffffffff16815260200191505060206040518083038186803b15801561134f57600080fd5b505afa158015611363573d6000803e3d6000fd5b505050506040513d602081101561137957600080fd5b8101908080519060200190929190505050151561139a576000915050611484565b8073ffffffffffffffffffffffffffffffffffffffff166307779627336040518263ffffffff167c0100000000000000000000000000000000000000000000000000000000028152600401808273ffffffffffffffffffffffffffffffffffffffff1673ffffffffffffffffffffffffffffffffffffffff16815260200191505060206040518083038186803b15801561143357600080fd5b505afa158015611447573d6000803e3d6000fd5b505050506040513d602081101561145d57600080fd5b8101908080519060200190929190505050151561147e576000915050611484565b60019150505b919050565b60008033905060008173ffffffffffffffffffffffffffffffffffffffff1663521eb2736040518163ffffffff167c010000000000000000000000000000000000000000000000000000000002815260040160206040518083038186803b1580156114f357600080fd5b505afa158015611507573d6000803e3d6000fd5b505050506040513d602081101561151d57600080fd5b81019080805190602001909291905050509050600160008273ffffffffffffffffffffffffffffffffffffffff1673ffffffffffffffffffffffffffffffffffffffff16815260200190815260200160002073__AddressListLib________________________631a65cb959091846040518363ffffffff167c0100000000000000000000000000000000000000000000000000000000028152600401808381526020018273ffffffffffffffffffffffffffffffffffffffff1673ffffffffffffffffffffffffffffffffffffffff1681526020019250505060206040518083038186803b15801561160f57600080fd5b505af4158015611623573d6000803e3d6000fd5b505050506040513d602081101561163957600080fd5b810190808051906020019092919050505015156116e4576040517f08c379a00000000000000000000000000000000000000000000000000000000081526004018080602001828103825260318152602001807f7061796d656e7420646f6573206e6f7420657869737420696e2074686520776181526020017f6c6c6574207061796d656e74206c69737400000000000000000000000000000081525060400191505060405180910390fd5b8073ffffffffffffffffffffffffffffffffffffffff1663beabacc88787876040518463ffffffff167c0100000000000000000000000000000000000000000000000000000000028152600401808473ffffffffffffffffffffffffffffffffffffffff1673ffffffffffffffffffffffffffffffffffffffff1681526020018373ffffffffffffffffffffffffffffffffffffffff1673ffffffffffffffffffffffffffffffffffffffff1681526020018281526020019350505050602060405180830381600087803b1580156117bb57600080fd5b505af11580156117cf573d6000803e3d6000fd5b505050506040513d60208110156117e557600080fd5b810190808051906020019092919050505092508173ffffffffffffffffffffffffffffffffffffffff168173ffffffffffffffffffffffffffffffffffffffff167f4dceb65a4c53548f929868e6225cfbffc89698faa122be4b026fd9cace8978b285604051808215151515815260200191505060405180910390a350509392505050565b60008033905060008173ffffffffffffffffffffffffffffffffffffffff1663521eb2736040518163ffffffff167c010000000000000000000000000000000000000000000000000000000002815260040160206040518083038186803b1580156118d457600080fd5b505afa1580156118e8573d6000803e3d6000fd5b505050506040513d60208110156118fe57600080fd5b81019080805190602001909291905050509050600160008273ffffffffffffffffffffffffffffffffffffffff1673ffffffffffffffffffffffffffffffffffffffff16815260200190815260200160002073__AddressListLib________________________636c11a8a39091846040518363ffffffff167c0100000000000000000000000000000000000000000000000000000000028152600401808381526020018273ffffffffffffffffffffffffffffffffffffffff1673ffffffffffffffffffffffffffffffffffffffff1681526020019250505060206040518083038186803b1580156119f057600080fd5b505af4158015611a04573d6000803e3d6000fd5b505050506040513d6020811015611a1a57600080fd5b810190808051906020019092919050505092508215611aa5578173ffffffffffffffffffffffffffffffffffffffff168273ffffffffffffffffffffffffffffffffffffffff168273ffffffffffffffffffffffffffffffffffffffff167f8a8b9b9f0d7621ac2e305c16bb0e3a588357ead602db12ff673dafee6ec0924d60405160405180910390a45b505090565b6000808273ffffffffffffffffffffffffffffffffffffffff1663521eb2736040518163ffffffff167c010000000000000000000000000000000000000000000000000000000002815260040160206040518083038186803b158015611b0f57600080fd5b505afa158015611b23573d6000803e3d6000fd5b505050506040513d6020811015611b3957600080fd5b810190808051906020019092919050505090508073ffffffffffffffffffffffffffffffffffffffff166307779627336040518263ffffffff167c0100000000000000000000000000000000000000000000000000000000028152600401808273ffffffffffffffffffffffffffffffffffffffff1673ffffffffffffffffffffffffffffffffffffffff16815260200191505060206040518083038186803b158015611be557600080fd5b505afa158015611bf9573d6000803e3d6000fd5b505050506040513d6020811015611c0f57600080fd5b81019080805190602001909291905050501515611cba576040517f08c379a00000000000000000000000000000000000000000000000000000000081526004018080602001828103825260238152602001807f7363686564756c6572206d75737420626520612077616c6c65742064656c656781526020017f617465000000000000000000000000000000000000000000000000000000000081525060400191505060405180910390fd5b600160008273ffffffffffffffffffffffffffffffffffffffff1673ffffffffffffffffffffffffffffffffffffffff16815260200190815260200160002073__AddressListLib________________________636c11a8a39091856040518363ffffffff167c0100000000000000000000000000000000000000000000000000000000028152600401808381526020018273ffffffffffffffffffffffffffffffffffffffff1673ffffffffffffffffffffffffffffffffffffffff1681526020019250505060206040518083038186803b158015611d9957600080fd5b505af4158015611dad573d6000803e3d6000fd5b505050506040513d6020811015611dc357600080fd5b810190808051906020019092919050505091508115611e4e578273ffffffffffffffffffffffffffffffffffffffff163373ffffffffffffffffffffffffffffffffffffffff168273ffffffffffffffffffffffffffffffffffffffff167f8a8b9b9f0d7621ac2e305c16bb0e3a588357ead602db12ff673dafee6ec0924d60405160405180910390a45b5091905056fea165627a7a7230582070fccb9263662602647ba4dfb1555df0a8f5fc541a07d36a548d381800a3eb260029",
  "source": "pragma solidity ^0.5.0;\n\nimport \"../external/AddressListLib.sol\";\nimport \"../external/Owned.sol\";\nimport \"../Interfaces.sol\";\n\n/// @title PaymentDelegate Contract\n/// @author Joseph Reed\n/// @dev The PaymentDelegate acts as a hub for sending and recieving payments. The payment contract is responsible\n///      for registering any recipients it has.\ncontract TransactionScheduler is ITransactionScheduler {\n\n    using AddressListLib for AddressListLib.AddressList;      // Import the data structure AddressList from the AddressListLib contract\n\n    uint public blockCreated = block.number;    // The block the payment delegate was deployed\n\n    mapping (address => AddressListLib.AddressList) futureTransactions;\n\n    /// @notice Executes the payment associated with the address of 'msg.sender'\n    /// @param token The token to send for the payment\n    /// @param recipient The recipient of the specified amount of tokens\n    /// @param amount The amount of tokens to send to the recipient\n    /// @return True if the payment executed successfully\n    function transfer (address token, address payable recipient, uint amount) public returns (bool success) {\n        IFutureTransaction ftx = IFutureTransaction(msg.sender);\n        IDelegatedWallet wallet = ftx.wallet();\n        require(futureTransactions[address(wallet)].contains(address(ftx)), \"payment does not exist in the wallet payment list\");\n\n        success = wallet.transfer(token, recipient, amount);\n        emit Payment_event(wallet, ftx, success);\n    }\n\n    function call (address callAddress, uint callValue, bytes memory callData) public returns (bool success, bytes memory returnData) {\n        IFutureTransaction ftx = IFutureTransaction(msg.sender);\n        IDelegatedWallet wallet = ftx.wallet();\n        require(futureTransactions[address(wallet)].contains(address(ftx)), \"payment does not exist in the wallet payment list\");\n\n        (success, returnData) = wallet.call(callAddress, callValue, callData);\n        emit Payment_event(wallet, ftx, success);\n    }\n\n    /// @notice Schedules a payment. Only callable by a wallet delegate\n    /// @param ftx The payment contract responsible for holding logic and data about the payment\n    function schedule (IFutureTransaction ftx) public returns (bool success) {\n        IDelegatedWallet wallet = ftx.wallet();\n        require(valid(ftx), \"future transaction is not valid\");\n\n        success = futureTransactions[address(wallet)].add(address(ftx));\n        if(success)\n            emit Schedule_event(wallet, msg.sender, ftx);\n    }\n\n    /// @notice Allows a wallet delegate to unschedules a future transaction\n    /// @param ftx The payment contract responsible for holding logic and data about the payment\n    function unschedule (IFutureTransaction ftx) public returns (bool success) {\n        IDelegatedWallet wallet = ftx.wallet();\n        require(wallet.isDelegate(msg.sender), \"scheduler must be a wallet delegate\");\n\n        success = futureTransactions[address(wallet)].remove(address(ftx));\n        if(success)\n            emit Unschedule_event(wallet, msg.sender, ftx);\n    }\n\n    /// @notice Allows a future transaction to unschedule itself\n    function unschedule () public returns (bool success) {\n        IFutureTransaction ftx = IFutureTransaction(msg.sender);\n        IDelegatedWallet wallet = ftx.wallet();\n        success = futureTransactions[address(wallet)].remove(address(ftx));\n        if(success)\n            emit Unschedule_event(wallet, address(ftx), ftx);\n    }\n\n    /// @notice Determines if a future transaction is valid\n    function valid (IFutureTransaction ftx) public view returns (bool) {\n\t\tIDelegatedWallet wallet = ftx.wallet();\n        if(!wallet.isDelegate(address(this))) return false;\n        if(!wallet.isDelegate(msg.sender)) return false;\n\n        return true;\n\t}\n\n    /// @notice Fetches the outgoing payments of a given delegated wallet\n    /// @param wallet The delegated wallet for which we are fetching outgoing payment\n    /// @return The list of outgoing payments associated with the 'wallet'\n    function getOutgoingPayments (IDelegatedWallet wallet) public view returns (address[] memory) {\n        return futureTransactions[address(wallet)].get();\n    }\n\n    /// @notice Fetches the total number of outgoing payments of a given delegated wallet\n    /// @param wallet The delegated wallet for which we are fetching the number of outgoing payment\n    /// @return The number of outgoing payments associated with the 'wallet'\n    function getTotalFutureTransactions (IDelegatedWallet wallet) public view returns (uint) {\n        return futureTransactions[address(wallet)].getLength();\n    }\n\n    /// @notice Fetches the outgoing payments of a given delegated wallet at a given index\n    /// @param wallet The account to search\n    /// @param i The index of the payment to fetch\n    /// @return The outgoing payment at index 'i'\n    function getFutureTransactionAtIndex (IDelegatedWallet wallet, uint i) public view returns (IFutureTransaction) {\n        return IFutureTransaction(futureTransactions[address(wallet)].index(i));\n    }\n\n    /// @notice Indicated whether an account currently is associated with an outgoing payment\n    /// @param wallet The account to search\n    /// @param ftx The future transaction to check for\n    /// @return True if the given 'wallet' contains the given 'payment'\n    function walletContainsPayment (address wallet, IFutureTransaction ftx)public view returns (bool) {\n        return futureTransactions[wallet].contains(address(ftx));\n    }\n\n    event Payment_event (IDelegatedWallet indexed wallet, IFutureTransaction indexed payment, bool success);\n    event Schedule_event (IDelegatedWallet indexed wallet, address indexed caller, IFutureTransaction indexed ftx);\n    event Unschedule_event (IDelegatedWallet indexed wallet, address indexed caller, IFutureTransaction indexed ftx);\n\n}\n",
  "sourcePath": "/home/joe/Documents/github/everchain-project/recurring-transactions/contracts/delegates/TransactionScheduler.sol",
  "compiler": {
    "name": "solc",
    "version": "0.5.0+commit.1d4f565a.Emscripten.clang"
  },
  "schemaVersion": "3.0.9",
  "updatedAt": "2019-05-14T22:18:51.841Z",
  "devdoc": {
    "author": "Joseph Reed",
    "details": "The PaymentDelegate acts as a hub for sending and recieving payments. The payment contract is responsible      for registering any recipients it has.",
    "methods": {
      "getFutureTransactionAtIndex(address,uint256)": {
        "params": {
          "i": "The index of the payment to fetch",
          "wallet": "The account to search"
        },
        "return": "The outgoing payment at index 'i'"
      },
      "getOutgoingPayments(address)": {
        "params": {
          "wallet": "The delegated wallet for which we are fetching outgoing payment"
        },
        "return": "The list of outgoing payments associated with the 'wallet'"
      },
      "getTotalFutureTransactions(address)": {
        "params": {
          "wallet": "The delegated wallet for which we are fetching the number of outgoing payment"
        },
        "return": "The number of outgoing payments associated with the 'wallet'"
      },
      "schedule(address)": {
        "params": {
          "ftx": "The payment contract responsible for holding logic and data about the payment"
        }
      },
      "transfer(address,address,uint256)": {
        "params": {
          "amount": "The amount of tokens to send to the recipient",
          "recipient": "The recipient of the specified amount of tokens",
          "token": "The token to send for the payment"
        },
        "return": "True if the payment executed successfully"
      },
      "unschedule(address)": {
        "params": {
          "ftx": "The payment contract responsible for holding logic and data about the payment"
        }
      },
      "walletContainsPayment(address,address)": {
        "params": {
          "ftx": "The future transaction to check for",
          "wallet": "The account to search"
        },
        "return": "True if the given 'wallet' contains the given 'payment'"
      }
    },
    "title": "PaymentDelegate Contract"
  },
  "userdoc": {
    "methods": {
      "getFutureTransactionAtIndex(address,uint256)": {
        "notice": "Fetches the outgoing payments of a given delegated wallet at a given index"
      },
      "getOutgoingPayments(address)": {
        "notice": "Fetches the outgoing payments of a given delegated wallet"
      },
      "getTotalFutureTransactions(address)": {
        "notice": "Fetches the total number of outgoing payments of a given delegated wallet"
      },
      "schedule(address)": {
        "notice": "Schedules a payment. Only callable by a wallet delegate"
      },
      "transfer(address,address,uint256)": {
        "notice": "Executes the payment associated with the address of 'msg.sender'"
      },
      "unschedule()": {
        "notice": "Allows a future transaction to unschedule itself"
      },
      "unschedule(address)": {
        "notice": "Allows a wallet delegate to unschedules a future transaction"
      },
      "valid(address)": {
        "notice": "Determines if a future transaction is valid"
      },
      "walletContainsPayment(address,address)": {
        "notice": "Indicated whether an account currently is associated with an outgoing payment"
      }
    }
  }
}